:020000041004E6
:1480000002480349016000F0B7BF000008ED00E000840410A2
:2084000000A4000800800410655C0810AD5B0810AD5B0810AD5B0810AD5B0810115C08103E
:20842000115C0810115C0810115C0810755A0810115C0810115C0810115C08107158081056
:20844000715808107158081071580810715808107158081071580810715808107158081014
:208460007158081071580810715808107158081071580810715808107158081071580810F4
:20848000115C0810115C0810115C0810115C0810115C0810115C0810115C0810115C0810B4
:2084A000115C0810115C0810115C0810115C0810115C0810115C0810115C0810115C081094
:2084C000115C0810115C0810115C0810115C0810115C0810115C0810115C0810115C081074
:2084E000115C0810115C0810115C0810115C0810115C0810115C0810115C0810115C081054
:20850000115C0810115C0810115C0810115C0810115C0810115C0810115C0810115C081033
:20852000115C0810115C0810115C0810115C0810115C0810115C0810115C0810115C081013
:20854000115C0810115C0810115C0810115C0810115C0810115C0810115C0810115C0810F3
:20856000115C0810115C0810115C0810115C0810115C0810115C0810115C0810115C0810D3
:20858000115C0810115C0810115C0810115C0810115C0810115C0810115C0810115C0810B3
:2085A000115C0810115C0810115C0810115C0810115C0810115C0810115C0810115C081093
:2085C000115C0810115C0810115C0810115C0810115C0810115C0810115C0810115C081073
:2085E000115C0810115C0810115C0810115C0810115C0810115C0810115C0810115C081053
:20860000115C0810115C0810115C0810115C0810115C0810115C0810115C0810115C081032
:20862000115C0810115C0810115C0810115C0810115C0810115C0810115C0810115C081012
:20864000115C0810115C0810115C0810115C0810115C0810115C0810115C0810115C0810F2
:20866000115C0810115C0810115C0810115C0810115C0810115C0810115C0810115C0810D2
:20868000115C0810115C0810115C0810115C0810115C0810115C0810115C0810115C0810B2
:2086A000115C0810115C0810115C0810115C0810115C0810115C0810115C0810115C081092
:2086C000115C0810115C0810115C0810115C0810115C0810115C0810115C0810115C081072
:2086E000115C0810115C0810115C0810115C0810115C0810115C0810115C0810115C081052
:20870000115C0810115C0810115C0810115C0810115C0810115C0810115C0810115C081031
:20872000115C0810115C0810115C0810115C0810115C0810115C0810115C0810115C081011
:20874000115C0810115C0810115C0810115C0810115C0810115C0810115C0810115C0810F1
:20876000115C0810115C0810115C0810115C0810115C0810115C0810115C0810115C0810D1
:20878000115C0810115C0810115C0810115C0810115C0810115C0810115C0810115C0810B1
:2087A000115C0810115C0810115C0810115C0810115C0810115C0810115C0810115C081091
:2087C000115C0810115C0810115C0810115C0810115C0810115C0810115C0810115C081071
:2087E000115C0810115C0810115C0810115C0810115C0810115C0810115C0810FFFFFFFFDA
:2088000002000001000000FF17042020FFFFFFFFFFFFFFFFFFFFFFFFFFFFFFFFFFFFFFFF0F
:04882000FFFFFFFF58
:048900004224489035
:0489F00017128019C1
:0C8D0C00FFFFFFFFFFFFFFFFFFFFFFFF67
:208D200030B40346104600248C420FD246F6DC75C1F20E0513F8012B42401206D20D525B2D
:208D400082EA102080B201348C42F3D330BC70472DE9F00C01004FF0010000F0A1800C6801
:208D6000002C00F09D8065884FF6FF718D4218BF002D00F0958034F8091C0023AB4280F06F
:208D80008B8004EBC3067268B668B2F1FF3F1CBF002A964203D822888A427FD080E0B61A8A
:208DA00006F1010C5FEADC075DD046F6DC76C1F20E0632F808AB8AEA010B4FEA0B6B4FEABC
:208DC000DB5B3BF806B08BEA212181EA1A2A4FEA0A6A4FEADA5A3AF806B032F806AC8BEABB
:208DE00021218AEA010B4FEA0B6B4FEADB5B3BF806B08BEA212181EA1A2A4FEA0A6A4FEA5E
:208E0000DA5A3AF806B032F804AC8BEA21218AEA010B4FEA0B6B4FEADB5B3BF806B08BEAA9
:208E2000212181EA1A2A4FEA0A6A4FEADA5A3AF806B032F802AC8BEA21218AEA010B4FEAF7
:208E40000B6B4FEADB5B3BF806B08BEA212181EA1A2A4FEA0A6A4FEADA5A3AF806A08AEA78
:208E60002121013FA5D11CF0070611D046F6DC77C1F20E0712F801CB8CEA010C4FEA0C6C9F
:208E80004FEADC5C3CF807C08CEA2121013EF1D10133AB42FFF475AF22888A4208BF002018
:208EA000BDE8F00C70472DE9F0444DF6FC46C0F6000600214FF4887062F08BFB46F68820B7
:208EC000C1F20E000024057B3470AC420FD22746D0F808A0380E0AEBC000FFF739FF08B1FB
:208EE0000124347007F18077B5EB176FF2D80CB90220307000F044F901214FF48870BDE814
:208F0000F04462F066BBFFF7CEBFF0B54DF6FC46C0F60006022046F68821C1F20E013070D8
:208F20000C790025A54228BFF0BD0F68280E07EBC000FFF70DFF08B10120307005F1807546
:208F4000B4EB156FF2D8F0BD00B567F042FE002814BF0420032000BD4DF6FC41C0F60001F5
:208F60000878022808BF7047003818BF0120704701808FE218FF2FE106460F46904613F04F
:208F8000C7FE4FF014004FF0010155F031FC48F69F75C1F20405A5F101057A46A2EB050505
:208FA0009146002803D131463A4643460AE04AF20040C0F6000085464FF000014FF00002F6
:208FC0004FF0000340F20200012817D308D04EF68850CEF20000046844F4700404600DE0EB
:208FE00011EE500F40F4A00001EE500FBFF36F8FF8EE100A40F08040E8EE100A4FF000041E
:2090000048F20040C1F20400814506DB40F20000C1F22100814500DC2C4645F66850C1F2B8
:209020000800A0EB040000EB05004FF000044FF000054FF000063CF0ADF800BFFDE7000069
:2090400030B540F24834C0F601040621002097F001FEA8B997F0D4FD90B943F20505C0F6FE
:209060000105201D98F062FE287004F10C0097F069FE687004F1080097F086FEA87030BD59
:2090800097F009FE2080BDE830402FF079B997F0F9BD10B540F26034C0F60104A17811B9D6
:2090A00028208FF0CDFA6178002918BF10BD2720BDE810408FF0C4BA58B940F21841C0F6F1
:2090C000010191F86A00012818BF7047002067F014BA022818BF704740F21841C0F60101A4
:2090E00091F86A00012818BF7047022067F005BA022808BF002011F0EE83012818BF704754
:20910000002011F0ECBB00B540F21841C0F6010191F86A00012804BF002067F0EEF9002032
:2091200067F0CFF940F26031C0F601010020087000BD00B5002011F0CEFB40F21841C0F660
:20914000010191F86A00012804BF022067F0D5F9022067F0B6F940F26031C0F60101002024
:20916000087000BD40F27031C0F6010101200870704740F27031C0F6010102200870704703
:20918000704701207047000040F27433C0F6010300205863986103F8100B43F80C0C03F875
:2091A000040CD862D86198619862D86083F8300048F20001C1F20401196140F6FF028A1810
:2091C0001A6201F5406183E803004FF6FF71C1F220015961042340F2B831C0F6010140F29F
:2091E000D832C0F60102907001F8080B22F8080B21F8070C02F8030C01F8050C22F8050C09
:2092000021F8040C01F8020C22F8020C01F8010C013BE8D1704730B540F27434C0F60104CA
:209220002078012805D16068B0F1FF3F01D201306060207B012805D12069B0F1FF3F01D257
:2092400001302061207A062888BF30BD0FF20401D1E800F0041B38C3679EB60048F20000A2
:20926000C1F20400206248F6FF00C1F20400206348F60040C1F2040060614FF6FF70C1F2E1
:20928000200060620120207230BD40F21841C0F6010191F84000012818BF30BDFFF774FFEA
:2092A0003AF0A1FE002818BF30BD206A216B091AE0630131012020700020606061630220D4
:2092C000207230BD40F21841C0F6010191F8400000287ED0616BE06B3AF090FEA8B9606994
:2092E000616A091A8A0AC1F30901A1634FF48061A161A2620121E062E16100202061207029
:20930000606021730420207230BD606848F6A041884238BF30BD002020706060012020729E
:2093200030BD40F21841C0F6010191F8400000284FD0A169E06A3AF061FEE8B9E169A26A19
:20934000914204D9207320610520207230BD606900F580606061E0620131E161914205D9DF
:20936000A06B0130A0610420207230BD4FF48060A0610420207230BD206948F6A0418842D4
:2093800038BF30BD0020207320610120207230BD40F2D835C0F6010528463AF03CFE002820
:2093A00018BF30BD012084F84000294640F2B830C0F6010020223BF0D8FE0620207230BDE4
:2093C00040F21841C0F6010191F84000002818BF30BDFFF7D9FE0020207230BD11F095BBD8
:2093E00040F20C40C0F601008178C1700121027881704270017070472DE9F04C0025012609
:2094000040F2F83B40F2FC3AC0F6010AC0F6010BDAF8000040F2A044C0F6010410F0010F49
:209420000ED020F0010194F85400CAF8001084F8550084F85450084611F0020F10D027E052
:20944000DBF8000010F0010F1BD094F8540084F85500DAF8000084F8546010F0020F17D192
:20946000DBF8000010F0020F31D094F8560084F85700DAF8000084F8566010F0040F15D056
:209480002CE020786070DAF8000010F0020FE7D020F0020194F85600CAF8001084F8570024
:2094A00084F85650084611F0040F17D1DBF8000010F0040F2CD094F8580084F85900DAF8D3
:2094C000000084F8586010F0080F15D029E0A078E070DAF8000010F0040FE7D020F004013A
:2094E00094F85800CAF8001084F8590084F85850084611F0080F14D1DBF8000010F0080F88
:209500001AD0B4F85A00A4F85C00A4F85A6017E020796071A079E071DAF8000010F0080F59
:20952000EAD020F00800CAF80000B4F85A00A4F85C00A4F85A5003E020896081A089E0815C
:2095400040F21847C0F60107788EB88608F0A3FB7886F88E388708F067FDF886DAF80000F3
:2095600010F0100F0ED020F0100194F85E00CAF8001084F85F0084F85E50084611F0200F8E
:2095800010D027E0DBF8000010F0100F1BD094F85E0084F85F00DAF8000084F85E6010F036
:2095A000200F17D1DBF8000010F0200F31D094F8600084F86100DAF8000084F8606010F0BA
:2095C000400F15D02CE0207C6074DAF8000010F0200FE7D020F0200194F86000CAF8001034
:2095E00084F8610084F86050084611F0400F17D1DBF8000010F0400F31D094F8620084F84F
:209600006300DAF8000084F8626010F0800F15D02CE0A07CE074DAF8000010F0400FE7D00F
:2096200020F0400194F86200CAF8001084F8630084F86250084611F0800F17D1DBF8000073
:2096400010F0800F31D094F8640084F86500DAF8000084F8646010F4807F15D02CE0207D06
:209660006075DAF8000010F0800FE7D020F0800194F86400CAF8001084F8650084F8645099
:20968000084611F4807F17D1DBF8000010F4807F31D094F8660084F86700DAF8000084F896
:2096A000666010F4007F15D02CE0A07DE075DAF8000010F4807FE7D020F4807194F866007B
:2096C000CAF8001084F8670084F86650084611F4007F17D1DBF8000010F4007F31D094F806
:2096E000680084F86900DAF8000084F8686010F4806F15D02CE0207E6076DAF8000010F4D9
:20970000007FE7D020F4007194F86800CAF8001084F8690084F86850084611F4806F17D185
:20972000DBF8000010F4806F31D094F86A0084F86B00DAF8000084F86A6010F4006F15D015
:209740002CE0A07EE076DAF8000010F4806FE7D020F4806194F86A00CAF8001084F86B0069
:2097600084F86A50084611F4006F17D1DBF8000010F4006F31D094F86C0084F86D00DAF80F
:20978000000084F86C6010F4805F15D02CE0207F6077DAF8000010F4006FE7D020F40061C6
:2097A00094F86C00CAF8001084F86D0084F86C50084611F4805F17D1DBF8000010F4805FEE
:2097C00034D094F86E0084F86F00DAF8000084F86E6010F4005F15D031E0A07FE077DAF8E3
:2097E000000010F4805FE7D020F4805194F86E00CAF8001084F86F0084F86E50084611F4A6
:20980000005F1CD140F20041C0F60101086810F0400F33D094F8700084F87100DAF8000054
:2098200084F8706010F4804F17D030E094F8200084F82100DAF8000010F4005FE2D020F4CE
:20984000005194F87000CAF8001084F8710084F87050084611F4804F19D1DBF8000010F4DD
:20986000005F36D094F8720084F87300DAF8000084F8726010F4004F17D033E094F822007B
:2098800084F82300DAF8000010F4804FE5D020F4804194F87200CAF8001084F8730084F8BF
:2098A0007250084611F4004F1CD1DBF8000010F4804F3CD094F8740084F8750040F204403E
:2098C000C0F60100016884F8746011F0010F1BD045E094F8260084F82700DAF8000010F4CC
:2098E000004FE2D020F40040CAF8000094F8740084F8750040F20440C0F60100016884F84E
:20990000745011F0010F2AD140F20042C0F60102116811F0010F42D094F8761084F8771099
:20992000016884F8766011F0020F25D03FE094F8280084F8290094F82C0084F82D0094F800
:209940002E0084F82F0094F82A0084F82B0040F20440C0F60100016811F0010FD4D021F075
:20996000010294F87610026084F8771084F87650114612F0020F1AD140F20042C0F60102A9
:20998000116811F0020F32D094F8781084F87910016884F8786011F0040F15D033E094F8CC
:2099A000301084F83110016811F0020FE4D021F0020294F87810026084F8791084F87850A7
:2099C000114612F0040F1ED140F20042C0F60102116811F0040F36D094F87A1084F87B104F
:2099E000016884F87A6011F0080F19D033E094F8341084F8351094F8321084F8331001680D
:209A000011F0040FE0D021F0040294F87A10026084F87B1084F87A50114612F0080F1AD14B
:209A200040F20042C0F60102116811F0080F32D094F87C1084F87D10016884F87C6011F083
:209A4000100F15D02FE094F8361084F83710016811F0080FE4D021F0080294F87C10026094
:209A600084F87D1084F87C50114612F0100F1AD140F20042C0F60102116811F0100F32D06A
:209A800094F87E1084F87F10016884F87E6011F0200F15D02FE094F8381084F839100168B8
:209AA00011F0100FE4D021F0100294F87E10026084F87F1084F87E50114612F0200F1AD16B
:209AC00040F20042C0F60102116811F0200F32D094F8801084F88110016884F8806011F0BF
:209AE000400F15D02FE094F83A1084F83B10016811F0200FE4D021F0200294F88010026088
:209B000084F8811084F88050114612F0400F1AD140F20042C0F60102116811F0800F2FD024
:209B200094F8821084F88310016884F8826011F0800F15D02CE094F83C1084F83D100168A6
:209B400011F0400FE4D021F0400294F88210026084F8831084F88250114612F0800F17D101
:209B600040F20041C0F60101086810F4807F1AD094F8840084F8850084F88460BDE8F08CCB
:209B800094F83E1084F83F10016811F0800FE7D021F08001016094F8840084F8850084F8F0
:209BA0008450BDE8F08C94F8400084F8410094F8420084F84300BDE8F08C704770B440F668
:209BC0005C54C0F601042378012B06D160884FF6FF7188423CBF0130608000212079012529
:209BE00001280FD028BF21712ED240F20C40C0F601000278012A27D1227061804570017079
:209C0000257121E040F20C40C0F6010082781AB922706180217117E00678012E04D1267097
:209C20006180457001700FE0012B0DD16388B3F5FA7F09D321706180C27040F61963C0F630
:209C4000010381701D70217170BC704730B400240D46EB0815D001464FF0FF32DC0001F84E
:209C6000082B01F8072C01F8062C01F8052C01F8042C01F8032C01F8022C01F8012C013B56
:209C8000EDD115F0070106D020184FF0FF3200F8012B0139FBD130BC704770B40025164609
:209CA000F40824D002460B46E50012F808CB03F808CB12F807CC03F807CC12F806CC03F809
:209CC00006CC12F805CC03F805CC12F804CC03F804CC12F803CC03F803CC12F802CC03F8F0
:209CE00002CC12F801CC03F801CC013CDDD116F0070207D02818691810F8013B01F8013BEC
:209D0000013AF9D170BC7047F0B500EBC00043F27001C0F6010101EB80046169201D884767
:209D2000A1786071012904D300F095800020A070F0BD002818BFF0BD2079012808BFF0BD74
:209D4000052840D1A668E7684FF0FF30E070257C0020EB0824D031463A46D80011F808CB57
:209D600002F808CB11F807CC02F807CC11F806CC02F806CC11F805CC02F805CC11F804CC48
:209D800002F804CC11F803CC02F803CC11F802CC02F802CC11F801CC02F801CC013BDDD132
:209DA00015F007014DD08219C01912F8013B00F8013B0139F9D1E169E0688847E0710028AD
:209DC00018BFF0BD44E02078002808BFF0BD002121704FF0FF30E070E668257CA768EB0846
:209DE00024D030463A46D90010F808CB02F808CB10F807CC02F807CC10F806CC02F806CCAA
:209E000010F805CC02F805CC10F804CC02F804CC10F803CC02F803CC10F802CC02F802CCBE
:209E200010F801CC02F801CC013BDDD115F0070007D08A19C91912F8013B01F8013B013880
:209E4000F9D1E169E0688847E071002818BFF0BD0120A070F0BD207902281CBF0020A0702E
:209E6000F0BD10B543F20C04C0F601042078FFF74BFF227843F2700102EBC200C0F60101F1
:209E800001EB8000C078C0B9501CC0B207280ED02070C87880B340F6C450C0F6010001783D
:209EA000417000210170BDE8104066F052BB00202070C8780028EED11EE001281CBF032803
:209EC00005280FD16078013804D36070C8780028E1D111E003206070501C2070C87800285B
:209EE000D9D109E004381CBF023802289CBF07202070C8780028CED191F827000028CAD1C8
:209F000091F84B000028C6D191F86F000028C2D191F893000028BED191F8B7000028BAD135
:209F200091F8DB000028B6D140F6C450C0F60100017841700121017066F00BFBBDE81040FF
:209F400003F0F8BBF0B500EBC00043F27003C0F6010303EB8003DA70062918BF0C2940F083
:209F6000A480012A18BF032A61D1DF681D7C0024EA0815D038464FF0FF31D40000F8081BA5
:209F800000F8071C00F8061C00F8051C00F8041C00F8031C00F8021C00F8011C013AEDD120
:209FA00015F0070006D0E1194FF0FF3201F8012B0138FBD19E681D7CDF68EC0824D03146E6
:209FC0003A46E00011F808CB02F808CB11F807CC02F807CC11F806CC02F806CC11F805CC4E
:209FE00002F805CC11F804CC02F804CC11F803CC02F803CC11F802CC02F802CC11F801CCDD
:20A0000002F801CC013CDDD115F0070100F0AB808219C01912F801CB00F801CB0139F9D154
:20A02000012018705878012818BFF0BDA1E0052A40F09B809E68DF681D7C0020EC0824D011
:20A0400031463A46E00011F808CB02F808CB11F807CC02F807CC11F806CC02F806CC11F827
:20A0600005CC02F805CC11F804CC02F804CC11F803CC02F803CC11F802CC02F802CC11F858
:20A0800001CC02F801CC013CDDD115F007016CD08219C01912F801CB00F801CB0139F9D1E6
:20A0A0005878012818BFF0BD63E007295DD1012A5BD1DF681D7C0024EA0815D038464FF093
:20A0C000FF31D40000F8081B00F8071C00F8061C00F8051C00F8041C00F8031C00F8021CCE
:20A0E00000F8011C013AEDD115F0070006D0E1194FF0FF3201F8012B0138FBD19E681D7C3D
:20A10000DF68EC0824D031463A46E00011F808CB02F808CB11F807CC02F807CC11F806CC0C
:20A1200002F806CC11F805CC02F805CC11F804CC02F804CC11F803CC02F803CC11F802CC93
:20A1400002F802CC11F801CC02F801CC013CDDD115F0070107D08219C01912F801CB00F889
:20A1600001CB0139F9D1012018705878012818BFF0BD00205870196AD878BDE8F04008470A
:20A1800043F27003C0F6010300EBC00003F8201003EB8000C2607047704770477047704764
:20A1A000704770477047704740F6E451C0F6010100200870488040F23451C0F601018A7DCA
:20A1C000CA75887540F21841C0F6010191F8782081F8792081F87800704700207047704797
:20A1E000704730B540F23452C0F601020020917B40F6D854C0F60104022929D140F2A041D1
:20A20000C0F6010191F84220022A18BF30BD91F84310206802290DD045F64875C1F2080587
:20A22000294610F0A1F92060294610F08DF92060012030BD45F6C855C1F20805294610F08B
:20A2400093F92060294610F07FF92060012030BD052918BF30BD40F21842C0F6010292F8BC
:20A260007C10012918BF30BD40F2A042C0F6010292F84210022918BF30BD45F67875C1F2F1
:20A2800008052068294610F06FF92060294610F05BF92060012030BD40F6E451C0F601015E
:20A2A000012008700020488040F23450C0F60100817DC1750421817540F21840C0F6010020
:20A2C00090F8781080F87910072180F87810704740F21843C0F6010393F8741040F6D852D8
:20A2E000C0F60102072905D145F62860C1F2080010607047032905D145F64060C1F2080062
:20A30000106070470020082905D145F6F850C1F2080010607047092905D145F61060C1F224
:20A32000080010607047002918BF704745F6E050C1F2080010607047704740F6E451C0F612
:20A340000101002008704880704740F2A041C0F6010191F843200020012A03D091F8421034
:20A36000012907D040F23452C0F60102917B022908BF704730B545F6B05540F6D854C0F679
:20A380000104C1F208052068294610F0EDF82060294610F0D9F820600120BDE830407047EF
:20A3A0007047002070477047704730B540F6D854C0F60104E18964290ED345F65865C1F21C
:20A3C00008052068294610F0CFF82060294610F0BBF82060012030BD002030BD704700209E
:20A3E00070477047704730B540F6D854C0F6010440F21841C0F60101002091F8753091F81C
:20A4000074207BB172B945F6E055C1F208052068294610F0A9F82060294610F095F820608D
:20A42000012030BD072A0ED145F62865C1F208052068294610F098F82060294610F084F884
:20A440002060012030BDE389642B28BF082A18BF30BD40F2A042C0F6010292F83F3092F846
:20A460003E20934206D191F87B2091F87A108A4208BF30BD45F65865C1F20805206829466C
:20A4800010F072F82060294610F05EF82060012030BD7047002070477047704730B540F668
:20A4A000D854C0F6010440F21841C0F60101002091F8753091F874207BB172B945F6E05540
:20A4C000C1F208052068294610F04EF82060294610F03AF82060012030BD032A0ED145F689
:20A4E0004065C1F208052068294610F03DF82060294610F029F82060012030BDE389642B32
:20A5000028BF092A18BF30BD40F2A042C0F6010292F8413092F84020934206D191F87720DF
:20A5200091F876108A4208BF30BD45F65865C1F208052068294610F017F82060294610F0DF
:20A5400003F82060012030BD7047002070477047704730B540F6D854C0F6010440F21841E9
:20A56000C0F6010191F87420012A0ED145F6E055C1F20805206829460FF0F6FF20602946F2
:20A580000FF0E2FF2060012030BDE3890020642B28BF072A18BF30BD40F2A042C0F6010289
:20A5A00092F8413092F84020934206D191F8772091F876108A4208BF30BD45F65865C1F2B0
:20A5C0000805206829460FF0CFFF206029460FF0BBFF2060012030BD70470020704770472F
:20A5E000704730B540F6D854C0F6010440F21841C0F6010191F8752000208AB191F87420C9
:20A6000072B945F6E055C1F20805206829460FF0ABFF206029460FF097FF2060012030BD2D
:20A62000E289642A24BF91F87420032A18BF30BD40F2A042C0F6010292F83F3092F83E2082
:20A64000934206D191F87B2091F87A108A4208BF30BD45F65865C1F20805206829460FF0E9
:20A6600083FF206029460FF06FFF2060012030BD40F6E451C0F601010120087000204880CA
:20A68000704740F21842C0F6010292F8741040F6D853C0F6010340F2A040C0F6010007299C
:20A6A00018BF092904D190F84020042A01D107E0032918BF082908D190F83E20042A04D1F7
:20A6C00045F6A060C1F208003BE0072918BF092904D190F84020032A01D107E0032918BF8A
:20A6E000082908D190F83E20032A04D145F6B860C1F2080025E0072918BF092904D090F8C0
:20A700004020052A06D118E090F84020022A18BF052A12D0032918BF082908D090F83E000D
:20A7200005280AD045F67060C1F2080009E090F83E00022818BF0528F4D145F68860C1F2D4
:20A74000080018607047704740F6E451C0F6010100200870488070470020704740F6E4518F
:20A76000C0F6010100200870488040F23450C0F60100817DC17501218175704745F6D060E6
:20A7800040F6D851C0F60101C1F2080008607047704740F6E451C0F601010020087048808E
:20A7A000704730B540F6D854C0F60104E2880020642A17D340F23453C0F60103997B052929
:20A7C0000ED145F67875C1F20805206829460FF0CBFE206029460FF0B7FE2060012030BDC2
:20A7E00002290BD140F2A041C0F6010191F84330012B12D091F8421001290ED145F6B05559
:20A80000C1F20805206829460FF0AEFE206029460FF09AFE2060012030BD642A38BF30BD50
:20A8200045F68865C1F20805206829460FF09CFE206029460FF088FE2060012030BD40F26C
:20A840003450C0F60100817DC17502218175704710B440F6D854C0F6010440F21840C0F698
:20A86000010090F87610032919BF90F87A00032845F6E860C1F208001CBF45F60070C1F221
:20A880000800206010BC7047704740F6E451C0F60101002008704880704730B540F6D85475
:20A8A000C0F60104E18964290ED345F6B865C1F20805206829460FF057FE206029460FF0B4
:20A8C00043FE2060012030BD002030BD40F23450C0F60100817DC17504218175704710B465
:20A8E00040F6D854C0F6010440F21840C0F6010090F87610072919BF90F87A00072845F678
:20A900004870C1F208001CBF45F66070C1F20800206010BC7047704740F6E451C0F6010146
:20A92000002008704880704730B540F6D854C0F60104E18964290ED345F67065C1F2080556
:20A94000206829460FF010FE206029460FF0FCFD2060012030BD002030BD40F23450C0F605
:20A960000100817DC17503218175704710B440F6D854C0F6010440F21840C0F6010090F827
:20A980007610052919BF90F87A00052845F61870C1F208001CBF45F63070C1F2080020608D
:20A9A00010BC7047704740F6E451C0F60101002008704880704730B540F6D854C0F6010421
:20A9C000E18964290ED345F6A065C1F20805206829460FF0C9FD206029460FF0B5FD2060C3
:20A9E000012030BD002030BD40F6DC51C0F60101012008700020488040F21840C0F601005F
:20AA000090F8781080F87910082180F87810704700207047704740F6DC51C0F6010100207C
:20AA20000870488070470020704740F6E451C0F60101012008700020488040F21840C0F664
:20AA4000010090F8781080F87910032180F87810704700207047704740F6E451C0F6010158
:20AA600000200870488070470020704740F6E052C0F60102002050801071D080012140F2B2
:20AA80001840C0F60100117090F8781080F87910022180F87810704700207047704740F677
:20AAA000E051C0F60101002008704880704730B540F6D854C0F60104618964290ED345F601
:20AAC000E865C1F20805206829460FF04DFD206029460FF039FD2060012030BD002030BD6A
:20AAE00040F6E451C0F60101012008700020488040F21840C0F6010090F8781080F8791060
:20AB0000052180F87810704700207047704740F6E451C0F601010020087048807047002070
:20AB2000704740F6E052C0F60102002050801071D080012140F21840C0F60100117090F810
:20AB4000781080F87910042180F87810704700207047704740F6E051C0F60101002008704B
:20AB60004880704730B540F6D854C0F60104618964290ED345F61875C1F20805206829467D
:20AB80000FF0F2FC206029460FF0DEFC2060012030BD002030BD40F6E451C0F60101012021
:20ABA00008700020488040F21840C0F6010090F8781080F87910072180F8781070470020E4
:20ABC0007047704740F6E451C0F6010100200870488070470020704740F6E052C0F60102D5
:20ABE000002050801071D080012140F21840C0F60100117090F8781080F87910062180F800
:20AC00007810704700207047704740F6E051C0F60101002008704880704730B540F6D854EA
:20AC2000C0F60104618964290ED345F64875C1F20805206829460FF097FC206029460FF0D2
:20AC400083FC2060012030BD002030BD40F6E051C0F60101012008700020488040F2345084
:20AC6000C0F60100817DC1750621817540F21840C0F6010090F8781080F87910092180F8D8
:20AC80007810704740F21843C0F6010393F8741040F6D852C0F60102072905D145F6D8707D
:20ACA000C1F2080010607047032905D145F6F070C1F20800106070470020082905D145F6D1
:20ACC000A870C1F2080010607047092905D145F6C070C1F2080010607047002918BF70476E
:20ACE00045F69070C1F2080010607047704740F6E051C0F60101002008704880704740F218
:20AD00001841C0F6010191F87D200020002A08BF704791F87C10002918BF704730B545F648
:20AD2000B05540F6D854C0F60104C1F20805206829460FF019FC206029460FF005FC2060B7
:20AD40000120BDE8304070477047002070477047704730B540F6D854C0F601046189642991
:20AD60000ED346F20805C1F20805206829460FF0FBFB206029460FF0E7FB2060012030BDA3
:20AD8000002030BD70470020704740F6E051C0F601014888642838BF704740F21840C0F6AF
:20ADA000010090F8781080F879100A2180F87810704740F6E051C0F601014888642838BF2D
:20ADC000704740F21840C0F6010090F8781080F879100A2180F878107047704730B540F6B6
:20ADE000D854C0F6010440F21842C0F6010292F8741092F8752000207AB171B945F6907545
:20AE0000C1F20805206829460FF0AEFB206029460FF09AFB2060012030BD07290ED145F678
:20AE2000D875C1F20805206829460FF09DFB206029460FF089FB2060012030BD6289642AFE
:20AE400028BF082918BF30BD40F2A042C0F6010292F83F1092F83E20022903D0022A11D07D
:20AE6000032903D0032A0DD0042903D0042A09D0012904D0012A05D0052908BF30BD052AB3
:20AE800018BF30BD46F20805C1F20805206829460FF06AFB206029460FF056FB20600120AE
:20AEA00030BD70470020704740F6E051C0F601014888642838BF704740F21840C0F60100AD
:20AEC00090F8781080F879100A2180F878107047704730B540F6D854C0F6010440F218423A
:20AEE000C0F6010292F8741092F8752000207AB171B945F69075C1F20805206829460FF001
:20AF000033FB206029460FF01FFB2060012030BD03290ED145F6F075C1F20805206829460B
:20AF20000FF022FB206029460FF00EFB2060012030BD6289642A28BF092918BF30BD40F2E8
:20AF4000A042C0F6010292F8411092F84020022903D0022A11D0032903D0032A0DD0042950
:20AF600003D0042A09D0012904D0012A05D0052908BF30BD052A18BF30BD46F20805C1F22C
:20AF80000805206829460FF0EFFA206029460FF0DBFA2060012030BD70470020704740F6B0
:20AFA000E051C0F601014888642838BF704740F21840C0F6010090F8781080F879100A2121
:20AFC00080F878107047704730B540F6D854C0F6010440F21841C0F6010191F87520002080
:20AFE0008AB191F8742072B945F69075C1F20805206829460FF0B8FA206029460FF0A4FA9A
:20B000002060012030BD6289642A24BF91F87410072918BF30BD40F2A042C0F6010292F8EE
:20B02000411092F84020022903D0022A11D0032903D0032A0DD0042903D0042A09D0012990
:20B0400004D0012A05D0052908BF30BD052A18BF30BD46F20805C1F20805206829460FF04C
:20B0600083FA206029460FF06FFA2060012030BD70470020704740F6E051C0F601014888F1
:20B08000642838BF704740F21840C0F6010090F8781080F879100A2180F87810704770478B
:20B0A00030B540F6D854C0F6010440F21841C0F6010191F8752000208AB191F8742072B98A
:20B0C00045F69075C1F20805206829460FF04CFA206029460FF038FA2060012030BD62899B
:20B0E000642A24BF91F87410032918BF30BD40F2A042C0F6010292F83F1092F83E20022929
:20B1000003D0022A11D0032903D0032A0DD0042903D0042A09D0012904D0012A05D0052913
:20B1200008BF30BD052A18BF30BD46F20805C1F20805206829460FF017FA206029460FF06E
:20B1400003FA2060012030BD40F6DC52C0F60102002050801071D080012140F23450C0F6F8
:20B1600001001170817DC1750521817540F21840C0F6010090F8781080F879100B2180F807
:20B180007810704700207047704740F6DC51C0F60101002008704880704730B540F6D85469
:20B1A000C0F60104E188642933D340F23452C0F60102917B206802290DD145F6C855C1F2BF
:20B1C000080529460FF0D0F9206029460FF0BCF92060012030BD05290DD045F6B055C1F2FC
:20B1E000080529460FF0C0F9206029460FF0ACF92060012030BD46F22005C1F2080529466E
:20B200000FF0B2F9206029460FF09EF92060012030BD002030BD40F6E051C0F60101012024
:20B2200008700020488040F23450C0F60100817DC1750621817540F21840C0F6010090F827
:20B24000781080F87910092180F87810704700207047704740F6E051C0F60101002008703F
:20B260004880704730B540F6D854C0F60104618964290ED346F20805C1F2080520682946F9
:20B280000FF072F9206029460FF05EF92060012030BD002030BD10B440F6E854C0F6010473
:20B2A00040F2A041C0F60101A27891F83E0091F83F1012B102290AD005E0012903D0012837
:20B2C00013D0022903D002280FD0032903D003280BD0042903D0042807D0052903D005284E
:20B2E00003D0062904D0062802D10120A07005E0012A03D111B1002808BFA07010BC70471E
:20B3000010B440F6E854C0F6010440F2A041C0F60101627891F8400091F8411012B1022906
:20B320000AD005E0012903D0012813D0022903D002280FD0032903D003280BD0042903D039
:20B34000042807D0052903D0052803D0062904D0062802D10120607005E0012A03D111B14E
:20B36000002808BF607010BC704710B440F6E854C0F60104617840F21840C0F60100012956
:20B3800009D1A2789AB990F8741080F87510072180F874102EE051B9A278012A07D190F87C
:20B3A000741080F87510032180F8741022E090F87420072A0AD1012915D1A178012919D185
:20B3C00080F87520092180F8741013E0032A08BF012908D1A17801290CD180F875200821FA
:20B3E00080F8741006E029B9A17819B980F8752080F8741010BC704710B440F6E854C0F626
:20B40000010440F21840E178C0F60100013905D315D001290CD00020E0704BE090F87E10DF
:20B4200080F87F10002180F87E100120E07041E090F8791090F878200A2912D00DE090F891
:20B44000791090F87820092903D0092A32D00B2903D00B2A2ED00A2903D00A2A21D0082973
:20B4600003D0082A1DD0072903D0072A19D0062903D0062A15D0052903D0052A11D0042968
:20B4800003D0042A0DD0032903D0032A09D0022903D0022A05D0012902D0012A01D049B1D8
:20B4A00042B990F87E1080F87F10002180F87E100120E07010BC704710B540F6EC54C0F668
:20B4C000010440F218412078C0F60101013805D30ED0012820D00020207010BD91F87C0002
:20B4E00081F87D00002081F87C000120207010BD91F88100012808BF10BD91F880000128CA
:20B5000018BF10BD91F87C0081F87D00012081F87C000220207010BD91F87F0010B191F8A5
:20B520007E0058B191F88100022808BF10BD91F88000022818BF10BD91F87E0081F87F00E6
:20B5400091F87C0081F87D00002081F87C0006F071FF0120207010BD10B540F6D854C0F61A
:20B560000104207B012806D1E0894FF6FF7188423CBF0130E081207A012806D160894FF6EE
:20B58000FF7188423CBF013060812079012806D1E0884FF6FF7188423CBF0130E080FFF762
:20B5A000E4FEFFF778FEFFF7ABFEFFF725FFFFF783FF207C01280DD028BF10BD45F6B0517A
:20B5C000C1F20801216008460EF0BEFF20600120207410BD2068BDE810400EF0DBBF40F2DC
:20B5E0001840C0F6010090F8621040F2A042C0F6010280F863101179012918BF002180F866
:20B600006210704739B9C82243F26C11C0F6010112FB00107047012918BF7047C82247F608
:20B620001421C0F6010112FB0010704730B5044640F6F055C0F6010529786870814204D0D3
:20B640002870002068806320A88040F21841C0F6010191F86200052C49D1012815D15B209C
:20B66000A87244F2187047F61421C0F601014018A9884900E860085A06F0A7FE002106F09A
:20B68000E8FEA88800282ED06CE0C82298B1A87A47F61421C0F6010112FB0010A98849000C
:20B6A000E860085A06F091FE002106F0D2FEA888002818D056E040F2A041C0F60101888922
:20B6C000A872C0B247F61421C0F6010112FB0010A9884900E860085A06F077FE002106F0F1
:20B6E000B8FEA888F0BBBDE8304006F0A3BE042C46D1012804D15B20A87244F218700FE0C6
:20B7000020B1A87AC82110FB01F009E040F2A041C0F601018889A872C0B2C82110FB01F01B
:20B7200043F26C11C0F601014018A9884900E860085A06F04AFE012106F08BFEA888E968C3
:20B740004000405A06F041FE022106F082FEA888E9684000405A06F038FE032106F079FE29
:20B76000A88810B10138A88030BD012006F062FE022006F05FFE0320BDE8304006F05ABE58
:20B7800001282BD15B20A872601E022830D9002C53D0E8686A885100095AE980B0F8C60022
:20B7A0002881012C36D0022C59D0032C6CD106F00CFE012106F04DFE288906F006FE0221B9
:20B7C00006F047FEE88806F000FE214606F041FE6A88501C80B263282DD361E028B940F2BF
:20B7E000A041C0F601018889A872601E0228CED8A87AC82243F26C11C0F6010112FB0010A4
:20B800006A885100095AE860E980B0F8C6002881012CC8D1022006F00DFE032006F00AFEB0
:20B82000E88806F0D2FD214606F013FE6A88501C80B2632834D2688030BDA87AC82247F626
:20B840001421C0F6010112FB00106A885100095AE860E980B0F8C6002881022CA5D10320A9
:20B8600006F0E8FD288906F0B0FD012106F0F1FDE88806F0AAFD214606F0EBFD6A88501CE3
:20B8800080B26328D7D30BE034B9084606F09DFD214606F0DEFD6A88501C80B26328CAD39B
:20B8A0006320688030BD30B540F21844C0F6010494F82C00012840F04181002006F0BAFD62
:20B8C00094F82C00012840F0398141F23302C0F60102117801293AD194F8620001281CD1BA
:20B8E00042F2341006F071FD0146012006F07EFD42F2341006F069FD0146022006F076FDED
:20B9000042F2341006F061FD0146032006F06EFD94F82C0084F82D0030BD608E06F055FD0C
:20B920000146012006F062FD608E06F04EFD0146022006F05BFD608E06F047FD01460320D2
:20B9400006F054FD94F82C0084F82D0030BD002940F0F48040F23455C0F60105A87D0428BD
:20B9600040F0A780E87D03284DD094F8621001295CD110BB42F2341006F027FD01460120A9
:20B9800006F034FD42F2341006F01FFD0146022006F02CFD42F2341006F017FD0146032082
:20B9A00006F024FD40F60061C0F6010105200870A878E8700120A87030BD042840F0B98051
:20B9C00042F2341006F001FD0146012006F00EFD42F2341006F0F9FC0146022006F006FDCD
:20B9E00042F2341006F0F1FC0146032006F0FEFC40F60061C0F6010106200870A878E8702D
:20BA00000120A87030BD94F87800062840F091800320FFF70BFE40F60061C0F601010420F8
:20BA20000870A878E8700120A87030BDF8B9608E06F0CBFC0146012006F0D8FC608E06F07E
:20BA4000C4FC0146022006F0D1FC608E06F0BDFC0146032006F0CAFC40F60061C0F60101E8
:20BA600005200870A878E8700120A87030BD04285FD1608E06F0A9FC0146012006F0B6FC96
:20BA8000608E06F0A2FC0146022006F0AFFC608E06F09BFC0146032006F0A8FC40F6006104
:20BAA000C0F6010106200870A878E8700120A87030BD012814D1E87D04283AD194F87800E4
:20BAC000082836D10420FFF7B1FD40F60061C0F6010101200870A878E8700120A87030BDE1
:20BAE000022814D1E87D012823D194F8780002281FD10120FFF79AFD40F60061C0F601019A
:20BB000002200870A878E8700120A87030BD03280FD1E87D02280CD194F87800042808D16D
:20BB20000220FFF783FD40F60061C0F6010103200870A878E8700120A87030BD94F82D101C
:20BB4000002908BF30BD002818BF30BD012006F071FC022006F06EFC032006F06BFC40F264
:20BB60003451C0F601018878C8700020887094F82C0084F82D0030BD30B540F23455C0F694
:20BB80000105A97D40F21844C0F60104062906D0052915D094F86220012A22D130BD94F873
:20BBA0007800092818BF30BD0020FFF73FFD94F82E0084F82F00287868700120287030BD43
:20BBC00094F878000B2818BF30BD0846FFF72EFD94F82E0084F82F00287868700020287066
:20BBE00030BDE08E238F834218BF30BD94F86330002B08BF30BD002A18BF30BD062906D1BD
:20BC000006F0E3FB0021BDE8304006F022BC052918BF30BD104606F00DFC94F82E0084F8C9
:20BC20002F00287868700020287030BD00B540F21840C0F6010090F8621040F2A042C0F6FE
:20BC4000010280F863101179012918BF002180F86210FFF728FEFFF78FFF00BD40F6046069
:20BC6000C0F601000121017000214180704770B540F60864C0F60104A178012904D1E078EF
:20BC8000FF283CBF0130E0702078012804D16078FF283CBF0130607020790026012803D3B2
:20BCA00028D02660267170BD40F21842C0F60102107F01280AD151B940F68661C0F601018B
:20BCC000087850B90120A070E67070BD28B140F68661C0F60101087808B1668070BDE078D5
:20BCE000C82838BF70BD6680012000F04AF90120207170BD40F21845C0F6010595F84100FE
:20BD0000012808D095F84000012804D1304600F038F9267170BD00F044F920B9287F687770
:20BD20002E77267170BD207878B9287F002818BF70BD40F68661C0F601010878002818BFAA
:20BD400070BD01202070667070BD012818BF70BD6078322838BF70BD287F012805D040F6A4
:20BD60008662C0F60102117809B1268070BD002818BF70BD2070667000F003F9267170BDCA
:20BD800030B540F61065C0F601056878012803D313D00020687030BD40F21844C0F6010467
:20BDA000E07C012808BF30BDA07C012818BF30BD00F0C9F80120687030BD40F21844C0F666
:20BDC000010494F84100012809D094F84000012805D1002000F0B7F80020687030BD00F030
:20BDE000E0F8002818BF30BDA07CE0740020A07441F25A12C0F6010201211170687030BD1B
:20BE000070B540F60C64C0F60104A078012804D1E178FF293CBF0131E1702179002601299D
:20BE20002BD024BF267170BD40F21842C0F60102917E01290AD150B940F68661C0F6010129
:20BE4000087850B90120A070E67070BD29B140F68662C0F60102117809B1668070BD012875
:20BE600018BF70BDE078C82838BF70BD6680012000F078F80120207170BD40F21845C0F6C7
:20BE8000010595F84100012808D095F84000012804D1304600F066F8267170BD00F081F811
:20BEA000002818BF70BDA87EE876AE76267170BD40F61961C0F601010878012818BF70474B
:20BEC00040F68661C0F601010878002818BF704700B5FFF7CCFEFFF753FF5DF804EBFFF760
:20BEE0008FBF40F61461C0F601010878704740F61461C0F601010870704740F61361C0F668
:20BF000001010878704740F61361C0F601010870704740F61661C0F601010878704740F685
:20BF20001661C0F601010870704740F61561C0F601010878704740F61561C0F6010108702C
:20BF400070470020704710B440F61264C0F601042178002814BF41F0010001F0FE002070E3
:20BF600010BC704710B440F61264C0F601042178002814BF41F0020001F0FD00207010BC02
:20BF8000704710B440F61264C0F601042178002814BF41F0030001F0FC00207010BC7047F7
:20BFA000704740F61261C0F601010878704740F61261C0F601010870704740F61761C0F63E
:20BFC00001010878704740F61761C0F601010870704740F61861C0F601010878704740F6BF
:20BFE0001861C0F601010870704740F61961C0F6010101200870704740F66452C0F6010284
:20C00000115401210020FEF7BBB840F67C52C0F60102115401210846FEF7B2B840F66C522C
:20C02000C0F60102115401210220FEF7A9B840F68C52C0F60102115401210320FEF7A0B884
:20C0400040F67452C0F60102115401210420FEF797B840F6B452C0F601021154012106209A
:20C06000FEF78EB840F66451C0F60101085C704740F67C51C0F60101085C704740F66C51FE
:20C08000C0F60101085C704740F68C51C0F60101085C704740F67451C0F60101085C704719
:20C0A00040F6B451C0F60101085C704740F66452C0F601024FF0FF301060506001210020FD
:20C0C000FEF75EB840F67C52C0F601024FF0FF30106050609060D06001210846FEF750B87D
:20C0E00040F66C52C0F601024FF0FF301060506001210220FEF744B840F68C52C0F6010203
:20C1000010460323FF2100F8081B00F8071C00F8061C00F8051C00F8041C00F8031C00F8F3
:20C12000021C00F8011C013BEDD101210320FEF727B840F67452C0F601024FF0FF30106026
:20C14000506001210420FEF71BB840F6B452C0F601024FF0FF30106050609060D06001215C
:20C160000620FEF70DB810B540F21840C0F6010090F83A1080F83B10002480F83A4006F038
:20C1800093F9204606F09DF940F23450C0F6010001794171047110BD002070477047704701
:20C1A00040F21842C0F6010292F82A10012915D130B546F2500540F61C64C0F60104C1F2D0
:20C1C0000805206829460EF0CFF9206029460EF0BBF920600120BDE83040704700207047B0
:20C1E00010B5012006F06DF940F21840C0F6010090F83A1080F83B10142480F83A40204697
:20C2000006F047F9204606F051F940F23450C0F60100017941710121017110BD0020704771
:20C220007047704740F21842C0F6010292F82A10A9B930B546F2380540F61C64C0F601045A
:20C24000C1F20805206829460EF08EF9206029460EF07AF920600120BDE8304070470020B5
:20C26000704710B540F61C64C0F60104207901280DD028BF10BD46F23801C1F208012160D0
:20C2800008460EF061F920600120207110BD2068BDE810400EF07EB930B54CF2FC25C0F64D
:20C2A000010540F63864C0F6010442F2107370B928460122062107F018FE40F21841C0F605
:20C2C000010120600A7F60B34A7701202BE001280ED105F108000122062107F006FE40F2D6
:20C2E0001841C0F6010120600A7F0028ECD118E0022808D040F21841C0F6010120680A7FF1
:20C300000028E1D10DE005F110000122062107F0ECFD40F21841C0F6010120600A7F0028B2
:20C32000D2D120604877087730BD2DE9F0440E469A4640F63865C0F6010542F21074234681
:20C340001146012207F0D1FD286040F21847C0F6010768B9397FBAF1010F11D13877234639
:20C36000304679775246514607F057FE2860A8B1387F78770120387700203080BDE8F0849C
:20C38000BAF1020F0BD379772346387751463046012207F0F4FE28600028E9D1387F7877D2
:20C3A00000203877BDE8F08400B581B046F26801C1F208010888ADF8020042F210730DF166
:20C3C00002000122022107F090FD40F63861C0F60101086000280CBF0120002001B000BD00
:20C3E000F0B540F62464C0F601042078012806D161884FF6FF7291423CBF0131618021796D
:20C40000012906D1E1884FF6FF7291423CBF0131E18040F21845C0F6010595F84110012948
:20C420000BD095F84010012907D121710021E18095F82810102914D133E040F23452C0F6CA
:20C440000102917B02291FBF0329052995F84010002918D100212171E18095F82810102969
:20C460001FD020293FD1617A002955D10846FFF713FF002101202172A17295F82810607275
:20C4800020291ED147E0E188B1F5FA7F05D900212171E1804FF4FA71E16095F828101029D6
:20C4A000DFD1207A68B90120FFF7F6FE0120002161802170A4F8091095F8281020722029FD
:20C4C00029D06088C82838BFF0BD95F82000422804BF95F8220000282DD1FFF7DDFE002047
:20C4E00020706080F0BD402904BFA07A0028E8D140F64060C0F60100012686720027C772EC
:20C500000220FFF7C9FE67802770278195F82810A6722029D5D120780028D2D195F820003A
:20C52000422804BF95F822000028CAD10120207000206080F0BD002020706080F0BD00229F
:20C5400028B370B40A24134646F26765C6F2666555FB00F18908A1EBE07101FB1401C9B293
:20C5600055FB01F6B61006FB14111E0EB60001FA06F6014655FB00F03243D2B28008A0EB1C
:20C58000E170C0B203F180730028E1D170BC104670472DE9F04B81B04CF2BC27C0F601077D
:20C5A000FFF71EFF40F21844C0F6010494F82800402819D1394607F1340001230222FFF730
:20C5C000B4FE387810F00300032840F64061C0F601010CBF01200020087740F63461C0F630
:20C5E000010101200870D6E140F6406BC0F6010B9BF800000146082800F2C2810FF2040200
:20C60000D2E811F0BE0109001F003200450058008100C401BF00394607F1240001230222C1
:20C62000FFF783FE3878422800F2AE818BF80A0001208BF802009BF80000092880F0AB81B5
:20C64000A6E1394607F1260001230222FFF76DFE38788BF80B0001208BF803009BF8000095
:20C66000092880F0988193E1394607F1280001230222FFF75AFE01208BF8040038788BF87C
:20C680000C009BF80000092880F0858180E1394607F12A0001230222FFF747FE38788BF89C
:20C6A0000D0001208BF805009BF80000092880F072816DE1394607F12C0001230222FFF76E
:20C6C00034FE07F12E00791C01230222FFF72DFE388801218BF8061094F82A10ABF814000C
:20C6E000012907D1ABF818009BF80000092880F052814DE10020ABF818009BF800000928A9
:20C7000080F0498144E1394607F1300001230222FFF70BFE07F13200791C01230222FFF7CF
:20C7200004FE388841F29411884213D3397F032910D8013101208BF8070094F82A003977A0
:20C74000012812D00020ABF81A00787D002840F01B8112E0ABF81600002101208BF8070091
:20C7600094F82A0039770128ECD1BBF81600ABF81A00787D002840F0078109208BF8000066
:20C7800009E1797D002900F00181394646F26A06C1F20806304604230222FFF7C6FD39463D
:20C7A00007F110042046042238F0DFFC3946304604230222FFF7B9FD394607F118052846F0
:20C7C000042238F0D2FC3946304604230222FFF7ACFD394607F120063046042238F0C5FC3C
:20C7E00029462046042238F05BFC10B9012021461CE031462046042238F052FC10B902200E
:20C80000214613E031462846042238F049FC10B9032029460AE000203875787D0138787519
:20C820009BF80000092880F0B680B1E0387507F10800042238F099FCFA7AB7F809803A7116
:20C840005FEA1821797197F8089087F8068087F807900026F2B14FF00A0C344646F2676390
:20C86000C6F2666353FB02F0800800FB1C25EDB253FB05F0801000FB1C55200E800005FAA8
:20C8800000F0064353FB02F004F180748008C2B2002AE7D13E7307F10C001646F1B14FF066
:20C8A0000A0C344646F26763C6F2666353FB01F2920802FB1C15EDB253FB05F2921002FBD9
:20C8C0001C55220E920005FA02F2164353FB01F204F180749208D1B20029E7D146705FFAA2
:20C8E00088F10026E9B14FF00A0C344646F26763C6F2666353FB01F2920802FB1C15EDB205
:20C9000053FB05F2921002FB1C52250EAD00AA40164353FB01F204F180749208D1B2002932
:20C92000E8D186704946002201B30A25144646F26763C6F2666353FB01F6B60806FB1516A8
:20C94000F6B253FB06FC4FEAAC0C0CFB15664FEA146C04F180744FEA8C0C53FB01F306FAB7
:20C960000CF632439B08D9B20029E0D1C27006F0F0F9002078759BF8000009280BD207E092
:20C9800001208BF8000006E09BF80000092802D201308BF8000001B0BDE8F08B40F6306129
:20C9A000C0F601010860704730B54CF2D024C0F6010494F82400012806D1E08C4FF6FF71FD
:20C9C00088423CBF0130E08440F69261C0F601010878013805D340F69261C0F60101087032
:20C9E00030BD607850BB04F031FC012803D004F048FC022822D104F022FC04F03BFC04F0C4
:20CA0000C7FE84F82800013818D309D0022811D941F29E01C0F601010878002560BB14E05E
:20CA200004F05DFC41F29E01C0F601010878002510BB0AE004F03FFC04F029FC41F29E01AB
:20CA4000C0F6010108780025B0B900F0B1FE40B941F29E01C0F601010878012818BF30BD81
:20CA60000DE094F82400012804BFE58484F82450BDE83040FFF78DBD012818BF30BD00F0A2
:20CA800097FE002808BF30BD04F00FFC012818BF30BD94F8240020B9012084F82400E58486
:20CAA00030BD012818BF30BDE08C42F22831884298BF30BD04F006FC40F63061C0F6010120
:20CAC0004FF4FA70086004F0C7FB84F82450E58430BD002140F64060C0F601008222C0F83B
:20CAE0000110C0F8051040F63463C0F6010341721970C281C0F80A104FF448728282C0F8C7
:20CB0000161041830177704710B54CF2C024C0F6010404F10C00012137F099FF04F114006F
:20CB2000012137F094FF04F11C00012137F08FFF201D012137F08BFF2046012137F087FFEC
:20CB400004F10800012137F082FF04F1080006F000F9002020740520607410BD002201394C
:20CB6000C9B28A4228BF704760B409064FEA116C130E10F80C60C55CC65400F80C5002F1E0
:20CB80008072A1F180714FEA116CBCEB126FEDD860BC704740F64061C0F6010188780028F3
:20CBA00018BF887A704740F64061C0F60101C878002818BFC87A704740F64061C0F601018F
:20CBC0000879002818BF087B704740F63461C0F601010878002808BF704740F64061C0F665
:20CBE0000101087F704740F64061C0F601014879002818BF487B704740F64061C0F601019D
:20CC00008879002818BF888A704740F64061C0F60101C879002818BFC88A704740F640609D
:20CC2000C0F60100817949B140F21842C0F6010292F82A10012904BF008B7047002070473A
:20CC400040F64060C0F60100C17949B140F21842C0F6010292F82A10012904BF408B70479B
:20CC60000020704741210138C0B2032880F0888000210E2368B94CF23230C0F601000288D9
:20CC800046F26C00C1F20800B0F800C062450FD325E0012816D14CF23830C0F60100028848
:20CCA00046F26C00C1F20800B0F800C0624516D2B0F802C0624517D301310EBF084601399C
:20CCC000C8B270474CF23030C0F60100028846F26C00C1F20800B0F800C06245E8D3080013
:20CCE0001CBF0139C8B27047B0F804C0624505D302310EBF08460139C8B27047B0F806C0DC
:20CD0000624505D303310EBF08460139C8B27047B0F808C0624505D304310EBF0846013961
:20CD2000C8B27047B0F80AC0624505D305310EBF08460139C8B27047B0F80CC0624505D322
:20CD400006310EBF08460139C8B27047B0F80EC0624505D307310EBF08460139C8B2704763
:20CD6000B0F810C0624505D308310EBF08460139C8B2704712300931013BACD14FF07D010B
:20CD80000846704740F21840C0F6010090F8761080F87710002180F8761070470020704793
:20CDA0007047704730B5002040F6606440F2A042C0F60102C0F6010492F8411092F84020B9
:20CDC000042913D0042A0ED146F22825C1F20805206829460DF0C8FB206029460DF0B4FB9F
:20CDE0002060012030BD062908BF30BD062A18BF30BD46F2A025C1F20805206829460DF01D
:20CE0000B3FB206029460DF09FFB2060012030BD704746F2981040F66061C0F60101C1F257
:20CE20000800086070477047704730B5002040F6606440F2A042C0F60102C0F6010492F84C
:20CE4000411092F8402091B172B946F26815C1F20805206829460DF087FB206029460DF053
:20CE600073FB2060012030BD062908BF30BD062A18BF30BD46F2A025C1F20805206829462B
:20CE80000DF072FB206029460DF05EFB2060012030BD704746F2F81040F66061C0F60101AF
:20CEA000C1F20800086070477047704740F2A041C0F6010191F841200020022A08BF7047AB
:20CEC00091F84010022918BF704730B546F2E01540F66064C0F60104C1F208052068294642
:20CEE0000DF042FB206029460DF02EFB20600120BDE830407047704746F2102040F6606160
:20CF0000C0F60101C1F20800086070477047704730B5002040F6606440F2A042C0F6010245
:20CF2000C0F6010492F8411092F84020012912D0012A0ED146F29815C1F2080520682946BF
:20CF40000DF012FB206029460DF0FEFA2060012030BD032913D0032A0ED146F2C815C1F272
:20CF60000805206829460DF0FFFA206029460DF0EBFA2060012030BD022908BF30BD022A4D
:20CF800018BF30BD46F2E015C1F20805206829460DF0EAFA206029460DF0D6FA20600120AB
:20CFA00030BD704746F2402040F66061C0F60101C1F20800086070477047704730B5002039
:20CFC00040F6606440F2A042C0F60102C0F6010492F8411092F84020012912D0012A0ED1F4
:20CFE00046F29815C1F20805206829460DF0BCFA206029460DF0A8FA2060012030BD042999
:20D0000013D0042A0ED146F2B015C1F20805206829460DF0A9FA206029460DF095FA2060D1
:20D02000012030BD022908BF30BD022A18BF30BD46F2E015C1F20805206829460DF094FAA4
:20D04000206029460DF080FA2060012030BD704746F2702040F66061C0F60101C1F20800F3
:20D06000086070477047704730B5002040F6606440F2A042C0F60102C0F6010492F84110C1
:20D0800092F84020012913D0012A0ED146F29815C1F20805206829460DF066FA20602946A7
:20D0A0000DF052FA2060012030BD032908BF30BD032A18BF30BD46F2C815C1F2080520686B
:20D0C00029460DF051FA206029460DF03DFA2060012030BD40F66461C0F60101012008709C
:20D0E0000020488040F21840C0F6010090F8761080F87710082180F8761070470020704745
:20D1000040F66461C0F60101002008704880704770470020704740F66461C0F601010120E3
:20D1200008700020488040F21840C0F6010090F8761080F87710062180F876107047002045
:20D140007047704740F66461C0F60101002008704880704730B540F66064C0F60104E18894
:20D1600064290ED346F22825C1F20805206829460DF0FAF9206029460DF0E6F920600120A9
:20D1800030BD002030BD40F66461C0F60101012008700020488040F21840C0F6010090F898
:20D1A000761080F87710072180F87610704700207047704740F66461C0F601010020087034
:20D1C000488070470020704740F66461C0F60101012008700020488040F21840C0F6010084
:20D1E00090F8761080F87710042180F87610704700207047704740F66461C0F601010020E7
:20D2000008704880704730B540F66064C0F60104E18864290ED346F25825C1F208052068A9
:20D2200029460DF0A1F9206029460DF08DF92060012030BD002030BD40F66461C0F6010128
:20D24000012008700020488040F21840C0F6010090F8761080F87710052180F87610704724
:20D2600000207047704740F66461C0F6010100200870488070470020704740F66461C0F6CE
:20D280000101012008700020488040F21840C0F6010090F8761080F87710022180F876109C
:20D2A000704700207047704740F66461C0F60101002008704880704730B540F66064C0F6CA
:20D2C0000104E18864290ED346F28825C1F20805206829460DF048F9206029460DF034F97F
:20D2E0002060012030BD002030BD40F66461C0F60101012008700020488040F21840C0F61F
:20D30000010090F8761080F87710032180F87610704700207047704740F66461C0F60101E5
:20D32000002008704880704700207047704746F2B82040F66061C0F60101C1F20800086066
:20D3400070477047704730B5002040F6606440F2A042C0F60102C0F6010492F8411092F8BC
:20D36000402091B172B946F26815C1F20805206829460DF0F9F8206029460DF0E5F820603D
:20D38000012030BD042908BF30BD042A18BF30BD46F22825C1F20805206829460DF0E4F897
:20D3A000206029460DF0D0F82060012030BD40F66461C0F60101012008700020488040F2C5
:20D3C0001840C0F6010090F8761080F87710092180F87610704700207047704740F66461C9
:20D3E000C0F60101002008704880704730B540F66064C0F6010440F2A041C0F6010191F870
:20D4000041200020052A12D091F8401005290ED146F2E825C1F20805206829460DF0A4F8FF
:20D42000206029460DF090F82060012030BDE188642938BF30BD46F2D025C1F2080520689B
:20D4400029460DF091F8206029460DF07DF82060012030BD40F66461C0F60101012008709C
:20D460000020488040F21840C0F6010090F8761080F877100A2180F87610704700207047BF
:20D480007047704740F2A041C0F6010191F841200020052A08BF704791F84010052918BFBE
:20D4A000704730B546F2E82540F66064C0F60104C1F20805206829460DF056F820602946E5
:20D4C0000DF042F820600120BDE83040704740F66461C0F60101012008700020488040F242
:20D4E0001840C0F6010090F8761080F877100B2180F87610704700207047704740F66461A6
:20D50000C0F60101002008704880704740F2A041C0F6010191F841200020062A08BF7047B9
:20D5200091F84010062918BF704730B546F2B82540F66064C0F60104C1F2080520682946EF
:20D540000DF012F8206029460CF0FEFF20600120BDE83040704710B540F66064C0F60104F5
:20D560002079012806D1E0884FF6FF7188423CBF0130E080207A01280DD028BF10BD46F213
:20D580006811C1F20801216008460CF0DDFF20600120207210BD2068BDE810400CF0FABF7D
:20D5A00040F66C61C0F601010878704740F66C61C0F6010101200870704730B540F66C6582
:20D5C000C0F601052878002818BF30BD697800297DD1FEF747FD55283FD0FEF767FDFEF798
:20D5E00071FDFEF77DFDFEF787FDFEF7A2FDFEF7ACFD55210020FEF7FFFC04F081F802218D
:20D600000120FEF702FD02210846FEF7FEFC02210320FEF7FAFC40F21843C0F6010340F2EB
:20D6200034519879C0F60101D8710A7B0220987183F84E0083F84F0083F8500083F8510079
:20D6400083F8520083F8530008730120687028784A73002818BF30BD3CE040F21844C0F612
:20D660000104A079E0710320FEF702FDA07194F84E0084F84F000120FEF7FAFC84F84E0098
:20D6800084F84F0094F8500084F851000220FEF7EFFC84F8500084F8510094F8520084F821
:20D6A00053000320FEF7E4FC84F8520040F23451C0F6010184F85300087B4873A079087341
:20D6C000012068702878002818BF30BD02E0012918BF30BD40F67A61C0F6010148783C2808
:20D6E00005D340F68A61C0F601010878012818BF5FF0000030BD00B505F03AFB40F2184054
:20D70000C0F60100017941710121017190F85A2080F85A1090F85E1080F85F10002180F838
:20D720005B2090F8602080F85E1080F8612080F8601000BD40F67061C0F601011F2008607C
:20D74000704740F67061C0F601010878704710B540F6AC64C0F6010401210DF022F918B94B
:20D7600022680132226010BD62680132626010BD00B581B00DF1020001210DF012F9BDF84C
:20D78000020001B000BD00B581B00DF1020001210DF002F9BDF8020001B000BD00B581B00E
:20D7A0000DF103000DF01FF99DF8030001B000BD00B581B00DF103000DF00EF99DF80300CA
:20D7C00001B000BD00B581B00DF103000DF0FDF89DF8030001B000BD00B581B00DF1020016
:20D7E00001210DF0E3F8BDF8020001B000BD00B581B00DF1020001210DF0DDF8BDF8020079
:20D8000001B000BD00B581B00DF1020001210DF0D7F8BDF8020001B000BD10B540F67C64C6
:20D82000C0F60104A079012804D1E079FF283CBF0130E071FFF7B4FE0122618818B9A0797B
:20D84000218158BB55E040F2D240814203D2A079227118BB4DE040F2FA40814204D202202F
:20D860002071A079D0B944E040F26A60814204D203202071A07988B93BE040F292608142AC
:20D8800004D204202071A07940B932E040F6284081420CD205202071A07950B32079E37AD2
:20D8A000984229D0E072A2710020E07110BDB1F5456F05D206202071A0790028EED118E012
:20D8C00040F6C350814205D207202071A0790028E4D10EE040F6EB50814205D20820207105
:20D8E000A0790028DAD104E009202071A0790028D4D1A271E07110BDE079032828BF21817A
:20D9000010BD10B44CF21E34C0F6010440F68462C0F60102108840F2D241884212D20120AA
:20D92000A072607240F2FA40E08040F29260208000202072E0724FF44560608040F6EB5036
:20D94000A080D3E040F2FA41884215D2607A01280CBF084640F2D240E08040F29260208052
:20D960000120A07200202072E0724FF44560608040F6EB50A080B9E040F26A61884211D2D4
:20D980000120A07240F29260208000202081E07240F2D240E0804FF44560608040F6EB50A0
:20D9A000A080A3E040F29261884220D2A07A01280DD1218000202081E07240F2D240E0806A
:20D9C0004FF44560608040F6EB50A0808EE040F26A60208000202081E07240F2D240E0802D
:20D9E0004FF44560608040F6EB50A0807EE040F62841884211D20020A4F80900E07220727B
:20DA000040F2D240E08040F26A6020804FF44560608040F6EB50A08068E0B0F5456F22D2D8
:20DA2000207A01280ED10020A4F80900E07240F2D240E08040F26A602080618040F6EB509B
:20DA4000A08053E04FF4456060800020A4F80900E07240F2D240E08040F26A60208040F61E
:20DA6000EB50A08042E040F6C351884212D20120207240F6284060800020A4F80900E072E9
:20DA800040F2D240E08040F26A60208040F6EB50A0802BE040F6EB51884215D2E07A012804
:20DAA0000CBF40F6C3500846A08040F628406080012020720020A4F8090040F2D240E0804A
:20DAC00040F26A60208011E040F62840608001202072E0720020A4F8090040F6C35140F2F5
:20DAE000D240E080A18040F26A60208010BC704730B401464CF21E34C0F6010440F68465DF
:20DB0000C0F601050120013909D30DD0022910D314D12888A18888420FD300200EE02888FF
:20DB2000E1888842F9D208E0288821888842F4D203E0288861888842EFD2012030BC70474B
:20DB400030B401464CF21E34C0F6010440F68465C0F601050120013909D30DD0022910D352
:20DB600014D12888A18888420FD200200EE02888E1888842F9D308E0288821888842F4D3AD
:20DB800003E0288861888842EFD3012030BC704730B50220FFF7ACFF054640F21844C0F682
:20DBA000010401281DD1FFF7CBFF012819D194F8423084F8433094F84430002184F842109A
:20DBC00084F8453094F8462084F8441084F8472084F846100320FFF78BFF054601281AD1DB
:20DBE0004DE075BB012294F8423084F8422084F8433094F8443084F8442094F8462084F88C
:20DC0000453084F8472084F846500320FFF770FF0546012833D0002D4AD1012294F848302C
:20DC200084F8482084F8493094F84A3084F84A2094F84C2084F84B3084F84D2084F84C502F
:20DC400030BD0120FFF77CFF020012D1012194F8423084F8421084F8433094F8443084F807
:20DC6000442094F8462084F8453084F8472084F846100320FFF73CFF05460128CBD1002024
:20DC8000FFF75EFF0128C6D194F8483084F8493094F84A30002184F8481084F84B3094F8FA
:20DCA0004C2084F84A1084F84D2084F84C1030BD0020FFF745FF020018BF30BD012194F8A6
:20DCC000483084F8481084F8493094F84A3084F84A2094F84C2084F84B3084F84D2084F8C3
:20DCE0004C1030BD70B440F67464C0F60104A079002301280DD1E079FF280ED20130E071C9
:20DD0000C0B23C2809D2607A6188002840F0B7807AE050B3E0793C28F5D3607A012871D1D9
:20DD200040F21840C0F6010090F85C1021B980F85D10012180F85C10227904F154004FEACC
:20DD4000420C61882CF800100132D2B2642A28BF1A462271A28A914229D1227A0132D2B2ED
:20DD60001E2A09D222720A2223E00120A071E37163722371618882E023720A25024622F85D
:20DD8000141B22F8121C22F8101C22F80E1C22F80C1C22F80A1C22F8081C22F8061C22F86C
:20DDA000041C22F8021C013DE9D10A2201E023720A2230F814CB634430F8126C30F810CCED
:20DDC0009B19634430F80E6C30F80CCC9B19634430F80A6C30F808CC9B19634430F8066C5C
:20DDE00030F804CC9B1930F8026C63449B19013ADFD148F21F52C5F2EB12A3FB0220400933
:20DE000060813CE06188D0BB22794FEA420C04F154002CF800100132D2B2642A38BF227123
:20DE20002DD30122627223710A2230F814CB634430F8126C30F810CC9B19634430F80E6CD6
:20DE400030F80CCC9B19634430F80A6C30F808CC9B19634430F8066C30F804CC9B1930F804
:20DE6000026C63449B19013ADFD148F21F52C5F2EB12A3FB0220400960810120A075A1824C
:20DE800070BC70472DE9F0484CF22A34C0F6010440F6A465C0F60105A078002101280CD1C0
:20DEA000A1702170A38805F1EC0CA5F8EC308E4610F0070200F0B480ABE02078012876D15A
:20DEC0006078A388420005F1EC0C22F80C300130C0B21E2828BF084660700322604630F8D8
:20DEE000143BC91830F8124C30F8103C0919C91830F80E4C30F80C3C0919C91830F80A4C82
:20DF000030F8083C0919C91830F8064C30F8043C091930F8024CC9180919013ADFD13CF8F6
:20DF2000022B134660460446072734F808CB9C4538BF634634F806CC9C4538BF634634F812
:20DF400004CC9C4538BF634634F802CC9C4538BF6346013FE9D1B4F800C09C4538BF63460E
:20DF6000072630F808CB944588BF624630F806CC944588BF624630F804CC944588BF62462F
:20DF800030F802CC944588BF6246013EE9D10088904288BF0246C91A891A880844F625115B
:20DFA000C2F29241A0FB01106880BDE8F088002818BFBDE8F08805F1EC0C6078A3884200DA
:20DFC0008E4622F80C300130C0B283465FEADB031CD062464FEAC30E32F8107BC91932F825
:20DFE0000E6C32F80C7C8919C91932F80A6C32F8087C8919C91932F8066C32F8047C8919B7
:20E0000032F8026CC9198919013BE5D11BF0070206D00CEB4E0333F802CB6144013AFAD11D
:20E02000B1FBF0F1A9801E283CBF6070BDE8F088012020706270BDE8F08810B440F6A4645A
:20E04000C0F601044CF22A31C0F601010878002814BF6088A08810BC704730B440F67464B4
:20E06000C0F601042078012804D16178FF293CBF013161706288002140F2D243D31A40F6DB
:20E080001A1C63450CD340F21842C0F6010292F83C0082F83D00022082F83C00218024E084
:20E0A00040F2FA43D21A40F6CA039A421DD240F21842C0F6010292F83C300125022B08BFE2
:20E0C000002802D1257061700FE0012808D1607812280AD982F83D3082F83C50218004E087
:20E0E00018B982F83D3082F83C5030BC704710B581B040F67464C0F601040DF102000121DE
:20E100000CF04FFCBDF802006080FFF7EBFDA07D012805D1FFF781FBFFF7F3FBFFF738FDA6
:20E1200001B010BD10B540F68C64C0F60104207D002818BF10BD04F1080001210CF031FC0A
:20E1400018B1606A0130606210BD206A01302062608840F6954188420CD920690130206151
:20E16000082838BF10BD012020750020BDE81040FBF734B940F62741884288BF10BD002065
:20E1800020610120BDE81040FBF728B930B540F68864C0F6010404F10C0001210CF001FC37
:20E1A000002800F09380A06A0130A06230BD40F22562904228D340F69542904210D903E0D9
:20E1C00040F69542904207D90221607A217102280BD02572617230BD40F2936290421DD2AD
:20E1E000607A02292CD10228F3D1207A022880F081800130C0B2022818D22072617230BDF1
:20E2000040F22562904205D20121607A217101286FD117E040F627429042E1D82946642091
:20E22000A072607A2571854263D10BE025722846FBF7D4F80120A0732179E573617230BDCD
:20E24000814256D1E078042854D20130C0B2042802D2E070617230BD40F63061C0F60101F8
:20E26000E570086802280ED340F63061C0F60101013808602846FBF7B1F80120E073217997
:20E28000A573617230BD012817D140F63060C0F6010005601420A07240F62D60C0F60100F3
:20E2A000057002F0EEFF01280AD102F0DCFF0120E0732179A573617230BD0120FBF78EF8BA
:20E2C0000120E0732179A573617230BD606A01306062A089E080217900254A1EFFF467AFE2
:20E2E0003FF46EAF012A8BD02946607A25718542A8D0E570617230BD00B581B00DF102002F
:20E3000001210CF049FBBDF802004CF22E31C0F601010880FFF7B6FD01B000BD10B440F6F6
:20E320008464C0F60104A078013805D30ED0012819D00020A07024E0208840F225618842C3
:20E3400016D340F6954188421BD904E0208840F69541884202D90220A07012E040F2936183
:20E3600088420ED30BE0208840F22561884202D20120A07005E040F62741884201D8002092
:20E38000A07010BC704740F6A461C0F601010870704740F6A461C0F601010878704740F668
:20E3A000B461C0F601013220087070472DE9F00883B000F1FF328C464CF21634C0F6010497
:20E3C00046F20030C1F208006D4690E80B0085E80B00D2B20027A079E61C012803D1278002
:20E3E000C4F80370A77040F6CC7BA35C02EB820558194000C0F6010B20F80BC0581CB15C10
:20E40000C3B201291CD1052B28BF3B460BEB4501A35410466A460B8852F820004A881818A0
:20E4200010188A881018CA88098910180A184CF6CD40CCF6CC40A2FB0001890888B220E0C6
:20E44000EC469F4209D35CF82250B5FBF3F5ADB2052B12D2A354284613E039460BEB450BDF
:20E460005CF822503BF802CB654401319942F9D3B5FBF3F5ADB2052BECD3A7540120B0544E
:20E48000284603B0BDE8F008704710B581B04CF23234C0F601040DF1020001210CF086FA14
:20E4A000BDF80210E1810120FFF780FF208001B010BD10B581B04CF23634C0F601040DF128
:20E4C000020001210CF077FABDF8021061810220FFF76CFF608001B010BD10B581B04CF2ED
:20E4E0002E34C0F601040DF1020001210CF068FABDF8021061820320FFF758FF608001B0D4
:20E5000010BD10B582B04CF22E34C0F601040DF1020001210CF04AFABDF8021061820120AF
:20E52000FFF744FFA08001A801210CF044FABDF8041061820220FFF739FF60810DF106009C
:20E5400001210CF03DFABDF8061061820320FFF72DFFA188A1F10D0240F6B4218A422CBFE7
:20E5600001220022A271628960800D3A914294BF01210021E1710D3840F6B42188422CBF71
:20E5800001200020207202B010BD2DE9F04C81B040F69065C0F601050DF1020001210CF0A1
:20E5A000FBF9AC7ABDF802B0012C04D1E87AFF283CBF0130E87295F808A0BAF1010F04D104
:20E5C000687AFF283CBF01306872FFF746FD0127002640F21840C0F60100BAF1000F0BD1CE
:20E5E000BBF54D7F08D82F726E7204466E81617B007B01293ED037E064B940F296518B4559
:20E6000008D3AF72EE7204462E81617B007B012930D029E0BAF1010F0ED1697A08290BD38F
:20E62000044690F8400084F8406084F84100617B207B01291ED017E0012C02D1E97A0A29D3
:20E6400005D20446617B007B012913D00CE0044690F8400084F8410084F84070FAF719FD47
:20E66000617B207B012905D0012803D16073FEF730FA207B94F8641084F8651084F8647059
:20E68000012840F0A3800DF101000CF0A5F99DF80100002800F09A80A878002840F096800F
:20E6A00094F820004CF23A3584F82100C0F60105FEF770FA84F8200094F8220084F8230060
:20E6C000FEF771FA84F8220094F8240084F82500FEF772FA84F82400FEF797FA2880FEF7C7
:20E6E0008BFA41F23101C0F6010168800878012809D140F64060C0F60100067341F23100A3
:20E70000C0F60100067094F820100B291FD194F822200320132A18BF332A15D0A37FA0776C
:20E7200094F82400E377102815D0002918BF01291CD1A17F0220E177A077FFF7E2FE94F888
:20E740002800402829D120E0E0770420A07794F824001028E9D1A17F0520E177A077FFF751
:20E76000D0FE94F82800402817D10EE0422904BF94F82200002802D1A17FE177A077FFF77D
:20E78000C0FE94F82800402807D194F8260084F82700FEF71AFA84F8260094F82A000128E8
:20E7A00010D1207840F6EC71C0F601016070C878207001281CBFA078012803D1A07EE07668
:20E7C000A77606E0A07EE076A67602E0A07FE077A67701B0BDE8F08C10B440F6EC72C0F651
:20E7E000010202EBC00002790024914208BFA0F8054024D082790132D2B269B990F802C041
:20E8000062450DD3847101224271027804718AB90122C270C17112E090F801C0624503D236
:20E8200082714471C1710AE08471012242710278017112B9C470C17101E0C170C17110BC1C
:20E8400070474DF29D71C1F20401C9B20020FFF7C3BF70B581B040F6A065C0F6010540F26A
:20E860001844C0F6010494F82A000026012819D10DF103000CF0A9F89DF8031068788142A9
:20E880000AD16888013080B264280FD3A078E0700120A070304609E0A078E0706970A6708D
:20E8A000304603E0A078E0703046A670688001B070BD00B581B00DF103000CF094F89DF841
:20E8C000030001B000BD46F20C32C1F2080240F6EC70C0F601001368036093685168D2687F
:20E8E00083604160C2604CF22E31C0F6010100200874C860C88008724FF4BA728A804A8153
:20E900004A8040F21841C0F60101A1F85400C1F80A00C1F80E00C1F812008861C861C1F8DD
:20E920002200C1F82600C88501220A724A72C1F82A00252281F8302081F83120C1F8620056
:20E940008887A1F84000A1F87400704746F20C32C1F2080240F6EC70C0F6010013680360B1
:20E9600093685168D26883604160C2604CF22E31C0F6010100200874C860C88008724FF4E5
:20E98000BA728A804A814A8040F21841C0F60101A1F85400C1F80A00C1F80E00C1F8120027
:20E9A0008861A1F86400C861C1F82200C1F826004885A1F84000A1F87400704740F218409A
:20E9C000C0F6010090F8621040F2A042C0F6010280F863101179012918BF002180F8621038
:20E9E000704710B540F21844C0F6010494F82C0094F82D20012840F0928094F8621001292E
:20EA000048D1012A24D042F2341003F0DEFC0146012003F0EBFC42F2341003F0D6FC0146B3
:20EA2000022003F0E3FC42F2341003F0CEFC0146032003F0DBFC94F82C0084F82D0040F2E6
:20EA40003450C0F601008178C1700121817010BD94F86300012859D042F2341003F0B5FC14
:20EA6000012103F0F6FC42F2341003F0AEFC022103F0EFFC42F2341003F0A7FC032103F054
:20EA8000E8FC40F23450C0F601008178C1700121817010BD608E012A20D003F096FC014646
:20EAA000012003F0A3FC608E03F08FFC0146022003F09CFC608E03F088FC0146032003F081
:20EAC00095FC94F82C0084F82D0040F23450C0F601008178C1700121817010BDA28E8242D9
:20EAE00003D194F863208AB181B903F06EFC012103F0AFFC608E03F068FC022103F0A9FCA1
:20EB0000608E03F062FC032103F0A3FC40F23450C0F601008178C1700121817010BD002A5F
:20EB200008BF10BD002818BF10BD012003F082FC022003F07FFC032003F07CFC40F234500F
:20EB4000C0F601008178C1700021817094F82C0084F82D0010BD10B540F21844C0F6010486
:20EB600094F82E0001286CD103F064FC022003F061FC032003F05EFC94F8621094F82F0087
:20EB800001292ED1012818D094F82E00012814D142F2F03003F019FC0146002003F026FC9B
:20EBA00094F82E0084F82F0040F23450C0F60100017841700121017010BD94F863000128E1
:20EBC00036D042F2F03003F000FC002103F041FC40F23450C0F60100017841700121017071
:20EBE00010BD012817D094F82E00012813D1E08E03F0EBFB0146002003F0F8FB94F82E0023
:20EC000084F82F0040F23450C0F60100017841700121017010BDE08E228F824203D194F80F
:20EC200063202AB121B903F0D0FB002103F011FC40F23450C0F60100017841700121017093
:20EC400010BD50B941F20202C0F601021178022908BFBDE8104003F0ED8394F82F10002927
:20EC600008BF10BD002818BF10BD03F0E3FB40F23450C0F60100017841700021017094F8AE
:20EC80002E0084F82F0010BD10B540F21844C0F6010494F82C0094F82D10012840F08C80DA
:20ECA00094F86200002842D1012921D01E2003F08BFB0146012003F099FB1E2003F084FBBA
:20ECC0000146022003F092FB1E2003F07DFB0146032003F08BFB94F82C0084F82D0040F22C
:20ECE0003450C0F601008178C1700121817010BD94F86300002856D01E2003F065FB0121DF
:20ED000003F0A7FB1E2003F05FFB022103F0A1FB1E2003F059FB032103F09BFB40F2345039
:20ED2000C0F601008178C1700121817010BD012921D0C82003F048FB0146012003F056FB2D
:20ED4000C82003F041FB0146022003F04FFBC82003F03AFB0146032003F048FB94F82C008E
:20ED600084F82D0040F23450C0F601008178C1700121817010BD94F86310012913D001283E
:20ED800011D1C82003F020FB012103F062FBC82003F01AFB022103F05CFBC82003F014FBE2
:20EDA000032103F056FB40F23450C0F601008178C1700121817010BD002908BF10BD00288F
:20EDC00018BF10BD012003F035FB022003F032FB032003F02FFB40F23450C0F60100817863
:20EDE000C1700021817094F82C0084F82D0010BD10B540F21844C0F6010494F82E0094F84E
:20EE00002F10012855D194F8620038BB012913D01E2003F0D9FA0146002003F0E7FA94F8AB
:20EE20002E0084F82F0040F23450C0F60100017841700121017010BD94F8630080B31E20A2
:20EE400003F0C2FA002103F004FB40F23450C0F60100017841700121017010BD012913D0EC
:20EE6000C82003F0B1FA0146002003F0BFFA94F82E0084F82F0040F23450C0F601000178AE
:20EE800041700121017010BD94F86310012907D0012805D1C82003F097FA002103F0D9FA0F
:20EEA00040F23450C0F60100017841700121017010BD002908BF10BD002818BF10BD03F0DF
:20EEC000B9FA40F23450C0F60100017841700021017094F82E0084F82F0010BD00B540F23D
:20EEE0001840C0F6010090F8621040F2A042C0F6010280F863101179012918BF002180F82D
:20EF00006210FFF76EFDFFF726FE00BD41F20003C0F6010340F23451C0F60101887BC873AA
:20EF20000020887340F21841C0F601010A7B58754A7391F82C20087381F82D2091F82E2077
:20EF400081F82C0081F82F2091F8802081F82E0081F8812081F88000588091F82A2081F83D
:20EF60002B2091F8662081F82A0081F8672091F8282081F8660081F8292081F82800D86148
:20EF80001876588383F82400A3F8250018801871D8801872C3F80A0070470020704770479C
:20EFA000704730B540F6FC7440F21842C0F60102C0F60104917A206801290BD046F23435D6
:20EFC000C1F2080529460BF0CFFA206029460BF0BBFA0AE046F24C35C1F2080529460BF0D2
:20EFE000C3FA206029460BF0AFFA2060012030BD41F20003C0F6010340F23450C0F60100D6
:20F00000817BC1730021817340F21840C0F6010090F8662080F8672090F82C2080F866109B
:20F0200080F82D2090F82E2080F82C1080F82F2090F8802080F82E1080F8812080F88010BB
:20F040001960704710B440F6FC74C0F6010440F21843C0F60103997A8A1E022A05D846F218
:20F060007C30C1F20800206006E0002021B946F26430C1F20800206010BC7047704741F255
:20F080001801C0F6010100204860087048800873A1F80D00704740F21842C0F60102917A6F
:20F0A000012915D130B546F24C3540F6FC74C0F60104C1F20805206829460BF055FA2060C0
:20F0C00029460BF041FA20600120BDE8304070470020704740F21840C0F60100017B4173D6
:20F0E00001210173704746F2943040F6FC71C0F60101C1F20800086070477047704740F2F2
:20F100001842C0F60102917A012915D030B546F2343540F6FC74C0F60104C1F20805206893
:20F1200029460BF021FA206029460BF00DFA20600120BDE83040704700207047704710B49A
:20F1400040F6FC74C0F6010440F21840C0F6010090F8411011B190F8401011B1007B012834
:20F1600004D146F2C430C1F2080003E046F2DC30C1F20800206010BC70477047704740F24E
:20F180001842C0F60102917A0239022915D830B546F27C3540F6FC74C0F60104C1F208050F
:20F1A000206829460BF0E0F9206029460BF0CCF920600120BDE8304070470020704741F25E
:20F1C0001403C0F6010340F21841C0F60101087B487391F828200020587081F829200873E7
