S00F0000655F6B61345F70655F77000022
S3251004800002480349016000F0B7BF000008ED00E000840410FFFFFFFFFFFFFFFFFFFFFFFF88
S32510048020FFFFFFFFFFFFFFFFFFFFFFFFFFFFFFFFFFFFFFFFFFFFFFFFFFFFFFFFFFFFFFFF46
S32510048040FFFFFFFFFFFFFFFFFFFFFFFFFFFFFFFFFFFFFFFFFFFFFFFFFFFFFFFFFFFFFFFF26
S32510048060FFFFFFFFFFFFFFFFFFFFFFFFFFFFFFFFFFFFFFFFFFFFFFFFFFFFFFFFFFFFFFFF06
S32510048080FFFFFFFFFFFFFFFFFFFFFFFFFFFFFFFFFFFFFFFFFFFFFFFFFFFFFFFFFFFFFFFFE6
S325100480A0FFFFFFFFFFFFFFFFFFFFFFFFFFFFFFFFFFFFFFFFFFFFFFFFFFFFFFFFFFFFFFFFC6
S325100480C0FFFFFFFFFFFFFFFFFFFFFFFFFFFFFFFFFFFFFFFFFFFFFFFFFFFFFFFFFFFFFFFFA6
S325100480E0FFFFFFFFFFFFFFFFFFFFFFFFFFFFFFFFFFFFFFFFFFFFFFFFFFFFFFFFFFFFFFFF86
S32510048100FFFFFFFFFFFFFFFFFFFFFFFFFFFFFFFFFFFFFFFFFFFFFFFFFFFFFFFFFFFFFFFF65
S32510048120FFFFFFFFFFFFFFFFFFFFFFFFFFFFFFFFFFFFFFFFFFFFFFFFFFFFFFFFFFFFFFFF45
S32510048140FFFFFFFFFFFFFFFFFFFFFFFFFFFFFFFFFFFFFFFFFFFFFFFFFFFFFFFFFFFFFFFF25
S32510048160FFFFFFFFFFFFFFFFFFFFFFFFFFFFFFFFFFFFFFFFFFFFFFFFFFFFFFFFFFFFFFFF05
S32510048180FFFFFFFFFFFFFFFFFFFFFFFFFFFFFFFFFFFFFFFFFFFFFFFFFFFFFFFFFFFFFFFFE5
S325100481A0FFFFFFFFFFFFFFFFFFFFFFFFFFFFFFFFFFFFFFFFFFFFFFFFFFFFFFFFFFFFFFFFC5
S325100481C0FFFFFFFFFFFFFFFFFFFFFFFFFFFFFFFFFFFFFFFFFFFFFFFFFFFFFFFFFFFFFFFFA5
S325100481E0FFFFFFFFFFFFFFFFFFFFFFFFFFFFFFFFFFFFFFFFFFFFFFFFFFFFFFFFFFFFFFFF85
S32510048200FFFFFFFFFFFFFFFFFFFFFFFFFFFFFFFFFFFFFFFFFFFFFFFFFFFFFFFFFFFFFFFF64
S32510048220FFFFFFFFFFFFFFFFFFFFFFFFFFFFFFFFFFFFFFFFFFFFFFFFFFFFFFFFFFFFFFFF44
S32510048240FFFFFFFFFFFFFFFFFFFFFFFFFFFFFFFFFFFFFFFFFFFFFFFFFFFFFFFFFFFFFFFF24
S32510048260FFFFFFFFFFFFFFFFFFFFFFFFFFFFFFFFFFFFFFFFFFFFFFFFFFFFFFFFFFFFFFFF04
S32510048280FFFFFFFFFFFFFFFFFFFFFFFFFFFFFFFFFFFFFFFFFFFFFFFFFFFFFFFFFFFFFFFFE4
S325100482A0FFFFFFFFFFFFFFFFFFFFFFFFFFFFFFFFFFFFFFFFFFFFFFFFFFFFFFFFFFFFFFFFC4
S325100482C0FFFFFFFFFFFFFFFFFFFFFFFFFFFFFFFFFFFFFFFFFFFFFFFFFFFFFFFFFFFFFFFFA4
S325100482E0FFFFFFFFFFFFFFFFFFFFFFFFFFFFFFFFFFFFFFFFFFFFFFFFFFFFFFFFFFFFFFFF84
S32510048300FFFFFFFFFFFFFFFFFFFFFFFFFFFFFFFFFFFFFFFFFFFFFFFFFFFFFFFFFFFFFFFF63
S32510048320FFFFFFFFFFFFFFFFFFFFFFFFFFFFFFFFFFFFFFFFFFFFFFFFFFFFFFFFFFFFFFFF43
S32510048340FFFFFFFFFFFFFFFFFFFFFFFFFFFFFFFFFFFFFFFFFFFFFFFFFFFFFFFFFFFFFFFF23
S32510048360FFFFFFFFFFFFFFFFFFFFFFFFFFFFFFFFFFFFFFFFFFFFFFFFFFFFFFFFFFFFFFFF03
S32510048380FFFFFFFFFFFFFFFFFFFFFFFFFFFFFFFFFFFFFFFFFFFFFFFFFFFFFFFFFFFFFFFFE3
S325100483A0FFFFFFFFFFFFFFFFFFFFFFFFFFFFFFFFFFFFFFFFFFFFFFFFFFFFFFFFFFFFFFFFC3
S325100483C0FFFFFFFFFFFFFFFFFFFFFFFFFFFFFFFFFFFFFFFFFFFFFFFFFFFFFFFFFFFFFFFFA3
S325100483E0FFFFFFFFFFFFFFFFFFFFFFFFFFFFFFFFFFFFFFFFFFFFFFFFFFFFFFFFFFFFFFFF83
S3251004840000A4000800800410F51A08103D1A08103D1A08103D1A08103D1A0810A11A08104C
S32510048420A11A0810A11A0810A11A081005190810A11A0810A11A0810A11A081001170810CA
S32510048440011708100117081001170810011708100117081001170810011708100117081082
S32510048460011708100117081001170810011708100117081001170810011708100117081062
S32510048480A11A0810A11A0810A11A0810A11A0810A11A0810A11A0810A11A0810A11A08102A
S325100484A0A11A0810A11A0810A11A0810A11A0810A11A0810A11A0810A11A0810A11A08100A
S325100484C0A11A0810A11A0810A11A0810A11A0810A11A0810A11A0810A11A0810A11A0810EA
S325100484E0A11A0810A11A0810A11A0810A11A0810A11A0810A11A0810A11A0810A11A0810CA
S32510048500A11A0810A11A0810A11A0810A11A0810A11A0810A11A0810A11A0810A11A0810A9
S32510048520A11A0810A11A0810A11A0810A11A0810A11A0810A11A0810A11A0810A11A081089
S32510048540A11A0810A11A0810A11A0810A11A0810A11A0810A11A0810A11A0810A11A081069
S32510048560A11A0810A11A0810A11A0810A11A0810A11A0810A11A0810A11A0810A11A081049
S32510048580A11A0810A11A0810A11A0810A11A0810A11A0810A11A0810A11A0810A11A081029
S325100485A0A11A0810A11A0810A11A0810A11A0810A11A0810A11A0810A11A0810A11A081009
S325100485C0A11A0810A11A0810A11A0810A11A0810A11A0810A11A0810A11A0810A11A0810E9
S325100485E0A11A0810A11A0810A11A0810A11A0810A11A0810A11A0810A11A0810A11A0810C9
S32510048600A11A0810A11A0810A11A0810A11A0810A11A0810A11A0810A11A0810A11A0810A8
S32510048620A11A0810A11A0810A11A0810A11A0810A11A0810A11A0810A11A0810A11A081088
S32510048640A11A0810A11A0810A11A0810A11A0810A11A0810A11A0810A11A0810A11A081068
S32510048660A11A0810A11A0810A11A0810A11A0810A11A0810A11A0810A11A0810A11A081048
S32510048680A11A0810A11A0810A11A0810A11A0810A11A0810A11A0810A11A0810A11A081028
S325100486A0A11A0810A11A0810A11A0810A11A0810A11A0810A11A0810A11A0810A11A081008
S325100486C0A11A0810A11A0810A11A0810A11A0810A11A0810A11A0810A11A0810A11A0810E8
S325100486E0A11A0810A11A0810A11A0810A11A0810A11A0810A11A0810A11A0810A11A0810C8
S32510048700A11A0810A11A0810A11A0810A11A0810A11A0810A11A0810A11A0810A11A0810A7
S32510048720A11A0810A11A0810A11A0810A11A0810A11A0810A11A0810A11A0810A11A081087
S32510048740A11A0810A11A0810A11A0810A11A0810A11A0810A11A0810A11A0810A11A081067
S32510048760A11A0810A11A0810A11A0810A11A0810A11A0810A11A0810A11A0810A11A081047
S32510048780A11A0810A11A0810A11A0810A11A0810A11A0810A11A0810A11A0810A11A081027
S325100487A0A11A0810A11A0810A11A0810A11A0810A11A0810A11A0810A11A0810A11A081007
S325100487C0A11A0810A11A0810A11A0810A11A0810A11A0810A11A0810A11A0810A11A0810E7
S325100487E0A11A0810A11A0810A11A0810A11A0810A11A0810A11A0810A11A0810FFFFFFFF9E
S3251004880002000001000000FF17042020FFFFFFFFEB510200008004100F880410008D0410C7
S32510048820FFFF2010FFFFFFFFFFFFFFFFFFFFFFFFFFFFFFFFFFFFFFFFFFFFFFFFFFFFFFFF0C
S32510048840FFFFFFFFFFFFFFFFFFFFFFFFFFFFFFFFFFFFFFFFFFFFFFFFFFFFFFFFFFFFFFFF1E
S32510048860FFFFFFFFFFFFFFFFFFFFFFFFFFFFFFFFFFFFFFFFFFFFFFFFFFFFFFFFFFFFFFFFFE
S32510048880FFFFFFFFFFFFFFFFFFFFFFFFFFFFFFFFFFFFFFFFFFFFFFFFFFFFFFFFFFFFFFFFDE
S325100488A0FFFFFFFFFFFFFFFFFFFFFFFFFFFFFFFFFFFFFFFFFFFFFFFFFFFFFFFFFFFFFFFFBE
S325100488C0FFFFFFFFFFFFFFFFFFFFFFFFFFFFFFFFFFFFFFFFFFFFFFFFFFFFFFFFFFFFFFFF9E
S325100488E0FFFFFFFFFFFFFFFFFFFFFFFFFFFFFFFFFFFFFFFFFFFFFFFFFFFFFFFFFFFFFFFF7E
S32510048C000000020000800410FF880410008C0410FFFF2010FFFFFFFFFFFFFFFFFFFFFFFF47
S32510048C20FFFFFFFFFFFFFFFFFFFFFFFFFFFFFFFFFFFFFFFFFFFFFFFFFFFFFFFFFFFFFFFF3A
S32510048C40FFFFFFFFFFFFFFFFFFFFFFFFFFFFFFFFFFFFFFFFFFFFFFFFFFFFFFFFFFFFFFFF1A
S32510048C60FFFFFFFFFFFFFFFFFFFFFFFFFFFFFFFFFFFFFFFFFFFFFFFFFFFFFFFFFFFFFFFFFA
S32510048C80FFFFFFFFFFFFFFFFFFFFFFFFFFFFFFFFFFFFFFFFFFFFFFFFFFFFFFFFFFFFFFFFDA
S32510048CA0FFFFFFFFFFFFFFFFFFFFFFFFFFFFFFFFFFFFFFFFFFFFFFFFFFFFFFFFFFFFFFFFBA
S32510048CC0FFFFFFFFFFFFFFFFFFFFFFFFFFFFFFFFFFFFFFFFFFFFFFFFFFFFFFFFFFFFFFFF9A
S32510048CE0FFFFFFFFFFFFFFFFFFFFFFFFFFFFFFFFFFFFFFFFFFFFFFFFFFFFFFFFFFFFFFFF7A
S32510048D00FFFFFFFFFFFFFFFFFFFFFFFFFFFFFFFFFFFFFFFFFFFFFFFFFFFFFFFFFFFFFFFF59
S32510048D2030B40346104600248C420FD246F2D035C1F20D0513F8012B42401206D20D525B64
S32510048D4082EA102080B201348C42F3D330BC70472DE9F00C01004FF0010000F0A1800C68E7
S32510048D60002C00F09D8065884FF6FF718D4218BF002D00F0958034F8091C0023AB4280F055
S32510048D808B8004EBC3067268B668B2F1FF3F1CBF002A964203D822888A427FD080E0B61A70
S32510048DA006F1010C5FEADC075DD046F2D036C1F20D0632F808AB8AEA010B4FEA0B6B4FEAF3
S32510048DC0DB5B3BF806B08BEA212181EA1A2A4FEA0A6A4FEADA5A3AF806B032F806AC8BEAA1
S32510048DE021218AEA010B4FEA0B6B4FEADB5B3BF806B08BEA212181EA1A2A4FEA0A6A4FEA44
S32510048E00DA5A3AF806B032F804AC8BEA21218AEA010B4FEA0B6B4FEADB5B3BF806B08BEA8F
S32510048E20212181EA1A2A4FEA0A6A4FEADA5A3AF806B032F802AC8BEA21218AEA010B4FEADD
S32510048E400B6B4FEADB5B3BF806B08BEA212181EA1A2A4FEA0A6A4FEADA5A3AF806A08AEA5E
S32510048E602121013FA5D11CF0070611D046F2D037C1F20D0712F801CB8CEA010C4FEA0C6CD6
S32510048E804FEADC5C3CF807C08CEA2121013EF1D10133AB42FFF475AF22888A4208BF0020FE
S32510048EA0BDE8F00C70472DE9F0444EF2D006C0F6000600214FF4887052F09CF845F67860DF
S32510048EC0C1F20D000024057B3470AC420FD22746D0F808A0380E0AEBC000FFF739FF08B1E2
S32510048EE00124347007F18077B5EB176FF2D80CB90220307000F0E6F801214FF48870BDE859
S32510048F00F04452F077B8FFF7CEBFF0B54EF2D006C0F60006022045F67861C1F20D01307001
S32510048F200C790025A54228BFF0BD0F68280E07EBC000FFF70DFF08B10120307005F180752C
S32510048F40B4EB156FF2D8F0BD00B557F067FC002814BF0420032000BD4EF2D001C0F6000137
S32510048F600878022808BF7047003818BF0120704701808FE218FF2FE106460F4690460FF039
S32510048F800FFE4FF014004FF001014EF021F848F69F75C1F20405A5F101057A46A2EB0505BE
S32510048FA09146002803D131463A4643460AE04AF20040C0F6000085464FF000014FF00002DC
S32510048FC04FF0000340F20200012817D308D04EF68850CEF20000046844F4700404600DE0D1
S32510048FE011EE500F40F4A00001EE500FBFF36F8FF8EE100A40F08040E8EE100A4FF0000404
S3251004900048F20040C1F20400814506DB40F20000C1F22100814500DC2C4641F6F830C1F232
S325100490200800A0EB040000EB05004FF000044FF000054FF0000637F0F5FF00BFFDE7000005
S3251004904087F0EEB987F016BA002800D0022816F0DCA77047022808BF00200DF0A0820128D6
S3251004906018BF704700200DF09EBA00B5002056F0CCFF002056F0ADFF40F27471C0F601010C
S325100490800020087000BD00B500200DF088FA022056F0BBFF022056F09CFF40F27471C0F61B
S325100490A001010020087000BD40F28271C0F6010101200870704740F28271C0F60101022013
S325100490C008707047704701207047000040F28473C0F6010300205863986103F8100B43F8B0
S325100490E00C0C03F8040CD862D86198619862D86083F8300048F20001C1F20401196140F647
S32510049100FF028A181A6201F5406183E803004FF6FF71C1F220015961042340F2C871C0F686
S32510049120010140F2E872C0F60102907001F8080B22F8080B21F8070C02F8030C01F8050C56
S3251004914022F8050C21F8040C01F8020C22F8020C01F8010C013BE8D1704730B540F28474B1
S32510049160C0F601042078012805D16068B0F1FF3F01D201306060207B012805D12069B0F154
S32510049180FF3F01D201302061207A062888BF30BD0FF20401D1E800F0041B38C3679EB60072
S325100491A048F20000C1F20400206248F6FF00C1F20400206348F60040C1F2040060614FF670
S325100491C0FF70C1F2200060620120207230BD40F6A001C0F6010191F83800012818BF30BD94
S325100491E0FFF774FF36F047FE002818BF30BD206A216B091AE0630131012020700020606056
S3251004920061630220207230BD40F6A001C0F6010191F8380000287ED0616BE06B36F036FE98
S32510049220A8B96069616A091A8A0AC1F30901A1634FF48061A161A2620121E062E1610020B6
S3251004924020612070606021730420207230BD606848F6A041884238BF30BD002020706060E7
S325100492600120207230BD40F6A001C0F6010191F8380000284FD0A169E06A36F007FEE8B97D
S32510049280E169A26A914204D9207320610520207230BD606900F580606061E0620131E161E1
S325100492A0914205D9A06B0130A0610420207230BD4FF48060A0610420207230BD206948F675
S325100492C0A041884238BF30BD0020207320610120207230BD40F2E875C0F60105284636F032
S325100492E0E2FD002818BF30BD012084F84000294640F2C870C0F60100202237F07EFE062011
S32510049300207230BD40F6A001C0F6010191F83800002818BF30BDFFF7D9FE0020207230BD0C
S325100493200DF044BA2DE9F04C00274FF0010A40F6080B40F60C06C0F60106C0F6010B3068AD
S3251004934040F62005C0F6010510F0010F0DD020F0010195F84600316085F8470085F8467082
S32510049360084611F0020F0FD024E0DBF8000010F0010F19D095F8460085F84700306885F818
S3251004938046A010F0020F15D1DBF8000010F0020F39D095F8480085F84900306885F848A051
S325100493A010F0040F13D034E028786870306810F0020FE9D020F0020195F84800316085F8B9
S325100493C0490085F84870084611F0040F21D1DBF8000040F6A004C0F6010410F0040F41D015
S325100493E095F84A0085F84B0094F8300085F84AA084F8310005F04AFA84F83000306810F067
S32510049400080F1FD03EE0A878E870306810F0040FDDD020F00400306095F84A0040F6A004E9
S32510049420C0F6010485F84B0094F8300085F84A7084F8310005F02AFA84F83000306810F092
S32510049440080F1FD1DBF8000010F0080F37D095F84C0085F84D00306885F84CA010F0100F37
S325100494601DD034E028796871A879E87194F8300084F8310005F00AFA84F83000306810F037
S32510049480080FDFD020F0080195F84C00316085F84D0085F84C70084611F0100F17D1DBF83D
S325100494A0000010F0100F2FD095F84E0085F84F00306885F84EA010F0200F15D02AE02889FB
S325100494C06881287B6873306810F0100FE7D020F0100195F84E00316085F84F0085F84E7009
S325100494E0084611F0200F15D1DBF8000010F0200F2DD095F8500085F85100306885F850A03F
S3251004950010F0400F13D028E0A87BE873306810F0200FE9D020F0200195F85000316085F8DD
S32510049520510085F85070084611F0400F15D1DBF8000010F0400F2DD095F8520085F8530031
S32510049540306885F852A010F0800F13D028E0287C6874306810F0400FE9D020F0400195F872
S325100495605200316085F8530085F85270084611F0800F15D1DBF8000010F0800F2DD095F82F
S32510049580540085F85500306885F854A010F4807F13D028E0A87CE874306810F0800FE9D034
S325100495A020F0800195F85400316085F8550085F85470084611F4807F15D1DBF8000010F46C
S325100495C0807F2DD095F8560085F85700306885F856A010F4007F13D028E0287D687530682B
S325100495E010F4807FE9D020F4807195F85600316085F8570085F85670084611F4007F15D14D
S32510049600DBF8000010F4007F2DD095F8580085F85900306885F858A010F4806F13D028E037
S32510049620A87DE875306810F4007FE9D020F4007195F85800316085F8590085F85870084656
S3251004964011F4806F15D1DBF8000010F4806F2DD095F85A0085F85B00306885F85AA010F481
S32510049660006F13D028E0287E6876306810F4806FE9D020F4806195F85A00316085F85B0069
S3251004968085F85A70084611F4006F15D1DBF8000010F4006F31D095F85C0085F85D0030681F
S325100496A085F85CA010F4805F13D02CE0A87EE876306810F4006FE9D020F4006195F85C009F
S325100496C0316085F85D0085F85C70084611F4805F19D1DBF8000010F4805F38D095F85E00F7
S325100496E085F85F0040F61400C0F60100016885F85EA011F0400F17D033E0287F6877306827
S3251004970010F4805FE5D020F48050306095F85E0085F85F0040F61400C0F60100016885F875
S325100497205E7011F0400F1CD140F61002C0F60102116811F0400F31D095F8601085F861104E
S32510049740316885F860A011F4005F17D02EE0A87FE87740F61400C0F60100016811F0400F40
S32510049760E2D021F04001016095F8601085F86110316885F8607011F4005F17D1DBF800106A
S3251004978011F4005F2FD095F8621085F86310316885F862A011F4804F15D030E095F82010BF
S325100497A085F82110316811F4005FE7D021F4005295F86210326085F8631085F8627011469F
S325100497C012F4804F1BD1DBF8001011F4804F36D095F8641085F86510016885F864A011F013
S325100497E0010F19D03FE095F8221085F8231095F8241085F82510316811F4804FE3D021F420
S325100498008041316095F8641085F86510016885F8647011F0010F26D140F61002C0F6010226
S32510049820116811F0010F3ED095F8661085F86710016885F866A011F0020F21D03BE095F8E8
S32510049840261085F8271095F82A1085F82B1095F82C1085F82D1095F8281085F8291001681E
S3251004986011F0010FD8D021F0010295F86610026085F8671085F86670114612F0020F1AD100
S3251004988040F61002C0F60102116811F0020F32D095F8681085F86910016885F868A011F036
S325100498A0040F15D02FE095F82E1085F82F10016811F0020FE4D021F0020295F86810026055
S325100498C085F8691085F86870114612F0040F1AD140F61002C0F60102116811F0040F32D03C
S325100498E095F86A1085F86B10016885F86AA011F0080F15D02FE095F8301085F8311001685F
S3251004990011F0040FE4D021F0040295F86A10026085F86B1085F86A70114612F0080F1AD13B
S3251004992040F61002C0F60102116811F0080F32D095F86C1085F86D10016885F86CA011F083
S32510049940100F15D02FE095F8321085F83310016811F0080FE4D021F0080295F86C10026090
S3251004996085F86D1085F86C70114612F0100F1AD140F61002C0F60102116811F0100F32D07B
S3251004998095F86E1085F86F10016885F86EA011F0200F15D02FE095F8341085F83510016892
S325100499A011F0100FE4D021F0100295F86E10026085F86F1085F86E70114612F0200F1AD15F
S325100499C040F61002C0F60102116811F0200F32D095F8701085F87110016885F870A011F0BF
S325100499E0800F15D02FE095F8361085F83710016811F0200FE4D021F0200295F87010026044
S32510049A0085F8711085F87070114612F0800F1AD140F61002C0F60102116811F0800F2FD0F5
S32510049A2095F8721085F87310016885F872A011F4807F15D02CE095F8381085F8391001680C
S32510049A4011F0800FE4D021F0800295F87210026085F8731085F87270114612F4807F17D101
S32510049A6040F61001C0F60101086810F4807F1AD095F8740085F8750085F874A0BDE8F08CCB
S32510049A8095F83A1085F83B10016811F4807FE7D021F48071016095F8740085F8750085F812
S32510049AA07470BDE8F08C95F83C0085F83D00BDE8F08C30B540F62011C0F601010B78012B30
S32510049AC004D14878FF283CBF0130487040F6200040F61802C0F60102C0F601001468002515
S32510049AE014F0010F15D024F00103136090F840004D7038B101200870184613F0040F08BF86
S32510049B0030BD27E00870184613F0040F08BF30BD20E0012B02D14B78322B0DD290F83E30A3
S32510049B2090F8401080F83F3080F84110106810F0040F08BF30BD0DE080F83E5080F8405049
S32510049B4080F83F5080F8415010680D8010F0040F08BF30BD20F00400106040F62410C0F66B
S32510049B600100811C0630BDE8304056F0E3BD30B400240D46EB0815D001464FF0FF32DC0036
S32510049B8001F8082B01F8072C01F8062C01F8052C01F8042C01F8032C01F8022C01F8012C60
S32510049BA0013BEDD115F0070106D020184FF0FF3200F8012B0139FBD130BC704770B40025F0
S32510049BC01646F40824D002460B46E50012F808CB03F808CB12F807CC03F807CC12F806CC6F
S32510049BE003F806CC12F805CC03F805CC12F804CC03F804CC12F803CC03F803CC12F802CCB7
S32510049C0003F802CC12F801CC03F801CC013CDDD116F0070207D02818691810F8013B01F8F3
S32510049C20013B013AF9D170BC7047F0B500EBC00043F26C01C0F6010101EB80046169201DC5
S32510049C408847A1786071012904D300F095800020A070F0BD002818BFF0BD2079012808BF19
S32510049C60F0BD052840D1A668E7684FF0FF30E070257C0020EB0824D031463A46D80011F844
S32510049C8008CB02F808CB11F807CC02F807CC11F806CC02F806CC11F805CC02F805CC11F80C
S32510049CA004CC02F804CC11F803CC02F803CC11F802CC02F802CC11F801CC02F801CC013BD7
S32510049CC0DDD115F007014DD08219C01912F8013B00F8013B0139F9D1E169E0688847E071EE
S32510049CE0002818BFF0BD44E02078002808BFF0BD002121704FF0FF30E070E668257CA768D8
S32510049D00EB0824D030463A46D90010F808CB02F808CB10F807CC02F807CC10F806CC02F84F
S32510049D2006CC10F805CC02F805CC10F804CC02F804CC10F803CC02F803CC10F802CC02F881
S32510049D4002CC10F801CC02F801CC013BDDD115F0070007D08A19C91912F8013B01F8013BB2
S32510049D600138F9D1E169E0688847E071002818BFF0BD0120A070F0BD207902281CBF0020CC
S32510049D80A070F0BD10B543F20804C0F601042078FFF74BFF227843F26C0102EBC200C0F6B2
S32510049DA0010101EB8000C078C0B9501CC0B207280ED02070C87880B341F29410C0F60100EE
S32510049DC00178417000210170BDE8104056F065B900202070C8780028EED11EE001281CBF7B
S32510049DE0032805280FD16078013804D36070C8780028E1D111E003206070501C2070C8781F
S32510049E000028D9D109E004381CBF023802289CBF07202070C8780028CED191F82700002801
S32510049E20CAD191F84B000028C6D191F86F000028C2D191F893000028BED191F8B7000028EC
S32510049E40BAD191F8DB000028B6D141F29410C0F60100017841700121017056F01EF9BDE8FD
S32510049E60104000F092BFF0B500EBC00043F26C03C0F6010303EB8003DA70062918BF0C2993
S32510049E8040F0A480012A18BF032A61D1DF681D7C0024EA0815D038464FF0FF31D40000F85F
S32510049EA0081B00F8071C00F8061C00F8051C00F8041C00F8031C00F8021C00F8011C013A82
S32510049EC0EDD115F0070006D0E1194FF0FF3201F8012B0138FBD19E681D7CDF68EC0824D066
S32510049EE031463A46E00011F808CB02F808CB11F807CC02F807CC11F806CC02F806CC11F86F
S32510049F0005CC02F805CC11F804CC02F804CC11F803CC02F803CC11F802CC02F802CC11F89F
S32510049F2001CC02F801CC013CDDD115F0070100F0AB808219C01912F801CB00F801CB013918
S32510049F40F9D1012018705878012818BFF0BDA1E0052A40F09B809E68DF681D7C0020EC0802
S32510049F6024D031463A46E00011F808CB02F808CB11F807CC02F807CC11F806CC02F806CC03
S32510049F8011F805CC02F805CC11F804CC02F804CC11F803CC02F803CC11F802CC02F802CC1F
S32510049FA011F801CC02F801CC013CDDD115F007016CD08219C01912F801CB00F801CB01396E
S32510049FC0F9D15878012818BFF0BD63E007295DD1012A5BD1DF681D7C0024EA0815D03846CF
S32510049FE04FF0FF31D40000F8081B00F8071C00F8061C00F8051C00F8041C00F8031C00F874
S3251004A000021C00F8011C013AEDD115F0070006D0E1194FF0FF3201F8012B0138FBD19E687E
S3251004A0201D7CDF68EC0824D031463A46E00011F808CB02F808CB11F807CC02F807CC11F80C
S3251004A04006CC02F806CC11F805CC02F805CC11F804CC02F804CC11F803CC02F803CC11F856
S3251004A06002CC02F802CC11F801CC02F801CC013CDDD115F0070107D08219C01912F801CB7A
S3251004A08000F801CB0139F9D1012018705878012818BFF0BD00205870196AD878BDE8F04028
S3251004A0A0084743F26C03C0F6010300EBC00003F8201003EB8000C260704770477047704797
S3251004A0C0704770477047704710B441F23014C0F601042078552842D1AA2041F24C11C0F65C
S3251004A0E0010120700878FF2845D0AA2804BF4FF0FF300870207AFF2842D0AA2804BF4FF0D6
S3251004A100FF30207241F25C11C0F601010878FF283FD0AA2804BF4FF0FF300870207CFF2818
S3251004A1203CD0AA2804BF4FF0FF30207441F27411C0F601010878FF2839D0AA2804BF4FF06E
S3251004A140FF30087041F28411C0F601010878FF2836D0CC2804BF4FF0FF30087032E0AA2890
S3251004A16004BF4FF0FF30207041F24C11C0F601010878FF28B9D1AA200870207AFF28BCD1FB
S3251004A180AA2041F25C11C0F6010120720878FF28BFD1AA200870207CFF28C2D1AA2041F225
S3251004A1A07411C0F6010120740878FF28C5D1AA20087041F28411C0F601010878FF28C8D175
S3251004A1C0CC200870207E43F26C0200EBC000C0F60102012302F8203002EB8000C160207EC2
S3251004A1E001302076207E072804BF0020207610BC7047704741F23012C0F601021154012149
S3251004A2000020FFF74EBF41F24C12C0F60102115401210846FFF745BF41F23812C0F60102B2
S3251004A220115401210220FFF73CBF41F25C12C0F60102115401210320FFF733BF41F24012F9
S3251004A240C0F60102115401210420FFF72ABF41F23011C0F60101085C704741F24C11C0F614
S3251004A2600101085C704741F23811C0F60101085C704741F25C11C0F60101085C704741F2B2
S3251004A2804011C0F60101085C704741F23012C0F601024FF0FF301060506001210020FFF78C
S3251004A2A000BF41F24C12C0F601024FF0FF30106050609060D06001210846FFF7F2BE41F284
S3251004A2C03812C0F601024FF0FF301060506001210220FFF7E6BE41F25C12C0F60102104645
S3251004A2E00323FF2100F8081B00F8071C00F8061C00F8051C00F8041C00F8031C00F8021C50
S3251004A30000F8011C013BEDD101210320FFF7C9BE41F24012C0F601024FF0FF301060506086
S3251004A32001210420FFF7BDBE10B540F6A000C0F6010090F8321080F83310002480F8324067
S3251004A34004F04FFB204604F059FB40F60410C0F6010001794171047110BD002070477047FA
S3251004A360704740F6A002C0F6010292F82A10012915D130B541F6584541F2AC14C0F6010440
S3251004A380C1F20805206829460BF0A4FF206029460BF090FF20600120BDE830407047002048
S3251004A3A0704710B5012004F029FB40F6A000C0F6010090F8321080F83310142480F832409A
S3251004A3C0204604F003FB204604F00DFB40F60410C0F60100017941710121017110BD41F6E4
S3251004A3E0704041F2AC11C0F60101C1F20800086070477047704740F6A002C0F6010292F888
S3251004A4002A10A9B930B541F6404541F2AC14C0F60104C1F20805206829460BF05BFF2060AB
S3251004A42029460BF047FF20600120BDE8304070470020704700B540F6A001C0F6010191F841
S3251004A440320081F83300142081F8320004F078FA04F0C9FA00BD002070477047704740F6D0
S3251004A4602002C0F601020020118940F2FF13994208BF70470A2938BF7047917D023903293A
S3251004A48088BF704730B541F6884541F2AC14C0F60104C1F20805206829460BF01BFF2060C1
S3251004A4A029460BF007FF20600120BDE83040704700B540F6A001C0F6010191F8320081F82D
S3251004A4C03300322081F8320004F03AFA04F08BFA00BD002070477047704730B540F6200252
S3251004A4E0C0F601020020118941F2AC14C0F60104052901D3927D72B941F67045C1F2080539
S3251004A500206829460BF0E6FE206029460BF0D2FE2060012030BD372938BF30BD41F6A045A3
S3251004A520C1F20805206829460BF0D4FE206029460BF0C0FE2060012030BD00B540F6A001BB
S3251004A540C0F6010191F8320081F83300462081F8320004F0F5F904F046FA00BD0020704707
S3251004A5607047704730B540F62002C0F601020020118941F2AC14C0F60104052901D3927DE4
S3251004A58072B941F67045C1F20805206829460BF0A1FE206029460BF08DFE2060012030BD36
S3251004A5A02D2928BF30BD41F68845C1F20805206829460BF08FFE206029460BF07BFE206031
S3251004A5C0012030BD10B541F2AC14C0F60104207901280DD028BF10BD41F64041C1F2080119
S3251004A5E0216008460BF066FE20600120207110BD2068BDE810400BF083BE000030B543F241
S3251004A6008015C0F6010541F2BC14C0F6010442F2107370B928460122062105F016FC40F63C
S3251004A620A001C0F6010120600A7F60B34A7701202BE001280ED105F108000122062105F059
S3251004A64004FC40F6A001C0F6010120600A7F0028ECD118E0022808D040F6A001C0F60101DA
S3251004A66020680A7F0028E1D10DE005F110000122062105F0EAFB40F6A001C0F601012060AF
S3251004A6800A7F0028D2D120604877087730BDF0B50E461F4641F2BC15C0F6010542F21073CC
S3251004A6A01146012205F0D1FB286040F6A004C0F6010460B9207F607742F21073002020772B
S3251004A6C039463046012205F058FC286030B10120217F2077617700203080F0BD217F617771
S3251004A6E02077F0BD00B581B041F6B841C1F208010A788DF801204A780DF101008DF802209A
S3251004A700897842F210738DF803100122032105F09CFB41F2BC11C0F60101086000280CBFE9
S3251004A7200120002001B000BD70B581B041F2B414C0F601042178012906D160884FF6FF720C
S3251004A74090423CBF0130608040F6A005C0F6010595F82800002610280FD12079E0B9012024
S3251004A760FFF74CFF6671A67126700120207195F82800668020280FD148E0202819D1607952
S3251004A780002844D1FFF73AFF26710121617195F82800A671202839D06088C82843D395F810
S3251004A7A0200042283DD13046FFF728FF2670668039E0402804BFA0790028EDD1012241F23F
S3251004A7C0C410C0F6010041F6B841C1F2080142720B788DF801304B788DF8023089780DF182
S3251004A7E001008DF8031042F21073032105F02DFBA0600220FFF702FF267166710121A171F3
S3251004A800267095F8280066802028C5D121780029C2D195F820004228BED10120207066807D
S3251004A82001E02670668001B070BDF0B543F26814C0F60104FFF778FF40F6A006C0F60106AC
S3251004A84096F828000127402818D1214604F115003B460222FFF71BFF207810F003000328C3
S3251004A86041F2C411C0F601010CBF01200020087741F2C010C0F601000770F0BD41F2C41589
S3251004A880C0F6010528780146072800F29B800FF20802D2E801F000BF970516243342649A01
S3251004A8A021463B46601D0222FFF7F1FE2078422800F28A8068722878AF70082828BFF0BDB5
S3251004A8C086E021463B46E01D0222FFF7E0FE2078A8722878EF70082828BFF0BD78E02146E7
S3251004A8E004F109003B460222FFF7D1FE2078E8722878EF70082828BFF0BD69E0214604F17C
S3251004A9000B003B460222FFF7C2FE2078287328786F71082828BFF0BD5AE0214604F10D009D
S3251004A9203B460222FFF7B3FE04F10F003B46611C0222FFF7ACFE2088A88296F82A10AF7131
S3251004A940012905D128832878082828BFF0BD3FE0002028832878082828BFF0BD38E0214601
S3251004A96004F111003B460222FFF791FE04F113003B46611C0222FFF78AFE208841F2941165
S3251004A980884210D3217903290DD80131217196F82A00EF7101280ED0002068832878082887
S3251004A9A028BFF0BD14E000212171E88296F82A00EF710128F0D1E88A68832878082828BFC2
S3251004A9C0F0BD05E02F70F0BD2878082828BFF0BD01302870F0BD41F20C21C0F6010108780D
S3251004A9E0013805D341F20C21C0F601010870704743F2E311C0F60101087800283FF415AF65
S3251004AA00704741F2C410C0F601000021C0F8011041F2C013C0F60103C0F8051019704172F4
S3251004AA208222C28101734FF448728282C0F8161041830177704741F2C411C0F6010188780F
S3251004AA40002818BF487A704741F2C411C0F60101C878002818BF887A704741F2C411C0F6EE
S3251004AA600101C878002818BFC87A704741F2C011C0F601010878002808BF704741F2C41198
S3251004AA80C0F60101087F704741F2C411C0F601014879002818BF087B704741F2C411C0F62E
S3251004AAA001018879002818BF888A704741F2C411C0F60101C879002818BFC88A704741F275
S3251004AAC0C410C0F60100817949B140F6A002C0F6010292F82A10012904BF008B7047002039
S3251004AAE0704741F2C410C0F60100C17949B140F6A002C0F6010292F82A10012904BF408B86
S3251004AB0070470020704741F2C410C0F60100017A002914BFC089822070475D22412101389C
S3251004AB20C0B2032869D220B943F2C010C0F60100028800210E2341F6BC40C1F20800B0F81C
S3251004AB4000C0624504D308001CBF0139C8B27047B0F802C0624505D301310EBF08460139DF
S3251004AB60C8B27047B0F804C0624505D302310EBF08460139C8B27047B0F806C0624505D3F9
S3251004AB8003310EBF08460139C8B27047B0F808C0624505D304310EBF08460139C8B2704737
S3251004ABA0B0F80AC0624505D305310EBF08460139C8B27047B0F80CC0624505D306310EBFD7
S3251004ABC008460139C8B27047B0F80EC0624505D307310EBF08460139C8B27047B0F810C077
S3251004ABE0624505D308310EBF08460139C8B2704712300931013BA2D17D210846704741F2FC
S3251004AC00E411C0F601010878704741F2E411C0F6010101200870704730B541F2E415C0F63F
S3251004AC2001052878002818BF30BD6978002979D1FFF70DFB55283BD0FFF727FBFFF731FB54
S3251004AC40FFF73DFBFFF747FBFFF762FB55210020FFF7D0FA02210120FFF7D5FA0221084651
S3251004AC60FFF7D1FA02210320FFF7CDFA40F6A003C0F6010340F604119879C0F60101D87106
S3251004AC808A7B0220987183F8460083F8470083F8480083F8490083F84A0083F84B008873DA
S3251004ACA0012068702878CA73002818BF30BD3CE040F6A004C0F60104A079E0710320FFF784
S3251004ACC0CCFAA07194F8460084F847000120FFF7C4FA84F8460084F8470094F8480084F844
S3251004ACE049000220FFF7B9FA84F8480084F8490094F84A0084F84B000320FFF7AEFA84F8C3
S3251004AD004A0040F60411C0F6010184F84B00887BC873A0798873012068702878002818BF1B
S3251004AD2030BD02E0012918BF30BD41F2F611C0F6010148783C2805D341F20621C0F601013C
S3251004AD400878012818BF5FF0000030BD00B504F001FA40F6A000C0F601000179417101219E
S3251004AD60017190F8522080F8521090F8561080F85710002180F8532090F8582080F85610BC
S3251004AD8080F8592080F8581000BD41F2E811C0F601011F200860704741F2E811C0F60101E5
S3251004ADA008787047704700B581B00DF1020001210BF052FCBDF8020001B000BD00B581B02F
S3251004ADC00DF1020001210BF042FCBDF8020001B000BD00B581B00DF103000BF055FC9DF811
S3251004ADE0030001B000BD00B581B00DF103000BF044FC9DF8030001B000BD00B581B00DF1BC
S3251004AE0003000BF033FC9DF8030001B000BD00B581B00DF1030001210BF023FC9DF803002A
S3251004AE2001B000BD10B541F2F814C0F60104A079012804D1E079FF283CBF0130E071FFF7C1
S3251004AE40DEFE0122618818B9A079218148BB54E040F2EF40814203D2A079227108BB4CE099
S3251004AE60B1F5A46F04D802202071A079C8B944E0B1F5D06F04D203202071A07988B93CE0CD
S3251004AE8040F2B260814204D204202071A07940B933E040F64D4081420CD205202071A079AE
S3251004AEA058B32079E37A98422AD0E072A2710020E07110BD40F67F40814205D206202071BA
S3251004AEC0A0790028EDD118E040F6C850814205D207202071A0790028E3D10EE040F6FA505E
S3251004AEE0814205D208202071A0790028D9D104E009202071A0790028D3D1A271E07110BD46
S3251004AF00E079032828BF218110BD10B443F2A014C0F6010441F20022C0F60102108840F2FD
S3251004AF20EF41884211D20120E072A07240F22150A08040F2B260E0800020A08140F67F40F8
S3251004AF40208140F6FA506080C8E0B0F5A46F14D8A07A01280CBF40F221500846A08040F239
S3251004AF60B260E0800120E0720020A08140F67F40208140F6FA506080B0E0B0F5D06F0FD246
S3251004AF800120E07240F2B260E0800020A072A08140F67F402081A18040F6FA5060809DE099
S3251004AFA040F2B261884220D2E07A01280DD10020A072A08140F2EF40A08040F67F402081AB
S3251004AFC0E18040F6FA50608088E04FF4D060E0800020A072A08140F2EF40A08040F67F4092
S3251004AFE0208140F6FA50608078E040F64D4188420FD20020C4F80A0040F2EF40A0804FF4C5
S3251004B000D060E08040F67F40208140F6FA50608064E040F67F41884220D2607B01280FD1B6
S3251004B02040F64D40208100206081207340F2EF40A0804FF4D060E08040F6FA5060804DE01D
S3251004B04000206081207340F2EF40A0804FF4D060E080218140F6FA5060803FE040F6C8517E
S3251004B060884211D20120607340F64D40208100206081207340F2EF40A0804FF4D060E080C9
S3251004B08040F6FA50608029E040F6FA51884214D2207B01280CBF40F6C8500846608040F6BB
S3251004B0A04D402081012060730020608140F2EF40A0804FF4D060E08010E040F64D402081AB
S3251004B0C00120607320730020608140F6C85140F2EF40A08061804FF4D060E08010BC7047C7
S3251004B0E030B4014643F2A014C0F6010441F20025C0F601050120013909D30DD0022910D331
S3251004B10014D12888618888420FD300200EE02888A1888842F9D208E02888E1888842F4D2DE
S3251004B12003E0288821898842EFD2012030BC704730B4014643F2A014C0F6010441F2002542
S3251004B140C0F601050120013909D30DD0022910D314D12888618888420FD200200EE0288810
S3251004B160A1888842F9D308E02888E1888842F4D303E0288821898842EFD3012030BC7047D7
S3251004B18030B50220FFF7ACFF054640F6A004C0F6010401281DD1FFF7CBFF012819D194F897
S3251004B1A03A3084F83B3094F83C30002184F83A1084F83D3094F83E2084F83C1084F83F20CF
S3251004B1C084F83E100320FFF78BFF054601281AD14DE075BB012294F83A3084F83A2084F8C1
S3251004B1E03B3094F83C3084F83C2094F83E2084F83D3084F83F2084F83E500320FFF770FFBA
S3251004B2000546012833D0002D4AD1012294F8403084F8402084F8413094F8423084F8422091
S3251004B22094F8442084F8433084F8452084F8445030BD0120FFF77CFF020012D1012194F812
S3251004B2403A3084F83A1084F83B3094F83C3084F83C2094F83E2084F83D3084F83F2084F8C3
S3251004B2603E100320FFF73CFF05460128CBD10020FFF75EFF0128C6D194F8403084F84130E6
S3251004B28094F84230002184F8401084F8433094F8442084F8421084F8452084F8441030BD5E
S3251004B2A00020FFF745FF020018BF30BD012194F8403084F8401084F8413094F8423084F803
S3251004B2C0422094F8442084F8433084F8452084F8441030BD70B441F2F014C0F60104A07946
S3251004B2E0002301280DD1E079FF280ED20130E071C0B23C2809D2607A6188002840F0B78025
S3251004B3007AE050B3E0793C28F5D3607A012871D140F6A000C0F6010090F8541021B980F821
S3251004B3205510012180F85410227904F12C004FEA420C61882CF800100132D2B2642A28BF04
S3251004B3401A462271A28A914229D1227A0132D2B21E2A09D222720A2223E00120A071E37128
S3251004B36063722371618882E023720A25024622F8141B22F8121C22F8101C22F80E1C22F8BE
S3251004B3800C1C22F80A1C22F8081C22F8061C22F8041C22F8021C013DE9D10A2201E02372A5
S3251004B3A00A2230F814CB634430F8126C30F810CC9B19634430F80E6C30F80CCC9B19634497
S3251004B3C030F80A6C30F808CC9B19634430F8066C30F804CC9B1930F8026C63449B19013AEC
S3251004B3E0DFD148F21F52C5F2EB12A3FB0220400960813CE06188D0BB22794FEA420C04F193
S3251004B4002C002CF800100132D2B2642A38BF22712DD30122627223710A2230F814CB63447E
S3251004B42030F8126C30F810CC9B19634430F80E6C30F80CCC9B19634430F80A6C30F808CC56
S3251004B4409B19634430F8066C30F804CC9B1930F8026C63449B19013ADFD148F21F52C5F2F3
S3251004B460EB12A3FB0220400960810120A075A18270BC70472DE9F04843F29C14C0F60104A1
S3251004B48041F21025C0F60105A078002101280CD105F1D40CA388A4F80110A5F8D4308E460C
S3251004B4A010F0070200F0B480ABE06078012876D12078A388420005F1D40C22F80C30013010
S3251004B4C0C0B21E2828BF084620700322604630F8143BC91830F8124C30F8103C0919C918B5
S3251004B4E030F80E4C30F80C3C0919C91830F80A4C30F8083C0919C91830F8064C30F8043C6E
S3251004B500091930F8024CC9180919013ADFD13CF8022B134660460446072734F808CB9C45D3
S3251004B52038BF634634F806CC9C4538BF634634F804CC9C4538BF634634F802CC9C4538BF83
S3251004B5406346013FE9D1B4F800C09C4538BF6346072630F808CB944588BF624630F806CC57
S3251004B560944588BF624630F804CC944588BF624630F802CC944588BF6246013EE9D10088EA
S3251004B580904288BF0246C91A891A880844F62511C2F29241A0FB01106880BDE8F08800284A
S3251004B5A018BFBDE8F08805F1D40C2078A38842008E4622F80C300130C0B283465FEADB03E5
S3251004B5C01CD062464FEAC30E32F8107BC91932F80E6C32F80C7C8919C91932F80A6C32F878
S3251004B5E0087C8919C91932F8066C32F8047C891932F8026CC9198919013BE5D11BF007021F
S3251004B60006D00CEB4E0333F802CB6144013AFAD1B1FBF0F1A9801E283CBF2070BDE8F088AB
S3251004B620012060702270BDE8F08810B441F21024C0F6010443F29D11C0F601010878002827
S3251004B64014BF6088A08810BC704730B441F2F014C0F601042078012804D16178FF293CBF02
S3251004B660013161706288002140F2EF43D31A40F60C1C63450CD340F6A002C0F6010292F851
S3251004B680340082F83500022082F83400218024E040F22153D21A40F6A8039A421DD240F6C4
S3251004B6A0A002C0F6010292F834300125022B08BF002802D1257061700FE0012808D16078E3
S3251004B6C012280AD982F8353082F83450218004E018B982F8353082F8345030BC704710B5BB
S3251004B6E081B041F2F014C0F601040DF1020001210AF0B2FFBDF802006080FFF7EBFDA07DAE
S3251004B700012805D1FFF78EFBFFF7FFFBFFF738FD01B010BD00B581B00DF1020001210AF0F6
S3251004B72096FFBDF8020043F2A011C0F601010880FFF7A0FE01B000BD10B441F20024C0F6AA
S3251004B7400104A078013805D30DD0012818D00020A07022E02088B0F5C86F15D340F6A441FA
S3251004B76088421AD904E0208840F6A441884202D90220A07011E040F2AE6188420DD30AE0AE
S3251004B7802088B0F5C86F02D20120A07005E040F63641884201D80020A07010BC704741F2EB
S3251004B7A01021C0F601010870704741F21021C0F601010878704741F21621C0F60101322090
S3251004B7C008707047F0B443F2AC14C0F6010400231D46207C211D012820D0E0784200678AC8
S3251004B7E05752013094F802C0C0B2BCF1010F23D1052828BF1846E07008890A8880184A8895
S3251004B80010188A88C98810180B184CF6CD40CCF6CC40A3FB0001890888B222E02374E078C0
S3251004B820B4F812C04200A37022F801C01E460130C0B2834209D202E01E46834205D231F88E
S3251004B840022B9B1801368642F9D3B3FBF0F189B2052802D2E070084603E00120A070E57051
S3251004B8600846F0BC704710B581B043F2BC14C0F601040DF1030001210AF0F3FE9DF80300A1
S3251004B8806080FFF79FFFA08001B010BD10B581B043F2BC14C0F601040DF1030001210AF0A9
S3251004B8A0E0FE9DF803006080FFF78CFFA0800438B0F5347F41F21724C0F601048CBF01204E
S3251004B8C00020207001B010BD2DE9F04C81B041F20025C0F601050DF1020001210AF0B7FEB8
S3251004B8E0AC7ABDF802B0012C04D1E87AFF283CBF0130E87295F808A0BAF1010F04D1687AE9
S3251004B900FF283CBF01306872FFF79FFE40F6A000C0F6010001270026BAF1000F0BD1BBF52C
S3251004B9204D7F08D82F726E81044628886E72B0F5967F41D335E064B940F296518B4508D313
S3251004B940AF722E8104462888EE72B0F5967F33D327E0BAF1010F0ED1697A08290BD3044606
S3251004B96090F8380084F83900288884F83860B0F5967F21D315E0012C02D1E97A0A2905D264
S3251004B98004462888B0F5967F16D30AE0044690F8380084F83900288884F83870B0F5967FB9
S3251004B9A00AD368460AF069FE9DF8000020B93846FDF7B6FC14202873617B207B012905D0AA
S3251004B9C0012803D16073FFF71CF8207B94F85C1084F85D1084F85C70012804BF287B0028F8
S3251004B9E040F0E78094F8200043F2BC1A84F82100C0F6010AFFF71FF884F8200094F822002A
S3251004BA0084F82300FFF720F884F8220094F8240084F82500FFF721F884F82400FFF746F88D
S3251004BA20AAF80800FFF739F8AAF8060094F820000B2840D194F8221011291DD10320A17F5A
S3251004BA40A077E1770DF1010039460AF00AFE9DF80100AAF80200FFF7B5FEAAF80400043818
S3251004BA60B0F5347F8CBF01200020E87594F82800402840F085807BE013291CD10420A17F52
S3251004BA80A077E1770DF1010039460AF0EAFD9DF80100AAF80200FFF795FEAAF80400043819
S3251004BAA0B0F5347F8CBF01200020E87594F82800402865D15CE094F8241010291CD1052092
S3251004BAC0A17FA077E1770DF1010039460AF0C9FD9DF80100AAF80200FFF774FEAAF8040037
S3251004BAE00438B0F5347F8CBF01200020E87594F82800402844D13BE001281CD10220A17F0B
S3251004BB00A077E1770DF1010039460AF0AAFD9DF80100AAF80200FFF755FEAAF80400043818
S3251004BB20B0F5347F8CBF01200020E87594F82800402825D11CE0422802D1A17FE177A677CA
S3251004BB400DF1010039460AF08CFD9DF80100AAF80200FFF737FEAAF804000438B0F5347F2B
S3251004BB608CBF01200020E87594F82800402807D194F8260084F82700FEF778FF84F826006B
S3251004BB8094F82A00012810D1207841F22031C0F601016070C878207001281CBFA078012812
S3251004BBA003D1A07EE076A77606E0A07EE076A67602E0A07FE077A67701B0BDE8F08C10B485
S3251004BBC041F22032C0F6010202EBC00002790024914208BFA0F8054024D082790132D2B2A4
S3251004BBE069B990F802C062450DD3847101224271027804718AB90122C270C17112E090F83A
S3251004BC0001C0624503D282714471C1710AE08471012242710278017112B9C470C17101E040
S3251004BC20C170C17110BC70474AF6D351C1F20401C9B20020FFF7C3BF70B581B041F20C251B
S3251004BC40C0F6010540F6A004C0F6010494F82A000026012819D10DF103000AF007FD9DF8F6
S3251004BC600310687881420AD16888013080B264280FD3A078E0700120A070304609E0A07848
S3251004BC80E0706970A670304603E0A078E0703046A670688001B070BD00B581B00DF1030051
S3251004BCA00AF0F2FC9DF8030001B000BD41F6B852C1F20802136841F22031C0F6010150680F
S3251004BCC00B60936848608B60D26843F2C010CA60C0F601000021817141F21722C0F60102F9
S3251004BCE0C0F8021011705D2202808222028140F6A000C0F60100A0F84C10C0F80A10C0F8AC
S3251004BD000E10C0F81210C0F81610C0F81A10C183C0F82210C0F82610C185012202724272A4
S3251004BD20C0F82A10252280F8302080F83120C0F85A1081860187704741F6B852C1F20802B9
S3251004BD40136841F22030C0F6010051680360936841608360D26843F2C011C260C0F601015F
S3251004BD600020887141F21722C0F60102C1F8020010705D220A8082220A8140F6A001C0F66B
S3251004BD800101A1F84C00C1F80A00C1F80E00C1F81200C1F81600A1F85C00C1F81A00C8836B
S3251004BDA0C1F82200C1F8260048850887704740F6A000C0F6010090F85A1040F62002C0F60F
S3251004BDC0010280F85B101179012918BF002180F85A10704710B540F6A004C0F6010494F838
S3251004BDE02C0094F82D20012859D194F85A10012928D1012A13D0C82002F0A2FD01460120C9
S3251004BE0002F09FFD94F82C0084F82D0040F60410C0F601008178C1700121817010BD94F882
S3251004BE205B00012832D0C82002F08AFD012102F0B2FD40F60410C0F601008178C1700121F1
S3251004BE40817010BD94F83000012A12D002F078FD0146012002F075FD94F82C0084F82D00AD
S3251004BE6040F60410C0F601008178C1700121817010BD94F83120824203D194F85B202AB146
S3251004BE8021B902F05DFD012102F085FD40F60410C0F601008178C1700121817010BD002A97
S3251004BEA008BF10BD002818BF10BD012002F064FD40F60410C0F601008178C1700021817057
S3251004BEC094F82C0084F82D0010BD10B540F6A004C0F6010494F82E0094F82F20012859D1D8
S3251004BEE094F85A10012928D1012A13D0C82002F027FD0146002002F024FD94F82E0084F853
S3251004BF002F0040F60410C0F60100017841700121017010BD94F85B00012832D0C82002F061
S3251004BF200FFD002102F037FD40F60410C0F60100017841700121017010BD94F83000012A22
S3251004BF4012D002F0FDFC0146002002F0FAFC94F82E0084F82F0040F60410C0F601000178CC
S3251004BF6041700121017010BD94F83120824203D194F85B202AB121B902F0E2FC002102F082
S3251004BF800AFD40F60410C0F60100017841700121017010BD002A08BF10BD002818BF10BD6B
S3251004BFA002F0EAFC40F60410C0F60100017841700021017094F82E0084F82F0010BD10B5DB
S3251004BFC040F6A004C0F6010494F82C0094F82D10012855D194F85A0038BB012913D0782064
S3251004BFE002F0AEFC0146012002F0ABFC94F82C0084F82D0040F60410C0F601008178C170FE
S3251004C0000121817010BD94F85B0080B3782002F097FC012102F0BFFC40F60410C0F601001F
S3251004C0208178C1700121817010BD012913D0C82002F086FC0146012002F083FC94F82C00E2
S3251004C04084F82D0040F60410C0F601008178C1700121817010BD94F85B10012907D00128F1
S3251004C06005D1C82002F06CFC012102F094FC40F60410C0F601008178C1700121817010BDDF
S3251004C080002908BF10BD002818BF10BD012002F073FC40F60410C0F601008178C17000212F
S3251004C0A0817094F82C0084F82D0010BD10B540F6A004C0F6010494F82E0094F82F1001283F
S3251004C0C055D194F85A0038BB012913D0782002F037FC0146002002F034FC94F82E0084F8BE
S3251004C0E02F0040F60410C0F60100017841700121017010BD94F85B0080B3782002F020FCAC
S3251004C100002102F048FC40F60410C0F60100017841700121017010BD012913D0C82002F03C
S3251004C1200FFC0146002002F00CFC94F82E0084F82F0040F60410C0F60100017841700121C7
S3251004C140017010BD94F85B10012907D0012805D1C82002F0F5FB002102F01DFC40F6041050
S3251004C160C0F60100017841700121017010BD002908BF10BD002818BF10BD02F0FDFB40F6BB
S3251004C1800410C0F60100017841700021017094F82E0084F82F0010BD00B540F6A000C0F68B
S3251004C1A0010090F85A1040F62002C0F6010280F85B101179012918BF002180F85A10FFF7FA
S3251004C1C009FEFFF782FE00BD41F23433C0F6010340F60411C0F60101087C487400200874D8
S3251004C1E040F6A001C0F601010A7B4A7391F82C20087381F82D2091F82E2081F82C0081F849
S3251004C2002F2081F82E00588091F82A2081F82B2091F85E2081F82A0081F85F2091F828202C
S3251004C22081F85E0081F8292081F8280098601871D8801873A3F80D00188070470020704778
S3251004C2407047704730B541F2303440F6A002C0F60102C0F60104917A206801290BD041F6BF
S3251004C260E055C1F2080529460AF034F8206029460AF020F80AE041F6F855C1F2080529467C
S3251004C2800AF028F8206029460AF014F82060012030BD41F23433C0F6010340F60410C0F693
S3251004C2A00100017C41740021017440F6A000C0F6010090F85E2080F85F2090F82C2080F8C5
S3251004C2C05E1080F82D2090F82E2080F82C1080F82F2080F82E101960704710B441F230347F
S3251004C2E0C0F6010440F6A002C0F60102917A022905D141F62860C1F20800206006E00020CC
S3251004C30021B941F61060C1F20800206010BC7047704741F23831C0F6010100204860087079
S3251004C32048800872A1F80900704740F6A002C0F60102917A012915D130B541F6F85541F200
S3251004C3403034C0F60104C1F208052068294609F0C1FF2060294609F0ADFF20600120BDE85A
S3251004C360304070470020704740F6A000C0F60100017B417301210173704741F6406041F291
S3251004C3803031C0F60101C1F20800086070477047704740F6A002C0F60102917A012915D077
S3251004C3A030B541F6E05541F23034C0F60104C1F208052068294609F08DFF2060294609F09C
S3251004C3C079FF20600120BDE83040704700207047704710B441F23034C0F6010440F6A000E4
S3251004C3E0C0F6010090F8391011B190F8381011B1007B012804D141F67060C1F2080003E029
S3251004C40041F68860C1F20800206010BC70477047704740F6A002C0F60102917A022915D10A
S3251004C42030B541F6286541F23034C0F60104C1F208052068294609F04DFF2060294609F003
S3251004C44039FF20600120BDE8304070470020704741F23833C0F6010340F6A001C0F601015F
S3251004C460087B487391F82820002081F829200873102281F828205860187058801872A3F806
S3251004C48009007047002070477047704740F6A002C0F60102917AA9B930B541F6886541F243
S3251004C4A03034C0F60104C1F208052068294609F011FF2060294609F0FDFE20600120BDE85A
S3251004C4C0304070470020704740F6A000C0F6010090F85E1080F85F10002180F85E1090F84B
S3251004C4E02C2080F82C1090F8281080F8291080F82D20102180F82810704710B441F23034F9
S3251004C500C0F6010440F6A001C0F60101087C012807BF41F6A060C1F2080041F6B860C1F250
S3251004C5200800206010BC70477047704730B540F6A001C0F6010100208A7F41F23034C0F67E
S3251004C5400104042A21D18A7B002A01BF0A7D002A0A7C002A06BF897C002930BD41F2022215
S3251004C560C0F601021178002918BF30BD41F61875C1F208052068294609F0ACFE2060294665
S3251004C58009F098FE2060012030BD032A01BF8A7B002A0A7D002A01BF0A7C002A897C0029F9
S3251004C5A018BF30BD41F20222C0F601021178002918BF30BD41F60075C1F2080520682946B4
S3251004C5C009F088FE2060294609F074FE2060012030BD40F6A000C0F6010090F8281080F815
S3251004C5E02910202180F82810704741F6D06041F23031C0F60101C1F20800086070477047FC
S3251004C60040F6A000C0F60100817FC177002190F82A20817780F82B2090F85E2080F82A10D5
S3251004C62080F85F2080F85E10704740F6A001C0F601018A7B0020012A1FBF0A7D012A8A7CD7
S3251004C640012A1CBF097C012907D041F20222C0F601021178002908BF704730B541F6406533
S3251004C66041F23034C0F60104C1F208052068294609F030FE2060294609F01CFE20600120CD
S3251004C680BDE83040704710B441F23834C0F6010440F6A000C0F601008179012915D041F2CD
S3251004C6A00222C0F60102117879B92279012A02D161795A2909D2A179E37901291ED1642BD9
S3251004C6C024BF90F82610002918D140F60411C0F601010A7C4A7400220A74017B417390F8EE
S3251004C6E0281080F829100273102180F828106260227062802272A4F8092090E0A17A01299D
S3251004C70044D190F827C0BCF1000F3FD090F826C0BCF1000F3AD1217184F805C0A3F10A0208
S3251004C7205B2A3ED3628841F270739A4228BF012904BF90F82620012A53D140F62001C0F66F
S3251004C740010191F82A20012A1FBF91F82620012A91F83020012A1CBF91F82E10012931D115
S3251004C76040F60411C0F601010A7C4A7400220A74017B417390F82810027380F82910A2728E
S3251004C780102180F828102270628048E0012A01BF90F82620012A0022A280A3F10A025B2AB5
S3251004C7A0C0D290F82620012ABCD140F60411C0F60101087C0A744874A2720021E18022705E
S3251004C7C061802CE040F60411C0F60101087C48740420087400202070608001212172607258
S3251004C7E01DE0627A322A28BF012904BF90F82610012914D140F60411C0F601010A7C4A7402
S3251004C80000220A74017B417390F82810227280F829100273102180F82810A4F8092010BC42
S3251004C820704741F23C32C0F601020020D0709071012140F6A000C0F60100917090F82810FC
S3251004C84080F82910402180F82810FFF71CBF00207047FFF718BF40F60410C0F60100017C09
S3251004C860417400210174704700207047704700207047704770470020704710B441F2343493
S3251004C880C0F60104A278022A43D0617840F6A000C0F60100322924BFE3780A2B0AD390F8D1
S3251004C8A02E1080F82F10002180F82E100220A07021802EE023786BB990F82E1080F82F1075
S3251004C8C0012180F82E10E078A1700130E070217063701EE07AB932291BD390F82E1080F860
S3251004C8E02F100121A170217080F82E10E07862700130E0700DE0012A0BD1322909D390F807
S3251004C9002E1080F82F10002180F82E102270A4F8011010BC704741F23432C0F6010240F6E7
S3251004C9200410C0F60100017C41740521017400205080FFF7A2BF00207047FFF79EBF41F2A1
S3251004C9403431C0F6010100200860704740F6A002C0F60102117CA9B930B541F6B86541F275
S3251004C9603034C0F60104C1F208052068294609F0B1FC2060294609F09DFC20600120BDE85A
S3251004C980304070470020704740F60410C0F60100017C41740021017440F6A000C0F6010029
S3251004C9A090F82E2080F82F2080F82E107047002070477047704730B540F6A001C0F601019A
S3251004C9C041F230340A7CC0F60104012A0ED141F6A065C1F208052068294609F07BFC206078
S3251004C9E0294609F067FC2060012030BD8A7B0020002A18BF30BD0A7D002A18BF30BD897C37
S3251004CA00002918BF30BD41F20222C0F601021178002918BF30BD41F65865C1F2080520684D
S3251004CA20294609F057FC2060294609F043FC2060012030BD40F60410C0F60100017C417439
S3251004CA400021017440F6A000C0F6010090F82C2080F82D2090F82E2080F82C1080F82F20AF
S3251004CA6090F85E2080F82E1080F85F2090F82A2080F85E1080F82B2080F82A1070470020E5
S3251004CA8070477047704730B540F6A002C0F60102917F41F23034C0F6010405290ED141F63B
S3251004CAA0E865C1F208052068294609F013FC2060294609F0FFFB2060012030BD03290ED1D5
S3251004CAC041F60075C1F208052068294609F002FC2060294609F0EEFB2060012030BD002063
S3251004CAE0042918BF30BD41F61875C1F208052068294609F0EFFB2060294609F0DBFB20608F
S3251004CB00012030BD41F23433C0F6010340F60410C0F60100017C41740521017440F6A000F5
S3251004CB20C0F6010090F82C1080F82D10002190F85E2080F82C1080F85F2090F82A2080F88F
S3251004CB405E1080F82B2080F82A105980FFF795BE00207047FFF791BE41F23431C0F601014A
S3251004CB6000200860704730B540F6A002C0F60102917F41F23034C0F60104022918BF002959
S3251004CB800ED141F6D065C1F208052068294609F0A1FB2060294609F08DFB2060012030BDE6
S3251004CBA0002003290ED141F60075C1F208052068294609F08FFB2060294609F07BFB20606C
S3251004CBC0012030BD042918BF30BD41F61875C1F208052068294609F07DFB2060294609F068
S3251004CBE069FB2060012030BD40F60410C0F60100017C41740221017440F6A000C0F60100D1
S3251004CC0090F82C1080F82D10002180F82C1090F82E1080F82F10012190F85E2080F82E1051
S3251004CC2080F85F2090F82A2080F85E1080F82B2080F82A107047002070477047704730B5D5
S3251004CC4040F6A002C0F60102917F41F23034C0F60104022918BF00290ED141F6D065C1F29E
S3251004CC6008052068294609F035FB2060294609F021FB2060012030BD002005290ED141F677
S3251004CC80E865C1F208052068294609F023FB2060294609F00FFB2060012030BD042918BFDB
S3251004CCA030BD41F61875C1F208052068294609F011FB2060294609F0FDFA2060012030BD80
S3251004CCC040F60410C0F60100017C41740321017440F6A000C0F6010090F82C1090F82E2047
S3251004CCE080F82D1080F82F200121002280F82E2090F85E2080F82C1080F85F2090F82A2011
S3251004CD0080F85E1080F82B2080F82A107047002070477047704730B540F6A002C0F601022C
S3251004CD20917F41F23034C0F60104022918BF00290ED141F6D065C1F208052068294609F051
S3251004CD40C9FA2060294609F0B5FA2060012030BD002005290ED141F6E865C1F208052068D8
S3251004CD60294609F0B7FA2060294609F0A3FA2060012030BD032918BF30BD41F60075C1F21E
S3251004CD8008052068294609F0A5FA2060294609F091FA2060012030BD10B541F23034C0F6CA
S3251004CDA00104207B012804D1607BFF283CBF01306073A07B012804D1E07BFF283CBF0130F3
S3251004CDC0E073207A012806D160894FF6FF7188423CBF01306081207C012804D1607CFF283A
S3251004CDE03CBF013060742079012804D16079FF283CBF01306071207D012806D1E08A4FF639
S3251004CE00FF7188423CBF0130E082207E01280DD028BF10BD41F6C851C1F2080121600846FD
S3251004CE2009F048FA20600120207610BD2068BDE8104009F065BA10B541F24934C0F60104D4
S3251004CE40A078012804D1E078FF283CBF0130E070A079012804D1E079FF283CBF0130E07193
S3251004CE60207A012804D1607AFF283CBF013060722079013808D326D0012800F0BE80E078AF
S3251004CE800C2838BF10BD6CE140F6A000C0F60100C27A817A012A02D0012901D01AB111B9E2
S3251004CEA0C1724EF05BF84EF069F84EF051F804F01FFF08B9012020714EF050F8E0780C28D7
S3251004CEC038BF10BD4DE140F6A000C0F60100817AC27A02296AD1022A1AD0C17240F620007D
S3251004CEE0C0F6010090F83E1080F83F1090F8401080F841104EF02CF8012060714EF028F871
S3251004CF0005F045FC06F0BCFA002840F0268163E040F62000C0F6010090F83F2090F83E1009
S3251004CF20012A03D0012903D0032A1DD003291BD190F8402080F83F1080F841204EF008F8E4
S3251004CF4041F25C31C0F601010120087000204880012060714DF0FCFF05F019FC06F090FA0A
S3251004CF60002840F0FA8037E090F84120012A26D090F84020012A22D180F83F1080F84120FE
S3251004CF804DF0E6FF41F25C31C0F601010120087000204880012060714DF0DAFF05F0F7FB6D
S3251004CFA006F06EFA002840F0D88015E0012A02D0012901D01AB111B9C1724DF0CFFF6079B0
S3251004CFC0002800F0CA804DF0C3FF05F0E0FB06F057FA002840F0C180607102202071002082
S3251004CFE004F06DFE41F25860C0F6010004F0E9FDE0780C2838BF10BDB3E005F08EF840F6A8
S3251004D000A000C0F60100C27A817A012A02D0012901D052B149B9C17201202070002004F073
S3251004D0204EFE002840F0898060E040F62000C0F6010090F83F2090F83E10012A03D00129F7
S3251004D04003D0032A23D0032921D190F8402041F25C3CC0F6010C01238CF800300023ACF890
S3251004D060023080F83F1080F8412002202070184604F025FE41F25860C0F6010004F0A1FD69
S3251004D08000202070E0780C2838BF10BD69E090F84120012A22D090F84020012A1ED141F2F2
S3251004D0A05C3CC0F6010C8CF800200023ACF8023080F83F1080F8412002202070184604F0BA
S3251004D0C0FEFD41F25860C0F6010004F07AFD00202070E0780C2838BF10BD42E0207898B329
S3251004D0E0012812D1002004F0EAFD30BB41F20071C0F6010181F816030120207100202070D4
S3251004D100E0780C2838BF10BD2BE002280FD1002004F0D5FD41F25860C0F6010004F051FDC6
S3251004D12000202070E0780C2838BF10BD19E0032803D14DF013FF0120207100202070E078D4
S3251004D1400C2838BF10BD0CE041F20071C0F601010878012804BF03202070E0780C2838BFD3
S3251004D16010BD002140F60410C0F601006180827EC276817610BD41F25833C0F6010340F61B
S3251004D180A000C0F60100817AC17200218172197190F84C20D98080F84D2080F84C101980B3
S3251004D1A07047002070477047704730B5002041F20222C0F6010241F254341178C0F6010445
S3251004D1C031BB40F62001C0F6010191F83F3091F83E20012B03D0012A0BD0032B01D0032A2A
S3251004D1E007D091F84120012A12D091F8401001290ED141F64875C1F208052068294609F0C1
S3251004D20069F82060294609F055F82060012030BD40F6A001C0F601010A793AB98A79022A9C
S3251004D22004BF91F8361001292DD030BD012A14D18A79022A18BF30BD91F83820012A04BF5C
S3251004D24091F85220012A1ED091F85420012A04BF91F85210002916D030BD022A01BF8A79DF
S3251004D260022A91F83810012918BF30BD40F62001C0F6010191F83E20012A1DBF032A91F8F6
S3251004D2804010012930BD41F66075C1F208052068294609F01FF82060294609F00BF82060CF
S3251004D2A0012030BD40F62000C0F6010090F83F10022903D090F83E20022A07D090F8412092
S3251004D2C0022A0CD090F84030022B08D141F25831C0F601010120087000204870704790F80A
S3251004D2E03E30012903D0012B0BD0032901D0032B07D0012A08BF704790F84000012818BF2F
S3251004D300704741F25831C0F6010100200880704740F6A000C0F60100817AC1720221817298
S3251004D32041F25C30C0F601000121017000214180FFF7B8BF00207047FFF7B4BF41F258317F
S3251004D340C0F6010100200871C8800880704730B541F25434C0F6010461790020322904D255
S3251004D360628941F270739A4219D340F6A002C0F601029379022B04BF92F83820012A0ED151
S3251004D38041F66075C1F208052068294608F0A2FF2060294608F08EFF2060012030BD41F2E2
S3251004D3A00223C0F601031A783AB9322905D2618941F27072914238BF30BD41F63075C1F278
S3251004D3C008052068294608F085FF2060294608F071FF2060012030BD40F6A000C0F6010041
S3251004D3E0817AC1720121817241F25830C0F60100002101807047002070477047704730B5DB
S3251004D400002041F20222C0F6010241F254341178C0F6010431BB40F62001C0F6010191F83F
S3251004D4203F2091F83E30012A03D0012B0BD0032A01D0032B07D091F84120012A12D091F8F4
S3251004D440401001290ED141F64875C1F208052068294608F03FFF2060294608F02BFF2060E7
S3251004D460012030BD40F6A001C0F601010A79012A12BF022A91F83820002A06D08A79012A3B
S3251004D4801EBF91F83810002930BD41F63075C1F208052068294608F01DFF2060294608F020
S3251004D4A009FF2060012030BD10B541F25434C0F60104207A012806D160894FF6FF7188427F
S3251004D4C03CBF013060812079012804D16079FF283CBF01306071207B01280DD028BF10BD3C
S3251004D4E041F63071C1F208012160084608F0E2FE20600120207310BD2068BDE8104008F061
S3251004D500FFBE43F2E311C0F601010878012818BF704740F6A000C0F6010090F82810A02906
S3251004D52015D010B580F82910A02180F82810002001F022FA012001F01FFA0124182001F05F
S3251004D540FFF901462046BDE8104001F0FAB941F28C31C0F6010108780130C0B214280ED18D
S3251004D56010B50870012001F007FA0024182001F0E7F901462046BDE8104001F0E2B9282896
S3251004D5801CBF0870704710B50020087001F0F4F90124182001F0D4F901462046BDE810406F
S3251004D5A001F0CFB930B541F26834C0F601042078012806D160884FF6FF7188423CBF01303E
S3251004D5C0608043F27C35C0F60105287930B941F2B1106978C0F60100405CE8B120790128A2
S3251004D5E052D028BF30BD60882989884298BF30BDE0880130E97880B2884207D241F2B111AF
S3251004D6006A78C0F60101895C012928D1002020706080A870E08030BDC82001F091F90146AF
S3251004D620002001F08EF940F60411C0F601010878487001200022E2802871207062800870D5
S3251004D640E98820718A4223D840F6A001C0F6010191F82E00012804BF0020207130BDE080B7
S3251004D660C82001F06DF90146002001F06AF940F60411C0F601010878487001200870207032
S3251004D68000216180207130BD6088E9888842DBD9002001F071F940F60411C0F6010108781B
S3251004D6A0487000200870012121706080207130BD30B541F27834C0F601042079012806D1D7
S3251004D6C0E0884FF6FF7188423CBF0130E08043F27C35C0F60105A87B30B941F2B110E97AB8
S3251004D6E0C0F60100405CE8B12078012853D028BF30BDE088698A884298BF30BD2089013029
S3251004D700697B80B2884207D241F2B111EA7AC0F60101895C012929D1002020712873C4F814
S3251004D720060030BDC82001F00BF90146012001F008F940F60411C0F601018878C870012049
S3251004D740887020710021A873C4F806102070E088298A884223D840F6A001C0F6010191F890
S3251004D7602C00012804BF0020207030BD2081C82001F0E6F80146012001F0E3F840F6041103
S3251004D780C0F601018878C8700120887020710021E180207030BDE088298A8842DBD901201C
S3251004D7A001F0EAF840F60411C0F601018878C8700020887001212171E080207030BD30B5B3
S3251004D7C041F26434C0F601042078012806D160884FF6FF7188423CBF0130608043F27C35B8
S3251004D7E0C0F6010595F8360000BB41F2B11095F83310C0F60100405CC0B9012001F0FEF83D
S3251004D800142001F0E3F8322001F09AF801F0EBF840F60410C0F6010001794171012185F879
S3251004D8203610017121700020608030BD6088298F884211D901F0D5F8002001F0DFF840F668
S3251004D8400410C0F6010001794171002101712170618085F8341030BD40F6A001C0F6010175
S3251004D86091F83200002808BF30BD00202070608085F8340030BD30B541F27034C0F6010452
S3251004D8802078012806D160884FF6FF7188423CBF0130608043F27C35C0F60105287ED0B992
S3251004D8A041F2B110697DC0F60100405C98B9E87D01F046F80146002001F043F840F604105F
S3251004D8C0C0F601000178417001212976017021700020608030BD6088698B88420ED90020F0
S3251004D8E001F04AF840F60410C0F60100017841700021017021706180A97530BD40F6A001CA
S3251004D900C0F6010191F82E00012818BF30BD002020706080A87530BD30B541F27434C0F681
S3251004D92001042078012806D160884FF6FF7188423CBF0130608043F27C35C0F6010595F88E
S3251004D9402200E0B941F2B110E97FC0F60100405CA8B995F8210000F0F3FF0146012000F0FA
S3251004D960F0FF40F60410C0F601008178C170012185F82210817021700020608030BD60884B
S3251004D980A98C88420FD9012000F0F6FF40F60410C0F601008178C1700021817021706180D1
S3251004D9A085F8201030BD40F6A001C0F6010191F82C00012818BF30BD00202070608085F875
S3251004D9C0200030BD30B541F26434C0F601042078012806D160884FF6FF7188423CBF01308A
S3251004D9E0608043F27C35C0F6010595F82C00F0B941F2B11095F82910C0F60100405CB0B9B3
S3251004DA00012000F0FBFF95F82B0000F099FF00F0DDFF40F60410C0F6010001794171012186
S3251004DA2085F82C10017121700020608030BD6088E98D884211D900F0D4FF002000F0DEFF61
S3251004DA4040F60410C0F6010001794171002101712170618085F82A1030BD40F6A001C0F649
S3251004DA60010191F83200002808BF30BD00202070608085F82A0030BDF0B541F28437C0F686
S3251004DA800107FFF73EFD43F27C35C0F60105A87840F6A006C0F60106A8B93978012904BFD9
S3251004DAA096F82E10002945D100F066FF40F60411C0F601010878487000200870A878387051
S3251004DAC0287B38B93AE0FFF76DFDA87860B33870287B98B3FFF7ECFD287B30B996F82C1020
S3251004DAE019B9012000F048FF287B787095F83400E0BB7979012904BF96F83210002944D10E
S3251004DB0000F06FFF002000F079FF40F60411C0F60101087948710020087195F83400787185
S3251004DB20A87D00287AD134E096F82E1011B900F023FFA8783870287B0028CBD1797801292D
S3251004DB4004BF96F82C100029CFD1012000F014FF40F60411C0F601018878C87000208870DE
S3251004DB60287B787095F834000028C2D0FFF727FE95F8340048B996F8321031B900F031FFCE
S3251004DB80002000F03BFF95F834007871A87D002844D1B978012904BF96F82E10002947D1EA
S3251004DBA000F0EAFE40F60411C0F601010878487000200870A87DB87095F82000E8B3FFF715
S3251004DBC0ABFE95F8200038B996F82C1021B9012000F0D2FE95F82000F87095F82A0000286B
S3251004DBE044D13979012904BF96F8321000294CD100F0F7FE002000F001FF40F60411C0F64B
S3251004DC000101087948710020087195F82A00387196F83400012818BFF0BD3CE0FFF72BFE0B
S3251004DC20A87D28B996F82E1011B900F0A5FEA87DB87095F820000028C1D1F978012904BF89
S3251004DC4096F82C100029C7D1012000F095FE40F60411C0F601018878C8700020887095F89B
S3251004DC602000F87095F82A000028BAD0FFF7AAFE95F8340038B996F8320020B900F0B1FE11
S3251004DC80002000F0BBFE95F82A00387196F83400012818BFF0BD40F60414C0F60104A07CAD
S3251004DCA052F027FA207D52F032FAA07D52F03DFA207CBDE8F04052F00EBA41F29432C0F61C
S3251004DCC0010240F6A001C0F60101087D4875002008755072107050801071D08070470020FF
S3251004DCE070477047704740F6A002C0F60102917A012915D130B541F6907541F29034C0F66B
S3251004DD000104C1F208052068294608F0E3FA2060294608F0CFFA20600120BDE8304070473B
S3251004DD2000207047704741F6A87041F29031C0F60101C1F20800086070477047704740F6C2
S3251004DD40A002C0F60102917AA9B930B541F6787541F29034C0F60104C1F20805206829466F
S3251004DD6008F0B8FA2060294608F0A4FA20600120BDE8304070470020704740F6A000C0F68A
S3251004DD800100017D417500210175704710B441F29034C0F6010443F2C412C0F60102108814
S3251004DDA041F29411884239BF41F6D870C1F2080041F6F070C1F20800206010BC7047704769
S3251004DDC070470020704740F6A000C0F60100017D417501210175704742F2080041F290315B
S3251004DDE0C0F60101C1F20800086070477047704730B541F29034C0F60104617B00200A2943
S3251004DE0028BF30BD6189B1F5FA7F38BF30BD41F6A875C1F208052068294608F05BFA20604F
S3251004DE20294608F047FA2060012030BD41F29D31C0F60101002008707047002070477047FC
S3251004DE40704743F2C413C0F60103198841F29412914215D330B541F6F07541F29034C0F6C8
S3251004DE600104C1F208052068294608F033FA2060294608F01FFA20600120BDE8304070473A
S3251004DE800020704741F29431C0F601010120087000204880704700207047704741F2943123
S3251004DEA0C0F60101002008704880704730B541F29034C0F6010443F2C413C0F6010319887B
S3251004DEC041F2941291420ED241F6D875C1F208052068294608F0FEF92060294608F0EAF9A8
S3251004DEE02060012030BDE18800200F2938BF30BD41F6C075C1F208052068294608F0EAF9D7
S3251004DF002060294608F0D6F92060012030BD41F29831C0F6010101200870002048804879AD
S3251004DF2001304871704700207047704741F29831C0F60101002008704880704730B541F2B5
S3251004DF409034C0F60104617B0A290ED342F22005C1F208052068294608F0BCF9206029468C
S3251004DF6008F0A8F92060012030BD002030BD704700207047704770470020704710B541F288
S3251004DF809034C0F601042079012806D1E0884FF6FF7188423CBF0130E080207A012806D142
S3251004DFA060894FF6FF7188423CBF01306081207B01280DD028BF10BD41F67871C1F20801A1
S3251004DFC02160084608F076F920600120207310BD2068BDE8104008F093B900002DE9100108
S3251004DFE041F2A034C0F601042078012806D160884FF6FF7188423CBF01306080002140F6E3
S3251004E000A000C0F6010043F2C0122379C0F60102042B56D80FF20408D8E803F0030B1727CA
S3251004E02038002170027C0174427461800120207148E0807A012845D11088142842D8012051
S3251004E04020706180022020713CE0837A012B02D11288142A04D9217061800120207131E080
S3251004E0606288B2F5FA7F2DD322E0837A012B05D0027C427401740120207123E01088182846
S3251004E08020D323706180042020711BE0837A012B03D16388B3F5FA7F07D32170027C0174E8
S3251004E0A042746180012020710CE01288182A09D221706180017C417401210174032020716B
S3251004E0C000E02171BDE8100170470000F0B543F2CC14C0F60104207C0025012806D1608A27
S3251004E0E04FF6FF7188423CBF01306082E07D012802D1A16A0918A162A16AC82903D1A5621A
S3251004E100216B01312163A17A0A2988BFF0BD0FF20802D2E811F000BF0C0015002D00C601C7
S3251004E120E500EB00C601C60123012901800125746582A5812581A58225800120A072F0BDA0
S3251004E140012818BFF0BDA581022001222274A0722080658242F23800C1F208004FF47A7307
S3251004E160062101F072FE6060C8202080A575F0BD208810B12088013820802088002818BF5D
S3251004E180F0BDA07D01380DD334D0023858D37FD0112818BFF0BD25740420A0726582C8206F
S3251004E1A02080F0BD082D22D243F20426C0F6010605EB450080198178FF2915D04FF47A73AF
S3251004E1C0012201F042FE606070B942F2107341F2AC30C0F6010028180122114601F0CDFEF5
S3251004E1E0217E6060013121760135082DE0D30120A075F0BD032D20D204F11C0605EB45006E
S3251004E20080198178FF2915D04FF47A73012201F01CFE606070B942F2107341F2C030C0F66E
S3251004E220010028180122114601F0A7FE217E6060013121760135032DE0D30220A075F0BD4E
S3251004E2400C2D22D243F22026C0F6010605EB450080198178FF2915D04FF47A73012201F027
S3251004E260F4FD606070B942F2107341F2D430C0F6010028180122114601F07FFE217E60607E
S3251004E2800131217601350C2DE0D30320A075F0BD082D22D243F20426C0F6010605EB45001A
S3251004E2A080198178FF2915D04FF47A73012201F0CCFD606070B942F2107341F2E830C0F6F7
S3251004E2C0010028180122114601F057FE217E6060013121760135082DE0D31420A075F0BDE7
S3251004E2E0C8202080A5810520A072F0BD208810B1208801382080A28943F24825C0F60105FF
S3251004E30002EB820041190979FF2901D0238813B16068A0B10DE04FF47A734019012201F08D
S3251004E32094FDA2890132A281606092B20521617628B10020E075A0810120A072F0BD02EB74
S3251004E340820040190079FF2818BFF0BD0020A081208184F82C000820A072F0BD642020800F
S3251004E36025810920A072F0BD208810B1208801382080208942F2CC0700EB8001C1F208072D
S3251004E38007EB41014A7AFF2A3DD02288002A18BFF0BD43F2BC26C0F60106B1F80120F276D7
S3251004E3A0120A86F82020B1F8032086F82520120A86F82A20B1F8052086F82F20120AC979FD
S3251004E3C086F8342086F839100E2D0FD205EB850080190179FF2905D04FF47A73012201F0A5
S3251004E3E034FD606001350E2DF0D320890130208180B200EB800007EB40000921407A6176D9
S3251004E400FF2818BFF0BD0020A08240F2DC5020800A20A072F0BD208810B120880138208024
S3251004E420A08A43F20432C0F6010200EB800081180979FF2917D02388002B18BFF0BD4FF442
S3251004E4407A738018012201F000FD6060A08A0130A08294F82C00013084F82C000A2060763E
S3251004E46002202080F0BDE5752581A58241F20C21C0F601010F20087040F6A001C0F601019E
S3251004E480A572088D020A81F8290081F82820FCF7B8FA284600F070FA0120BDE8F04000F0F4
S3251004E4A06BBAF0BD43F2D412C0F601021088642148434BF6A341CAF28841A0FB0110000B93
S3251004E4C0C0B2704710B584B042F24001C1F208010888ADF8020042F24200C1F208000278ED
S3251004E4E08DF8042042788DF8052080788DF8060042F24500C1F2080002788DF8072042785E
S3251004E5008DF8082080788DF8090042F24800C1F2080002788DF80A2042788DF80B208078EC
S3251004E5208DF80C0042F24B00C1F2080001788DF80D1041788DF80E1080788DF80F000DF1F5
S3251004E5400D040DF102004FF47A730122022101F07CFC30B942F2107320460122114601F040
S3251004E5600CFD9DF80D0030B901A84FF47A730122032101F06AFC0DF107004FF47A7301221E
S3251004E580032101F062FC0DF10A004FF47A730122032101F05AFC04B010BD2DE9F04C05460A
S3251004E5A08A4693461F4646780078002446EA00269C4228BFBDE8F08CA0196870000A28706A
S3251004E5C0594628464FF47A73012201F03EFC38B942F2107304EB0A000122114601F0CDFCC1
S3251004E5E00134E4B2BC42E7D3BDE8F08C00B583B042F25001C1F208010A88ADF800204A880B
S3251004E600ADF802208888ADF80400CA88ADF806200989ADF808109DF8001001290AD19DF8B5
S3251004E620032041F2FC31C0F60101C3B20DF10100FFF7B3FF03B000BD00B584B042F260007C
S3251004E640C1F2080001788DF8001041788DF8011080788DF8020042F26300C1F2080002783D
S3251004E6608DF8032042788DF80420807842F26601C1F208018DF805000A788DF806204A78AD
S3251004E6808DF80720897842F25C02C1F208028DF808101188ADF8091042F26901C1F2080116
S3251004E6A00B788DF80B304B780DF106008DF80C30897842F25E02C1F208028DF80D101188E8
S3251004E6C04FF47A73ADF80E100122032101F0BDFB0DF109004FF47A730122022101F0B5FB1F
S3251004E6E030B942F2107368460122114601F045FC0DF10B004FF47A730122032101F0A5FBF5
S3251004E7000DF10E004FF47A730122022101F09DFB38B942F210730DF103000122114601F0C0
S3251004E7202CFC04B000BD30B58AB0002442F26C05C1F208056A460BCD0BC20BCD0BC20BCDAC
S3251004E7400BC22868106004EB840068440179FF2904D04FF47A73012201F077FB0134E4B2BC
S3251004E760082CF0D30AB030BD30B585B0002442F29405C1F208056A460BCD0BC295E8030041
S3251004E78082E803000DEB8400C078FF2807D00DEB8400C1784FF47A73012201F056FB0134C1
S3251004E7A0E4B2052CEED305B030BD30B584B0002442F2A805C1F208056A460BCD0BC2286852
S3251004E7C010600DEB8400C078FF2807D00DEB8400C1784FF47A73012201F037FB0134E4B207
S3251004E7E0042CEED304B030BD30B585B0002442F2B805C1F208056A460BCD0BC295E80300A9
S3251004E80082E803000DEB8400C078FF2807D00DEB8400C1784FF47A73012201F016FB013480
