S00F0000655F6B61345F70655F77000022
S3251004800002480349016000F0B7BF000008ED00E000840410FFFFFFFFFFFFFFFFFFFFFFFF88
S32510048020FFFFFFFFFFFFFFFFFFFFFFFFFFFFFFFFFFFFFFFFFFFFFFFFFFFFFFFFFFFFFFFF46
S32510048040FFFFFFFFFFFFFFFFFFFFFFFFFFFFFFFFFFFFFFFFFFFFFFFFFFFFFFFFFFFFFFFF26
S32510048060FFFFFFFFFFFFFFFFFFFFFFFFFFFFFFFFFFFFFFFFFFFFFFFFFFFFFFFFFFFFFFFF06
S32510048080FFFFFFFFFFFFFFFFFFFFFFFFFFFFFFFFFFFFFFFFFFFFFFFFFFFFFFFFFFFFFFFFE6
S325100480A0FFFFFFFFFFFFFFFFFFFFFFFFFFFFFFFFFFFFFFFFFFFFFFFFFFFFFFFFFFFFFFFFC6
S325100480C0FFFFFFFFFFFFFFFFFFFFFFFFFFFFFFFFFFFFFFFFFFFFFFFFFFFFFFFFFFFFFFFFA6
S325100480E0FFFFFFFFFFFFFFFFFFFFFFFFFFFFFFFFFFFFFFFFFFFFFFFFFFFFFFFFFFFFFFFF86
S32510048100FFFFFFFFFFFFFFFFFFFFFFFFFFFFFFFFFFFFFFFFFFFFFFFFFFFFFFFFFFFFFFFF65
S32510048120FFFFFFFFFFFFFFFFFFFFFFFFFFFFFFFFFFFFFFFFFFFFFFFFFFFFFFFFFFFFFFFF45
S32510048140FFFFFFFFFFFFFFFFFFFFFFFFFFFFFFFFFFFFFFFFFFFFFFFFFFFFFFFFFFFFFFFF25
S32510048160FFFFFFFFFFFFFFFFFFFFFFFFFFFFFFFFFFFFFFFFFFFFFFFFFFFFFFFFFFFFFFFF05
S32510048180FFFFFFFFFFFFFFFFFFFFFFFFFFFFFFFFFFFFFFFFFFFFFFFFFFFFFFFFFFFFFFFFE5
S325100481A0FFFFFFFFFFFFFFFFFFFFFFFFFFFFFFFFFFFFFFFFFFFFFFFFFFFFFFFFFFFFFFFFC5
S325100481C0FFFFFFFFFFFFFFFFFFFFFFFFFFFFFFFFFFFFFFFFFFFFFFFFFFFFFFFFFFFFFFFFA5
S325100481E0FFFFFFFFFFFFFFFFFFFFFFFFFFFFFFFFFFFFFFFFFFFFFFFFFFFFFFFFFFFFFFFF85
S32510048200FFFFFFFFFFFFFFFFFFFFFFFFFFFFFFFFFFFFFFFFFFFFFFFFFFFFFFFFFFFFFFFF64
S32510048220FFFFFFFFFFFFFFFFFFFFFFFFFFFFFFFFFFFFFFFFFFFFFFFFFFFFFFFFFFFFFFFF44
S32510048240FFFFFFFFFFFFFFFFFFFFFFFFFFFFFFFFFFFFFFFFFFFFFFFFFFFFFFFFFFFFFFFF24
S32510048260FFFFFFFFFFFFFFFFFFFFFFFFFFFFFFFFFFFFFFFFFFFFFFFFFFFFFFFFFFFFFFFF04
S32510048280FFFFFFFFFFFFFFFFFFFFFFFFFFFFFFFFFFFFFFFFFFFFFFFFFFFFFFFFFFFFFFFFE4
S325100482A0FFFFFFFFFFFFFFFFFFFFFFFFFFFFFFFFFFFFFFFFFFFFFFFFFFFFFFFFFFFFFFFFC4
S325100482C0FFFFFFFFFFFFFFFFFFFFFFFFFFFFFFFFFFFFFFFFFFFFFFFFFFFFFFFFFFFFFFFFA4
S325100482E0FFFFFFFFFFFFFFFFFFFFFFFFFFFFFFFFFFFFFFFFFFFFFFFFFFFFFFFFFFFFFFFF84
S32510048300FFFFFFFFFFFFFFFFFFFFFFFFFFFFFFFFFFFFFFFFFFFFFFFFFFFFFFFFFFFFFFFF63
S32510048320FFFFFFFFFFFFFFFFFFFFFFFFFFFFFFFFFFFFFFFFFFFFFFFFFFFFFFFFFFFFFFFF43
S32510048340FFFFFFFFFFFFFFFFFFFFFFFFFFFFFFFFFFFFFFFFFFFFFFFFFFFFFFFFFFFFFFFF23
S32510048360FFFFFFFFFFFFFFFFFFFFFFFFFFFFFFFFFFFFFFFFFFFFFFFFFFFFFFFFFFFFFFFF03
S32510048380FFFFFFFFFFFFFFFFFFFFFFFFFFFFFFFFFFFFFFFFFFFFFFFFFFFFFFFFFFFFFFFFE3
S325100483A0FFFFFFFFFFFFFFFFFFFFFFFFFFFFFFFFFFFFFFFFFFFFFFFFFFFFFFFFFFFFFFFFC3
S325100483C0FFFFFFFFFFFFFFFFFFFFFFFFFFFFFFFFFFFFFFFFFFFFFFFFFFFFFFFFFFFFFFFFA3
S325100483E0FFFFFFFFFFFFFFFFFFFFFFFFFFFFFFFFFFFFFFFFFFFFFFFFFFFFFFFFFFFFFFFF83
S3251004840000A4000800800410F925081041250810412508104125081041250810A5250810F2
S32510048420A5250810A5250810A525081009240810A5250810A5250810A52508100522081052
S3251004844005220810052208100522081005220810052208100522081005220810052208100A
S325100484600522081005220810052208100522081005220810052208100522081005220810EA
S32510048480A5250810A5250810A5250810A5250810A5250810A5250810A5250810A5250810B2
S325100484A0A5250810A5250810A5250810A5250810A5250810A5250810A5250810A525081092
S325100484C0A5250810A5250810A5250810A5250810A5250810A5250810A5250810A525081072
S325100484E0A5250810A5250810A5250810A5250810A5250810A5250810A5250810A525081052
S32510048500A5250810A5250810A5250810A5250810A5250810A5250810A5250810A525081031
S32510048520A5250810A5250810A5250810A5250810A5250810A5250810A5250810A525081011
S32510048540A5250810A5250810A5250810A5250810A5250810A5250810A5250810A5250810F1
S32510048560A5250810A5250810A5250810A5250810A5250810A5250810A5250810A5250810D1
S32510048580A5250810A5250810A5250810A5250810A5250810A5250810A5250810A5250810B1
S325100485A0A5250810A5250810A5250810A5250810A5250810A5250810A5250810A525081091
S325100485C0A5250810A5250810A5250810A5250810A5250810A5250810A5250810A525081071
S325100485E0A5250810A5250810A5250810A5250810A5250810A5250810A5250810A525081051
S32510048600A5250810A5250810A5250810A5250810A5250810A5250810A5250810A525081030
S32510048620A5250810A5250810A5250810A5250810A5250810A5250810A5250810A525081010
S32510048640A5250810A5250810A5250810A5250810A5250810A5250810A5250810A5250810F0
S32510048660A5250810A5250810A5250810A5250810A5250810A5250810A5250810A5250810D0
S32510048680A5250810A5250810A5250810A5250810A5250810A5250810A5250810A5250810B0
S325100486A0A5250810A5250810A5250810A5250810A5250810A5250810A5250810A525081090
S325100486C0A5250810A5250810A5250810A5250810A5250810A5250810A5250810A525081070
S325100486E0A5250810A5250810A5250810A5250810A5250810A5250810A5250810A525081050
S32510048700A5250810A5250810A5250810A5250810A5250810A5250810A5250810A52508102F
S32510048720A5250810A5250810A5250810A5250810A5250810A5250810A5250810A52508100F
S32510048740A5250810A5250810A5250810A5250810A5250810A5250810A5250810A5250810EF
S32510048760A5250810A5250810A5250810A5250810A5250810A5250810A5250810A5250810CF
S32510048780A5250810A5250810A5250810A5250810A5250810A5250810A5250810A5250810AF
S325100487A0A5250810A5250810A5250810A5250810A5250810A5250810A5250810A52508108F
S325100487C0A5250810A5250810A5250810A5250810A5250810A5250810A5250810A52508106F
S325100487E0A5250810A5250810A5250810A5250810A5250810A5250810A5250810FFFFFFFF35
S3251004880002000001000000FF17042020FFFFFFFF6E0C0200008004100F880410008D041089
S32510048820FFFF2010FFFFFFFFFFFFFFFFFFFFFFFFFFFFFFFFFFFFFFFFFFFFFFFFFFFFFFFF0C
S32510048840FFFFFFFFFFFFFFFFFFFFFFFFFFFFFFFFFFFFFFFFFFFFFFFFFFFFFFFFFFFFFFFF1E
S32510048860FFFFFFFFFFFFFFFFFFFFFFFFFFFFFFFFFFFFFFFFFFFFFFFFFFFFFFFFFFFFFFFFFE
S32510048880FFFFFFFFFFFFFFFFFFFFFFFFFFFFFFFFFFFFFFFFFFFFFFFFFFFFFFFFFFFFFFFFDE
S325100488A0FFFFFFFFFFFFFFFFFFFFFFFFFFFFFFFFFFFFFFFFFFFFFFFFFFFFFFFFFFFFFFFFBE
S325100488C0FFFFFFFFFFFFFFFFFFFFFFFFFFFFFFFFFFFFFFFFFFFFFFFFFFFFFFFFFFFFFFFF9E
S325100488E0FFFFFFFFFFFFFFFFFFFFFFFFFFFFFFFFFFFFFFFFFFFFFFFFFFFFFFFFFFFFFFFF7E
S32510048C000000020000800410FF880410008C0410FFFF2010FFFFFFFFFFFFFFFFFFFFFFFF47
S32510048C20FFFFFFFFFFFFFFFFFFFFFFFFFFFFFFFFFFFFFFFFFFFFFFFFFFFFFFFFFFFFFFFF3A
S32510048C40FFFFFFFFFFFFFFFFFFFFFFFFFFFFFFFFFFFFFFFFFFFFFFFFFFFFFFFFFFFFFFFF1A
S32510048C60FFFFFFFFFFFFFFFFFFFFFFFFFFFFFFFFFFFFFFFFFFFFFFFFFFFFFFFFFFFFFFFFFA
S32510048C80FFFFFFFFFFFFFFFFFFFFFFFFFFFFFFFFFFFFFFFFFFFFFFFFFFFFFFFFFFFFFFFFDA
S32510048CA0FFFFFFFFFFFFFFFFFFFFFFFFFFFFFFFFFFFFFFFFFFFFFFFFFFFFFFFFFFFFFFFFBA
S32510048CC0FFFFFFFFFFFFFFFFFFFFFFFFFFFFFFFFFFFFFFFFFFFFFFFFFFFFFFFFFFFFFFFF9A
S32510048CE0FFFFFFFFFFFFFFFFFFFFFFFFFFFFFFFFFFFFFFFFFFFFFFFFFFFFFFFFFFFFFFFF7A
S32510048D00FFFFFFFFFFFFFFFFFFFFFFFFFFFFFFFFFFFFFFFFFFFFFFFFFFFFFFFFFFFFFFFF59
S32510048D2030B40346104600248C420FD247F63825C1F20D0513F8012B42401206D20D525B07
S32510048D4082EA102080B201348C42F3D330BC70472DE9F00C01004FF0010000F0A1800C68E7
S32510048D60002C00F09D8065884FF6FF718D4218BF002D00F0958034F8091C0023AB4280F055
S32510048D808B8004EBC3067268B668B2F1FF3F1CBF002A964203D822888A427FD080E0B61A70
S32510048DA006F1010C5FEADC075DD047F63826C1F20D0632F808AB8AEA010B4FEA0B6B4FEA96
S32510048DC0DB5B3BF806B08BEA212181EA1A2A4FEA0A6A4FEADA5A3AF806B032F806AC8BEAA1
S32510048DE021218AEA010B4FEA0B6B4FEADB5B3BF806B08BEA212181EA1A2A4FEA0A6A4FEA44
S32510048E00DA5A3AF806B032F804AC8BEA21218AEA010B4FEA0B6B4FEADB5B3BF806B08BEA8F
S32510048E20212181EA1A2A4FEA0A6A4FEADA5A3AF806B032F802AC8BEA21218AEA010B4FEADD
S32510048E400B6B4FEADB5B3BF806B08BEA212181EA1A2A4FEA0A6A4FEADA5A3AF806A08AEA5E
S32510048E602121013FA5D11CF0070611D047F63827C1F20D0712F801CB8CEA010C4FEA0C6C79
S32510048E804FEADC5C3CF807C08CEA2121013EF1D10133AB42FFF475AF22888A4208BF0020FE
S32510048EA0BDE8F00C70472DE9F0444DF6A846C0F6000600214FF4887053F07BFF47F2E8408F
S32510048EC0C1F20D000024057B3470AC420FD22746D0F808A0380E0AEBC000FFF739FF08B1E2
S32510048EE00124347007F18077B5EB176FF2D80CB90220307000F00CF901214FF48870BDE832
S32510048F00F04453F056BFFFF7CEBFF0B54DF6A846C0F60006022047F2E841C1F20D013070B1
S32510048F200C790025A54228BFF0BD0F68280E07EBC000FFF70DFF08B10120307005F180752C
S32510048F40B4EB156FF2D8F0BD00B559F0E9F9002814BF0420032000BD4DF6A841C0F600019B
S32510048F600878022808BF7047003818BF0120704701808FE218FF2FE106460F46904610F038
S32510048F8091FB4FF014004FF001014FF04DFF48F69F75C1F20405A5F101057A46A2EB05050B
S32510048FA09146002803D131463A4643460AE04AF20040C0F6000085464FF000014FF00002DC
S32510048FC04FF0000340F20200012817D308D04EF68850CEF20000046844F4700404600DE0D1
S32510048FE011EE500F40F4A00001EE500FBFF36F8FF8EE100A40F08040E8EE100A4FF0000404
S3251004900048F20040C1F20400814506DB40F20000C1F22100814500DC2C4642F2FC60C1F201
S325100490200800A0EB040000EB05004FF000044FF000054FF0000638F077FD00BFFDE7000084
S3251004904088F062BE88F08ABE58B940F22041C0F6010191F86400012818BF7047002058F036
S325100490603CBE022818BF704740F22041C0F6010191F86400012818BF7047022058F02DBEE0
S32510049080022808BF00200EF0BC81012818BF704700200EF0BAB900B540F22041C0F6010122
S325100490A091F86400012804BF002058F016FE002058F0F7FD40F2EC21C0F601010020087056
S325100490C000BD00B500200EF09CF940F22041C0F6010191F86400012804BF022058F0FDFDC9
S325100490E0022058F0DEFD40F2EC21C0F601010020087000BD40F2FA21C0F601010120087027
S32510049100704740F2FA21C0F60101022008707047704701207047000040F2FC23C0F601038E
S3251004912000205863986103F8100B43F80C0C03F8040CD862D86198619862D86083F8300084
S3251004914048F20001C1F20401196140F6FF028A181A6201F5406183E803004FF6FF71C1F2C6
S3251004916020015961042340F24031C0F6010140F26032C0F60102907001F8080B22F8080BC2
S3251004918021F8070C02F8030C01F8050C22F8050C21F8040C01F8020C22F8020C01F8010CED
S325100491A0013BE8D1704730B540F2FC24C0F601042078012805D16068B0F1FF3F01D20130B5
S325100491C06060207B012805D12069B0F1FF3F01D201302061207A062888BF30BD0FF204012C
S325100491E0D1E800F0041B38C3679EB60048F20000C1F20400206248F6FF00C1F204002063ED
S3251004920048F60040C1F2040060614FF6FF70C1F2200060620120207230BD40F22041C0F60C
S32510049220010191F83800012818BF30BDFFF774FF37F0A3FB002818BF30BD206A216B091A11
S32510049240E0630131012020700020606061630220207230BD40F22041C0F6010191F838007D
S3251004926000287ED0616BE06B37F092FBA8B96069616A091A8A0AC1F30901A1634FF4806101
S32510049280A161A2620121E062E161002020612070606021730420207230BD606848F6A041F9
S325100492A0884238BF30BD0020207060600120207230BD40F22041C0F6010191F838000028A2
S325100492C04FD0A169E06A37F063FBE8B9E169A26A914204D9207320610520207230BD606954
S325100492E000F580606061E0620131E161914205D9A06B0130A0610420207230BD4FF4806054
S32510049300A0610420207230BD206948F6A041884238BF30BD0020207320610120207230BD65
S3251004932040F26035C0F60105284637F03EFB002818BF30BD012084F84000294640F24030E8
S32510049340C0F60100202238F0DAFB0620207230BD40F22041C0F6010191F83800002818BF4D
S3251004936030BDFFF7D9FE0020207230BD0EF05AB92DE9F04C4FF0000A4FF0010B40F280379A
S3251004938040F28436C0F60106C0F60107306840F29835C0F6010510F0010F0DD020F00101FA
S325100493A095F84A00316085F84B0085F84AA0084611F0020F0ED022E0386810F0010F18D024
S325100493C095F84A0085F84B00306885F84AB010F0020F14D1386810F0020F38D095F84C003D
S325100493E085F84D00306885F84CB010F0040F13D033E028786870306810F0020FEAD020F084
S32510049400020195F84C00316085F84D0085F84CA0084611F0040F20D1386840F22044C0F653
S32510049420010410F0040F40D095F84E0085F84F0094F8300085F84EB084F8310006F046F82B
S3251004944084F83000306810F0080F1FD03DE0A878E870306810F0040FDED020F00400306016
S3251004946095F84E0040F22044C0F6010485F84F0094F8300085F84EA084F8310006F026F8F2
S3251004948084F83000306810F0080F1ED1386810F0080F36D095F8500085F85100306885F8EB
S325100494A050B010F0100F1DD033E028796871A879E87194F8300084F8310006F007F884F8A5
S325100494C03000306810F0080FE0D020F0080195F85000316085F8510085F850A0084611F0D2
S325100494E0100F16D1386810F0100F2ED095F8520085F85300306885F852B010F0200F15D0B5
S3251004950029E028896881287B6873306810F0100FE8D020F0100195F85200316085F8530040
S3251004952085F852A0084611F0200F14D1386810F0200F2CD095F8540085F85500306885F8AC
S3251004954054B010F0400F13D027E0A87BE873306810F0200FEAD020F0200195F85400316012
S3251004956085F8550085F854A0084611F0400F14D1386810F0400F2CD095F8560085F8570069
S32510049580306885F856B010F0800F13D027E0287C6874306810F0400FEAD020F0400195F81E
S325100495A05600316085F8570085F856A0084611F0800F14D1386810F0800F2CD095F8580090
S325100495C085F85900306885F858B010F4806F13D027E0A87CE874306810F0800FEAD020F030
S325100495E0800195F85800316085F8590085F858A0084611F4806F14D1386810F4806F2CD059
S3251004960095F85E0085F85F00306885F85EB010F4006F13D027E0287D6875306810F4806FDC
S32510049620EAD020F4806195F85E00316085F85F0085F85EA0084611F4006F14D1386810F443
S32510049640006F30D095F8600085F86100306885F860B010F4805F13D02BE0A87EE8763068A4
S3251004966010F4006FEAD020F4006195F86000316085F8610085F860A0084611F4805F18D13A
S32510049680386810F4805F38D095F8620085F8630040F28C30C0F60100016885F862B011F0B8
S325100496A0400F17D033E0287F6877306810F4805FE6D020F48050306095F8620085F863004D
S325100496C040F28C30C0F60100016885F862A011F0400F1CD140F28832C0F60102116811F087
S325100496E0400F30D095F8641085F86510316885F864B011F4005F17D02DE0A87FE87740F2D4
S325100497008C30C0F60100016811F0400FE2D021F04001016095F8641085F86510316885F895
S3251004972064A011F4005F16D1396811F4005F2ED095F8661085F86710316885F866B011F495
S32510049740804F15D02BE095F8201085F82110316811F4005FE8D021F4005295F86610326014
S3251004976085F8671085F866A0114612F4804F16D1396811F4804F32D095F8681085F86910D3
S32510049780016885F868B011F0010F15D03BE095F8241085F82510316811F4804FE8D021F4F3
S325100497A08041316095F8681085F86910016885F868A011F0010F26D140F28832C0F60102A7
S325100497C0116811F0010F3ED095F86A1085F86B10016885F86AB011F0020F21D03BE095F82D
S325100497E0261085F8271095F82A1085F82B1095F82C1085F82D1095F8281085F8291001687F
S3251004980011F0010FD8D021F0010295F86A10026085F86B1085F86AA0114612F0020F1AD124
S3251004982040F28832C0F60102116811F0020F32D095F86C1085F86D10016885F86CB011F0D6
S32510049840040F15D02FE095F82E1085F82F10016811F0020FE4D021F0020295F86C100260B1
S3251004986085F86D1085F86CA0114612F0040F1AD140F28832C0F60102116811F0040F32D0C0
S3251004988095F86E1085F86F10016885F86EB011F0080F15D02FE095F8301085F831100168A3
S325100498A011F0040FE4D021F0040295F86E10026085F86F1085F86EA0114612F0080F1AD160
S325100498C040F28832C0F60102116811F0080F32D095F8701085F87110016885F870B011F024
S325100498E0100F15D02FE095F8321085F83310016811F0080FE4D021F0080295F870100260ED
S3251004990085F8711085F870A0114612F0100F1AD140F28832C0F60102116811F0100F32D0FF
S3251004992095F8721085F87310016885F872B011F0200F15D02FE095F8341085F835100168D6
S3251004994011F0100FE4D021F0100295F87210026085F8731085F872A0114612F0200F1AD183
S3251004996040F28832C0F60102116811F0200F32D095F8741085F87510016885F874B011F05F
S32510049980800F15D02FE095F8361085F83710016811F0200FE4D021F0200295F874100260A0
S325100499A085F8751085F874A0114612F0800F1AD140F28832C0F60102116811F0800F2FD07A
S325100499C095F8761085F87710016885F876B011F4807F15D02CE095F8381085F83910016851
S325100499E011F0800FE4D021F0800295F87610026085F8771085F876A0114612F4807F17D126
S32510049A0040F28831C0F60101086810F4807F1AD095F8780085F8790085F878B0BDE8F08C6B
S32510049A2095F83A1085F83B10016811F4807FE7D021F48071016095F8780085F8790085F86A
S32510049A4078A0BDE8F08C95F83C0085F83D00BDE8F08C30B440F2B441C0F601010A78012A9F
S32510049A6004D14878FF283CBF0130487040F2983040F29033C0F60103C0F601001C68002523
S32510049A8014F0010F0AD024F001021A6090F842004D70002818BF0120087016E0012A02D11A
S32510049AA04A78322A08D290F8402090F8423080F8412080F8433008E080F8405080F84250F4
S32510049AC00D8080F8415080F8435030BC704730B400240D46EB0815D001464FF0FF32DC0062
S32510049AE001F8082B01F8072C01F8062C01F8052C01F8042C01F8032C01F8022C01F8012C01
S32510049B00013BEDD115F0070106D020184FF0FF3200F8012B0139FBD130BC704770B4002590
S32510049B201646F40824D002460B46E50012F808CB03F808CB12F807CC03F807CC12F806CC0F
S32510049B4003F806CC12F805CC03F805CC12F804CC03F804CC12F803CC03F803CC12F802CC57
S32510049B6003F802CC12F801CC03F801CC013CDDD116F0070207D02818691810F8013B01F894
S32510049B80013B013AF9D170BC7047F0B500EBC00042F66C41C0F6010101EB80046169201D23
S32510049BA08847A1786071012904D300F095800020A070F0BD002818BFF0BD2079012808BFBA
S32510049BC0F0BD052840D1A668E7684FF0FF30E070257C0020EB0824D031463A46D80011F8E5
S32510049BE008CB02F808CB11F807CC02F807CC11F806CC02F806CC11F805CC02F805CC11F8AD
S32510049C0004CC02F804CC11F803CC02F803CC11F802CC02F802CC11F801CC02F801CC013B77
S32510049C20DDD115F007014DD08219C01912F8013B00F8013B0139F9D1E169E0688847E0718E
S32510049C40002818BFF0BD44E02078002808BFF0BD002121704FF0FF30E070E668257CA76878
S32510049C60EB0824D030463A46D90010F808CB02F808CB10F807CC02F807CC10F806CC02F8F0
S32510049C8006CC10F805CC02F805CC10F804CC02F804CC10F803CC02F803CC10F802CC02F822
S32510049CA002CC10F801CC02F801CC013BDDD115F0070007D08A19C91912F8013B01F8013B53
S32510049CC00138F9D1E169E0688847E071002818BFF0BD0120A070F0BD207902281CBF00206D
S32510049CE0A070F0BD10B542F60844C0F601042078FFF74BFF227842F66C4102EBC200C0F6CD
S32510049D00010101EB8000C078C0B9501CC0B207280ED02070C87880B340F62850C0F60100B7
S32510049D200178417000210170BDE8104058F007B800202070C8780028EED11EE001281CBF78
S32510049D40032805280FD16078013804D36070C8780028E1D111E003206070501C2070C878BF
S32510049D600028D9D109E004381CBF023802289CBF07202070C8780028CED191F827000028A2
S32510049D80CAD191F84B000028C6D191F86F000028C2D191F893000028BED191F8B70000288D
S32510049DA0BAD191F8DB000028B6D140F62850C0F60100017841700121017057F0C0FFBDE81E
S32510049DC0104001F046BDF0B500EBC00042F66C43C0F6010303EB8003DA70062918BF0C293E
S32510049DE040F0A480012A18BF032A61D1DF681D7C0024EA0815D038464FF0FF31D40000F800
S32510049E00081B00F8071C00F8061C00F8051C00F8041C00F8031C00F8021C00F8011C013A22
S32510049E20EDD115F0070006D0E1194FF0FF3201F8012B0138FBD19E681D7CDF68EC0824D006
S32510049E4031463A46E00011F808CB02F808CB11F807CC02F807CC11F806CC02F806CC11F80F
S32510049E6005CC02F805CC11F804CC02F804CC11F803CC02F803CC11F802CC02F802CC11F840
S32510049E8001CC02F801CC013CDDD115F0070100F0AB808219C01912F801CB00F801CB0139B9
S32510049EA0F9D1012018705878012818BFF0BDA1E0052A40F09B809E68DF681D7C0020EC08A3
S32510049EC024D031463A46E00011F808CB02F808CB11F807CC02F807CC11F806CC02F806CCA4
S32510049EE011F805CC02F805CC11F804CC02F804CC11F803CC02F803CC11F802CC02F802CCC0
S32510049F0011F801CC02F801CC013CDDD115F007016CD08219C01912F801CB00F801CB01390E
S32510049F20F9D15878012818BFF0BD63E007295DD1012A5BD1DF681D7C0024EA0815D038466F
S32510049F404FF0FF31D40000F8081B00F8071C00F8061C00F8051C00F8041C00F8031C00F814
S32510049F60021C00F8011C013AEDD115F0070006D0E1194FF0FF3201F8012B0138FBD19E681F
S32510049F801D7CDF68EC0824D031463A46E00011F808CB02F808CB11F807CC02F807CC11F8AD
S32510049FA006CC02F806CC11F805CC02F805CC11F804CC02F804CC11F803CC02F803CC11F8F7
S32510049FC002CC02F802CC11F801CC02F801CC013CDDD115F0070107D08219C01912F801CB1B
S32510049FE000F801CB0139F9D1012018705878012818BFF0BD00205870196AD878BDE8F040C9
S3251004A000084742F66C43C0F6010300EBC00003F8201003EB8000C2607047704770477047F4
S3251004A020704770477047704710B440F6C444C0F601042078552842D1AA2040F6E041C0F66E
S3251004A040010120700878FF2845D0AA2804BF4FF0FF300870207AFF2842D0AA2804BF4FF076
S3251004A060FF30207240F6F041C0F601010878FF283FD0AA2804BF4FF0FF300870207CFF28F2
S3251004A0803CD0AA2804BF4FF0FF30207440F60851C0F601010878FF2839D0AA2804BF4FF038
S3251004A0A0FF30087040F61851C0F601010878FF2836D0CC2804BF4FF0FF30087032E0AA285A
S3251004A0C004BF4FF0FF30207040F6E041C0F601010878FF28B9D1AA200870207AFF28BCD1D5
S3251004A0E0AA2040F6F041C0F6010120720878FF28BFD1AA200870207CFF28C2D1AA2040F6FC
S3251004A1000851C0F6010120740878FF28C5D1AA20087040F61851C0F601010878FF28C8D16A
S3251004A120CC200870207E42F66C4200EBC000C0F60102012302F8203002EB8000C160207E1F
S3251004A14001302076207E072804BF0020207610BC7047704740F63C50C0F601000121017092
S3251004A16000214180704770B540F64054C0F60104A178012904D1E078FF283CBF0130E0706F
S3251004A1802078012804D16078FF283CBF0130607020790026012803D328D02660267170BD14
S3251004A1A040F22042C0F60102107F01280AD151B940F6B651C0F60101087850B90120A070EC
S3251004A1C0E67070BD28B140F6B651C0F60101087808B1668070BDE078C82838BF70BD668076
S3251004A1E0012000F03AF90120207170BD40F22045C0F6010595F83900012808D095F8380043
S3251004A200012804D1304600F028F9267170BD00F060F920B9287F68772E77267170BD207832
S3251004A22078B9287F002818BF70BD40F6B651C0F601010878002818BF70BD012020706670D8
S3251004A24070BD012818BF70BD6078322838BF70BD287F012805D040F6B652C0F6010211780F
S3251004A26009B1268070BD002818BF70BD2070667000F0F3F8267170BD30B540F64855C0F698
S3251004A28001056878012803D313D00020687030BD40F22044C0F60104E07C012808BF30BD6D
S3251004A2A0A07C012818BF30BD00F0E6F80120687030BD40F22044C0F6010494F83900012888
S3251004A2C009D094F83800012805D1002000F0D4F80020687030BD00F0FCF8002818BF30BD37
S3251004A2E0A07CE0740020A07441F21202C0F6010201211170687030BD70B540F64454C0F68F
S3251004A3000104A078012804D1E178FF293CBF0131E1702179002601292BD024BF267170BD7D
S3251004A32040F22042C0F60102917E01290AD150B940F6B651C0F60101087850B90120A070EA
S3251004A340E67070BD29B140F6B652C0F60102117809B1668070BD012818BF70BDE078C828C4
S3251004A36038BF70BD6680012000F0A4F80120207170BD40F22045C0F6010595F839000128EB
S3251004A38008D095F83800012804D1304600F092F8267170BD00F09DF8002818BF70BDA87E7D
S3251004A3A0E876AE76267170BD40F6B651C0F601010878002818BF704700B5FFF7D4FEFFF79F
S3251004A3C05BFF5DF804EBFFF797BF40F64C51C0F601010878704740F64C51C0F601010870B4
S3251004A3E0704740F64B51C0F601010878704740F64B51C0F601010870704740F64E51C0F687
S3251004A40001010878704740F64E51C0F601010870704740F64D51C0F601010878704740F634
S3251004A4204D51C0F601010870704740F65051C0F601010878704740F65051C0F601010870B0
S3251004A440704740F64F51C0F601010878704740F64F51C0F601010870704710B440F64A5411
S3251004A460C0F601042178002814BF41F0010001F0FE00207010BC704710B440F64A54C0F6F1
S3251004A48001042178002814BF41F0020001F0FD00207010BC704710B440F64A54C0F6010482
S3251004A4A02178002814BF41F0040001F0FB00207010BC704710B440F64A54C0F601042178CE
S3251004A4C0002814BF41F0080001F0F700207010BC704740F64A51C0F601010878704740F63D
S3251004A4E04A51C0F601010870704740F65151C0F601010878704740F65151C0F601010870F1
S3251004A500704740F65251C0F601010878704740F65251C0F601010870704740F65351C0F652
S3251004A52001010878704740F65351C0F601010870704710B440F64A54C0F6010440F2204022
S3251004A540C0F60100A27890F839102379E9B190F83810D1B9012A0CD1E0791E2809D80130F6
S3251004A560C0B21E2803D0E071012B0ED103E0A170E171012B09D1207A1E2806D80130C0B22D
S3251004A5801E2812BF20722171217210BC704740F6C442C0F60102115401210020FFF731BDD0
S3251004A5A040F6E042C0F60102115401210846FFF728BD40F6CC42C0F601021154012102201A
S3251004A5C0FFF71FBD40F6F042C0F60102115401210320FFF716BD40F6D442C0F60102115491
S3251004A5E001210420FFF70DBD40F6C441C0F60101085C704740F6E041C0F60101085C704703
S3251004A60040F6CC41C0F60101085C704740F6F041C0F60101085C704740F6D441C0F60101CD
S3251004A620085C704740F6C442C0F601024FF0FF301060506001210020FFF7E3BC40F6E04233
S3251004A640C0F601024FF0FF30106050609060D06001210846FFF7D5BC40F6CC42C0F6010285
S3251004A6604FF0FF301060506001210220FFF7C9BC40F6F042C0F6010210460323FF2100F8BE
S3251004A680081B00F8071C00F8061C00F8051C00F8041C00F8031C00F8021C00F8011C013B99
S3251004A6A0EDD101210320FFF7ACBC40F6D442C0F601024FF0FF301060506001210420FFF750
S3251004A6C0A0BC10B540F22040C0F6010090F8321080F83310002480F8324004F0A2FF204668
S3251004A6E004F0ACFF40F29840C0F6010001794171047110BD002070477047704740F2204299
S3251004A700C0F6010292F82A10012915D130B542F25C7540F65854C0F60104C1F208052068C3
S3251004A72029460CF0F7FC206029460CF0E3FC20600120BDE8304070470020704710B50120AD
S3251004A74004F07CFF40F22040C0F6010090F8321080F83310142480F83240204604F056FFD1
S3251004A760204604F060FF40F29840C0F60100017941710121017110BD42F2747040F65851C1
S3251004A780C0F60101C1F20800086070477047704740F22042C0F6010292F82A10A9B930B547
S3251004A7A042F2447540F65854C0F60104C1F20805206829460CF0AEFC206029460CF09AFC17
S3251004A7C020600120BDE8304070470020704700B540F22041C0F6010191F8320081F83300B4
S3251004A7E0142081F8320004F0CBFE04F01CFF00BD002070477047704740F29832C0F60102DD
S3251004A8000020118940F2FF13994208BF70470A2924BF117D032918BF704730B542F2747567
S3251004A82040F65854C0F60104C1F20805206829460CF070FC206029460CF05CFC206001205E
S3251004A840BDE83040704710B540F65854C0F60104207901280DD028BF10BD42F24471C1F2C1
S3251004A8600801216008460CF045FC20600120207110BD2068BDE810400CF062BC30B542F6F6
S3251004A8808055C0F6010540F66854C0F6010442F2107370B928460122062106F0F6F940F2B1
S3251004A8A02041C0F6010120600A7F60B34A7701202BE001280ED105F108000122062106F016
S3251004A8C0E4F940F22041C0F6010120600A7F0028ECD118E0022808D040F22041C0F6010103
S3251004A8E020680A7F0028E1D10DE005F110000122062106F0CAF940F22041C0F60101206092
S3251004A9000A7F0028D2D120604877087730BDF0B50E461F4640F66855C0F6010542F210735A
S3251004A9201146012206F0B1F9286040F22044C0F6010460B9207F607742F21073002020770D
S3251004A94039463046012206F038FA286030B10120217F2077617700203080F0BD217F61770F
S3251004A9602077F0BD00B581B042F28C71C1F208010A788DF801204A780DF101008DF8022016
S3251004A980897842F210738DF803100122032106F07CF940F66851C0F60101086000280CBF99
S3251004A9A00120002001B000BD70B581B040F66054C0F601042178012906D160884FF6FF729B
S3251004A9C090423CBF0130608040F22045C0F6010595F82800002610280FD12079E0B90120E6
S3251004A9E0FFF74CFF6671A67126700120207195F82800668020280FD148E0202819D16079D0
S3251004AA00002844D1FFF73AFF26710121617195F82800A671202839D06088C82843D395F88D
S3251004AA20200042283DD13046FFF728FF2670668039E0402804BFA0790028EDD1012240F6B9
S3251004AA407050C0F6010042F28C71C1F2080142720B788DF801304B788DF8023089780DF112
S3251004AA6001008DF8031042F21073032106F00DF9A0600220FFF702FF267166710121A17191
S3251004AA80267095F8280066802028C5D121780029C2D195F820004228BED1012020706680FB
S3251004AAA001E02670668001B070BDF0B542F66854C0F60104FFF778FF40F22046C0F601062B
S3251004AAC096F828000127402818D1214604F115003B460222FFF71BFF207810F00300032841
S3251004AAE040F67051C0F601010CBF01200020087740F66C50C0F601000770F0BD40F670553A
S3251004AB00C0F6010528780146072800F29B800FF20802D2E801F000BF970516243342649A7E
S3251004AB2021463B46601D0222FFF7F1FE2078422800F28A8068722878AF70082828BFF0BD32
S3251004AB4086E021463B46E01D0222FFF7E0FE2078A8722878EF70082828BFF0BD78E0214664
S3251004AB6004F109003B460222FFF7D1FE2078E8722878EF70082828BFF0BD69E0214604F1F9
S3251004AB800B003B460222FFF7C2FE2078287328786F71082828BFF0BD5AE0214604F10D001B
S3251004ABA03B460222FFF7B3FE04F10F003B46611C0222FFF7ACFE2088A88296F82A10AF71AF
S3251004ABC0012905D128832878082828BFF0BD3FE0002028832878082828BFF0BD38E021467F
S3251004ABE004F111003B460222FFF791FE04F113003B46611C0222FFF78AFE208841F29411E3
S3251004AC00884210D3217903290DD80131217196F82A00EF7101280ED0002068832878082804
S3251004AC2028BFF0BD14E000212171E88296F82A00EF710128F0D1E88A68832878082828BF3F
S3251004AC40F0BD05E02F70F0BD2878082828BFF0BD01302870F0BD40F6C051C0F601010878A3
S3251004AC60013805D340F6C051C0F601010870704742F6DB51C0F601010878002818BF704729
S3251004AC8000B500F014FE002818BFFFF70EFF5DF804EB704740F67050C0F601000021C0F860
S3251004ACA0011040F66C53C0F60103C0F80510197041728222C28101734FF448728282C0F89D
S3251004ACC0161041830177704740F67051C0F601018878002818BF487A704740F67051C0F66D
S3251004ACE00101C878002818BF887A704740F67051C0F60101C878002818BFC87A704740F623
S3251004AD006C51C0F601010878002808BF704740F67051C0F60101087F704740F67051C0F6E4
S3251004AD2001014879002818BF087B704740F67051C0F601018879002818BF888A704740F64F
S3251004AD407051C0F60101C879002818BFC88A704740F67050C0F60100817949B140F22042E2
S3251004AD60C0F6010292F82A10012904BF008B70470020704740F67050C0F60100C17949B155
S3251004AD8040F22042C0F6010292F82A10012904BF408B70470020704740F67050C0F6010095
S3251004ADA0017A002914BFC089822070474FF4BA7241210138C0B2032869D220B942F6B65067
S3251004ADC0C0F60100028800210E2342F29070C1F20800B0F800C0624504D308001CBF0139D4
S3251004ADE0C8B27047B0F802C0624505D301310EBF08460139C8B27047B0F804C0624505D37C
S3251004AE0002310EBF08460139C8B27047B0F806C0624505D303310EBF08460139C8B27047B8
S3251004AE20B0F808C0624505D304310EBF08460139C8B27047B0F80AC0624505D305310EBF5A
S3251004AE4008460139C8B27047B0F80CC0624505D306310EBF08460139C8B27047B0F80EC0F9
S3251004AE60624505D307310EBF08460139C8B27047B0F810C0624505D308310EBF08460139F6
S3251004AE80C8B2704712300931013BA2D17D210846704740F60870C0F601000021018040F260
S3251004AEA09840C0F60100827DC27581757047002070477047704740F22042C0F6010292F8EA
S3251004AEC062100020012918BF704730B540F29842C0F60102917B40F69054C0F60104022958
S3251004AEE010D142F6A405C1F20805206829460CF011F9206029460CF0FDF820600120BDE893
S3251004AF003040704705290DD142F6AC15C1F20805206829460CF0FEF8206029460CF0EAF875
S3251004AF2020600120BDE83040704740F69451C0F60101012008700020487040F29840C0F686
S3251004AF400100817DC17504218175704740F22042C0F6010292F8760040F69051C0F60101B4
S3251004AF60032805D142F60410C1F2080008607047052805D142F61C10C1F20800086070474F
S3251004AF80062805D142F6D400C1F2080008607047042805D142F6EC00C1F2080008607047AD
S3251004AFA028B942F6BC00C1F208000860704700207047704740F69451C0F6010100200880BF
S3251004AFC0704730B540F69054C0F6010461790020462938BF30BD40F22042C0F6010292F8C2
S3251004AFE06210012916D140F29842C0F60102917B052918BF30BD42F6AC15C1F208052068B0
S3251004B00029460CF087F8206029460CF073F82060012030BD002918BF30BD40F29842C0F699
S3251004B0200102917B022908BF30BD42F68C05C1F20805206829460CF06DF8206029460CF03C
S3251004B04059F82060012030BD7047002070477047704730B540F69054C0F6010461794629F8
S3251004B0600ED342F63415C1F20805206829460CF051F8206029460CF03DF82060012030BDAA
S3251004B080002030BD7047002070477047704730B540F69054C0F6010440F22042C0F6010286
S3251004B0A092F8761092F8772000207AB171B942F6BC05C1F20805206829460CF02BF8206081
S3251004B0C029460CF017F82060012030BD03290ED142F60415C1F20805206829460CF01AF82D
S3251004B0E0206029460CF006F82060012030BD6279462A28BF062918BF30BD40F29831C0F6E9
S3251004B100010191F83D20022A08BF30BD91F83C10022918BF30BD42F63415C1F208052068C0
S3251004B12029460BF0F7FF206029460BF0E3FF2060012030BD7047002070477047704730B55A
S3251004B14040F69054C0F6010440F22042C0F6010292F8761092F8772000207AB171B942F6D5
S3251004B160BC05C1F20805206829460BF0D3FF206029460BF0BFFF2060012030BD05290ED12D
S3251004B18042F61C15C1F20805206829460BF0C2FF206029460BF0AEFF2060012030BD6279B9
S3251004B1A0462A28BF042918BF30BD40F29831C0F6010191F83B20022A08BF30BD91F83A10E3
S3251004B1C0022918BF30BD42F63415C1F20805206829460BF09FFF206029460BF08BFF2060A1
S3251004B1E0012030BD7047002070477047704730B540F69054C0F6010440F22041C0F6010126
S3251004B20091F87220012A0ED142F6BC05C1F20805206829460BF07EFF206029460BF06AFF74
S3251004B2202060012030BD62790020462A24BF91F87610032918BF30BD40F29831C0F6010166
S3251004B24091F83B20022A08BF30BD91F83A10022918BF30BD42F63415C1F208052068294616
S3251004B2600BF058FF206029460BF044FF2060012030BD7047002070477047704730B540F690
S3251004B2809054C0F6010440F22041C0F6010191F8772000208AB191F8762072B942F6BC05EC
S3251004B2A0C1F20805206829460BF034FF206029460BF020FF2060012030BD6279462A24BFCA
S3251004B2C091F87610052918BF30BD40F29831C0F6010191F83D20022A08BF30BD91F83C1005
S3251004B2E0022918BF30BD42F63415C1F20805206829460BF00FFF206029460BF0FBFE2060A1
S3251004B300012030BD704740F22041C0F6010191F8760040F29831C0F6010140F69053C0F682
S3251004B3200103C21E013A04D9022A1BD9032805D107E091F83A20042A18D0032818BF0428C8
S3251004B34019D191F83A20032A1DD0032818BF04281ED191F83A00022821D042F64C10C1F2AA
S3251004B360080020E091F83C20042A04D142F67C10C1F2080017E0052818BF0628E5D191F8DC
S3251004B3803C20032A04D142F69410C1F208000AE0052812BF062891F83C000228DDD142F6B3
S3251004B3A06410C1F2080018607047704770470020704740F6945CC0F6010C01218CF8001031
S3251004B3C040F29840C0F601000022837D8CF80120C37581758CF803207047002070477047B1
S3251004B3E040F69451C0F6010100200880704730B540F69054C0F60104617946290ED342F6E5
S3251004B4006415C1F20805206829460BF083FE206029460BF06FFE2060012030BD002030BD74
S3251004B42040F69453C0F6010301210020587040F29840C0F60100827DC27519700222827576
S3251004B440D970704700207047704740F69451C0F6010100200880704730B540F69054C0F65D
S3251004B4600104617946290ED342F69415C1F20805206829460BF04EFE206029460BF03AFE82
S3251004B4802060012030BD002030BD40F69452C0F60102012010700020507040F29840C0F6E1
S3251004B4A00100817DC175042181750220D070704700207047704740F69451C0F60101002088
S3251004B4C00880704730B540F69054C0F60104617946290ED342F64C15C1F2080520682946DF
S3251004B4E00BF018FE206029460BF004FE2060012030BD002030BD40F69452C0F601020120A4
S3251004B50010700020507040F29840C0F60100817DC175032181750220D070704700207047B2
S3251004B520704740F69451C0F6010100200880704730B540F69054C0F60104617946290ED324
S3251004B54042F67C15C1F20805206829460BF0E2FD206029460BF0CEFD2060012030BD002014
S3251004B56030BD40F69451C0F60101012008700020487040F29840C0F60100817DC175062164
S3251004B5808175704740F22042C0F6010292F8760040F69051C0F60101032805D142F604107B
S3251004B5A0C1F2080008607047052805D142F61C10C1F2080008607047062805D142F6D40046
S3251004B5C0C1F2080008607047042805D142F6EC00C1F208000860704728B942F6BC00C1F2EF
S3251004B5E008000860704700207047704740F69451C0F6010100200880704730B540F690544B
S3251004B600C0F6010461790020462938BF30BD40F22042C0F6010292F86210012916D140F27C
S3251004B6209842C0F60102917B022918BF30BD42F6A405C1F20805206829460BF06BFD2060E7
S3251004B64029460BF057FD2060012030BD002918BF30BD40F29842C0F60102917B052908BFD1
S3251004B66030BD42F68C05C1F20805206829460BF051FD206029460BF03DFD2060012030BD48
S3251004B68010B540F69054C0F601042079012804D16079FF283CBF01306071A07901280DD043
S3251004B6A028BF10BD42F68C01C1F20801216008460BF020FD20600120A07110BD2068BDE8A8
S3251004B6C010400BF03DBD40F69851C0F601010878704740F69851C0F60101012008707047D6
S3251004B6E030B540F69855C0F601052878002818BF30BD6978002979D1FEF776FF55283BD09A
S3251004B700FEF790FFFEF79AFFFEF7A6FFFEF7B0FFFEF7CBFF55210020FEF739FF02210120F9
S3251004B720FEF73EFF02210846FEF73AFF02210320FEF736FF40F22043C0F6010340F2984154
S3251004B7409879C0F60101D8710A7B0220987183F8460083F8470083F8480083F8490083F888
S3251004B7604A0083F84B0008730120687028784A73002818BF30BD3CE040F22044C0F6010475
S3251004B780A079E0710320FEF735FFA07194F8460084F847000120FEF72DFF84F8460084F8B3
S3251004B7A0470094F8480084F849000220FEF722FF84F8480084F8490094F84A0084F84B0031
S3251004B7C00320FEF717FF84F84A0040F29841C0F6010184F84B00087B4873A07908730120DE
S3251004B7E068702878002818BF30BD02E0012918BF30BD40F6AA51C0F6010148783C2805D316
S3251004B80040F6BA51C0F601010878012818BF5FF0000030BD00B504F003FB40F22040C0F66A
S3251004B8200100017941710121017190F8522080F8521090F8561080F85710002180F8532080
S3251004B84090F8582080F8561080F8592080F8581000BD40F69C51C0F601011F200860704729
S3251004B86040F69C51C0F6010108787047704700B581B00DF1020001210BF020FEBDF802000D
S3251004B88001B000BD00B581B00DF1020001210BF010FEBDF8020001B000BD00B581B00DF106
S3251004B8A003000BF02DFE9DF8030001B000BD00B581B00DF103000BF01CFE9DF8030001B0FA
S3251004B8C000BD00B581B00DF103000BF00BFE9DF8030001B000BD00B581B00DF10200012198
S3251004B8E00BF0F1FDBDF8020001B000BD00B581B00DF1020001210BF0EBFDBDF8020001B0CD
S3251004B90000BD00B581B00DF1020001210BF0E5FDBDF8020001B000BD10B540F6AC54C0F695
S3251004B9200104A079012804D1E079FF283CBF0130E071FFF7C8FE0122618818B9A079218180
S3251004B94048BB54E040F2EF40814203D2A079227108BB4CE0B1F5A46F04D802202071A079A1
S3251004B960C8B944E0B1F5D06F04D203202071A07988B93CE040F2B260814204D20420207191
S3251004B980A07940B933E040F64D4081420CD205202071A07958B32079E37A98422AD0E0720E
S3251004B9A0A2710020E07110BD40F67F40814205D206202071A0790028EDD118E040F6C85091
S3251004B9C0814205D207202071A0790028E3D10EE040F6FA50814205D208202071A079002804
S3251004B9E0D9D104E009202071A0790028D3D1A271E07110BDE079032828BF218110BD10B431
S3251004BA0042F6A254C0F6010440F6B452C0F60102108840F2EF41884212D20120A072607281
S3251004BA2040F22150E08040F2B260208000202072E07240F67F40608040F6FA50A080D0E0DC
S3251004BA40B0F5A46F15D8607A01280CBF40F221500846E08040F2B26020800120A0720020D1
S3251004BA602072E07240F67F40608040F6FA50A080B7E0B0F5D06F0FD20120A07240F2B26080
S3251004BA80208000202081E07240F67F406080E18040F6FA50A080A4E040F2B261884220D27E
S3251004BAA0A07A01280DD1218000202081E07240F2EF40E08040F67F40608040F6FA50A08061
S3251004BAC08FE04FF4D060208000202081E07240F2EF40E08040F67F40608040F6FA50A08081
S3251004BAE07FE040F64D41884211D20020A4F80900E072207240F2EF40E0804FF4D0602080DF
S3251004BB0040F67F40608040F6FA50A08069E040F67F41884222D2207A012810D140F64D4032
S3251004BB2060800020A4F80900E07240F2EF40E0804FF4D060208040F6FA50A08051E000202F
S3251004BB40A4F80900E07240F2EF40E0804FF4D0602080618040F6FA50A08042E040F6C8510E
S3251004BB60884212D20120207240F64D4060800020A4F80900E07240F2EF40E0804FF4D0605C
S3251004BB80208040F6FA50A0802BE040F6FA51884215D2E07A01280CBF40F6C8500846A08004
S3251004BBA040F64D406080012020720020A4F8090040F2EF40E0804FF4D060208011E040F655
S3251004BBC04D40608001202072E0720020A4F8090040F6C85140F2EF40E080A1804FF4D06070
S3251004BBE0208010BC704730B4014642F6A254C0F6010440F6B455C0F601050120013909D3C2
S3251004BC000DD0022910D314D12888A18888420FD300200EE02888E1888842F9D208E0288861
S3251004BC2021888842F4D203E0288861888842EFD2012030BC704730B4014642F6A254C0F6D7
S3251004BC40010440F6B455C0F601050120013909D30DD0022910D314D12888A18888420FD23F
S3251004BC6000200EE02888E1888842F9D308E0288821888842F4D303E0288861888842EFD313
S3251004BC80012030BC704730B50220FFF7ACFF054640F22044C0F6010401281DD1FFF7CBFFAB
S3251004BCA0012819D194F83A3084F83B3094F83C30002184F83A1084F83D3094F83E2084F84C
S3251004BCC03C1084F83F2084F83E100320FFF78BFF054601281AD14DE075BB012294F83A30E1
S3251004BCE084F83A2084F83B3094F83C3084F83C2094F83E2084F83D3084F83F2084F83E50E5
S3251004BD000320FFF770FF0546012833D0002D4AD1012294F8403084F8402084F8413094F84E
S3251004BD20423084F8422094F8442084F8433084F8452084F8445030BD0120FFF77CFF020048
S3251004BD4012D1012194F83A3084F83A1084F83B3094F83C3084F83C2094F83E2084F83D307E
S3251004BD6084F83F2084F83E100320FFF73CFF05460128CBD10020FFF75EFF0128C6D194F8E1
S3251004BD80403084F8413094F84230002184F8401084F8433094F8442084F8421084F84520B3
S3251004BDA084F8441030BD0020FFF745FF020018BF30BD012194F8403084F8401084F84130B5
S3251004BDC094F8423084F8422094F8442084F8433084F8452084F8441030BD70B440F6A4549E
S3251004BDE0C0F60104A079002301280DD1E079FF280ED20130E071C0B23C2809D2607A6188D5
S3251004BE00002840F0B7807AE050B3E0793C28F5D3607A012871D140F22040C0F6010090F881
S3251004BE20541021B980F85510012180F85410227904F12C004FEA420C61882CF8001001323C
S3251004BE40D2B2642A28BF1A462271A28A914229D1227A0132D2B21E2A09D222720A2223E0AA
S3251004BE600120A071E37163722371618882E023720A25024622F8141B22F8121C22F8101C8B
S3251004BE8022F80E1C22F80C1C22F80A1C22F8081C22F8061C22F8041C22F8021C013DE9D1DE
S3251004BEA00A2201E023720A2230F814CB634430F8126C30F810CC9B19634430F80E6C30F81D
S3251004BEC00CCC9B19634430F80A6C30F808CC9B19634430F8066C30F804CC9B1930F8026C44
S3251004BEE063449B19013ADFD148F21F52C5F2EB12A3FB0220400960813CE06188D0BB22796E
S3251004BF004FEA420C04F12C002CF800100132D2B2642A38BF22712DD30122627223710A22A5
S3251004BF2030F814CB634430F8126C30F810CC9B19634430F80E6C30F80CCC9B19634430F80F
S3251004BF400A6C30F808CC9B19634430F8066C30F804CC9B1930F8026C63449B19013ADFD1D8
S3251004BF6048F21F52C5F2EB12A3FB0220400960810120A075A18270BC70472DE9F04842F69C
S3251004BF80AE54C0F6010440F6C455C0F60105A078002101280CD1A1702170A38805F1D40CDD
S3251004BFA0A5F8D4308E4610F0070200F0B480ABE02078012876D16078A388420005F1D40C17
S3251004BFC022F80C300130C0B21E2828BF084660700322604630F8143BC91830F8124C30F832
S3251004BFE0103C0919C91830F80E4C30F80C3C0919C91830F80A4C30F8083C0919C91830F8CE
S3251004C000064C30F8043C091930F8024CC9180919013ADFD13CF8022B1346604604460727EE
S3251004C02034F808CB9C4538BF634634F806CC9C4538BF634634F804CC9C4538BF634634F83E
S3251004C04002CC9C4538BF6346013FE9D1B4F800C09C4538BF6346072630F808CB944588BF48
S3251004C060624630F806CC944588BF624630F804CC944588BF624630F802CC944588BF6246BE
S3251004C080013EE9D10088904288BF0246C91A891A880844F62511C2F29241A0FB0110688003
S3251004C0A0BDE8F088002818BFBDE8F08805F1D40C6078A38842008E4622F80C300130C0B245
S3251004C0C083465FEADB031CD062464FEAC30E32F8107BC91932F80E6C32F80C7C8919C91947
S3251004C0E032F80A6C32F8087C8919C91932F8066C32F8047C891932F8026CC9198919013B14
S3251004C100E5D11BF0070206D00CEB4E0333F802CB6144013AFAD1B1FBF0F1A9801E283CBF83
S3251004C1206070BDE8F088012020706270BDE8F08810B440F6C454C0F6010442F6AE51C0F69E
S3251004C14001010878002814BF6088A08810BC704730B440F6A454C0F601042078012804D152
S3251004C1606178FF293CBF013161706288002140F2EF43D31A40F60C1C63450CD340F22042D1
S3251004C180C0F6010292F8340082F83500022082F83400218024E040F22153D21A40F6A80377
S3251004C1A09A421DD240F22042C0F6010292F834300125022B08BF002802D1257061700FE0F5
S3251004C1C0012808D1607812280AD982F8353082F83450218004E018B982F8353082F834503E
S3251004C1E030BC704710B581B040F6A454C0F601040DF1020001210BF061F9BDF80200608095
S3251004C200FFF7EBFDA07D012805D1FFF785FBFFF7F6FBFFF738FD01B010BD00B581B00DF120
S3251004C220020001210BF045F9BDF8020042F6B251C0F601010880FFF7A0FE01B000BD10B48F
S3251004C24040F6B454C0F60104A078013805D30DD0012818D00020A07022E02088B0F5C86FFE
S3251004C26015D340F6A44188421AD904E0208840F6A441884202D90220A07011E040F2AE6134
S3251004C28088420DD30AE02088B0F5C86F02D20120A07005E040F63641884201D80020A07002
S3251004C2A010BC704740F6C451C0F601010870704740F6C451C0F601010878704740F6CA5124
S3251004C2C0C0F601013220087070472DE9F00883B000F1FF328C4642F69A54C0F6010442F6BD
S3251004C2E0C410C1F208006D4690E80B0085E80B00D2B20027A079E61C012803D12780C4F8C1
S3251004C3000370A77040F6D46BA35C02EB820558194000C0F6010B20F80BC0581CB15CC3B245
S3251004C32001291CD1052B28BF3B460BEB4501A35410466A460B8852F820004A8818181018D4
S3251004C3408A881018CA88098910180A184CF6CD40CCF6CC40A2FB0001890888B220E0EC46A3
S3251004C3609F4209D35CF82250B5FBF3F5ADB2052B12D2A354284613E039460BEB450B5CF8A4
S3251004C38022503BF802CB654401319942F9D3B5FBF3F5ADB2052BECD3A7540120B05428461B
S3251004C3A003B0BDE8F008704710B581B042F6B254C0F601040DF1020001210BF084F8BDF81F
S3251004C3C0021061800120FFF780FFA08001B010BD10B581B042F6B254C0F601040DF102002D
S3251004C3E001210BF075F8BDF8021061800220FFF76CFFE08101B010BD10B581B042F6B2545B
S3251004C400C0F601040DF1020001210BF066F8BDF8021061800320FFF758FF208201B010BD94
S3251004C42010B582B042F6B254C0F601040DF1020001210BF048F8BDF8021061800120FFF7D6
S3251004C44044FFA08001A801210BF042F8BDF8041061800220FFF739FFE0810DF106000121DE
S3251004C4600BF03BF8BDF8061061800320FFF72DFF2082A0880D3840F6B421884240F6CB544A
S3251004C480C0F601042CBF01200020207002B010BD2DE9F04483B040F6B454C0F6010401A86D
S3251004C4A001210BF006F8A67ABDF804A0012E04D1E07AFF283CBF0130E072277A012F04D125
S3251004C4C0607AFF283CBF01306072FFF741FE01257FB9BAF54D7F0CD825726772A772E7726F
S3251004C4E040F220462088C0F60106B0F5967F4FD342E086B940F2965082450CD3E67226723A
S3251004C5006672A57240F220462088C0F60106B0F5967F3DD330E0012F12D1607A08280FD33C
S3251004C52040F22046C0F6010696F8380086F83900002086F838002088B0F5967F28D31BE0E1
S3251004C540012E02D1E07A0A2808D240F220462088C0F60106B0F5967F1AD30DE040F2204630
S3251004C560C0F6010696F8380086F83900208886F83850B0F5967F0BD30DF102000AF0B9FF6F
S3251004C5809DF8020020B92846FCF7F0FE14202073717B307B012905D0012803D17073FEF790
S3251004C5A079FB307B96F85C1086F85D1086F85C50012840F0AB800DF103000AF09AFF9DF886
S3251004C5C00300002800F0A280207B002840F09E8096F8200042F6B25786F82100C0F60107A7
S3251004C5E0FEF772FB86F8200096F8220086F82300FEF773FB86F8220096F8240086F8250078
S3251004C600FEF774FB86F82400FEF799FBF880FEF78DFB388196F820000B280FD196F8221042
S3251004C620112904D1B17F0320F177B0771CE0132904D1B17F0420F177B07715E096F8241048
S3251004C640102904D1B17F0520F177B0770CE0012804D1B17F0220F177B07705E0422803D1E0
S3251004C660B17FF1770020B0770DF1060029460AF02AFFBDF8061079802846FFF726FEB880A7
S3251004C68002A829460AF024FFBDF8081079800220FFF71BFEF8810DF10A0029460AF01DFF4D
S3251004C6A0BDF80A1079800320FFF70FFE3882B8880D3840F6B42188422CBF01200020E075DD
S3251004C6C096F82800402807D196F8260086F82700FEF715FB86F8260096F82A00012810D186
S3251004C6E0307840F6F461C0F601017070C878307001281CBFB078012803D1B07EF076B5768D
S3251004C70008E0B07EF0760020B07603E0B07FF0770020B07703B0BDE8F08410B440F6F46261
S3251004C720C0F6010202EBC00002790024914208BFA0F8054024D082790132D2B269B990F813
S3251004C74002C062450DD3847101224271027804718AB90122C270C17112E090F801C0624510
S3251004C76003D282714471C1710AE08471012242710278017112B9C470C17101E0C170C171DA
S3251004C78010BC70474BF69B01C1F20401C9B20020FFF7C3BF70B581B040F6C055C0F60105F7
S3251004C7A040F22044C0F6010494F82A000026012819D10DF103000AF095FE9DF80310687809
S3251004C7C081420AD16888013080B264280FD3A078E0700120A070304609E0A078E0706970A7
S3251004C7E0A670304603E0A078E0703046A670688001B070BD00B581B00DF103000AF080FE97
S3251004C8009DF8030001B000BD42F6D012C1F20802136840F6F461C0F6010150680B60936845
S3251004C82048608B60D26842F6B650CA60C0F601000021817140F6CB52C0F60102C0F8021009
S3251004C84011704FF4BA7202808222028140F22040C0F60100012202724272A0F84C10C0F8E5
S3251004C8600A10C0F80E10C0F81210C0F81610C0F81A10C183C0F82210C0F82610C185C0F8FA
S3251004C8802A10252380F8303080F83130C0F85A1081860187A0F86210A0F8661080F8682082
S3251004C8A080F86920A0F87610704742F6D012C1F20802136840F6F460C0F6010051680360D9
S3251004C8C0936841608360D26842F6B651C260C0F601010020887140F6CB52C0F60102C1F88E
S3251004C8E0020010704FF4BA720A8082220A8140F22041C0F60101A1F84C00C1F80A00C1F8C8
S3251004C9000E00C1F81200C1F81600A1F85C00C1F81A00C883C1F82200C1F82600488508872C
S3251004C920A1F86200A1F86600012281F8682081F86920A1F876007047704710B540F22044E5
S3251004C940C0F6010494F82C0094F82D20012859D194F85A10012928D1012A13D0C82002F01D
S3251004C9600FFE0146012002F00CFE94F82C0084F82D0040F29840C0F601008178C1700121BE
S3251004C980817010BD94F85B00012832D0C82002F0F7FD012102F01FFE40F29840C0F60100ED
S3251004C9A08178C1700121817010BD94F83000012A12D002F0E5FD0146012002F0E2FD94F8F1
S3251004C9C02C0084F82D0040F29840C0F601008178C1700121817010BD94F83120824203D128
S3251004C9E094F85B202AB121B902F0CAFD012102F0F2FD40F29840C0F601008178C170012198
S3251004CA00817010BD002A08BF10BD002818BF10BD012002F0D1FD40F29840C0F60100817819
S3251004CA20C1700021817094F82C0084F82D0010BD10B540F22044C0F6010494F82E0094F80F
S3251004CA402F20012859D194F85A10012928D1012A13D0C82002F094FD0146002002F091FDA1
S3251004CA6094F82E0084F82F0040F29840C0F60100017841700121017010BD94F85B000128DC
S3251004CA8032D0C82002F07CFD002102F0A4FD40F29840C0F60100017841700121017010BD28
S3251004CAA094F83000012A12D002F06AFD0146002002F067FD94F82E0084F82F0040F298400E
S3251004CAC0C0F60100017841700121017010BD94F83120824203D194F85B202AB121B902F0D8
S3251004CAE04FFD002102F077FD40F29840C0F60100017841700121017010BD002A08BF10BD40
S3251004CB00002818BF10BD02F057FD40F29840C0F60100017841700021017094F82E0084F836
S3251004CB202F0010BD10B540F22044C0F6010494F82C0094F82D10012855D194F85A0038BB20
S3251004CB40012913D0782002F01BFD0146012002F018FD94F82C0084F82D0040F29840C0F67C
S3251004CB6001008178C1700121817010BD94F85B0080B3782002F004FD012102F02CFD40F27C
S3251004CB809840C0F601008178C1700121817010BD012913D0C82002F0F3FC0146012002F0B2
S3251004CBA0F0FC94F82C0084F82D0040F29840C0F601008178C1700121817010BD94F85B104C
S3251004CBC0012907D0012805D1C82002F0D9FC012102F001FD40F29840C0F601008178C1708F
S3251004CBE00121817010BD002908BF10BD002818BF10BD012002F0E0FC40F29840C0F6010002
S3251004CC008178C1700021817094F82C0084F82D0010BD10B540F22044C0F6010494F82E00C0
S3251004CC2094F82F10012855D194F85A0038BB012913D0782002F0A4FC0146002002F0A1FCBA
S3251004CC4094F82E0084F82F0040F29840C0F60100017841700121017010BD94F85B0080B3F0
S3251004CC60782002F08DFC002102F0B5FC40F29840C0F60100017841700121017010BD01294E
S3251004CC8013D0C82002F07CFC0146002002F079FC94F82E0084F82F0040F29840C0F6010051
S3251004CCA0017841700121017010BD94F85B10012907D0012805D1C82002F062FC002102F08E
S3251004CCC08AFC40F29840C0F60100017841700121017010BD002908BF10BD002818BF10BDE0
S3251004CCE002F06AFC40F29840C0F60100017841700021017094F82E0084F82F0010BD00B55E
S3251004CD00FFF71BFEFFF794FE00BD40F60873C0F6010340F29840C0F60100817BC173002128
S3251004CD20817340F22040C0F60100027B427390F82C20017380F82D2090F82E2080F82C10D3
S3251004CD4080F82F2080F82E10598090F82A2080F82B2090F85E2080F82A1080F85F2090F897
S3251004CD60622080F85E1080F8632090F8282080F8621080F8292080F8281099601971D9802F
S3251004CD801973A3F80D1019807047002070477047704730B540F6047440F22042C0F60102C0
S3251004CDA0C0F60104917A206801290BD042F6F815C1F2080529460AF0ADF9206029460AF009
S3251004CDC099F90AE042F61025C1F2080529460AF0A1F9206029460AF08DF92060012030BD90
S3251004CDE040F60873C0F6010340F29840C0F60100817BC1730021817340F22040C0F601005F
S3251004CE0090F85E2080F85F2090F82C2080F85E1080F82D2090F82E2080F82C1080F82F202B
S3251004CE2080F82E101960704710B440F60474C0F6010440F22042C0F60102917A022905D16C
S3251004CE4042F64020C1F20800206006E0002021B942F62820C1F20800206010BC7047704710
S3251004CE6040F60C71C0F6010100204860087048800872A1F80900704740F22042C0F6010205
S3251004CE80917A012915D130B542F6102540F60474C0F60104C1F20805206829460AF03AF9BE
S3251004CEA0206029460AF026F920600120BDE8304070470020704740F22040C0F60100017B47
S3251004CEC0417301210173704742F6582040F60471C0F60101C1F208000860704770477047DC
S3251004CEE040F22042C0F60102917A012915D030B542F6F81540F60474C0F60104C1F208055E
S3251004CF00206829460AF006F9206029460AF0F2F820600120BDE83040704700207047704739
S3251004CF2010B440F60474C0F6010440F22040C0F6010090F8391011B190F8381011B1007BC1
S3251004CF40012804D142F68820C1F2080003E042F6A020C1F20800206010BC70477047704717
S3251004CF6040F22042C0F60102917A022915D130B542F6402540F60474C0F60104C1F2080583
S3251004CF80206829460AF0C6F8206029460AF0B2F820600120BDE8304070470020704740F6BB
S3251004CFA00C73C0F6010340F22041C0F60101087B487391F82820002081F829200873102235
S3251004CFC081F828205860187058801872A3F809007047002070477047704740F22042C0F6EA
S3251004CFE00102917AA9B930B542F6A02540F60474C0F60104C1F20805206829460AF08AF829
S3251004D000206029460AF076F820600120BDE8304070470020704740F22040C0F6010090F88A
S3251004D0205E1080F85F10002180F85E1090F82C2080F82C1090F8281080F8291080F82D20BC
S3251004D040102180F82810704710B440F60474C0F6010440F22041C0F60101087C012807BF33
S3251004D06042F6B820C1F2080042F6D020C1F20800206010BC70477047704730B540F22041FF
S3251004D080C0F6010100208A7F40F60474C0F60104042A21D18A7B002A01BF0A7D002A0A7CE6
S3251004D0A0002A06BF897C002930BD40F6B652C0F601021178002918BF30BD42F63035C1F28F
S3251004D0C00805206829460AF025F8206029460AF011F82060012030BD032A01BF8A7B002A7F
S3251004D0E00A7D002A01BF0A7C002A897C002918BF30BD40F6B652C0F601021178002918BF83
S3251004D10030BD42F61835C1F20805206829460AF001F82060294609F0EDFF2060012030BD77
S3251004D12040F22040C0F6010090F8281080F82910202180F82810704742F6E82040F6047188
S3251004D140C0F60101C1F2080008607047704740F22040C0F60100817FC177002190F82A20F8
S3251004D160817780F82B2090F85E2080F82A1080F85F2090F8622080F85E1080F8632080F8C8
S3251004D1806210704740F22041C0F601018A7B0020012A1FBF0A7D012A8A7C012A1CBF097C90
S3251004D1A0012907D040F6B652C0F601021178002908BF704730B542F6582540F60474C0F62F
S3251004D1C00104C1F208052068294609F0A3FF2060294609F08FFF20600120BDE830407047FB
S3251004D1E010B440F60C74C0F6010440F22040C0F601008179012915D040F6B652C0F6010297
S3251004D200117879B92279012A02D161795A2909D2A179E37901291ED1642B24BF90F82610A9
S3251004D220002918D140F29841C0F601018A7BCA7300228A73017B417390F8281080F82910FD
S3251004D2400273102180F828106260227062802272A4F8092090E0A17A012944D190F827C096
S3251004D260BCF1000F3FD090F826C0BCF1000F3AD1217184F805C0A3F10A025B2A3ED36288A1
S3251004D28041F270739A4228BF012904BF90F82620012A53D140F29831C0F6010191F82A200B
S3251004D2A0012A1FBF91F82620012A91F83020012A1CBF91F82E10012931D140F29841C0F6BE
S3251004D2C001018A7BCA7300228A73017B417390F82810027380F82910A272102180F82810C6
S3251004D2E02270628048E0012A01BF90F82620012A0022A280A3F10A025B2AC0D290F82620CB
S3251004D300012ABCD140F29841C0F60101887B8A73C873A2720021E180227061802CE040F2F6
S3251004D3209841C0F60101887BC873042088730020207060800121217260721DE0627A322A99
S3251004D34028BF012904BF90F82610012914D140F29841C0F601018A7BCA7300228A73017B72
S3251004D360417390F82810227280F829100273102180F82810A4F8092010BC704740F6107284
S3251004D380C0F601020020D0709071012140F22040C0F60100917090F8281080F8291040211B
S3251004D3A080F82810FFF71CBF00207047FFF718BF40F29840C0F60100817BC1730021817328
S3251004D3C0704700207047704700207047704770470020704710B440F60874C0F60104A37886
S3251004D3E0022B47D0627840F22040C0F601000021322A24BF94F803C0BCF10A0F09D390F8D3
S3251004D4002E2080F82F2080F82E100220A070218030E094F800C0BCF1000F0DD190F82E2088
S3251004D42080F82F20012280F82E20E078A2700130E070227061701DE07BB9322A1AD390F8D2
S3251004D4402E2080F82F200122A270227080F82E20E07861700130E0700CE0012B0AD1322A17
S3251004D46008D390F82E2080F82F2080F82E102370A4F8011010BC704740F60872C0F6010238
S3251004D48040F29840C0F60100817BC1730521817300205080FFF79EBF00207047FFF79ABFFE
S3251004D4A040F60871C0F6010100200860704740F22042C0F60102117CA9B930B542F6D0255E
S3251004D4C040F60474C0F60104C1F208052068294609F020FE2060294609F00CFE2060012068
S3251004D4E0BDE8304070470020704740F29840C0F60100817BC1730021817340F22040C0F621
S3251004D500010090F82E2080F82F2080F82E107047002070477047704730B540F22041C0F673
S3251004D520010140F604740A7CC0F60104012A0ED142F6B825C1F208052068294609F0EAFD2A
S3251004D5402060294609F0D6FD2060012030BD8A7B0020002A18BF30BD0A7D002A18BF30BDE0
S3251004D560897C002918BF30BD40F6B652C0F601021178002918BF30BD42F67025C1F20805A5
S3251004D5802068294609F0C6FD2060294609F0B2FD2060012030BD40F29840C0F60100817BDC
S3251004D5A0C1730021817340F22040C0F6010090F82C2080F82D2090F82E2080F82C1080F824
S3251004D5C02F2090F85E2080F82E1080F85F2090F82A2080F85E1080F82B2090F8622080F832
S3251004D5E02A1080F8632080F862107047002070477047704730B540F22042C0F60102917FB4
S3251004D60040F60474C0F6010405290ED142F60035C1F208052068294609F07CFD20602946F5
S3251004D62009F068FD2060012030BD03290ED142F61835C1F208052068294609F06BFD2060BC
S3251004D640294609F057FD2060012030BD0020042918BF30BD42F63035C1F208052068294601
S3251004D66009F058FD2060294609F044FD2060012030BD40F60873C0F6010340F29840C0F660
S3251004D6800100817BC1730521817340F22040C0F6010090F82C1080F82D10002190F85E203C
S3251004D6A080F82C1080F85F2090F82A2080F85E1080F82B2090F8622080F82A1080F8632073
S3251004D6C080F862105980FFF785BE00207047FFF781BE40F60871C0F6010100200860704782
S3251004D6E030B540F22042C0F60102917F40F60474C0F60104022918BF00290ED142F6E82516
S3251004D700C1F208052068294609F004FD2060294609F0F0FC2060012030BD002003290ED1B1
S3251004D72042F61835C1F208052068294609F0F2FC2060294609F0DEFC2060012030BD04292F
S3251004D74018BF30BD42F63035C1F208052068294609F0E0FC2060294609F0CCFC2060012071
S3251004D76030BD40F22040C0F6010090F82C1080F82D1090F86A10022907BF01220021002287
S3251004D780012180F82C2090F82E2080F82F2080F82E10704740F29840C0F60100817BC1738E
S3251004D7A00221817340F22040C0F6010090F85E1080F85F10012180F85E1090F82A2080F8C0
S3251004D7C02A1080F82B2090F8622080F8621090F82C1080F82D1090F86A1080F8632002299D
S3251004D7E019BF002201210122002180F82C2090F82E2080F82F2080F82E107047002070470A
S3251004D80040F22040C0F6010090F82C1080F82D1090F86A10022919BF00220121012200219F
S3251004D82080F82C2090F82E2080F82F2080F82E107047704730B540F22042C0F60102917F07
S3251004D84040F60474C0F60104022918BF00290ED142F6E825C1F208052068294609F05AFCF0
S3251004D8602060294609F046FC2060012030BD002005290ED142F60035C1F208052068294685
S3251004D88009F048FC2060294609F034FC2060012030BD042918BF30BD42F63035C1F208053D
S3251004D8A02068294609F036FC2060294609F022FC2060012030BD40F29840C0F60100817BDB
S3251004D8C0C1730321817340F22040C0F6010090F82C1090F82E2080F82D1080F82F20012161
S3251004D8E0002280F82E2090F85E2080F82C1080F85F2090F82A2080F85E1080F82B2090F872
S3251004D900622080F82A1080F8632080F862107047002070477047704730B540F22042C0F6A9
S3251004D9200102917F40F60474C0F60104022918BF00290ED142F6E825C1F20805206829464B
S3251004D94009F0E8FB2060294609F0D4FB2060012030BD002005290ED142F60035C1F2080532
S3251004D9602068294609F0D6FB2060294609F0C2FB2060012030BD032918BF30BD42F6183524
S3251004D980C1F208052068294609F0C4FB2060294609F0B0FB2060012030BD10B540F604746A
S3251004D9A0C0F60104207B012804D1607BFF283CBF01306073A07B012804D1E07BFF283CBF62
S3251004D9C00130E073207A012806D160894FF6FF7188423CBF01306081207C012804D1607C24
S3251004D9E0FF283CBF013060742079012804D16079FF283CBF01306071207D012806D1E08A4B
S3251004DA004FF6FF7188423CBF0130E082207E01280DD028BF10BD42F6E011C1F20801216021
S3251004DA20084609F067FB20600120207610BD2068BDE8104009F084BB10B540F61D74C0F628
S3251004DA400104A078012804D1E078FF283CBF0130E070A079012804D1E079FF283CBF0130D3
S3251004DA60E071207A012804D1607AFF283CBF013060722079013808D326D0012800F0BE80AA
S3251004DA80E0780C2838BF10BD6CE140F22040C0F60100C27A817A012A02D0012901D01AB18C
S3251004DAA011B9C1724FF039F94FF047F94FF02FF905F03EF808B9012020714FF02EF9E0789C
S3251004DAC00C2838BF10BD4DE140F22040C0F60100817AC27A02296AD1022A1AD0C17240F2A5
S3251004DAE09830C0F6010090F8401080F8411090F8421080F843104FF00AF9012060714FF0D4
S3251004DB0006F905F064FD06F0DBFB002840F0268163E040F29830C0F6010090F8412090F866
S3251004DB204010012A03D0012903D0032A1DD003291BD190F8422080F8411080F843204FF081
S3251004DB40E6F840F63471C0F601010120087000204880012060714FF0DAF805F038FD06F096
S3251004DB60AFFB002840F0FA8037E090F84320012A26D090F84220012A22D180F8411080F8A3
S3251004DB8043204FF0C4F840F63471C0F601010120087000204880012060714FF0B8F805F023
S3251004DBA016FD06F08DFB002840F0D88015E0012A02D0012901D01AB111B9C1724FF0ADF871
S3251004DBC06079002800F0CA804FF0A1F805F0FFFC06F076FB002840F0C180607102202071A4
S3251004DBE0002004F08CFF41F24820C0F6010004F008FFE0780C2838BF10BDB3E005F0ADF9A1
S3251004DC0040F22040C0F60100C27A817A012A02D0012901D052B149B9C17201202070002069
S3251004DC2004F06DFF002840F0898060E040F29830C0F6010090F8412090F84010012A03D059
S3251004DC40012903D0032A23D0032921D190F8422040F6347CC0F6010C01238CF800300023E1
S3251004DC60ACF8023080F8411080F8432002202070184604F044FF41F24820C0F6010004F083
S3251004DC80C0FE00202070E0780C2838BF10BD69E090F84320012A22D090F84220012A1ED157
S3251004DCA040F6347CC0F6010C8CF800200023ACF8023080F8411080F8432002202070184650
S3251004DCC004F01DFF41F24820C0F6010004F099FE00202070E0780C2838BF10BD42E0207883
S3251004DCE098B3012812D1002004F009FF30BB41F2F021C0F6010181F816030120207100204C
S3251004DD002070E0780C2838BF10BD2BE002280FD1002004F0F4FE41F24820C0F6010004F0A8
S3251004DD2070FE00202070E0780C2838BF10BD19E0032803D14EF0F1FF0120207100202070D3
S3251004DD40E0780C2838BF10BD0CE041F2F021C0F601010878012804BF03202070E0780C28C6
S3251004DD6038BF10BD002140F29840C0F601006180827EC276817610BD40F63073C0F6010373
S3251004DD8040F22040C0F60100817AC17200218172197190F84C20D98080F84D2080F84C104E
S3251004DDA019807047002070477047704730B5002040F6B652C0F6010240F62C741178C0F6A3
S3251004DDC0010431BB40F29831C0F6010191F8413091F84020012B03D0012A0BD0032B01D09E
S3251004DDE0032A07D091F84320012A12D091F8421001290ED142F66035C1F2080520682946A4
S3251004DE0009F088F92060294609F074F92060012030BD40F22041C0F601010A793AB98A79C7
S3251004DE20022A04BF91F8361001292DD030BD012A14D18A79022A18BF30BD91F83820012AE7
S3251004DE4004BF91F85220012A1ED091F85420012A04BF91F85210002916D030BD022A01BF13
S3251004DE608A79022A91F83810012918BF30BD40F29831C0F6010191F84020012A1DBF032ACA
S3251004DE8091F84210012930BD42F67835C1F208052068294609F03EF92060294609F02AF99F
S3251004DEA02060012030BD10B440F63074C0F6010440F29830C0F6010090F84110022903D0D9
S3251004DEC090F84020022A07D090F84320022A0AD090F84230022B06D1012200200521227053
S3251004DEE06070217213E090F84030012903D0012B09D0032901D0032B05D0012A07D090F82E
S3251004DF004200012803D1002020800621217210BC704730B540F63474C0F6010440F220409B
S3251004DF20C0F60100817AC172022101258172257000206080FFF7B7FF257130BD002070470B
S3251004DF4000B5FFF7B0FF40F63871C0F601010220087000BD40F63071C0F601010020087137
S3251004DF60C8800880704730B540F62C74C0F6010461790020322904D2628941F270739A4282
S3251004DF801BD340F22042C0F601029379022B04BF92F83820012A10D142F67835C1F208059D
S3251004DFA02068294609F0B6F82060294609F0A2F8032120602173012030BD40F6B653C0F6EC
S3251004DFC001031A783AB9322905D2618941F27072914238BF30BD42F64835C1F208052068B9
S3251004DFE0294609F097F82060294609F083F8042120602173012030BD40F22040C0F601001D
S3251004E000817AC1720121817240F63070C0F60100002101807047002070477047704730B593
S3251004E020002040F6B652C0F6010240F62C741178C0F6010431BB40F29831C0F6010191F86D
S3251004E040412091F84030012A03D0012B0BD0032A01D0032B07D091F84320012A12D091F8C2
S3251004E060421001290ED142F66035C1F208052068294609F04FF82060294609F03BF82060CC
S3251004E080012030BD40F22041C0F601010A79012A12BF022A91F83820002A06D08A79012A53
S3251004E0A01EBF91F83810002930BD42F64835C1F208052068294609F02DF82060294609F010
S3251004E0C019F82060012030BD10B540F62C74C0F60104207A012806D160894FF6FF7188422F
S3251004E0E03CBF013060812079012804D16079FF283CBF01306071607B01280DD028BF10BDD0
S3251004E10042F64831C1F208012160084608F0F2FF20600120607310BD2068BDE8104009F009
S3251004E1200FB842F6DB51C0F601010878012818BF704740F22040C0F6010090F82810A029D9
S3251004E14015D010B580F82910A02180F82810002001F032FA012001F02FFA0124182001F013
S3251004E1600FFA01462046BDE8104001F00ABA40F66471C0F6010108780130C0B214280ED124
S3251004E18010B50870012001F017FA0024182001F0F7F901462046BDE8104001F0F2B928283A
S3251004E1A01CBF0870704710B50020087001F004FA0124182001F0E4F901462046BDE8104022
S3251004E1C001F0DFB930B540F64074C0F601042078012806D160884FF6FF7188423CBF0130E7
S3251004E1E0608042F67475C0F60105287930B940F65D506978C0F60100405CE8B1207901284C
S3251004E20052D028BF30BD60882989884298BF30BDE0880130E97880B2884207D240F65D5193
S3251004E2206A78C0F60101895C012928D1002020706080A870E08030BDC82001F0A1F9014673
S3251004E240002001F09EF940F29841C0F601010878487001200022E2802871207062800870D9
S3251004E260E98820718A4223D840F22041C0F6010191F82E00012804BF0020207130BDE080CF
S3251004E280C82001F07DF90146002001F07AF940F29841C0F601010878487001200870207026
S3251004E2A000216180207130BD6088E9888842DBD9002001F081F940F29841C0F6010108781F
S3251004E2C0487000200870012121706080207130BD30B540F65074C0F601042079012806D190
S3251004E2E0E0884FF6FF7188423CBF0130E08042F67475C0F60105A87B30B940F65D50E97A62
S3251004E300C0F60100405CE8B12078012853D028BF30BDE088698A884298BF30BD20890130FC
S3251004E320697B80B2884207D240F65D51EA7AC0F60101895C012929D1002020712873C4F8F9
S3251004E340060030BDC82001F01BF90146012001F018F940F29841C0F601018878C87001203D
S3251004E360887020710021A873C4F806102070E088298A884223D840F22041C0F6010191F8A8
S3251004E3802C00012804BF0020207030BD2081C82001F0F6F80146012001F0F3F840F29841F7
S3251004E3A0C0F601018878C8700120887020710021E180207030BDE088298A8842DBD90120F0
S3251004E3C001F0FAF840F29841C0F601018878C8700020887001212171E080207030BD30B5B7
S3251004E3E040F63C74C0F601042078012806D160884FF6FF7188423CBF0130608042F6747536
S3251004E400C0F6010595F8360000BB40F65D5095F83310C0F60100405CC0B9012001F00EF910
S3251004E420142001F0F3F8322001F0AAF801F0FBF840F29840C0F6010001794171012185F85D
S3251004E4403610017121700020608030BD6088298F884211D901F0E5F8002001F0EFF840F220
S3251004E4609840C0F6010001794171002101712170618085F8341030BD40F22041C0F60101C9
S3251004E48091F83200002808BF30BD00202070608085F8340030BD30B540F64874C0F601040B
S3251004E4A02078012806D160884FF6FF7188423CBF0130608042F67475C0F60105287ED0B92B
S3251004E4C040F65D50697DC0F60100405C98B9E87D01F056F80146002001F053F840F2984064
S3251004E4E0C0F601000178417001212976017021700020608030BD6088698B88420ED90020C4
S3251004E50001F05AF840F29840C0F60100017841700021017021706180A97530BD40F2204111
S3251004E520C0F6010191F82E00012818BF30BD002020706080A87530BD30B540F64C74C0F63A
S3251004E54001042078012806D160884FF6FF7188423CBF0130608042F67475C0F6010595F827
S3251004E5602200E0B940F65D50E97FC0F60100405CA8B995F8210001F003F80146012001F0D4
S3251004E58000F840F29840C0F601008178C170012185F82210817021700020608030BD608856
S3251004E5A0A98C88420FD9012001F006F840F29840C0F601008178C1700021817021706180DB
S3251004E5C085F8201030BD40F22041C0F6010191F82C00012818BF30BD00202070608085F88D
S3251004E5E0200030BD30B540F63C74C0F601042078012806D160884FF6FF7188423CBF013043
S3251004E600608042F67475C0F6010595F82C00F0B940F65D5095F82910C0F60100405CB0B95C
S3251004E620012001F00BF895F82B0000F0A9FF00F0EDFF40F29840C0F6010001794171012170
S3251004E64085F82C10017121700020608030BD6088E98D884211D900F0E4FF002000F0EEFF15
S3251004E66040F29840C0F6010001794171002101712170618085F82A1030BD40F22041C0F6A1
S3251004E680010191F83200002808BF30BD00202070608085F82A0030BDF0B540F65C77C0F63F
S3251004E6A00107FFF73EFD42F67475C0F60105A87840F22046C0F60106A8B93978012904BFB6
S3251004E6C096F82E10002945D100F076FF40F29841C0F601010878487000200870A878387055
S3251004E6E0287B38B93AE0FFF76DFDA87860B33870287B98B3FFF7ECFD287B30B996F82C10F4
S3251004E70019B9012000F058FF287B787095F83400E0BB7979012904BF96F83210002944D1D1
S3251004E72000F07FFF002000F089FF40F29841C0F60101087948710020087195F83400787179
S3251004E740A87D00287AD134E096F82E1011B900F033FFA8783870287B0028CBD179780129F1
S3251004E76004BF96F82C100029CFD1012000F024FF40F29841C0F601018878C87000208870E2
S3251004E780287B787095F834000028C2D0FFF727FE95F8340048B996F8321031B900F041FF92
S3251004E7A0002000F04BFF95F834007871A87D002844D1B978012904BF96F82E10002947D1AE
S3251004E7C000F0FAFE40F29841C0F601010878487000200870A87DB87095F82000E8B3FFF719
S3251004E7E0ABFE95F8200038B996F82C1021B9012000F0E2FE95F82000F87095F82A0000282F
S3251004E80044D13979012904BF96F8321000294CD100F007FF002000F011FF40F29841C0F63D
