S00F0000655F6A78315F70655F72000014
S3251004800002480349016000F0B7BF000008ED00E000840410FFFFFFFFFFFFFFFFFFFFFFFF88
S32510048020FFFFFFFFFFFFFFFFFFFFFFFFFFFFFFFFFFFFFFFFFFFFFFFFFFFFFFFFFFFFFFFF46
S32510048040FFFFFFFFFFFFFFFFFFFFFFFFFFFFFFFFFFFFFFFFFFFFFFFFFFFFFFFFFFFFFFFF26
S32510048060FFFFFFFFFFFFFFFFFFFFFFFFFFFFFFFFFFFFFFFFFFFFFFFFFFFFFFFFFFFFFFFF06
S32510048080FFFFFFFFFFFFFFFFFFFFFFFFFFFFFFFFFFFFFFFFFFFFFFFFFFFFFFFFFFFFFFFFE6
S325100480A0FFFFFFFFFFFFFFFFFFFFFFFFFFFFFFFFFFFFFFFFFFFFFFFFFFFFFFFFFFFFFFFFC6
S325100480C0FFFFFFFFFFFFFFFFFFFFFFFFFFFFFFFFFFFFFFFFFFFFFFFFFFFFFFFFFFFFFFFFA6
S325100480E0FFFFFFFFFFFFFFFFFFFFFFFFFFFFFFFFFFFFFFFFFFFFFFFFFFFFFFFFFFFFFFFF86
S32510048100FFFFFFFFFFFFFFFFFFFFFFFFFFFFFFFFFFFFFFFFFFFFFFFFFFFFFFFFFFFFFFFF65
S32510048120FFFFFFFFFFFFFFFFFFFFFFFFFFFFFFFFFFFFFFFFFFFFFFFFFFFFFFFFFFFFFFFF45
S32510048140FFFFFFFFFFFFFFFFFFFFFFFFFFFFFFFFFFFFFFFFFFFFFFFFFFFFFFFFFFFFFFFF25
S32510048160FFFFFFFFFFFFFFFFFFFFFFFFFFFFFFFFFFFFFFFFFFFFFFFFFFFFFFFFFFFFFFFF05
S32510048180FFFFFFFFFFFFFFFFFFFFFFFFFFFFFFFFFFFFFFFFFFFFFFFFFFFFFFFFFFFFFFFFE5
S325100481A0FFFFFFFFFFFFFFFFFFFFFFFFFFFFFFFFFFFFFFFFFFFFFFFFFFFFFFFFFFFFFFFFC5
S325100481C0FFFFFFFFFFFFFFFFFFFFFFFFFFFFFFFFFFFFFFFFFFFFFFFFFFFFFFFFFFFFFFFFA5
S325100481E0FFFFFFFFFFFFFFFFFFFFFFFFFFFFFFFFFFFFFFFFFFFFFFFFFFFFFFFFFFFFFFFF85
S32510048200FFFFFFFFFFFFFFFFFFFFFFFFFFFFFFFFFFFFFFFFFFFFFFFFFFFFFFFFFFFFFFFF64
S32510048220FFFFFFFFFFFFFFFFFFFFFFFFFFFFFFFFFFFFFFFFFFFFFFFFFFFFFFFFFFFFFFFF44
S32510048240FFFFFFFFFFFFFFFFFFFFFFFFFFFFFFFFFFFFFFFFFFFFFFFFFFFFFFFFFFFFFFFF24
S32510048260FFFFFFFFFFFFFFFFFFFFFFFFFFFFFFFFFFFFFFFFFFFFFFFFFFFFFFFFFFFFFFFF04
S32510048280FFFFFFFFFFFFFFFFFFFFFFFFFFFFFFFFFFFFFFFFFFFFFFFFFFFFFFFFFFFFFFFFE4
S325100482A0FFFFFFFFFFFFFFFFFFFFFFFFFFFFFFFFFFFFFFFFFFFFFFFFFFFFFFFFFFFFFFFFC4
S325100482C0FFFFFFFFFFFFFFFFFFFFFFFFFFFFFFFFFFFFFFFFFFFFFFFFFFFFFFFFFFFFFFFFA4
S325100482E0FFFFFFFFFFFFFFFFFFFFFFFFFFFFFFFFFFFFFFFFFFFFFFFFFFFFFFFFFFFFFFFF84
S32510048300FFFFFFFFFFFFFFFFFFFFFFFFFFFFFFFFFFFFFFFFFFFFFFFFFFFFFFFFFFFFFFFF63
S32510048320FFFFFFFFFFFFFFFFFFFFFFFFFFFFFFFFFFFFFFFFFFFFFFFFFFFFFFFFFFFFFFFF43
S32510048340FFFFFFFFFFFFFFFFFFFFFFFFFFFFFFFFFFFFFFFFFFFFFFFFFFFFFFFFFFFFFFFF23
S32510048360FFFFFFFFFFFFFFFFFFFFFFFFFFFFFFFFFFFFFFFFFFFFFFFFFFFFFFFFFFFFFFFF03
S32510048380FFFFFFFFFFFFFFFFFFFFFFFFFFFFFFFFFFFFFFFFFFFFFFFFFFFFFFFFFFFFFFFFE3
S325100483A0FFFFFFFFFFFFFFFFFFFFFFFFFFFFFFFFFFFFFFFFFFFFFFFFFFFFFFFFFFFFFFFFC3
S325100483C0FFFFFFFFFFFFFFFFFFFFFFFFFFFFFFFFFFFFFFFFFFFFFFFFFFFFFFFFFFFFFFFFA3
S325100483E0FFFFFFFFFFFFFFFFFFFFFFFFFFFFFFFFFFFFFFFFFFFFFFFFFFFFFFFFFFFFFFFF83
S3251004840000A40008008004102D4B0810754A0810754A0810754A0810754A0810D94A0810DB
S32510048420D94A0810D94A0810D94A08103D490810D94A0810D94A0810D94A0810394708108A
S32510048440394708103947081039470810394708103947081039470810394708103947081042
S32510048460394708103947081039470810394708103947081039470810394708103947081022
S32510048480D94A0810D94A0810D94A0810D94A0810D94A0810D94A0810D94A0810D94A0810EA
S325100484A0D94A0810D94A0810D94A0810D94A0810D94A0810D94A0810D94A0810D94A0810CA
S325100484C0D94A0810D94A0810D94A0810D94A0810D94A0810D94A0810D94A0810D94A0810AA
S325100484E0D94A0810D94A0810D94A0810D94A0810D94A0810D94A0810D94A0810D94A08108A
S32510048500D94A0810D94A0810D94A0810D94A0810D94A0810D94A0810D94A0810D94A081069
S32510048520D94A0810D94A0810D94A0810D94A0810D94A0810D94A0810D94A0810D94A081049
S32510048540D94A0810D94A0810D94A0810D94A0810D94A0810D94A0810D94A0810D94A081029
S32510048560D94A0810D94A0810D94A0810D94A0810D94A0810D94A0810D94A0810D94A081009
S32510048580D94A0810D94A0810D94A0810D94A0810D94A0810D94A0810D94A0810D94A0810E9
S325100485A0D94A0810D94A0810D94A0810D94A0810D94A0810D94A0810D94A0810D94A0810C9
S325100485C0D94A0810D94A0810D94A0810D94A0810D94A0810D94A0810D94A0810D94A0810A9
S325100485E0D94A0810D94A0810D94A0810D94A0810D94A0810D94A0810D94A0810D94A081089
S32510048600D94A0810D94A0810D94A0810D94A0810D94A0810D94A0810D94A0810D94A081068
S32510048620D94A0810D94A0810D94A0810D94A0810D94A0810D94A0810D94A0810D94A081048
S32510048640D94A0810D94A0810D94A0810D94A0810D94A0810D94A0810D94A0810D94A081028
S32510048660D94A0810D94A0810D94A0810D94A0810D94A0810D94A0810D94A0810D94A081008
S32510048680D94A0810D94A0810D94A0810D94A0810D94A0810D94A0810D94A0810D94A0810E8
S325100486A0D94A0810D94A0810D94A0810D94A0810D94A0810D94A0810D94A0810D94A0810C8
S325100486C0D94A0810D94A0810D94A0810D94A0810D94A0810D94A0810D94A0810D94A0810A8
S325100486E0D94A0810D94A0810D94A0810D94A0810D94A0810D94A0810D94A0810D94A081088
S32510048700D94A0810D94A0810D94A0810D94A0810D94A0810D94A0810D94A0810D94A081067
S32510048720D94A0810D94A0810D94A0810D94A0810D94A0810D94A0810D94A0810D94A081047
S32510048740D94A0810D94A0810D94A0810D94A0810D94A0810D94A0810D94A0810D94A081027
S32510048760D94A0810D94A0810D94A0810D94A0810D94A0810D94A0810D94A0810D94A081007
S32510048780D94A0810D94A0810D94A0810D94A0810D94A0810D94A0810D94A0810D94A0810E7
S325100487A0D94A0810D94A0810D94A0810D94A0810D94A0810D94A0810D94A0810D94A0810C7
S325100487C0D94A0810D94A0810D94A0810D94A0810D94A0810D94A0810D94A0810D94A0810A7
S325100487E0D94A0810D94A0810D94A0810D94A0810D94A0810D94A0810D94A0810FFFFFFFFC6
S3251004880002000001000000FF17042020FFFFFFFFAC770200008004100F880410008D0410E0
S32510048820FFFF2010FFFFFFFFFFFFFFFFFFFFFFFFFFFFFFFFFFFFFFFFFFFFFFFFFFFFFFFF0C
S32510048840FFFFFFFFFFFFFFFFFFFFFFFFFFFFFFFFFFFFFFFFFFFFFFFFFFFFFFFFFFFFFFFF1E
S32510048860FFFFFFFFFFFFFFFFFFFFFFFFFFFFFFFFFFFFFFFFFFFFFFFFFFFFFFFFFFFFFFFFFE
S32510048880FFFFFFFFFFFFFFFFFFFFFFFFFFFFFFFFFFFFFFFFFFFFFFFFFFFFFFFFFFFFFFFFDE
S325100488A0FFFFFFFFFFFFFFFFFFFFFFFFFFFFFFFFFFFFFFFFFFFFFFFFFFFFFFFFFFFFFFFFBE
S325100488C0FFFFFFFFFFFFFFFFFFFFFFFFFFFFFFFFFFFFFFFFFFFFFFFFFFFFFFFFFFFFFFFF9E
S325100488E0FFFFFFFFFFFFFFFFFFFFFFFFFFFFFFFFFFFFFFFFFFFFFFFFFFFFFFFFFFFFFFFF7E
S32510048C000000020000800410FF880410008C0410FFFF2010FFFFFFFFFFFFFFFFFFFFFFFF47
S32510048C20FFFFFFFFFFFFFFFFFFFFFFFFFFFFFFFFFFFFFFFFFFFFFFFFFFFFFFFFFFFFFFFF3A
S32510048C40FFFFFFFFFFFFFFFFFFFFFFFFFFFFFFFFFFFFFFFFFFFFFFFFFFFFFFFFFFFFFFFF1A
S32510048C60FFFFFFFFFFFFFFFFFFFFFFFFFFFFFFFFFFFFFFFFFFFFFFFFFFFFFFFFFFFFFFFFFA
S32510048C80FFFFFFFFFFFFFFFFFFFFFFFFFFFFFFFFFFFFFFFFFFFFFFFFFFFFFFFFFFFFFFFFDA
S32510048CA0FFFFFFFFFFFFFFFFFFFFFFFFFFFFFFFFFFFFFFFFFFFFFFFFFFFFFFFFFFFFFFFFBA
S32510048CC0FFFFFFFFFFFFFFFFFFFFFFFFFFFFFFFFFFFFFFFFFFFFFFFFFFFFFFFFFFFFFFFF9A
S32510048CE0FFFFFFFFFFFFFFFFFFFFFFFFFFFFFFFFFFFFFFFFFFFFFFFFFFFFFFFFFFFFFFFF7A
S32510048D00FFFFFFFFFFFFFFFFFFFFFFFFFFFFFFFFFFFFFFFFFFFFFFFFFFFFFFFFFFFFFFFF59
S32510048D2030B40346104600248C420FD24AF6C475C1F20D0513F8012B42401206D20D525B28
S32510048D4082EA102080B201348C42F3D330BC70472DE9F00C01004FF0010000F0A1800C68E7
S32510048D60002C00F09D8065884FF6FF718D4218BF002D00F0958034F8091C0023AB4280F055
S32510048D808B8004EBC3067268B668B2F1FF3F1CBF002A964203D822888A427FD080E0B61A70
S32510048DA006F1010C5FEADC075DD04AF6C476C1F20D0632F808AB8AEA010B4FEA0B6B4FEAB7
S32510048DC0DB5B3BF806B08BEA212181EA1A2A4FEA0A6A4FEADA5A3AF806B032F806AC8BEAA1
S32510048DE021218AEA010B4FEA0B6B4FEADB5B3BF806B08BEA212181EA1A2A4FEA0A6A4FEA44
S32510048E00DA5A3AF806B032F804AC8BEA21218AEA010B4FEA0B6B4FEADB5B3BF806B08BEA8F
S32510048E20212181EA1A2A4FEA0A6A4FEADA5A3AF806B032F802AC8BEA21218AEA010B4FEADD
S32510048E400B6B4FEADB5B3BF806B08BEA212181EA1A2A4FEA0A6A4FEADA5A3AF806A08AEA5E
S32510048E602121013FA5D11CF0070611D04AF6C477C1F20D0712F801CB8CEA010C4FEA0C6C9A
S32510048E804FEADC5C3CF807C08CEA2121013EF1D10133AB42FFF475AF22888A4208BF0020FE
S32510048EA0BDE8F00C70472DE9F0444DF6D846C0F6000600214FF4887057F0FAF84AF6702074
S32510048EC0C1F20D000024057B3470AC420FD22746D0F808A0380E0AEBC000FFF739FF08B1E2
S32510048EE00124347007F18077B5EB176FF2D80CB90220307000F01FF901214FF48870BDE81F
S32510048F00F04457F0D5B8FFF7CEBFF0B54DF6D846C0F6000602204AF67021C1F20D01307096
S32510048F200C790025A54228BFF0BD0F68280E07EBC000FFF70DFF08B10120307005F180752C
S32510048F40B4EB156FF2D8F0BD00B55CF09DFB002814BF0420032000BD4DF6D841C0F60001B2
S32510048F600878022808BF7047003818BF0120704701808FE218FF2FE106460F46904612F036
S32510048F802BFE4FF014004FF0010152F0C9FF48F69F75C1F20405A5F101057A46A2EB0505EF
S32510048FA09146002803D131463A4643460AE04AF20040C0F6000085464FF000014FF00002DC
S32510048FC04FF0000340F20200012817D308D04EF68850CEF20000046844F4700404600DE0D1
S32510048FE011EE500F40F4A00001EE500FBFF36F8FF8EE100A40F08040E8EE100A4FF0000404
S3251004900048F20040C1F20400814506DB40F20000C1F22100814500DC2C4644F63040C1F2E7
S325100490200800A0EB040000EB05004FF000044FF000054FF000063BF011F800BFFDE70000EC
S325100490408CF022B88CF04AB810B540F22834C0F60104A17811B9282083F036FD6178002941
S3251004906018BF10BD2720BDE8104083F02DBD58B940F2DC31C0F6010191F86600012818BFA2
S32510049080704700205BF0A8BF022818BF704740F2DC31C0F6010191F86600012818BF7047D8
S325100490A002205BF099BF022808BF002010F0A583012818BF7047002010F0A3BB00B540F27C
S325100490C0DC31C0F6010191F86600012804BF00205BF082FF00205BF063FF40F22831C0F6DC
S325100490E001010020087000BD00B5002010F085FB40F2DC31C0F6010191F86600012804BFD8
S3251004910002205BF069FF02205BF04AFF40F22831C0F601010020087000BD40F23631C0F6C3
S32510049120010101200870704740F23631C0F6010102200870704770470120704740F23833F5
S32510049140C0F6010300205863986103F8100B43F80C0C03F8040CD862D86198619862D86055
S3251004916083F8300048F20001C1F20401196140F6FF028A181A6201F5406183E803004FF61E
S32510049180FF71C1F220015961042340F27C31C0F6010140F29C32C0F60102907001F8080B34
S325100491A022F8080B21F8070C02F8030C01F8050C22F8050C21F8040C01F8020C22F8020CA6
S325100491C001F8010C013BE8D1704730B540F23834C0F601042078012805D16068B0F1FF3F47
S325100491E001D201306060207B012805D12069B0F1FF3F01D201302061207A062888BF30BD0E
S325100492000FF20401D1E800F0041B38C3679EB60048F20000C1F20400206248F6FF00C1F24D
S325100492200400206348F60040C1F2040060614FF6FF70C1F2200060620120207230BD40F27C
S32510049240DC31C0F6010191F83C00012818BF30BDFFF774FF39F02BFE002818BF30BD206A4C
S32510049260216B091AE0630131012020700020606061630220207230BD40F2DC31C0F60101C3
S3251004928091F83C0000287ED0616BE06B39F01AFEA8B96069616A091A8A0AC1F30901A163B3
S325100492A04FF48061A161A2620121E062E161002020612070606021730420207230BD6068D4
S325100492C048F6A041884238BF30BD0020207060600120207230BD40F2DC31C0F6010191F817
S325100492E03C0000284FD0A169E06A39F0EBFDE8B9E169A26A914204D92073206105202072FA
S3251004930030BD606900F580606061E0620131E161914205D9A06B0130A0610420207230BDA0
S325100493204FF48060A0610420207230BD206948F6A041884238BF30BD0020207320610120A1
S32510049340207230BD40F29C35C0F60105284639F0C6FD002818BF30BD012084F84000294623
S3251004936040F27C30C0F6010020223AF062FE0620207230BD40F2DC31C0F6010191F83C0011
S32510049380002818BF30BDFFF7D9FE0020207230BD10F04DBB40F2D030C0F601008178C17040
S325100493A00121027881704270017070472DE9F04C00274FF0010A40F2BC3B40F2C036C0F662
S325100493C00106C0F6010B306840F25C45C0F6010510F0010F0DD020F0010195F84E00316018
S325100493E085F84F0085F84E70084611F0020F0FD024E0DBF8000010F0010F19D095F84E0062
S3251004940085F84F00306885F84EA010F0020F15D1DBF8000010F0020F2DD095F8500085F831
S325100494205100306885F850A010F0040F13D028E028786870306810F0020FE9D020F00201D1
S3251004944095F85000316085F8510085F85070084611F0040F15D1DBF8000010F0040F36D045
S3251004946095F8520085F85300306885F852A010F0080F13D033E0A878E870306810F0040FEC
S32510049480E9D020F0040195F85200316085F8530085F85270084611F0080F20D1DBF800003B
S325100494A040F2DC34C0F6010410F0080F3DD0B5F85400A5F85600608EA5F854A0A08607F0E1
S325100494C04BFF6086306810F0100F1ED03AE028796871A879E871306810F0080FDED020F022
S325100494E008003060B5F8540040F2DC34C0F60104A5F85600608EA5F85470A08607F02CFF32
S325100495006086306810F0100F1CD1DBF8000010F0100F34D095F8580085F85900306885F8E1
S3251004952058A010F0200F1AD02FE028896881A889E881608EA08607F00FFF6086306810F026
S32510049540100FE2D020F0100195F85800316085F8590085F85870084611F0200F15D1DBF837
S32510049560000010F0200F2DD095F85A0085F85B00306885F85AA010F0400F13D028E0287CF9
S325100495806874306810F0200FE9D020F0200195F85A00316085F85B0085F85A70084611F03E
S325100495A0400F15D1DBF8000010F0400F2DD095F85C0085F85D00306885F85CA010F0800FDA
S325100495C013D028E0A87CE874306810F0400FE9D020F0400195F85C00316085F85D0085F844
S325100495E05C70084611F0800F15D1DBF8000010F0800F2DD095F85E0085F85F00306885F886
S325100496005EA010F4807F13D028E0287D6875306810F0800FE9D020F0800195F85E003160D5
S3251004962085F85F0085F85E70084611F4807F15D1DBF8000010F4807F2DD095F8600085F874
S325100496406100306885F860A010F4007F13D028E0A87DE875306810F4807FE9D020F4807131
S3251004966095F86000316085F8610085F86070084611F4007F15D1DBF8000010F4007F2DD01C
S3251004968095F8620085F86300306885F862A010F4806F13D028E0287E6876306810F4007F4D
S325100496A0E9D020F4007195F86200316085F8630085F86270084611F4806F15D1DBF80000A8
S325100496C010F4806F2DD095F8640085F86500306885F864A010F4006F13D028E0A87EE876B2
S325100496E0306810F4806FE9D020F4806195F86400316085F8650085F86470084611F4006FA0
S3251004970015D1DBF8000010F4006F31D095F8660085F86700306885F866A010F4805F13D04A
S325100497202CE0287F6877306810F4006FE9D020F4006195F86600316085F8670085F8667089
S32510049740084611F4805F19D1DBF8000010F4805F38D095F8680085F8690040F2C830C0F65A
S325100497600100016885F868A011F0400F17D035E0A87FE877306810F4805FE5D020F48050FA
S32510049780306095F8680085F8690040F2C830C0F60100016885F8687011F0400F1ED140F234
S325100497A0C432C0F60102116811F0400F33D095F86A1085F86B10316885F86AA011F4005F91
S325100497C019D030E095F8200085F8210040F2C830C0F60100016811F0400FE0D021F040018F
S325100497E0016095F86A1085F86B10316885F86A7011F4005F17D1DBF8001011F4005F2FD06D
S3251004980095F86C1085F86D10316885F86CA011F4804F15D02CE095F8221085F8231031683C
S3251004982011F4005FE7D021F4005295F86C10326085F86D1085F86C70114612F4804F17D18A
S32510049840DBF8001011F4804F32D095F86E1085F86F10016885F86EA011F0010F15D03BE029
S3251004986095F8261085F82710316811F4804FE7D021F48041316095F86E1085F86F1001685C
S3251004988085F86E7011F0010F26D140F2C432C0F60102116811F0010F3ED095F8701085F848
S325100498A07110016885F870A011F0020F21D03BE095F8281085F8291095F82C1085F82D10FB
S325100498C095F82E1085F82F1095F82A1085F82B10016811F0010FD8D021F0010295F8701025
S325100498E0026085F8711085F87070114612F0020F1AD140F2C432C0F60102116811F0020FD0
S3251004990032D095F8721085F87310016885F872A011F0040F15D02FE095F8301085F8311091
S32510049920016811F0020FE4D021F0020295F87210026085F8731085F87270114612F0040F8D
S325100499401AD140F2C432C0F60102116811F0040F32D095F8741085F87510016885F874A085
S3251004996011F0080F15D02FE095F8321085F83310016811F0040FE4D021F0040295F87410D9
S32510049980026085F8751085F87470114612F0080F1AD140F2C432C0F60102116811F0080F1B
S325100499A032D095F8761085F87710016885F876A011F0100F15D02FE095F8341085F83510D1
S325100499C0016811F0080FE4D021F0080295F87610026085F8771085F87670114612F0100FC9
S325100499E01AD140F2C432C0F60102116811F0100F32D095F8781085F87910016885F878A0CD
S32510049A0011F0200F15D02FE095F8361085F83710016811F0100FE4D021F0100295F87810FC
S32510049A20026085F8791085F87870114612F0200F1AD140F2C432C0F60102116811F0200F42
S32510049A4032D095F87A1085F87B10016885F87AA011F0800F15D02FE095F8381085F83910AC
S32510049A60016811F0200FE4D021F0200295F87A10026085F87B1085F87A70114612F0800F7C
S32510049A801AD140F2C432C0F60102116811F0800F2FD095F87C1085F87D10016885F87CA0B3
S32510049AA011F4807F15D02CE095F83A1085F83B10016811F0800FE4D021F0800295F87C109F
S32510049AC0026085F87D1085F87C70114612F4807F17D140F2C431C0F60101086810F4807F01
S32510049AE01AD095F87E0085F87F0085F87EA0BDE8F08C95F83C1085F83D10016811F4807F8F
S32510049B00E7D021F48071016095F87E0085F87F0085F87E70BDE8F08C95F83E0085F83F00F3
S32510049B2095F8400085F84100BDE8F08C30B440F20451C0F601010A78012A04D14878FF28D3
S32510049B403CBF0130487040F25C4040F2CC33C0F60103C0F601001C68002514F0010F0AD000
S32510049B6024F001021A6090F846004D70002818BF0120087016E0012A02D14A78322A08D22B
S32510049B8090F8442090F8463080F8452080F8473008E080F8445080F846500D8080F8455059
S32510049BA080F8475030BC704770B440F61454C0F601042378012B06D160884FF6FF71884257
S32510049BC03CBF0130608000212079012501280FD028BF21712ED240F2D030C0F6010002789B
S32510049BE0012A27D12270618045700170257121E040F2D030C0F6010082781AB922706180CF
S32510049C00217117E00678012E04D126706180457001700FE0012B0DD16388B3F5FA7F09D3A1
S32510049C2021706180C27040F6D553C0F6010381701D70217170BC704730B400240D46EB080D
S32510049C4015D001464FF0FF32DC0001F8082B01F8072C01F8062C01F8052C01F8042C01F8A3
S32510049C60032C01F8022C01F8012C013BEDD115F0070106D020184FF0FF3200F8012B01396B
S32510049C80FBD130BC704770B400251646F40824D002460B46E50012F808CB03F808CB12F873
S32510049CA007CC03F807CC12F806CC03F806CC12F805CC03F805CC12F804CC03F804CC12F8EA
S32510049CC003CC03F803CC12F802CC03F802CC12F801CC03F801CC013CDDD116F0070207D0C0
S32510049CE02818691810F8013B01F8013B013AF9D170BC7047F0B500EBC00043F26C01C0F680
S32510049D00010101EB80046169201D8847A1786071012904D300F095800020A070F0BD0028EC
S32510049D2018BFF0BD2079012808BFF0BD052840D1A668E7684FF0FF30E070257C0020EB0842
S32510049D4024D031463A46D80011F808CB02F808CB11F807CC02F807CC11F806CC02F806CC2D
S32510049D6011F805CC02F805CC11F804CC02F804CC11F803CC02F803CC11F802CC02F802CC41
S32510049D8011F801CC02F801CC013BDDD115F007014DD08219C01912F8013B00F8013B0139D0
S32510049DA0F9D1E169E0688847E071002818BFF0BD44E02078002808BFF0BD002121704FF018
S32510049DC0FF30E070E668257CA768EB0824D030463A46D90010F808CB02F808CB10F807CCB3
S32510049DE002F807CC10F806CC02F806CC10F805CC02F805CC10F804CC02F804CC10F803CCB9
S32510049E0002F803CC10F802CC02F802CC10F801CC02F801CC013BDDD115F0070007D08A19B5
S32510049E20C91912F8013B01F8013B0138F9D1E169E0688847E071002818BFF0BD0120A07019
S32510049E40F0BD207902281CBF0020A070F0BD10B543F20804C0F601042078FFF74BFF22788D
S32510049E6043F26C0102EBC200C0F6010101EB8000C078C0B9501CC0B207280ED02070C878E7
S32510049E8080B340F68050C0F601000178417000210170BDE810405BF0D1B800202070C87843
S32510049EA00028EED11EE001281CBF032805280FD16078013804D36070C8780028E1D111E0A4
S32510049EC003206070501C2070C8780028D9D109E004381CBF023802289CBF07202070C878B1
S32510049EE00028CED191F827000028CAD191F84B000028C6D191F86F000028C2D191F89300AC
S32510049F000028BED191F8B7000028BAD191F8DB000028B6D140F68050C0F601000178417083
S32510049F20012101705BF08AF8BDE8104003F068B9F0B500EBC00043F26C03C0F6010303EB02
S32510049F408003DA70062918BF0C2940F0A480012A18BF032A61D1DF681D7C0024EA0815D04F
S32510049F6038464FF0FF31D40000F8081B00F8071C00F8061C00F8051C00F8041C00F8031C6E
S32510049F8000F8021C00F8011C013AEDD115F0070006D0E1194FF0FF3201F8012B0138FBD10D
S32510049FA09E681D7CDF68EC0824D031463A46E00011F808CB02F808CB11F807CC02F807CC90
S32510049FC011F806CC02F806CC11F805CC02F805CC11F804CC02F804CC11F803CC02F803CCD7
S32510049FE011F802CC02F802CC11F801CC02F801CC013CDDD115F0070100F0AB808219C01984
S3251004A00012F801CB00F801CB0139F9D1012018705878012818BFF0BDA1E0052A40F09B8067
S3251004A0209E68DF681D7C0020EC0824D031463A46E00011F808CB02F808CB11F807CC02F8C2
S3251004A04007CC11F806CC02F806CC11F805CC02F805CC11F804CC02F804CC11F803CC02F852
S3251004A06003CC11F802CC02F802CC11F801CC02F801CC013CDDD115F007016CD08219C01913
S3251004A08012F801CB00F801CB0139F9D15878012818BFF0BD63E007295DD1012A5BD1DF684C
S3251004A0A01D7C0024EA0815D038464FF0FF31D40000F8081B00F8071C00F8061C00F8051CC8
S3251004A0C000F8041C00F8031C00F8021C00F8011C013AEDD115F0070006D0E1194FF0FF32C7
S3251004A0E001F8012B0138FBD19E681D7CDF68EC0824D031463A46E00011F808CB02F808CBCE
S3251004A10011F807CC02F807CC11F806CC02F806CC11F805CC02F805CC11F804CC02F804CC8D
S3251004A12011F803CC02F803CC11F802CC02F802CC11F801CC02F801CC013CDDD115F0070130
S3251004A14007D08219C01912F801CB00F801CB0139F9D1012018705878012818BFF0BD0020B6
S3251004A1605870196AD878BDE8F040084743F26C03C0F6010300EBC00003F8201003EB800064
S3251004A180C2607047704770477047704770477047704710B440F61C54C0F601042078552891
S3251004A1A042D1AA2040F63851C0F6010120700878FF2845D0AA2804BF4FF0FF300870207AD0
S3251004A1C0FF2842D0AA2804BF4FF0FF30207240F64851C0F601010878FF283FD0AA2804BFC5
S3251004A1E04FF0FF300870207CFF283CD0AA2804BF4FF0FF30207440F66051C0F601010878DA
S3251004A200FF2839D0AA2804BF4FF0FF30087040F67051C0F601010878FF2836D0CC2804BF66
S3251004A2204FF0FF30087032E0AA2804BF4FF0FF30207040F63851C0F601010878FF28B9D1D1
S3251004A240AA200870207AFF28BCD1AA2040F64851C0F6010120720878FF28BFD1AA200870F8
S3251004A260207CFF28C2D1AA2040F66051C0F6010120740878FF28C5D1AA20087040F67051FB
S3251004A280C0F601010878FF28C8D1CC200870207E43F26C0200EBC000C0F60102012302F885
S3251004A2A0203002EB8000C160207E01302076207E072804BF0020207610BC7047704740F68B
S3251004A2C09851C0F6010100200870488040F2E841C0F601018A7DCA75887540F2DC31C0F618
S3251004A2E0010191F8762081F8772081F876007047002070477047704730B540F2E842C0F631
S3251004A30001020020917B40F69454C0F60104022917D140F25C42C0F6010292F8401002297A
S3251004A32018BF30BD44F69045C1F20805206829460FF0E6F8206029460FF0D2F82060012043
S3251004A34030BD052918BF30BD40F2DC32C0F6010292F87A10012918BF30BD40F25C42C0F683
S3251004A360010292F84010022918BF30BD44F64065C1F20805206829460FF0C2F820602946B9
S3251004A3800FF0AEF82060012030BD40F69851C0F60101012008700020488040F2E840C0F608
S3251004A3A00100817DC1750421817540F2DC30C0F6010090F8761080F87710072180F876100B
S3251004A3C0704740F2DC32C0F6010292F8720040F69451C0F60101072805D144F6F040C1F2C2
S3251004A3E0080008607047032805D144F60850C1F2080008607047082805D144F6C040C1F2BC
S3251004A400080008607047092805D144F6D840C1F208000860704728B944F6A840C1F208000A
S3251004A4200860704700207047704740F69851C0F60101002008704880704740F25C41C0F6E2
S3251004A440010191F841200020012A03D091F84010012907D040F2E842C0F60102917B0229B2
S3251004A46008BF704730B544F6784540F69454C0F60104C1F20805206829460FF041F8206020
S3251004A48029460FF02DF820600120BDE8304070477047002070477047704730B540F69454A3
S3251004A4A0C0F60104E18864290ED344F62055C1F20805206829460FF023F8206029460FF082
S3251004A4C00FF82060012030BD002030BD7047002070477047704730B540F69454C0F6010406
S3251004A4E040F2DC31C0F60101002091F8733091F872207BB172B944F6A845C1F2080520681E
S3251004A50029460EF0FDFF206029460EF0E9FF2060012030BD072A0ED144F6F045C1F2080516
S3251004A520206829460EF0ECFF206029460EF0D8FF2060012030BDE388642B28BF082A18BFE5
S3251004A54030BD40F25C42C0F6010292F83D3092F83C20934206D191F8792091F878108A42E3
S3251004A56008BF30BD44F62055C1F20805206829460EF0C6FF206029460EF0B2FF20600120A5
S3251004A58030BD7047002070477047704730B540F69454C0F6010440F2DC31C0F601010020E3
S3251004A5A091F8733091F872207BB172B944F6A845C1F20805206829460EF0A2FF2060294677
S3251004A5C00EF08EFF2060012030BD032A0ED144F60855C1F20805206829460EF091FF2060E0
S3251004A5E029460EF07DFF2060012030BDE388642B28BF092A18BF30BD40F25C42C0F6010269
S3251004A60092F83F3092F83E20934206D191F8752091F874108A4208BF30BD44F62055C1F286
S3251004A6200805206829460EF06BFF206029460EF057FF2060012030BD70470020704770477E
S3251004A640704730B540F69454C0F6010440F2DC31C0F6010191F87220012A0ED144F6A84528
S3251004A660C1F20805206829460EF04AFF206029460EF036FF2060012030BDE3880020642BF8
S3251004A68028BF072A18BF30BD40F25C42C0F6010292F83F3092F83E20934206D191F8752090
S3251004A6A091F874108A4208BF30BD44F62055C1F20805206829460EF023FF206029460EF080
S3251004A6C00FFF2060012030BD7047002070477047704730B540F69454C0F6010440F2DC31CB
S3251004A6E0C0F6010191F8732000208AB191F8722072B944F6A845C1F20805206829460EF0EF
S3251004A700FFFE206029460EF0EBFE2060012030BDE288642A24BF91F87220032A18BF30BDD7
S3251004A72040F25C42C0F6010292F83D3092F83C20934206D191F8792091F878108A4208BF27
S3251004A74030BD44F62055C1F20805206829460EF0D7FE206029460EF0C3FE2060012030BD7D
S3251004A76040F69851C0F601010120087000204880704740F2DC32C0F6010292F8721040F675
S3251004A7809453C0F6010340F25C40C0F60100072918BF092904D190F83E20042A01D107E09E
S3251004A7A0032918BF082908D190F83C20042A04D144F66850C1F208003BE0072918BF09298A
S3251004A7C004D190F83E20032A01D107E0032918BF082908D190F83C20032A04D144F68050C1
S3251004A7E0C1F2080025E0072918BF092904D090F83E20052A06D118E090F83E20022A18BFA5
S3251004A800052A12D0032918BF082908D090F83C0005280AD044F63850C1F2080009E090F848
S3251004A8203C00022818BF0528F4D144F65050C1F2080018607047704740F69851C0F601017D
S3251004A84000200870488070470020704740F69852C0F6010201210020508040F2E840C0F6F5
S3251004A86001001170827DC2758175704740F2DC30C0F6010090F8741009291FBF0A2990F88D
S3251004A880760009280A2804D044F69850C1F20800704744F6985040F69451C0F60101C1F2B5
S3251004A8A0080008607047704740F69851C0F60101002008704880704730B540F69454C0F6F9
S3251004A8C00104E1890020642917D340F2E842C0F60102917B05290ED144F64065C1F208058B
S3251004A8E0206829460EF00CFE206029460EF0F8FD2060012030BD02290BD140F25C41C0F643
S3251004A900010191F84120012A12D091F8401001290ED144F67845C1F20805206829460EF096
S3251004A920EFFD206029460EF0DBFD2060012030BDE188642938BF30BD44F65055C1F2080545
S3251004A940206829460EF0DCFD206029460EF0C8FD2060012030BD40F2E840C0F60100817DC0
S3251004A960C17502218175704710B440F69454C0F6010440F2DC30C0F6010090F874100329ED
S3251004A98019BF90F87800032844F6B050C1F208001CBF44F6C850C1F20800206010BC7047BA
S3251004A9A0704740F69851C0F60101002008704880704730B540F69454C0F60104E188642924
S3251004A9C00ED344F68055C1F20805206829460EF097FD206029460EF083FD2060012030BD29
S3251004A9E0002030BD40F2E840C0F60100817DC17504218175704710B440F69454C0F601047C
S3251004AA0040F2DC30C0F6010090F87410072919BF90F87800072844F61060C1F208001CBFA4
S3251004AA2044F62860C1F20800206010BC7047704740F69851C0F601010020087048807047D7
S3251004AA4030B540F69454C0F60104E18864290ED344F63855C1F20805206829460EF050FD7E
S3251004AA60206029460EF03CFD2060012030BD002030BD40F2E840C0F60100817DC175032192
S3251004AA808175704710B440F69454C0F6010440F2DC30C0F6010090F87410052919BF90F8C3
S3251004AAA07800052844F6E050C1F208001CBF44F6F850C1F20800206010BC7047704740F6AA
S3251004AAC09851C0F60101002008704880704730B540F69454C0F60104E18864290ED344F6D5
S3251004AAE06855C1F20805206829460EF009FD206029460EF0F5FC2060012030BD002030BD4B
S3251004AB0040F6A051C0F60101012008700020488040F2DC30C0F6010090F8761080F87710B9
S3251004AB20082180F87610704700207047704740F6A051C0F601010020087048807047002079
S3251004AB40704740F69851C0F60101012008700020488040F2DC30C0F6010090F8761080F851
S3251004AB607710032180F87610704700207047704740F69851C0F601010020087048807047DF
S3251004AB800020704740F69852C0F601020020D08010705080012140F2DC30C0F60100117192
S3251004ABA090F8761080F87710022180F87610704700207047704740F69C51C0F6010100200D
S3251004ABC008704880704730B540F69454C0F60104618964290ED344F6B055C1F208052068C7
S3251004ABE029460EF08DFC206029460EF079FC2060012030BD002030BD40F69851C0F6010171
S3251004AC00012008700020488040F2DC30C0F6010090F8761080F87710052180F876107047BC
S3251004AC2000207047704740F69851C0F6010100200870488070470020704740F69852C0F6D1
S3251004AC4001020020D08010705080012140F2DC30C0F60100117190F8761080F8771004214C
S3251004AC6080F87610704700207047704740F69C51C0F60101002008704880704730B540F66A
S3251004AC809454C0F60104618964290ED344F6E055C1F20805206829460EF032FC206029465E
S3251004ACA00EF01EFC2060012030BD002030BD40F69851C0F60101012008700020488040F23D
S3251004ACC0DC30C0F6010090F8761080F87710072180F87610704700207047704740F6985100
S3251004ACE0C0F6010100200870488070470020704740F69852C0F601020020D08010705080FB
S3251004AD00012140F2DC30C0F60100117190F8761080F87710062180F87610704700207047C0
S3251004AD20704740F69C51C0F60101002008704880704730B540F69454C0F60104618964291B
S3251004AD400ED344F61065C1F20805206829460EF0D7FB206029460EF0C3FB2060012030BD89
S3251004AD60002030BD40F69C51C0F60101012008700020488040F2E840C0F60100817DC1750B
S3251004AD800621817540F2DC30C0F6010090F8761080F87710092180F87610704740F2DC325B
S3251004ADA0C0F6010292F8720040F69451C0F60101072805D144F6A060C1F2080008607047D8
S3251004ADC0032805D144F6B860C1F2080008607047082805D144F67060C1F208000860704742
S3251004ADE0092805D144F68860C1F208000860704728B944F65860C1F2080008607047002069
S3251004AE007047704740F69C51C0F60101002008704880704740F2DC31C0F6010191F87B209D
S3251004AE200020002A08BF704791F87A10002918BF704730B544F6784540F69454C0F60104B1
S3251004AE40C1F20805206829460EF05AFB206029460EF046FB20600120BDE83040704770477C
S3251004AE60002070477047704730B540F69454C0F60104618964290ED344F6D065C1F208052E
S3251004AE80206829460EF03CFB206029460EF028FB2060012030BD002030BD70470020704733
S3251004AEA040F69C51C0F601014888642838BF704740F2DC30C0F6010090F8761080F8771091
S3251004AEC00A2180F87610704740F69C51C0F601014888642838BF704740F2DC30C0F601009E
S3251004AEE090F8761080F877100A2180F876107047704730B540F69454C0F6010440F2DC3296
S3251004AF00C0F6010292F8721092F8732000207AB171B944F65865C1F20805206829460EF014
S3251004AF20EFFA206029460EF0DBFA2060012030BD07290ED144F6A065C1F2080520682946B9
S3251004AF400EF0DEFA206029460EF0CAFA2060012030BD6289642A28BF082918BF30BD40F23B
S3251004AF605C42C0F6010292F83D1092F83C20022903D0022A11D0032903D0032A0DD0042962
S3251004AF8003D0042A09D0012904D0012A05D0052908BF30BD052A18BF30BD44F6D065C1F2C8
S3251004AFA00805206829460EF0ABFA206029460EF097FA2060012030BD70470020704740F600
S3251004AFC09C51C0F601014888642838BF704740F2DC30C0F6010090F8761080F877100A217B
S3251004AFE080F876107047704730B540F69454C0F6010440F2DC32C0F6010292F8721092F87E
S3251004B000732000207AB171B944F65865C1F20805206829460EF074FA206029460EF060FAAD
S3251004B0202060012030BD03290ED144F6B865C1F20805206829460EF063FA206029460EF007
S3251004B0404FFA2060012030BD6289642A28BF092918BF30BD40F25C42C0F6010292F83F1047
S3251004B06092F83E20022903D0022A11D0032903D0032A0DD0042903D0042A09D0012904D0B5
S3251004B080012A05D0052908BF30BD052A18BF30BD44F6D065C1F20805206829460EF030FA73
S3251004B0A0206029460EF01CFA2060012030BD70470020704740F69C51C0F601014888642820
S3251004B0C038BF704740F2DC30C0F6010090F8761080F877100A2180F876107047704730B52A
S3251004B0E040F69454C0F6010440F2DC31C0F6010191F8732000208AB191F8722072B944F66F
S3251004B1005865C1F20805206829460EF0F9F9206029460EF0E5F92060012030BD6289642ADF
S3251004B12024BF91F87210072918BF30BD40F25C42C0F6010292F83F1092F83E20022903D0CB
S3251004B140022A11D0032903D0032A0DD0042903D0042A09D0012904D0012A05D0052908BFC5
S3251004B16030BD052A18BF30BD44F6D065C1F20805206829460EF0C4F9206029460EF0B0F95E
S3251004B1802060012030BD70470020704740F69C51C0F601014888642838BF704740F2DC3056
S3251004B1A0C0F6010090F8761080F877100A2180F876107047704730B540F69454C0F601045C
S3251004B1C040F2DC31C0F6010191F8732000208AB191F8722072B944F65865C1F20805206862
S3251004B1E029460EF08DF9206029460EF079F92060012030BD6289642A24BF91F872100329C2
S3251004B20018BF30BD40F25C42C0F6010292F83D1092F83C20022903D0022A11D0032903D000
S3251004B220032A0DD0042903D0042A09D0012904D0012A05D0052908BF30BD052A18BF30BD10
S3251004B24044F6D065C1F20805206829460EF058F9206029460EF044F92060012030BD40F671
S3251004B2609C52C0F601020020D08010705080012140F2E840C0F601001171817DC17505213E
S3251004B280817540F2DC30C0F6010090F8761080F877100B2180F8761070470020704770472D
S3251004B2A040F6A051C0F60101002008704880704730B540F69454C0F60104E189642933D3C3
S3251004B2C040F2E842C0F60102917B206802290DD144F69045C1F2080529460EF011F92060DC
S3251004B2E029460EF0FDF82060012030BD05290DD044F67845C1F2080529460EF001F920609B
S3251004B30029460EF0EDF82060012030BD44F6E865C1F2080529460EF0F3F8206029460EF0A7
S3251004B320DFF82060012030BD002030BD40F69C51C0F60101012008700020488040F2E840CB
S3251004B340C0F60100817DC1750621817540F2DC30C0F6010090F8761080F87710092180F827
S3251004B3607610704700207047704740F69C51C0F60101002008704880704730B540F69454F3
S3251004B380C0F60104618964290ED344F6D065C1F20805206829460EF0B3F8206029460EF0C4
S3251004B3A09FF82060012030BD002030BD10B440F6A454C0F6010440F25C41C0F60101A278F3
S3251004B3C091F83C0091F83D1012B102290AD005E0012903D0012813D0022903D002280FD0FB
S3251004B3E0032903D003280BD0042903D0042807D0052903D0052803D0062904D0062802D126
S3251004B4000120A07005E0012A03D111B1002808BFA07010BC704710B440F6A454C0F601040C
S3251004B42040F25C41C0F60101627891F83E0091F83F1012B102290AD005E0012903D001281F
S3251004B44013D0022903D002280FD0032903D003280BD0042903D0042807D0052903D00528B2
S3251004B46003D0062904D0062802D10120607005E0012A03D111B1002808BF607010BC704702
S3251004B48010B440F6A454C0F60104617840F2DC30C0F60100012909D1A2789AB990F872109C
S3251004B4A080F87310072180F872102EE051B9A278012A07D190F8721080F87310032180F87F
S3251004B4C0721022E090F87220072A0AD1012915D1A178012919D180F87320092180F872103C
S3251004B4E013E0032A08BF012908D1A17801290CD180F87320082180F8721006E029B9A17819
S3251004B50019B980F8732080F8721010BC704710B440F6A454C0F6010440F2DC30E178C0F6BD
S3251004B5200100013905D315D001290CD00020E0704BE090F87C1080F87D10002180F87C101A
S3251004B5400120E07041E090F8771090F876200A2912D00DE090F8771090F87620092903D0DE
S3251004B560092A32D00B2903D00B2A2ED00A2903D00A2A21D0082903D0082A1DD0072903D0F1
S3251004B580072A19D0062903D0062A15D0052903D0052A11D0042903D0042A0DD0032903D045
S3251004B5A0032A09D0022903D0022A05D0012902D0012A01D049B142B990F87C1080F87D1066
S3251004B5C0002180F87C100120E07010BC704710B540F6A854C0F6010440F2DC312078C0F6F9
S3251004B5E00101013805D30ED0012820D00020207010BD91F87A0081F87B00002081F87A00A0
S3251004B6000120207010BD91F87F00012808BF10BD91F87E00012818BF10BD91F87A0081F87D
S3251004B6207B00012081F87A000220207010BD91F87D0010B191F87C0058B191F87F000228DB
S3251004B64008BF10BD91F87E00022818BF10BD91F87C0081F87D0091F87A0081F87B00002055
S3251004B66081F87A0006F075F80120207010BD10B540F69454C0F601042079012806D1E0883D
S3251004B6804FF6FF7188423CBF0130E080207A012806D160894FF6FF7188423CBF0130608176
S3251004B6A0207B012806D1E0894FF6FF7188423CBF0130E081FFF7E4FEFFF778FEFFF7ABFE7D
S3251004B6C0FFF725FFFFF783FF207C01280DD028BF10BD44F67841C1F20801216008460DF0ED
S3251004B6E0FFFE20600120207410BD2068BDE810400DF01CBF40F2DC30C0F6010090F85E10F1
S3251004B70040F25C42C0F6010280F85F101179012918BF002180F85E10704770B5054640F6B0
S3251004B720AC54C0F60104A071207BA84214D040F2DC31C0F60101488E05F0D6FF48F21F5179
S3251004B740C5F2EB1151FB00F14909A1EBE071A1802080A07961802073052D1BD120886188B3
S3251004B760884210D9218901312181002106F000F820886188411A2089632824D30020208098
S3251004B7800120607370BD002020816073BDE8704005F0DFBF042D29D120886188884218D97B
S3251004B7A0618901316181012105F0E2FF2088022105F0DEFF2088032105F0DAFF20886188B1
S3251004B7C0411A608963283CBF218070BD0020208070BD00206081012005F0BBFF022005F0E2
S3251004B7E0B8FF0320BDE8704005F0B3BF012D0BD1022005F0AEFF032005F0ABFFA088218838
S3251004B800884288BF70BD2BE0022D12D140F2DC31C0F60101488E05F067FF012105F0A8FFCD
S3251004B820032005F096FFA0882188884288BF70BD16E0032D0FD140F20E46C0F60106308831
S3251004B84005F052FF012105F093FF308805F04CFF022105F08DFFA0882188884288BF70BD34
S3251004B860294605F085FFD4F8021001EB1140A08070BD70B540F2DC34C0F6010494F82C0084
S3251004B880012840F02B81002005F063FF94F82C00012840F0238140F6AA72C0F601021178C9
S3251004B8A001293AD194F85E0001281CD142F2107005F01AFF0146012005F027FF42F2107040
S3251004B8C005F012FF0146022005F01FFF42F2107005F00AFF0146032005F017FF94F82C00ED
S3251004B8E084F82D0070BD608E05F0FEFE0146012005F00BFF608E05F0F7FE0146022005F0DC
S3251004B90004FF608E05F0F0FE0146032005F0FDFE94F82C0084F82D0070BD002940F0DE809A
S3251004B92040F2E845C0F6010594F85E10A87D012959D104281CD142F2107005F0D5FE014683
S3251004B940012005F0E2FE42F2107005F0CDFE0146022005F0DAFE42F2107005F0C5FE01467A
S3251004B960032005F0D2FEA878E8700120A87070BD012800F0A68002280CD142F2107005F0F8
S3251004B980B3FE0146012005F0C0FEA878E8700120A87070BD03280CD142F2107005F0A4FE90
S3251004B9A00146022005F0B1FEA878E8700120A87070BD94F85F00012800F08B8040F25C41A4
S3251004B9C0C0F6010191F83E00032840F0828042F2107005F089FE022105F0CAFEA878E870E9
S3251004B9E00120A87070BD40F6B856C0F6010604282ED1E87D03280DD194F87600062868D1C4
S3251004BA000320FFF78AFE0420B070A878E8700120A87070BD00285CD1608E05F065FE014667
S3251004BA20012005F072FE608E05F05EFE0146022005F06BFE608E05F057FE0146032005F0C9
S3251004BA4064FE0520B070A878E8700120A87070BD012810D1E87D04283BD194F8760008286E
S3251004BA6037D10420FFF759FE0120B070A878E8700120A87070BD022810D1E87D012828D182
S3251004BA8094F87600022824D10120FFF746FE0220B070A878E8700120A87070BD032818D1DC
S3251004BAA0E87D022815D194F87600042811D10220FFF733FE0320B070A878E8700120A870AA
S3251004BAC070BD05F046FE022005F043FE032005F040FEA878E8700120A87070BD94F82D1091
S3251004BAE0002908BF70BD002818BF70BD012005F030FE022005F02DFE032005F02AFE40F2EB
S3251004BB00E841C0F601018878C8700020887094F82C0084F82D0070BD30B540F2DC34C0F66F
S3251004BB20010440F2E845C0F6010594F85E10A87D012912D1062837D142F2107005F0D4FDEF
S3251004BB400146002005F0E1FD94F82E1084F82F10297869700120287030BD062810D194F851
S3251004BB607600092818BF30BD0020FFF7D6FD94F82E1084F82F10297869700120287030BDB2
S3251004BB80052818BF30BD94F876000B2818BF30BD0520FFF7C2FD94F82E1084F82F102978A1
S3251004BBA069700020287030BD052818BF30BD002005F0CFFD94F82E1084F82F10297869701C
S3251004BBC00020287030BD00B540F2DC30C0F6010090F85E1040F25C42C0F6010280F85F1096
S3251004BBE01179012918BF002180F85E10FFF741FEFFF792FF00BD40F6C050C0F60100012101
S3251004BC00017000214180704770B540F6C454C0F60104A178012904D1E078FF283CBF01300F
S3251004BC20E0702078012804D16078FF283CBF0130607020790026012803D328D02660267136
S3251004BC4070BD40F2DC32C0F60102107F01280AD151B940F63661C0F60101087850B90120D8
S3251004BC60A070E67070BD28B140F63661C0F60101087808B1668070BDE078C82838BF70BD01
S3251004BC806680012000F04AF90120207170BD40F2DC35C0F6010595F83D00012808D095F81A
S3251004BCA03C00012804D1304600F038F9267170BD00F044F920B9287F68772E77267170BDE0
S3251004BCC0207878B9287F002818BF70BD40F63661C0F601010878002818BF70BD01202070CC
S3251004BCE0667070BD012818BF70BD6078322838BF70BD287F012805D040F63662C0F6010278
S3251004BD00117809B1268070BD002818BF70BD2070667000F003F9267170BD30B540F6CC5575
S3251004BD20C0F601056878012803D313D00020687030BD40F2DC34C0F60104E07C012808BF3D
S3251004BD4030BDA07C012818BF30BD00F0C9F80120687030BD40F2DC34C0F6010494F83D0076
S3251004BD60012809D094F83C00012805D1002000F0B7F80020687030BD00F0E0F8002818BF75
S3251004BD8030BDA07CE0740020A07441F2A202C0F6010201211170687030BD70B540F6C85489
S3251004BDA0C0F60104A078012804D1E178FF293CBF0131E1702179002601292BD024BF26713A
S3251004BDC070BD40F2DC32C0F60102917E01290AD150B940F63661C0F60101087850B90120D7
S3251004BDE0A070E67070BD29B140F63662C0F60102117809B1668070BD012818BF70BDE0785A
S3251004BE00C82838BF70BD6680012000F078F80120207170BD40F2DC35C0F6010595F83D00E5
S3251004BE20012808D095F83C00012804D1304600F066F8267170BD00F081F8002818BF70BD03
S3251004BE40A87EE876AE76267170BD40F6D551C0F601010878012818BF704740F63661C0F68E
S3251004BE6001010878002818BF704700B5FFF7CCFEFFF753FF5DF804EBFFF78FBF40F6D051D4
S3251004BE80C0F601010878704740F6D051C0F601010870704740F6CF51C0F601010878704716
S3251004BEA040F6CF51C0F601010870704740F6D251C0F601010878704740F6D251C0F60101D2
S3251004BEC00870704740F6D151C0F601010878704740F6D151C0F601010870704700207047BC
S3251004BEE010B440F6CE54C0F601042178002814BF41F0010001F0FE00207010BC704710B4C5
S3251004BF0040F6CE54C0F601042178002814BF41F0020001F0FD00207010BC704710B440F632
S3251004BF20CE54C0F601042178002814BF41F0030001F0FC00207010BC7047704740F6CE5136
S3251004BF40C0F601010878704740F6CE51C0F601010870704740F6D351C0F601010878704753
S3251004BF6040F6D351C0F601010870704740F6D451C0F601010878704740F6D451C0F6010109
S3251004BF800870704740F6D551C0F6010101200870704740F61C52C0F60102115401210020F0
S3251004BFA0FEF7E4B840F63852C0F60102115401210846FEF7DBB840F62452C0F60102115436
S3251004BFC001210220FEF7D2B840F64852C0F60102115401210320FEF7C9B840F62C52C0F671
S3251004BFE00102115401210420FEF7C0B840F61C51C0F60101085C704740F63851C0F601011F
S3251004C000085C704740F62451C0F60101085C704740F64851C0F60101085C704740F62C5118
S3251004C020C0F60101085C704740F61C52C0F601024FF0FF301060506001210020FEF796B8A3
S3251004C04040F63852C0F601024FF0FF30106050609060D06001210846FEF788B840F624524E
S3251004C060C0F601024FF0FF301060506001210220FEF77CB840F64852C0F6010210460323ED
S3251004C080FF2100F8081B00F8071C00F8061C00F8051C00F8041C00F8031C00F8021C00F8C0
S3251004C0A0011C013BEDD101210320FEF75FB840F62C52C0F601024FF0FF30106050600121E1
S3251004C0C00420FEF753B810B540F2DC30C0F6010090F8361080F83710002480F8364005F0D4
S3251004C0E072FB204605F07CFB40F2E840C0F6010001794171047110BD002070477047704723
S3251004C10040F2DC32C0F6010292F82A10012915D130B544F6187540F6D854C0F60104C1F2BC
S3251004C1200805206829460DF0EBF9206029460DF0D7F920600120BDE8304070470020704700
S3251004C14010B5012005F04CFB40F2DC30C0F6010090F8361080F83710142480F83640204695
S3251004C16005F026FB204605F030FB40F2E840C0F60100017941710121017110BD0020704794
S3251004C1807047704740F2DC32C0F6010292F82A10A9B930B544F6007540F6D854C0F6010447
S3251004C1A0C1F20805206829460DF0AAF9206029460DF096F920600120BDE830407047002006
S3251004C1C0704710B540F6D854C0F60104207901280DD028BF10BD44F60071C1F20801216071
S3251004C1E008460DF07DF920600120207110BD2068BDE810400DF09AB930B543F28015C0F633
S3251004C200010540F6E854C0F6010442F2107370B928460122062106F02FFF40F2DC31C0F620
S3251004C220010120600A7F60B34A7701202BE001280ED105F108000122062106F01DFF40F245
S3251004C240DC31C0F6010120600A7F0028ECD118E0022808D040F2DC31C0F6010120680A7F0F
S3251004C2600028E1D10DE005F110000122062106F003FF40F2DC31C0F6010120600A7F00286D
S3251004C280D2D120604877087730BDF0B50E461F4640F6E855C0F6010542F210731146012278
S3251004C2A006F0EAFE286040F2DC34C0F6010460B9207F607742F2107300202077394630460F
S3251004C2C0012206F071FF286030B10120217F2077617700203080F0BD217F61772077F0BDE9
S3251004C2E000B581B044F63071C1F208010888ADF8020042F210730DF102000122022106F07D
S3251004C300BBFE40F6E851C0F60101086000280CBF0120002001B000BDB0B581B040F6E05419
S3251004C320C0F601042178012906D160884FF6FF7290423CBF0130608040F2DC35C0F6010513
S3251004C34095F82800002710280FD12079E0B90120FFF752FF6771A77127700120207195F86F
S3251004C3602800678020280FD146E020281CD16079002842D1FFF740FF27710121617195F8AF
S3251004C3802800A771202837D06088C82845D395F82000422804BF95F8220000283BD1FFF751
S3251004C3A02BFF2770678038E0402804BFA0790028EAD140F6F050C0F601000122427244F63E
S3251004C3C03071C1F2080187720888ADF8020042F210730DF10200022106F04EFEA060022078
S3251004C3E0FFF70AFF2771677127700120A07195F8280067802028C7D121780029C4D195F88B
S3251004C4002000422804BF95F822000028BCD101202070678001E02770678001B0B0BDF0B597
S3251004C42043F26814C0F60104FFF776FF40F2DC37C0F6010797F828000126402817D1214673
S3251004C4403346601D0222FFF720FF207810F00300032840F6F051C0F601010CBF0120002092
S3251004C460087740F6EC50C0F601000670F0BD40F6F055C0F601052878072800F2AA800FF2B4
S3251004C4800801D1E800F000BFA60516253443659821463346E01D0222FFF7F7FE20784228C9
S3251004C4A000F2998068722878AE70082828BFF0BD95E0214604F1090033460222FFF7E5FEAB
S3251004C4C02078A8722878EE70082828BFF0BD86E0214604F10B0033460222FFF7D6FE207802
S3251004C4E0E87228782E71082828BFF0BD77E0214604F10D0033460222FFF7C7FE207828737A
S3251004C50028786E71082828BFF0BD68E0214604F10F0033460222FFF7B8FE04F11100334643
S3251004C520611C0222FFF7B1FE2088A88297F82A10AE71012905D128832878082828BFF0BDD2
S3251004C5404DE0002028832878082828BFF0BD46E0214604F1130033460222FFF796FE04F1B4
S3251004C56015003346611C0222FFF78FFE208841F29411884210D3217903290DD80131217153
S3251004C58097F82A00EE7101280ED0002068832878082828BFF0BD22E000212171E88297F845
S3251004C5A02A00EE710128F0D1E88A68832878082828BFF0BD13E021463346601D0222FFF7C3
S3251004C5C064FE2078687728782E72082828BFF0BD05E02E70F0BD2878082828BFF0BD01309F
S3251004C5E02870F0BD40F64061C0F601010878013805D340F64061C0F601010870704743F2C9
S3251004C600DF11C0F601010878002818BF704700B500F023FE002818BFFFF701FF5DF804EB23
S3251004C620704740F6F050C0F601000021C0F8011040F6EC53C0F60103C0F8051019708222E9
S3251004C640C281C0F809104FF448728282C0F81610C0F81A10704740F6F051C0F60101887805
S3251004C660002818BF487A704740F6F051C0F60101C878002818BF887A704740F6F051C0F6D4
S3251004C68001010879002818BFC87A704740F6EC51C0F601010878002808BF704740F6F0513D
S3251004C6A0C0F60101087F704740F6F051C0F601014879002818BF087B704740F6F051C0F614
S3251004C6C001018879002818BF888A704740F6F051C0F60101C879002818BFC88A704740F6C7
S3251004C6E0F050C0F60100817949B140F2DC32C0F6010292F82A10012904BF008B7047002029
S3251004C700704740F6F050C0F60100C17949B140F2DC32C0F6010292F82A10012904BF408B72
S3251004C72070470020704740F6F051C0F60101087A002818BF487F704741210138C0B20328EB
S3251004C74080F0888000210E2368B943F2B610C0F60100028844F63470C1F20800B0F800C097
S3251004C76062450FD325E0012816D143F2BC10C0F60100028844F63470C1F20800B0F800C0BE
S3251004C780624516D2B0F802C0624517D301310EBF08460139C8B2704743F2B410C0F601008D
S3251004C7A0028844F63470C1F20800B0F800C06245E8D308001CBF0139C8B27047B0F804C0B8
S3251004C7C0624505D302310EBF08460139C8B27047B0F806C0624505D303310EBF0846013991
S3251004C7E0C8B27047B0F808C0624505D304310EBF08460139C8B27047B0F80AC0624505D353
S3251004C80005310EBF08460139C8B27047B0F80CC0624505D306310EBF08460139C8B2704792
S3251004C820B0F80EC0624505D307310EBF08460139C8B27047B0F810C0624505D308310EBF2E
S3251004C84008460139C8B2704712300931013BACD14FF07D010846704740F2DC30C0F6010019
S3251004C86090F8741080F87510002180F874107047002070477047704730B5002040F61064CD
S3251004C88040F25C42C0F60102C0F6010492F83F1092F83E20042913D0042A0ED145F2F00530
S3251004C8A0C1F20805206829460CF02AFE206029460CF016FE2060012030BD062908BF30BD13
S3251004C8C0062A18BF30BD45F26815C1F20805206829460CF015FE206029460CF001FE206066
S3251004C8E0012030BD704745F2600040F61061C0F60101C1F20800086070477047704730B536
S3251004C900002040F6106440F25C42C0F60102C0F6010492F83F1092F83E2091B172B945F28A
S3251004C9203005C1F20805206829460CF0E9FD206029460CF0D5FD2060012030BD062908BFCE
S3251004C94030BD062A18BF30BD45F26815C1F20805206829460CF0D4FD206029460CF0C0FDFC
S3251004C9602060012030BD704745F2C00040F61061C0F60101C1F208000860704770477047BA
S3251004C98040F25C41C0F6010191F83F200020022A08BF704791F83E10022918BF704730B5CF
S3251004C9A045F2A80540F61064C0F60104C1F20805206829460CF0A4FD206029460CF090FD48
S3251004C9C020600120BDE830407047704745F2D80040F61061C0F60101C1F2080008607047D1
S3251004C9E07047704730B5002040F6106440F25C42C0F60102C0F6010492F83F1092F83E20FB
S3251004CA00012912D0012A0ED145F26005C1F20805206829460CF074FD206029460CF060FDDE
S3251004CA202060012030BD032913D0032A0ED145F29005C1F20805206829460CF061FD2060D6
S3251004CA4029460CF04DFD2060012030BD022908BF30BD022A18BF30BD45F2A805C1F2080506
S3251004CA60206829460CF04CFD206029460CF038FD2060012030BD704745F2081040F6106105
S3251004CA80C0F60101C1F20800086070477047704730B5002040F6106440F25C42C0F6010244
S3251004CAA0C0F6010492F83F1092F83E20012912D0012A0ED145F26005C1F208052068294677
S3251004CAC00CF01EFD206029460CF00AFD2060012030BD042913D0042A0ED145F27805C1F221
S3251004CAE00805206829460CF00BFD206029460CF0F7FC2060012030BD022908BF30BD022A9D
S3251004CB0018BF30BD45F2A805C1F20805206829460CF0F6FC206029460CF0E2FC2060012044
S3251004CB2030BD704745F2381040F61061C0F60101C1F20800086070477047704730B500200C
S3251004CB4040F6106440F25C42C0F60102C0F6010492F83F1092F83E20012913D0012A0ED1F5
S3251004CB6045F26005C1F20805206829460CF0C8FC206029460CF0B4FC2060012030BD032933
S3251004CB8008BF30BD032A18BF30BD45F29005C1F20805206829460CF0B3FC206029460CF0BD
S3251004CBA09FFC2060012030BD40F61461C0F60101012008700020488040F2DC30C0F6010059
S3251004CBC090F8741080F87510082180F8741070470020704740F61461C0F601010020087084
S3251004CBE04880704770470020704740F61461C0F60101012008700020488040F2DC30C0F636
S3251004CC00010090F8741080F87510062180F87410704700207047704740F61461C0F6010125
S3251004CC20002008704880704730B540F61064C0F60104E18864290ED345F2F005C1F20805B6
S3251004CC40206829460CF05CFC206029460CF048FC2060012030BD002030BD40F61461C0F644
S3251004CC600101012008700020488040F2DC30C0F6010090F8741080F87510072180F87410F5
S3251004CC80704700207047704740F61461C0F6010100200870488070470020704740F6146139
S3251004CCA0C0F60101012008700020488040F2DC30C0F6010090F8741080F87510042180F886
S3251004CCC07410704700207047704740F61461C0F60101002008704880704730B540F6106468
S3251004CCE0C0F60104E18864290ED345F22015C1F20805206829460CF003FC206029460CF07F
S3251004CD00EFFB2060012030BD002030BD40F61461C0F60101012008700020488040F2DC3052
S3251004CD20C0F6010090F8741080F87510052180F87410704700207047704740F61461C0F651
S3251004CD40010100200870488070470020704740F61461C0F60101012008700020488040F2B3
S3251004CD60DC30C0F6010090F8741080F87510022180F87410704700207047704740F61461BE
S3251004CD80C0F60101002008704880704730B540F61064C0F60104E18864290ED345F25015ED
S3251004CDA0C1F20805206829460CF0AAFB206029460CF096FB2060012030BD002030BD40F6B4
S3251004CDC01461C0F60101012008700020488040F2DC30C0F6010090F8741080F87510032169
S3251004CDE080F87410704700207047704740F61461C0F6010100200870488070470020704787
S3251004CE00704745F2801040F61061C0F60101C1F20800086070477047704730B5002040F698
S3251004CE20106440F25C42C0F60102C0F6010492F83F1092F83E2091B172B945F23005C1F2D3
S3251004CE400805206829460CF05BFB206029460CF047FB2060012030BD042908BF30BD042A98
S3251004CE6018BF30BD45F2F005C1F20805206829460CF046FB206029460CF032FB20600120FB
S3251004CE8030BD40F61461C0F60101012008700020488040F2DC30C0F6010090F8741080F82E
S3251004CEA07510092180F87410704700207047704740F61461C0F601010020087048807047EE
S3251004CEC030B540F61064C0F6010440F25C41C0F6010191F83F200020052A12D091F83E1077
S3251004CEE005290ED145F2B015C1F20805206829460CF006FB206029460CF0F2FA20600120E3
S3251004CF0030BDE188642938BF30BD45F29815C1F20805206829460CF0F3FA206029460CF0C1
S3251004CF20DFFA2060012030BD40F61461C0F60101012008700020488040F2DC30C0F6010097
S3251004CF4090F8741080F875100A2180F874107047002070477047704740F25C41C0F6010104
S3251004CF6091F83F200020052A08BF704791F83E10052918BF704730B545F2B01540F61064C4
S3251004CF80C0F60104C1F20805206829460CF0B8FA206029460CF0A4FA20600120BDE8304018
S3251004CFA0704740F61461C0F60101012008700020488040F2DC30C0F6010090F8741080F843
S3251004CFC075100B2180F87410704700207047704740F61461C0F601010020087048807047CB
S3251004CFE040F25C41C0F6010191F83F200020062A08BF704791F83E10062918BF704730B561
S3251004D00045F2801540F61064C0F60104C1F20805206829460CF074FA206029460CF060FA5F
S3251004D02020600120BDE83040704710B540F61064C0F601042079012806D1E0884FF6FF7189
S3251004D04088423CBF0130E080207A01280DD028BF10BD45F23001C1F20801216008460CF01D
S3251004D0603FFA20600120207210BD2068BDE810400CF05CBA40F61C61C0F60101087870472C
S3251004D08040F61C61C0F6010101200870704730B540F61C65C0F601052878002818BF30BDD7
S3251004D0A06978002979D1FEF7A1FF55283BD0FEF7BBFFFEF7C5FFFEF7D1FFFEF7DBFFFEF7F4
S3251004D0C0F6FF55210020FEF764FF02210120FEF769FF02210846FEF765FF02210320FEF7AD
S3251004D0E061FF40F2DC33C0F6010340F2E8419879C0F60101D8710A7B0220987183F84A00D9
S3251004D10083F84B0083F84C0083F84D0083F84E0083F84F0008730120687028784A73002814
S3251004D12018BF30BD3CE040F2DC34C0F60104A079E0710320FEF760FFA07194F84A0084F8B4
S3251004D1404B000120FEF758FF84F84A0084F84B0094F84C0084F84D000220FEF74DFF84F8F0
S3251004D1604C0084F84D0094F84E0084F84F000320FEF742FF84F84E0040F2E841C0F60101A5
S3251004D18084F84F00087B4873A0790873012068702878002818BF30BD02E0012918BF30BD83
S3251004D1A040F62A61C0F6010148783C2805D340F63A61C0F601010878012818BF5FF0000088
S3251004D1C030BD00B504F047FF40F2DC30C0F60100017941710121017190F8562080F85610C8
S3251004D1E090F85A1080F85B10002180F8572090F85C2080F85A1080F85D2080F85C1000BDB4
S3251004D20040F62061C0F601011F200860704740F62061C0F601010878704700B581B00DF19D
S3251004D220020001210CF04FFBBDF8020001B000BD00B581B00DF1020001210CF03FFBBDF852
S3251004D240020001B000BD00B581B00DF103000CF05CFB9DF8030001B000BD00B581B00DF120
S3251004D26003000CF04BFB9DF8030001B000BD00B581B00DF103000CF03AFB9DF8030001B0E8
S3251004D28000BD00B581B00DF1020001210CF020FBBDF8020001B000BD00B581B00DF102008D
S3251004D2A001210CF01AFBBDF8020001B000BD00B581B00DF1020001210CF014FBBDF8020032
S3251004D2C001B000BD10B540F62C64C0F60104A079012804D1E079FF283CBF0130E071FFF776
S3251004D2E0C9FE0122618818B9A079218148BB54E040F2EF40814203D2A079227108BB4CE0EA
S3251004D300B1F5A46F04D802202071A079C8B944E0B1F5D06F04D203202071A07988B93CE008
S3251004D32040F2B260814204D204202071A07940B933E040F64D4081420CD205202071A079E9
S3251004D34058B32079E37A98422AD0E072A2710020E07110BD40F67F40814205D206202071F5
S3251004D360A0790028EDD118E040F6C850814205D207202071A0790028E3D10EE040F6FA5099
S3251004D380814205D208202071A0790028D9D104E009202071A0790028D3D1A271E07110BD81
S3251004D3A0E079032828BF218110BD10B443F2A214C0F6010440F63462C0F60102108840F2C0
S3251004D3C0EF41884212D20120A072607240F22150E08040F2B260208000202072E07240F62F
S3251004D3E07F40608040F6FA50A080D0E0B0F5A46F15D8607A01280CBF40F221500846E08060
S3251004D40040F2B26020800120A07200202072E07240F67F40608040F6FA50A080B7E0B0F526
S3251004D420D06F0FD20120A07240F2B260208000202081E07240F67F406080E18040F6FA50D2
S3251004D440A080A4E040F2B261884220D2A07A01280DD1218000202081E07240F2EF40E08077
S3251004D46040F67F40608040F6FA50A0808FE04FF4D060208000202081E07240F2EF40E080C7
S3251004D48040F67F40608040F6FA50A0807FE040F64D41884211D20020A4F80900E072207284
S3251004D4A040F2EF40E0804FF4D060208040F67F40608040F6FA50A08069E040F67F41884200
S3251004D4C022D2207A012810D140F64D4060800020A4F80900E07240F2EF40E0804FF4D060AC
S3251004D4E0208040F6FA50A08051E00020A4F80900E07240F2EF40E0804FF4D06020806180D5
S3251004D50040F6FA50A08042E040F6C851884212D20120207240F64D4060800020A4F8090017
S3251004D520E07240F2EF40E0804FF4D060208040F6FA50A0802BE040F6FA51884215D2E07A74
S3251004D54001280CBF40F6C8500846A08040F64D406080012020720020A4F8090040F2EF4085
S3251004D560E0804FF4D060208011E040F64D40608001202072E0720020A4F8090040F6C85171
S3251004D58040F2EF40E080A1804FF4D060208010BC704730B4014643F2A214C0F6010440F6F2
S3251004D5A03465C0F601050120013909D30DD0022910D314D12888A18888420FD300200EE062
S3251004D5C02888E1888842F9D208E0288821888842F4D203E0288861888842EFD2012030BC9E
S3251004D5E0704730B4014643F2A214C0F6010440F63465C0F601050120013909D30DD00229BF
S3251004D60010D314D12888A18888420FD200200EE02888E1888842F9D308E0288821888842DC
S3251004D620F4D303E0288861888842EFD3012030BC704730B50220FFF7ACFF054640F2DC3408
S3251004D640C0F6010401281DD1FFF7CBFF012819D194F83E3084F83F3094F84030002184F88D
S3251004D6603E1084F8413094F8422084F8401084F8432084F842100320FFF78BFF05460128D7
S3251004D6801AD14DE075BB012294F83E3084F83E2084F83F3094F8403084F8402094F8422080
S3251004D6A084F8413084F8432084F842500320FFF770FF0546012833D0002D4AD1012294F880
S3251004D6C0443084F8442084F8453094F8463084F8462094F8482084F8473084F8492084F8BF
S3251004D6E0485030BD0120FFF77CFF020012D1012194F83E3084F83E1084F83F3094F8403047
S3251004D70084F8402094F8422084F8413084F8432084F842100320FFF73CFF05460128CBD127
S3251004D7200020FFF75EFF0128C6D194F8443084F8453094F84630002184F8441084F84730C5
S3251004D74094F8482084F8461084F8492084F8481030BD0020FFF745FF020018BF30BD012101
S3251004D76094F8443084F8441084F8453094F8463084F8462094F8482084F8473084F849201E
S3251004D78084F8481030BD70B440F62464C0F60104A079002301280DD1E079FF280ED201303D
S3251004D7A0E071C0B23C2809D2607A6188002840F0B7807AE050B3E0793C28F5D3607A012816
S3251004D7C071D140F2DC30C0F6010090F8581021B980F85910012180F85810227904F1280093
S3251004D7E04FEA420C61882CF800100132D2B2642A28BF1A462271A28A914229D1227A013284
S3251004D800D2B21E2A09D222720A2223E00120A071E37163722371618882E023720A2502463E
S3251004D82022F8141B22F8121C22F8101C22F80E1C22F80C1C22F80A1C22F8081C22F8061CB7
S3251004D84022F8041C22F8021C013DE9D10A2201E023720A2230F814CB634430F8126C30F8FA
S3251004D86010CC9B19634430F80E6C30F80CCC9B19634430F80A6C30F808CC9B19634430F83D
S3251004D880066C30F804CC9B1930F8026C63449B19013ADFD148F21F52C5F2EB12A3FB022055
S3251004D8A0400960813CE06188D0BB22794FEA420C04F128002CF800100132D2B2642A38BFE5
S3251004D8C022712DD30122627223710A2230F814CB634430F8126C30F810CC9B19634430F809
S3251004D8E00E6C30F80CCC9B19634430F80A6C30F808CC9B19634430F8066C30F804CC9B19FE
S3251004D90030F8026C63449B19013ADFD148F21F52C5F2EB12A3FB0220400960810120A07592
S3251004D920A18270BC70472DE9F04843F2AE14C0F6010440F64465C0F60105A07800210128CA
S3251004D9400CD1A1702170A38805F1D00CA5F8D0308E4610F0070200F0B480ABE02078012847
S3251004D96076D16078A388420005F1D00C22F80C300130C0B21E2828BF084660700322604620
S3251004D98030F8143BC91830F8124C30F8103C0919C91830F80E4C30F80C3C0919C91830F8FB
S3251004D9A00A4C30F8083C0919C91830F8064C30F8043C091930F8024CC9180919013ADFD120
S3251004D9C03CF8022B134660460446072734F808CB9C4538BF634634F806CC9C4538BF634656
S3251004D9E034F804CC9C4538BF634634F802CC9C4538BF6346013FE9D1B4F800C09C4538BFD7
S3251004DA006346072630F808CB944588BF624630F806CC944588BF624630F804CC944588BF79
S3251004DA20624630F802CC944588BF6246013EE9D10088904288BF0246C91A891A880844F634
S3251004DA402511C2F29241A0FB01106880BDE8F088002818BFBDE8F08805F1D00C6078A3884D
S3251004DA6042008E4622F80C300130C0B283465FEADB031CD062464FEAC30E32F8107BC91958
S3251004DA8032F80E6C32F80C7C8919C91932F80A6C32F8087C8919C91932F8066C32F8047C7A
S3251004DAA0891932F8026CC9198919013BE5D11BF0070206D00CEB4E0333F802CB6144013A92
S3251004DAC0FAD1B1FBF0F1A9801E283CBF6070BDE8F088012020706270BDE8F08810B440F6E3
S3251004DAE04464C0F6010443F2AE11C0F601010878002814BF6088A08810BC704730B440F6D5
S3251004DB002464C0F601042078012804D16178FF293CBF013161706288002140F2EF43D31AB7
S3251004DB2040F60C1C63450CD340F2DC32C0F6010292F8380082F83900022082F83800218003
S3251004DB4024E040F22153D21A40F6A8039A421DD240F2DC32C0F6010292F838300125022B2B
S3251004DB6008BF002802D1257061700FE0012808D1607812280AD982F8393082F838502180F7
S3251004DB8004E018B982F8393082F8385030BC704710B581B040F62464C0F601040DF10200BF
S3251004DBA001210BF090FEBDF802006080FFF7EBFDA07D012805D1FFF785FBFFF7F6FBFFF7BC
S3251004DBC038FD01B010BD00B581B00DF1020001210BF074FEBDF8020043F2B211C0F601019C
S3251004DBE00880FFF7A0FE01B000BD10B440F63464C0F60104A078013805D30DD0012818D01D
S3251004DC000020A07022E02088B0F5C86F15D340F6A44188421AD904E0208840F6A441884203
S3251004DC2002D90220A07011E040F2AE6188420DD30AE02088B0F5C86F02D20120A07005E089
S3251004DC4040F63641884201D80020A07010BC704740F64461C0F601010870704740F644610A
S3251004DC60C0F60101087870472DE9F00883B000F1FF328C4643F29A14C0F6010445F2C810B9
S3251004DC80C1F208006D4690E80B0085E80B00D2B20027A079E61C012803D12780C4F8037068
S3251004DCA0A77040F6507BA35C02EB820558194000C0F6010B20F80BC0581CB15CC3B2012949
S3251004DCC01CD1052B28BF3B460BEB4501A35410466A460B8852F820004A88181810188A8833
S3251004DCE01018CA88098910180A184CF6CD40CCF6CC40A2FB0001890888B220E0EC469F421B
S3251004DD0009D35CF82250B5FBF3F5ADB2052B12D2A354284613E039460BEB450B5CF8225059
S3251004DD203BF802CB654401319942F9D3B5FBF3F5ADB2052BECD3A7540120B054284603B020
S3251004DD40BDE8F008704710B581B043F2B614C0F601040DF1020001210BF0BAFDBDF802100A
S3251004DD60E1810120FFF780FF208001B010BD10B581B043F2BA14C0F601040DF1020001219D
S3251004DD800BF0ABFDBDF8021061810220FFF76CFF608001B010BD10B581B043F2B214C0F695
S3251004DDA001040DF1020001210BF09CFDBDF8021061820320FFF758FF608001B010BD10B551
S3251004DDC082B043F2B214C0F601040DF1020001210BF07EFDBDF8021061820120FFF744FFA5
S3251004DDE0A08001A801210BF078FDBDF8041061820220FFF739FF60810DF1060001210BF0B0
S3251004DE0071FDBDF8061061820320FFF72DFFA188A1F10D0240F6B4218A422CBF01220022B6
S3251004DE20A271628960800D3A914294BF01210021E1710D3840F6B42188422CBF01200020A2
S3251004DE40207202B010BD2DE9F04C81B040F63464C0F601040DF1020001210BF02FFDA77A21
S3251004DE60BDF802B0012F04D1E07AFF283CBF0130E07294F808A0BAF1010F04D1607AFF2858
S3251004DE803CBF01306072FFF739FE01260025BAF1000F0ED1BBF54D7F0BD82672657240F258
S3251004DEA0DC3765812088C0F60107B0F5967F4FD343E07FB940F2965083450BD3A672E57285
S3251004DEC040F2DC3725812088C0F60107B0F5967F3ED332E0BAF1010F11D1607A08280ED372
S3251004DEE040F2DC37C0F6010797F83C0087F83D00208887F83C50B0F5967F29D31DE0012FE8
S3251004DF0002D1E07A0A2808D240F2DC372088C0F60107B0F5967F1BD30FE040F2DC37C0F671
S3251004DF20010797F83C0087F83D0087F83C60FBF78BF82088B0F5967F0AD368460BF0DEFCE6
S3251004DF409DF8000020B93046FBF722FA14202073797B387B012905D0012803D17873FEF76B
S3251004DF6060FB387B97F8601087F8611087F86060012840F0AC800DF101000BF0BFFC9DF87C
S3251004DF800100002800F0A380207B002840F09F8097F8200043F2BE1487F82100C0F6010408
S3251004DFA0FEF759FB87F8200097F8220087F82300FEF75AFB87F8220097F8240087F82500CA
S3251004DFC0FEF75BFB87F8240097F8680087F86900FEF7A9FB87F86800FEF778FB2080FEF7DD
S3251004DFE06CFB40F6A971C0F6010160800878012809D140F6F050C0F60100C57240F6A97082
S3251004E000C0F60100057097F820000B2820D197F82210112916D10321BA7FB97797F82410B5
S3251004E020FA77552918D0002818BF01281FD1B97F0220F977B877FFF7C2FE97F82800402809
S3251004E0402CD123E0132903D1BA7FFA770421B97797F824105529E6D1B97F0520F977B877A3
S3251004E060FFF7ADFE97F82800402817D10EE0422804BF97F82200002802D1B97FF977B87740
S3251004E080FFF79DFE97F82800402807D197F8260087F82700FEF7FAFA87F8260097F82A003C
S3251004E0A0012810D1387840F67071C0F601017870C878387001281CBFB878012803D1B87E86
S3251004E0C0F876BE7606E0B87EF876BD7602E0B87FF877BD7701B0BDE8F08C10B440F670725D
S3251004E0E0C0F6010202EBC00002790024914208BFA0F8054024D082790132D2B269B990F83A
S3251004E10002C062450DD3847101224271027804718AB90122C270C17112E090F801C0624536
S3251004E12003D282714471C1710AE08471012242710278017112B9C470C17101E0C170C17100
S3251004E14010BC70474DF24721C1F20401C9B20020FFF7C3BF70B581B040F64065C0F60105C3
S3251004E16040F2DC34C0F6010494F82A000026012819D10DF103000BF0BAFB9DF80310687860
S3251004E18081420AD16888013080B264280FD3A078E0700120A070304609E0A078E0706970CD
S3251004E1A0A670304603E0A078E0703046A670688001B070BD00B581B00DF103000BF0A5FB9A
S3251004E1C09DF8030001B000BD45F2D412C1F2080240F67070C0F601001368036093685168E6
S3251004E1E0D26883604160C26043F2B211C0F6010100200874C860C88008724FF4BA728A8076
S3251004E2004A814A8040F2DC31C0F60101A1F85000C1F80A00C1F80E00C1F812008861C86108
S3251004E220C1F82200C1F82600C88501220A724A72C1F82A00252281F8302081F83120C1F8EC
S3251004E2405E0008878887A1F86800A1F87200704745F2D412C1F2080240F67070C0F601003E
S3251004E2601368036093685168D26883604160C26043F2B211C0F6010100200874C860C88056
S3251004E28008724FF4BA728A804A814A8040F2DC31C0F60101A1F85000C1F80A00C1F80E0072
S3251004E2A0C1F812008861A1F86000C861C1F82200C1F8260048858887A1F87200704740F2E4
S3251004E2C0DC30C0F6010090F85E1040F25C42C0F6010280F85F101179012918BF002180F8D7
S3251004E2E05E10704710B540F2DC34C0F6010494F82C0094F82D20012840F0928094F85E1027
S3251004E300012948D1012A24D042F2107003F0ECF90146012003F0F9F942F2107003F0E4F924
S3251004E3200146022003F0F1F942F2107003F0DCF90146032003F0E9F994F82C0084F82D0061
S3251004E34040F2E840C0F601008178C1700121817010BD94F85F00012859D042F2107003F0A4
S3251004E360C3F9012103F004FA42F2107003F0BCF9022103F0FDF942F2107003F0B5F90321D3
S3251004E38003F0F6F940F2E840C0F601008178C1700121817010BD608E012A20D003F0A4F9CD
S3251004E3A00146012003F0B1F9608E03F09DF90146022003F0AAF9608E03F096F901460320EE
S3251004E3C003F0A3F994F82C0084F82D0040F2E840C0F601008178C1700121817010BDA28EE8
S3251004E3E0824203D194F85F208AB181B903F07CF9012103F0BDF9608E03F076F9022103F052
S3251004E400B7F9608E03F070F9032103F0B1F940F2E840C0F601008178C1700121817010BD0C
S3251004E420002A08BF10BD002818BF10BD012003F090F9022003F08DF9032003F08AF940F235
S3251004E440E840C0F601008178C1700021817094F82C0084F82D0010BD10B540F2DC34C0F69C
S3251004E460010494F82E0001286CD103F072F9022003F06FF9032003F06CF994F85E1094F881
S3251004E4802F0001292ED1012818D094F82E00012814D142F2107003F027F90146002003F010
S3251004E4A034F994F82E0084F82F0040F2E840C0F60100017841700121017010BD94F85F002A
S3251004E4C0012836D042F2107003F00EF9002103F04FF940F2E840C0F601000178417001218C
S3251004E4E0017010BD012817D094F82E00012813D1608E03F0F9F80146002003F006F994F836
S3251004E5002E0084F82F0040F2E840C0F60100017841700121017010BD608EA28E824203D1B7
S3251004E52094F85F202AB121B903F0DEF8002103F01FF940F2E840C0F60100017841700121AF
S3251004E540017010BD50B940F68672C0F601021178022908BFBDE8104003F0FB8094F82F10CA
S3251004E560002908BF10BD002818BF10BD03F0F1F840F2E840C0F6010001784170002101704F
S3251004E58094F82E0084F82F0010BD10B540F2DC34C0F6010494F82C0094F82D10012840F093
S3251004E5A08C8094F85E00002842D1012921D01E2003F099F80146012003F0A7F81E2003F008
S3251004E5C092F80146022003F0A0F81E2003F08BF80146032003F099F894F82C0084F82D00A0
S3251004E5E040F2E840C0F601008178C1700121817010BD94F85F00002856D01E2003F073F811
S3251004E600012103F0B5F81E2003F06DF8022103F0AFF81E2003F067F8032103F0A9F840F251
S3251004E620E840C0F601008178C1700121817010BD012921D0C82003F056F80146012003F038
S3251004E64064F8C82003F04FF80146022003F05DF8C82003F048F80146032003F056F894F81F
S3251004E6602C0084F82D0040F2E840C0F601008178C1700121817010BD94F85F10012913D088
S3251004E680012811D1C82003F02EF8012103F070F8C82003F028F8022103F06AF8C82003F089
S3251004E6A022F8032103F064F840F2E840C0F601008178C1700121817010BD002908BF10BDDB
S3251004E6C0002818BF10BD012003F043F8022003F040F8032003F03DF840F2E840C0F601005C
S3251004E6E08178C1700021817094F82C0084F82D0010BD10B540F2DC34C0F6010494F82E001A
S3251004E70094F82F10012855D194F85E0038BB012913D01E2002F0E7FF0146002002F0F5FF78
S3251004E72094F82E0084F82F0040F2E840C0F60100017841700121017010BD94F85F0080B3A1
S3251004E7401E2002F0D0FF002103F012F840F2E840C0F60100017841700121017010BD0129BD
S3251004E76013D0C82002F0BFFF0146002002F0CDFF94F82E0084F82F0040F2E840C0F6010069
S3251004E780017841700121017010BD94F85F10012907D0012805D1C82002F0A5FF002102F049
S3251004E7A0E7FF40F2E840C0F60100017841700121017010BD002908BF10BD002818BF10BD35
S3251004E7C002F0C7FF40F2E840C0F60100017841700021017094F82E0084F82F0010BD00B5B3
S3251004E7E040F2DC30C0F6010090F85E1040F25C42C0F6010280F85F101179012918BF0021F8
S3251004E80080F85E10FFF76EFDFFF726FE00BD40F68473C0F6010340F2E841C0F60101887BC3
