S00F0000655F6A78315F70655F72000014
S3251004800002480349016000F0B7BF000008ED00E000840410FFFFFFFFFFFFFFFFFFFFFFFF88
S32510048020FFFFFFFFFFFFFFFFFFFFFFFFFFFFFFFFFFFFFFFFFFFFFFFFFFFFFFFFFFFFFFFF46
S32510048040FFFFFFFFFFFFFFFFFFFFFFFFFFFFFFFFFFFFFFFFFFFFFFFFFFFFFFFFFFFFFFFF26
S32510048060FFFFFFFFFFFFFFFFFFFFFFFFFFFFFFFFFFFFFFFFFFFFFFFFFFFFFFFFFFFFFFFF06
S32510048080FFFFFFFFFFFFFFFFFFFFFFFFFFFFFFFFFFFFFFFFFFFFFFFFFFFFFFFFFFFFFFFFE6
S325100480A0FFFFFFFFFFFFFFFFFFFFFFFFFFFFFFFFFFFFFFFFFFFFFFFFFFFFFFFFFFFFFFFFC6
S325100480C0FFFFFFFFFFFFFFFFFFFFFFFFFFFFFFFFFFFFFFFFFFFFFFFFFFFFFFFFFFFFFFFFA6
S325100480E0FFFFFFFFFFFFFFFFFFFFFFFFFFFFFFFFFFFFFFFFFFFFFFFFFFFFFFFFFFFFFFFF86
S32510048100FFFFFFFFFFFFFFFFFFFFFFFFFFFFFFFFFFFFFFFFFFFFFFFFFFFFFFFFFFFFFFFF65
S32510048120FFFFFFFFFFFFFFFFFFFFFFFFFFFFFFFFFFFFFFFFFFFFFFFFFFFFFFFFFFFFFFFF45
S32510048140FFFFFFFFFFFFFFFFFFFFFFFFFFFFFFFFFFFFFFFFFFFFFFFFFFFFFFFFFFFFFFFF25
S32510048160FFFFFFFFFFFFFFFFFFFFFFFFFFFFFFFFFFFFFFFFFFFFFFFFFFFFFFFFFFFFFFFF05
S32510048180FFFFFFFFFFFFFFFFFFFFFFFFFFFFFFFFFFFFFFFFFFFFFFFFFFFFFFFFFFFFFFFFE5
S325100481A0FFFFFFFFFFFFFFFFFFFFFFFFFFFFFFFFFFFFFFFFFFFFFFFFFFFFFFFFFFFFFFFFC5
S325100481C0FFFFFFFFFFFFFFFFFFFFFFFFFFFFFFFFFFFFFFFFFFFFFFFFFFFFFFFFFFFFFFFFA5
S325100481E0FFFFFFFFFFFFFFFFFFFFFFFFFFFFFFFFFFFFFFFFFFFFFFFFFFFFFFFFFFFFFFFF85
S32510048200FFFFFFFFFFFFFFFFFFFFFFFFFFFFFFFFFFFFFFFFFFFFFFFFFFFFFFFFFFFFFFFF64
S32510048220FFFFFFFFFFFFFFFFFFFFFFFFFFFFFFFFFFFFFFFFFFFFFFFFFFFFFFFFFFFFFFFF44
S32510048240FFFFFFFFFFFFFFFFFFFFFFFFFFFFFFFFFFFFFFFFFFFFFFFFFFFFFFFFFFFFFFFF24
S32510048260FFFFFFFFFFFFFFFFFFFFFFFFFFFFFFFFFFFFFFFFFFFFFFFFFFFFFFFFFFFFFFFF04
S32510048280FFFFFFFFFFFFFFFFFFFFFFFFFFFFFFFFFFFFFFFFFFFFFFFFFFFFFFFFFFFFFFFFE4
S325100482A0FFFFFFFFFFFFFFFFFFFFFFFFFFFFFFFFFFFFFFFFFFFFFFFFFFFFFFFFFFFFFFFFC4
S325100482C0FFFFFFFFFFFFFFFFFFFFFFFFFFFFFFFFFFFFFFFFFFFFFFFFFFFFFFFFFFFFFFFFA4
S325100482E0FFFFFFFFFFFFFFFFFFFFFFFFFFFFFFFFFFFFFFFFFFFFFFFFFFFFFFFFFFFFFFFF84
S32510048300FFFFFFFFFFFFFFFFFFFFFFFFFFFFFFFFFFFFFFFFFFFFFFFFFFFFFFFFFFFFFFFF63
S32510048320FFFFFFFFFFFFFFFFFFFFFFFFFFFFFFFFFFFFFFFFFFFFFFFFFFFFFFFFFFFFFFFF43
S32510048340FFFFFFFFFFFFFFFFFFFFFFFFFFFFFFFFFFFFFFFFFFFFFFFFFFFFFFFFFFFFFFFF23
S32510048360FFFFFFFFFFFFFFFFFFFFFFFFFFFFFFFFFFFFFFFFFFFFFFFFFFFFFFFFFFFFFFFF03
S32510048380FFFFFFFFFFFFFFFFFFFFFFFFFFFFFFFFFFFFFFFFFFFFFFFFFFFFFFFFFFFFFFFFE3
S325100483A0FFFFFFFFFFFFFFFFFFFFFFFFFFFFFFFFFFFFFFFFFFFFFFFFFFFFFFFFFFFFFFFFC3
S325100483C0FFFFFFFFFFFFFFFFFFFFFFFFFFFFFFFFFFFFFFFFFFFFFFFFFFFFFFFFFFFFFFFFA3
S325100483E0FFFFFFFFFFFFFFFFFFFFFFFFFFFFFFFFFFFFFFFFFFFFFFFFFFFFFFFFFFFFFFFF83
S3251004840000A4000800800410553E08109D3D08109D3D08109D3D08109D3D0810013E081038
S32510048420013E0810013E0810013E0810653C0810013E0810013E0810013E0810613A0810AC
S32510048440613A0810613A0810613A0810613A0810613A0810613A0810613A0810613A08106A
S32510048460613A0810613A0810613A0810613A0810613A0810613A0810613A0810613A08104A
S32510048480013E0810013E0810013E0810013E0810013E0810013E0810013E0810013E08100A
S325100484A0013E0810013E0810013E0810013E0810013E0810013E0810013E0810013E0810EA
S325100484C0013E0810013E0810013E0810013E0810013E0810013E0810013E0810013E0810CA
S325100484E0013E0810013E0810013E0810013E0810013E0810013E0810013E0810013E0810AA
S32510048500013E0810013E0810013E0810013E0810013E0810013E0810013E0810013E081089
S32510048520013E0810013E0810013E0810013E0810013E0810013E0810013E0810013E081069
S32510048540013E0810013E0810013E0810013E0810013E0810013E0810013E0810013E081049
S32510048560013E0810013E0810013E0810013E0810013E0810013E0810013E0810013E081029
S32510048580013E0810013E0810013E0810013E0810013E0810013E0810013E0810013E081009
S325100485A0013E0810013E0810013E0810013E0810013E0810013E0810013E0810013E0810E9
S325100485C0013E0810013E0810013E0810013E0810013E0810013E0810013E0810013E0810C9
S325100485E0013E0810013E0810013E0810013E0810013E0810013E0810013E0810013E0810A9
S32510048600013E0810013E0810013E0810013E0810013E0810013E0810013E0810013E081088
S32510048620013E0810013E0810013E0810013E0810013E0810013E0810013E0810013E081068
S32510048640013E0810013E0810013E0810013E0810013E0810013E0810013E0810013E081048
S32510048660013E0810013E0810013E0810013E0810013E0810013E0810013E0810013E081028
S32510048680013E0810013E0810013E0810013E0810013E0810013E0810013E0810013E081008
S325100486A0013E0810013E0810013E0810013E0810013E0810013E0810013E0810013E0810E8
S325100486C0013E0810013E0810013E0810013E0810013E0810013E0810013E0810013E0810C8
S325100486E0013E0810013E0810013E0810013E0810013E0810013E0810013E0810013E0810A8
S32510048700013E0810013E0810013E0810013E0810013E0810013E0810013E0810013E081087
S32510048720013E0810013E0810013E0810013E0810013E0810013E0810013E0810013E081067
S32510048740013E0810013E0810013E0810013E0810013E0810013E0810013E0810013E081047
S32510048760013E0810013E0810013E0810013E0810013E0810013E0810013E0810013E081027
S32510048780013E0810013E0810013E0810013E0810013E0810013E0810013E0810013E081007
S325100487A0013E0810013E0810013E0810013E0810013E0810013E0810013E0810013E0810E7
S325100487C0013E0810013E0810013E0810013E0810013E0810013E0810013E0810013E0810C7
S325100487E0013E0810013E0810013E0810013E0810013E0810013E0810013E0810FFFFFFFF02
S3251004880002000001000000FF17042020FFFFFFFF40B70200008004100F880410008D04100C
S32510048820FFFF2010FFFFFFFFFFFFFFFFFFFFFFFFFFFFFFFFFFFFFFFFFFFFFFFFFFFFFFFF0C
S32510048840FFFFFFFFFFFFFFFFFFFFFFFFFFFFFFFFFFFFFFFFFFFFFFFFFFFFFFFFFFFFFFFF1E
S32510048860FFFFFFFFFFFFFFFFFFFFFFFFFFFFFFFFFFFFFFFFFFFFFFFFFFFFFFFFFFFFFFFFFE
S32510048880FFFFFFFFFFFFFFFFFFFFFFFFFFFFFFFFFFFFFFFFFFFFFFFFFFFFFFFFFFFFFFFFDE
S325100488A0FFFFFFFFFFFFFFFFFFFFFFFFFFFFFFFFFFFFFFFFFFFFFFFFFFFFFFFFFFFFFFFFBE
S325100488C0FFFFFFFFFFFFFFFFFFFFFFFFFFFFFFFFFFFFFFFFFFFFFFFFFFFFFFFFFFFFFFFF9E
S325100488E0FFFFFFFFFFFFFFFFFFFFFFFFFFFFFFFFFFFFFFFFFFFFFFFFFFFFFFFFFFFFFFFF7E
S32510048C000000020000800410FF880410008C0410FFFF2010FFFFFFFFFFFFFFFFFFFFFFFF47
S32510048C20FFFFFFFFFFFFFFFFFFFFFFFFFFFFFFFFFFFFFFFFFFFFFFFFFFFFFFFFFFFFFFFF3A
S32510048C40FFFFFFFFFFFFFFFFFFFFFFFFFFFFFFFFFFFFFFFFFFFFFFFFFFFFFFFFFFFFFFFF1A
S32510048C60FFFFFFFFFFFFFFFFFFFFFFFFFFFFFFFFFFFFFFFFFFFFFFFFFFFFFFFFFFFFFFFFFA
S32510048C80FFFFFFFFFFFFFFFFFFFFFFFFFFFFFFFFFFFFFFFFFFFFFFFFFFFFFFFFFFFFFFFFDA
S32510048CA0FFFFFFFFFFFFFFFFFFFFFFFFFFFFFFFFFFFFFFFFFFFFFFFFFFFFFFFFFFFFFFFFBA
S32510048CC0FFFFFFFFFFFFFFFFFFFFFFFFFFFFFFFFFFFFFFFFFFFFFFFFFFFFFFFFFFFFFFFF9A
S32510048CE0FFFFFFFFFFFFFFFFFFFFFFFFFFFFFFFFFFFFFFFFFFFFFFFFFFFFFFFFFFFFFFFF7A
S32510048D00FFFFFFFFFFFFFFFFFFFFFFFFFFFFFFFFFFFFFFFFFFFFFFFFFFFFFFFFFFFFFFFF59
S32510048D2030B40346104600248C420FD248F65875C1F20D0513F8012B42401206D20D525B96
S32510048D4082EA102080B201348C42F3D330BC70472DE9F00C01004FF0010000F0A1800C68E7
S32510048D60002C00F09D8065884FF6FF718D4218BF002D00F0958034F8091C0023AB4280F055
S32510048D808B8004EBC3067268B668B2F1FF3F1CBF002A964203D822888A427FD080E0B61A70
S32510048DA006F1010C5FEADC075DD048F65876C1F20D0632F808AB8AEA010B4FEA0B6B4FEA25
S32510048DC0DB5B3BF806B08BEA212181EA1A2A4FEA0A6A4FEADA5A3AF806B032F806AC8BEAA1
S32510048DE021218AEA010B4FEA0B6B4FEADB5B3BF806B08BEA212181EA1A2A4FEA0A6A4FEA44
S32510048E00DA5A3AF806B032F804AC8BEA21218AEA010B4FEA0B6B4FEADB5B3BF806B08BEA8F
S32510048E20212181EA1A2A4FEA0A6A4FEADA5A3AF806B032F802AC8BEA21218AEA010B4FEADD
S32510048E400B6B4FEADB5B3BF806B08BEA212181EA1A2A4FEA0A6A4FEADA5A3AF806A08AEA5E
S32510048E602121013FA5D11CF0070611D048F65877C1F20D0712F801CB8CEA010C4FEA0C6C08
S32510048E804FEADC5C3CF807C08CEA2121013EF1D10133AB42FFF475AF22888A4208BF0020FE
S32510048EA0BDE8F00C70472DE9F0444DF6D046C0F6000600214FF4887055F0FAF848F60C20E4
S32510048EC0C1F20D000024057B3470AC420FD22746D0F808A0380E0AEBC000FFF739FF08B1E2
S32510048EE00124347007F18077B5EB176FF2D80CB90220307000F00CF901214FF48870BDE832
S32510048F00F04455F0D5B8FFF7CEBFF0B54DF6D046C0F60006022048F60C21C1F20D01307006
S32510048F200C790025A54228BFF0BD0F68280E07EBC000FFF70DFF08B10120307005F180752C
S32510048F40B4EB156FF2D8F0BD00B55AF09DFB002814BF0420032000BD4DF6D041C0F60001BC
S32510048F600878022808BF7047003818BF0120704701808FE218FF2FE106460F46904611F037
S32510048F80BFFF4FF014004FF0010151F0E5FE48F69F75C1F20405A5F101057A46A2EB050540
S32510048FA09146002803D131463A4643460AE04AF20040C0F6000085464FF000014FF00002DC
S32510048FC04FF0000340F20200012817D308D04EF68850CEF20000046844F4700404600DE0D1
S32510048FE011EE500F40F4A00001EE500FBFF36F8FF8EE100A40F08040E8EE100A4FF0000404
S3251004900048F20040C1F20400814506DB40F20000C1F22100814500DC2C4643F65870C1F290
S325100490200800A0EB040000EB05004FF000044FF000054FF000063AF0A5F900BFFDE7000058
S325100490408AF022B88AF04AB858B940F26041C0F6010191F86600012818BF7047002059F07B
S32510049060BBBF022818BF704740F26041C0F6010191F86600012818BF7047022059F0ACBF9D
S32510049080022808BF00200FF04C85012818BF704700200FF04ABD00B540F26041C0F60101B8
S325100490A091F86600012804BF002059F095FF002059F076FF40F22031C0F60101002008700D
S325100490C000BD00B500200FF02CFD40F26041C0F6010191F86600012804BF022059F07CFF70
S325100490E0022059F05DFF40F22031C0F601010020087000BD40F22E31C0F60101012008701D
S32510049100704740F22E31C0F60101022008707047704701207047000040F23033C0F6010306
S3251004912000205863986103F8100B43F80C0C03F8040CD862D86198619862D86083F8300084
S3251004914048F20001C1F20401196140F6FF028A181A6201F5406183E803004FF6FF71C1F2C6
S3251004916020015961042340F27431C0F6010140F29432C0F60102907001F8080B22F8080B5A
S3251004918021F8070C02F8030C01F8050C22F8050C21F8040C01F8020C22F8020C01F8010CED
S325100491A0013BE8D1704730B540F23034C0F601042078012805D16068B0F1FF3F01D2013071
S325100491C06060207B012805D12069B0F1FF3F01D201302061207A062888BF30BD0FF204012C
S325100491E0D1E800F0041B38C3679EB60048F20000C1F20400206248F6FF00C1F204002063ED
S3251004920048F60040C1F2040060614FF6FF70C1F2200060620120207230BD40F26041C0F6CC
S32510049220010191F83C00012818BF30BDFFF774FF38F0D1FF002818BF30BD206A216B091ADA
S32510049240E0630131012020700020606061630220207230BD40F26041C0F6010191F83C0039
S3251004926000287ED0616BE06B38F0C0FFA8B96069616A091A8A0AC1F30901A1634FF48061CE
S32510049280A161A2620121E062E161002020612070606021730420207230BD606848F6A041F9
S325100492A0884238BF30BD0020207060600120207230BD40F26041C0F6010191F83C0000285E
S325100492C04FD0A169E06A38F091FFE8B9E169A26A914204D9207320610520207230BD606921
S325100492E000F580606061E0620131E161914205D9A06B0130A0610420207230BD4FF4806054
S32510049300A0610420207230BD206948F6A041884238BF30BD0020207320610120207230BD65
S3251004932040F29435C0F60105284638F06CFF002818BF30BD012084F84000294640F274304D
S32510049340C0F6010020223AF008F80620207230BD40F26041C0F6010191F83C00002818BFDC
S3251004936030BDFFF7D9FE0020207230BD0FF0F3BC40F2C830C0F601008178C1700121027825
S3251004938081704270017070472DE9F04C00274FF0010A40F2B43B40F2B836C0F60106C0F671
S325100493A0010B306840F2D435C0F6010510F0010F0DD020F0010195F84E00316085F84F00C1
S325100493C085F84E70084611F0020F0FD024E0DBF8000010F0010F19D095F84E0085F84F0082
S325100493E0306885F84EA010F0020F15D1DBF8000010F0020F2DD095F8500085F85100306835
S3251004940085F850A010F0040F13D028E028786870306810F0020FE9D020F0020195F85000FD
S32510049420316085F8510085F85070084611F0040F15D1DBF8000010F0040F36D095F8520063
S3251004944085F85300306885F852A010F0080F13D033E0A878E870306810F0040FE9D020F022
S32510049460040195F85200316085F8530085F85270084611F0080F20D1DBF8000040F260444E
S32510049480C0F6010410F0080F3DD0B5F85400A5F85600608EA5F854A0A08607F0F3F8608672
S325100494A0306810F0100F1ED03AE028796871A879E871306810F0080FDED020F008003060DA
S325100494C0B5F8540040F26044C0F60104A5F85600608EA5F85470A08607F0D4F86086306837
S325100494E010F0100F1CD1DBF8000010F0100F34D095F8580085F85900306885F858A010F088
S32510049500200F1AD02FE028896881A889E881608EA08607F0B7F86086306810F0100FE2D0CC
S3251004952020F0100195F85800316085F8590085F85870084611F0200F15D1DBF8000010F028
S32510049540200F2DD095F85A0085F85B00306885F85AA010F0400F13D028E0287C68743068A5
S3251004956010F0200FE9D020F0200195F85A00316085F85B0085F85A70084611F0400F15D19D
S32510049580DBF8000010F0400F2DD095F85C0085F85D00306885F85CA010F0800F13D028E044
S325100495A0A87CE874306810F0400FE9D020F0400195F85C00316085F85D0085F85C70084635
S325100495C011F0800F15D1DBF8000010F0800F2DD095F85E0085F85F00306885F85EA010F4BE
S325100495E0807F13D028E0287D6875306810F0800FE9D020F0800195F85E00316085F85F001C
S3251004960085F85E70084611F4807F15D1DBF8000010F4807F2DD095F8600085F86100306877
S3251004962085F860A010F4007F13D028E0A87DE875306810F4807FE9D020F4807195F860005D
S32510049640316085F8610085F86070084611F4007F15D1DBF8000010F4007F2DD095F862003A
S3251004966085F86300306885F862A010F4806F13D028E0287E6876306810F4007FE9D020F48F
S32510049680007195F86200316085F8630085F86270084611F4806F15D1DBF8000010F4806FA2
S325100496A02DD095F8640085F86500306885F864A010F4006F13D028E0A87EE876306810F429
S325100496C0806FE9D020F4806195F86400316085F8650085F86470084611F4006F15D1DBF8A3
S325100496E0000010F4006F31D095F8660085F86700306885F866A010F4805F13D02CE0287F71
S325100497006877306810F4006FE9D020F4006195F86600316085F8670085F86670084611F409
S32510049720805F19D1DBF8000010F4805F38D095F8680085F8690040F2C030C0F6010001686B
S3251004974085F868A011F0400F17D035E0A87FE877306810F4805FE5D020F48050306095F867
S32510049760680085F8690040F2C030C0F60100016885F8687011F0400F1ED140F2BC32C0F6D5
S325100497800102116811F0400F33D095F86A1085F86B10316885F86AA011F4005F19D030E064
S325100497A095F8200085F8210040F2C030C0F60100016811F0400FE0D021F04001016095F8C2
S325100497C06A1085F86B10316885F86A7011F4005F17D1DBF8001011F4005F2FD095F86C1072
S325100497E085F86D10316885F86CA011F4804F15D02CE095F8221085F82310316811F4005F02
S32510049800E7D021F4005295F86C10326085F86D1085F86C70114612F4804F17D1DBF800102B
S3251004982011F4804F32D095F86E1085F86F10016885F86EA011F0010F15D03BE095F8261069
S3251004984085F82710316811F4804FE7D021F48041316095F86E1085F86F10016885F86E70E4
S3251004986011F0010F26D140F2BC32C0F60102116811F0010F3ED095F8701085F871100168E1
S3251004988085F870A011F0020F21D03BE095F8281085F8291095F82C1085F82D1095F82E103A
S325100498A085F82F1095F82A1085F82B10016811F0010FD8D021F0010295F87010026085F831
S325100498C0711085F87070114612F0020F1AD140F2BC32C0F60102116811F0020F32D095F848
S325100498E0721085F87310016885F872A011F0040F15D02FE095F8301085F83110016811F0D7
S32510049900020FE4D021F0020295F87210026085F8731085F87270114612F0040F1AD140F2FA
S32510049920BC32C0F60102116811F0040F32D095F8741085F87510016885F874A011F0080FB2
S3251004994015D02FE095F8321085F83310016811F0040FE4D021F0040295F87410026085F832
S32510049960751085F87470114612F0080F1AD140F2BC32C0F60102116811F0080F32D095F893
S32510049980761085F87710016885F876A011F0100F15D02FE095F8341085F83510016811F016
S325100499A0080FE4D021F0080295F87610026085F8771085F87670114612F0100F1AD140F236
S325100499C0BC32C0F60102116811F0100F32D095F8781085F87910016885F878A011F0200FE2
S325100499E015D02FE095F8361085F83710016811F0100FE4D021F0100295F87810026085F86E
S32510049A00791085F87870114612F0200F1AD140F2BC32C0F60102116811F0200F32D095F8BA
S32510049A207A1085F87B10016885F87AA011F0800F15D02FE095F8381085F83910016811F0F1
S32510049A40200FE4D021F0200295F87A10026085F87B1085F87A70114612F0800F1AD140F2E9
S32510049A60BC32C0F60102116811F0800F2FD095F87C1085F87D10016885F87CA011F4807FF4
S32510049A8015D02CE095F83A1085F83B10016811F0800FE4D021F0800295F87C10026085F8E4
S32510049AA07D1085F87C70114612F4807F17D140F2BC31C0F60101086810F4807F1AD095F891
S32510049AC07E0085F87F0085F87EA0BDE8F08C95F83C1085F83D10016811F4807FE7D021F45A
S32510049AE08071016095F87E0085F87F0085F87E70BDE8F08C95F83E0085F83F0095F8400013
S32510049B0085F84100BDE8F08C30B440F2F841C0F601010A78012A04D14878FF283CBF0130B0
S32510049B20487040F2D43040F2C433C0F60103C0F601001C68002514F0010F0AD024F00102D5
S32510049B401A6090F846004D70002818BF0120087016E0012A02D14A78322A08D290F8442076
S32510049B6090F8463080F8452080F8473008E080F8445080F846500D8080F8455080F8475056
S32510049B8030BC704770B440F60854C0F601042378012B06D160884FF6FF7188423CBF013066
S32510049BA0608000212079012501280FD028BF21712ED240F2C830C0F601000278012A27D1CC
S32510049BC02270618045700170257121E040F2C830C0F6010082781AB922706180217117E091
S32510049BE00678012E04D126706180457001700FE0012B0DD16388B3F5FA7F09D321706180D9
S32510049C00C27040F6B053C0F6010381701D70217170BC704730B400240D46EB0815D0014698
S32510049C204FF0FF32DC0001F8082B01F8072C01F8062C01F8052C01F8042C01F8032C01F8C7
S32510049C40022C01F8012C013BEDD115F0070106D020184FF0FF3200F8012B0139FBD130BCFB
S32510049C60704770B400251646F40824D002460B46E50012F808CB03F808CB12F807CC03F87D
S32510049C8007CC12F806CC03F806CC12F805CC03F805CC12F804CC03F804CC12F803CC03F80E
S32510049CA003CC12F802CC03F802CC12F801CC03F801CC013CDDD116F0070207D028186918E9
S32510049CC010F8013B01F8013B013AF9D170BC7047F0B500EBC00043F26C01C0F6010101EB73
S32510049CE080046169201D8847A1786071012904D300F095800020A070F0BD002818BFF0BD77
S32510049D002079012808BFF0BD052840D1A668E7684FF0FF30E070257C0020EB0824D031467B
S32510049D203A46D80011F808CB02F808CB11F807CC02F807CC11F806CC02F806CC11F805CCDE
S32510049D4002F805CC11F804CC02F804CC11F803CC02F803CC11F802CC02F802CC11F801CC65
S32510049D6002F801CC013BDDD115F007014DD08219C01912F8013B00F8013B0139F9D1E169B2
S32510049D80E0688847E071002818BFF0BD44E02078002808BFF0BD002121704FF0FF30E070CD
S32510049DA0E668257CA768EB0824D030463A46D90010F808CB02F808CB10F807CC02F807CC85
S32510049DC010F806CC02F806CC10F805CC02F805CC10F804CC02F804CC10F803CC02F803CCDD
S32510049DE010F802CC02F802CC10F801CC02F801CC013BDDD115F0070007D08A19C91912F8B3
S32510049E00013B01F8013B0138F9D1E169E0688847E071002818BFF0BD0120A070F0BD2079DF
S32510049E2002281CBF0020A070F0BD10B543F20804C0F601042078FFF74BFF227843F26C0151
S32510049E4002EBC200C0F6010101EB8000C078C0B9501CC0B207280ED02070C87880B340F640
S32510049E607450C0F601000178417000210170BDE8104059F0E3B800202070C8780028EED1E1
S32510049E801EE001281CBF032805280FD16078013804D36070C8780028E1D111E003206070B8
S32510049EA0501C2070C8780028D9D109E004381CBF023802289CBF07202070C8780028CED1FD
S32510049EC091F827000028CAD191F84B000028C6D191F86F000028C2D191F893000028BED1DC
S32510049EE091F8B7000028BAD191F8DB000028B6D140F67450C0F601000178417001210170D4
S32510049F0059F09CF8BDE8104002F06FBCF0B500EBC00043F26C03C0F6010303EB8003DA70CF
S32510049F20062918BF0C2940F0A480012A18BF032A61D1DF681D7C0024EA0815D038464FF07F
S32510049F40FF31D40000F8081B00F8071C00F8061C00F8051C00F8041C00F8031C00F8021C35
S32510049F6000F8011C013AEDD115F0070006D0E1194FF0FF3201F8012B0138FBD19E681D7CA4
S32510049F80DF68EC0824D031463A46E00011F808CB02F808CB11F807CC02F807CC11F806CC74
S32510049FA002F806CC11F805CC02F805CC11F804CC02F804CC11F803CC02F803CC11F802CCFB
S32510049FC002F802CC11F801CC02F801CC013CDDD115F0070100F0AB808219C01912F801CBA5
S32510049FE000F801CB0139F9D1012018705878012818BFF0BDA1E0052A40F09B809E68DF6811
S3251004A0001D7C0020EC0824D031463A46E00011F808CB02F808CB11F807CC02F807CC11F853
S3251004A02006CC02F806CC11F805CC02F805CC11F804CC02F804CC11F803CC02F803CC11F876
S3251004A04002CC02F802CC11F801CC02F801CC013CDDD115F007016CD08219C01912F801CB35
S3251004A06000F801CB0139F9D15878012818BFF0BD63E007295DD1012A5BD1DF681D7C002485
S3251004A080EA0815D038464FF0FF31D40000F8081B00F8071C00F8061C00F8051C00F8041C8D
S3251004A0A000F8031C00F8021C00F8011C013AEDD115F0070006D0E1194FF0FF3201F8012BDA
S3251004A0C00138FBD19E681D7CDF68EC0824D031463A46E00011F808CB02F808CB11F807CC37
S3251004A0E002F807CC11F806CC02F806CC11F805CC02F805CC11F804CC02F804CC11F803CCB2
S3251004A10002F803CC11F802CC02F802CC11F801CC02F801CC013CDDD115F0070107D08219B6
S3251004A120C01912F801CB00F801CB0139F9D1012018705878012818BFF0BD00205870196AFD
S3251004A140D878BDE8F040084743F26C03C0F6010300EBC00003F8201003EB8000C2607047F6
S3251004A160704770477047704770477047704710B440F61054C0F601042078552842D1AA20B9
S3251004A18040F62C51C0F6010120700878FF2845D0AA2804BF4FF0FF300870207AFF2842D0A0
S3251004A1A0AA2804BF4FF0FF30207240F63C51C0F601010878FF283FD0AA2804BF4FF0FF30BC
S3251004A1C00870207CFF283CD0AA2804BF4FF0FF30207440F65451C0F601010878FF2839D044
S3251004A1E0AA2804BF4FF0FF30087040F66451C0F601010878FF2836D0CC2804BF4FF0FF3055
S3251004A200087032E0AA2804BF4FF0FF30207040F62C51C0F601010878FF28B9D1AA20087029
S3251004A220207AFF28BCD1AA2040F63C51C0F6010120720878FF28BFD1AA200870207CFF28A3
S3251004A240C2D1AA2040F65451C0F6010120740878FF28C5D1AA20087040F66451C0F601013E
S3251004A2600878FF28C8D1CC200870207E43F26C0200EBC000C0F60102012302F8203002EB20
S3251004A2808000C160207E01302076207E072804BF0020207610BC7047704740F26040C0F696
S3251004A2A0010090F85E1040F2D432C0F6010280F85F101179012918BF002180F85E1070476C
S3251004A2C070B5054640F68854C0F60104A071E079A84214D040F26041C0F60101488E06F098
S3251004A2E099FB48F21F51C5F2EB1151FB00F10909A1EBE071A1802080A0796180E071052DE9
S3251004A30019D12088618888420CD9002106F0C6FB2068A288A0EB1040208080B2824288BFB7
S3251004A32070BD72E0002006F0AAFB2088A288824288BF70BD69E0042D27D1208861888842F2
S3251004A34014D9012106F0AAFB2088022106F0A6FB2088032106F0A2FB2068A288A0EB1040EB
S3251004A360208080B2824288BF70BD4EE0012006F086FB022006F083FB032006F080FB208821
S3251004A380A288824288BF70BD3FE0012D0BD1022006F075FB032006F072FB2088A288824274
S3251004A3A088BF70BD31E0022D12D140F26041C0F60101488E06F02EFB012106F06FFB0320C7
S3251004A3C006F05DFB2088A288824288BF70BD1CE0032D05D02088A288824288BF70BD14E00C
S3251004A3E040F29246C0F60106308806F013FB012106F054FB308806F00DFB022106F04EFB41
S3251004A4002088A288824288BF70BD2946104606F045FBD4F8021001EB1140A08070BD70B590
S3251004A42040F26044C0F6010494F82C00012840F01281002006F023FB94F82C00012840F088
S3251004A4400A8140F68572C0F60102117801293AD194F85E0001281CD142F2107006F0DAFA35
S3251004A4600146012006F0E7FA42F2107006F0D2FA0146022006F0DFFA42F2107006F0CAFA67
S3251004A4800146032006F0D7FA94F82C0084F82D0070BD608E06F0BEFA0146012006F0CBFA24
S3251004A4A0608E06F0B7FA0146022006F0C4FA608E06F0B0FA0146032006F0BDFA94F82C0073
S3251004A4C084F82D0070BD002940F0C58040F2DC45C0F6010594F85E10A87D012940D1042859
S3251004A4E01CD142F2107006F095FA0146012006F0A2FA42F2107006F08DFA0146022006F092
S3251004A5009AFA42F2107006F085FA0146032006F092FAA878E8700120A87070BD012800F081
S3251004A5208D8002280CD142F2107006F073FA0146012006F080FAA878E8700120A87070BD20
S3251004A540032840F0838042F2107006F063FA0146022006F070FAA878E8700120A87070BDD5
S3251004A56040F69056C0F6010604282ED1E87D03280DD194F87600062868D10320FFF7A0FE2F
S3251004A58004203070A878E8700120A87070BD00285CD1608E06F03EFA0146012006F04BFAEB
S3251004A5A0608E06F037FA0146022006F044FA608E06F030FA0146032006F03DFA0520307065
S3251004A5C0A878E8700120A87070BD012810D1E87D04283BD194F87600082837D10420FFF788
S3251004A5E06FFE01203070A878E8700120A87070BD022810D1E87D012828D194F87600022877
S3251004A60024D10120FFF75CFE02203070A878E8700120A87070BD032818D1E87D022815D191
S3251004A62094F87600042811D10220FFF749FE03203070A878E8700120A87070BD06F01FFAE1
S3251004A640022006F01CFA032006F019FAA878E8700120A87070BD94F82D10002908BF70BDC2
S3251004A660002818BF70BD012006F009FA022006F006FA032006F003FA40F2DC41C0F6010145
S3251004A6808878C8700020887094F82C0084F82D0070BD30B540F26044C0F6010440F2DC45F9
S3251004A6A0C0F6010594F85E10A87D012912D1062837D142F2107006F0ADF90146002006F0B5
S3251004A6C0BAF994F82E1084F82F10297869700120287030BD062810D194F87600092818BFEF
S3251004A6E030BD0020FFF7ECFD94F82E1084F82F10297869700120287030BD052818BF30BDBE
S3251004A70094F876000B2818BF30BD0520FFF7D8FD94F82E1084F82F1029786970002028707F
S3251004A72030BD052818BF30BD002006F0A8F994F82E1084F82F10297869700020287030BDC6
S3251004A74000B540F26040C0F6010090F85E1040F2D432C0F6010280F85F101179012918BF48
S3251004A760002180F85E10FFF75AFEFFF792FF00BD40F69850C0F601000121017000214180DC
S3251004A780704770B540F69C54C0F60104A178012904D1E078FF283CBF0130E070207801280E
S3251004A7A004D16078FF283CBF0130607020790026012803D328D02660267170BD40F26042DB
S3251004A7C0C0F60102107F01280AD151B940F62261C0F60101087850B90120A070E67070BD5B
S3251004A7E028B140F62261C0F60101087808B1668070BDE078C82838BF70BD6680012000F046
S3251004A80042F90120207170BD40F26045C0F6010595F83D00012808D095F83C00012804D1DF
S3251004A820304600F030F9267170BD00F068F920B9287F68772E77267170BD207878B9287F22
S3251004A840002818BF70BD40F62261C0F601010878002818BF70BD01202070667070BD0128B8
S3251004A86018BF70BD6078322838BF70BD287F012805D040F62262C0F60102117809B1268063
S3251004A88070BD002818BF70BD2070667000F0FBF8267170BD30B540F6A455C0F60105687888
S3251004A8A0012803D313D00020687030BD40F26044C0F60104E07C012808BF30BDA07C0128A8
S3251004A8C018BF30BD00F0EEF80120687030BD40F26044C0F6010494F83D00012809D094F8F6
S3251004A8E03C00012805D1002000F0DCF80020687030BD00F004F9002818BF30BDA07CE074F1
S3251004A9000020A07441F27E02C0F6010201211170687030BD70B540F6A054C0F60104A078F3
S3251004A920012804D1E178FF293CBF0131E1702179002601292BD024BF267170BD40F26042A0
S3251004A940C0F60102917E01290AD150B940F62261C0F60101087850B90120A070E67070BD59
S3251004A96029B140F62262C0F60102117809B1668070BD012818BF70BDE078C82838BF70BD81
S3251004A9806680012000F0ACF80120207170BD40F26045C0F6010595F83D00012808D095F838
S3251004A9A03C00012804D1304600F09AF8267170BD00F0A5F8002818BF70BDA87EE876AE7626
S3251004A9C0267170BD40F6B051C0F601010878012818BF704740F62261C0F60101087800285A
S3251004A9E018BF704700B5FFF7CCFEFFF753FF5DF804EBFFF78FBF40F6A851C0F60101087803
S3251004AA00704740F6A851C0F601010870704740F6A751C0F601010878704740F6A751C0F64E
S3251004AA2001010870704740F6AA51C0F601010878704740F6AA51C0F601010870704740F65D
S3251004AA40A951C0F601010878704740F6A951C0F601010870704740F6AC51C0F60101087871
S3251004AA60704740F6AC51C0F601010870704740F6AB51C0F601010878704740F6AB51C0F6E2
S3251004AA8001010870704710B440F6A654C0F601042178002814BF41F0010001F0FE00207077
S3251004AAA010BC704710B440F6A654C0F601042178002814BF41F0020001F0FD00207010BC39
S3251004AAC0704710B440F6A654C0F601042178002814BF41F0040001F0FB00207010BC70472E
S3251004AAE010B440F6A654C0F601042178002814BF41F0080001F0F700207010BC704740F68F
S3251004AB00A651C0F601010878704740F6A651C0F601010870704740F6AD51C0F601010878B5
S3251004AB20704740F6AD51C0F601010870704740F6AE51C0F601010878704740F6AE51C0F61A
S3251004AB4001010870704740F6AF51C0F601010878704740F6AF51C0F601010870704740F632
S3251004AB60B051C0F6010101200870704740F61052C0F60102115401210020FFF7E5BA40F6EF
S3251004AB802C52C0F60102115401210846FFF7DCBA40F61852C0F60102115401210220FFF70B
S3251004ABA0D3BA40F63C52C0F60102115401210320FFF7CABA40F62052C0F601021154012165
S3251004ABC00420FFF7C1BA40F61051C0F60101085C704740F62C51C0F60101085C704740F6A0
S3251004ABE01851C0F60101085C704740F63C51C0F60101085C704740F62051C0F60101085CA6
S3251004AC00704740F61052C0F601024FF0FF301060506001210020FFF797BA40F62C52C0F691
S3251004AC2001024FF0FF30106050609060D06001210846FFF789BA40F61852C0F601024FF008
S3251004AC40FF301060506001210220FFF77DBA40F63C52C0F6010210460323FF2100F8081BE6
S3251004AC6000F8071C00F8061C00F8051C00F8041C00F8031C00F8021C00F8011C013BEDD118
S3251004AC8001210320FFF760BA40F62052C0F601024FF0FF301060506001210420FFF754BA0C
S3251004ACA010B540F26040C0F6010090F8361080F83710002480F8364005F01BFF204605F023
S3251004ACC025FF40F2DC40C0F6010001794171047110BD002070477047704740F26042C0F6F4
S3251004ACE0010292F82A10012915D130B543F6B87540F6B454C0F60104C1F208052068294668
S3251004AD000DF092FD206029460DF07EFD20600120BDE8304070470020704710B5012005F007
S3251004AD20F5FE40F26040C0F6010090F8361080F83710142480F83640204605F0CFFE20463C
S3251004AD4005F0D9FE40F2DC40C0F60100017941710121017110BD002070477047704740F204
S3251004AD606042C0F6010292F82A10A9B930B543F6A07540F6B454C0F60104C1F208052068C4
S3251004AD8029460DF051FD206029460DF03DFD20600120BDE8304070470020704710B540F67A
S3251004ADA0B454C0F60104207901280DD028BF10BD43F6A071C1F20801216008460DF024FD70
S3251004ADC020600120207110BD2068BDE810400DF041BD000030B543F28415C0F6010540F63D
S3251004ADE0C454C0F6010442F2107370B928460122062107F0D4FA40F26041C0F601012060FE
S3251004AE000A7F60B34A7701202BE001280ED105F108000122062107F0C2FA40F26041C0F603
S3251004AE20010120600A7F0028ECD118E0022808D040F26041C0F6010120680A7F0028E1D198
S3251004AE400DE005F110000122062107F0A8FA40F26041C0F6010120600A7F0028D2D1206023
S3251004AE604877087730BDF0B50E461F4640F6C455C0F6010542F210731146012207F08FFA73
S3251004AE80286040F26044C0F6010460B9207F607742F210730020207739463046012207F073
S3251004AEA016FB286030B10120217F2077617700203080F0BD217F61772077F0BD00B581B0AF
S3251004AEC043F6D071C1F208010A788DF801204A780DF101008DF80220897842F210738DF855
S3251004AEE003100122032107F05AFA40F6C451C0F60101086000280CBF0120002001B000BD86
S3251004AF0070B581B040F6BC54C0F601042178012906D160884FF6FF7290423CBF01306080AA
S3251004AF2040F26045C0F6010595F82800002610280FD12079E0B90120FFF74CFF6671A671EF
S3251004AF4026700120207195F82800668020280FD14BE020281CD16079002847D1FFF73AFF24
S3251004AF6026710121617195F82800A67120283CD06088C8284AD395F82000422804BF95F8B0
S3251004AF802200002840D1FFF725FF267066803DE0402804BFA0790028EAD1012240F6CC50ED
S3251004AFA0C0F6010043F6D071C1F2080142720B788DF801304B788DF8023089780DF1010023
S3251004AFC08DF8031042F21073032107F0E8F9A0600220FFF7FFFE267166710121A1712670BF
S3251004AFE095F8280066802028C2D121780029BFD195F82000422804BF95F822000028B7D136
S3251004B00001202070668001E02670668001B070BDF0B543F26814C0F60104FFF771FF40F29B
S3251004B0206047C0F6010797F828000126402818D1214604F1150033460222FFF714FF2078B3
S3251004B04010F00300032840F6CC51C0F601010CBF01200020087740F6C850C0F60100067097
S3251004B060F0BD40F6CC55C0F601052878072800F2AA800FF20801D1E800F000BFA6051624B4
S3251004B0803342649721463346601D0222FFF7EBFE2078422800F2998068722878AE700828F1
S3251004B0A028BFF0BD95E021463346E01D0222FFF7DAFE2078A8722878EE70082828BFF0BD2A
S3251004B0C087E0214604F1090033460222FFF7CBFE2078E87228782E71082828BFF0BD78E0E1
S3251004B0E0214604F10B0033460222FFF7BCFE2078287328786E71082828BFF0BD69E021465C
S3251004B10004F10D0033460222FFF7ADFE04F10F003346611C0222FFF7A6FE2088A88297F8BC
S3251004B1202A10AE71012905D128832878082828BFF0BD4EE0002028832878082828BFF0BD30
S3251004B14047E0214604F1110033460222FFF78BFE04F113003346611C0222FFF784FE2088E3
S3251004B16041F29411884210D3217903290DD80131217197F82A00EE7101280ED00020688397
S3251004B1802878082828BFF0BD23E000212171E88297F82A00EE710128F0D1E88A6883287812
S3251004B1A0082828BFF0BD14E0214604F1170033460222FFF758FE2078687728782E7208287A
S3251004B1C028BFF0BD05E02E70F0BD2878082828BFF0BD01302870F0BD40F62C61C0F601013C
S3251004B1E00878013805D340F62C61C0F601010870704743F2E311C0F601010878002818BF9A
S3251004B200704700B501F01FFB002818BFFFF700FF5DF804EB704740F6CC50C0F60100002184
S3251004B220C0F8011040F6C853C0F60103C0F8051019708222C281C0F809104FF44872828211
S3251004B240C0F81610C0F81A10704740F6CC51C0F601018878002818BF487A704740F6CC5187
S3251004B260C0F60101C878002818BF887A704740F6CC51C0F601010879002818BFC87A704780
S3251004B28040F6C851C0F601010878002808BF704740F6CC51C0F60101087F704740F6CC51CB
S3251004B2A0C0F601014879002818BF087B704740F6CC51C0F601018879002818BF888A7047EE
S3251004B2C040F6CC51C0F60101C879002818BFC88A704740F6CC50C0F60100817949B140F2D1
S3251004B2E06042C0F6010292F82A10012904BF008B70470020704740F6CC50C0F60100C179CC
S3251004B30049B140F26042C0F6010292F82A10012904BF408B70470020704740F6CC51C0F679
S3251004B3200101087A002818BF487F704741210138C0B2032880F0888000210E2368B943F29A
S3251004B340BA10C0F60100028843F6D470C1F20800B0F800C062450FD325E0012816D143F255
S3251004B360C010C0F60100028843F6D470C1F20800B0F800C0624516D2B0F802C0624517D378
S3251004B38001310EBF08460139C8B2704743F2B810C0F60100028843F6D470C1F20800B0F8BD
S3251004B3A000C06245E8D308001CBF0139C8B27047B0F804C0624505D302310EBF0846013990
S3251004B3C0C8B27047B0F806C0624505D303310EBF08460139C8B27047B0F808C0624505D38C
S3251004B3E004310EBF08460139C8B27047B0F80AC0624505D305310EBF08460139C8B27047CB
S3251004B400B0F80CC0624505D306310EBF08460139C8B27047B0F80EC0624505D307310EBF68
S3251004B42008460139C8B27047B0F810C0624505D308310EBF08460139C8B270471230093107
S3251004B440013BACD14FF07D010846704740F6F051C0F6010100200870488040F2DC41C0F6C3
S3251004B46001018A7DCA75887540F26041C0F6010191F8742081F8752081F8740070470020F3
S3251004B48070477047704730B540F2DC42C0F60102917B40F6EC54C0F6010402290ED144F202
S3251004B4A0E805C1F20805206829460DF0BDF9206029460DF0A9F92060012030BD00200529B1
S3251004B4C018BF30BD44F2B025C1F20805206829460DF0AAF9206029460DF096F92060012010
S3251004B4E030BD40F6F051C0F60101012008700020488040F2DC40C0F60100817DC175042137
S3251004B500817540F26040C0F6010090F8761080F87710072180F87610704740F26042C0F61E
S3251004B520010292F8720040F6EC51C0F60101072805D144F20010C1F2080008607047032877
S3251004B54005D144F21810C1F2080008607047082805D144F23010C1F208000860704709283C
S3251004B56005D144F24810C1F208000860704728B944F26010C1F2080008607047002070473B
S3251004B580704740F6F051C0F6010100200870488070470020704770470020704770477047C1
S3251004B5A030B540F6EC54C0F6010440F26041C0F6010191F8732000208AB191F8722072B913
S3251004B5C044F26015C1F20805206829460DF02CF9206029460DF018F92060012030BDE288D8
S3251004B5E0642A24BF91F87220072A18BF30BD40F2D432C0F6010292F83F3092F83E20934209
S3251004B60006D191F8752091F874108A4208BF30BD44F27815C1F20805206829460DF004F91A
S3251004B620206029460DF0F0F82060012030BD7047002070477047704730B540F6EC54C0F681
S3251004B640010440F26041C0F6010191F8732000208AB191F8722072B944F26015C1F2080518
S3251004B660206829460DF0E0F8206029460DF0CCF82060012030BDE288642A24BF91F87220B0
S3251004B680032A18BF30BD40F2D432C0F6010292F83D3092F83C20934206D191F8792091F87A
S3251004B6A078108A4208BF30BD44F27815C1F20805206829460DF0B8F8206029460DF0A4F8B9
S3251004B6C02060012030BD7047002070477047704730B540F6EC54C0F6010440F26041C0F627
S3251004B6E00101002091F8733091F872207BB172B944F26015C1F20805206829460DF094F885
S3251004B700206029460DF080F82060012030BD072A0ED144F20015C1F20805206829460DF00E
S3251004B72083F8206029460DF06FF82060012030BDE388642B28BF082A18BF30BD40F2D43284
S3251004B740C0F6010292F83D3092F83C20934206D191F8792091F878108A4208BF30BD44F2A4
S3251004B7607815C1F20805206829460DF05DF8206029460DF049F82060012030BD7047002087
S3251004B78070477047704730B540F6EC54C0F6010440F26041C0F60101002091F8733091F8F4
S3251004B7A072207BB172B944F26015C1F20805206829460DF039F8206029460DF025F820606D
S3251004B7C0012030BD032A0ED144F21815C1F20805206829460DF028F8206029460DF014F806
S3251004B7E02060012030BDE388642B28BF092A18BF30BD40F2D432C0F6010292F83F3092F855
S3251004B8003E20934206D191F8752091F874108A4208BF30BD44F27815C1F2080520682946DF
S3251004B8200DF002F8206029460CF0EEFF2060012030BD7047002070477047704730B540F67A
S3251004B840EC54C0F60104E18864290ED344F27815C1F20805206829460CF0E6FF20602946B2
S3251004B8600CF0D2FF2060012030BD002030BD40F6F051C0F60101002008704880704740F2CE
S3251004B8806042C0F6010292F8721040F6EC53C0F6010340F2D430C0F60100072918BF0929D2
S3251004B8A004D190F83E20042A01D107E0032918BF082908D190F83C20042A04D144F2C010D2
S3251004B8C0C1F208003BE0072918BF092904D190F83E20032A01D107E0032918BF082908D191
S3251004B8E090F83C20032A04D144F2D810C1F2080025E0072918BF092904D090F83E20052A48
S3251004B90006D118E090F83E20022A18BF052A12D0032918BF082908D090F83C0005280AD06D
S3251004B92044F29010C1F2080009E090F83C00022818BF0528F4D144F2A810C1F2080018609B
S3251004B9407047704770470020704740F2DC40C0F60100817DC1750121817540F6FF52C0F643
S3251004B960010200201070704710B440F6EC54C0F6010440F26040C0F6010090F8741001299F
S3251004B9801FBF092990F878000128092807BF44F2F010C1F2080044F20820C1F208002060D3
S3251004B9A010BC70477047704730B540F6EC54C0F6010461890020642926D340F2DC42C0F6D0
S3251004B9C00102917B05290ED144F2B025C1F20805206829460CF028FF206029460CF014FF4E
S3251004B9E02060012030BD02290ED044F2D005C1F20805206829460CF017FF206029460CF0D7
S3251004BA0003FF2060012030BDE188642938BF30BD44F2A815C1F20805206829460CF004FFF9
S3251004BA20206029460CF0F0FE2060012030BD40F2DC40C0F60100817DC1750221817540F6FD
S3251004BA40FF52C0F6010201201070704710B440F6EC54C0F6010440F26040C0F6010090F864
S3251004BA607410032919BF90F87800032844F22020C1F208001CBF44F23820C1F20800206024
S3251004BA8010BC70477047704730B540F6EC54C0F6010440F2DC42C0F60102917B02290ED067
S3251004BAA044F29015C1F20805206829460CF0BCFE206029460CF0A8FE2060012030BDE1889C
S3251004BAC00020642938BF30BD44F2D815C1F20805206829460CF0A8FE206029460CF094FEC2
S3251004BAE02060012030BD40F2DC40C0F60100817DC1750421817540F6FF52C0F601020320E7
S3251004BB001070704710B440F6EC54C0F6010440F26041C0F6010191F87400072807BF44F22C
S3251004BB208020C1F2080044F29820C1F20800206010BC70477047704730B540F6EC54C0F665
S3251004BB40010440F2DC42C0F60102917B0020022903D1E188642938BF30BD44F29015C1F22A
S3251004BB600805206829460CF05FFE206029460CF04BFE2060012030BD40F2DC40C0F6010087
S3251004BB80817DC1750321817540F6FF52C0F6010202201070704710B440F6EC54C0F60104AF
S3251004BBA040F26040C0F6010090F87410052919BF90F87800052844F25020C1F208001CBF67
S3251004BBC044F26820C1F20800206010BC70477047704730B540F6EC54C0F6010440F2DC42FB
S3251004BBE0C0F60102917B02290ED044F29015C1F20805206829460CF017FE206029460CF0CF
S3251004BC0003FE2060012030BDE1880020642938BF30BD44F2C015C1F20805206829460CF0C3
S3251004BC2003FE206029460CF0EFFD2060012030BD40F6F052C0F6010201210020508040F20F
S3251004BC406040C0F60100117090F8762080F8772080F87610704700207047704740F6F0510B
S3251004BC60C0F6010100200870488070470020704740F6F451C0F60101012008700020488050
S3251004BC8040F26040C0F6010090F8761080F87710082180F87610704700207047704740F652
S3251004BCA0F451C0F60101002008704880704730B540F6EC54C0F60104618964290ED344F2B2
S3251004BCC0F015C1F20805206829460CF0ADFD206029460CF099FD2060012030BD002030BDCC
S3251004BCE040F6F051C0F60101012008700020488040F26040C0F6010090F8761080F87710E4
S3251004BD00032180F87610704700207047704740F6F051C0F60101002008704880704700203C
S3251004BD20704740F6F851C0F60101012008700020488040F26040C0F6010090F8761080F86B
S3251004BD407710022180F87610704700207047704740F6F851C0F6010100200870488070478E
S3251004BD6030B540F6EC54C0F60104E18964290ED344F22025C1F20805206829460CF054FD3C
S3251004BD80206029460CF040FD2060012030BD002030BD40F6F051C0F60101012008700020DE
S3251004BDA0488040F26040C0F6010090F8761080F87710052180F876107047002070477047A2
S3251004BDC040F6F051C0F6010100200870488070470020704740F6F851C0F60101012008705C
S3251004BDE00020488040F26040C0F6010090F8761080F87710042180F87610704700207047FA
S3251004BE00704740F6F851C0F60101002008704880704730B540F6EC54C0F60104E1896429F6
S3251004BE200ED344F25025C1F20805206829460CF0FBFC206029460CF0E7FC2060012030BD56
S3251004BE40002030BD40F6F051C0F60101012008700020488040F26040C0F6010090F8761074
S3251004BE6080F87710072180F87610704700207047704740F6F051C0F60101002008704880AF
S3251004BE8070470020704740F6F851C0F60101012008700020488040F26040C0F6010090F831
S3251004BEA0761080F87710062180F87610704700207047704740F6F851C0F6010100200870AA
S3251004BEC04880704730B540F6EC54C0F60104E18964290ED344F28025C1F208052068294649
S3251004BEE00CF0A2FC206029460CF08EFC2060012030BD002030BD40F6F851C0F60101012026
S3251004BF0008700020488040F2DC40C0F60100817DC1750621817540F26040C0F6010090F840
S3251004BF20761080F87710092180F87610704740F26042C0F6010292F8720040F6EC51C0F6D1
S3251004BF400101072805D144F2C820C1F2080008607047032805D144F2E020C1F2080008606E
S3251004BF607047082805D144F2F820C1F2080008607047092805D144F21030C1F20800086022
S3251004BF80704728B944F22830C1F208000860704700207047704740F6F851C0F601010020A2
S3251004BFA00870488070470020704770470020704740F6F851C0F601014888642838BF7047CA
S3251004BFC040F26040C0F6010090F8741080F875100A2180F87410704740F6F851C0F60101A0
S3251004BFE04888642838BF704740F26040C0F6010090F8741080F875100A2180F874107047AD
S3251004C000704730B540F6EC54C0F6010440F26041C0F6010191F8732000208AB191F872201C
S3251004C02072B944F22835C1F20805206829460CF0FBFB206029460CF0E7FB2060012030BD24
S3251004C040E289642A24BF91F87210072918BF30BD44F24035C1F20805206829460CF0E4FBAE
S3251004C060206029460CF0D0FB2060012030BD70470020704740F6F851C0F601014888642841
S3251004C08038BF704740F26040C0F6010090F8741080F875100A2180F874107047704730B5CC
S3251004C0A040F6EC54C0F6010440F26042C0F6010292F87310002089B192F8721071B944F2D5
S3251004C0C02835C1F20805206829460CF0ADFB206029460CF099FB2060012030BDE18964298A
S3251004C0E024BF92F87210032918BF30BD92F8791092F87820022903D0022A11D0042903D007
S3251004C100042A0DD0062903D0062A09D0082904D0082A05D00B2908BF30BD0B2A18BF30BD02
S3251004C12044F24035C1F20805206829460CF07CFB206029460CF068FB2060012030BD70477D
S3251004C1400020704740F6F851C0F601014888642838BF704740F26040C0F6010090F8741018
S3251004C16080F875100A2180F874107047704730B540F6EC54C0F6010440F26042C0F6010270
S3251004C180002092F8733092F872107BB171B944F22835C1F20805206829460CF045FB2060D0
S3251004C1A029460CF031FB2060012030BD07290ED144F2C825C1F20805206829460CF034FB2C
S3251004C1C0206029460CF020FB2060012030BDE389642B28BF082918BF30BD92F8791092F83D
S3251004C1E07820022903D0022A11D0042903D0042A0DD0062903D0062A09D0082904D0082A35
S3251004C20005D00B2908BF30BD0B2A18BF30BD44F24035C1F20805206829460CF005FB206070
S3251004C22029460CF0F1FA2060012030BD7047002070477047704730B540F6EC54C0F60104EE
S3251004C24040F26042C0F60102002092F8733092F872107BB171B944F22835C1F208052068AD
S3251004C26029460CF0E1FA206029460CF0CDFA2060012030BD03290ED144F2E025C1F2080518
S3251004C280206829460CF0D0FA206029460CF0BCFA2060012030BDE389642B28BF092918BFAD
S3251004C2A030BD92F8751092F87420022903D0022A11D0042903D0042A0DD0062903D0062A02
S3251004C2C009D0082904D0082A05D00B2908BF30BD0B2A18BF30BD44F24035C1F2080520688B
S3251004C2E029460CF0A1FA206029460CF08DFA2060012030BD7047002070477047704730B53D
S3251004C30040F6EC54C0F60104E18964290ED344F24035C1F20805206829460CF085FA20609D
S3251004C32029460CF071FA2060012030BD002030BD40F6F452C0F60102002050801071D0807C
S3251004C340012140F2DC40C0F601001170817DC1750521817540F26040C0F6010090F8761034
S3251004C36080F877100B2180F87610704700207047704740F6F451C0F60101002008704880A2
S3251004C380704730B540F6EC54C0F601046189642933D340F2DC42C0F60102917B2068022971
S3251004C3A00DD144F2E805C1F2080529460CF03CFA206029460CF028FA2060012030BD052938
S3251004C3C00DD044F2D005C1F2080529460CF02CFA206029460CF018FA2060012030BD44F249
S3251004C3E05835C1F2080529460CF01EFA206029460CF00AFA2060012030BD002030BD40F693
S3251004C400F851C0F60101012008700020488040F2DC40C0F60100817DC1750621817540F2F8
S3251004C4206040C0F6010090F8761080F87710092180F87610704700207047704740F6F85192
S3251004C440C0F60101002008704880704730B540F6EC54C0F60104E18964290ED344F240355A
S3251004C460C1F20805206829460CF0DEF9206029460CF0CAF92060012030BD002030BD10B40B
S3251004C48040F6FC54C0F6010440F2D431C0F60101627891F83C0091F83D1012B102290AD015
S3251004C4A005E0012903D0012813D0022903D002280FD0032903D003280BD0042903D004283C
S3251004C4C007D0052903D0052803D0062904D0062802D10120607005E0012A03D111B10028A7
S3251004C4E008BF607010BC704710B440F6FC54C0F6010440F2D431C0F60101A27891F83E0033
S3251004C50091F83F1012B102290AD005E0012903D0012813D0022903D002280FD0032903D06D
S3251004C52003280BD0042903D0042807D0052903D0052803D0062904D0062802D10120A070A2
S3251004C54005E0012A03D111B1002808BFA07010BC704710B440F6FC54C0F60104A17840F249
S3251004C5606040C0F60100012909D162789AB990F8721080F87310072180F872102EE051B9DA
S3251004C5806278012A07D190F8721080F87310032180F8721022E090F87220072A0AD101292F
S3251004C5A015D16178012919D180F87320092180F8721013E0032A08BF012908D16178012972
S3251004C5C00CD180F87320082180F8721006E029B9617819B980F8732080F8721010BC70473B
S3251004C5E010B540F6EC54C0F601042079012806D1E0884FF6FF7188423CBF0130E080207B84
S3251004C600012806D1E0894FF6FF7188423CBF0130E081207A012806D160894FF6FF71884289
S3251004C6203CBF01306081FFF794FFFFF728FFFFF75BFF207C01280DD028BF10BD44F2D00180
S3251004C640C1F20801216008460CF0DEF820600120207410BD2068BDE810400CF0FBB840F6FF
S3251004C6600461C0F601010878704740F60461C0F6010101200870704730B540F60465C0F66F
S3251004C68001052878002818BF30BD6978002979D1FEF799FA55283BD0FEF7B3FAFEF7BDFA3C
S3251004C6A0FEF7C9FAFEF7D3FAFEF7EEFA55210020FEF75CFA02210120FEF761FA0221084623
S3251004C6C0FEF75DFA02210320FEF759FA40F26043C0F6010340F2DC419879C0F60101D87176
S3251004C6E00A7B0220987183F84A0083F84B0083F84C0083F84D0083F84E0083F84F00087348
S3251004C7000120687028784A73002818BF30BD3CE040F26044C0F60104A079E0710320FEF78E
S3251004C72058FAA07194F84A0084F84B000120FEF750FA84F84A0084F84B0094F84C0084F89E
S3251004C7404D000220FEF745FA84F84C0084F84D0094F84E0084F84F000320FEF73AFA84F81E
S3251004C7604E0040F2DC41C0F6010184F84F00087B4873A0790873012068702878002818BF15
S3251004C78030BD02E0012918BF30BD40F61661C0F6010148783C2805D340F62661C0F60101EC
S3251004C7A00878012818BF5FF0000030BD00B504F0E8FD40F26040C0F601000179417101213E
S3251004C7C0017190F8562080F8561090F85A1080F85B10002180F8572090F85C2080F85A1026
S3251004C7E080F85D2080F85C1000BD40F60861C0F601011F200860704740F60861C0F601017D
S3251004C80008787047704700B581B00DF1020001210CF0EDF9BDF8020001B000BD00B581B01B
S3251004C8200DF1020001210CF0DDF9BDF8020001B000BD00B581B00DF103000CF0FAF99DF85A
S3251004C840030001B000BD00B581B00DF103000CF0E9F99DF8030001B000BD00B581B00DF19E
S3251004C86003000CF0D8F99DF8030001B000BD00B581B00DF1020001210CF0BEF9BDF8020056
S3251004C88001B000BD00B581B00DF1020001210CF0B8F9BDF8020001B000BD00B581B00DF152
S3251004C8A0020001210CF0B2F9BDF8020001B000BD10B540F61864C0F60104A079012804D125
S3251004C8C0E079FF283CBF0130E071FFF7C8FE0122618818B9A079218148BB54E040F2EF4055
S3251004C8E0814203D2A079227108BB4CE0B1F5A46F04D802202071A079C8B944E0B1F5D06F00
S3251004C90004D203202071A07988B93CE040F2B260814204D204202071A07940B933E040F610
S3251004C9204D4081420CD205202071A07958B32079E37A98422AD0E072A2710020E07110BD68
S3251004C94040F67F40814205D206202071A0790028EDD118E040F6C850814205D207202071E0
S3251004C960A0790028E3D10EE040F6FA50814205D208202071A0790028D9D104E0092020715E
S3251004C980A0790028D3D1A271E07110BDE079032828BF218110BD10B443F2A614C0F601041F
S3251004C9A040F62062C0F60102108840F2EF41884212D20120A072607240F22150E08040F20A
S3251004C9C0B260208000202072E07240F67F40608040F6FA50A080D0E0B0F5A46F15D8607AE3
S3251004C9E001280CBF40F221500846E08040F2B26020800120A07200202072E07240F67F40C8
S3251004CA00608040F6FA50A080B7E0B0F5D06F0FD20120A07240F2B260208000202081E072F6
S3251004CA2040F67F406080E18040F6FA50A080A4E040F2B261884220D2A07A01280DD12180BF
S3251004CA4000202081E07240F2EF40E08040F67F40608040F6FA50A0808FE04FF4D0602080F1
S3251004CA6000202081E07240F2EF40E08040F67F40608040F6FA50A0807FE040F64D41884266
S3251004CA8011D20020A4F80900E072207240F2EF40E0804FF4D060208040F67F40608040F611
S3251004CAA0FA50A08069E040F67F41884222D2207A012810D140F64D4060800020A4F80900E9
S3251004CAC0E07240F2EF40E0804FF4D060208040F6FA50A08051E00020A4F80900E07240F2FC
S3251004CAE0EF40E0804FF4D0602080618040F6FA50A08042E040F6C851884212D20120207227
S3251004CB0040F64D4060800020A4F80900E07240F2EF40E0804FF4D060208040F6FA50A080CD
S3251004CB202BE040F6FA51884215D2E07A01280CBF40F6C8500846A08040F64D4060800120D0
S3251004CB4020720020A4F8090040F2EF40E0804FF4D060208011E040F64D4060800120207249
S3251004CB60E0720020A4F8090040F6C85140F2EF40E080A1804FF4D060208010BC704730B4D9
S3251004CB80014643F2A614C0F6010440F62065C0F601050120013909D30DD0022910D314D10C
S3251004CBA02888A18888420FD300200EE02888E1888842F9D208E0288821888842F4D203E066
S3251004CBC0288861888842EFD2012030BC704730B4014643F2A614C0F6010440F62065C0F60D
S3251004CBE001050120013909D30DD0022910D314D12888A18888420FD200200EE02888E18863
S3251004CC008842F9D308E0288821888842F4D303E0288861888842EFD3012030BC704730B5E1
S3251004CC200220FFF7ACFF054640F26044C0F6010401281DD1FFF7CBFF012819D194F83E3057
S3251004CC4084F83F3094F84030002184F83E1084F8413094F8422084F8401084F8432084F8E6
S3251004CC6042100320FFF78BFF054601281AD14DE075BB012294F83E3084F83E2084F83F3007
S3251004CC8094F8403084F8402094F8422084F8413084F8432084F842500320FFF770FF054607
S3251004CCA0012833D0002D4AD1012294F8443084F8442084F8453094F8463084F8462094F882
S3251004CCC0482084F8473084F8492084F8485030BD0120FFF77CFF020012D1012194F83E3066
S3251004CCE084F83E1084F83F3094F8403084F8402094F8422084F8413084F8432084F8421005
S3251004CD000320FFF73CFF05460128CBD10020FFF75EFF0128C6D194F8443084F8453094F8E5
S3251004CD204630002184F8441084F8473094F8482084F8461084F8492084F8481030BD0020F3
S3251004CD40FFF745FF020018BF30BD012194F8443084F8441084F8453094F8463084F84620F2
S3251004CD6094F8482084F8473084F8492084F8481030BD70B440F61064C0F60104A079002347
S3251004CD8001280DD1E079FF280ED20130E071C0B23C2809D2607A6188002840F0B7807AE033
S3251004CDA050B3E0793C28F5D3607A012871D140F26040C0F6010090F8581021B980F8591058
S3251004CDC0012180F85810227904F128004FEA420C61882CF800100132D2B2642A28BF1A464F
S3251004CDE02271A28A914229D1227A0132D2B21E2A09D222720A2223E00120A071E3716372F9
S3251004CE002371618882E023720A25024622F8141B22F8121C22F8101C22F80E1C22F80C1CB0
S3251004CE2022F80A1C22F8081C22F8061C22F8041C22F8021C013DE9D10A2201E023720A22E6
S3251004CE4030F814CB634430F8126C30F810CC9B19634430F80E6C30F80CCC9B19634430F8E0
S3251004CE600A6C30F808CC9B19634430F8066C30F804CC9B1930F8026C63449B19013ADFD1A9
S3251004CE8048F21F52C5F2EB12A3FB0220400960813CE06188D0BB22794FEA420C04F1280060
S3251004CEA02CF800100132D2B2642A38BF22712DD30122627223710A2230F814CB634430F8C8
S3251004CEC0126C30F810CC9B19634430F80E6C30F80CCC9B19634430F80A6C30F808CC9B1910
S3251004CEE0634430F8066C30F804CC9B1930F8026C63449B19013ADFD148F21F52C5F2EB12F0
S3251004CF00A3FB0220400960810120A075A18270BC70472DE9F04843F2B214C0F6010440F697
S3251004CF203065C0F60105A078002101280CD1A1702170A38805F1D00CA5F8D0308E4610F037
S3251004CF40070200F0B480ABE02078012876D16078A388420005F1D00C22F80C300130C0B2E7
S3251004CF601E2828BF084660700322604630F8143BC91830F8124C30F8103C0919C91830F804
S3251004CF800E4C30F80C3C0919C91830F80A4C30F8083C0919C91830F8064C30F8043C0919B9
S3251004CFA030F8024CC9180919013ADFD13CF8022B134660460446072734F808CB9C4538BF44
S3251004CFC0634634F806CC9C4538BF634634F804CC9C4538BF634634F802CC9C4538BF634617
S3251004CFE0013FE9D1B4F800C09C4538BF6346072630F808CB944588BF624630F806CC94456D
S3251004D00088BF624630F804CC944588BF624630F802CC944588BF6246013EE9D10088904236
S3251004D02088BF0246C91A891A880844F62511C2F29241A0FB01106880BDE8F088002818BF8A
S3251004D040BDE8F08805F1D00C6078A38842008E4622F80C300130C0B283465FEADB031CD0D9
S3251004D06062464FEAC30E32F8107BC91932F80E6C32F80C7C8919C91932F80A6C32F8087C25
S3251004D0808919C91932F8066C32F8047C891932F8026CC9198919013BE5D11BF0070206D012
S3251004D0A00CEB4E0333F802CB6144013AFAD1B1FBF0F1A9801E283CBF6070BDE8F088012066
S3251004D0C020706270BDE8F08810B440F63064C0F6010443F2B211C0F601010878002814BF43
S3251004D0E06088A08810BC704730B440F61064C0F601042078012804D16178FF293CBF013176
S3251004D10061706288002140F2EF43D31A40F60C1C63450CD340F26042C0F6010292F8380094
S3251004D12082F83900022082F83800218024E040F22153D21A40F6A8039A421DD240F2604297
S3251004D140C0F6010292F838300125022B08BF002802D1257061700FE0012808D1607812288C
S3251004D1600AD982F8393082F83850218004E018B982F8393082F8385030BC704710B581B0F9
S3251004D18040F61064C0F601040DF1020001210BF02EFDBDF802006080FFF7EBFDA07D01280D
S3251004D1A005D1FFF785FBFFF7F6FBFFF738FD01B010BD00B581B00DF1020001210BF012FD67
S3251004D1C0BDF8020043F2B611C0F601010880FFF7A0FE01B000BD10B440F62064C0F6010407
S3251004D1E0A078013805D30DD0012818D00020A07022E02088B0F5C86F15D340F6A44188427B
S3251004D2001AD904E0208840F6A441884202D90220A07011E040F2AE6188420DD30AE0208815
S3251004D220B0F5C86F02D20120A07005E040F63641884201D80020A07010BC704740F6306144
S3251004D240C0F601010870704740F63061C0F601010878704740F63661C0F6010132200870C8
S3251004D26070472DE9F00883B000F1FF328C4643F29E14C0F6010444F27030C1F208006D46C2
S3251004D28090E80B0085E80B00D2B20027A079E61C012803D12780C4F80370A77040F63C7BDC
S3251004D2A0A35C02EB820558194000C0F6010B20F80BC0581CB15CC3B201291CD1052B28BF67
S3251004D2C03B460BEB4501A35410466A460B8852F820004A88181810188A881018CA88098935
S3251004D2E010180A184CF6CD40CCF6CC40A2FB0001890888B220E0EC469F4209D35CF822508F
S3251004D300B5FBF3F5ADB2052B12D2A354284613E039460BEB450B5CF822503BF802CB65445C
S3251004D32001319942F9D3B5FBF3F5ADB2052BECD3A7540120B054284603B0BDE8F00870477F
S3251004D34010B581B043F2BA14C0F601040DF1020001210BF051FCBDF80210E1810120FFF755
S3251004D36080FF208001B010BD10B581B043F2BE14C0F601040DF1020001210BF042FCBDF82E
S3251004D380021061810220FFF76CFF608001B010BD10B581B043F2B614C0F601040DF10200EE
S3251004D3A001210BF033FCBDF8021061820320FFF758FF608001B010BD10B582B043F2B61499
S3251004D3C0C0F601040DF1020001210BF015FCBDF8021061820120FFF744FFA08001A801215B
S3251004D3E00BF00FFCBDF8041061820220FFF739FF60810DF1060001210BF008FCBDF8061040
S3251004D40061820320FFF72DFFA188A1F10D0240F6B4218A422CBF01220022A271628960801B
S3251004D4200D3A914294BF01210021E1710D3840F6B42188422CBF01200020207202B010BD79
S3251004D4402DE9F04C81B040F62065C0F601050DF1020001210BF0C6FBAF7ABDF802B0012F1A
S3251004D46004D1E87AFF283CBF0130E87295F808A0BAF1010F04D1687AFF283CBF01306872DA
S3251004D480FFF732FE012640F26044C0F60104BAF1000F0ED1BBF54D7F0BD82E7285F809A0D6
S3251004D4A085F80AA0288885F80BA0B0F5967F3AD32EE067B940F29650834508D3AE72EF7222
S3251004D4C02F7228886F72B0F5967F2CD320E0BAF1010F0ED1687A08280BD394F83C0084F879
S3251004D4E03D00002084F83C002888B0F5967F1AD30EE0012F08D1E87A0A2805D394F83C007B
S3251004D50084F83D0084F83C602888B0F5967F0AD368460BF087FB9DF8000020B93046FBF7D8
S3251004D52025FF14202873617B207B012905D0012803D16073FDF76FFE207B94F8601084F824
S3251004D540611084F86060012840F099800DF101000BF068FB9DF80100002800F09080287BD4
S3251004D560002840F08C8094F8200043F2C21584F82100C0F60105FDF768FE84F8200094F89A
S3251004D580220084F82300FDF769FE84F8220094F8240084F82500FDF76AFE84F8240094F8DE
S3251004D5A0680084F86900FDF7B8FE84F86800FDF787FE2880FDF77BFE688094F820000B2821
S3251004D5C00AD1A17F0320E177A077FFF7F5FE94F82800402839D130E094F8241055290ED168
S3251004D5E094F86800062822D1A17F0520E177A077FFF7E2FE94F82800402826D11DE000283A
S3251004D60018BF01280AD1A17F0220E177A077FFF7D3FE94F82800402817D10EE0422804BF7E
S3251004D62094F82200002802D1A17FE177A077FFF7C3FE94F82800402807D194F8260084F8BF
S3251004D6402700FDF71DFE84F8260094F82A00012810D1207840F65C71C0F601016070C878B5
S3251004D660207001281CBFA078012803D1A07EE076A67608E0A07EE0760020A07603E0A07FC3
S3251004D680E0770020A07701B0BDE8F08C10B440F65C72C0F6010202EBC00002790024914270
S3251004D6A008BFA0F8054024D082790132D2B269B990F802C062450DD38471012242710278CE
S3251004D6C004718AB90122C270C17112E090F801C0624503D282714471C1710AE0847101225E
S3251004D6E042710278017112B9C470C17101E0C170C17110BC70474CF63301C1F20401C9B2D0
S3251004D7000020FFF7C3BF70B581B040F62C65C0F6010540F26044C0F6010494F82A00002611
S3251004D720012819D10DF103000BF075FA9DF80310687881420AD16888013080B264280FD36A
S3251004D740A078E0700120A070304609E0A078E0706970A670304603E0A078E0703046A67013
S3251004D760688001B070BD00B581B00DF103000BF060FA9DF8030001B000BD44F27C32C1F2F0
S3251004D780080240F65C70C0F601001368036093685168D26883604160C26043F2B611C0F688
S3251004D7A0010100200874C860C88008724FF4BA728A804A814A8040F26041C0F60101A1F895
S3251004D7C05000C1F80A00C1F80E00C1F812008861C861C1F82200C1F82600C88501220A72D2
S3251004D7E04A72C1F82A00252281F8302081F83120C1F85E0008878887A1F86800A1F87200D5
S3251004D800704744F27C32C1F2080240F65C70C0F601001368036093685168D268836041608D
S3251004D820C26043F2B611C0F6010100200874C860C88008724FF4BA728A804A814A8040F232
S3251004D8406041C0F60101A1F85000C1F80A00C1F80E00C1F812008861A1F86000C861C1F853
S3251004D8602200C1F8260048858887A1F87200704740F26040C0F6010090F85E1040F2D43238
S3251004D880C0F6010280F85F101179012918BF002180F85E10704710B540F26044C0F601042F
S3251004D8A094F82C0094F82D20012840F0928094F85E10012948D1012A24D042F2107003F04F
S3251004D8C0A9F80146012003F0B6F842F2107003F0A1F80146022003F0AEF842F2107003F09B
S3251004D8E099F80146032003F0A6F894F82C0084F82D0040F2DC40C0F601008178C1700121D0
S3251004D900817010BD94F85F00012859D042F2107003F080F8012103F0C1F842F2107003F05E
S3251004D92079F8022103F0BAF842F2107003F072F8032103F0B3F840F2DC40C0F601008178C3
S3251004D940C1700121817010BD608E012A20D003F061F80146012003F06EF8608E03F05AF853
S3251004D9600146022003F067F8608E03F053F80146032003F060F894F82C0084F82D0040F25E
S3251004D980DC40C0F601008178C1700121817010BDA28E824203D194F85F208AB181B903F055
S3251004D9A039F8012103F07AF8608E03F033F8022103F074F8608E03F02DF8032103F06EF884
S3251004D9C040F2DC40C0F601008178C1700121817010BD002A08BF10BD002818BF10BD012073
S3251004D9E003F04DF8022003F04AF8032003F047F840F2DC40C0F601008178C17000218170E8
S3251004DA0094F82C0084F82D0010BD10B540F26044C0F6010494F82E0001286CD103F02FF82E
S3251004DA20022003F02CF8032003F029F894F85E1094F82F0001292ED1012818D094F82E00B3
S3251004DA40012814D142F2107002F0E4FF0146002002F0F1FF94F82E0084F82F0040F2DC4019
S3251004DA60C0F60100017841700121017010BD94F85F00012836D042F2107002F0CBFF0021A0
S3251004DA8003F00CF840F2DC40C0F60100017841700121017010BD012817D094F82E000128F3
S3251004DAA013D1608E02F0B6FF0146002002F0C3FF94F82E0084F82F0040F2DC40C0F601004E
S3251004DAC0017841700121017010BD608EA28E824203D194F85F202AB121B902F09BFF00217F
S3251004DAE002F0DCFF40F2DC40C0F60100017841700121017010BD50B940F67272C0F60102D4
S3251004DB001178022908BFBDE8104002F0B88794F82F10002908BF10BD002818BF10BD02F004
S3251004DB20AEFF40F2DC40C0F60100017841700021017094F82E0084F82F0010BD10B540F234
S3251004DB406044C0F6010494F82C0094F82D10012840F08C8094F85E00002842D1012921D026
S3251004DB601E2002F056FF0146012002F064FF1E2002F04FFF0146022002F05DFF1E2002F0E4
S3251004DB8048FF0146032002F056FF94F82C0084F82D0040F2DC40C0F601008178C1700121C1
S3251004DBA0817010BD94F85F00002856D01E2002F030FF012102F072FF1E2002F02AFF0221F4
S3251004DBC002F06CFF1E2002F024FF032102F066FF40F2DC40C0F601008178C17001218170BE
S3251004DBE010BD012921D0C82002F013FF0146012002F021FFC82002F00CFF0146022002F07D
S3251004DC001AFFC82002F005FF0146032002F013FF94F82C0084F82D0040F2DC40C0F601001F
S3251004DC208178C1700121817010BD94F85F10012913D0012811D1C82002F0EBFE012102F0D6
S3251004DC402DFFC82002F0E5FE022102F027FFC82002F0DFFE032102F021FF40F2DC40C0F695
S3251004DC6001008178C1700121817010BD002908BF10BD002818BF10BD012002F000FF0220C2
S3251004DC8002F0FDFE032002F0FAFE40F2DC40C0F601008178C1700021817094F82C0084F8FB
S3251004DCA02D0010BD10B540F26044C0F6010494F82E0094F82F10012855D194F85E0038BB49
S3251004DCC0012913D01E2002F0A4FE0146002002F0B2FE94F82E0084F82F0040F2DC40C0F6D9
S3251004DCE00100017841700121017010BD94F85F0080B31E2002F08DFE002102F0CFFE40F294
S3251004DD00DC40C0F60100017841700121017010BD012913D0C82002F07CFE0146002002F0D2
S3251004DD208AFE94F82E0084F82F0040F2DC40C0F60100017841700121017010BD94F85F1052
S3251004DD40012907D0012805D1C82002F062FE002102F0A4FE40F2DC40C0F60100017841708B
S3251004DD600121017010BD002908BF10BD002818BF10BD02F084FE40F2DC40C0F601000178AE
S3251004DD8041700021017094F82E0084F82F0010BD00B540F26040C0F6010090F85E1040F28E
S3251004DDA0D432C0F6010280F85F101179012918BF002180F85E10FFF76EFDFFF726FE00BDD9
S3251004DDC040F67073C0F6010340F2DC41C0F60101887BC8730020887340F26041C0F601016B
S3251004DDE00A7B4A7391F82C20087381F82D2091F82E2081F82C0081F82F2081F82E005880EE
S3251004DE0091F82A2081F82B2091F8622081F82A0081F8632091F8282081F8620081F8292039
S3251004DE2081F8280098601871D8801873A3F80D0018807047002070477047704730B540F66C
S3251004DE406C7440F26042C0F60102C0F60104917A206801290BD044F2A435C1F208052946AA
S3251004DE600AF0E2FC206029460AF0CEFC0AE044F2BC35C1F2080529460AF0D6FC2060294602
S3251004DE800AF0C2FC2060012030BD40F67073C0F6010340F26040C0F6010090F8281080F88E
S3251004DEA02910102140F2DC42C0F6010280F82810917BD1730021917390F8622080F86320AB
S3251004DEC090F82C2080F8621080F82D2090F82E2080F82C1080F82F2080F82E10196070476E
S3251004DEE010B440F66C74C0F6010440F26042C0F60102917A022905D144F2EC30C1F20800CD
S3251004DF00206006E0002021B944F2D430C1F20800206010BC7047704740F67471C0F6010105
S3251004DF2000204860087048800872A1F80900704740F26042C0F60102917A012915D130B55F
S3251004DF4044F2BC3540F66C74C0F60104C1F20805206829460AF068FC206029460AF054FC61
S3251004DF6020600120BDE8304070470020704740F26040C0F60100017B41730121017370473D
S3251004DF8044F2044040F66C71C0F60101C1F20800086070477047704740F26042C0F601024D
S3251004DFA0917A012915D030B544F2A43540F66C74C0F60104C1F20805206829460AF034FC87
S3251004DFC0206029460AF020FC20600120BDE83040704700207047704710B440F66C74C0F697
S3251004DFE0010440F26040C0F6010090F83D1011B190F83C1011B1007B012804D144F2344029
S3251004E000C1F2080003E044F24C40C1F20800206010BC70477047704740F26042C0F60102CD
S3251004E020917A022915D130B544F2EC3540F66C74C0F60104C1F20805206829460AF0F4FBFD
S3251004E040206029460AF0E0FB20600120BDE8304070470020704740F67473C0F6010340F295
S3251004E0606041C0F60101087B487391F82820002081F829200873102281F82820586018708E
S3251004E08058801872A3F809007047002070477047704740F26042C0F60102917AA9B930B585
S3251004E0A044F24C4540F66C74C0F60104C1F20805206829460AF0B8FB206029460AF0A4FBC2
S3251004E0C020600120BDE8304070470020704740F26040C0F6010090F8621080F86310002153
S3251004E0E080F8621090F82C2080F82C1090F8281080F8291080F82D20102180F828107047C6
S3251004E10010B440F66C74C0F6010440F26041C0F60101087C012807BF44F26440C1F20800BD
S3251004E12044F27C40C1F20800206010BC70477047704730B540F26041C0F6010100208A7F0E
S3251004E14040F66C74C0F60104042A21D18A7B002A01BF0A7D002A0A7C002A06BF897C002971
S3251004E16030BD40F62262C0F601021178002918BF30BD44F2DC45C1F20805206829460AF0A7
S3251004E18053FB206029460AF03FFB2060012030BD032A01BF8A7B002A0A7D002A01BF0A7C53
S3251004E1A0002A897C002918BF30BD40F62262C0F601021178002918BF30BD44F2C445C1F24E
S3251004E1C00805206829460AF02FFB206029460AF01BFB2060012030BD40F26040C0F60100E7
S3251004E1E090F8281080F82910202180F82810704744F2944040F66C71C0F60101C1F208005C
S3251004E20008607047704740F26040C0F60100817FC177002190F82A20817780F82B2090F817
S3251004E220622080F82A1080F8632080F86210704740F26041C0F601018A7B0020012A1FBF3B
S3251004E2400A7D012A8A7C012A1CBF097C012907D040F62262C0F601021178002908BF7047BD
S3251004E26030B544F2044540F66C74C0F60104C1F20805206829460AF0D7FA206029460AF0E4
S3251004E280C3FA20600120BDE83040704710B440F67474C0F6010440F26040C0F6010081791A
S3251004E2A0012915D040F62262C0F60102117879B92279012A02D161795A2909D2A179E379C0
S3251004E2C001291ED1642B24BF90F82610002918D140F2DC41C0F601018A7BCA7300228A7361
S3251004E2E0017B417390F8281080F829100273102180F828106260227062802272A4F809207E
S3251004E30090E0A17A012944D190F827C0BCF1000F3FD090F826C0BCF1000F3AD1217184F89C
S3251004E32005C0A3F10A025B2A3ED3628841F270739A4228BF012904BF90F82620012A53D1FB
S3251004E34040F2D431C0F6010191F82C20012A1FBF91F82820012A91F83220012A1CBF91F870
S3251004E3603010012931D140F2DC41C0F601018A7BCA7300228A73017B417390F8281002734A
S3251004E38080F82910A272102180F828102270628048E0012A01BF90F82620012A0022A280F9
S3251004E3A0A3F10A025B2AC0D290F82620012ABCD140F2DC41C0F60101887B8A73C873A272B0
S3251004E3C00021E180227061802CE040F2DC41C0F60101887BC873042088730020207060802E
S3251004E3E00121217260721DE0627A322A28BF012904BF90F82610012914D140F2DC41C0F6A1
S3251004E40001018A7BCA7300228A73017B417390F82810227280F829100273102180F82810F4
S3251004E420A4F8092010BC704740F67872C0F601020020D0709071012140F26040C0F6010095
S3251004E440917090F8281080F82910402180F82810FFF71CBF00207047FFF718BF40F2DC405C
S3251004E460C0F60100817BC17300218173704700207047704700207047704770470020704725
S3251004E48010B440F67074C0F60104A378022B47D0627840F26040C0F601000021322A24BFA7
S3251004E4A094F803C0BCF10A0F09D390F82E2080F82F2080F82E100220A070218030E094F88F
S3251004E4C000C0BCF1000F0DD190F82E2080F82F20012280F82E20E078A2700130E0702270C5
S3251004E4E061701DE07BB9322A1AD390F82E2080F82F200122A270227080F82E20E078617064
S3251004E5000130E0700CE0012B0AD1322A08D390F82E2080F82F2080F82E102370A4F80110A3
S3251004E52010BC704740F67072C0F6010240F2DC40C0F60100817BC17305218173002050802E
S3251004E540FFF79EBF00207047FFF79ABF40F67071C0F6010100200860704740F26042C0F690
S3251004E5600102117CA9B930B544F27C4540F66C74C0F60104C1F20805206829460AF054F9E4
S3251004E580206029460AF040F920600120BDE8304070470020704740F2DC40C0F60100817BFA
S3251004E5A0C1730021817340F26040C0F6010090F82E2080F82F2080F82E107047002070478E
S3251004E5C07047704730B540F26041C0F6010140F66C740A7CC0F60104012A0ED144F2644503
S3251004E5E0C1F20805206829460AF01EF9206029460AF00AF92060012030BD8A7B0020002A70
S3251004E60018BF30BD0A7D002A18BF30BD897C002918BF30BD40F62262C0F601021178002990
S3251004E62018BF30BD44F21C45C1F20805206829460AF0FAF8206029460AF0E6F8206001205A
S3251004E64030BD40F2DC40C0F60100817BC1730021817340F26040C0F6010090F82C2080F894
S3251004E6602D2090F82E2080F82C1080F82F2090F8622080F82E1080F8632090F82A2080F8DD
S3251004E680621080F82B2080F82A107047002070477047704730B540F26042C0F60102917FFB
S3251004E6A040F66C74C0F6010405290ED144F2AC45C1F20805206829460AF0B6F820602946ED
S3251004E6C00AF0A2F82060012030BD03290ED144F2C445C1F20805206829460AF0A5F82060E6
S3251004E6E029460AF091F82060012030BD0020042918BF30BD44F2DC45C1F208052068294661
S3251004E7000AF092F8206029460AF07EF82060012030BD40F67073C0F6010340F2DC40C0F697
S3251004E7200100817BC1730521817340F26040C0F6010090F82C1080F82D10002190F8622047
S3251004E74080F82C1080F8632090F82A2080F8621080F82B2080F82A105980FFF791BE002081
S3251004E7607047FFF78DBE40F67071C0F6010100200860704730B540F26042C0F60102917FF7
S3251004E78040F66C74C0F60104022918BF00290ED144F29445C1F20805206829460AF044F888
S3251004E7A0206029460AF030F82060012030BD002003290ED144F2C445C1F20805206829467F
S3251004E7C00AF032F8206029460AF01EF82060012030BD042918BF30BD44F2DC45C1F2080566
S3251004E7E0206829460AF020F8206029460AF00CF82060012030BD40F26040C0F6010090F86A
S3251004E8002C1040F2D432C0F6010280F82D1092F84010022906D1012180F82C1090F82E1084
