S00F0000655F6B61345F70655F77000022
S3251004800002480349016000F0B7BF000008ED00E000840410FFFFFFFFFFFFFFFFFFFFFFFF88
S32510048020FFFFFFFFFFFFFFFFFFFFFFFFFFFFFFFFFFFFFFFFFFFFFFFFFFFFFFFFFFFFFFFF46
S32510048040FFFFFFFFFFFFFFFFFFFFFFFFFFFFFFFFFFFFFFFFFFFFFFFFFFFFFFFFFFFFFFFF26
S32510048060FFFFFFFFFFFFFFFFFFFFFFFFFFFFFFFFFFFFFFFFFFFFFFFFFFFFFFFFFFFFFFFF06
S32510048080FFFFFFFFFFFFFFFFFFFFFFFFFFFFFFFFFFFFFFFFFFFFFFFFFFFFFFFFFFFFFFFFE6
S325100480A0FFFFFFFFFFFFFFFFFFFFFFFFFFFFFFFFFFFFFFFFFFFFFFFFFFFFFFFFFFFFFFFFC6
S325100480C0FFFFFFFFFFFFFFFFFFFFFFFFFFFFFFFFFFFFFFFFFFFFFFFFFFFFFFFFFFFFFFFFA6
S325100480E0FFFFFFFFFFFFFFFFFFFFFFFFFFFFFFFFFFFFFFFFFFFFFFFFFFFFFFFFFFFFFFFF86
S32510048100FFFFFFFFFFFFFFFFFFFFFFFFFFFFFFFFFFFFFFFFFFFFFFFFFFFFFFFFFFFFFFFF65
S32510048120FFFFFFFFFFFFFFFFFFFFFFFFFFFFFFFFFFFFFFFFFFFFFFFFFFFFFFFFFFFFFFFF45
S32510048140FFFFFFFFFFFFFFFFFFFFFFFFFFFFFFFFFFFFFFFFFFFFFFFFFFFFFFFFFFFFFFFF25
S32510048160FFFFFFFFFFFFFFFFFFFFFFFFFFFFFFFFFFFFFFFFFFFFFFFFFFFFFFFFFFFFFFFF05
S32510048180FFFFFFFFFFFFFFFFFFFFFFFFFFFFFFFFFFFFFFFFFFFFFFFFFFFFFFFFFFFFFFFFE5
S325100481A0FFFFFFFFFFFFFFFFFFFFFFFFFFFFFFFFFFFFFFFFFFFFFFFFFFFFFFFFFFFFFFFFC5
S325100481C0FFFFFFFFFFFFFFFFFFFFFFFFFFFFFFFFFFFFFFFFFFFFFFFFFFFFFFFFFFFFFFFFA5
S325100481E0FFFFFFFFFFFFFFFFFFFFFFFFFFFFFFFFFFFFFFFFFFFFFFFFFFFFFFFFFFFFFFFF85
S32510048200FFFFFFFFFFFFFFFFFFFFFFFFFFFFFFFFFFFFFFFFFFFFFFFFFFFFFFFFFFFFFFFF64
S32510048220FFFFFFFFFFFFFFFFFFFFFFFFFFFFFFFFFFFFFFFFFFFFFFFFFFFFFFFFFFFFFFFF44
S32510048240FFFFFFFFFFFFFFFFFFFFFFFFFFFFFFFFFFFFFFFFFFFFFFFFFFFFFFFFFFFFFFFF24
S32510048260FFFFFFFFFFFFFFFFFFFFFFFFFFFFFFFFFFFFFFFFFFFFFFFFFFFFFFFFFFFFFFFF04
S32510048280FFFFFFFFFFFFFFFFFFFFFFFFFFFFFFFFFFFFFFFFFFFFFFFFFFFFFFFFFFFFFFFFE4
S325100482A0FFFFFFFFFFFFFFFFFFFFFFFFFFFFFFFFFFFFFFFFFFFFFFFFFFFFFFFFFFFFFFFFC4
S325100482C0FFFFFFFFFFFFFFFFFFFFFFFFFFFFFFFFFFFFFFFFFFFFFFFFFFFFFFFFFFFFFFFFA4
S325100482E0FFFFFFFFFFFFFFFFFFFFFFFFFFFFFFFFFFFFFFFFFFFFFFFFFFFFFFFFFFFFFFFF84
S32510048300FFFFFFFFFFFFFFFFFFFFFFFFFFFFFFFFFFFFFFFFFFFFFFFFFFFFFFFFFFFFFFFF63
S32510048320FFFFFFFFFFFFFFFFFFFFFFFFFFFFFFFFFFFFFFFFFFFFFFFFFFFFFFFFFFFFFFFF43
S32510048340FFFFFFFFFFFFFFFFFFFFFFFFFFFFFFFFFFFFFFFFFFFFFFFFFFFFFFFFFFFFFFFF23
S32510048360FFFFFFFFFFFFFFFFFFFFFFFFFFFFFFFFFFFFFFFFFFFFFFFFFFFFFFFFFFFFFFFF03
S32510048380FFFFFFFFFFFFFFFFFFFFFFFFFFFFFFFFFFFFFFFFFFFFFFFFFFFFFFFFFFFFFFFFE3
S325100483A0FFFFFFFFFFFFFFFFFFFFFFFFFFFFFFFFFFFFFFFFFFFFFFFFFFFFFFFFFFFFFFFFC3
S325100483C0FFFFFFFFFFFFFFFFFFFFFFFFFFFFFFFFFFFFFFFFFFFFFFFFFFFFFFFFFFFFFFFFA3
S325100483E0FFFFFFFFFFFFFFFFFFFFFFFFFFFFFFFFFFFFFFFFFFFFFFFFFFFFFFFFFFFFFFFF83
S3251004840000A400080080041089390710D1380710D1380710D1380710D13807103539071024
S3251004842035390710353907103539071099370710353907103539071035390710953507103C
S325100484409535071095350710953507109535071095350710953507109535071095350710FA
S325100484609535071095350710953507109535071095350710953507109535071095350710DA
S3251004848035390710353907103539071035390710353907103539071035390710353907109A
S325100484A035390710353907103539071035390710353907103539071035390710353907107A
S325100484C035390710353907103539071035390710353907103539071035390710353907105A
S325100484E035390710353907103539071035390710353907103539071035390710353907103A
S32510048500353907103539071035390710353907103539071035390710353907103539071019
S325100485203539071035390710353907103539071035390710353907103539071035390710F9
S325100485403539071035390710353907103539071035390710353907103539071035390710D9
S325100485603539071035390710353907103539071035390710353907103539071035390710B9
S32510048580353907103539071035390710353907103539071035390710353907103539071099
S325100485A0353907103539071035390710353907103539071035390710353907103539071079
S325100485C0353907103539071035390710353907103539071035390710353907103539071059
S325100485E0353907103539071035390710353907103539071035390710353907103539071039
S32510048600353907103539071035390710353907103539071035390710353907103539071018
S325100486203539071035390710353907103539071035390710353907103539071035390710F8
S325100486403539071035390710353907103539071035390710353907103539071035390710D8
S325100486603539071035390710353907103539071035390710353907103539071035390710B8
S32510048680353907103539071035390710353907103539071035390710353907103539071098
S325100486A0353907103539071035390710353907103539071035390710353907103539071078
S325100486C0353907103539071035390710353907103539071035390710353907103539071058
S325100486E0353907103539071035390710353907103539071035390710353907103539071038
S32510048700353907103539071035390710353907103539071035390710353907103539071017
S325100487203539071035390710353907103539071035390710353907103539071035390710F7
S325100487403539071035390710353907103539071035390710353907103539071035390710D7
S325100487603539071035390710353907103539071035390710353907103539071035390710B7
S32510048780353907103539071035390710353907103539071035390710353907103539071097
S325100487A0353907103539071035390710353907103539071035390710353907103539071077
S325100487C0353907103539071035390710353907103539071035390710353907103539071057
S325100487E035390710353907103539071035390710353907103539071035390710FFFFFFFFC0
S3251004880002000001000000FF17042020FFFFFFFF16230200008004100F880410008D0410CA
S32510048820FFFF2010FFFFFFFFFFFFFFFFFFFFFFFFFFFFFFFFFFFFFFFFFFFFFFFFFFFFFFFF0C
S32510048840FFFFFFFFFFFFFFFFFFFFFFFFFFFFFFFFFFFFFFFFFFFFFFFFFFFFFFFFFFFFFFFF1E
S32510048860FFFFFFFFFFFFFFFFFFFFFFFFFFFFFFFFFFFFFFFFFFFFFFFFFFFFFFFFFFFFFFFFFE
S32510048880FFFFFFFFFFFFFFFFFFFFFFFFFFFFFFFFFFFFFFFFFFFFFFFFFFFFFFFFFFFFFFFFDE
S325100488A0FFFFFFFFFFFFFFFFFFFFFFFFFFFFFFFFFFFFFFFFFFFFFFFFFFFFFFFFFFFFFFFFBE
S325100488C0FFFFFFFFFFFFFFFFFFFFFFFFFFFFFFFFFFFFFFFFFFFFFFFFFFFFFFFFFFFFFFFF9E
S325100488E0FFFFFFFFFFFFFFFFFFFFFFFFFFFFFFFFFFFFFFFFFFFFFFFFFFFFFFFFFFFFFFFF7E
S32510048C000000020000800410FF880410008C0410FFFF2010FFFFFFFFFFFFFFFFFFFFFFFF47
S32510048C20FFFFFFFFFFFFFFFFFFFFFFFFFFFFFFFFFFFFFFFFFFFFFFFFFFFFFFFFFFFFFFFF3A
S32510048C40FFFFFFFFFFFFFFFFFFFFFFFFFFFFFFFFFFFFFFFFFFFFFFFFFFFFFFFFFFFFFFFF1A
S32510048C60FFFFFFFFFFFFFFFFFFFFFFFFFFFFFFFFFFFFFFFFFFFFFFFFFFFFFFFFFFFFFFFFFA
S32510048C80FFFFFFFFFFFFFFFFFFFFFFFFFFFFFFFFFFFFFFFFFFFFFFFFFFFFFFFFFFFFFFFFDA
S32510048CA0FFFFFFFFFFFFFFFFFFFFFFFFFFFFFFFFFFFFFFFFFFFFFFFFFFFFFFFFFFFFFFFFBA
S32510048CC0FFFFFFFFFFFFFFFFFFFFFFFFFFFFFFFFFFFFFFFFFFFFFFFFFFFFFFFFFFFFFFFF9A
S32510048CE0FFFFFFFFFFFFFFFFFFFFFFFFFFFFFFFFFFFFFFFFFFFFFFFFFFFFFFFFFFFFFFFF7A
S32510048D00FFFFFFFFFFFFFFFFFFFFFFFFFFFFFFFFFFFFFFFFFFFFFFFFFFFFFFFFFFFFFFFF59
S32510048D2030B40346104600248C420FD245F22435C1F20B0513F8012B42401206D20D525B13
S32510048D4082EA102080B201348C42F3D330BC70472DE9F00C01004FF0010000F0A1800C68E7
S32510048D60002C00F09D8065884FF6FF718D4218BF002D00F0958034F8091C0023AB4280F055
S32510048D808B8004EBC3067268B668B2F1FF3F1CBF002A964203D822888A427FD080E0B61A70
S32510048DA006F1010C5FEADC075DD045F22436C1F20B0632F808AB8AEA010B4FEA0B6B4FEAA2
S32510048DC0DB5B3BF806B08BEA212181EA1A2A4FEA0A6A4FEADA5A3AF806B032F806AC8BEAA1
S32510048DE021218AEA010B4FEA0B6B4FEADB5B3BF806B08BEA212181EA1A2A4FEA0A6A4FEA44
S32510048E00DA5A3AF806B032F804AC8BEA21218AEA010B4FEA0B6B4FEADB5B3BF806B08BEA8F
S32510048E20212181EA1A2A4FEA0A6A4FEADA5A3AF806B032F802AC8BEA21218AEA010B4FEADD
S32510048E400B6B4FEADB5B3BF806B08BEA212181EA1A2A4FEA0A6A4FEADA5A3AF806A08AEA5E
S32510048E602121013FA5D11CF0070611D045F22437C1F20B0712F801CB8CEA010C4FEA0C6C85
S32510048E804FEADC5C3CF807C08CEA2121013EF1D10133AB42FFF475AF22888A4208BF0020FE
S32510048EA0BDE8F00C70472DE9F0444DF61C76C0F6000600214FF4887031F03BFF44F6F8502C
S32510048EC0C1F20B000024057B3470AC420FD22746D0F808A0380E0AEBC000FFF739FF08B1E4
S32510048EE00124347007F18077B5EB176FF2D80CB90220307000F0C7F801214FF48870BDE878
S32510048F00F04431F016BFFFF7CEBFF0B54DF61C76C0F60006022044F6F851C1F20B01307050
S32510048F200C790025A54228BFF0BD0F68280E07EBC000FFF70DFF08B10120307005F180752C
S32510048F40B4EB156FF2D8F0BD00B537F03AF8002814BF0420032000BD4DF61C71C0F60001C9
S32510048F600878022808BF7047003818BF0120704701808FE218FF2FE106460F46904603F045
S32510048F8031F84FF014004FF0010130F0DDF948F69F75C1F20405A5F101057A46A2EB050503
S32510048FA09146002803D131463A4643460AE04AF20040C0F6000085464FF000014FF00002DC
S32510048FC04FF0000340F20200012817D308D04EF68850CEF20000046844F4700404600DE0D1
S32510048FE011EE500F40F4A00001EE500FBFF36F8FF8EE100A40F08040E8EE100A4FF0000404
S3251004900048F20040C1F20400814506DB40F20000C1F22100814500DC2C4644F2D450C1F237
S325100490200700A0EB040000EB05004FF000044FF000054FF000062AF085FD00BFFDE7000085
S3251004904066F0A0BD66F0C8BD002800D0022836F096857047022808BF002001F0C3820128DE
S3251004906018BF7047002001F0C1BA40F2EA31C0F6010101200870704740F2EA31C0F6010162
S3251004908002200870704770470120704730B400240D46EB0815D001464FF0FF32DC0001F817
S325100490A0082B01F8072C01F8062C01F8052C01F8042C01F8032C01F8022C01F8012C013B08
S325100490C0EDD115F0070106D020184FF0FF3200F8012B0139FBD130BC704770B400251646BB
S325100490E0F40824D002460B46E50012F808CB03F808CB12F807CC03F807CC12F806CC03F8BB
S3251004910006CC12F805CC03F805CC12F804CC03F804CC12F803CC03F803CC12F802CC03F8A1
S3251004912002CC12F801CC03F801CC013CDDD116F0070207D02818691810F8013B01F8013B9D
S32510049140013AF9D170BC704710B541F26C01C0F6010101EB40142169201D8847A178607130
S32510049160012903D33DD00020A07010BD002818BF10BD2079012808BF10BD052814D14FF058
S32510049180FF30A168E070E0680A7802704A7842708A788270CA78C270A169E0688847E071A3
S325100491A0002818BF10BD19E02078002808BF10BD002020704FF0FF30E070E068A168027843
S325100491C00A7042784A7082788A70C278CA70A169E0688847E071002818BF10BD0120A070B0
S325100491E010BD207902281CBF0020A07010BD70B541F20806C0F60106002541F26C04C0F64C
S3251004920001042846FFF7A0FF04EB4510C078C0B90135072DF5D022E0032030700135072DD9
S32510049220EFD01CE0011F1CBF0239022901D9092813D307252846FFF787FF94F8E30000285A
S32510049240E6D001281CBF03280528EBD130780138E2D33070072DD4D001E0072DD1D0E0780A
S32510049260B0B994F8230098B994F8430080B994F8630068B994F8830050B994F8A30038B91B
S3251004928094F8C30020B90120BDE8704036F0BDBC0020BDE8704036F0B8BC41F26C03C0F610
S325100492A0010303EB4010C270062918BF0C2929D1012A18BF032A14D1C1684FF0FF320A60D4
S325100492C08268C16813780B7053784B7093788B70D378CB70012101704178012918BF704745
S325100492E028E0052A22D18168C2680B7813704B7853708B789370C978D1704178012918BF49
S32510049300704717E0072911D1012A0FD1C1684FF0FF320A608168C2680B7813704B785370C6
S325100493208B789370CB78D370012101704178012918BF704700214170C169C078084741F2CD
S325100493406C0CC0F6010C430103EB0C0003F80C10C260704770477047704770477047704740
S3251004936070477047801C800803D0401C801EFCD100BF704770B485B044F2F45CC1F2070C8C
S32510049380DCF800C0CDF800C044F2F85CC1F2070CDCF800C0CDF804C044F2FC5CC1F2070CD9
S325100493A0DCF800C0CDF808C044F2006CC1F2070CDCF800C0CDF80CC044F2046CC1F2070C79
S325100493C042F20103DCF80060C0F2AA03049600281CBF0029002A6CD00B7ADC07009B640F06
S325100493E064F390338C7A64F3082323F04073009303604B7A019CDB4363F3CB240B689C46DB
S3251004940063F3000C6CF39F7401940466029C4FF0070C6CF3040444F480740294C0F800434B
S325100494200C790025002C18BF7F25C0F80453CD884FEA450C8DF80CC02D0A6D008DF80E50FB
S32510049440039DC0F810534FF0070C6CF3040646F4807545F480350495C0F800524E790125CF
S32510049460002E18BF4025C0F804520021C0F8C81EC0F8881EC0F8C81FC0F8881FC0F8081F60
S32510049480DB0740F2D11358BF0023C0F8483F02F8044B02F8036C4FF0805082E803001161A1
S325100494A0D1619162D162084638320B468C4682E80B10184605B070BC704740F20F01C0F2F0
S325100494C00031016043F68871016640F2071241F21301C0F22A010167C0F800230021C0F8BC
S325100494E00413C0F81013C0F80022C0F80412C0F8C81EC0F8881EC0F8C81FC0F8881FC0F806
S32510049500081FC0F8481F704702686FF3DF7202604FF0805048600020886008627047026E65
S3251004952012F0804F35D0026E12F0004F31D145F2E020C0F27700081A45F64132C0F2730221
S32510049540904204D241F68020C0F2060070474AF2B060C0F21700081A4AF65112C0F2AB02CA
S32510049560904204D248F2A060C0F2010070474BF20030C0F2F100081A45F24151C0F25C413B
S32510049580884244F24022C0F20F0234BF104600207047026E006EC2F3031210F00F0080181D
S325100495A00230B1FBF0F070472DE9F0480446036E002013F0804F14D0236E13F0004F10D179
S325100495C011462046FFF7ABFFD4F800136FF34921C4F8001341F21301C0F22A012167BDE849
S325100495E0F088002A14BF0029BDE8F08844F6D350C1F26200A2FB0036A1FB0007B6094CF6AD
S325100496000020BF09C3F69A30B0FBF2F348F2A060C0F20100814209D841F2883BBBFBF3F510
S3251004962005FB03FC5846DC451DD21AE041F68025C0F20605A9428CBF4FF4BE704FF4617015
S32510049640A9428CBF4FF41B7B4FF4C86BBBFBF3F505FB03FCDC4506D203E09C440135DC45BB
S3251004966001D2102DF9D3B0FBF3F101FB03FC844506D203E09C440131844501D21029F9D333
S325100496804819B6FBF0F00023B8421BD915E013F0010F09D010290DD201314819B6FBF0F090
S325100496A00133B84209D80DE0102D03D201354819B6FBF0F00133B84204D901EB050CBCF1A5
S325100496C0200FE4D341F68026C0F20606D4F80033B04217D940F20300C0F22A0043F4007353
S325100496E0C4F800332067206E6B1E63F307102066206E4B1E63F3030020664819B2FBF0F00C
S32510049700BDE8F08841F21300C0F22A0023F40073C4F800332067206E6B1E63F307102066E6
S32510049720206E4B1E63F3030020664819B2FBF0F0BDE8F08800EB80000001FFF713BE10B536
S3251004974004460168080008BF10BD5020FFF70AFE21680139216014BF00204FF0004010BDAF
S3251004976070B442F20304C0F2AA0423464FF0805511F0004F14D111F0C00F0DD0816E002999
S325100497806AD000218166556040F21711C0F8001FD0F8000F601D66E011F4807F0FD0231DCA
S325100497A001686FF3DF71016000218166C166016841F00041016000685560184653E040F2C8
S325100497C00006C1F2130611F0010F12D05168E31CB142E5D1016EC1F3807191F00101DFD102
S325100497E0556040F21711C0F8001FD0F8000F184639E011F0020F0DD0A31C5268611CB24242
S3251004980008BF0B4640F21711C0F8001FD0F8000F184628E0002311F0100F08D0556040F2A6
S325100498201711C0F8001FD0F8000F18461BE05168B14211D192F80DC04FF4A011BCF1000F4A
S3251004984018BF4FF48811516040F21711C0F8001FD0F8000F184606E040F21711C0F8001F0D
S32510049860D0F8000F184670BC70472DE9F04481B0079D04460020C4F8480F42F20200D5F817
S3251004988004C0C0F2AA00BCF1805F4BD198001B1A03EB4013DE0040F20000C1F2130068603A
S325100498A0012A0CBF01200020687340F21710C4F8000FD4F8000F0420C4F8C00FD4F8C00F33
S325100498C0D4F8040240F48030C4F80402D4F804026FF31040C4F80402D4F80402480642EA64
S325100498E01060C4F8400202200090A06640F20717D4F8001FD4F8400F394000F0C00040EA7F
S32510049900010A00213EB15020FFF72CFD013E14BF00214FF000415AEA0101E9D02A462046FB
S32510049920FFF71EFF40F2D111C4F8481F01B0BDE8F0842DE9F04481B0079DD5F804C01CF439
S32510049940801F39D0044698001B1A03EB4013DE0040F20000C1F213006860012A0CBF012038
S3251004996000206873636EC3F34013DB0043F001000090A066480642EA1060C4F8400240F239
S325100499800717D4F8001FD4F8400F394000F0C00040EA010A00213EB15020FFF7E3FC013E97
S325100499A014BF00214FF000415AEA0101E9D02A462046FFF7D5FE03E042F20200C0F2AA0006
S325100499C001B0BDE8F0842DE9F04481B01646526812F4801F1FD005468800091A01EB40114B
S325100499E0CC0018200090A86640F2111AD5F8007F07EA0A0700213CB15020FFF7B3FC013CA0
S32510049A0014BF00214FF000413943EFD032462846FFF7A6FE03E042F20200C0F2AA0001B0D7
S32510049A20BDE8F0842DE9F0441646526812F4801F23D005468800091A01EB4011A86ECC00E6
S32510049A4040F01000A86640F2111AD5F8007F07EA0A0700213CB15020FFF784FC013C14BFEF
S32510049A6000214FF000413943EFD032462846BDE8F044FFF775BEBDE8F08442F20200C0F207
S32510049A80AA00BDE8F0842DE9F0441646526812F4801F23D005468800091A01EB4011A86EA8
S32510049AA0CC0040F00800A86640F2111AD5F8007F07EA0A0700213CB15020FFF753FC013CCF
S32510049AC014BF00214FF000413943EFD032462846BDE8F044FFF744BEBDE8F08442F20200B7
S32510049AE0C0F2AA00BDE8F0842DE9F04F83B006468946DDF830B0904642F20200DBF804108C
S32510049B00C0F2AA00B1F5881F39D198001B1A03EB4013DD0040F2011AD6F8004F04EA0A0427
S32510049B20D6F8C00F0023400754BF012700273DB15020FFF717FC013D14BF00234FF0004385
S32510049B401C433FB12100E7D05A463046FFF708FEA8B90EE0D6F8400388F800005A4605200D
S32510049B60C6F8C00FD6F8C00F21463046FFF7F8FD28B9B9F1010F02D104230093B36603B0E5
S32510049B80BDE8F08F2DE9F0441D465B68B3F5A01F21D104469000121A02EB4012D600C4F8E7
S32510049BA0401240F2071AD4F8007F07EA0A0700213EB15020FFF7D6FB013E14BF00214FF0E0
S32510049BC000413943EFD02A462046BDE8F044FFF7C7BDBDE8F08442F20200C0F2AA00BDE876
S32510049BE0F0842DE9F04F83B081468DF807200D4640F2000BC4F2620B0BF502763168C9054A
S32510049C004FEAD15103D10B460C1EF7D103E0013B01240029F2D1002BF0D1002C7CD140F2F1
S32510049C204C46C0F60106009658464FF4FA630A463C21FFF71AFE041E63D18046AA465FEAD7
S32510049C40DA074CD04D464FEAC708334615F8081B58464FF4FA62FFF795FF3346044315F815
S32510049C60071C58464FF4FA62FFF78CFF3346044315F8061C58464FF4FA62FFF783FF3346CC
S32510049C80044315F8051C58464FF4FA62FFF77AFF334615F8041C044358464FF4FA62FFF769
S32510049CA071FF3346044315F8031C58464FF4FA62FFF768FF3346044315F8021C58464FF4C8
S32510049CC0FA62FFF75FFF3346044315F8011C58464FF4FA62FFF756FF0443013FB5D11AF031
S32510049CE007050ED05FFA88F101EB0907334617F8011B58464FF4FA62FFF744FF0443013DF3
S32510049D00F4D19DF8070058B1324658464FF4FA61FFF788FE204304E042F20204C0F2AA04AE
S32510049D20204603B0BDE8F08F2DE9F04F84B007460E46914640F2000AC4F2620A0AF54274B8
S32510049D402068C0054FEAD05003D10346011EF7D103E0013B01210028F2D1002BF0D10029FE
S32510049D6040F0978040F24C45C0F60105009550464FF4FA6301223C21FFF777FD041E7DD1DE
S32510049D8003965FEAD60B65D08046009550464FF4FA6317EB18620221FFF7A6FE009507F15A
S32510049DA0010C0CEB1862044350464FF4FA630221FFF79AFE009507F1020C0CEB186204438A
S32510049DC050464FF4FA630221FFF78EFE009507F1030C0CEB1862044350464FF4FA630221E1
S32510049DE0FFF782FE009507F1040C0CEB1862044350464FF4FA630221FFF776FE009507F12E
S32510049E00050C0CEB1862044350464FF4FA630221FFF76AFE009507F1060C0CEB1862044351
S32510049E2050464FF4FA630221FFF75EFE009507F1070C0CEB1862044350464FF4FA630221AC
S32510049E40FFF752FE044308F10068BBF1010B9CD14FEA1860039911F007060FD04FEA006BF7
S32510049E60009550464FF4FA63022107EB1B62FFF73BFE04430BF1807B013EF1D15FEA09604B
S32510049E800BD02A4650464FF4FA61FFF7FCFD204304E042F20204C0F2AA04204604B0BDE89A
S32510049EA0F08F10B540F20000C4F26200FFF705FB40F24C44C0F60104224644F20861C1F2CD
S32510049EC0070140F20000C4F26200FFF753FA49F28062C0F2980241F68021C0F2060140F2A7
S32510049EE00000C4F26200FFF75FFB002060640446C4F26204206840F00040206010BD01222E
S32510049F008A40D0F818171143C0F81817704701228A40D0F808171143C0F808177047016855
S32510049F2041F00041016070474069704700EB41120020C2F80008C2F80408C2F8080840F23B
S32510049F40F042C0F6010242F82100704700210160016341620162C0F80817C0F81817704789
S32510049F6070B581B004460D1E24D040F2F041C0F60101002002460346064684468646A1E8D1
S32510049F804D50A1E84D5081E84D0040F2C441C0F601010860206840F0004020602E68A868B9
S32510049FA0B6FBF0F202FB106392B21BB9511EB1F5807F01D3012029E0206B61F307002063F1
S32510049FC0287B90B9B6FBF2F0010C6A68000429F0F1FF20F0FF006062206A6FF39E702062AF
S32510049FE0206A40F0004020620BE0206A697B40F0804061F3124000902062206A10F0004FF1
S3251004A000FBD0206910F0004FFBD0002001B070BD9AB1102911D2F0B481B01678012E09D1E7
S3251004A02000EB4117D7F80038D2F804C043F00203009324E01BB901B0F0BC0120704740F224
S3251004A040F04CC0F6010C4CF82130D468D2F804C05C60C3F800C0012340F2C444C0F6010438
S3251004A06003FA01F523682B4300EB41172360D7F800380093012E04BF43F002030093009B22
S3251004A080547843F0010364F3104343F000430093446904EB0C03C7F80438002507F50067C2
S3251004A0A0012E02D19268A218BA60009A3A6001228A40D0F808171143C0F80817012E04D17F
S3251004A0C0D0F818171143C0F81817284601B0F0BC7047012202FA01F1C0F81017D0F81007E3
S3251004A0E0704710B400F5006491B904EB421CDCF800106FF30001CCF8001000EB4211C1F8C9
S3251004A100043801F50060D1F8001841F0010109E004EB421001686FF341010160836001689B
S3251004A12041F00201016010BC70470069C00F704730B540F60005C4F23F0500242C606C6068
S3251004A140AC6040F2E04140F2F045C0F60105C0F601012C6041F200202546C4F23F05C0F2B5
S3251004A1607A002C602C636C622C62C5F80847C5F818474FF4004344F24025C0F20F0581E85C
S3251004A18029008C812046C4F23F00FFF7E9FE40F2D042C0F60102556001205070107040F2F2
S3251004A1A0C84340F6B8309060C0F601032046C4F23F002146BDE83040FFF72ABF00B541F214
S3251004A1C00002C4F22602106810F0100F0DD1106B6FF3DF70106302F12C01086810F0004F92
S3251004A1E0FBD1086810F0010FFBD1FFF7A1FF40F29C41C0F601010020087040F2D041C0F63F
S3251004A20001014CF25030886000BD41F23001C4F22601086840F0004041F80409086810F0E8
S3251004A220004FFBD1086810F0010FFBD040F60001C4F23F01002008604860886040F2F041F6
S3251004A240C0F6010108600146C4F23F010860086348620862C1F80807C1F8180770472DE933
S3251004A2602041002026F000FA4CF2882540F2B841C0F601010120087051F094FC40F2BC40CD
S3251004A280C0F60100056040F20001C4F23F01086910F0004FFBD040F21401C4F23F01086827
S3251004A2A040F2A842C0F601020021C2E9000140F2A04CC0F6010CDCE9002340F2C048C0F629
S3251004A2C00108A0EB020CC8F800C0AC4503D9C83041F1000104E04CF25031501843F100010A
S3251004A2E040F2B042C0F60102C2E9000140F60008C4F23F08D8F800206FF34102C8F800200B
S3251004A30040F60808C4F23F08C8F8000040F60008C4F23F08D8F8000040F00200C8F8000023
S3251004A32040F2B848C0F60108002088F8000041F20431C4F22001086810F0010FFBD04EF6A4
S3251004A3401058CEF20008D8F8000040F00400C8F8000030BF40F29C48C0F6010898F800009B
S3251004A360012883D0BDE8208181B040F21072C4F23F020120106010680090A2F5E261086941
S3251004A38010F0004FFBD040F29C40C0F601000178012912BF002901210170017F012907D013
S3251004A3A040F21403C4F23F0319680022C0E9011201B070474AF20001C0F600010860704768
S3251004A3C04AF21000C0F6000070474AF21000C0F60000704701884AF21002C0F600021180D1
S3251004A3E081789170C178D170017911714179517181799171C179D171007A1072704700B577
S3251004A4000146032045F02EF8002000BD00B50146052045F050F8002000BD0146002045F069
S3251004A4200CB90146002045F0D3B8002045F0EBB8002045F021BC002045F0EBBA002045F09D
S3251004A44001BC002045F0FFBA00B5FEF703FE002000BD00B530F091FA002000BD00B5FEF7A8
S3251004A460F3FD002000BD00B50146062045F023F8002000BD8620704730F01DB930F01DB95D
S3251004A4808620704786207047862070478620704786207047862070478620704786207047BA
S3251004A4A086207047862070478620704786207047862070478620704786207047862070479A
S3251004A4C086207047862070478620704786207047862070478620704786207047862070477A
S3251004A4E086207047862070478620704786207047862070478620704786207047862070475A
S3251004A500862070478620704786207047862070478620704786207047862070478620704739
S3251004A52086207047862070478620704786207047862070478620704730F0DEB830F0BFB886
S3251004A54030F00DB920B582B0BDF810C0DDF814E08DE8005030F011F902B020BD30F000B850
S3251004A56030F01EB830F024B836F011BD30F010B830F006B82FF0FCBF862070478620704781
S3251004A5808620704700B530F0BEFB002000BD862070478620704700B530F01DFB002000BD55
S3251004A5A000B530F01EFB002000BD00B530F014FB002000BD00B530F010FB002000BD00B583
S3251004A5C030F00CFB002000BD00B530F008FB002000BD00B530F004FB002000BD862070479A
S3251004A5E051F0FFBB4AF05ABE51F0F0BB51F0DCBB00B54AF0AFFF002000BD13460A460146C6
S3251004A60001203FF0E4B80146002063F050B901462B2062F0EEBC01462C2062F0EABC014611
S3251004A6202D2062F0E6BC01462E2062F0E2BC0146002063F0FDB80146002062F0A3BE54F06D
S3251004A640B3BC54F092BC54F051BC54F06EBC13460A460146002046F0DFBD002046F048BDE3
S3251004A6600A460146002046F090BD0A460146002047F0C7BA0A460146012047F0C2BA00208C
S3251004A68047F059BA002047F0C2B90A460146002047F00ABA0A460146022044F027BE00B54B
S3251004A6A00146082044F0DEFE002000BD0146092040F0F7B80146092040F07AB90146092092
S3251004A6C040F00ABA01460D2040F0EBB801460D2040F06EB901460D2040F0FEB90146082090
S3251004A6E040F0DFB80146082040F062B90146082040F0F2B901460B2040F0D3B801460B20D6
S3251004A70040F056B901460B2040F0E6B90146072040F0C7B80146072040F04AB90146072073
S3251004A72040F0DAB901460C2040F0BBB801460C2040F03EB901460C2040F0CEB901460A20F1
S3251004A74040F0AFB801460A2040F032B901460A2040F0C2B900B50146062044F0ACFE002080
S3251004A76000BD01464FF4C8704BF061BB4BF0CDBC4BF06ABC70B504460E464CF2A045C0F628
S3251004A78000052FF07CFD95F83C20D00717D442F003006C706E80AD6185F83C002FF049FD2C
S3251004A7A008202FF058FE2FF06AFD95F83C202C7802F0FE0285F83C202FF03BFD02E02FF0AC
S3251004A7C038FD8224204670BD2FF059BD2FF057BD2FF055BD2FF053BD2FF051BD2FF04FBDD1
S3251004A7E02FF04DBD2FF04BBD2FF049BD2FF047BD2FF045BD2FF043BD2FF041BD2FF03FBD2F
S3251004A8002FF03DBD2FF03BBD2FF039BD2FF037BD2FF035BD2FF033BD2FF031BD2FF02FBD8E
S3251004A8202FF02DBD2FF02BBD2FF029BD2FF027BD2FF025BD2FF023BD2FF021BD2FF01FBDEE
S3251004A8402FF01DBD2FF01BBD2FF019BD2FF017BD2FF015BD2FF013BD2FF011BD2FF00FBD4E
S3251004A8602FF00DBD2FF00BBD2FF009BD2FF007BD2FF005BD2FF003BD2FF001BD2FF0FFBCAF
S3251004A8802FF0FDBC2FF0FBBC2FF0F9BC2FF0F7BC2FF0F5BC2FF0F3BC2FF0F1BC2FF0EFBC16
S3251004A8A02FF0EDBC2FF0EBBC2FF0E9BC2FF0E7BC2FF0E5BC2FF0E3BC2FF0E1BC2FF0DFBC76
S3251004A8C02FF0DDBC2FF0DBBC2FF0D9BC2FF0D7BC2FF0D5BC2FF0D3BC2FF0D1BC2FF0CFBCD6
S3251004A8E02FF0CDBC2FF0CBBC2FF0C9BC2FF0C7BC2FF0C5BC2FF0C3BC2FF0C1BC2FF0BFBC36
S3251004A9002FF0BDBC2FF0BBBC2FF0B9BC2FF0B7BC2FF0B5BC2FF0B3BC2FF0B1BC2FF0AFBC95
S3251004A9202FF0ADBC2FF0ABBC2FF0A9BC2FF0A7BC2FF0A5BC2FF0A3BC2FF0A1BC2FF09FBCF5
S3251004A9402FF09DBC2FF09BBC2FF099BC2FF097BC2FF095BC2FF093BC2FF06BBC2FF069BCA1
S3251004A9602FF067BC2FF065BC2FF063BC2FF061BC2FF05FBC2FF05DBC2FF05BBC2FF059BCE5
S3251004A9802FF057BC2FF055BC2FF053BC2FF051BC2FF04FBC2FF04DBC2FF04BBC2FF049BC45
S3251004A9A02FF047BC2FF045BC2FF043BC2FF041BC2FF03FBC2FF03DBC2FF03BBC2FF039BCA5
S3251004A9C02FF037BC2FF035BC2FF033BC2FF031BC2FF02FBC2FF02DBC2FF02BBC2FF029BC05
S3251004A9E02FF027BC2FF025BC2FF023BC2FF021BC2FF01FBC2FF01DBC2FF01BBC2FF019BC65
S3251004AA002FF017BC2FF015BC2FF013BC2FF011BC2FF00FBC2FF00DBC2FF00BBC2FF009BCC4
S3251004AA202FF007BC2FF005BC2FF003BC2FF001BC2FF0FFBB2FF0FDBB2FF0FBBB2FF0F9BB28
S3251004AA402FF0F7BB2FF0F5BB2FF0F3BB2FF0F1BB2FF0EFBB2FF0EDBB2FF0EBBB2FF0E9BB8C
S3251004AA602FF0E7BB2FF0E5BB2FF0E3BB2FF0E1BB2FF0DFBB2FF0DDBB2FF0DBBB2FF0D9BBEC
S3251004AA802FF0D7BB2FF0D5BB2FF0D3BB2FF0D1BB2FF0CFBB2FF0CDBB2FF0CBBB2FF0C9BB4C
S3251004AAA02FF0C7BB2FF0C5BB2FF0C3BB2FF0C1BB2FF0BFBB2FF0BDBB2FF0BBBB2FF0B9BBAC
S3251004AAC02FF0B7BB2FF0B5BB2FF0B3BB2FF0B1BB2FF0AFBB2FF0ADBB2FF0ABBB2FF0A9BB0C
S3251004AAE02FF0A7BB2FF0A5BB41F6AF11C0F60101087840F04000087041F6A211C0F6010183
S3251004AB000120087010202FF0A6BC70477047704770477047704770477047704770477047F4
S3251004AB207047704770477047704700B581B000208DF803000DF1030103203AF050FFA8B9DB
S3251004AB409DF8030041F6BC11C0F60101087041F6AF11C0F601010020087041F6A511C0F625
S3251004AB600101012008700F202FF075FC01B000BD704770477047704770477047704770473B
S3251004AB8070477047704770477047704770477047704770477047704770477047704770472B
S3251004ABA07047704700B581B000208DF803000DF103011C203AF013FF60B99DF8030041F61D
S3251004ABC0BD11C0F60101087041F6B211C0F601010020087001B000BD00B581B000208DF81A
S3251004ABE003000DF103011B203AF0F9FEA8B99DF8030041F6BE11C0F60101087041F6B311B0
S3251004AC00C0F601010020087041F6A611C0F601010120087011202FF01EFC01B000BD7047FC
S3251004AC207047704730B500242FF029FB41F6A311C0F6010108782546012805D141F6A311C8
S3251004AC40C0F601010C70044641F6A411C0F601010878012805D141F6A411C0F601010D7018
S3251004AC6005462FF0E6FA4CF2CA41C0F600010878800707D5012C08BF34F0FEFA012D08BF88
S3251004AC8034F05BFABDE830402FF0F5BB00B54CF2CA41C0F600010878C00716D544F0D0FD55
S3251004ACA041F69611C0F601010878402818BF4BF053FA4AF03DFA51F050F830F039F85CF006
S3251004ACC04EFC46F023FE54F093F92FF0D4FB00BD00B54CF2CA41C0F600010878800709D5A4
S3251004ACE02FF06EFC2FF030FF2FF074FF2FF07CFF50F047FA2FF0BFFB00BD00B54CF2CA4122
S3251004AD00C0F600010878C0071BD544F097FD34F06CFB34F06DFB41F69611C0F60101087836
S3251004AD2011281CBF12284CF0E2FA3AF02BF83AF029FA3AF0DDF838F0E9FB51F031FC63F02D
S3251004AD405DFA2FF098FB00BD10B500242FF097FA41F6AD11C0F601010878012808BF012438
S3251004AD602FF067FA4CF2CA41C0F600010878C00703D5012C08BF46F0E1FD2FF080FA012C4C
S3251004AD8005D141F6AD11C0F60101002008702FF050FABDE810402FF06EBB00B54CF2CA41DA
S3251004ADA0C0F600010878C0070AD541F69611C0F60101087811281EBF1228132864F00CFE9D
S3251004ADC02FF059FB00BD00B54CF2CA41C0F600010878800711D540F68A50C0F60100417807
S3251004ADE011291FBF00781128132913281EBF122912282FF0C8FD2FF0A2FE2FF03CFB00BDF1
S3251004AE0000B541F6A512C0F6010211780020012905D141F6A511C0F60101087001204CF297
S3251004AE20CA42C0F600021178890703D5012808BF2FF0C3FE2FF01FFB00BD00B541F6A212DD
S3251004AE40C0F6010211780020012905D141F6A211C0F60101087001204CF2CA42C0F6000239
S3251004AE601178890703D5012808BF2FF0A9FE2FF002FB00BD00B541F6A612C0F60102117852
S3251004AE800020012905D141F6A611C0F60101087001204CF2CA42C0F600021178890703D546
S3251004AEA0012808BF2FF08DFE2FF0E5FA00BD10B500242FF0E4F941F6A711C0F60101087817
S3251004AEC0012808BF01242FF0B4F94CF2CA41C0F600010878800703D5012C08BF2FF06CFE1B
S3251004AEE02FF0CDF9012C05D141F6A711C0F60101002008702FF09DF9BDE810402FF0BBBAD3
S3251004AF0010B500242FF0BBF941F6A811C0F601010878012808BF01242FF08BF94CF2CA4132
S3251004AF20C0F600010878800703D5012C08BF2FF050FE2FF0A4F9012C05D141F6A811C0F69B
S3251004AF400101002008702FF074F9BDE810402FF092BAF0B50024254626462FF090F941F6D2
S3251004AF60AB12C0F60102274611782046012905D141F6AB11C0F601010C70012441F6AA12A6
S3251004AF80C0F601021178012905D141F6AA11C0F601010870012541F6A912C0F601021178D9
S3251004AFA0012905D141F6A911C0F601010870012641F6AC12C0F601021178012905D141F6C1
S3251004AFC0AC11C0F60101087001272FF032F94CF2CA41C0F60001087880070FD5012C08BF19
S3251004AFE02FF0D8FD012D08BF2FF0D4FD012E08BF2FF0D0FD012F08BF2FF0CCFDBDE8F040C8
S3251004B0002FF039BA30B54CF2B844C0F600042FF036F994F8240081070AD500F0FD0084F85D
S3251004B020240001252FF005F9A07C800713D505E000252FF0FEF8A07C80070CD5012D0AD158
S3251004B0402FF01DF924682FF0F4F824B1618860784AF09EFD2070BDE830402FF00CBA70B5F0
S3251004B06000252FF00CF941F6AE11C0F60101087801280CBF012600262FF0DBF84CF2CA41C3
S3251004B080C0F6000108782C46C00704D5012E02D1FDF739FF35462FF0F2F8012E27D141F63D
S3251004B0A0BF12C0F601021078401BC0B230B110702FF0BFF8BDE870402FF0DDB941F6C0134C
S3251004B0C0C0F60103197801391970090609D016702FF0AFF80E202FF0BEF9BDE870402FF09C
S3251004B0E0CAB941F6AE11C0F6010110700C702FF0A0F8BDE870402FF0BEB930B505460C46E5
S3251004B10002F00FFD01280ED102F065FC00696100085A4FF6FF71884205D002F06DFCBDE83C
S3251004B120304001F00BBD2846BDE8304001F005BE40F60000C4F290000121FFF7DEBF40F62E
S3251004B1400000C4F290000121FFF7D7BF40F64000C4F290000221FFF7D0BF40F64000C4F251
S3251004B16090000221FFF7C9BF40F6C000C4F290000021FFF7C2BF40F6C000C4F29000002153
S3251004B180FFF7BBBF42F60000C4F290000421FFF7B4BF42F60000C4F290000421FFF7ADBF14
S3251004B1A042F64000C4F290000321FFF7A6BF42F64000C4F290000321FFF79FBF00B500202D
S3251004B1C004F096FA40F25001C4F25201086800BD002004F08DBA00B5012004F089FA40F23E
S3251004B1E05041C4F25201086800BD012004F080BA01004FF0000008BF704745F26402C1F211
S3251004B2000702914208BF01207047704745F2F823C1F207031A680021904208BF012108006D
S3251004B22018BF0120704730B5054648F22411C1F207010878012804D111F03BFF002808BF43
S3251004B24030BD40F24064C0F6010428000BD145F20031C1F2070145F23430C1F2070084E86E
S3251004B2600300012030BDFFF7D1FF002808BF30BD45F2F821C1F2070101EB800000682060A2
S3251004B2806560012030BD2DE9F04840F24064C0F6010400224FF6FF7194E818001E68248E3F
S3251004B2A0A2421AD215461F46D7F804C0B7F80CB00BFB0C6E704505D2811BB1FBFCF189B26A
S3251004B2C022460AE005F580354FEA154C5A4403EB0C1792B23E68A242E6D30846BDE8F08818
S3251004B2E040F24861C0F601010880704740F24860C0F601000188013101807047F0B440F208
S3251004B3004065C0F6010500210A462E890C4695E828002D8E270C03EB0717BF89C91989B234
S3251004B3208E4201D2294605E0D21992B204F58034A942EFD3210C03EB01135968B21A4A432A
S3251004B3409C6814194160846040F6F4301B68C0F60100D2180260C160F0BC70472DE9F0486B
S3251004B36040F24064C0F6010400210A4694E818009F68248EA14219D20E461D46D5F804B05E
S3251004B380B5F80CC00CFB0B7E704505D2ABF1010120EA0102214609E006F58036350C61446C
S3251004B3A003EB051589B2AF68A142E7D31046BDE8F0882DE9F0440746164600252C4601EB93
S3251004B3C0000A3846042111F03DFA48B90435B54207D1381D841B0AF104075745F1D303E028
S3251004B3E0002504375745ECD32046BDE8F0842DE9F04C83460E461746002411F03FFA002FA0
S3251004B40008BFBDE8F08C40F24C6AC0F6010A802F94BF3D4680252A4604EB0B01504611F055
S3251004B420A8FA52460021B1EB950F08D252F8040B46F8040B01310434B1EB950FF6D37F1BCA
S3251004B440E5D1BDE8F08C11F0E1BD11F0DFBD11F0F1BD11F0EFBD11F002BE40F28011C4F229
S3251004B4603801022013F03EBE40F28011C4F23801022013F037BE40F28021C4F238010320A7
S3251004B48013F030BE40F28021C4F23801032013F029BE40F28031C4F23801002013F022BEFD
S3251004B4A040F28031C4F23801002013F01BBE40F20051C4F23801012013F014BE40F20051B9
S3251004B4C0C4F23801012013F00DBE45F2B462C1F2070290420CBF01200020704740F2001094
S3251004B4E0C4F231000122002116F03EBC40F20010C4F231000122002116F036BC40F2003040
S3251004B500C4F231000522012116F02EBC40F20030C4F231000522012116F026BC40F2803095
S3251004B520C4F231000122022116F01EBC40F28030C4F231000122022116F016BC40F60010B7
S3251004B540C4F231000122032116F00EBC40F60010C4F231000122032116F006BC01004FF057
S3251004B560000008BF704745F27072C1F20702914208BF012070471CF0CDB91CF0CBB945F68F
S3251004B5805002C1F2070290420CBF0120002070476F2800F2DB820FF20802D2E810F000BF84
S3251004B5A07100710083009100D702D702D702D702A100B600D702D702D702D702D702D702AA
S3251004B5C00401DB00D702D702D702D702D702D702E000E500EA00F300040111011601D702B2
S3251004B5E023012F013B01D702D702D702D702D70247015401D702D702D702D702D702D702B1
S3251004B600630163016301D702D702D702D702D7026B016B01D702D702D702D702D702D702B9
S3251004B620780187019801B001D702D702D702D702C101CA01D401D702D702D702D702D702A2
S3251004B640E101F801D7020D021C0221022E024302550268025D026802D702D702D702D70269
S3251004B6606C02D702D702D702D702D702D702D702D702D702D70274029202A702B202BE02A1
S3251004B680081C1CBF0438B0F1030040F25D820A38013840F2598202381CBF0A28082940F070
S3251004B6A04D8251E2081C1CBF0438B0F1030040F24B820D38012840F247820E290CD143E2EE
S3251004B6C0081C1CBF0438B0F1030040F23D820E2818BF0E2900F038821E2940F01D8133E268
S3251004B6E0081C1CBF0438B0F1030040F22D820D38013840F2298205381CBF0338012884BF56
S3251004B7000839B1F103011CD81EE2B1F114000DD2023000F019820A30043080F01582043039
S3251004B7201CBF0839B1F103010BD80DE2013840F20B8205381EBF04280839B1F1030140F204
S3251004B74003820539013940F2FF8102291CBF00207047F9E1081F032840F2F6816DE0081FFA
S3251004B760032840F2F18144E0081F032840F2EC814BE0081F033840F2E7810E2818BF00296E
S3251004B78051D1E1E1081C1CBF0438B0F1030040F2DB810D38013840F2D781062818BF1329F5
S3251004B7A040F0BA80D0E1081C1CBF0438B0F1030040F2CA810D2818BF132940F07981C3E1E2
S3251004B7C0081F032840F2C08195E1081C1CBF0438B0F1030040F2B881132818BF132940F04C
S3251004B7E06781B1E1081F033840F2AE810F2800F0AB81002918BF14297AD1A5E1081F03382F
S3251004B80040F2A2810F2800F09F81002918BF14295AD199E1081F033840F296810F2818BFD7
S3251004B820002900F0918114295FD18DE1081F033840F28A810E2800F08781002918BF1429DE
S3251004B84040F0368180E1081C1CBF0438B0F1030040F27A810D38012840F276811A2940F070
S3251004B860278171E100391CBF0439032984BF0020704769E1081C1CBF0438B0F1030040F2C2
S3251004B88063810E2818BF1A2940F012815CE1081C1CBF0438B0F1030040F2568109381EBF54
S3251004B8A0B0F104000228132925D14DE1081C1CBF0438B0F1030040F2478109381CBFB0F1A9
S3251004B8C00400022800F04081122922D13CE1081C1CBF0438B0F1030040F2368109381CBF40
S3251004B8E0B0F10400022800F02F81122900F02C81132900F02981112940F0DA8024E1081C24
S3251004B9001CBF0438B0F1030040F21E81092800F01B81132900F01881112940F00D8113E113
S3251004B920081F033840F210810E2818BF002920D10AE1081F033840F207810E2818BF11F18B
S3251004B94000002ED100E1081C1CBF0438B0F1030040F2FA800B2818BFB1F108000DD1F3E0FD
S3251004B960081F033840F2F080142818BF002900F0EB80B1F1080000F0E7800838013840F266
S3251004B980E380022818BF092940F09680DCE0081F033840F2D980142818BF11F1000000F003
S3251004B9A0D3800838013884BF0738032840F2CC800B2940F08380C7E0081C1CBF0438B0F18C
S3251004B9C0030040F2C1800A381EBFB0F102000828082934D1B8E0081F032840F2B58013E06B
S3251004B9E0081C1CBF0438B0F1030040F2AD800C381CBF0828082922D1A6E0081F033840F262
S3251004BA00A3800E2800F0A080081C1FBFB0F10800B0F10800B0F10300082818BF092940F042
S3251004BA208F8091E0081C1CBF0438B0F1030040F28B800E381CBF0628082900F085800929A9
S3251004BA4018BF10297CD17FE0081C1CBF043803287AD9132970D177E0081C1CBF0438B0F1A7
S3251004BA60030071D9142818BF1F2963D16CE0081F032869D904E0081F033865D9142863D0FD
S3251004BA80002959D160E0B1F1130009D202305BD00930043058D2043018BF08290AD153E02B
S3251004BAA000381CBF0738B0F101004DD904284BD0082949D0092947D00B2945D00A2945D1E6
S3251004BAC042E0B1F11A0009D207303DD00B3004303AD2043018BF082930D135E0013833D93D
S3251004BAE002381CBF0228082928D12DE0081F03382AD9162828D000291CBF142913291BD1B2
S3251004BB0022E0081C1CBF0438B0F103001CD90D381CBF0928082911D116E0081C1CBF0438A0
S3251004BB20B0F1030010D90D381EBFB0F1070002281F2909D01A2907D0082905D0092903D024
S3251004BB400A2918BF0B2901D1012070470020704710380DD210300A2800F2CA800FF2040230
S3251004BB60D2E800F00B10151A232C5F646D70B3000A2884BF00207047B5E0362984BF002072
S3251004BB80704707E03C2984BF0020704702E0042900F2AE80012070475639FBD9023918BFF2
S3251004BBA00229F7D04FF0000070475E39F2D9023918BF0229EED04FF0000070476F3914D2A2
S3251004BBC00231E7D0B1F1FF3103313CBFA1F1FF3111F10301DED2B1F1FF3106313CBF0331B0
S3251004BBE011F15B01D6D20020704708390AD202311EBF11F1020111F1020111F10201C9D079
S3251004BC000020704700391CBF0239B1F10101C1D90339013984BF03390729BBD94FF00000AE
S3251004BC2070475329B6D94FF0000070470339B1D9023918BF0229ADD04FF0000070470A2989
S3251004BC40A8D955E0873923D20E3113D2B1F1FF3104313CBFA1F1FF3111F107019AD2B1F15F
S3251004BC60FF3107313CBFA1F1FF3111F1630191D200207047023984BF0239B1F1020189D925
S3251004BC800239023986D9022984D04FF00000704708390BD202311EBF11F1020111F1020108
S3251004BCA011F102013FF476AF0020704700391CBFB1F10201B1F102013FF46CAF02395829CE
S3251004BCC07FF668AF4FF000007047963984BF0339B1F101017FF65EAF03391F297FF65AAF52
S3251004BCE04FF000007047002918BF01293FF452AF002070471A2859D80FF20402D2E800F0DB
S3251004BD0054540E544C123F151E21215656565656242B31363F3F42474C4F5400032945D84A
S3251004BD20012070470A29FBD940E00239F8D9023918BF0229F4D04FF0000070470829EFD9EE
S3251004BD4006E00429ECD931E0081FE9D90328E7D00929E5D02AE0282984BF29391629DFD937
S3251004BD600BE02729DCD92829DAD003E02729D7D92829D5D029391629D2D9002070470B298E
S3251004BD80CED913E0002918BF0129C9D001E00029C6D00229C4D009E00F29C1D906E0002903
S3251004BDA018BF0129BCD001E00729B9D9002070470A3883BF06380A2800200120704703462D
S3251004BDC00020083B84BF083B0A2B05D9002918BF7047002A18BF70470120704701004FF0C6
S3251004BDE0000008BF704747F69C42C1F20702914208BF012070477047704700B540F2887114
S3251004BE00C0F60101086800F079F800B340F28871C0F601010868006850B140F20000C4F228
S3251004BE20600021F049FE5721402023F03BFF00BD21F0D1FD002122F093FC002818BF00BDF1
S3251004BE4040F20000C4F2600021F036FE00BD40F20000C4F2600021F02FFE5721402023F00D
S3251004BE6021FF00BDFFF7C9BFFFF7C7BF00B521F04DFE002808BF00BD21F042FE002818BFC4
S3251004BE8000BD40F28872C0F6010211680868002818BF00BD47F63063C1F2070318684FF6EF
S3251004BEA0FF720088904208BF00BDC0EBC000096901EB800080680021C07A01280BD1042064
S3251004BEC022F04EFC0021032022F04AFC0220002122F046FC00BD012022F042FC0020014624
S3251004BEE022F03EFC00BD47F6F850C1F20700704740F28871C0F601010860704747F6F852A0
S3251004BF00C1F2070290420CBF01200020704701004FF0000008BF704747F6B862C1F20702E5
S3251004BF20914208BF0120704704280FDB104A402012180120106000BF0220106000BF0120B9
S3251004BF40506000BF0320106000BF10E0094A90215218000280180122026000BF0222026044
S3251004BF6000BF0122426000BF0322026000BF704700C026400080264070474AF030BF00B5C6
S3251004BF8045F2FC51C1F20B01088812F036FE4AF026FF00BD00B54AF022FF03204AF0FFF8FE
S3251004BFA000BD0000C8410B10CC410B10C8410B10CC410B10002814D00C682546264627464E
S3251004BFC0A046A146A246A3464A688B6802EB030323E9F00F9A42FBD1A0F1010001F10C01CD
S3251004BFE0E8E77047F4462EF0A8FD2E48092101602D4801682D4A41EA020101602C484FF00C
S3251004C000000101602B484FF0010101602A4801602A4800682A4910EA010207D129480068C1
S3251004C0200121090410EA010200D106E05FF8840000685FF88410FFF7BDFF2EF07FFDE6465D
S3251004C0407047012109042048006810EA010209D01E48FF23006810F0010203D1A3F10103DB
S3251004C060002BF7D11A48006810EA010209D01948FF23006810F0010203D1A3F10103002B8E
S3251004C080F7D1154815491022016000F10400A2F10102002AF8D11248016012481249016021
S3251004C0A0704700BF4002204054012140000004280C012140C0012140C80121400018264034
S3251004C0C00000FF710418264000132040041320408013204084132040401320400200FA05CC
S3251004C0E0881320400CED00E00400FA0541EA0020704700B563F079FD40F62401C0F60101BC
S3251004C10008680130086000BD2DE9F04D83B0B0F82680808C404500F2DA80A8EB00010131C8
S3251004C1205FEA910A00F0A78000274FEA004B4FEA1B45284601F055FC04682046394600F0B5
S3251004C140F6FE204600F0D3FE01268DE8C00020463B463A46394600F0CFFE38468DE8810037
S3251004C16020463B463A46394600F033FF2046394600F049FF20463A46394600F046FF691C61
S3251004C18088B201F02EFC04682046394600F0CFFE204600F0ACFE8DE8C00020463B463A4686
S3251004C1A0394600F0A9FE38468DE8810020463B463A46394600F00DFF2046394600F023FF02
S3251004C1C020463A46394600F020FFA91C88B201F008FC04682046394600F0A9FE204600F09F
S3251004C1E086FE8DE8C00020463B463A46394600F083FE38468DE8810020463B463A463946BB
S3251004C20000F0E7FE2046394600F0FDFE20463A46394600F0FAFEE91C88B201F0E2FB046899
S3251004C2202046394600F083FE204600F060FE8DE8C00020463B463A46394600F05DFE3846F6
S3251004C2408DE8810020463B463A46394600F0C1FE2046394600F0D7FE20463A46394600F03A
S3251004C260D4FE0BF5802BBAF1010A7FF460AF4FEA1B4040452BD80604300C01F0B2FB046883
S3251004C2802046514600F053FE204600F030FE01218DE80204204653465246514600F02CFEDD
S3251004C2A050468DE80104204653465246514600F090FE2046514600F0A6FE20465246514682
S3251004C2C006F5803600F0A1FEB8EB164FD4D203B0BDE8F08D30B50546017D00248C4228BFFA
S3251004C2E030BD200E01F097FBFFF70EFF04F180742A7DB2EB146FF4D830BD70B50446017D2D
S3251004C30000258D420AD2280E01F085FBFFF7FCFE05F18075227DB2EB156FF4D8617D002522
S3251004C3208D421CD2280E01F0E4FB064600F0BCFE307A43F21021C0F2040100F0B6FF307A14
S3251004C3400022114600F0FDFE307A0122114600F0F8FE05F18075617DB1EB156FE2D8002092
S3251004C360BDE8704000F0E7BE10B5044690F82C0040B9086800F04DFE216808420CBF012093
S3251004C380002010BDA068006800F044FF012804BF002010BD00280CBF0120022010BD10B552
S3251004C3A00446806994F82B100078012908BF10BD002808BF10BDE08C01F013FB014620465F
S3251004C3C0FFF7D2FF08B9032010BD012814BF0420012010BD2DE9F04406460F469246808CEE
S3251004C3E0F18C884216D84FEA0045280C01F0F9FA0468204600F00FFEB28CC2EB15410AFB43
S3251004C40001F39BB25B00D85305F58035F18CB1EB154FEAD22046BDE8F04400F068BD00F00F
S3251004C42001BF2DE9F0440546406990E80A006C8C0131A142A8BF0021027A0160A2423CBF11
S3251004C4400132027295F82C00002821D103EB4107A88CE98C884216D84FEA004A4FEA1A409B
S3251004C46001F0BFFA0668304600F0D5FDAA8CC2EB1A41614389B249000AF5803AC853EA8CA2
S3251004C480B2EB1A4FEAD23046BDE8F04400F02FBDA8680068BDE8F04400F0C4BE4069007AAF
S3251004C4A07047406990E8030001EB4000704710B50446808C01F095FA0168204600F05FFEED
S3251004C4C0A06890E80300BDE8104000F092BE2DE9F04404460F46808C01F083FA0546E08C70
S3251004C4E001F07FFA2E680568012F47D1824694F82C00A0B994F82B00012832D121682846BA
S3251004C50000F0E7FD294630463A4600F015FD204600F091FE2046BDE8F04400F095BEA08C33
S3251004C52001F05FFA0168204600F029FEA06890E8030000F05EFEA068017AFF2908D0BAF8AD
S3251004C5400E0000F120026068D2B2007A00F0F9FD94F82B00012804D1A0683946006800F060
S3251004C56065FE294630463A4600F0E6FC204600F062FE2046BDE8F04400F066BE3A4629460F
S3251004C580304600F0D9FC94F82C0078B994F82B00012818D12846002100F09BFD204600F027
S3251004C5A04AFE2046BDE8F04400F04EBEA0680568284600F028FE94F82B00012803D13946B2
S3251004C5C0284600F033FE204600F035FE2046BDE8F04400F039BE30B504464569002028726C
S3251004C5E003291FD194F8200078B9607F68B994F82B0080B920460021FFF769FF4FF0FF30E5
S3251004C6002860A1690020087030BD207F012804BFE07F002809D14FF0FF302860A1690020DD
S3251004C620087030BD022918BF30BDA1690120087030BDF0B505460E46174690F82B0010B9DF
S3251004C6402846FFF7EEFE69690C7A91E80600284602EB410139603146FFF7BDFF2046F0BD27
S3251004C6602DE9F04F86B005908A468A8CADF80E20887F91F82A90B1F8268091F821608DF89F
S3251004C6800B001146424500F2D480A8EB020201325008049000F08A804FEA014B00224FEAC1
S3251004C6A01B474745BDF80E000CBF01210021874208BF3246059807EB8703006800EB8305A5
S3251004C6C016462C6800238DE80A009DF80B304946204600F011FC9AF82D20298A01922A8914
S3251004C6E000929AF828308A09D2B211F03F01204600F06FFC6968204600F085FCAA896989BE
S3251004C700204600F082FC2046002100F010FC2046002100F0DEFC00227B1C99B241450CBF02
S3251004C72001210021BDF80E409BB2A34208BF32467B1C9BB2059803EB8303006800EB830558
S3251004C74016462C6800278DE882009DF80B304946204600F0D1FB9AF82D20298A01922A8958
S3251004C76000929AF828308A09D2B211F03F01204600F02FFC6968204600F045FCAA896989BD
S3251004C780204600F042FC2046394600F0D0FB2046394600F09EFC049F0BF5003B013F049723
S3251004C7A07FF47CAF4FEA1B41414542D84FF0000B0F045A463B0C4345BDF80E000CBF012110
S3251004C7C00021834208BF3246059803EB8303006800EB83052C6816468DE802089DF80B30EF
S3251004C7E04946204600F088FB9AF82D20298A01922A8900929AF828308A09D2B211F03F010B
S3251004C800204600F0E6FB6968204600F0FCFBAA896989204600F0F9FB2046594600F087FBC3
S3251004C8202046594607F5803700F053FCB8EB174FBFD2204600F05BFB06B0BDE8F08F40691E
S3251004C8400A464FF0FF3180E80600002101727047006901707047F0B50646017D00278F424E
S3251004C86028BFF0BD3D46280EC0EB8000716801EB001421463046FFF7F3FE61694FF0FF324F
S3251004C88081E8840020690F720770A06905F180750770317DB1EB156FE5D8F0BDF0B504467E
S3251004C8A0806900F048FC617D00258D4210D2280EA16801EB0016304600F0D0FB307A716898
S3251004C8C000F0F3FC05F18075617DB1EB156FEED8217D00278F4228BFF0BD3E46300EC0EB19
S3251004C8E08000616801EB001529462046FFF7B8FE69694FF0FF324F602B690A600F721F7054
S3251004C900A96906F180760F70227DB2EB166FE5D8F0BD2DE9F0440024264601F087F8824642
S3251004C9205FEA9A0755D0304601F075F80546FFF736FD60B1032863D195F8200008B9687FC1
S3251004C94028B1287F012804BFE87F002858D10136304601F060F80546FFF721FD60B1032808
S3251004C9604ED195F8200008B9687F28B1287F012804BFE87F002843D10136304601F04BF839
S3251004C9800546FFF70CFD60B1032839D195F8200008B9687F28B1287F012804BFE87F00289D
S3251004C9A02ED10136304601F036F80546FFF7F7FC60B1032824D195F8200008B9687F28B1FF
S3251004C9C0287F012804BFE87F002819D10136013FA9D11AF0030719D0304601F01CF805467D
S3251004C9E0FFF7DDFC78B103280AD195F8200008B9687F40B1287F012804BFE87F002802D0E5
S3251004CA000120BDE8F0840136013FE5D12046BDE8F08490F82C2012B9086800F068BA80680D
S3251004CA20006800F0FFBBF0B505460E461746808CE98C884288BFF0BD4FEA0044200C00F051
S3251004CA40D0FF006800F0E7FAAA8CC2EB144107FB01F39BB25B00985304F58034E98CB1EB35
S3251004CA60144FEBD2F0BDF0B50546406990E80A006C8C0131A142A8BF0021027A0160A2425E
S3251004CA803CBF0132027295F82C00002818BFF0BD03EB4107A88CE98C884288BFF0BD4FEA9F
S3251004CAA00046300C00F09DFF006800F0B4FAAA8CC2EB1641614389B2490006F58036C8531A
S3251004CAC0EA8CB2EB164FECD2F0BD4169408C097A81422CBF03200220704700B5808C00F005
S3251004CAE080FF006800F09AFA00BD30B50446007F012816D16069618C007A884204D294F8DA
S3251004CB0021000225B8B905E0E07F032578B194F8210080B9A08C00F064FF006800F07EFA78
S3251004CB2009E094F82000032528B9607F18B920460021FFF7CCFCA069057030BD70B504466E
S3251004CB40C08C00F04EFF054600F03CFC29462046FFF70AFC064694F82C0040B9286800F071
S3251004CB60C6F9012E09D1BDE8704000F02DBCA068006800F057FB012EF5D0204666B9FFF784
S3251004CB8072FF2046FFF7B1FF00F01EFC20690078012818BF70BD0CE00021FFF798FCA06926
S3251004CBA00421017000F010FC20690078012818BF70BDE068002808BF70BDBDE8704000479B
S3251004CBC02DE9F00C426990F82B305468002690F829B0012B04BF126804EB42045FEADB078F
S3251004CBE04FD00B460725428C724392B25200125B23F8102B428CA5F1060C0CFB02F292B2EE
S3251004CC005200125B23F80E2C428CA5F1050A0AFB02F292B25200125B23F80C2C428CA5F1C0
S3251004CC20040C0CFB02F292B25200125B23F80A2C428CA5F1030A0AFB02F292B25200125B0E
S3251004CC4023F8082CB0F822C0AA1E0CFB02F292B25200125B23F8062CB0F822C06A1E0CFBB5
S3251004CC6002F292B25200125B23F8042C428C08366A4392B25200125B23F8022C0835013FD6
S3251004CC80B1D11BF007030ED001EB4601428C013B06FB02F292B24FEA4202125B06F10106A7
S3251004CCA021F8022BF2D1BDE8F00C70472DE9F04406468A4690F82B00012809D11146304610
S3251004CCC0FFF77EFF51463046BDE8F044FFF783BC96F82C0001280DD111463046FFF770FFB9
S3251004CCE0B068006800F09EFA51463046BDE8F044FFF771BCF18CB08C1746884214D84FEA04
S3251004CD000045280C00F06DFE0468204600F083F9B28CC2EB15439BB25B0005F58035D85322
S3251004CD20F28CB2EB154FECD2204600F0E0F851463046BDE8F044FFF74EBC00F0D8B800B553
S3251004CD4000F04FFE006800F0D2F800BD30B500240546FFF724FBB0B1032815D1687F28B102
S3251004CD60287F012804BFE87F00280DD195F82B0048B928462146FFF7AAFBE88C00F031FEDD
S3251004CD80006800F0B4F80124204630BD00B5FFF706FB00280CBF0120002000BD40F6280101
S3251004CDA0C0F601010878704740F62801C0F601010870704700B500F00EFE8068006800F033
S3251004CDC08FF9013818BF012000BD70B500F003FE40F62801C0F601010546087800280CBFD8
S3251004CDE001260026697D00248C4228BF70BD200EA968030132465858591800F074F904F1B2
S3251004CE008074697DB1EB146FF1D870BD2DE9F04406460F469246F18C808C0124884212D8E4
S3251004CE204FEA0045280C00F0DCFD018AB94204D10068514600F04FF9002405F58035F18C7B
S3251004CE40B1EB154FEED22046BDE8F084F0B50746817D00268E4228BFF0BDFA68300E02EB72
S3251004CE60C0052A79002494420ED2200EC0EB8000296804F1807451F8200000F079F9297916
S3251004CE80B1EB146FF1D8B97D06F18076B1EB166FE3D8F0BD30B51D460468204600F0DBF906
S3251004CEA0012D18BF30BD20462946BDE8304000F0E9B9006800F0DBB9006800F0E6B970B5E2
S3251004CEC004460D46808CE18C884288BF70BD4FEA0046300C00F085FD0068294600F0E0F917
S3251004CEE006F58036E18CB1EB164FF2D270BD40F2077101610069704730B481B09DF80CC066
S3251004CF009DF81040002562F3020561F3061563F30925BCF1010F08BF45F4006525F0004225
S3251004CF2042EAC4720092026001B030BC7047012918BF00218163704710B4012A25D10A463B
S3251004CF40884244D8091A89090131CC0817D00123A2F5E071936342F8083C42F8483C42F8B7
S3251004CF60883CC1F8F830C1F8B8308B678B63A1F50071A2F50072013CECD1824227D3012187
S3251004CF809163403A8242FBD221E0024688421ED8081A80090130C30815D04FF000009063B1
S3251004CFA09067C2F8B800C2F8F800C2F83801C2F87801C2F8B801C2F8F80102F50072013B4B
S3251004CFC0EDD18A4203D8936340328A42FBD910BC704720B481B0BDF808C09DF80C501B02B7
S3251004CFE0009362F39F118DF800100099012D6CF31B4121F0004108BF41F0004100914160AB
S3251004D00001B020BC704781607047C2EA0141C160704700697047406A80B270470121C1635B
S3251004D0207047920242EA016101607047002361F30303012A08BF43F0004343607047002284
S3251004D04061F30302026170470021C0F88010C0F89010C0F88410C0F89410704782B0027B74
S3251004D0600168120642F480620A60437A002263F30302C37A012B08BF42F0004200924A6079
S3251004D080427B012A0ED1837A0022104663F3030001900861C1F88020C1F89020C1F88420C8
S3251004D0A0C1F8942002B0704782B00168002200920A60407B4A60012809D101920A61C1F8A8
S3251004D0C08020C1F89020C1F88420C1F8942002B0704781617047426861F31B4242607047AD
S3251004D0E00068C00F704710B482B0036844688DE81800012A12D14A7BA446012A23F06042F1
S3251004D1000CBF42F0604342F02043C97A009301290CBF0122002262F3DF7C04E06FF35F73E8
S3251004D120009324F0004CCDF804C00360C0F804C002B010BC704710B5044600F000FD0460E5
S3251004D14010BD70B581B004460E46154600F0F7FC00F1400252F824100091002E0CBF65F323
S3251004D160050165F30D21009142F8241001B070BD022101600121016100218161704781B039
S3251004D180826824315268037F5160002B40F2740314D14169C5F2004349689160418C13600A
S3251004D1A0090390F8290041F01001013821F07F4141EA00600090D060126118E04169C9F231
S3251004D1C00043496891601360438C90F829001021013823F47F2C4CEA003060F31F31D160F7
S3251004D1E0581E000640F4805000901061526101B0704700228260C16001210161016841F036
S3251004D200004101607047016821F0004101600121016170470269D20746BF406800F00F0054
S3251004D220002070470121016100697047012918BF00218161704790F82C10012918BF704722
S3251004D240806800680068704700B5808C00F0C9FB0068006800BD81B0002300938DF80010C7
S3251004D260009962F31441C0F8901001B07047D0F890300B70C3F3044010F0100F18BFE0308E
S3251004D28010707047C0F898107047D0F880300B70C3F3044010F0100F18BFE03010707047FC
S3251004D2A0426861F305024260704730B504460D4600F045FC203040F8245030BD30B504462B
S3251004D2C00D4602460B4600217B203CF080FA2B46224600217B20BDE830403CF078BA10B519
S3251004D2E0044600F01EFC01280DD00A23082200217B203CF06CFA0A23082200217B20BDE85D
S3251004D30010403CF064BA204600F076FB002160B9152308227B203CF05AFA15230822002158
S3251004D3207B20BDE810403CF052BAC26862B9182308227B203CF04BFA1823082200217B2034
S3251004D340BDE810403CF043BABDE81040FFF780BA10B5044600F0E5FB01280DD00A23072235
S3251004D36000217B203CF033FA0A23072200217B20BDE810403CF02BBA204600F03DFB0100D7
S3251004D3800CD1152307227B203CF021FA1523072200217B20BDE810403CF019BAC16861B9FF
S3251004D3A0182307227B203CF012FA1823072200217B20BDE810403CF00ABA0121BDE8104000
S3251004D3C0FFF746BAFDF700BAFDF7C6BA30B50C46151E05D102460B4600217B203CF0F7F96A
S3251004D3E02E2C18BF30BD691E18BF01210120BDE830405AF0EDB830B50546002400F091FB80
S3251004D40001280CD021460A2309227B203CF0DFF921460A2309227B203CF0D9F92CE02846BD
S3251004D42000F0EAFA05000CD11523092201467B203CF0CDF92146152309227B203CF0C7F994
S3251004D4401AE0FDF7C1F92846FEF7A9FF0446FDF783FA95F82C0001280ED10021042C02D060
S3251004D4605AF0B6F808E02E2309227B203CF0AFF9012108465AF0ACF8204630BD70B50024CD
S3251004D4800D000BD114230B227B203CF0A0F9214614230B227B203CF09AF954E00C600646B4
S3251004D4A000F03FFB01280CD021460A230B227B203CF08DF921460A230B227B203CF087F90D
S3251004D4C041E0304600F098FA06000CD115230B2201467B203CF07BF9214615230B227B20E8
S3251004D4E03CF075F92FE0FDF76FF93046FEF757FF01000ED1FDF730FA21460C230B227B20F0
S3251004D5003CF065F921460C230B227B203CF05FF919E004280ED1FDF71FFA21462D230B2290
S3251004D5207B203CF054F921462D230B227B203CF04EF908E0012804D02A463046FFF779F899
S3251004D5400446FDF709FA204670BD01000DD100B514230A227B203CF03AF914230A22002168
S3251004D5607B205DF804EB3CF032B9422101807B214180012101710D2141710021817170471C
S3251004D58010B5044600F0CDFA01280DD10D23002211467B203CF01BF90D23002211467B20DC
S3251004D5A0BDE810403CF013B9204600F0B1FA01280DD00E23002211467B203CF008F90E23BA
S3251004D5C0002211467B20BDE810403CF000B92046FFF73CFC2046FFF761F90020FFF7E4FB04
S3251004D5E02046BDE8104000F08DBA70B505460E46012400F096FA01280CD00A23042200219D
S3251004D6007B203CF0E4F80A23042200217B203CF0DEF84FE031000BD1142304227B203CF0DC
S3251004D620D6F83146142304227B203CF0D0F841E0284600F0E1F905000CD1152304220146BF
S3251004D6407B203CF0C4F81523042200217B203CF0BEF82FE0FDF7B8F82846FEF7A0FE01007C
S3251004D6600ED1FDF779F90C23042200217B203CF0AEF80C23042200217B203CF0A8F819E092
S3251004D68004280ED1FDF768F92D23042200217B203CF09DF82D23042200217B203CF097F830
S3251004D6A008E0012804D032462846FFF7FFFA0024FDF752F9204670BD70B505460E460124B7
S3251004D6C000F02FFA01280DD00A230C2200217B203CF07DF80A230C2200217B203CF077F8A7
S3251004D6E0204670BD31000CD114230C227B203CF06EF8314614230C227B203CF068F8204674
S3251004D70070BD284600F078F905000DD115230C2201467B203CF05BF815230C2200217B2027
S3251004D7203CF055F8204670BDFDF74EF82846FEF736FE78B1FDF710F90B230C2200217B20B4
S3251004D7403CF045F80B230C2200217B203CF03FF8204670BD31462846FFF771F8FDF7FCF80C
S3251004D760002070BD10B5044600F0DBF901280DD00A23022200217B203CF029F80A230222BE
S3251004D78000217B20BDE810403CF021B8204600F033F904000DD11523022201467B203CF0EB
S3251004D7A016F81523022200217B20BDE810403CF00EB894F8200068B11723022200217B2063
S3251004D7C03CF005F81723022200217B20BDE810403BF0FDBF6069416861B9192302227B2089
S3251004D7E03BF0F5FF1923022200217B20BDE810403BF0EDBFFCF7E8FF2046FFF7A7FA70B908
S3251004D800FDF7AAF80B23022200217B203BF0DFFF0B23022200217B203BF0D9FF10BD2046FD
S3251004D8200121FEF754FE94F8210010B92046FFF754F9A0690121017061694FF0FF3008600A
S3251004D84000200872FDF788F810BD10B5044600F068F901280DD00A23032200217B203BF034
S3251004D860B6FF0A23032200217B20BDE810403BF0AEBF204600F0C0F804000DD115230322F1
S3251004D88001467B203BF0A3FF1523032200217B20BDE810403BF09BBF94F8200068B117232D
S3251004D8A0032200217B203BF092FF1723032200217B20BDE810403BF08ABFFCF785FF204650
S3251004D8C0FEF76DFD78B9FDF747F80C23032200217B203BF07CFF0C23032200217B20BDE800
S3251004D8E010403BF074BF20460021FEF7B1FF20460021FEF7ECFDE08CFFF721FAA069002128
S3251004D9000170FDF729F810BD70B504460E46154600F007F901280DD001240A2330220021C1
S3251004D9207B203BF054FF0A23302200217B203BF04EFF4EE0204600F05FF804000DD101241F
S3251004D9401523302201467B203BF041FF1523302200217B203BF03BFF3BE0B5F5805F0DD3A7
S3251004D96001242C23302200217B203BF030FF2C23302200217B203BF02AFF2AE0FCF724FFE0
S3251004D9802046FEF70CFD78B1FCF7E6FF01240B23302200217B203BF01AFF0B2330220021C2
S3251004D9A07B203BF014FF14E02A4631462046FFF72DFA0446FCF7D0FF5CB12A23302200213D
S3251004D9C07B203BF004FF2A23302200217B203BF0FEFE204670BD40F62C01C0F601010868C4
S3251004D9E0704740F62C03C0F60103196800EB8000096801EB8000704740F62C03C0F6010398
S3251004DA0019680A7D90423DBFC0EB8002486800EB02100020704740F62C03C0F601031968C5
S3251004DA20C0EB8000496801EB0010704740F62C01C0F601010868007D7047F0B4014640F65D
S3251004DA402C03C0F601031F6800207E7D0246F5083CD0BC6804EB021393F808C0614530D0AF
S3251004DA60013204EB021393F808C0614529D0013204EB021393F808C0614522D0013204EB1F
S3251004DA80021393F808C061451BD0013204EB021393F808C0614514D0013204EB021393F89D
S3251004DAA008C061450DD0013204EB021393F808C0614506D0013204EB021393F808C06145CB
S3251004DAC001D1184613E00132013DC3D116F007030DD0BE6806EB021494F808C0614502D11D
S3251004DAE006EB021003E010340132013BF4D1F0BC704740F62C02C0F601021168896801EBD8
S3251004DB000010704740F62C01C0F601010860704744F6B462C1F2070290420CBF0120002000
S3251004DB20704740F62C03C0F60103196844F6B462C1F2070291420CBF01200020704740F2A0
S3251004DB400000C4F29F007047B0FA80F0704770B506460D4602F041FC2A7A0021FF2A06D116
S3251004DB60304600F0D5F902F03AFC012070BD501C2872304600F0CCF902F031FC002070BD44
S3251004DB8070B506460D4602F028FC2A7A30464AB9002A0CBF0121002100F0BAF902F01FFC8C
S3251004DBA0012070BD013A2A7212060CBF0121002100F0AEF902F013FC002070BD00F04BBB25
S3251004DBC010B5497A0124013913D313D0022909D024BF002010BD00F05BF9022814BF204600
S3251004DBE0022010BD00F054F9032814BF2046032010BD0024204610BD807A704770B5054613
S3251004DC000E46002402F0E9FB284600F041F901280BD1284600F005FB0446707A022804D16E
S3251004DC2001207072284600F02FFA02F0D8FB204670BD70B505460E46002402F0CEFB2846D7
S3251004DC4000F026F901280DD1284600F0EFFA0446707A022818BF032804D1012070722846A7
S3251004DC6000F012FA02F0BBFB204670BD00F021B9F0B5174600240E46054600F0EAFD28B114
S3251004DC803A463146284600F0E6FF04462046F0BD01F0BEBA70B504460D4602F09EFB2946AE
S3251004DCA0204600F0D6FD60B101266E72204600F0EBF9AE7202F093FB2046BDE8704002F082
S3251004DCC089BBBDE8704002F08ABB0160002141607047F0B4034600204FEA820CA2EB0C0211
S3251004DCE002EB4C12D6008A7991F805C062440132B1F802C004460CFB02F20546B6FBF2F22F
S3251004DD00CF8992B29FB18C7A91F809C0644401347C43B6FBF4F491F80CC0A4B2BCF1FF0F0A
S3251004DD2004D00225B2F5007F04D90AE02025B2F5007F06D8A54206D291F807C0BCF1010FCC
S3251004DD4001D1012002E019609A80DC80F0BC704730B50C460021A172217A00290CBF012166
S3251004DD600021054600F0D4F82246216828460123BDE8304000F0D2B870B50C46054601F09C
S3251004DD8095FA284601F046F900262676207AE67200280CBF01210021284600F0B9F82246DB
S3251004DDA0216828463346BDE8704000F0B7B830B50D46002400F062F80128E87A08BF012408
S3251004DDC0012803D144F010040020E872204630BD10B50C460021217600F056F90120607216
S3251004DDE010BD47F63871C1F20701085C704747F63071C1F20701085C704747F64871C1F223
S3251004DE000701085C704720B582B09DF810C09DF814E08DE8005001F055FA02B020BD01F04B
S3251004DE2083BB10B5044600F02FF92046BDE8104000F039B910B5044601F001FA2046BDE820
S3251004DE40104001F0A5B801F092BB90F85110012900F00882704710B504460122002100F045
S3251004DE600FFA204601221146BDE8104000F008BA012100F00CBA002100F009BA00B590F80F
S3251004DE805010406A00F095FA003818BF012000BD00B590F85010406A00F0D8FA10F0010FD9
S3251004DEA005D110F0200F0CBF0220032000BD012000BDF0B505460C46002602F08EFA95F829
S3251004DEC05010686A00F0C2FA10F0010F0FD1617A012913D110F0200F0DD1022767720C4610
S3251004DEE002F07DFA3946284602F096F80EE0344602F075FA0AE00E4603276772012402F011
S3251004DF006EFA1EB13946284602F086F82046F0BD0A4690F85010406A00F07ABB2DE9F04DE6
S3251004DF2085B004460D4692469B46466A90F8507090884FF00008002808BF2888297901396A
S3251004DF40C9B20191A9790139C9B2009169794B1EDBB2421E92B23946304600F0B1FA2A7B81
S3251004DF60FF2A05D04FF001083946304600F042FCBAF80600002808BF288ACDF80880297AD5
S3251004DF800139C9B20191A97A0139C9B20091697A4B1EDBB2421E92B23946304600F0E0FA7B
S3251004DFA039463046002200F068FB39463046002200F0D5FB39463046002200F0D4FB3946B1
S3251004DFC030464FF0FF3200F0AEF9A27D607D02EB8202C100401A00EB810000EB011000EBCF
S3251004DFE0014040EA822040F40011207D41EA40623946304600F004FBE07D40F299021BFB27
S3251004E00000F0C0F208020101401800EBC130ABEBCB0101EB4B1101EBCB1101EBCB41511A2F
S3251004E020627D5143084341F20041C0F2202108433946C243304600F0E7FA5A463946EB7908
S3251004E04030463BB900F004FB04A8032102F0C9F9064607E0EB7A00F0DFFA04A8032102F0A6
S3251004E060C0F9064651462046FFF723FF0546049803224FF4FA6102F060F845EA00013143D4
S3251004E080F0D005B0BDE8F08D10B5044690F85010406A002200F0B4FA94F85010606ABDE813
S3251004E0A0104000F08ABAF0B583B0074690F85060456A31462846002200F045F9314628469C
S3251004E0C0002200F045F931462846002200F080FB31462846002200F06FFB314628460022FC
S3251004E0E000F083FB31462846002200F00AFA31462846002200F057FA0024009431462846B8
S3251004E1002346224600F0CAFA31462846224600F0B8FA314628462346224600F01EF931463D
S3251004E12028462346012200F018F9314628462346224600F002FA314628462346224600F082
S3251004E140FFFA314628462346224600F0C1FA314628462346012200F0BBFA97F8280058B175
S3251004E16031462846220E00F0E2F804F1807497F82810B1EB146FF3D8032738468DE881006E
S3251004E180314628460A23002200F09AF931462846002200F02FFB0024394638468DE81300E4
S3251004E1A0314628460A23224600F0DAF931462846224600F062FAA4F580323146284600F04F
S3251004E1C0CEFA31462846224600F0CDFA314628464FF0FF3200F0A7F831462846224600F038
S3251004E1E013FA31462846224600F012FA314628462346224600F00EFB31462846234601228F
S3251004E20000F008FB3146284600F0B2F8284600F049F9012803D12846214600F00AFB03B058
S3251004E220F0BD90F85010406A00F02CB930B5054690F85010406A002400F0B7F810F4001F08
S3251004E24007D095F85010686A4FF4001200F06BF80124204630BD90F85010406A4FF00072AB
S3251004E26000F061B810B50446406A00F01BF9002818BF10BD606A0121BDE8104000F0D9BA8E
S3251004E28013460A4690F85010406A00F0C3BAF0B506460F4690F85050446A2946204600F0DB
S3251004E2A007F90246707DD0EB8000012F0EBF42EAC062C00682432946204600F0A1F9294630
S3251004E2C0204600F0F9F8C243707D2946D0EB8000012F07D142EAC062D2432046BDE8F0409B
S3251004E2E000F092B9C0068243D2432046BDE8F04000F08AB940F63001C0F601010878704765
S3251004E3004221018050214180704740F63001C0F6010101200870704740F63001C0F6010188
S3251004E32000200870704700EB41200265704700EB4120012101FA02F3C0F89830203A914001
S3251004E340C0F89C10704700EB4120C0F8F020704700EB4120C0F8C020704722B900EB4120FB
S3251004E360C0F8A030704700EB4120C0F8B030704781B047F68C73C1F207031A6800EB4120B1
S3251004E38042F00102826101B0704700EB4120D0F8F400C0B2704781B000EB4120D0F8F40079
S3251004E3A000909DF8010001B0704700EB4120006D704781B000EB4120006C009010F4004F79
S3251004E3C002D1C0B27F2801D9012000E0002001B0704710B500EB4124D4F89C00FFF7B4FBB2
S3251004E3E0C0B220280BD3D4F89800FFF7ADFBC0B220282EBFFF20C0F11F00C0B210BDC0F1E3
S3251004E4003F00C0B210BD82B02AB900EB4120D0F8A400009004E000EB4120D0F8B4000190CA
S3251004E420C0B202B0704782B03AB900EB4120D0F8A40000909DF8010006E000EB4120D0F8EA
S3251004E440B40001909DF8050002B0704700EB41208069704700EB4121D1F8DC00D1F8D810CB
S3251004E4608843D04010F00100704700EB4120D0F8C400C0F30440704700EB4120406C10F071
S3251004E4800700704700EB4120406CC0F3C010704700EB4120D0F8A801704700EB4120D0F8EA
S3251004E4A0B801704700F584510868C0F30040704700EB4120406D704700EB4120806D70474E
S3251004E4C02DE9600181B09DF810C09DF8146047F69078C1F2070822F47E42D8F8005042EAE3
S3251004E4E046220095ADF802208DF80130009A6CF3060200EB41200092C26101B0BDE86001CF
S3251004E500704781B000EB4120D0F8F81000918DF800200099C0F8F81001B0704781B08DF830
S3251004E5200220ADF8003001228DF8032000EB41200099C0F8F01001B0704781B000EB41207D
S3251004E540D0F888100091ADF800208DF802300099C0F888106FF06041C0F8901001B070478B
S3251004E5602DE9E00181B09DF814C09DF818509DF81C6047F69478C1F20708D8F8007062F342
S3251004E580144700978DF801306CF31F158DF80050009A66F3D75200EB41200092C26001B084
S3251004E5A0BDE8E001704700EB4120C0F88020704700EB41208069C0B2704782B000EB4120CD
S3251004E5C08169009101218DF8001000998161826940F20511019201ABD2B2012A07D004E098
S3251004E5E0826901921A78012A01D00139F8D28169009103218DF800100099816102B07047D9
S3251004E60000EB41204265704700EB41208265704700EB4120C265704710B481B047F6987CDC
S3251004E620C1F2070CDCF8004044F0030462F345145A0042F0010262F3092400EB412000940C
S3251004E6408461816921F00301816101B010BC704781B047F69C7CC1F2070CDCF8003043F023
S3251004E660030362F3451300EB412000938361816921F00301816101B0704700EB41204261D2
S3251004E680704781B000EB4120D0F8AC100091ADF800200099C0F8AC1001B070472DE91001B6
S3251004E6A081B09DF80CC047F6A078C1F20708D8F80040009462F3020463F3061400EB4120DC
S3251004E6C06CF30A24C0F8BC4001B0BDE81001704782B000EB412042B9D0F8A81000918DF8B2
S3251004E6E000300099C0F8A81007E0D0F8B81001918DF804300199C0F8B81002B0704710B4BE
S3251004E70082B0BDF80C4000EB412043F4807152B9D0F8A0200092ADF80040ADF802100099DE
S3251004E720C0F8A01009E0D0F8B0200192ADF80440ADF806100199C0F8B01002B010BC704758
S3251004E74081B000EB4120D0F884100091ADF800208DF802300099C0F8841001B0704700EB81
S3251004E76041208262704700EB41200262704700EB412001219140C0F8D01070474DF8048DB8
S3251004E78081B0BDF808C047F6A478C1F20708D8F8008042F0400262F31E68CDF800808DF82D
S3251004E7A00230ADF800C000EB41200099C0F8C01001B05DF8048B704700EB4120C0F8E420E7
S3251004E7C0704700EB412001219140C0F8D410704781B000EB4120D0F8C81000918DF8002083
S3251004E7E00099C0F8C81001B0704700EB4120C0F8E020704781B047F6A87CC1F2070CDCF887
S3251004E800003000938DF8012000EB41200099816401B0704781B000EB4121D1F88001002A51
