S00F0000655F7267335F70655F7200001B
S3251004800002480349016000F0B7BF000008ED00E000840410FFFFFFFFFFFFFFFFFFFFFFFF88
S32510048020FFFFFFFFFFFFFFFFFFFFFFFFFFFFFFFFFFFFFFFFFFFFFFFFFFFFFFFFFFFFFFFF46
S32510048040FFFFFFFFFFFFFFFFFFFFFFFFFFFFFFFFFFFFFFFFFFFFFFFFFFFFFFFFFFFFFFFF26
S32510048060FFFFFFFFFFFFFFFFFFFFFFFFFFFFFFFFFFFFFFFFFFFFFFFFFFFFFFFFFFFFFFFF06
S32510048080FFFFFFFFFFFFFFFFFFFFFFFFFFFFFFFFFFFFFFFFFFFFFFFFFFFFFFFFFFFFFFFFE6
S325100480A0FFFFFFFFFFFFFFFFFFFFFFFFFFFFFFFFFFFFFFFFFFFFFFFFFFFFFFFFFFFFFFFFC6
S325100480C0FFFFFFFFFFFFFFFFFFFFFFFFFFFFFFFFFFFFFFFFFFFFFFFFFFFFFFFFFFFFFFFFA6
S325100480E0FFFFFFFFFFFFFFFFFFFFFFFFFFFFFFFFFFFFFFFFFFFFFFFFFFFFFFFFFFFFFFFF86
S32510048100FFFFFFFFFFFFFFFFFFFFFFFFFFFFFFFFFFFFFFFFFFFFFFFFFFFFFFFFFFFFFFFF65
S32510048120FFFFFFFFFFFFFFFFFFFFFFFFFFFFFFFFFFFFFFFFFFFFFFFFFFFFFFFFFFFFFFFF45
S32510048140FFFFFFFFFFFFFFFFFFFFFFFFFFFFFFFFFFFFFFFFFFFFFFFFFFFFFFFFFFFFFFFF25
S32510048160FFFFFFFFFFFFFFFFFFFFFFFFFFFFFFFFFFFFFFFFFFFFFFFFFFFFFFFFFFFFFFFF05
S32510048180FFFFFFFFFFFFFFFFFFFFFFFFFFFFFFFFFFFFFFFFFFFFFFFFFFFFFFFFFFFFFFFFE5
S325100481A0FFFFFFFFFFFFFFFFFFFFFFFFFFFFFFFFFFFFFFFFFFFFFFFFFFFFFFFFFFFFFFFFC5
S325100481C0FFFFFFFFFFFFFFFFFFFFFFFFFFFFFFFFFFFFFFFFFFFFFFFFFFFFFFFFFFFFFFFFA5
S325100481E0FFFFFFFFFFFFFFFFFFFFFFFFFFFFFFFFFFFFFFFFFFFFFFFFFFFFFFFFFFFFFFFF85
S32510048200FFFFFFFFFFFFFFFFFFFFFFFFFFFFFFFFFFFFFFFFFFFFFFFFFFFFFFFFFFFFFFFF64
S32510048220FFFFFFFFFFFFFFFFFFFFFFFFFFFFFFFFFFFFFFFFFFFFFFFFFFFFFFFFFFFFFFFF44
S32510048240FFFFFFFFFFFFFFFFFFFFFFFFFFFFFFFFFFFFFFFFFFFFFFFFFFFFFFFFFFFFFFFF24
S32510048260FFFFFFFFFFFFFFFFFFFFFFFFFFFFFFFFFFFFFFFFFFFFFFFFFFFFFFFFFFFFFFFF04
S32510048280FFFFFFFFFFFFFFFFFFFFFFFFFFFFFFFFFFFFFFFFFFFFFFFFFFFFFFFFFFFFFFFFE4
S325100482A0FFFFFFFFFFFFFFFFFFFFFFFFFFFFFFFFFFFFFFFFFFFFFFFFFFFFFFFFFFFFFFFFC4
S325100482C0FFFFFFFFFFFFFFFFFFFFFFFFFFFFFFFFFFFFFFFFFFFFFFFFFFFFFFFFFFFFFFFFA4
S325100482E0FFFFFFFFFFFFFFFFFFFFFFFFFFFFFFFFFFFFFFFFFFFFFFFFFFFFFFFFFFFFFFFF84
S32510048300FFFFFFFFFFFFFFFFFFFFFFFFFFFFFFFFFFFFFFFFFFFFFFFFFFFFFFFFFFFFFFFF63
S32510048320FFFFFFFFFFFFFFFFFFFFFFFFFFFFFFFFFFFFFFFFFFFFFFFFFFFFFFFFFFFFFFFF43
S32510048340FFFFFFFFFFFFFFFFFFFFFFFFFFFFFFFFFFFFFFFFFFFFFFFFFFFFFFFFFFFFFFFF23
S32510048360FFFFFFFFFFFFFFFFFFFFFFFFFFFFFFFFFFFFFFFFFFFFFFFFFFFFFFFFFFFFFFFF03
S32510048380FFFFFFFFFFFFFFFFFFFFFFFFFFFFFFFFFFFFFFFFFFFFFFFFFFFFFFFFFFFFFFFFE3
S325100483A0FFFFFFFFFFFFFFFFFFFFFFFFFFFFFFFFFFFFFFFFFFFFFFFFFFFFFFFFFFFFFFFFC3
S325100483C0FFFFFFFFFFFFFFFFFFFFFFFFFFFFFFFFFFFFFFFFFFFFFFFFFFFFFFFFFFFFFFFFA3
S325100483E0FFFFFFFFFFFFFFFFFFFFFFFFFFFFFFFFFFFFFFFFFFFFFFFFFFFFFFFFFFFFFFFF83
S3251004840000A4000800800410854A0810CD490810CD490810CD490810CD490810314A0810D0
S32510048420314A0810314A0810314A081095480810314A0810314A0810314A081091460810CC
S3251004844091460810914608109146081091460810914608109146081091460810914608108A
S3251004846091460810914608109146081091460810914608109146081091460810914608106A
S32510048480314A0810314A0810314A0810314A0810314A0810314A0810314A0810314A08102A
S325100484A0314A0810314A0810314A0810314A0810314A0810314A0810314A0810314A08100A
S325100484C0314A0810314A0810314A0810314A0810314A0810314A0810314A0810314A0810EA
S325100484E0314A0810314A0810314A0810314A0810314A0810314A0810314A0810314A0810CA
S32510048500314A0810314A0810314A0810314A0810314A0810314A0810314A0810314A0810A9
S32510048520314A0810314A0810314A0810314A0810314A0810314A0810314A0810314A081089
S32510048540314A0810314A0810314A0810314A0810314A0810314A0810314A0810314A081069
S32510048560314A0810314A0810314A0810314A0810314A0810314A0810314A0810314A081049
S32510048580314A0810314A0810314A0810314A0810314A0810314A0810314A0810314A081029
S325100485A0314A0810314A0810314A0810314A0810314A0810314A0810314A0810314A081009
S325100485C0314A0810314A0810314A0810314A0810314A0810314A0810314A0810314A0810E9
S325100485E0314A0810314A0810314A0810314A0810314A0810314A0810314A0810314A0810C9
S32510048600314A0810314A0810314A0810314A0810314A0810314A0810314A0810314A0810A8
S32510048620314A0810314A0810314A0810314A0810314A0810314A0810314A0810314A081088
S32510048640314A0810314A0810314A0810314A0810314A0810314A0810314A0810314A081068
S32510048660314A0810314A0810314A0810314A0810314A0810314A0810314A0810314A081048
S32510048680314A0810314A0810314A0810314A0810314A0810314A0810314A0810314A081028
S325100486A0314A0810314A0810314A0810314A0810314A0810314A0810314A0810314A081008
S325100486C0314A0810314A0810314A0810314A0810314A0810314A0810314A0810314A0810E8
S325100486E0314A0810314A0810314A0810314A0810314A0810314A0810314A0810314A0810C8
S32510048700314A0810314A0810314A0810314A0810314A0810314A0810314A0810314A0810A7
S32510048720314A0810314A0810314A0810314A0810314A0810314A0810314A0810314A081087
S32510048740314A0810314A0810314A0810314A0810314A0810314A0810314A0810314A081067
S32510048760314A0810314A0810314A0810314A0810314A0810314A0810314A0810314A081047
S32510048780314A0810314A0810314A0810314A0810314A0810314A0810314A0810314A081027
S325100487A0314A0810314A0810314A0810314A0810314A0810314A0810314A0810314A081007
S325100487C0314A0810314A0810314A0810314A0810314A0810314A0810314A0810314A0810E7
S325100487E0314A0810314A0810314A0810314A0810314A0810314A0810314A0810FFFFFFFF5E
S3251004880002000001000000FF17042020FFFFFFFFE3FD0200008004100F880410008D041023
S32510048820FFFF2010FFFFFFFFFFFFFFFFFFFFFFFFFFFFFFFFFFFFFFFFFFFFFFFFFFFFFFFF0C
S32510048840FFFFFFFFFFFFFFFFFFFFFFFFFFFFFFFFFFFFFFFFFFFFFFFFFFFFFFFFFFFFFFFF1E
S32510048860FFFFFFFFFFFFFFFFFFFFFFFFFFFFFFFFFFFFFFFFFFFFFFFFFFFFFFFFFFFFFFFFFE
S32510048880FFFFFFFFFFFFFFFFFFFFFFFFFFFFFFFFFFFFFFFFFFFFFFFFFFFFFFFFFFFFFFFFDE
S325100488A0FFFFFFFFFFFFFFFFFFFFFFFFFFFFFFFFFFFFFFFFFFFFFFFFFFFFFFFFFFFFFFFFBE
S325100488C0FFFFFFFFFFFFFFFFFFFFFFFFFFFFFFFFFFFFFFFFFFFFFFFFFFFFFFFFFFFFFFFF9E
S325100488E0FFFFFFFFFFFFFFFFFFFFFFFFFFFFFFFFFFFFFFFFFFFFFFFFFFFFFFFFFFFFFFFF7E
S32510048C000000020000800410FF880410008C0410FFFF2010FFFFFFFFFFFFFFFFFFFFFFFF47
S32510048C20FFFFFFFFFFFFFFFFFFFFFFFFFFFFFFFFFFFFFFFFFFFFFFFFFFFFFFFFFFFFFFFF3A
S32510048C40FFFFFFFFFFFFFFFFFFFFFFFFFFFFFFFFFFFFFFFFFFFFFFFFFFFFFFFFFFFFFFFF1A
S32510048C60FFFFFFFFFFFFFFFFFFFFFFFFFFFFFFFFFFFFFFFFFFFFFFFFFFFFFFFFFFFFFFFFFA
S32510048C80FFFFFFFFFFFFFFFFFFFFFFFFFFFFFFFFFFFFFFFFFFFFFFFFFFFFFFFFFFFFFFFFDA
S32510048CA0FFFFFFFFFFFFFFFFFFFFFFFFFFFFFFFFFFFFFFFFFFFFFFFFFFFFFFFFFFFFFFFFBA
S32510048CC0FFFFFFFFFFFFFFFFFFFFFFFFFFFFFFFFFFFFFFFFFFFFFFFFFFFFFFFFFFFFFFFF9A
S32510048CE0FFFFFFFFFFFFFFFFFFFFFFFFFFFFFFFFFFFFFFFFFFFFFFFFFFFFFFFFFFFFFFFF7A
S32510048D00FFFFFFFFFFFFFFFFFFFFFFFFFFFFFFFFFFFFFFFFFFFFFFFFFFFFFFFFFFFFFFFF59
S32510048D2030B40346104600248C420FD24AF67475C1F20D0513F8012B42401206D20D525B78
S32510048D4082EA102080B201348C42F3D330BC70472DE9F00C01004FF0010000F0A1800C68E7
S32510048D60002C00F09D8065884FF6FF718D4218BF002D00F0958034F8091C0023AB4280F055
S32510048D808B8004EBC3067268B668B2F1FF3F1CBF002A964203D822888A427FD080E0B61A70
S32510048DA006F1010C5FEADC075DD04AF67476C1F20D0632F808AB8AEA010B4FEA0B6B4FEA07
S32510048DC0DB5B3BF806B08BEA212181EA1A2A4FEA0A6A4FEADA5A3AF806B032F806AC8BEAA1
S32510048DE021218AEA010B4FEA0B6B4FEADB5B3BF806B08BEA212181EA1A2A4FEA0A6A4FEA44
S32510048E00DA5A3AF806B032F804AC8BEA21218AEA010B4FEA0B6B4FEADB5B3BF806B08BEA8F
S32510048E20212181EA1A2A4FEA0A6A4FEADA5A3AF806B032F802AC8BEA21218AEA010B4FEADD
S32510048E400B6B4FEADB5B3BF806B08BEA212181EA1A2A4FEA0A6A4FEADA5A3AF806A08AEA5E
S32510048E602121013FA5D11CF0070611D04AF67477C1F20D0712F801CB8CEA010C4FEA0C6CEA
S32510048E804FEADC5C3CF807C08CEA2121013EF1D10133AB42FFF475AF22888A4208BF0020FE
S32510048EA0BDE8F00C70472DE9F0444DF6D446C0F6000600214FF4887057F0DAF84AF62020E8
S32510048EC0C1F20D000024057B3470AC420FD22746D0F808A0380E0AEBC000FFF739FF08B1E2
S32510048EE00124347007F18077B5EB176FF2D80CB90220307000F01FF901214FF48870BDE81F
S32510048F00F04457F0B5B8FFF7CEBFF0B54DF6D446C0F6000602204AF62021C1F20D0130700A
S32510048F200C790025A54228BFF0BD0F68280E07EBC000FFF70DFF08B10120307005F180752C
S32510048F40B4EB156FF2D8F0BD00B55CF07DFB002814BF0420032000BD4DF6D441C0F60001D6
S32510048F600878022808BF7047003818BF0120704701808FE218FF2FE106460F46904612F036
S32510048F80D7FD4FF014004FF0010153F0F1FB48F69F75C1F20405A5F101057A46A2EB05051F
S32510048FA09146002803D131463A4643460AE04AF20040C0F6000085464FF000014FF00002DC
S32510048FC04FF0000340F20200012817D308D04EF68850CEF20000046844F4700404600DE0D1
S32510048FE011EE500F40F4A00001EE500FBFF36F8FF8EE100A40F08040E8EE100A4FF0000404
S3251004900048F20040C1F20400814506DB40F20000C1F22100814500DC2C4644F68830C1F29F
S325100490200800A0EB040000EB05004FF000044FF000054FF000063AF0BDFF00BFFDE700003A
S325100490408CF002B88CF02AB810B540F22434C0F60104A17811B9282083F016FD61780029A5
S3251004906018BF10BD2720BDE8104083F00DBD58B940F2D831C0F6010191F86600012818BFC6
S32510049080704700205BF088BF022818BF704740F2D831C0F6010191F86600012818BF7047FC
S325100490A002205BF079BF022808BF002010F06383012818BF7047002010F061BB00B540F220
S325100490C0D831C0F6010191F86600012804BF00205BF062FF00205BF043FF40F22431C0F624
S325100490E001010020087000BD00B5002010F043FB40F2D831C0F6010191F86600012804BF1E
S3251004910002205BF049FF02205BF02AFF40F22431C0F601010020087000BD40F23231C0F60B
S32510049120010101200870704740F23231C0F6010102200870704770470120704740F23433FD
S32510049140C0F6010300205863986103F8100B43F80C0C03F8040CD862D86198619862D86055
S3251004916083F8300048F20001C1F20401196140F6FF028A181A6201F5406183E803004FF61E
S32510049180FF71C1F220015961042340F27831C0F6010140F29832C0F60102907001F8080B3C
S325100491A022F8080B21F8070C02F8030C01F8050C22F8050C21F8040C01F8020C22F8020CA6
S325100491C001F8010C013BE8D1704730B540F23434C0F601042078012805D16068B0F1FF3F4B
S325100491E001D201306060207B012805D12069B0F1FF3F01D201302061207A062888BF30BD0E
S325100492000FF20401D1E800F0041B38C3679EB60048F20000C1F20400206248F6FF00C1F24D
S325100492200400206348F60040C1F2040060614FF6FF70C1F2200060620120207230BD40F27C
S32510049240D831C0F6010191F83C00012818BF30BDFFF774FF39F0D7FD002818BF30BD206AA5
S32510049260216B091AE0630131012020700020606061630220207230BD40F2D831C0F60101C7
S3251004928091F83C0000287ED0616BE06B39F0C6FDA8B96069616A091A8A0AC1F30901A16308
S325100492A04FF48061A161A2620121E062E161002020612070606021730420207230BD6068D4
S325100492C048F6A041884238BF30BD0020207060600120207230BD40F2D831C0F6010191F81B
S325100492E03C0000284FD0A169E06A39F097FDE8B9E169A26A914204D920732061052020724E
S3251004930030BD606900F580606061E0620131E161914205D9A06B0130A0610420207230BDA0
S325100493204FF48060A0610420207230BD206948F6A041884238BF30BD0020207320610120A1
S32510049340207230BD40F29835C0F60105284639F072FD002818BF30BD012084F8400029467B
S3251004936040F27830C0F6010020223AF00EFE0620207230BD40F2D831C0F6010191F83C006D
S32510049380002818BF30BDFFF7D9FE0020207230BD10F00BBB40F2CC30C0F601008178C17086
S325100493A00121027881704270017070472DE9F04C00274FF0010A40F2B83B40F2BC36C0F66A
S325100493C00106C0F6010B306840F25845C0F6010510F0010F0DD020F0010195F84E0031601C
S325100493E085F84F0085F84E70084611F0020F0FD024E0DBF8000010F0010F19D095F84E0062
S3251004940085F84F00306885F84EA010F0020F15D1DBF8000010F0020F2DD095F8500085F831
S325100494205100306885F850A010F0040F13D028E028786870306810F0020FE9D020F00201D1
S3251004944095F85000316085F8510085F85070084611F0040F15D1DBF8000010F0040F36D045
S3251004946095F8520085F85300306885F852A010F0080F13D033E0A878E870306810F0040FEC
S32510049480E9D020F0040195F85200316085F8530085F85270084611F0080F20D1DBF800003B
S325100494A040F2D834C0F6010410F0080F3DD0B5F85400A5F85600608EA5F854A0A08607F0E5
S325100494C052FE6086306810F0100F1ED03AE028796871A879E871306810F0080FDED020F01C
S325100494E008003060B5F8540040F2D834C0F60104A5F85600608EA5F85470A08607F033FE30
S325100495006086306810F0100F1CD1DBF8000010F0100F34D095F8580085F85900306885F8E1
S3251004952058A010F0200F1AD02FE028896881A889E881608EA08607F016FE6086306810F020
S32510049540100FE2D020F0100195F85800316085F8590085F85870084611F0200F15D1DBF837
S32510049560000010F0200F2DD095F85A0085F85B00306885F85AA010F0400F13D028E0287CF9
S325100495806874306810F0200FE9D020F0200195F85A00316085F85B0085F85A70084611F03E
S325100495A0400F15D1DBF8000010F0400F2DD095F85C0085F85D00306885F85CA010F0800FDA
S325100495C013D028E0A87CE874306810F0400FE9D020F0400195F85C00316085F85D0085F844
S325100495E05C70084611F0800F15D1DBF8000010F0800F2DD095F85E0085F85F00306885F886
S325100496005EA010F4807F13D028E0287D6875306810F0800FE9D020F0800195F85E003160D5
S3251004962085F85F0085F85E70084611F4807F15D1DBF8000010F4807F2DD095F8600085F874
S325100496406100306885F860A010F4007F13D028E0A87DE875306810F4807FE9D020F4807131
S3251004966095F86000316085F8610085F86070084611F4007F15D1DBF8000010F4007F2DD01C
S3251004968095F8620085F86300306885F862A010F4806F13D028E0287E6876306810F4007F4D
S325100496A0E9D020F4007195F86200316085F8630085F86270084611F4806F15D1DBF80000A8
S325100496C010F4806F2DD095F8640085F86500306885F864A010F4006F13D028E0A87EE876B2
S325100496E0306810F4806FE9D020F4806195F86400316085F8650085F86470084611F4006FA0
S3251004970015D1DBF8000010F4006F31D095F8660085F86700306885F866A010F4805F13D04A
S325100497202CE0287F6877306810F4006FE9D020F4006195F86600316085F8670085F8667089
S32510049740084611F4805F19D1DBF8000010F4805F38D095F8680085F8690040F2C430C0F65E
S325100497600100016885F868A011F0400F17D035E0A87FE877306810F4805FE5D020F48050FA
S32510049780306095F8680085F8690040F2C430C0F60100016885F8687011F0400F1ED140F238
S325100497A0C032C0F60102116811F0400F33D095F86A1085F86B10316885F86AA011F4005F95
S325100497C019D030E095F8200085F8210040F2C430C0F60100016811F0400FE0D021F0400193
S325100497E0016095F86A1085F86B10316885F86A7011F4005F17D1DBF8001011F4005F2FD06D
S3251004980095F86C1085F86D10316885F86CA011F4804F15D02CE095F8221085F8231031683C
S3251004982011F4005FE7D021F4005295F86C10326085F86D1085F86C70114612F4804F17D18A
S32510049840DBF8001011F4804F32D095F86E1085F86F10016885F86EA011F0010F15D03BE029
S3251004986095F8261085F82710316811F4804FE7D021F48041316095F86E1085F86F1001685C
S3251004988085F86E7011F0010F26D140F2C032C0F60102116811F0010F3ED095F8701085F84C
S325100498A07110016885F870A011F0020F21D03BE095F8281085F8291095F82C1085F82D10FB
S325100498C095F82E1085F82F1095F82A1085F82B10016811F0010FD8D021F0010295F8701025
S325100498E0026085F8711085F87070114612F0020F1AD140F2C032C0F60102116811F0020FD4
S3251004990032D095F8721085F87310016885F872A011F0040F15D02FE095F8301085F8311091
S32510049920016811F0020FE4D021F0020295F87210026085F8731085F87270114612F0040F8D
S325100499401AD140F2C032C0F60102116811F0040F32D095F8741085F87510016885F874A089
S3251004996011F0080F15D02FE095F8321085F83310016811F0040FE4D021F0040295F87410D9
S32510049980026085F8751085F87470114612F0080F1AD140F2C032C0F60102116811F0080F1F
S325100499A032D095F8761085F87710016885F876A011F0100F15D02FE095F8341085F83510D1
S325100499C0016811F0080FE4D021F0080295F87610026085F8771085F87670114612F0100FC9
S325100499E01AD140F2C032C0F60102116811F0100F32D095F8781085F87910016885F878A0D1
S32510049A0011F0200F15D02FE095F8361085F83710016811F0100FE4D021F0100295F87810FC
S32510049A20026085F8791085F87870114612F0200F1AD140F2C032C0F60102116811F0200F46
S32510049A4032D095F87A1085F87B10016885F87AA011F0800F15D02FE095F8381085F83910AC
S32510049A60016811F0200FE4D021F0200295F87A10026085F87B1085F87A70114612F0800F7C
S32510049A801AD140F2C032C0F60102116811F0800F2FD095F87C1085F87D10016885F87CA0B7
S32510049AA011F4807F15D02CE095F83A1085F83B10016811F0800FE4D021F0800295F87C109F
S32510049AC0026085F87D1085F87C70114612F4807F17D140F2C031C0F60101086810F4807F05
S32510049AE01AD095F87E0085F87F0085F87EA0BDE8F08C95F83C1085F83D10016811F4807F8F
S32510049B00E7D021F48071016095F87E0085F87F0085F87E70BDE8F08C95F83E0085F83F00F3
S32510049B2095F8400085F84100BDE8F08C30B440F20051C0F601010A78012A04D14878FF28D7
S32510049B403CBF0130487040F2584040F2C833C0F60103C0F601001C68002514F0010F0AD008
S32510049B6024F001021A6090F846004D70002818BF0120087016E0012A02D14A78322A08D22B
S32510049B8090F8442090F8463080F8452080F8473008E080F8445080F846500D8080F8455059
S32510049BA080F8475030BC704770B440F61054C0F601042378012B06D160884FF6FF7188425B
S32510049BC03CBF0130608000212079012501280FD028BF21712ED240F2CC30C0F6010002789F
S32510049BE0012A27D12270618045700170257121E040F2CC30C0F6010082781AB922706180D3
S32510049C00217117E00678012E04D126706180457001700FE0012B0DD16388B3F5FA7F09D3A1
S32510049C2021706180C27040F6CD53C0F6010381701D70217170BC704730B400240D46EB0815
S32510049C4015D001464FF0FF32DC0001F8082B01F8072C01F8062C01F8052C01F8042C01F8A3
S32510049C60032C01F8022C01F8012C013BEDD115F0070106D020184FF0FF3200F8012B01396B
S32510049C80FBD130BC704770B400251646F40824D002460B46E50012F808CB03F808CB12F873
S32510049CA007CC03F807CC12F806CC03F806CC12F805CC03F805CC12F804CC03F804CC12F8EA
S32510049CC003CC03F803CC12F802CC03F802CC12F801CC03F801CC013CDDD116F0070207D0C0
S32510049CE02818691810F8013B01F8013B013AF9D170BC7047F0B500EBC00043F26C01C0F680
S32510049D00010101EB80046169201D8847A1786071012904D300F095800020A070F0BD0028EC
S32510049D2018BFF0BD2079012808BFF0BD052840D1A668E7684FF0FF30E070257C0020EB0842
S32510049D4024D031463A46D80011F808CB02F808CB11F807CC02F807CC11F806CC02F806CC2D
S32510049D6011F805CC02F805CC11F804CC02F804CC11F803CC02F803CC11F802CC02F802CC41
S32510049D8011F801CC02F801CC013BDDD115F007014DD08219C01912F8013B00F8013B0139D0
S32510049DA0F9D1E169E0688847E071002818BFF0BD44E02078002808BFF0BD002121704FF018
S32510049DC0FF30E070E668257CA768EB0824D030463A46D90010F808CB02F808CB10F807CCB3
S32510049DE002F807CC10F806CC02F806CC10F805CC02F805CC10F804CC02F804CC10F803CCB9
S32510049E0002F803CC10F802CC02F802CC10F801CC02F801CC013BDDD115F0070007D08A19B5
S32510049E20C91912F8013B01F8013B0138F9D1E169E0688847E071002818BFF0BD0120A07019
S32510049E40F0BD207902281CBF0020A070F0BD10B543F20804C0F601042078FFF74BFF22788D
S32510049E6043F26C0102EBC200C0F6010101EB8000C078C0B9501CC0B207280ED02070C878E7
S32510049E8080B340F67850C0F601000178417000210170BDE810405BF0B1B800202070C8786B
S32510049EA00028EED11EE001281CBF032805280FD16078013804D36070C8780028E1D111E0A4
S32510049EC003206070501C2070C8780028D9D109E004381CBF023802289CBF07202070C878B1
S32510049EE00028CED191F827000028CAD191F84B000028C6D191F86F000028C2D191F89300AC
S32510049F000028BED191F8B7000028BAD191F8DB000028B6D140F67850C0F60100017841708B
S32510049F20012101705BF06AF8BDE8104003F0BFB8F0B500EBC00043F26C03C0F6010303EBCC
S32510049F408003DA70062918BF0C2940F0A480012A18BF032A61D1DF681D7C0024EA0815D04F
S32510049F6038464FF0FF31D40000F8081B00F8071C00F8061C00F8051C00F8041C00F8031C6E
S32510049F8000F8021C00F8011C013AEDD115F0070006D0E1194FF0FF3201F8012B0138FBD10D
S32510049FA09E681D7CDF68EC0824D031463A46E00011F808CB02F808CB11F807CC02F807CC90
S32510049FC011F806CC02F806CC11F805CC02F805CC11F804CC02F804CC11F803CC02F803CCD7
S32510049FE011F802CC02F802CC11F801CC02F801CC013CDDD115F0070100F0AB808219C01984
S3251004A00012F801CB00F801CB0139F9D1012018705878012818BFF0BDA1E0052A40F09B8067
S3251004A0209E68DF681D7C0020EC0824D031463A46E00011F808CB02F808CB11F807CC02F8C2
S3251004A04007CC11F806CC02F806CC11F805CC02F805CC11F804CC02F804CC11F803CC02F852
S3251004A06003CC11F802CC02F802CC11F801CC02F801CC013CDDD115F007016CD08219C01913
S3251004A08012F801CB00F801CB0139F9D15878012818BFF0BD63E007295DD1012A5BD1DF684C
S3251004A0A01D7C0024EA0815D038464FF0FF31D40000F8081B00F8071C00F8061C00F8051CC8
S3251004A0C000F8041C00F8031C00F8021C00F8011C013AEDD115F0070006D0E1194FF0FF32C7
S3251004A0E001F8012B0138FBD19E681D7CDF68EC0824D031463A46E00011F808CB02F808CBCE
S3251004A10011F807CC02F807CC11F806CC02F806CC11F805CC02F805CC11F804CC02F804CC8D
S3251004A12011F803CC02F803CC11F802CC02F802CC11F801CC02F801CC013CDDD115F0070130
S3251004A14007D08219C01912F801CB00F801CB0139F9D1012018705878012818BFF0BD0020B6
S3251004A1605870196AD878BDE8F040084743F26C03C0F6010300EBC00003F8201003EB800064
S3251004A180C26070477047704770477047704770477047704740F69851C0F6010100200870A5
S3251004A1A0488040F2E441C0F601018A7DCA75887540F2D831C0F6010191F8762081F8772049
S3251004A1C081F876007047002070477047704730B540F2E442C0F601020020917B40F68C5442
S3251004A1E0C0F60104022929D140F25841C0F6010191F84020022A18BF30BD91F841102068A7
S3251004A20002290DD044F66855C1F2080529460FF035F9206029460FF021F92060012030BD33
S3251004A22044F6E835C1F2080529460FF027F9206029460FF013F92060012030BD052918BFD2
S3251004A24030BD40F2D832C0F6010292F87A10012918BF30BD40F25842C0F6010292F84010A1
S3251004A260022918BF30BD44F69855C1F20805206829460FF003F9206029460FF0EFF82060A7
S3251004A280012030BD40F69851C0F60101012008700020488040F2E440C0F60100817DC175FD
S3251004A2A00421817540F2D830C0F6010090F8761080F87710072180F87610704740F2D83351
S3251004A2C0C0F6010393F8721040F68C52C0F60102072905D144F64840C1F208001060704726
S3251004A2E0032905D144F66040C1F20800106070470020082905D144F61840C1F208001060A2
S3251004A3007047092905D144F63040C1F2080010607047002918BF704744F60040C1F20800EC
S3251004A32010607047704740F69851C0F60101002008704880704740F25841C0F6010191F82B
S3251004A34041200020012A03D091F84010012907D040F2E442C0F60102917B022908BF7047C4
S3251004A36030B544F6D03540F68C54C0F60104C1F20805206829460FF081F8206029460FF0B1
S3251004A3806DF820600120BDE8304070477047002070477047704730B540F68C54C0F601041F
S3251004A3A0E18964290ED344F67845C1F20805206829460FF063F8206029460FF04FF82060EE
S3251004A3C0012030BD002030BD7047002070477047704730B540F68C54C0F6010440F2D8315B
S3251004A3E0C0F60101002091F8733091F872207BB172B944F60045C1F20805206829460FF098
S3251004A4003DF8206029460FF029F82060012030BD072A0ED144F64845C1F2080520682946C2
S3251004A4200FF02CF8206029460FF018F82060012030BDE389642B28BF082A18BF30BD40F249
S3251004A4405842C0F6010292F83D3092F83C20934206D191F8792091F878108A4208BF30BD53
S3251004A46044F67845C1F20805206829460FF006F8206029460EF0F2FF2060012030BD7047F4
S3251004A480002070477047704730B540F68C54C0F6010440F2D831C0F60101002091F8733068
S3251004A4A091F872207BB172B944F60045C1F20805206829460EF0E2FF206029460EF0CEFF41
S3251004A4C02060012030BD032A0ED144F66045C1F20805206829460EF0D1FF206029460EF077
S3251004A4E0BDFF2060012030BDE389642B28BF092A18BF30BD40F25842C0F6010292F83F30A1
S3251004A50092F83E20934206D191F8752091F874108A4208BF30BD44F67845C1F208052068A3
S3251004A52029460EF0ABFF206029460EF097FF2060012030BD7047002070477047704730B5F8
S3251004A54040F68C54C0F6010440F2D831C0F6010191F87220012A0ED144F60045C1F20805B9
S3251004A560206829460EF08AFF206029460EF076FF2060012030BDE3890020642B28BF072A20
S3251004A58018BF30BD40F25842C0F6010292F83F3092F83E20934206D191F8752091F87410A0
S3251004A5A08A4208BF30BD44F67845C1F20805206829460EF063FF206029460EF04FFF206038
S3251004A5C0012030BD7047002070477047704730B540F68C54C0F6010440F2D831C0F60101AE
S3251004A5E091F8732000208AB191F8722072B944F60045C1F20805206829460EF03FFF206092
S3251004A60029460EF02BFF2060012030BDE289642A24BF91F87220032A18BF30BD40F2584247
S3251004A620C0F6010292F83D3092F83C20934206D191F8792091F878108A4208BF30BD44F6D1
S3251004A6407845C1F20805206829460EF017FF206029460EF003FF2060012030BD40F69851BC
S3251004A660C0F601010120087000204880704740F2D832C0F6010292F8721040F68C53C0F604
S3251004A680010340F25840C0F60100072918BF092904D190F83E20042A01D107E0032918BF3D
S3251004A6A0082908D190F83C20042A04D144F6C040C1F208003BE0072918BF092904D190F8E9
S3251004A6C03E20032A01D107E0032918BF082908D190F83C20032A04D144F6D840C1F208001C
S3251004A6E025E0072918BF092904D090F83E20052A06D118E090F83E20022A18BF052A12D050
S3251004A700032918BF082908D090F83C0005280AD044F69040C1F2080009E090F83C000228AC
S3251004A72018BF0528F4D144F6A840C1F2080018607047704740F69851C0F601010020087004
S3251004A740488070470020704740F69851C0F6010100200870488040F2E440C0F60100817D47
S3251004A760C17501218175704744F6F04040F68C51C0F60101C1F2080008607047704740F6BE
S3251004A7809851C0F60101002008704880704730B540F68C54C0F60104E2880020642A17D32F
S3251004A7A040F2E443C0F60103997B05290ED144F69855C1F20805206829460EF05FFE206092
S3251004A7C029460EF04BFE2060012030BD02290BD140F25841C0F6010191F84130012B12D089
S3251004A7E091F8401001290ED144F6D035C1F20805206829460EF042FE206029460EF02EFE10
S3251004A8002060012030BD642A38BF30BD44F6A845C1F20805206829460EF030FE2060294625
S3251004A8200EF01CFE2060012030BD40F2E440C0F60100817DC17502218175704710B440F64D
S3251004A8408C54C0F6010440F2D830C0F6010090F87410032919BF90F87800032844F6085085
S3251004A860C1F208001CBF44F62050C1F20800206010BC7047704740F69851C0F60101002012
S3251004A88008704880704730B540F68C54C0F60104E18964290ED344F6D845C1F2080520687A
S3251004A8A029460EF0EBFD206029460EF0D7FD2060012030BD002030BD40F2E440C0F60100C0
S3251004A8C0817DC17504218175704710B440F68C54C0F6010440F2D830C0F6010090F87410C6
S3251004A8E0072919BF90F87800072844F66850C1F208001CBF44F68050C1F20800206010BC6E
S3251004A9007047704740F69851C0F60101002008704880704730B540F68C54C0F60104E189A1
S3251004A92064290ED344F69045C1F20805206829460EF0A4FD206029460EF090FD206001200F
S3251004A94030BD002030BD40F2E440C0F60100817DC17503218175704710B440F68C54C0F641
S3251004A960010440F2D830C0F6010090F87410052919BF90F87800052844F63850C1F208000B
S3251004A9801CBF44F65050C1F20800206010BC7047704740F69851C0F601010020087048803C
S3251004A9A0704730B540F68C54C0F60104E18964290ED344F6C045C1F20805206829460EF044
S3251004A9C05DFD206029460EF049FD2060012030BD002030BD40F69051C0F6010101200870CD
S3251004A9E00020488040F2D830C0F6010090F8761080F87710082180F87610704700207047A2
S3251004AA00704740F69051C0F6010100200870488070470020704740F69851C0F601010120B0
S3251004AA2008700020488040F2D830C0F6010090F8761080F87710032180F8761070470020A5
S3251004AA407047704740F69851C0F6010100200870488070470020704740F69452C0F60102D4
S3251004AA60002050801071D080012140F2D830C0F60100117090F8761080F87710022180F8BF
S3251004AA807610704700207047704740F69451C0F60101002008704880704730B540F68C54EC
S3251004AAA0C0F60104618964290ED344F60855C1F20805206829460EF0E1FC206029460EF053
S3251004AAC0CDFC2060012030BD002030BD40F69851C0F60101012008700020488040F2D83066
S3251004AAE0C0F6010090F8761080F87710052180F87610704700207047704740F69851C0F63A
S3251004AB00010100200870488070470020704740F69452C0F60102002050801071D080012173
S3251004AB2040F2D830C0F60100117090F8761080F87710042180F87610704700207047704714
S3251004AB4040F69451C0F60101002008704880704730B540F68C54C0F60104618964290ED3E3
S3251004AB6044F63855C1F20805206829460EF086FC206029460EF072FC2060012030BD0020B4
S3251004AB8030BD40F69851C0F60101012008700020488040F2D830C0F6010090F8761080F8DF
S3251004ABA07710072180F87610704700207047704740F69851C0F6010100200870488070479B
S3251004ABC00020704740F69452C0F60102002050801071D080012140F2D830C0F6010011705A
S3251004ABE090F8761080F87710062180F87610704700207047704740F69451C0F601010020D1
S3251004AC0008704880704730B540F68C54C0F60104618964290ED344F66855C1F208052068D6
S3251004AC2029460EF02BFC206029460EF017FC2060012030BD002030BD40F69451C0F60101F8
S3251004AC40012008700020488040F2E440C0F60100817DC1750621817540F2D830C0F601000A
S3251004AC6090F8761080F87710092180F87610704740F2D833C0F6010393F8721040F68C52B6
S3251004AC80C0F60102072905D144F6F850C1F2080010607047032905D144F61060C1F2080010
S3251004ACA0106070470020082905D144F6C850C1F2080010607047092905D144F6E050C1F2D3
S3251004ACC0080010607047002918BF704744F6B050C1F2080010607047704740F69451C0F6D0
S3251004ACE00101002008704880704740F2D831C0F6010191F87B200020002A08BF704791F8B9
S3251004AD007A10002918BF704730B544F6D03540F68C54C0F60104C1F20805206829460EF02E
S3251004AD20ADFB206029460EF099FB20600120BDE8304070477047002070477047704730B582
S3251004AD4040F68C54C0F60104618964290ED344F62865C1F20805206829460EF08FFB20602A
S3251004AD6029460EF07BFB2060012030BD002030BD70470020704740F69451C0F6010148880A
S3251004AD80642838BF704740F2D830C0F6010090F8761080F877100A2180F87610704740F64B
S3251004ADA09451C0F601014888642838BF704740F2D830C0F6010090F8761080F877100A21A9
S3251004ADC080F876107047704730B540F68C54C0F6010440F2D832C0F6010292F8721092F8AC
S3251004ADE0732000207AB171B944F6B055C1F20805206829460EF042FB206029460EF02EFBEA
S3251004AE002060012030BD07290ED144F6F855C1F20805206829460EF031FB206029460EF026
S3251004AE201DFB2060012030BD6289642A28BF082918BF30BD40F25842C0F6010292F83D10A1
S3251004AE4092F83C20022903D0022A11D0032903D0032A0DD0042903D0042A09D0012904D0D9
S3251004AE60012A05D0052908BF30BD052A18BF30BD44F62865C1F20805206829460EF0FEFA6F
S3251004AE80206029460EF0EAFA2060012030BD70470020704740F69451C0F60101488864287C
S3251004AEA038BF704740F2D830C0F6010090F8761080F877100A2180F876107047704730B550
S3251004AEC040F68C54C0F6010440F2D832C0F6010292F8721092F8732000207AB171B944F6BA
S3251004AEE0B055C1F20805206829460EF0C7FA206029460EF0B3FA2060012030BD03290ED18A
S3251004AF0044F61065C1F20805206829460EF0B6FA206029460EF0A2FA2060012030BD628901
S3251004AF20642A28BF092918BF30BD40F25842C0F6010292F83F1092F83E20022903D0022A1C
S3251004AF4011D0032903D0032A0DD0042903D0042A09D0012904D0012A05D0052908BF30BD06
S3251004AF60052A18BF30BD44F62865C1F20805206829460EF083FA206029460EF06FFA2060F5
S3251004AF80012030BD70470020704740F69451C0F601014888642838BF704740F2D830C0F62E
S3251004AFA0010090F8761080F877100A2180F876107047704730B540F68C54C0F6010440F2EA
S3251004AFC0D831C0F6010191F8732000208AB191F8722072B944F6B055C1F2080520682946E3
S3251004AFE00EF04CFA206029460EF038FA2060012030BD6289642A24BF91F87210072918BFD8
S3251004B00030BD40F25842C0F6010292F83F1092F83E20022903D0022A11D0032903D0032AAC
S3251004B0200DD0042903D0042A09D0012904D0012A05D0052908BF30BD052A18BF30BD44F605
S3251004B0402865C1F20805206829460EF017FA206029460EF003FA2060012030BD7047002034
S3251004B060704740F69451C0F601014888642838BF704740F2D830C0F6010090F8761080F8AB
S3251004B08077100A2180F876107047704730B540F68C54C0F6010440F2D831C0F6010191F846
S3251004B0A0732000208AB191F8722072B944F6B055C1F20805206829460EF0E0F92060294686
S3251004B0C00EF0CCF92060012030BD6289642A24BF91F87210032918BF30BD40F25842C0F62C
S3251004B0E0010292F83D1092F83C20022903D0022A11D0032903D0032A0DD0042903D0042A34
S3251004B10009D0012904D0012A05D0052908BF30BD052A18BF30BD44F62865C1F2080520685A
S3251004B12029460EF0ABF9206029460EF097F92060012030BD40F69052C0F601020020508018
S3251004B1401071D080012140F2E440C0F601001170817DC1750521817540F2D830C0F6010013
S3251004B16090F8761080F877100B2180F87610704700207047704740F69051C0F6010100204A
S3251004B18008704880704730B540F68C54C0F60104E188642933D340F2E442C0F60102917BCF
S3251004B1A0206802290DD144F6E835C1F2080529460EF064F9206029460EF050F9206001202C
S3251004B1C030BD05290DD044F6D035C1F2080529460EF054F9206029460EF040F920600120DD
S3251004B1E030BD44F64065C1F2080529460EF046F9206029460EF032F92060012030BD002037
S3251004B20030BD40F69451C0F60101012008700020488040F2E440C0F60100817DC17506216B
S3251004B220817540F2D830C0F6010090F8761080F87710092180F87610704700207047704793
S3251004B24040F69451C0F60101002008704880704730B540F68C54C0F60104618964290ED3DC
S3251004B26044F62865C1F20805206829460EF006F9206029460EF0F2F82060012030BD0020B4
S3251004B28030BD10B440F69C54C0F6010440F25841C0F60101A27891F83C0091F83D1012B107
S3251004B2A002290AD005E0012903D0012813D0022903D002280FD0032903D003280BD0042948
S3251004B2C003D0042807D0052903D0052803D0062904D0062802D10120A07005E0012A03D164
S3251004B2E011B1002808BFA07010BC704710B440F69C54C0F6010440F25841C0F601016278EE
S3251004B30091F83E0091F83F1012B102290AD005E0012903D0012813D0022903D002280FD0B7
S3251004B320032903D003280BD0042903D0042807D0052903D0052803D0062904D0062802D1E6
S3251004B3400120607005E0012A03D111B1002808BF607010BC704710B440F69C54C0F6010455
S3251004B360617840F2D830C0F60100012909D1A2789AB990F8721080F87310072180F8721051
S3251004B3802EE051B9A278012A07D190F8721080F87310032180F8721022E090F87220072AEE
S3251004B3A00AD1012915D1A178012919D180F87320092180F8721013E0032A08BF012908D142
S3251004B3C0A17801290CD180F87320082180F8721006E029B9A17819B980F8732080F872104D
S3251004B3E010BC704710B440F69C54C0F6010440F2D830E178C0F60100013905D315D00129A0
S3251004B4000CD00020E0704BE090F87C1080F87D10002180F87C100120E07041E090F87710BC
S3251004B42090F876200A2912D00DE090F8771090F87620092903D0092A32D00B2903D00B2A2F
S3251004B4402ED00A2903D00A2A21D0082903D0082A1DD0072903D0072A19D0062903D0062A37
S3251004B46015D0052903D0052A11D0042903D0042A0DD0032903D0032A09D0022903D0022A82
S3251004B48005D0012902D0012A01D049B142B990F87C1080F87D10002180F87C100120E07021
S3251004B4A010BC704710B540F6A054C0F6010440F2D8312078C0F60101013805D30ED00128A2
S3251004B4C020D00020207010BD91F87A0081F87B00002081F87A000120207010BD91F87F0055
S3251004B4E0012808BF10BD91F87E00012818BF10BD91F87A0081F87B00012081F87A00022074
S3251004B500207010BD91F87D0010B191F87C0058B191F87F00022808BF10BD91F87E000228E8
S3251004B52018BF10BD91F87C0081F87D0091F87A0081F87B00002081F87A0006F011F8012028
S3251004B540207010BD10B540F68C54C0F60104207B012806D1E0894FF6FF7188423CBF01302F
S3251004B560E081207A012806D160894FF6FF7188423CBF013060812079012806D1E0884FF6FB
S3251004B580FF7188423CBF0130E080FFF7E4FEFFF778FEFFF7ABFEFFF725FFFFF783FF207CBA
S3251004B5A001280DD028BF10BD44F6D031C1F20801216008460DF052FF20600120207410BDA1
S3251004B5C02068BDE810400DF06FBF40F2D830C0F6010090F85E1040F25842C0F6010280F8C5
S3251004B5E05F101179012918BF002180F85E10704770B5054640F6A454C0F60104A071207B74
S3251004B600A84214D040F2D831C0F60101488E05F072FF48F21F51C5F2EB1151FB00F1490927
S3251004B620A1EBE071A1802080A07961802073052D1BD120886188884210D9218901312181E5
S3251004B640002105F09CFF20886188411A2089632824D3002020800120607370BD0020208166
S3251004B6606073BDE8704005F07BBF042D29D120886188884218D9618901316181012105F0CD
S3251004B6807EFF2088022105F07AFF2088032105F076FF20886188411A608963283CBF2180A8
S3251004B6A070BD0020208070BD00206081012005F057FF022005F054FF0320BDE8704005F012
S3251004B6C04FBF012D0BD1022005F04AFF032005F047FFA0882188884288BF70BD2BE0022D31
S3251004B6E012D140F2D831C0F60101488E05F003FF012105F044FF032005F032FFA088218819
S3251004B700884288BF70BD16E0032D0FD140F20A46C0F60106308805F0EEFE012105F02FFFAE
S3251004B720308805F0E8FE022105F029FFA0882188884288BF70BD294605F021FFD4F80210AB
S3251004B74001EB1140A08070BD70B540F2D834C0F6010494F82C00012840F02B81002005F055
S3251004B760FFFE94F82C00012840F0238140F6AF72C0F60102117801293AD194F85E0001281C
S3251004B7801CD142F2107005F0B6FE0146012005F0C3FE42F2107005F0AEFE0146022005F074
S3251004B7A0BBFE42F2107005F0A6FE0146032005F0B3FE94F82C0084F82D0070BD608E05F0E8
S3251004B7C09AFE0146012005F0A7FE608E05F093FE0146022005F0A0FE608E05F08CFE014691
S3251004B7E0032005F099FE94F82C0084F82D0070BD002940F0DE8040F2E445C0F6010594F898
S3251004B8005E10A87D012959D104281CD142F2107005F071FE0146012005F07EFE42F2107069
S3251004B82005F069FE0146022005F076FE42F2107005F061FE0146032005F06EFEA878E87075
S3251004B8400120A87070BD012800F0A68002280CD142F2107005F04FFE0146012005F05CFE75
S3251004B860A878E8700120A87070BD03280CD142F2107005F040FE0146022005F04DFEA87818
S3251004B880E8700120A87070BD94F85F00012800F08B8040F25841C0F6010191F83E0003284C
S3251004B8A040F0828042F2107005F025FE022105F066FEA878E8700120A87070BD40F6B056DA
S3251004B8C0C0F6010604282ED1E87D03280DD194F87600062868D10320FFF78AFE0420B070AA
S3251004B8E0A878E8700120A87070BD00285CD1608E05F001FE0146012005F00EFE608E05F0CD
S3251004B900FAFD0146022005F007FE608E05F0F3FD0146032005F000FE0520B070A878E870C6
S3251004B9200120A87070BD012810D1E87D04283BD194F87600082837D10420FFF759FE012014
S3251004B940B070A878E8700120A87070BD022810D1E87D012828D194F87600022824D10120FB
S3251004B960FFF746FE0220B070A878E8700120A87070BD032818D1E87D022815D194F87600C8
S3251004B980042811D10220FFF733FE0320B070A878E8700120A87070BD05F0E2FD022005F02A
S3251004B9A0DFFD032005F0DCFDA878E8700120A87070BD94F82D10002908BF70BD002818BFDD
S3251004B9C070BD012005F0CCFD022005F0C9FD032005F0C6FD40F2E441C0F601018878C87042
S3251004B9E00020887094F82C0084F82D0070BD30B540F2D834C0F6010440F2E445C0F6010592
S3251004BA0094F85E10A87D012912D1062837D142F2107005F070FD0146002005F07DFD94F832
S3251004BA202E1084F82F10297869700120287030BD062810D194F87600092818BF30BD0020AD
S3251004BA40FFF7D6FD94F82E1084F82F10297869700120287030BD052818BF30BD94F876006B
S3251004BA600B2818BF30BD0520FFF7C2FD94F82E1084F82F10297869700020287030BD05280A
S3251004BA8018BF30BD002005F06BFD94F82E1084F82F10297869700020287030BD00B540F2C0
S3251004BAA0D830C0F6010090F85E1040F25842C0F6010280F85F101179012918BF002180F827
S3251004BAC05E10FFF741FEFFF792FF00BD40F6B850C0F601000121017000214180704770B51F
S3251004BAE040F6BC54C0F60104A178012904D1E078FF283CBF0130E0702078012804D16078AA
S3251004BB00FF283CBF0130607020790026012803D328D02660267170BD40F2D832C0F60102F3
S3251004BB20107F01280AD151B940F62E61C0F60101087850B90120A070E67070BD28B140F685
S3251004BB402E61C0F60101087808B1668070BDE078C82838BF70BD6680012000F04AF9012071
S3251004BB60207170BD40F2D835C0F6010595F83D00012808D095F83C00012804D1304600F0FA
S3251004BB8038F9267170BD00F044F920B9287F68772E77267170BD207878B9287F002818BF32
S3251004BBA070BD40F62E61C0F601010878002818BF70BD01202070667070BD012818BF70BD34
S3251004BBC06078322838BF70BD287F012805D040F62E62C0F60102117809B1268070BD002893
S3251004BBE018BF70BD2070667000F003F9267170BD30B540F6C455C0F601056878012803D342
S3251004BC0013D00020687030BD40F2D834C0F60104E07C012808BF30BDA07C012818BF30BD07
S3251004BC2000F0C9F80120687030BD40F2D834C0F6010494F83D00012809D094F83C0001289E
S3251004BC4005D1002000F0B7F80020687030BD00F0E0F8002818BF30BDA07CE0740020A074F8
S3251004BC6041F2AA02C0F6010201211170687030BD70B540F6C054C0F60104A078012804D16A
S3251004BC80E178FF293CBF0131E1702179002601292BD024BF267170BD40F2D832C0F601020A
S3251004BCA0917E01290AD150B940F62E61C0F60101087850B90120A070E67070BD29B140F683
S3251004BCC02E62C0F60102117809B1668070BD012818BF70BDE078C82838BF70BD668001200B
S3251004BCE000F078F80120207170BD40F2D835C0F6010595F83D00012808D095F83C00012833
S3251004BD0004D1304600F066F8267170BD00F081F8002818BF70BDA87EE876AE76267170BDAB
S3251004BD2040F6CD51C0F601010878012818BF704740F62E61C0F601010878002818BF7047F3
S3251004BD4000B5FFF7CCFEFFF753FF5DF804EBFFF78FBF40F6C851C0F601010878704740F610
S3251004BD60C851C0F601010870704740F6C751C0F601010878704740F6C751C0F601010870EE
S3251004BD80704740F6CA51C0F601010878704740F6CA51C0F601010870704740F6C951C0F654
S3251004BDA001010878704740F6C951C0F60101087070470020704710B440F6C654C0F6010453
S3251004BDC02178002814BF41F0010001F0FE00207010BC704710B440F6C654C0F60104217819
S3251004BDE0002814BF41F0020001F0FD00207010BC704710B440F6C654C0F60104217800286A
S3251004BE0014BF41F0030001F0FC00207010BC7047704740F6C651C0F601010878704740F6D8
S3251004BE20C651C0F601010870704740F6CB51C0F601010878704740F6CB51C0F60101087027
S3251004BE40704740F6CC51C0F601010878704740F6CC51C0F601010870704740F6CD51C0F68B
S3251004BE60010101200870704740F61852C0F60102115401210020FEF779B940F63052C0F6C1
S3251004BE800102115401210846FEF770B940F62052C0F60102115401210220FEF767B940F63D
S3251004BEA04052C0F60102115401210320FEF75EB940F62852C0F60102115401210420FEF75E
S3251004BEC055B940F61851C0F60101085C704740F63051C0F60101085C704740F62051C0F6E1
S3251004BEE00101085C704740F64051C0F60101085C704740F62851C0F60101085C704740F6B9
S3251004BF001852C0F601024FF0FF301060506001210020FEF72BB940F63052C0F601024FF08B
S3251004BF20FF30106050609060D06001210846FEF71DB940F62052C0F601024FF0FF301060FE
S3251004BF40506001210220FEF711B940F64052C0F6010210460323FF2100F8081B00F8071CC1
S3251004BF6000F8061C00F8051C00F8041C00F8031C00F8021C00F8011C013BEDD101210320DB
S3251004BF80FEF7F4B840F62852C0F601024FF0FF301060506001210420FEF7E8B810B540F21D
S3251004BFA0D830C0F6010090F8361080F83710002480F8364005F00EFB204605F018FB40F26B
S3251004BFC0E440C0F6010001794171047110BD002070477047704740F2D832C0F6010292F83A
S3251004BFE02A10012915D130B544F6706540F6D054C0F60104C1F20805206829460DF03EFAE8
S3251004C000206029460DF02AFA20600120BDE8304070470020704710B5012005F0E8FA40F2C3
S3251004C020D830C0F6010090F8361080F83710142480F83640204605F0C2FA204605F0CCFA3C
S3251004C04040F2E440C0F60100017941710121017110BD002070477047704740F2D832C0F6F5
S3251004C060010292F82A10A9B930B544F6586540F6D054C0F60104C1F20805206829460DF0D8
S3251004C080FDF9206029460DF0E9F920600120BDE8304070470020704710B540F6D054C0F6A9
S3251004C0A00104207901280DD028BF10BD44F65861C1F20801216008460DF0D0F92060012029
S3251004C0C0207110BD2068BDE810400DF0EDB9000030B543F28015C0F6010540F6E054C0F63D
S3251004C0E0010442F2107370B928460122062106F05AFF40F2D831C0F6010120600A7F60B32B
S3251004C1004A7701202BE001280ED105F108000122062106F048FF40F2D831C0F60101206018
S3251004C1200A7F0028ECD118E0022808D040F2D831C0F6010120680A7F0028E1D10DE005F1BC
S3251004C14010000122062106F02EFF40F2D831C0F6010120600A7F0028D2D1206048770877C3
S3251004C16030BDF0B50E461F4640F6E055C0F6010542F210731146012206F015FF286040F23E
S3251004C180D834C0F6010460B9207F607742F210730020207739463046012206F09CFF286090
S3251004C1A030B10120217F2077617700203080F0BD217F61772077F0BD00B581B044F6886112
S3251004C1C0C1F208010888ADF8020042F210730DF102000122022106F0E6FE40F6E051C0F65E
S3251004C1E00101086000280CBF0120002001B000BD2DE9B04440F6D854C0F60104217801292F
S3251004C20006D160884FF6FF7290423CBF0130608040F2D835C0F6010595F828004FF0000AB8
S3251004C220102813D1207908BB0120FFF751FF84F805A084F806A084F800A00120207195F867
S3251004C2402800A4F802A0202810D141E0202822D16079F0BBFFF73CFF84F804A00121617110
S3251004C26095F8280084F806A0202831D06088C82838BFBDE8B08495F82000422804BF95F875
S3251004C2802200002835D1FFF723FF84F800A0A4F802A0BDE8B084402804BFA0790028E5D1C7
S3251004C2A040F6EC50C0F601000127077280F809A00220FFF70DFF84F804A084F805A0A771FC
S3251004C2C084F800A095F82800A4F802A02028CDD121780029CAD195F82000422804BF95F88B
S3251004C2E022000028C2D101202070A4F802A0BDE8B08484F800A0A4F802A0BDE8B084F0B5A7
S3251004C30043F26814C0F60104FFF772FF40F2D836C0F6010696F828000127402818D121469D
S3251004C32004F115003B460222FFF71BFF207810F00300032840F6EC51C0F601010CBF012047
S3251004C3400020887640F6E450C0F601000770F0BD40F6EC55C0F601052878062800F29A8053
S3251004C3600FF20401D1E800F0960415233241630021463B46601D0222FFF7F3FE20784228DA
S3251004C38000F28A8028722878AF70072828BFF0BD86E021463B46E01D0222FFF7E2FE20788E
S3251004C3A068722878EF70072828BFF0BD78E0214604F109003B460222FFF7D3FE2078A872EC
S3251004C3C028782F71072828BFF0BD69E0214604F10B003B460222FFF7C4FE2078E8722878A1
S3251004C3E06F71072828BFF0BD5AE0214604F10D003B460222FFF7B5FE04F10F003B46611C8D
S3251004C4000222FFF7AEFE2088688296F82A10AF71012905D1E8822878072828BFF0BD3FE0D6
S3251004C4200020E8822878072828BFF0BD38E0214604F111003B460222FFF793FE04F113003C
S3251004C4403B46611C0222FFF78CFE208841F29411884210D3217903290DD80131217196F8F6
S3251004C4602A00EF7101280ED0002028832878072828BFF0BD14E000212171A88296F82A005A
S3251004C480EF710128F0D1A88A28832878072828BFF0BD05E02F70F0BD2878072828BFF0BD64
S3251004C4A001302870F0BD40F63861C0F601010878013805D340F63861C0F60101087070471E
S3251004C4C043F2DF11C0F601010878002818BF704700B500F019FE002818BFFFF710FF5DF81A
S3251004C4E004EB7047002140F6EC50C0F601008222C0F80110A0F8051040F6E453C0F60103F1
S3251004C500C1711970828181604FF448724282416101838176704740F6EC51C0F601018878A2
S3251004C520002818BF087A704740F6EC51C0F60101C878002818BF487A704740F6EC51C0F69D
S3251004C54001010879002818BF887A704740F6E451C0F601010878002808BF704740F6EC51CA
S3251004C560C0F60101887E704740F6EC51C0F601014879002818BFC87A704740F6EC51C0F61F
S3251004C58001018879002818BF488A704740F6EC51C0F60101C879002818BF888A704740F68C
S3251004C5A0EC50C0F60100817949B140F2D832C0F6010292F82A10012904BFC08A70470020B3
S3251004C5C0704740F6EC50C0F60100C17949B140F2D832C0F6010292F82A10012904BF008BFC
S3251004C5E070470020704741210138C0B2032880F0888000210E2368B943F2B610C0F60100BE
S3251004C600028844F68C60C1F20800B0F800C062450FD325E0012816D143F2BC10C0F60100D7
S3251004C620028844F68C60C1F20800B0F800C0624516D2B0F802C0624517D301310EBF084636
S3251004C6400139C8B2704743F2B410C0F60100028844F68C60C1F20800B0F800C06245E8D370
S3251004C66008001CBF0139C8B27047B0F804C0624505D302310EBF08460139C8B27047B0F806
S3251004C68006C0624505D303310EBF08460139C8B27047B0F808C0624505D304310EBF084642
S3251004C6A00139C8B27047B0F80AC0624505D305310EBF08460139C8B27047B0F80CC062452D
S3251004C6C005D306310EBF08460139C8B27047B0F80EC0624505D307310EBF08460139C8B2AF
S3251004C6E07047B0F810C0624505D308310EBF08460139C8B2704712300931013BACD14FF03F
S3251004C7007D010846704740F2D830C0F6010090F8741080F87510002180F87410704700208E
S3251004C72070477047704730B5002040F6086440F25842C0F60102C0F6010492F83F1092F870
S3251004C7403E20042913D0042A0ED145F24805C1F20805206829460CF091FE206029460CF093
S3251004C7607DFE2060012030BD062908BF30BD062A18BF30BD45F2C005C1F20805206829460C
S3251004C7800CF07CFE206029460CF068FE2060012030BD704744F6B87040F60861C0F60101BA
S3251004C7A0C1F20800086070477047704730B5002040F6086440F25842C0F60102C0F6010430
S3251004C7C092F83F1092F83E2091B172B944F68875C1F20805206829460CF050FE20602946EA
S3251004C7E00CF03CFE2060012030BD062908BF30BD062A18BF30BD45F2C005C1F20805206840
S3251004C80029460CF03BFE206029460CF027FE2060012030BD704745F2180040F60861C0F661
S3251004C8200101C1F20800086070477047704740F25841C0F6010191F83F200020022A08BF16
S3251004C840704791F83E10022918BF704730B545F2000540F60864C0F60104C1F208052068B1
S3251004C86029460CF00BFE206029460CF0F7FD20600120BDE830407047704745F2300040F68A
S3251004C8800861C0F60101C1F20800086070477047704730B5002040F6086440F25842C0F6EC
S3251004C8A00102C0F6010492F83F1092F83E20012912D0012A0ED144F6B875C1F2080520681A
S3251004C8C029460CF0DBFD206029460CF0C7FD2060012030BD032913D0032A0ED144F6E8750C
S3251004C8E0C1F20805206829460CF0C8FD206029460CF0B4FD2060012030BD022908BF30BD9D
S3251004C900022A18BF30BD45F20005C1F20805206829460CF0B3FD206029460CF09FFD206067
S3251004C920012030BD704745F2600040F60861C0F60101C1F20800086070477047704730B5FD
S3251004C940002040F6086440F25842C0F60102C0F6010492F83F1092F83E20012912D0012AC3
S3251004C9600ED144F6B875C1F20805206829460CF085FD206029460CF071FD2060012030BD3B
S3251004C980042913D0042A0ED144F6D075C1F20805206829460CF072FD206029460CF05EFD79
S3251004C9A02060012030BD022908BF30BD022A18BF30BD45F20005C1F20805206829460CF011
S3251004C9C05DFD206029460CF049FD2060012030BD704745F2900040F60861C0F60101C1F29C
S3251004C9E00800086070477047704730B5002040F6086440F25842C0F60102C0F6010492F817
S3251004CA003F1092F83E20012913D0012A0ED144F6B875C1F20805206829460CF02FFD2060E8
S3251004CA2029460CF01BFD2060012030BD032908BF30BD032A18BF30BD44F6E875C1F20805A3
S3251004CA40206829460CF01AFD206029460CF006FD2060012030BD40F60C61C0F601010120BA
S3251004CA6008700020488040F2D830C0F6010090F8741080F87510082180F874107047002046
S3251004CA80704740F60C61C0F60101002008704880704770470020704740F60C61C0F601016A
S3251004CAA0012008700020488040F2D830C0F6010090F8741080F87510062180F87410704707
S3251004CAC000207047704740F60C61C0F60101002008704880704730B540F60864C0F60104FA
S3251004CAE0E18864290ED345F24805C1F20805206829460CF0C3FC206029460CF0AFFC206039
S3251004CB00012030BD002030BD40F60C61C0F60101012008700020488040F2D830C0F6010013
S3251004CB2090F8741080F87510072180F87410704700207047704740F60C61C0F601010020EE
S3251004CB400870488070470020704740F60C61C0F60101012008700020488040F2D830C0F621
S3251004CB60010090F8741080F87510042180F87410704700207047704740F60C61C0F60101D0
S3251004CB80002008704880704730B540F60864C0F60104E18864290ED345F27805C1F20805D7
S3251004CBA0206829460CF06AFC206029460CF056FC2060012030BD002030BD40F60C61C0F6D1
S3251004CBC00101012008700020488040F2D830C0F6010090F8741080F87510052180F874109C
S3251004CBE0704700207047704740F60C61C0F6010100200870488070470020704740F60C61EA
S3251004CC00C0F60101012008700020488040F2D830C0F6010090F8741080F87510022180F82C
S3251004CC207410704700207047704740F60C61C0F60101002008704880704730B540F6086418
S3251004CC40C0F60104E18864290ED345F2A805C1F20805206829460CF011FC206029460CF099
S3251004CC60FDFB2060012030BD002030BD40F60C61C0F60101012008700020488040F2D830F1
S3251004CC80C0F6010090F8741080F87510032180F87410704700207047704740F60C61C0F6FC
S3251004CCA00101002008704880704700207047704745F2D80040F60861C0F60101C1F2080092
S3251004CCC0086070477047704730B5002040F6086440F25842C0F60102C0F6010492F83F10ED
S3251004CCE092F83E2091B172B944F68875C1F20805206829460CF0C2FB206029460CF0AEFB8A
S3251004CD002060012030BD042908BF30BD042A18BF30BD45F24805C1F20805206829460CF061
S3251004CD20ADFB206029460CF099FB2060012030BD40F60C61C0F60101012008700020488048
S3251004CD4040F2D830C0F6010090F8741080F87510092180F87410704700207047704740F61E
S3251004CD600C61C0F60101002008704880704730B540F60864C0F6010440F25841C0F6010198
S3251004CD8091F83F200020052A12D091F83E1005290ED145F20815C1F20805206829460CF075
S3251004CDA06DFB206029460CF059FB2060012030BDE188642938BF30BD45F2F005C1F208055E
S3251004CDC0206829460CF05AFB206029460CF046FB2060012030BD40F60C61C0F601010120BB
S3251004CDE008700020488040F2D830C0F6010090F8741080F875100A2180F8741070470020C1
S3251004CE0070477047704740F25841C0F6010191F83F200020052A08BF704791F83E10052996
S3251004CE2018BF704730B545F2081540F60864C0F60104C1F20805206829460CF01FFB206067
S3251004CE4029460CF00BFB20600120BDE83040704740F60C61C0F601010120087000204880FE
S3251004CE6040F2D830C0F6010090F8741080F875100B2180F87410704700207047704740F6FB
S3251004CE800C61C0F60101002008704880704740F25841C0F6010191F83F200020062A08BFBA
S3251004CEA0704791F83E10062918BF704730B545F2D80540F60864C0F60104C1F2080520686F
S3251004CEC029460CF0DBFA206029460CF0C7FA20600120BDE83040704710B540F60864C0F6C2
S3251004CEE001042079012806D1E0884FF6FF7188423CBF0130E080207A01280DD028BF10BDB3
S3251004CF0044F68871C1F20801216008460CF0A6FA20600120207210BD2068BDE810400CF024
S3251004CF20C3BA40F61461C0F601010878704740F61461C0F6010101200870704730B540F6F2
S3251004CF401465C0F601052878002818BF30BD6978002979D1FEF7B5FF55283BD0FEF7CFFFAE
S3251004CF60FEF7D9FFFEF7E5FFFEF7EFFFFFF70AF855210020FEF778FF02210120FEF77DFF5F
S3251004CF8002210846FEF779FF02210320FEF775FF40F2D833C0F6010340F2E4419879C0F6D5
S3251004CFA00101D8710A7B0220987183F84A0083F84B0083F84C0083F84D0083F84E0083F8FE
S3251004CFC04F0008730120687028784A73002818BF30BD3CE040F2D834C0F60104A079E071AC
S3251004CFE00320FEF774FFA07194F84A0084F84B000120FEF76CFF84F84A0084F84B0094F844
S3251004D0004C0084F84D000220FEF761FF84F84C0084F84D0094F84E0084F84F000320FEF71C
S3251004D02056FF84F84E0040F2E441C0F6010184F84F00087B4873A079087301206870287872
S3251004D040002818BF30BD02E0012918BF30BD40F62261C0F6010148783C2805D340F63261C4
S3251004D060C0F601010878012818BF5FF0000030BD00B504F0EDFE40F2D830C0F60100017923
S3251004D08041710121017190F8562080F8561090F85A1080F85B10002180F8572090F85C206B
S3251004D0A080F85A1080F85D2080F85C1000BD40F61861C0F601011F200860704740F618616A
S3251004D0C0C0F601010878704700B581B00DF1020001210CF0B6FBBDF8020001B000BD00B5B8
S3251004D0E081B00DF1020001210CF0A6FBBDF8020001B000BD00B581B00DF103000CF0C3FB60
S3251004D1009DF8030001B000BD00B581B00DF103000CF0B2FB9DF8030001B000BD00B581B073
S3251004D1200DF103000CF0A1FB9DF8030001B000BD00B581B00DF1020001210CF087FBBDF8FB
S3251004D140020001B000BD00B581B00DF1020001210CF081FBBDF8020001B000BD00B581B0BA
S3251004D1600DF1020001210CF07BFBBDF8020001B000BD10B540F62464C0F60104A07901285C
S3251004D18004D1E079FF283CBF0130E071FFF7C9FE0122618818B9A079218148BB54E040F2E5
S3251004D1A0EF40814203D2A079227108BB4CE0B1F5A46F04D802202071A079C8B944E0B1F547
S3251004D1C0D06F04D203202071A07988B93CE040F2B260814204D204202071A07940B933E03F
S3251004D1E040F64D4081420CD205202071A07958B32079E37A98422AD0E072A2710020E07137
S3251004D20010BD40F67F40814205D206202071A0790028EDD118E040F6C850814205D20720DB
S3251004D2202071A0790028E3D10EE040F6FA50814205D208202071A0790028D9D104E0092095
S3251004D2402071A0790028D3D1A271E07110BDE079032828BF218110BD10B443F2A214C0F6CE
S3251004D260010440F62C62C0F60102108840F2EF41884212D20120A072607240F22150E08062
S3251004D28040F2B260208000202072E07240F67F40608040F6FA50A080D0E0B0F5A46F15D8C2
S3251004D2A0607A01280CBF40F221500846E08040F2B26020800120A07200202072E07240F6E4
S3251004D2C07F40608040F6FA50A080B7E0B0F5D06F0FD20120A07240F2B260208000202081C1
S3251004D2E0E07240F67F406080E18040F6FA50A080A4E040F2B261884220D2A07A01280DD146
S3251004D300218000202081E07240F2EF40E08040F67F40608040F6FA50A0808FE04FF4D06027
S3251004D320208000202081E07240F2EF40E08040F67F40608040F6FA50A0807FE040F64D41C7
S3251004D340884211D20020A4F80900E072207240F2EF40E0804FF4D060208040F67F406080B4
S3251004D36040F6FA50A08069E040F67F41884222D2207A012810D140F64D4060800020A4F8F3
S3251004D3800900E07240F2EF40E0804FF4D060208040F6FA50A08051E00020A4F80900E0725C
S3251004D3A040F2EF40E0804FF4D0602080618040F6FA50A08042E040F6C851884212D20120BE
S3251004D3C0207240F64D4060800020A4F80900E07240F2EF40E0804FF4D060208040F6FA5093
S3251004D3E0A0802BE040F6FA51884215D2E07A01280CBF40F6C8500846A08040F64D40608009
S3251004D400012020720020A4F8090040F2EF40E0804FF4D060208011E040F64D4060800120F1
S3251004D4202072E0720020A4F8090040F6C85140F2EF40E080A1804FF4D060208010BC704762
S3251004D44030B4014643F2A214C0F6010440F62C65C0F601050120013909D30DD0022910D33C
S3251004D46014D12888A18888420FD300200EE02888E1888842F9D208E0288821888842F4D29B
S3251004D48003E0288861888842EFD2012030BC704730B4014643F2A214C0F6010440F62C650F
S3251004D4A0C0F601050120013909D30DD0022910D314D12888A18888420FD200200EE028884D
S3251004D4C0E1888842F9D308E0288821888842F4D303E0288861888842EFD3012030BC704795
S3251004D4E030B50220FFF7ACFF054640F2D834C0F6010401281DD1FFF7CBFF012819D194F8B0
S3251004D5003E3084F83F3094F84030002184F83E1084F8413094F8422084F8401084F843202B
S3251004D52084F842100320FFF78BFF054601281AD14DE075BB012294F83E3084F83E2084F831
S3251004D5403F3094F8403084F8402094F8422084F8413084F8432084F842500320FFF770FF1A
S3251004D5600546012833D0002D4AD1012294F8443084F8442084F8453094F8463084F84620FA
S3251004D58094F8482084F8473084F8492084F8485030BD0120FFF77CFF020012D1012194F87F
S3251004D5A03E3084F83E1084F83F3094F8403084F8402094F8422084F8413084F8432084F820
S3251004D5C042100320FFF73CFF05460128CBD10020FFF75EFF0128C6D194F8443084F8453057
S3251004D5E094F84630002184F8441084F8473094F8482084F8461084F8492084F8481030BDBF
S3251004D6000020FFF745FF020018BF30BD012194F8443084F8441084F8453094F8463084F86F
S3251004D620462094F8482084F8473084F8492084F8481030BD70B440F61C64C0F60104A0792F
S3251004D640002301280DD1E079FF280ED20130E071C0B23C2809D2607A6188002840F0B780A1
S3251004D6607AE050B3E0793C28F5D3607A012871D140F2D830C0F6010090F8581021B980F836
S3251004D6805910012180F85810227904F128004FEA420C61882CF800100132D2B2642A28BF7D
S3251004D6A01A462271A28A914229D1227A0132D2B21E2A09D222720A2223E00120A071E371A5
S3251004D6C063722371618882E023720A25024622F8141B22F8121C22F8101C22F80E1C22F83B
S3251004D6E00C1C22F80A1C22F8081C22F8061C22F8041C22F8021C013DE9D10A2201E0237222
S3251004D7000A2230F814CB634430F8126C30F810CC9B19634430F80E6C30F80CCC9B19634413
S3251004D72030F80A6C30F808CC9B19634430F8066C30F804CC9B1930F8026C63449B19013A68
S3251004D740DFD148F21F52C5F2EB12A3FB0220400960813CE06188D0BB22794FEA420C04F10F
S3251004D76028002CF800100132D2B2642A38BF22712DD30122627223710A2230F814CB6344FF
S3251004D78030F8126C30F810CC9B19634430F80E6C30F80CCC9B19634430F80A6C30F808CCD3
S3251004D7A09B19634430F8066C30F804CC9B1930F8026C63449B19013ADFD148F21F52C5F270
S3251004D7C0EB12A3FB0220400960810120A075A18270BC70472DE9F04843F2AE14C0F601040C
S3251004D7E040F63C65C0F60105A078002101280CD1A1702170A38805F1D00CA5F8D0308E462D
S3251004D80010F0070200F0B480ABE02078012876D16078A388420005F1D00C22F80C30013090
S3251004D820C0B21E2828BF084660700322604630F8143BC91830F8124C30F8103C0919C918F1
S3251004D84030F80E4C30F80C3C0919C91830F80A4C30F8083C0919C91830F8064C30F8043CEA
S3251004D860091930F8024CC9180919013ADFD13CF8022B134660460446072734F808CB9C4550
S3251004D88038BF634634F806CC9C4538BF634634F804CC9C4538BF634634F802CC9C4538BF00
S3251004D8A06346013FE9D1B4F800C09C4538BF6346072630F808CB944588BF624630F806CCD4
S3251004D8C0944588BF624630F804CC944588BF624630F802CC944588BF6246013EE9D1008867
S3251004D8E0904288BF0246C91A891A880844F62511C2F29241A0FB01106880BDE8F0880028C7
S3251004D90018BFBDE8F08805F1D00C6078A38842008E4622F80C300130C0B283465FEADB0325
S3251004D9201CD062464FEAC30E32F8107BC91932F80E6C32F80C7C8919C91932F80A6C32F8F4
S3251004D940087C8919C91932F8066C32F8047C891932F8026CC9198919013BE5D11BF007029B
S3251004D96006D00CEB4E0333F802CB6144013AFAD1B1FBF0F1A9801E283CBF6070BDE8F088E8
S3251004D980012020706270BDE8F08810B440F63C64C0F6010443F2AE11C0F601010878002824
S3251004D9A014BF6088A08810BC704730B440F61C64C0F601042078012804D16178FF293CBF00
S3251004D9C0013161706288002140F2EF43D31A40F60C1C63450CD340F2D832C0F6010292F86A
S3251004D9E0380082F83900022082F83800218024E040F22153D21A40F6A8039A421DD240F239
S3251004DA00D832C0F6010292F838300125022B08BF002802D1257061700FE0012808D16078F3
S3251004DA2012280AD982F8393082F83850218004E018B982F8393082F8385030BC704710B527
S3251004DA4081B040F61C64C0F601040DF1020001210BF0F7FEBDF802006080FFF7EBFDA07D66
S3251004DA60012805D1FFF785FBFFF7F6FBFFF738FD01B010BD00B581B00DF1020001210BF084
S3251004DA80DBFEBDF8020043F2B211C0F601010880FFF7A0FE01B000BD10B440F62C64C0F662
S3251004DAA00104A078013805D30DD0012818D00020A07022E02088B0F5C86F15D340F6A44177
S3251004DAC088421AD904E0208840F6A441884202D90220A07011E040F2AE6188420DD30AE02B
S3251004DAE02088B0F5C86F02D20120A07005E040F63641884201D80020A07010BC704740F665
S3251004DB003C61C0F601010870704740F63C61C0F601010878704740F64261C0F601013220C2
S3251004DB20087070472DE9F00883B000F1FF328C4643F29A14C0F6010445F22010C1F20800A7
S3251004DB406D4690E80B0085E80B00D2B20027A079E61C012803D12780C4F80370A77040F617
S3251004DB60487BA35C02EB820558194000C0F6010B20F80BC0581CB15CC3B201291CD1052BC2
S3251004DB8028BF3B460BEB4501A35410466A460B8852F820004A88181810188A881018CA8817
S3251004DBA0098910180A184CF6CD40CCF6CC40A2FB0001890888B220E0EC469F4209D35CF8A6
S3251004DBC02250B5FBF3F5ADB2052B12D2A354284613E039460BEB450B5CF822503BF802CBCB
S3251004DBE0654401319942F9D3B5FBF3F5ADB2052BECD3A7540120B054284603B0BDE8F008C5
S3251004DC00704710B581B043F2B614C0F601040DF1020001210BF01AFEBDF80210E181012004
S3251004DC20FFF780FF208001B010BD10B581B043F2BA14C0F601040DF1020001210BF00BFE5D
S3251004DC40BDF8021061810220FFF76CFF608001B010BD10B581B043F2B214C0F601040DF176
S3251004DC60020001210BF0FCFDBDF8021061820320FFF758FF608001B010BD10B582B043F2CE
S3251004DC80B214C0F601040DF1020001210BF0DEFDBDF8021061820120FFF744FFA08001A824
S3251004DCA001210BF0D8FDBDF8041061820220FFF739FF60810DF1060001210BF0D1FDBDF8D7
S3251004DCC0061061820320FFF72DFFA188A1F10D0240F6B4218A422CBF01220022A27162891D
S3251004DCE060800D3A914294BF01210021E1710D3840F6B42188422CBF01200020207202B09E
S3251004DD0010BD2DE9F04C81B040F62C65C0F601050DF1020001210BF08FFDAC7ABDF802B0E0
S3251004DD20012C04D1E87AFF283CBF0130E87295F808A0BAF1010F04D1687AFF283CBF0130BE
S3251004DD406872FFF732FE01270026BAF1000F0ED1BBF54D7F0BD82F726E7240F2D8346E81B5
S3251004DD602888C0F60104B0F5967F4FD343E07CB940F2965083450BD3AF72EE7240F2D8346D
S3251004DD802E812888C0F60104B0F5967F3ED332E0BAF1010F11D1687A08280ED340F2D834A4
S3251004DDA0C0F6010494F83C0084F83D00288884F83C60B0F5967F29D31DE0012C02D1E87A30
S3251004DDC00A2808D240F2D8342888C0F60104B0F5967F1BD30FE040F2D834C0F6010494F858
S3251004DDE03C0084F83D0084F83C70FBF72DF92888B0F5967F0AD368460BF03EFD9DF8000014
S3251004DE0020B93846FBF7C4FA14202873617B207B012905D0012803D16073FEF763FB207BDE
S3251004DE2094F8601084F8611084F86070012840F0A1800DF101000BF01FFD9DF80100002845
S3251004DE4000F09880287B002840F0948094F8200043F2BE1584F82100C0F60105FEF75BFB39
S3251004DE6084F8200094F8220084F82300FEF75CFB84F8220094F8240084F82500FEF75DFB17
S3251004DE8084F82400FEF782FB2880FEF776FB40F6AD71C0F6010168800878012809D140F69B
S3251004DEA0EC50C0F60100867240F6AD70C0F60100067094F820100B291DD194F822300320FE
S3251004DEC0132B15D0A27FA07794F82400E277552815D0002918BF01291CD1A17F0220E177B1
S3251004DEE0A077FFF7CAFE94F82800402829D120E0E0770420A07794F824005528E9D1A17F84
S3251004DF000520E177A077FFF7B8FE94F82800402817D10EE0422904BF94F82200002802D1DE
S3251004DF20A17FE177A077FFF7A8FE94F82800402807D194F8260084F82700FEF707FB84F8E0
S3251004DF40260094F82A00012810D1207840F66871C0F601016070C878207001281CBFA078A6
S3251004DF60012803D1A07EE076A77606E0A07EE076A67602E0A07FE077A67701B0BDE8F08C3C
S3251004DF8010B440F66872C0F6010202EBC00002790024914208BFA0F8054024D082790132F5
S3251004DFA0D2B269B990F802C062450DD3847101224271027804718AB90122C270C17112E05A
S3251004DFC090F801C0624503D282714471C1710AE08471012242710278017112B9C470C171B6
S3251004DFE001E0C170C17110BC70474DF2F501C1F20401C9B20020FFF7C3BF70B581B040F6B4
S3251004E0003865C0F6010540F2D834C0F6010494F82A000026012819D10DF103000BF025FC88
S3251004E0209DF80310687881420AD16888013080B264280FD3A078E0700120A070304609E0E7
S3251004E040A078E0706970A670304603E0A078E0703046A670688001B070BD00B581B00DF158
S3251004E06003000BF010FC9DF8030001B000BD45F22C12C1F2080240F66870C0F60100136804
S3251004E080036093685168D26883604160C26043F2B211C0F6010100200874C860C880087239
S3251004E0A04FF4BA728A804A814A8040F2D831C0F60101A1F85000C1F80A00C1F80E00C1F819
S3251004E0C012008861C861C1F82200C1F82600C88501220A724A72C1F82A00252281F83020AD
S3251004E0E081F83120C1F85E0008878887A1F87200704745F22C12C1F2080240F66870C0F6CF
S3251004E10001001368036093685168D26883604160C26043F2B211C0F6010100200874C860FE
S3251004E120C88008724FF4BA728A804A814A8040F2D831C0F60101A1F85000C1F80A00C1F89D
S3251004E1400E00C1F812008861A1F86000C861C1F82200C1F8260048858887A1F87200704769
S3251004E16040F2D830C0F6010090F85E1040F25842C0F6010280F85F101179012918BF002186
S3251004E18080F85E10704710B540F2D834C0F6010494F82C0094F82D20012840F0928094F882
S3251004E1A05E10012948D1012A24D042F2107003F0A2F90146012003F0AFF942F2107003F089
S3251004E1C09AF90146022003F0A7F942F2107003F092F90146032003F09FF994F82C0084F83B
S3251004E1E02D0040F2E440C0F601008178C1700121817010BD94F85F00012859D042F21070D0
S3251004E20003F079F9012103F0BAF942F2107003F072F9022103F0B3F942F2107003F06BF9D8
S3251004E220032103F0ACF940F2E440C0F601008178C1700121817010BD608E012A20D003F0F5
S3251004E2405AF90146012003F067F9608E03F053F90146022003F060F9608E03F04CF9014647
S3251004E260032003F059F994F82C0084F82D0040F2E440C0F601008178C1700121817010BDA4
S3251004E280A28E824203D194F85F208AB181B903F032F9012103F073F9608E03F02CF9022154
S3251004E2A003F06DF9608E03F026F9032103F067F940F2E440C0F601008178C170012181702A
S3251004E2C010BD002A08BF10BD002818BF10BD012003F046F9022003F043F9032003F040F9DA
S3251004E2E040F2E440C0F601008178C1700021817094F82C0084F82D0010BD10B540F2D8348A
S3251004E300C0F6010494F82E0001286CD103F028F9022003F025F9032003F022F994F85E1096
S3251004E32094F82F0001292ED1012818D094F82E00012814D142F2107003F0DDF80146002023
S3251004E34003F0EAF894F82E0084F82F0040F2E440C0F60100017841700121017010BD94F846
S3251004E3605F00012836D042F2107003F0C4F8002103F005F940F2E440C0F601000178417049
S3251004E3800121017010BD012817D094F82E00012813D1608E03F0AFF80146002003F0BCF896
S3251004E3A094F82E0084F82F0040F2E440C0F60100017841700121017010BD608EA28E824265
S3251004E3C003D194F85F202AB121B903F094F8002103F0D5F840F2E440C0F6010001784170F8
S3251004E3E00121017010BD50B940F67E72C0F601021178022908BFBDE8104003F0B18094F89B
S3251004E4002F10002908BF10BD002818BF10BD03F0A7F840F2E440C0F6010001784170002130
S3251004E420017094F82E0084F82F0010BD10B540F2D834C0F6010494F82C0094F82D100128B7
S3251004E44040F08C8094F85E00002842D1012921D01E2003F04FF80146012003F05DF81E20C0
S3251004E46003F048F80146022003F056F81E2003F041F80146032003F04FF894F82C0084F863
S3251004E4802D0040F2E440C0F601008178C1700121817010BD94F85F00002856D01E2003F0B4
S3251004E4A029F8012103F06BF81E2003F023F8022103F065F81E2003F01DF8032103F05FF836
S3251004E4C040F2E440C0F601008178C1700121817010BD012921D0C82003F00CF801460120A9
S3251004E4E003F01AF8C82003F005F80146022003F013F8C82002F0FEFF0146032003F00CF886
S3251004E50094F82C0084F82D0040F2E440C0F601008178C1700121817010BD94F85F10012944
S3251004E52013D0012811D1C82002F0E4FF012103F026F8C82002F0DEFF022103F020F8C82016
S3251004E54002F0D8FF032103F01AF840F2E440C0F601008178C1700121817010BD002908BFA8
S3251004E56010BD002818BF10BD012002F0F9FF022002F0F6FF032002F0F3FF40F2E440C0F6C1
S3251004E58001008178C1700021817094F82C0084F82D0010BD10B540F2D834C0F6010494F8AC
S3251004E5A02E0094F82F10012855D194F85E0038BB012913D01E2002F09DFF0146002002F0EA
S3251004E5C0ABFF94F82E0084F82F0040F2E440C0F60100017841700121017010BD94F85F0090
S3251004E5E080B31E2002F086FF002102F0C8FF40F2E440C0F60100017841700121017010BDA8
S3251004E600012913D0C82002F075FF0146002002F083FF94F82E0084F82F0040F2E440C0F639
S3251004E6200100017841700121017010BD94F85F10012907D0012805D1C82002F05BFF0021E5
S3251004E64002F09DFF40F2E440C0F60100017841700121017010BD002908BF10BD002818BFBF
S3251004E66010BD02F07DFF40F2E440C0F60100017841700021017094F82E0084F82F0010BD4A
S3251004E68000B540F2D830C0F6010090F85E1040F25842C0F6010280F85F101179012918BFCD
S3251004E6A0002180F85E10FFF76EFDFFF726FE00BD40F67C73C0F6010340F2E441C0F6010113
S3251004E6C0887BC8730020887340F2D831C0F601010A7B83F828004A7391F82C20087381F826
S3251004E6E02D2091F82E2081F82C0081F82F2091F87E2081F82E0081F87F2081F87E005880BA
S3251004E70091F82A20587581F82B2091F8622081F82A0081F8632091F8282081F8620081F8AC
S3251004E720292081F82800D86118765883188418801871D8801872C3F80A0070470020704741
S3251004E7407047704730B540F6787440F2D832C0F60102C0F60104917A206801290BD045F2AB
S3251004E7605415C1F2080529460AF088FE206029460AF074FE0AE045F26C15C1F2080529463B
S3251004E7800AF07CFE206029460AF068FE2060012030BD40F67C73C0F6010340F2E440C0F623
S3251004E7A00100817BC1730021817340F2D830C0F6010090F8622080F8632090F82C2080F8B7
S3251004E7C0621080F82D2090F82E2080F82C1080F82F2090F87E2080F82E1080F87F2080F82C
S3251004E7E07E101960704710B440F67874C0F6010440F2D833C0F60103997A8A1E022A05D8E5
S3251004E80045F29C10C1F20800206006E0002021B945F28410C1F20800206010BC70477047A0
