S00F0000655F7267335F70655F7200001B
S3251004800002480349016000F0B7BF000008ED00E000840410FFFFFFFFFFFFFFFFFFFFFFFF88
S32510048020FFFFFFFFFFFFFFFFFFFFFFFFFFFFFFFFFFFFFFFFFFFFFFFFFFFFFFFFFFFFFFFF46
S32510048040FFFFFFFFFFFFFFFFFFFFFFFFFFFFFFFFFFFFFFFFFFFFFFFFFFFFFFFFFFFFFFFF26
S32510048060FFFFFFFFFFFFFFFFFFFFFFFFFFFFFFFFFFFFFFFFFFFFFFFFFFFFFFFFFFFFFFFF06
S32510048080FFFFFFFFFFFFFFFFFFFFFFFFFFFFFFFFFFFFFFFFFFFFFFFFFFFFFFFFFFFFFFFFE6
S325100480A0FFFFFFFFFFFFFFFFFFFFFFFFFFFFFFFFFFFFFFFFFFFFFFFFFFFFFFFFFFFFFFFFC6
S325100480C0FFFFFFFFFFFFFFFFFFFFFFFFFFFFFFFFFFFFFFFFFFFFFFFFFFFFFFFFFFFFFFFFA6
S325100480E0FFFFFFFFFFFFFFFFFFFFFFFFFFFFFFFFFFFFFFFFFFFFFFFFFFFFFFFFFFFFFFFF86
S32510048100FFFFFFFFFFFFFFFFFFFFFFFFFFFFFFFFFFFFFFFFFFFFFFFFFFFFFFFFFFFFFFFF65
S32510048120FFFFFFFFFFFFFFFFFFFFFFFFFFFFFFFFFFFFFFFFFFFFFFFFFFFFFFFFFFFFFFFF45
S32510048140FFFFFFFFFFFFFFFFFFFFFFFFFFFFFFFFFFFFFFFFFFFFFFFFFFFFFFFFFFFFFFFF25
S32510048160FFFFFFFFFFFFFFFFFFFFFFFFFFFFFFFFFFFFFFFFFFFFFFFFFFFFFFFFFFFFFFFF05
S32510048180FFFFFFFFFFFFFFFFFFFFFFFFFFFFFFFFFFFFFFFFFFFFFFFFFFFFFFFFFFFFFFFFE5
S325100481A0FFFFFFFFFFFFFFFFFFFFFFFFFFFFFFFFFFFFFFFFFFFFFFFFFFFFFFFFFFFFFFFFC5
S325100481C0FFFFFFFFFFFFFFFFFFFFFFFFFFFFFFFFFFFFFFFFFFFFFFFFFFFFFFFFFFFFFFFFA5
S325100481E0FFFFFFFFFFFFFFFFFFFFFFFFFFFFFFFFFFFFFFFFFFFFFFFFFFFFFFFFFFFFFFFF85
S32510048200FFFFFFFFFFFFFFFFFFFFFFFFFFFFFFFFFFFFFFFFFFFFFFFFFFFFFFFFFFFFFFFF64
S32510048220FFFFFFFFFFFFFFFFFFFFFFFFFFFFFFFFFFFFFFFFFFFFFFFFFFFFFFFFFFFFFFFF44
S32510048240FFFFFFFFFFFFFFFFFFFFFFFFFFFFFFFFFFFFFFFFFFFFFFFFFFFFFFFFFFFFFFFF24
S32510048260FFFFFFFFFFFFFFFFFFFFFFFFFFFFFFFFFFFFFFFFFFFFFFFFFFFFFFFFFFFFFFFF04
S32510048280FFFFFFFFFFFFFFFFFFFFFFFFFFFFFFFFFFFFFFFFFFFFFFFFFFFFFFFFFFFFFFFFE4
S325100482A0FFFFFFFFFFFFFFFFFFFFFFFFFFFFFFFFFFFFFFFFFFFFFFFFFFFFFFFFFFFFFFFFC4
S325100482C0FFFFFFFFFFFFFFFFFFFFFFFFFFFFFFFFFFFFFFFFFFFFFFFFFFFFFFFFFFFFFFFFA4
S325100482E0FFFFFFFFFFFFFFFFFFFFFFFFFFFFFFFFFFFFFFFFFFFFFFFFFFFFFFFFFFFFFFFF84
S32510048300FFFFFFFFFFFFFFFFFFFFFFFFFFFFFFFFFFFFFFFFFFFFFFFFFFFFFFFFFFFFFFFF63
S32510048320FFFFFFFFFFFFFFFFFFFFFFFFFFFFFFFFFFFFFFFFFFFFFFFFFFFFFFFFFFFFFFFF43
S32510048340FFFFFFFFFFFFFFFFFFFFFFFFFFFFFFFFFFFFFFFFFFFFFFFFFFFFFFFFFFFFFFFF23
S32510048360FFFFFFFFFFFFFFFFFFFFFFFFFFFFFFFFFFFFFFFFFFFFFFFFFFFFFFFFFFFFFFFF03
S32510048380FFFFFFFFFFFFFFFFFFFFFFFFFFFFFFFFFFFFFFFFFFFFFFFFFFFFFFFFFFFFFFFFE3
S325100483A0FFFFFFFFFFFFFFFFFFFFFFFFFFFFFFFFFFFFFFFFFFFFFFFFFFFFFFFFFFFFFFFFC3
S325100483C0FFFFFFFFFFFFFFFFFFFFFFFFFFFFFFFFFFFFFFFFFFFFFFFFFFFFFFFFFFFFFFFFA3
S325100483E0FFFFFFFFFFFFFFFFFFFFFFFFFFFFFFFFFFFFFFFFFFFFFFFFFFFFFFFFFFFFFFFF83
S3251004840000A40008008004100155081049540810495408104954081049540810AD540810A7
S32510048420AD540810AD540810AD54081011530810AD540810AD540810AD5408100D5108109A
S325100484400D5108100D5108100D5108100D5108100D5108100D5108100D5108100D51081052
S325100484600D5108100D5108100D5108100D5108100D5108100D5108100D5108100D51081032
S32510048480AD540810AD540810AD540810AD540810AD540810AD540810AD540810AD540810FA
S325100484A0AD540810AD540810AD540810AD540810AD540810AD540810AD540810AD540810DA
S325100484C0AD540810AD540810AD540810AD540810AD540810AD540810AD540810AD540810BA
S325100484E0AD540810AD540810AD540810AD540810AD540810AD540810AD540810AD5408109A
S32510048500AD540810AD540810AD540810AD540810AD540810AD540810AD540810AD54081079
S32510048520AD540810AD540810AD540810AD540810AD540810AD540810AD540810AD54081059
S32510048540AD540810AD540810AD540810AD540810AD540810AD540810AD540810AD54081039
S32510048560AD540810AD540810AD540810AD540810AD540810AD540810AD540810AD54081019
S32510048580AD540810AD540810AD540810AD540810AD540810AD540810AD540810AD540810F9
S325100485A0AD540810AD540810AD540810AD540810AD540810AD540810AD540810AD540810D9
S325100485C0AD540810AD540810AD540810AD540810AD540810AD540810AD540810AD540810B9
S325100485E0AD540810AD540810AD540810AD540810AD540810AD540810AD540810AD54081099
S32510048600AD540810AD540810AD540810AD540810AD540810AD540810AD540810AD54081078
S32510048620AD540810AD540810AD540810AD540810AD540810AD540810AD540810AD54081058
S32510048640AD540810AD540810AD540810AD540810AD540810AD540810AD540810AD54081038
S32510048660AD540810AD540810AD540810AD540810AD540810AD540810AD540810AD54081018
S32510048680AD540810AD540810AD540810AD540810AD540810AD540810AD540810AD540810F8
S325100486A0AD540810AD540810AD540810AD540810AD540810AD540810AD540810AD540810D8
S325100486C0AD540810AD540810AD540810AD540810AD540810AD540810AD540810AD540810B8
S325100486E0AD540810AD540810AD540810AD540810AD540810AD540810AD540810AD54081098
S32510048700AD540810AD540810AD540810AD540810AD540810AD540810AD540810AD54081077
S32510048720AD540810AD540810AD540810AD540810AD540810AD540810AD540810AD54081057
S32510048740AD540810AD540810AD540810AD540810AD540810AD540810AD540810AD54081037
S32510048760AD540810AD540810AD540810AD540810AD540810AD540810AD540810AD54081017
S32510048780AD540810AD540810AD540810AD540810AD540810AD540810AD540810AD540810F7
S325100487A0AD540810AD540810AD540810AD540810AD540810AD540810AD540810AD540810D7
S325100487C0AD540810AD540810AD540810AD540810AD540810AD540810AD540810AD540810B7
S325100487E0AD540810AD540810AD540810AD540810AD540810AD540810AD540810FFFFFFFFB4
S3251004880002000001000000FF17042020FFFFFFFF72E70200008004100F880410008D0410AA
S32510048820FFFF2010FFFFFFFFFFFFFFFFFFFFFFFFFFFFFFFFFFFFFFFFFFFFFFFFFFFFFFFF0C
S32510048840FFFFFFFFFFFFFFFFFFFFFFFFFFFFFFFFFFFFFFFFFFFFFFFFFFFFFFFFFFFFFFFF1E
S32510048860FFFFFFFFFFFFFFFFFFFFFFFFFFFFFFFFFFFFFFFFFFFFFFFFFFFFFFFFFFFFFFFFFE
S32510048880FFFFFFFFFFFFFFFFFFFFFFFFFFFFFFFFFFFFFFFFFFFFFFFFFFFFFFFFFFFFFFFFDE
S325100488A0FFFFFFFFFFFFFFFFFFFFFFFFFFFFFFFFFFFFFFFFFFFFFFFFFFFFFFFFFFFFFFFFBE
S325100488C0FFFFFFFFFFFFFFFFFFFFFFFFFFFFFFFFFFFFFFFFFFFFFFFFFFFFFFFFFFFFFFFF9E
S325100488E0FFFFFFFFFFFFFFFFFFFFFFFFFFFFFFFFFFFFFFFFFFFFFFFFFFFFFFFFFFFFFFFF7E
S32510048C000000020000800410FF880410008C0410FFFF2010FFFFFFFFFFFFFFFFFFFFFFFF47
S32510048C20FFFFFFFFFFFFFFFFFFFFFFFFFFFFFFFFFFFFFFFFFFFFFFFFFFFFFFFFFFFFFFFF3A
S32510048C40FFFFFFFFFFFFFFFFFFFFFFFFFFFFFFFFFFFFFFFFFFFFFFFFFFFFFFFFFFFFFFFF1A
S32510048C60FFFFFFFFFFFFFFFFFFFFFFFFFFFFFFFFFFFFFFFFFFFFFFFFFFFFFFFFFFFFFFFFFA
S32510048C80FFFFFFFFFFFFFFFFFFFFFFFFFFFFFFFFFFFFFFFFFFFFFFFFFFFFFFFFFFFFFFFFDA
S32510048CA0FFFFFFFFFFFFFFFFFFFFFFFFFFFFFFFFFFFFFFFFFFFFFFFFFFFFFFFFFFFFFFFFBA
S32510048CC0FFFFFFFFFFFFFFFFFFFFFFFFFFFFFFFFFFFFFFFFFFFFFFFFFFFFFFFFFFFFFFFF9A
S32510048CE0FFFFFFFFFFFFFFFFFFFFFFFFFFFFFFFFFFFFFFFFFFFFFFFFFFFFFFFFFFFFFFFF7A
S32510048D00FFFFFFFFFFFFFFFFFFFFFFFFFFFFFFFFFFFFFFFFFFFFFFFFFFFFFFFFFFFFFFFF59
S32510048D2030B40346104600248C420FD244F6D475C1F20E0513F8012B42401206D20D525B1D
S32510048D4082EA102080B201348C42F3D330BC70472DE9F00C01004FF0010000F0A1800C68E7
S32510048D60002C00F09D8065884FF6FF718D4218BF002D00F0958034F8091C0023AB4280F055
S32510048D808B8004EBC3067268B668B2F1FF3F1CBF002A964203D822888A427FD080E0B61A70
S32510048DA006F1010C5FEADC075DD044F6D476C1F20E0632F808AB8AEA010B4FEA0B6B4FEAAC
S32510048DC0DB5B3BF806B08BEA212181EA1A2A4FEA0A6A4FEADA5A3AF806B032F806AC8BEAA1
S32510048DE021218AEA010B4FEA0B6B4FEADB5B3BF806B08BEA212181EA1A2A4FEA0A6A4FEA44
S32510048E00DA5A3AF806B032F804AC8BEA21218AEA010B4FEA0B6B4FEADB5B3BF806B08BEA8F
S32510048E20212181EA1A2A4FEA0A6A4FEADA5A3AF806B032F802AC8BEA21218AEA010B4FEADD
S32510048E400B6B4FEADB5B3BF806B08BEA212181EA1A2A4FEA0A6A4FEADA5A3AF806A08AEA5E
S32510048E602121013FA5D11CF0070611D044F6D477C1F20E0712F801CB8CEA010C4FEA0C6C8F
S32510048E804FEADC5C3CF807C08CEA2121013EF1D10133AB42FFF475AF22888A4208BF0020FE
S32510048EA0BDE8F00C70472DE9F0444DF6D446C0F6000600214FF4887061F0EAF844F6802074
S32510048EC0C1F20E000024057B3470AC420FD22746D0F808A0380E0AEBC000FFF739FF08B1E1
S32510048EE00124347007F18077B5EB176FF2D80CB90220307000F01FF901214FF48870BDE81F
S32510048F00F04461F0C5B8FFF7CEBFF0B54DF6D446C0F60006022044F68021C1F20E01307095
S32510048F200C790025A54228BFF0BD0F68280E07EBC000FFF70DFF08B10120307005F180752C
S32510048F40B4EB156FF2D8F0BD00B566F08DFB002814BF0420032000BD4DF6D441C0F60001BC
S32510048F600878022808BF7047003818BF0120704701808FE218FF2FE106460F46904613F035
S32510048F8015FB4FF014004FF0010154F04DF948F69F75C1F20405A5F101057A46A2EB050588
S32510048FA09146002803D131463A4643460AE04AF20040C0F6000085464FF000014FF00002DC
S32510048FC04FF0000340F20200012817D308D04EF68850CEF20000046844F4700404600DE0D1
S32510048FE011EE500F40F4A00001EE500FBFF36F8FF8EE100A40F08040E8EE100A4FF0000404
S3251004900048F20040C1F20400814506DB40F20000C1F22100814500DC2C4645F20460C1F2F6
S325100490200800A0EB040000EB05004FF000044FF000054FF000063BF0FBFC00BFFDE70000FE
S3251004904096F028B896F050B810B540F22434C0F60104A17811B928208DF03CFD6178002915
S3251004906018BF10BD2720BDE810408DF033BD58B940F2D831C0F6010191F86E00012818BF8E
S325100490807047002065F098BF022818BF704740F2D831C0F6010191F86E00012818BF7047DA
S325100490A0022065F089BF022808BF002011F0A180012818BF7047002011F09FB800B540F28E
S325100490C0D831C0F6010191F86E00012804BF002065F072FF002065F053FF40F22431C0F6E8
S325100490E001010020087000BD00B5002011F081F840F2D831C0F6010191F86E00012804BFDA
S32510049100022065F059FF022065F03AFF40F22431C0F601010020087000BD40F23231C0F6D7
S32510049120010101200870704740F23231C0F6010102200870704770470120704740F23433FD
S32510049140C0F6010300205863986103F8100B43F80C0C03F8040CD862D86198619862D86055
S3251004916083F8300048F20001C1F20401196140F6FF028A181A6201F5406183E803004FF61E
S32510049180FF71C1F220015961042340F27831C0F6010140F29832C0F60102907001F8080B3C
S325100491A022F8080B21F8070C02F8030C01F8050C22F8050C21F8040C01F8020C22F8020CA6
S325100491C001F8010C013BE8D1704730B540F23434C0F601042078012805D16068B0F1FF3F4B
S325100491E001D201306060207B012805D12069B0F1FF3F01D201302061207A062888BF30BD0E
S325100492000FF20401D1E800F0041B38C3679EB60048F20000C1F20400206248F6FF00C1F24D
S325100492200400206348F60040C1F2040060614FF6FF70C1F2200060620120207230BD40F27C
S32510049240D831C0F6010191F84400012818BF30BDFFF774FF3AF015FB002818BF30BD206A60
S32510049260216B091AE0630131012020700020606061630220207230BD40F2D831C0F60101C7
S3251004928091F8440000287ED0616BE06B3AF004FBA8B96069616A091A8A0AC1F30901A163C3
S325100492A04FF48061A161A2620121E062E161002020612070606021730420207230BD6068D4
S325100492C048F6A041884238BF30BD0020207060600120207230BD40F2D831C0F6010191F81B
S325100492E0440000284FD0A169E06A3AF0D5FAE8B9E169A26A914204D920732061052020720A
S3251004930030BD606900F580606061E0620131E161914205D9A06B0130A0610420207230BDA0
S325100493204FF48060A0610420207230BD206948F6A041884238BF30BD0020207320610120A1
S32510049340207230BD40F29835C0F6010528463AF0B0FA002818BF30BD012084F8400029463F
S3251004936040F27830C0F6010020223BF04CFB0620207230BD40F2D831C0F6010191F8440029
S32510049380002818BF30BDFFF7D9FE0020207230BD11F049B840F2CC30C0F601008178C1704A
S325100493A00121027881704270017070472DE9F04C00274FF0010A40F2B83B40F2BC36C0F66A
S325100493C00106C0F6010B306840F26045C0F6010510F0010F0DD020F0010195F84E00316014
S325100493E085F84F0085F84E70084611F0020F0FD024E0DBF8000010F0010F19D095F84E0062
S3251004940085F84F00306885F84EA010F0020F15D1DBF8000010F0020F2DD095F8500085F831
S325100494205100306885F850A010F0040F13D028E028786870306810F0020FE9D020F00201D1
S3251004944095F85000316085F8510085F85070084611F0040F15D1DBF8000010F0040F29D052
S3251004946095F8520085F85300306885F852A010F0080F13D026E0A878E870306810F0040FF9
S32510049480E9D020F0040195F85200316085F8530085F85270084611F0080F13D1DBF8000048
S325100494A010F0080F18D0B5F85400A5F85600A5F854A015E028796871A879E871306810F08D
S325100494C0080FEBD020F008003060B5F85400A5F85600A5F8547003E028896881A889E8818C
S325100494E040F2D834C0F60104E08E208708F096F9E086608FA08708F05AFB6087306810F075
S32510049500100F0DD020F0100195F85800316085F8590085F85870084611F0200F0FD024E022
S32510049520DBF8000010F0100F19D095F8580085F85900306885F858A010F0200F15D1DBF886
S32510049540000010F0200F2DD095F85A0085F85B00306885F85AA010F0400F13D028E0287C19
S325100495606874306810F0200FE9D020F0200195F85A00316085F85B0085F85A70084611F05E
S32510049580400F15D1DBF8000010F0400F2DD095F85C0085F85D00306885F85CA010F0800FFA
S325100495A013D028E0A87CE874306810F0400FE9D020F0400195F85C00316085F85D0085F864
S325100495C05C70084611F0800F15D1DBF8000010F0800F2DD095F85E0085F85F00306885F8A6
S325100495E05EA010F4807F13D028E0287D6875306810F0800FE9D020F0800195F85E003160F6
S3251004960085F85F0085F85E70084611F4807F15D1DBF8000010F4807F2DD095F8600085F894
S325100496206100306885F860A010F4007F13D028E0A87DE875306810F4807FE9D020F4807151
S3251004964095F86000316085F8610085F86070084611F4007F15D1DBF8000010F4007F2DD03C
S3251004966095F8620085F86300306885F862A010F4806F13D028E0287E6876306810F4007F6D
S32510049680E9D020F4007195F86200316085F8630085F86270084611F4806F15D1DBF80000C8
S325100496A010F4806F2DD095F8640085F86500306885F864A010F4006F13D028E0A87EE876D2
S325100496C0306810F4806FE9D020F4806195F86400316085F8650085F86470084611F4006FC0
S325100496E015D1DBF8000010F4006F31D095F8660085F86700306885F866A010F4805F13D06B
S325100497002CE0287F6877306810F4006FE9D020F4006195F86600316085F8670085F86670A9
S32510049720084611F4805F19D1DBF8000010F4805F38D095F8680085F8690040F2C430C0F67E
S325100497400100016885F868A011F0400F17D035E0A87FE877306810F4805FE5D020F480501A
S32510049760306095F8680085F8690040F2C430C0F60100016885F8687011F0400F1ED140F258
S32510049780C032C0F60102116811F0400F33D095F86A1085F86B10316885F86AA011F4005FB5
S325100497A019D030E095F8200085F8210040F2C430C0F60100016811F0400FE0D021F04001B3
S325100497C0016095F86A1085F86B10316885F86A7011F4005F17D1DBF8001011F4005F2FD08D
S325100497E095F86C1085F86D10316885F86CA011F4804F15D02CE095F8221085F8231031685D
S3251004980011F4005FE7D021F4005295F86C10326085F86D1085F86C70114612F4804F17D1AA
S32510049820DBF8001011F4804F32D095F86E1085F86F10016885F86EA011F0010F15D03BE049
S3251004984095F8261085F82710316811F4804FE7D021F48041316095F86E1085F86F1001687C
S3251004986085F86E7011F0010F26D140F2C032C0F60102116811F0010F3ED095F8701085F86C
S325100498807110016885F870A011F0020F21D03BE095F8281085F8291095F82C1085F82D101B
S325100498A095F82E1085F82F1095F82A1085F82B10016811F0010FD8D021F0010295F8701045
S325100498C0026085F8711085F87070114612F0020F1AD140F2C032C0F60102116811F0020FF4
S325100498E032D095F8721085F87310016885F872A011F0040F15D02FE095F8301085F83110B2
S32510049900016811F0020FE4D021F0020295F87210026085F8731085F87270114612F0040FAD
S325100499201AD140F2C032C0F60102116811F0040F32D095F8741085F87510016885F874A0A9
S3251004994011F0080F15D02FE095F8321085F83310016811F0040FE4D021F0040295F87410F9
S32510049960026085F8751085F87470114612F0080F1AD140F2C032C0F60102116811F0080F3F
S3251004998032D095F8761085F87710016885F876A011F0100F15D02FE095F8341085F83510F1
S325100499A0016811F0080FE4D021F0080295F87610026085F8771085F87670114612F0100FE9
S325100499C01AD140F2C032C0F60102116811F0100F32D095F8781085F87910016885F878A0F1
S325100499E011F0200F15D02FE095F8361085F83710016811F0100FE4D021F0100295F878101D
S32510049A00026085F8791085F87870114612F0200F1AD140F2C032C0F60102116811F0200F66
S32510049A2032D095F87A1085F87B10016885F87AA011F0800F15D02FE095F8381085F83910CC
S32510049A40016811F0200FE4D021F0200295F87A10026085F87B1085F87A70114612F0800F9C
S32510049A601AD140F2C032C0F60102116811F0800F2FD095F87C1085F87D10016885F87CA0D7
S32510049A8011F4807F15D02CE095F83A1085F83B10016811F0800FE4D021F0800295F87C10BF
S32510049AA0026085F87D1085F87C70114612F4807F17D140F2C031C0F60101086810F4807F25
S32510049AC01AD095F87E0085F87F0085F87EA0BDE8F08C95F83C1085F83D10016811F4807FAF
S32510049AE0E7D021F48071016095F87E0085F87F0085F87E70BDE8F08C95F83E0085F83F0014
S32510049B0095F8400085F84100BDE8F08C30B440F20851C0F601010A78012A04D14878FF28EF
S32510049B203CBF0130487040F2604040F2C833C0F60103C0F601001C68002514F0010F0AD020
S32510049B4024F001021A6090F846004D70002818BF0120087016E0012A02D14A78322A08D24B
S32510049B6090F8442090F8463080F8452080F8473008E080F8445080F846500D8080F8455079
S32510049B8080F8475030BC704770B440F61854C0F601042378012B06D160884FF6FF71884273
S32510049BA03CBF0130608000212079012501280FD028BF21712ED240F2CC30C0F601000278BF
S32510049BC0012A27D12270618045700170257121E040F2CC30C0F6010082781AB922706180F3
S32510049BE0217117E00678012E04D126706180457001700FE0012B0DD16388B3F5FA7F09D3C2
S32510049C0021706180C27040F6D553C0F6010381701D70217170BC704730B400240D46EB082D
S32510049C2015D001464FF0FF32DC0001F8082B01F8072C01F8062C01F8052C01F8042C01F8C3
S32510049C40032C01F8022C01F8012C013BEDD115F0070106D020184FF0FF3200F8012B01398B
S32510049C60FBD130BC704770B400251646F40824D002460B46E50012F808CB03F808CB12F893
S32510049C8007CC03F807CC12F806CC03F806CC12F805CC03F805CC12F804CC03F804CC12F80A
S32510049CA003CC03F803CC12F802CC03F802CC12F801CC03F801CC013CDDD116F0070207D0E0
S32510049CC02818691810F8013B01F8013B013AF9D170BC7047F0B500EBC00043F26C01C0F6A0
S32510049CE0010101EB80046169201D8847A1786071012904D300F095800020A070F0BD00280D
S32510049D0018BFF0BD2079012808BFF0BD052840D1A668E7684FF0FF30E070257C0020EB0862
S32510049D2024D031463A46D80011F808CB02F808CB11F807CC02F807CC11F806CC02F806CC4D
S32510049D4011F805CC02F805CC11F804CC02F804CC11F803CC02F803CC11F802CC02F802CC61
S32510049D6011F801CC02F801CC013BDDD115F007014DD08219C01912F8013B00F8013B0139F0
S32510049D80F9D1E169E0688847E071002818BFF0BD44E02078002808BFF0BD002121704FF038
S32510049DA0FF30E070E668257CA768EB0824D030463A46D90010F808CB02F808CB10F807CCD3
S32510049DC002F807CC10F806CC02F806CC10F805CC02F805CC10F804CC02F804CC10F803CCD9
S32510049DE002F803CC10F802CC02F802CC10F801CC02F801CC013BDDD115F0070007D08A19D6
S32510049E00C91912F8013B01F8013B0138F9D1E169E0688847E071002818BFF0BD0120A07039
S32510049E20F0BD207902281CBF0020A070F0BD10B543F20804C0F601042078FFF74BFF2278AD
S32510049E4043F26C0102EBC200C0F6010101EB8000C078C0B9501CC0B207280ED02070C87807
S32510049E6080B340F68050C0F601000178417000210170BDE8104065F0D1B800202070C87859
S32510049E800028EED11EE001281CBF032805280FD16078013804D36070C8780028E1D111E0C4
S32510049EA003206070501C2070C8780028D9D109E004381CBF023802289CBF07202070C878D1
S32510049EC00028CED191F827000028CAD191F84B000028C6D191F86F000028C2D191F89300CC
S32510049EE00028BED191F8B7000028BAD191F8DB000028B6D140F68050C0F6010001784170A4
S32510049F000121017065F08AF8BDE8104003F067B9F0B500EBC00043F26C03C0F6010303EB19
S32510049F208003DA70062918BF0C2940F0A480012A18BF032A61D1DF681D7C0024EA0815D06F
S32510049F4038464FF0FF31D40000F8081B00F8071C00F8061C00F8051C00F8041C00F8031C8E
S32510049F6000F8021C00F8011C013AEDD115F0070006D0E1194FF0FF3201F8012B0138FBD12D
S32510049F809E681D7CDF68EC0824D031463A46E00011F808CB02F808CB11F807CC02F807CCB0
S32510049FA011F806CC02F806CC11F805CC02F805CC11F804CC02F804CC11F803CC02F803CCF7
S32510049FC011F802CC02F802CC11F801CC02F801CC013CDDD115F0070100F0AB808219C019A4
S32510049FE012F801CB00F801CB0139F9D1012018705878012818BFF0BDA1E0052A40F09B8088
S3251004A0009E68DF681D7C0020EC0824D031463A46E00011F808CB02F808CB11F807CC02F8E2
S3251004A02007CC11F806CC02F806CC11F805CC02F805CC11F804CC02F804CC11F803CC02F872
S3251004A04003CC11F802CC02F802CC11F801CC02F801CC013CDDD115F007016CD08219C01933
S3251004A06012F801CB00F801CB0139F9D15878012818BFF0BD63E007295DD1012A5BD1DF686C
S3251004A0801D7C0024EA0815D038464FF0FF31D40000F8081B00F8071C00F8061C00F8051CE8
S3251004A0A000F8041C00F8031C00F8021C00F8011C013AEDD115F0070006D0E1194FF0FF32E7
S3251004A0C001F8012B0138FBD19E681D7CDF68EC0824D031463A46E00011F808CB02F808CBEE
S3251004A0E011F807CC02F807CC11F806CC02F806CC11F805CC02F805CC11F804CC02F804CCAE
S3251004A10011F803CC02F803CC11F802CC02F802CC11F801CC02F801CC013CDDD115F0070150
S3251004A12007D08219C01912F801CB00F801CB0139F9D1012018705878012818BFF0BD0020D6
S3251004A1405870196AD878BDE8F040084743F26C03C0F6010300EBC00003F8201003EB800084
S3251004A160C26070477047704770477047704770477047704740F6A051C0F6010100200870BD
S3251004A180488040F2EC41C0F601018A7DCA75887540F2D831C0F6010191F87C2081F87D2055
S3251004A1A081F87C007047002070477047704730B540F2EC42C0F601020020917B40F694544C
S3251004A1C0C0F60104022929D140F26041C0F6010191F84020022A18BF30BD91F841102068BF
S3251004A1E002290DD045F2E475C1F2080529460FF083FE206029460FF06FFE2060012030BD15
S3251004A20045F26465C1F2080529460FF075FE206029460FF061FE2060012030BD052918BFA3
S3251004A22030BD40F2D832C0F6010292F88010012918BF30BD40F26042C0F6010292F84010B3
S3251004A240022918BF30BD45F61405C1F20805206829460FF051FE206029460FF03DFE2060F3
S3251004A260012030BD40F6A051C0F60101012008700020488040F2EC40C0F60100817DC1750D
S3251004A2800421817540F2D830C0F6010090F87C1080F87D10072180F87C10704740F2D8335F
S3251004A2A0C0F6010393F8781040F69452C0F60102072905D145F2C460C1F20800106070479F
S3251004A2C0032905D145F2DC60C1F20800106070470020082905D145F29460C1F20800106090
S3251004A2E07047092905D145F2AC60C1F2080010607047002918BF704745F27C60C1F20800DB
S3251004A30010607047704740F6A051C0F60101002008704880704740F26041C0F6010191F83B
S3251004A32041200020012A03D091F84010012907D040F2EC42C0F60102917B022908BF7047DC
S3251004A34030B545F24C6540F69454C0F60104C1F20805206829460FF0CFFD206029460FF0CD
S3251004A360BBFD20600120BDE8304070477047002070477047704730B540F69454C0F60104E4
S3251004A380E18964290ED345F2F465C1F20805206829460FF0B1FD206029460FF09DFD2060CF
S3251004A3A0012030BD002030BD7047002070477047704730B540F69454C0F6010440F2D83173
S3251004A3C0C0F60101002091F8793091F878207BB172B945F27C65C1F20805206829460FF013
S3251004A3E08BFD206029460FF077FD2060012030BD072A0ED145F2C465C1F2080520682946A4
S3251004A4000FF07AFD206029460FF066FD2060012030BDE389642B28BF082A18BF30BD40F2C3
S3251004A4206042C0F6010292F83D3092F83C20934206D191F87F2091F87E108A4208BF30BD5F
S3251004A44045F2F465C1F20805206829460FF054FD206029460FF040FD2060012030BD7047DB
S3251004A460002070477047704730B540F69454C0F6010440F2D831C0F60101002091F879307A
S3251004A48091F878207BB172B945F27C65C1F20805206829460FF030FD206029460FF01CFD28
S3251004A4A02060012030BD032A0ED145F2DC65C1F20805206829460FF01FFD206029460FF0B0
S3251004A4C00BFD2060012030BDE389642B28BF092A18BF30BD40F26042C0F6010292F83F306D
S3251004A4E092F83E20934206D191F87B2091F87A108A4208BF30BD45F2F465C1F2080520681F
S3251004A50029460FF0F9FC206029460FF0E5FC2060012030BD7047002070477047704730B580
S3251004A52040F69454C0F6010440F2D831C0F6010191F87820012A0ED145F27C65C1F2080532
S3251004A540206829460FF0D8FC206029460FF0C4FC2060012030BDE3890020642B28BF072AA8
S3251004A56018BF30BD40F26042C0F6010292F83F3092F83E20934206D191F87B2091F87A10AC
S3251004A5808A4208BF30BD45F2F465C1F20805206829460FF0B1FC206029460FF09DFC206027
S3251004A5A0012030BD7047002070477047704730B540F69454C0F6010440F2D831C0F60101C6
S3251004A5C091F8792000208AB191F8782072B945F27C65C1F20805206829460FF08DFC2060C1
S3251004A5E029460FF079FC2060012030BDE289642A24BF91F87820032A18BF30BD40F260420E
S3251004A600C0F6010292F83D3092F83C20934206D191F87F2091F87E108A4208BF30BD45F2E8
S3251004A620F465C1F20805206829460FF065FC206029460FF051FC2060012030BD40F6A051A0
S3251004A640C0F601010120087000204880704740F2D832C0F6010292F8781040F69453C0F616
S3251004A660010340F26040C0F60100072918BF092904D190F83E20042A01D107E0032918BF55
S3251004A680082908D190F83C20042A04D145F23C70C1F208003BE0072918BF092904D190F860
S3251004A6A03E20032A01D107E0032918BF082908D190F83C20032A04D145F25470C1F2080093
S3251004A6C025E0072918BF092904D090F83E20052A06D118E090F83E20022A18BF052A12D070
S3251004A6E0032918BF082908D090F83C0005280AD045F20C70C1F2080009E090F83C00022824
S3251004A70018BF0528F4D145F22470C1F2080018607047704740F6A051C0F601010020087073
S3251004A720488070470020704740F6A051C0F6010100200870488040F2EC40C0F60100817D57
S3251004A740C17501218175704745F26C7040F69451C0F60101C1F2080008607047704740F62D
S3251004A760A051C0F60101002008704880704730B540F69454C0F60104E2880020642A17D33F
S3251004A78040F2EC43C0F60103997B05290ED145F61405C1F20805206829460FF0ADFB206031
S3251004A7A029460FF099FB2060012030BD02290BD140F26041C0F6010191F84130012B12D055
S3251004A7C091F8401001290ED145F24C65C1F20805206829460FF090FB206029460FF07CFBEF
S3251004A7E02060012030BD642A38BF30BD45F22475C1F20805206829460FF07EFB2060294651
S3251004A8000FF06AFB2060012030BD40F2EC40C0F60100817DC17502218175704710B440F619
S3251004A8209454C0F6010440F2D830C0F6010090F87A10032919BF90F87E00032845F28470F8
S3251004A840C1F208001CBF45F29C70C1F20800206010BC7047704740F6A051C0F60101002091
S3251004A86008704880704730B540F69454C0F60104E18964290ED345F25475C1F208052068E9
S3251004A88029460FF039FB206029460FF025FB2060012030BD002030BD40F2EC40C0F601003E
S3251004A8A0817DC17504218175704710B440F69454C0F6010440F2D830C0F6010090F87A10D8
S3251004A8C0072919BF90F87E00072845F2E470C1F208001CBF45F2FC70C1F20800206010BC56
S3251004A8E07047704740F6A051C0F60101002008704880704730B540F69454C0F60104E189B2
S3251004A90064290ED345F20C75C1F20805206829460FF0F2FA206029460FF0DEFA20600120EE
S3251004A92030BD002030BD40F2EC40C0F60100817DC17503218175704710B440F69454C0F651
S3251004A940010440F2D830C0F6010090F87A10052919BF90F87E00052845F2B470C1F2080086
S3251004A9601CBF45F2CC70C1F20800206010BC7047704740F6A051C0F60101002008704880BB
S3251004A980704730B540F69454C0F60104E18964290ED345F23C75C1F20805206829460FF0B2
S3251004A9A0ABFA206029460FF097FA2060012030BD002030BD40F69851C0F60101012008704E
S3251004A9C00020488040F2D830C0F6010090F87C1080F87D10082180F87C10704700207047B0
S3251004A9E0704740F69851C0F6010100200870488070470020704740F6A051C0F601010120C1
S3251004AA0008700020488040F2D830C0F6010090F87C1080F87D10032180F87C1070470020B3
S3251004AA207047704740F6A051C0F6010100200870488070470020704740F69C52C0F60102E4
S3251004AA40002050801071D080012140F2D830C0F60100117090F87C1080F87D10022180F8D3
S3251004AA607C10704700207047704740F69C51C0F60101002008704880704730B540F69454F6
S3251004AA80C0F60104618964290ED345F28475C1F20805206829460FF02FFA206029460FF08C
S3251004AAA01BFA2060012030BD002030BD40F6A051C0F60101012008700020488040F2D83032
S3251004AAC0C0F6010090F87C1080F87D10052180F87C10704700207047704740F6A051C0F640
S3251004AAE0010100200870488070470020704740F69C52C0F60102002050801071D08001218C
S3251004AB0040F2D830C0F60100117090F87C1080F87D10042180F87C10704700207047704722
S3251004AB2040F69C51C0F60101002008704880704730B540F69454C0F60104618964290ED3F3
S3251004AB4045F2B475C1F20805206829460FF0D4F9206029460FF0C0F92060012030BD0020A3
S3251004AB6030BD40F6A051C0F60101012008700020488040F2D830C0F6010090F87C1080F8F1
S3251004AB807D10072180F87C10704700207047704740F6A051C0F601010020087048807047A7
S3251004ABA00020704740F69C52C0F60102002050801071D080012140F2D830C0F60100117072
S3251004ABC090F87C1080F87D10062180F87C10704700207047704740F69C51C0F601010020D7
S3251004ABE008704880704730B540F69454C0F60104618964290ED345F2E475C1F20805206856
S3251004AC0029460FF079F9206029460FF065F92060012030BD002030BD40F69C51C0F6010178
S3251004AC20012008700020488040F2EC40C0F60100817DC1750621817540F2D830C0F6010022
S3251004AC4090F87C1080F87D10092180F87C10704740F2D833C0F6010393F8781040F69452B6
S3251004AC60C0F60102072905D145F67400C1F2080010607047032905D145F68C00C1F20800E6
S3251004AC80106070470020082905D145F64400C1F2080010607047092905D145F65C00C1F299
S3251004ACA0080010607047002918BF704745F62C00C1F2080010607047704740F69C51C0F6BB
S3251004ACC00101002008704880704740F2D831C0F6010191F881200020002A08BF704791F8D3
S3251004ACE08010002918BF704730B545F24C6540F69454C0F60104C1F20805206829460FF097
S3251004AD00FBF8206029460FF0E7F820600120BDE8304070477047002070477047704730B50B
S3251004AD2040F69454C0F60104618964290ED345F6A405C1F20805206829460FF0DDF82060D9
S3251004AD4029460FF0C9F82060012030BD002030BD70470020704740F69C51C0F601014888D6
S3251004AD60642838BF704740F2D830C0F6010090F87C1080F87D100A2180F87C10704740F659
S3251004AD809C51C0F601014888642838BF704740F2D830C0F6010090F87C1080F87D100A21B5
S3251004ADA080F87C107047704730B540F69454C0F6010440F2D832C0F6010292F8781092F8B8
S3251004ADC0792000207AB171B945F62C05C1F20805206829460FF090F8206029460FF07CF83F
S3251004ADE02060012030BD07290ED145F67405C1F20805206829460FF07FF8206029460FF0CD
S3251004AE006BF82060012030BD6289642A28BF082918BF30BD40F26042C0F6010292F83D106E
S3251004AE2092F83C20022903D0022A11D0032903D0032A0DD0042903D0042A09D0012904D0F9
S3251004AE40012A05D0052908BF30BD052A18BF30BD45F6A405C1F20805206829460FF04CF825
S3251004AE60206029460FF038F82060012030BD70470020704740F69C51C0F601014888642847
S3251004AE8038BF704740F2D830C0F6010090F87C1080F87D100A2180F87C107047704730B55E
S3251004AEA040F69454C0F6010440F2D832C0F6010292F8781092F8792000207AB171B945F6C5
S3251004AEC02C05C1F20805206829460FF015F8206029460FF001F82060012030BD03290ED1E4
S3251004AEE045F68C05C1F20805206829460FF004F8206029460EF0F0FF2060012030BD628965
S3251004AF00642A28BF092918BF30BD40F26042C0F6010292F83F1092F83E20022903D0022A34
S3251004AF2011D0032903D0032A0DD0042903D0042A09D0012904D0012A05D0052908BF30BD26
S3251004AF40052A18BF30BD45F6A405C1F20805206829460EF0D1FF206029460EF0BDFF206052
S3251004AF60012030BD70470020704740F69C51C0F601014888642838BF704740F2D830C0F646
S3251004AF80010090F87C1080F87D100A2180F87C107047704730B540F69454C0F6010440F2F0
S3251004AFA0D831C0F6010191F8792000208AB191F8782072B945F62C05C1F2080520682946CA
S3251004AFC00EF09AFF206029460EF086FF2060012030BD6289642A24BF91F87810072918BF4C
S3251004AFE030BD40F26042C0F6010292F83F1092F83E20022903D0022A11D0032903D0032AC5
S3251004B0000DD0042903D0042A09D0012904D0012A05D0052908BF30BD052A18BF30BD45F624
S3251004B020A405C1F20805206829460EF065FF206029460EF051FF2060012030BD7047002092
S3251004B040704740F69C51C0F601014888642838BF704740F2D830C0F6010090F87C1080F8BD
S3251004B0607D100A2180F87C107047704730B540F69454C0F6010440F2D831C0F6010191F852
S3251004B080792000208AB191F8782072B945F62C05C1F20805206829460EF02EFF2060294619
S3251004B0A00EF01AFF2060012030BD6289642A24BF91F87810032918BF30BD40F26042C0F6EA
S3251004B0C0010292F83D1092F83C20022903D0022A11D0032903D0032A0DD0042903D0042A54
S3251004B0E009D0012904D0012A05D0052908BF30BD052A18BF30BD45F6A405C1F2080520685E
S3251004B10029460EF0F9FE206029460EF0E5FE2060012030BD40F69852C0F60102002050808A
S3251004B1201071D080012140F2EC40C0F601001170817DC1750521817540F2D830C0F601002B
S3251004B14090F87C1080F87D100B2180F87C10704700207047704740F69851C0F60101002050
S3251004B16008704880704730B540F69454C0F60104E188642933D340F2EC42C0F60102917BDF
S3251004B180206802290DD145F26465C1F2080529460EF0B2FE206029460EF09EFE20600120FD
S3251004B1A030BD05290DD045F24C65C1F2080529460EF0A2FE206029460EF08EFE20600120AE
S3251004B1C030BD45F6BC05C1F2080529460EF094FE206029460EF080FE2060012030BD002094
S3251004B1E030BD40F69C51C0F60101012008700020488040F2EC40C0F60100817DC17506217C
S3251004B200817540F2D830C0F6010090F87C1080F87D10092180F87C107047002070477047A1
S3251004B22040F69C51C0F60101002008704880704730B540F69454C0F60104618964290ED3EC
S3251004B24045F6A405C1F20805206829460EF054FE206029460EF040FE2060012030BD002010
S3251004B26030BD10B440F6A454C0F6010440F26041C0F60101A27891F83C0091F83D1012B117
S3251004B28002290AD005E0012903D0012813D0022903D002280FD0032903D003280BD0042968
S3251004B2A003D0042807D0052903D0052803D0062904D0062802D10120A07005E0012A03D184
S3251004B2C011B1002808BFA07010BC704710B440F6A454C0F6010440F26041C0F601016278FE
S3251004B2E091F83E0091F83F1012B102290AD005E0012903D0012813D0022903D002280FD0D8
S3251004B300032903D003280BD0042903D0042807D0052903D0052803D0062904D0062802D106
S3251004B3200120607005E0012A03D111B1002808BF607010BC704710B440F6A454C0F601046D
S3251004B340617840F2D830C0F60100012909D1A2789AB990F8781080F87910072180F878105F
S3251004B3602EE051B9A278012A07D190F8781080F87910032180F8781022E090F87820072AF6
S3251004B3800AD1012915D1A178012919D180F87920092180F8781013E0032A08BF012908D156
S3251004B3A0A17801290CD180F87920082180F8781006E029B9A17819B980F8792080F8781055
S3251004B3C010BC704710B440F6A454C0F6010440F2D830E178C0F60100013905D315D00129B8
S3251004B3E00CD00020E0704BE090F8821080F88310002180F882100120E07041E090F87D10C5
S3251004B40090F87C200A2912D00DE090F87D1090F87C20092903D0092A32D00B2903D00B2A3D
S3251004B4202ED00A2903D00A2A21D0082903D0082A1DD0072903D0072A19D0062903D0062A57
S3251004B44015D0052903D0052A11D0042903D0042A0DD0032903D0032A09D0022903D0022AA2
S3251004B46005D0012902D0012A01D049B142B990F8821080F88310002180F882100120E0702F
S3251004B48010BC704710B540F6A854C0F6010440F2D8312078C0F60101013805D30ED00128BA
S3251004B4A020D00020207010BD91F8800081F88100002081F880000120207010BD91F885005D
S3251004B4C0012808BF10BD91F88400012818BF10BD91F8800081F88100012081F8800002207C
S3251004B4E0207010BD91F8830010B191F8820058B191F88500022808BF10BD91F884000228F1
S3251004B50018BF10BD91F8820081F8830091F8800081F88100002081F8800006F04EFD0120E8
S3251004B520207010BD10B540F69454C0F60104207B012806D1E0894FF6FF7188423CBF013047
S3251004B540E081207A012806D160894FF6FF7188423CBF013060812079012806D1E0884FF61B
S3251004B560FF7188423CBF0130E080FFF7E4FEFFF778FEFFF7ABFEFFF725FFFFF783FF207CDA
S3251004B58001280DD028BF10BD45F24C61C1F20801216008460EF0A0FC20600120207410BDCC
S3251004B5A02068BDE810400EF0BDBC40F2D830C0F6010090F8661040F26042C0F6010280F889
S3251004B5C067101179012918BF002180F86610704730B540F2D834C0F6010494F82C000128CA
S3251004B5E040F0D180002006F0E8FC94F82C00012840F0C98040F6EF72C0F601021178012959
S3251004B6003AD194F8660001281CD142F2341006F09FFC0146012006F0ACFC42F2341006F080
S3251004B62097FC0146022006F0A4FC42F2341006F08FFC0146032006F09CFC94F82C0084F839
S3251004B6402D0030BDE08E06F083FC0146012006F090FCE08E06F07CFC0146022006F089FC29
S3251004B660E08E06F075FC0146032006F082FC94F82C0084F82D0030BD002940F0848094F8C6
S3251004B680660040F2EC45C0F60105012864D1A87D04281CD142F2341006F05AFC0146012043
S3251004B6A006F067FC42F2341006F052FC0146022006F05FFC42F2341006F04AFC0146032083
S3251004B6C006F057FCA878E8700120A87030BD012835D002280CD142F2341006F039FC01464A
S3251004B6E0012006F046FCA878E8700120A87030BD03280CD142F2341006F02AFC0146022034
S3251004B70006F037FCA878E8700120A87030BD94F86700012832D040F26041C0F6010191F816
S3251004B7203E0003282AD142F2341006F011FC022106F052FCA878E8700120A87030BD06F015
S3251004B7403CFC022006F039FC032006F036FCA878E8700120A87030BDE08E06F0F9FB0121E7
S3251004B76006F03AFCE08E06F0F3FB022106F034FCE08E06F0EDFB032106F02EFCA878E870E0
S3251004B7800120A87030BD94F82D10002908BF30BD002818BF30BD012006F00FFC022006F09D
S3251004B7A00CFC032006F009FC40F2EC41C0F601018878C8700020887094F82C0084F82D0081
S3251004B7C030BD39B9C82243F26811C0F6010112FB00107047012918BF7047C82247F610213C
S3251004B7E0C0F6010112FB0010704730B5044640F6AC55C0F6010529786870814204D02870D9
S3251004B800002068806320A88040F26041C0F60101087BA872052C15D1C82247F61021C0F60E
S3251004B820010112FB0010A9884900E860085A06F08FFB002106F0D0FBA88848BBBDE8304001
S3251004B84006F0BBBB042C31D1C82243F26811C0F6010112FB0010A9884900E860085A06F0A9
S3251004B86077FB012106F0B8FBA888E9684000405A06F06EFB022106F0AFFBA888E968400033
S3251004B880405A06F065FB032106F0A6FBA88810B10138A88030BD012006F08FFB022006F0EB
S3251004B8A08CFB0320BDE8304006F087BB611E022923D8C82243F26811C0F6010112FB001065
S3251004B8C06A885100095AE860E980B0F8C6002881012C1DD1022006F070FB032006F06DFBC1
S3251004B8E0E88806F035FB214606F076FB6A88501C80B2632859D2688030BD24B3E8686A8896
S3251004B9005100095AE980B0F8C6002881012CE1D0022C29D0032C3CD106F01AFB012106F075
S3251004B9205BFB288906F014FB022106F055FBE88806F00EFB214606F04FFB6A88501C80B2D2
S3251004B9406328D8D331E0C82247F61021C0F6010112FB00106A885100095AE860E980B0F85A
S3251004B960C6002881022CD5D1032006F026FB288906F0EEFA012106F02FFBE88806F0E8FA17
S3251004B980214606F029FB6A88501C80B26328B2D30BE034B9084606F0DBFA214606F01CFB07
S3251004B9A06A88501C80B26328A5D36320688030BD30B540F2D834C0F6010440F2EC45C0F68B
S3251004B9C0010594F86610A87D012912D1062837D142F2F03006F0BCFA0146002006F0C9FABD
S3251004B9E094F82E1084F82F10297869700120287030BD062810D194F87C00092818BF30BD7C
S3251004BA000020FFF7F2FE94F82E1084F82F10297869700120287030BD052818BF30BD94F8E4
S3251004BA207C000B2818BF30BD0520FFF7DEFE94F82E1084F82F10297869700020287030BDDE
S3251004BA40052818BF30BD002006F0B7FA94F82E1084F82F10297869700020287030BD00B5BB
S3251004BA6040F2D830C0F6010090F8661040F26042C0F6010280F867101179012918BF002195
S3251004BA8080F86610FFF7A4FDFFF792FF00BD40F6C050C0F60100012101700021418070479A
S3251004BAA070B540F6C454C0F60104A178012904D1E078FF283CBF0130E0702078012804D195
S3251004BAC06078FF283CBF0130607020790026012803D328D02660267170BD40F2D832C0F65F
S3251004BAE00102107F01280AD151B940F64261C0F60101087850B90120A070E67070BD28B1E5
S3251004BB0040F64261C0F60101087808B1668070BDE078C82838BF70BD6680012000F04AF988
S3251004BB200120207170BD40F2D835C0F6010595F84500012808D095F84400012804D13046F9
S3251004BB4000F038F9267170BD00F044F920B9287F68772E77267170BD207878B9287F002859
S3251004BB6018BF70BD40F64261C0F601010878002818BF70BD01202070667070BD012818BFB6
S3251004BB8070BD6078322838BF70BD287F012805D040F64262C0F60102117809B1268070BDBA
S3251004BBA0002818BF70BD2070667000F003F9267170BD30B540F6CC55C0F601056878012828
S3251004BBC003D313D00020687030BD40F2D834C0F60104E07C012808BF30BDA07C012818BF5F
S3251004BBE030BD00F0C9F80120687030BD40F2D834C0F6010494F84500012809D094F844000B
S3251004BC00012805D1002000F0B7F80020687030BD00F0E0F8002818BF30BDA07CE074002023
S3251004BC20A07441F2EE02C0F6010201211170687030BD70B540F6C854C0F60104A07801281F
S3251004BC4004D1E178FF293CBF0131E1702179002601292BD024BF267170BD40F2D832C0F678
S3251004BC600102917E01290AD150B940F64261C0F60101087850B90120A070E67070BD29B1E2
S3251004BC8040F64262C0F60102117809B1668070BD012818BF70BDE078C82838BF70BD668022
S3251004BCA0012000F078F80120207170BD40F2D835C0F6010595F84500012808D095F844006B
S3251004BCC0012804D1304600F066F8267170BD00F081F8002818BF70BDA87EE876AE762671F0
S3251004BCE070BD40F6D551C0F601010878012818BF704740F64261C0F601010878002818BFA2
S3251004BD00704700B5FFF7CCFEFFF753FF5DF804EBFFF78FBF40F6D051C0F6010108787047C7
S3251004BD2040F6D051C0F601010870704740F6CF51C0F601010878704740F6CF51C0F6010158
S3251004BD400870704740F6D251C0F601010878704740F6D251C0F601010870704740F6D151BA
S3251004BD60C0F601010878704740F6D151C0F60101087070470020704710B440F6CE54C0F6D2
S3251004BD8001042178002814BF41F0010001F0FE00207010BC704710B440F6CE54C0F60104E5
S3251004BDA02178002814BF41F0020001F0FD00207010BC704710B440F6CE54C0F60104217831
S3251004BDC0002814BF41F0030001F0FC00207010BC7047704740F6CE51C0F60101087870471F
S3251004BDE040F6CE51C0F601010870704740F6D351C0F601010878704740F6D351C0F6010192
S3251004BE000870704740F6D451C0F601010878704740F6D451C0F601010870704740F6D551F1
S3251004BE20C0F6010101200870704740F62052C0F60102115401210020FEF788B940F63852E2
S3251004BE40C0F60102115401210846FEF77FB940F62852C0F60102115401210220FEF776B9D7
S3251004BE6040F64852C0F60102115401210320FEF76DB940F63052C0F601021154012104203E
S3251004BE80FEF764B940F67052C0F60102115401210620FEF75BB940F62051C0F60101085C4C
S3251004BEA0704740F63851C0F60101085C704740F62851C0F60101085C704740F64851C0F618
S3251004BEC00101085C704740F63051C0F60101085C704740F67051C0F60101085C704740F6A1
S3251004BEE02052C0F601024FF0FF301060506001210020FEF72BB940F63852C0F601024FF09C
S3251004BF00FF30106050609060D06001210846FEF71DB940F62852C0F601024FF0FF30106016
S3251004BF20506001210220FEF711B940F64852C0F6010210460323FF2100F8081B00F8071CD9
S3251004BF4000F8061C00F8051C00F8041C00F8031C00F8021C00F8011C013BEDD101210320FB
S3251004BF60FEF7F4B840F63052C0F601024FF0FF301060506001210420FEF7E8B840F6705234
S3251004BF80C0F601024FF0FF30106050609060D06001210620FEF7DAB810B540F2D830C0F69C
S3251004BFA0010090F83E1080F83F10002480F83E4006F03DF8204606F047F840F2EC40C0F6D5
S3251004BFC0010001794171047110BD002070477047704740F2D832C0F6010292F82A100129B0
S3251004BFE015D130B545F6EC0540F6D854C0F60104C1F20805206829460DF07EFF20602946F3
S3251004C0000DF06AFF20600120BDE8304070470020704710B5012006F017F840F2D830C0F681
S3251004C020010090F83E1080F83F10142480F83E40204605F0F1FF204605F0FBFF40F2EC401C
S3251004C040C0F60100017941710121017110BD002070477047704740F2D832C0F6010292F8BE
S3251004C0602A10A9B930B545F6D40540F6D854C0F60104C1F20805206829460DF03DFF206084
S3251004C08029460DF029FF20600120BDE8304070470020704710B540F6D854C0F60104207933
S3251004C0A001280DD028BF10BD45F6D401C1F20801216008460DF010FF20600120207110BD06
S3251004C0C02068BDE810400DF02DBF000030B54CF2D025C0F6010540F6F854C0F6010442F29B
S3251004C0E0107370B928460122062107F09BFC40F2D831C0F6010120600A7F60B34A77012043
S3251004C1002BE001280ED105F108000122062107F089FC40F2D831C0F6010120600A7F00280A
S3251004C120ECD118E0022808D040F2D831C0F6010120680A7F0028E1D10DE005F1100001223A
S3251004C140062107F06FFC40F2D831C0F6010120600A7F0028D2D120604877087730BDF0B525
S3251004C1600E461F4640F6F855C0F6010542F210731146012207F056FC286040F2D834C0F6B7
S3251004C180010460B9207F607742F210730020207739463046012207F0DDFC286030B1012011
S3251004C1A0217F2077617700203080F0BD217F61772077F0BD00B581B045F60411C1F208012B
S3251004C1C00888ADF8020042F210730DF102000122022107F027FC40F6F851C0F60101086058
S3251004C1E000280CBF0120002001B000BDF0B540F6E054C0F601042078012806D161884FF6F3
S3251004C200FF7291423CBF013161802179012906D1E1884FF6FF7291423CBF0131E18040F265
S3251004C220D835C0F6010595F8451001290BD095F84410012907D121710021E18095F8281078
S3251004C240102914D133E040F2EC42C0F60102917B02291FBF0329052995F84410002918D118
S3251004C26000212171E18095F8281010291FD020293FD1617A002955D10846FFF727FF002195
S3251004C28001202172A17295F82810607220291ED147E0E188B1F5FA7F05D900212171E1804D
S3251004C2A04FF4FA71E16095F828101029DFD1207A68B90120FFF70AFF012000216180217038
S3251004C2C0A4F8091095F828102072202929D06088C82838BFF0BD95F82000422804BF95F813
S3251004C2E0220000282DD1FFF7F1FE002020706080F0BD402904BFA07A0028E8D140F60060FD
S3251004C300C0F6010001260672002747720220FFF7DDFE67802770278195F82810A67220298E
S3251004C320D5D120780028D2D195F82000422804BF95F822000028CAD10120207000206080DD
S3251004C340F0BD002020706080F0BDF0B54CF2B824C0F60104FFF74AFF40F2D836C0F6010623
S3251004C36096F828000127402818D1214604F115003B460222FFF7F3FE207810F003000328B1
S3251004C38040F60061C0F601010CBF01200020887640F6F450C0F601000770F0BD40F600653A
S3251004C3A0C0F601052878062800F29A800FF20401D1E800F0960415233241630021463B468E
S3251004C3C0601D0222FFF7CBFE2078422800F28A8028722878AF70072828BFF0BD86E02146FC
S3251004C3E03B46E01D0222FFF7BAFE207868722878EF70072828BFF0BD78E0214604F10900E2
S3251004C4003B460222FFF7ABFE2078A87228782F71072828BFF0BD69E0214604F10B003B46D8
S3251004C4200222FFF79CFE2078E87228786F71072828BFF0BD5AE0214604F10D003B460222B1
S3251004C440FFF78DFE04F10F003B46611C0222FFF786FE2088688296F82A10AF71012905D127
S3251004C460E8822878072828BFF0BD3FE00020E8822878072828BFF0BD38E0214604F1110044
S3251004C4803B460222FFF76BFE04F113003B46611C0222FFF764FE208841F29411884210D3CF
S3251004C4A0217903290DD80131217196F82A00EF7101280ED0002028832878072828BFF0BDA6
S3251004C4C014E000212171A88296F82A00EF710128F0D1A88A28832878072828BFF0BD05E04A
S3251004C4E02F70F0BD2878072828BFF0BD01302870F0BD40F6EC51C0F601010860704730B5CE
S3251004C50040F6EC54C0F601042079012806D1E0884FF6FF7188423CBF0130E08040F64E61DF
S3251004C520C0F601010878013805D340F64E61C0F60101087030BD04F0E7FB012803D004F0D0
S3251004C540FEFB022820D104F0D8FB04F0F1FB04F0E2FE013818D309D0022811D94CF2223190
S3251004C560C0F601010878002550BB14E004F015FC4CF22231C0F601010878002500BB0AE0AD
S3251004C58004F0F7FB04F0E1FB4CF22231C0F6010108780025A0B900F060FE40B94CF22231AC
S3251004C5A0C0F601010878012818BF30BD0BE02079012804BFE5802571BDE83040FFF7C5BE43
S3251004C5C0012818BF30BD00F048FE002808BF30BD04F0C9FB012818BF30BD207918B9012012
S3251004C5E02071E58030BD012818BF30BDE08842F22831884298BF30BD04F0C2FB4FF4FA70F0
S3251004C600206004F087FB2571E58030BD002140F60060C0F601008222C0F80110A0F805109A
S3251004C62040F6F453C0F60103C1711970828181604FF448724282416101838176704740F63F
S3251004C6400061C0F601018878002818BF087A704740F60061C0F60101C878002818BF487A1F
S3251004C660704740F60061C0F601010879002818BF887A704740F6F451C0F601010878002886
S3251004C68008BF704740F60061C0F60101887E704740F60061C0F601014879002818BFC87AA5
S3251004C6A0704740F60061C0F601018879002818BF488A704740F60061C0F60101C879002819
S3251004C6C018BF888A704740F60060C0F60100817949B140F2D832C0F6010292F82A1001297C
S3251004C6E004BFC08A70470020704740F60060C0F60100C17949B140F2D832C0F6010292F885
S3251004C7002A10012904BF008B70470020704741210138C0B2032880F0888000210E2368B99C
S3251004C7204CF20630C0F60100028845F60810C1F20800B0F800C062450FD325E0012816D116
S3251004C7404CF20C30C0F60100028845F60810C1F20800B0F800C0624516D2B0F802C06245EE
S3251004C76017D301310EBF08460139C8B270474CF20430C0F60100028845F60810C1F208003C
S3251004C780B0F800C06245E8D308001CBF0139C8B27047B0F804C0624505D302310EBF08462E
S3251004C7A00139C8B27047B0F806C0624505D303310EBF08460139C8B27047B0F808C0624536
S3251004C7C005D304310EBF08460139C8B27047B0F80AC0624505D305310EBF08460139C8B2B6
S3251004C7E07047B0F80CC0624505D306310EBF08460139C8B27047B0F80EC0624505D307318B
S3251004C8000EBF08460139C8B27047B0F810C0624505D308310EBF08460139C8B27047123080
S3251004C8200931013BACD14FF07D010846704740F2D830C0F6010090F87A1080F87B10002102
S3251004C84080F87A107047002070477047704730B5002040F61C6440F26042C0F60102C0F6C2
S3251004C860010492F83F1092F83E20042913D0042A0ED145F6C425C1F20805206829460DF0E3
S3251004C8803BFB206029460DF027FB2060012030BD062908BF30BD062A18BF30BD45F63C3529
S3251004C8A0C1F20805206829460DF026FB206029460DF012FB2060012030BD704745F63420BC
S3251004C8C040F61C61C0F60101C1F20800086070477047704730B5002040F61C6440F26042FC
S3251004C8E0C0F60102C0F6010492F83F1092F83E2091B172B945F60425C1F208052068294661
S3251004C9000DF0FAFA206029460DF0E6FA2060012030BD062908BF30BD062A18BF30BD45F6A0
S3251004C9203C35C1F20805206829460DF0E5FA206029460DF0D1FA2060012030BD704745F6A2
S3251004C940942040F61C61C0F60101C1F20800086070477047704740F26041C0F6010191F842
S3251004C9603F200020022A08BF704791F83E10022918BF704730B545F67C2540F61C64C0F6B7
S3251004C9800104C1F20805206829460DF0B5FA206029460DF0A1FA20600120BDE83040704721
S3251004C9A0704745F6AC2040F61C61C0F60101C1F20800086070477047704730B5002040F6B1
S3251004C9C01C6440F26042C0F60102C0F6010492F83F1092F83E20012912D0012A0ED145F663
S3251004C9E03425C1F20805206829460DF085FA206029460DF071FA2060012030BD032913D09D
S3251004CA00032A0ED145F66425C1F20805206829460DF072FA206029460DF05EFA2060012027
S3251004CA2030BD022908BF30BD022A18BF30BD45F67C25C1F20805206829460DF05DFA2060B9
S3251004CA4029460DF049FA2060012030BD704745F6DC2040F61C61C0F60101C1F20800086003
S3251004CA6070477047704730B5002040F61C6440F26042C0F60102C0F6010492F83F1092F811
S3251004CA803E20012912D0012A0ED145F63425C1F20805206829460DF02FFA206029460DF0AB
S3251004CAA01BFA2060012030BD042913D0042A0ED145F64C25C1F20805206829460DF01CFA26
S3251004CAC0206029460DF008FA2060012030BD022908BF30BD022A18BF30BD45F67C25C1F262
S3251004CAE00805206829460DF007FA206029460DF0F3F92060012030BD704745F60C3040F650
S3251004CB001C61C0F60101C1F20800086070477047704730B5002040F61C6440F26042C0F639
S3251004CB200102C0F6010492F83F1092F83E20012913D0012A0ED145F63425C1F20805206869
S3251004CB4029460DF0D9F9206029460DF0C5F92060012030BD032908BF30BD032A18BF30BD74
S3251004CB6045F66425C1F20805206829460DF0C4F9206029460DF0B0F92060012030BD40F60D
S3251004CB802061C0F60101012008700020488040F2D830C0F6010090F87A1080F87B10082192
S3251004CBA080F87A1070470020704740F62061C0F601010020087048807047704700207047B7
S3251004CBC040F62061C0F60101012008700020488040F2D830C0F6010090F87A1080F87B1045
S3251004CBE0062180F87A10704700207047704740F62061C0F60101002008704880704730B542
S3251004CC0040F61C64C0F60104E18864290ED345F6C425C1F20805206829460DF06DF92060F4
S3251004CC2029460DF059F92060012030BD002030BD40F62061C0F60101012008700020488091
S3251004CC4040F2D830C0F6010090F87A1080F87B10072180F87A10704700207047704740F60F
S3251004CC602061C0F6010100200870488070470020704740F62061C0F601010120087000204B
S3251004CC80488040F2D830C0F6010090F87A1080F87B10042180F87A10704700207047704740
S3251004CCA040F62061C0F60101002008704880704730B540F61C64C0F60104E18864290ED3A7
S3251004CCC045F6F425C1F20805206829460DF014F9206029460DF000F92060012030BD002092
S3251004CCE030BD40F62061C0F60101012008700020488040F2D830C0F6010090F87A1080F8C2
S3251004CD007B10052180F87A10704700207047704740F62061C0F6010100200870488070477B
S3251004CD200020704740F62061C0F60101012008700020488040F2D830C0F6010090F87A100F
S3251004CD4080F87B10022180F87A10704700207047704740F62061C0F601010020087048807D
S3251004CD60704730B540F61C64C0F60104E18864290ED345F62435C1F20805206829460DF06D
S3251004CD80BBF8206029460DF0A7F82060012030BD002030BD40F62061C0F601010120087098
S3251004CDA00020488040F2D830C0F6010090F87A1080F87B10032180F87A10704700207047B7
S3251004CDC0704740F62061C0F60101002008704880704700207047704745F6543040F61C61FC
S3251004CDE0C0F60101C1F20800086070477047704730B5002040F61C6440F26042C0F60102D1
S3251004CE00C0F6010492F83F1092F83E2091B172B945F60425C1F20805206829460DF06CF893
S3251004CE20206029460DF058F82060012030BD042908BF30BD042A18BF30BD45F6C425C1F264
S3251004CE400805206829460DF057F8206029460DF043F82060012030BD40F62061C0F6010144
S3251004CE60012008700020488040F2D830C0F6010090F87A1080F87B10092180F87A1070472E
S3251004CE8000207047704740F62061C0F60101002008704880704730B540F61C64C0F601040E
S3251004CEA040F26041C0F6010191F83F200020052A12D091F83E1005290ED145F68435C1F229
S3251004CEC00805206829460DF017F8206029460DF003F82060012030BDE188642938BF30BDD9
S3251004CEE045F66C35C1F20805206829460DF004F8206029460CF0F0FF2060012030BD40F6EE
S3251004CF002061C0F60101012008700020488040F2D830C0F6010090F87A1080F87B100A210C
S3251004CF2080F87A107047002070477047704740F26041C0F6010191F83F200020052A08BF50
S3251004CF40704791F83E10052918BF704730B545F6843540F61C64C0F60104C1F208052068DB
S3251004CF6029460CF0C9FF206029460CF0B5FF20600120BDE83040704740F62061C0F60101E9
S3251004CF80012008700020488040F2D830C0F6010090F87A1080F87B100B2180F87A1070470B
S3251004CFA000207047704740F62061C0F60101002008704880704740F26041C0F6010191F82F
S3251004CFC03F200020062A08BF704791F83E10062918BF704730B545F6543540F61C64C0F661
S3251004CFE00104C1F20805206829460CF085FF206029460CF071FF20600120BDE83040704713
S3251004D00010B540F61C64C0F601042079012806D1E0884FF6FF7188423CBF0130E080207A1A
S3251004D02001280DD028BF10BD45F60421C1F20801216008460CF050FF20600120207210BDE6
S3251004D0402068BDE810400CF06DBF40F62861C0F601010878704740F62861C0F601010120CB
S3251004D0600870704730B540F62865C0F601052878002818BF30BD697800297DD1FEF70BFF20
S3251004D08055283FD0FEF72BFFFEF735FFFEF741FFFEF74BFFFEF766FFFEF770FF55210020DA
S3251004D0A0FEF7C3FE04F0EFF802210120FEF7C6FE02210846FEF7C2FE02210320FEF7BEFEAB
S3251004D0C040F2D833C0F6010340F2EC419879C0F60101D8710A7B0220987183F8520083F8D6
S3251004D0E0530083F8540083F8550083F8560083F8570008730120687028784A73002818BFB1
S3251004D10030BD3CE040F2D834C0F60104A079E0710320FEF7C6FEA07194F8520084F85300EF
S3251004D1200120FEF7BEFE84F8520084F8530094F8540084F855000220FEF7B3FE84F854001D
S3251004D14084F8550094F8560084F857000320FEF7A8FE84F8560040F2EC41C0F6010184F80C
S3251004D1605700087B4873A0790873012068702878002818BF30BD02E0012918BF30BD40F6E1
S3251004D1803661C0F6010148783C2805D340F64661C0F601010878012818BF5FF0000030BDD9
S3251004D1A000B505F089FB40F2D830C0F60100017941710121017190F85E2080F85E1090F802
S3251004D1C0621080F86310002180F85F2090F8642080F8621080F8652080F8641000BD40F6EE
S3251004D1E02C61C0F601011F200860704740F62C61C0F601010878704710B540F66864C0F643
S3251004D200010401210DF05BF818B922680132226010BD62680132626010BD00B581B00DF130
S3251004D220020001210DF04BF8BDF8020001B000BD00B581B00DF1020001210DF03BF8BDF85E
S3251004D240020001B000BD00B581B00DF103000DF058F89DF8030001B000BD00B581B00DF126
S3251004D26003000DF047F89DF8030001B000BD00B581B00DF103000DF036F89DF8030001B0F4
S3251004D28000BD00B581B00DF1020001210DF01CF8BDF8020001B000BD00B581B00DF1020093
S3251004D2A001210DF016F8BDF8020001B000BD00B581B00DF1020001210DF010F8BDF802003E
S3251004D2C001B000BD10B540F63864C0F60104A079012804D1E079FF283CBF0130E071FFF76A
S3251004D2E0B4FE0122618818B9A079218158BB55E040F2D240814203D2A079227118BB4DE0FA
S3251004D30040F2FA40814204D202202071A079D0B944E040F26A60814204D203202071A07913
S3251004D32088B93BE040F29260814204D204202071A07940B932E040F6284081420CD205207D
S3251004D3402071A07950B32079E37A984229D0E072A2710020E07110BDB1F5456F05D2062043
S3251004D3602071A0790028EED118E040F6C350814205D207202071A0790028E4D10EE040F655
S3251004D380EB50814205D208202071A0790028DAD104E009202071A0790028D4D1A271E07111
S3251004D3A010BDE079032828BF218110BD10B44CF2F224C0F6010440F64062C0F601021088B0
S3251004D3C040F2D241884212D20120A072607240F2FA40E08040F29260208000202072E072A7
S3251004D3E04FF44560608040F6EB50A080D3E040F2FA41884215D2607A01280CBF084640F29B
S3251004D400D240E08040F2926020800120A07200202072E0724FF44560608040F6EB50A0802C
S3251004D420B9E040F26A61884211D20120A07240F29260208000202081E07240F2D240E080E1
S3251004D4404FF44560608040F6EB50A080A3E040F29261884220D2A07A01280DD12180002013
S3251004D4602081E07240F2D240E0804FF44560608040F6EB50A0808EE040F26A602080002078
S3251004D4802081E07240F2D240E0804FF44560608040F6EB50A0807EE040F62841884211D2D8
S3251004D4A00020A4F80900E072207240F2D240E08040F26A6020804FF44560608040F6EB5030
S3251004D4C0A08068E0B0F5456F22D2207A01280ED10020A4F80900E07240F2D240E08040F2EE
S3251004D4E06A602080618040F6EB50A08053E04FF4456060800020A4F80900E07240F2D240E0
S3251004D500E08040F26A60208040F6EB50A08042E040F6C351884212D20120207240F62840F9
S3251004D52060800020A4F80900E07240F2D240E08040F26A60208040F6EB50A0802BE040F6C8
S3251004D540EB51884215D2E07A01280CBF40F6C3500846A08040F6284060800120207200206E
S3251004D560A4F8090040F2D240E08040F26A60208011E040F62840608001202072E072002018
S3251004D580A4F8090040F6C35140F2D240E080A18040F26A60208010BC704730B401464CF235
S3251004D5A0F224C0F6010440F64065C0F601050120013909D30DD0022910D314D12888A18809
S3251004D5C088420FD300200EE02888E1888842F9D208E0288821888842F4D203E0288861887C
S3251004D5E08842EFD2012030BC704730B401464CF2F224C0F6010440F64065C0F601050120D0
S3251004D600013909D30DD0022910D314D12888A18888420FD200200EE02888E1888842F9D3C9
S3251004D62008E0288821888842F4D303E0288861888842EFD3012030BC704730B50220FFF735
S3251004D640ACFF054640F2D834C0F6010401281DD1FFF7CBFF012819D194F8463084F84730E2
S3251004D66094F84830002184F8461084F8493094F84A2084F8481084F84B2084F84A100320FA
S3251004D680FFF78BFF054601281AD14DE075BB012294F8463084F8462084F8473094F8483036
S3251004D6A084F8482094F84A2084F8493084F84B2084F84A500320FFF770FF0546012833D085
S3251004D6C0002D4AD1012294F84C3084F84C2084F84D3094F84E3084F84E2094F8502084F870
S3251004D6E04F3084F8512084F8505030BD0120FFF77CFF020012D1012194F8463084F846102E
S3251004D70084F8473094F8483084F8482094F84A2084F8493084F84B2084F84A100320FFF753
S3251004D7203CFF05460128CBD10020FFF75EFF0128C6D194F84C3084F84D3094F84E30002125
S3251004D74084F84C1084F84F3094F8502084F84E1084F8512084F8501030BD0020FFF745FFF6
S3251004D760020018BF30BD012194F84C3084F84C1084F84D3094F84E3084F84E2094F85020DE
S3251004D78084F84F3084F8512084F8501030BD70B440F63064C0F60104A079002301280DD1D2
S3251004D7A0E079FF280ED20130E071C0B23C2809D2607A6188002840F0B7807AE050B3E079B4
S3251004D7C03C28F5D3607A012871D140F2D830C0F6010090F8601021B980F86110012180F878
S3251004D7E06010227904F154004FEA420C61882CF800100132D2B2642A28BF1A462271A28ACC
S3251004D800914229D1227A0132D2B21E2A09D222720A2223E00120A071E37163722371618810
S3251004D82082E023720A25024622F8141B22F8121C22F8101C22F80E1C22F80C1C22F80A1CC3
S3251004D84022F8081C22F8061C22F8041C22F8021C013DE9D10A2201E023720A2230F814CBF5
S3251004D860634430F8126C30F810CC9B19634430F80E6C30F80CCC9B19634430F80A6C30F81F
S3251004D88008CC9B19634430F8066C30F804CC9B1930F8026C63449B19013ADFD148F21F5272
S3251004D8A0C5F2EB12A3FB0220400960813CE06188D0BB22794FEA420C04F154002CF8001081
S3251004D8C00132D2B2642A38BF22712DD30122627223710A2230F814CB634430F8126C30F82C
S3251004D8E010CC9B19634430F80E6C30F80CCC9B19634430F80A6C30F808CC9B19634430F8BD
S3251004D900066C30F804CC9B1930F8026C63449B19013ADFD148F21F52C5F2EB12A3FB0220D4
S3251004D920400960810120A075A18270BC70472DE9F0484CF2FE24C0F6010440F66065C0F64D
S3251004D9400105A078002101280CD1A1702170A38805F1EC0CA5F8EC308E4610F0070200F027
S3251004D960B480ABE02078012876D16078A388420005F1EC0C22F80C300130C0B21E2828BF6D
S3251004D980084660700322604630F8143BC91830F8124C30F8103C0919C91830F80E4C30F885
S3251004D9A00C3C0919C91830F80A4C30F8083C0919C91830F8064C30F8043C091930F8024C9B
S3251004D9C0C9180919013ADFD13CF8022B134660460446072734F808CB9C4538BF634634F8BB
S3251004D9E006CC9C4538BF634634F804CC9C4538BF634634F802CC9C4538BF6346013FE9D1C8
S3251004DA00B4F800C09C4538BF6346072630F808CB944588BF624630F806CC944588BF62464D
S3251004DA2030F804CC944588BF624630F802CC944588BF6246013EE9D10088904288BF02466C
S3251004DA40C91A891A880844F62511C2F29241A0FB01106880BDE8F088002818BFBDE8F088D2
S3251004DA6005F1EC0C6078A38842008E4622F80C300130C0B283465FEADB031CD062464FEACF
S3251004DA80C30E32F8107BC91932F80E6C32F80C7C8919C91932F80A6C32F8087C8919C91958
S3251004DAA032F8066C32F8047C891932F8026CC9198919013BE5D11BF0070206D00CEB4E0324
S3251004DAC033F802CB6144013AFAD1B1FBF0F1A9801E283CBF6070BDE8F08801202070627022
S3251004DAE0BDE8F08810B440F66064C0F601044CF2FE21C0F601010878002814BF6088A088D6
S3251004DB0010BC704730B440F63064C0F601042078012804D16178FF293CBF01316170628880
S3251004DB20002140F2D243D31A40F61A1C63450CD340F2D832C0F6010292F8400082F8410009
S3251004DB40022082F84000218024E040F2FA43D21A40F6CA039A421DD240F2D832C0F601020C
S3251004DB6092F840300125022B08BF002802D1257061700FE0012808D1607812280AD982F8B6
S3251004DB80413082F84050218004E018B982F8413082F8405030BC704710B581B040F6306442
S3251004DBA0C0F601040DF1020001210CF088FBBDF802006080FFF7EBFDA07D012805D1FFF768
S3251004DBC081FBFFF7F3FBFFF738FD01B010BD10B540F64864C0F60104207D002818BF10BD57
S3251004DBE004F1080001210CF06AFB18B1606A0130606210BD206A01302062608840F6954107
S3251004DC0088420CD9206901302061082838BF10BD012020750020BDE81040FBF7B9BB40F6A5
S3251004DC202741884288BF10BD002020610120BDE81040FBF7ADBB30B540F64464C0F60104F5
S3251004DC4004F10C0001210CF03AFB002800F09380A06A0130A06230BD40F22562904228D37B
S3251004DC6040F69542904210D903E040F69542904207D90221607A217102280BD02572617222
S3251004DC8030BD40F2936290421DD2607A02292CD10228F3D1207A022880F081800130C0B2CD
S3251004DCA0022818D22072617230BD40F22562904205D20121607A217101286FD117E040F65E
S3251004DCC027429042E1D829466420A072607A2571854263D10BE025722846FBF759FB01206F
S3251004DCE0A0732179E573617230BD814256D1E078042854D20130C0B2042802D2E0706172EB
S3251004DD0030BD40F6EC51C0F60101E570086802280ED340F6EC51C0F60101013808602846C7
S3251004DD20FBF736FB0120E0732179A573617230BD012817D140F6EC50C0F6010005601420ED
S3251004DD40A07240F6E950C0F60100057002F0F7FF01280AD102F0E5FF0120E0732179A57314
S3251004DD60617230BD0120FBF713FB0120E0732179A573617230BD606A01306062A089E0807C
S3251004DD80217900254A1EFFF467AF3FF46EAF012A8BD02946607A25718542A8D0E57061721D
S3251004DDA030BD00B581B00DF1020001210CF082FABDF802004CF20231C0F601010880FFF77E
S3251004DDC0B6FD01B000BD10B440F64064C0F60104A078013805D30ED0012819D00020A07066
S3251004DDE024E0208840F22561884216D340F6954188421BD904E0208840F69541884202D9EB
S3251004DE000220A07012E040F2936188420ED30BE0208840F22561884202D20120A07005E0F4
S3251004DE2040F62741884201D80020A07010BC704740F66061C0F601010870704740F66061FF
S3251004DE40C0F601010878704740F67061C0F601013220087070472DE9F00883B000F1FF3216
S3251004DE608C464CF2EA24C0F6010445F69C30C1F208006D4690E80B0085E80B00D2B2002794
S3251004DE80A079E61C012803D12780C4F80370A77040F6887BA35C02EB820558194000C0F650
S3251004DEA0010B20F80BC0581CB15CC3B201291CD1052B28BF3B460BEB4501A35410466A467B
S3251004DEC00B8852F820004A88181810188A881018CA88098910180A184CF6CD40CCF6CC407C
S3251004DEE0A2FB0001890888B220E0EC469F4209D35CF82250B5FBF3F5ADB2052B12D2A354E8
S3251004DF00284613E039460BEB450B5CF822503BF802CB654401319942F9D3B5FBF3F5ADB282
S3251004DF20052BECD3A7540120B054284603B0BDE8F008704710B581B04CF20634C0F601041A
S3251004DF400DF1020001210CF0BFF9BDF80210E1810120FFF780FF208001B010BD10B581B0FE
S3251004DF604CF20A34C0F601040DF1020001210CF0B0F9BDF8021061810220FFF76CFF60807D
S3251004DF8001B010BD10B581B04CF20234C0F601040DF1020001210CF0A1F9BDF80210618262
S3251004DFA00320FFF758FF608001B010BD10B582B04CF20234C0F601040DF1020001210CF035
S3251004DFC083F9BDF8021061820120FFF744FFA08001A801210CF07DF9BDF80410618202207C
S3251004DFE0FFF739FF60810DF1060001210CF076F9BDF8061061820320FFF72DFFA188A1F1B9
S3251004E0000D0240F6B4218A422CBF01220022A271628960800D3A914294BF01210021E171F0
S3251004E0200D3840F6B42188422CBF01200020207202B010BD2DE9F04C81B040F64C65C0F64F
S3251004E04001050DF1020001210CF034F9AC7ABDF802B0012C04D1E87AFF283CBF0130E872B7
S3251004E06095F808A0BAF1010F04D1687AFF283CBF01306872FFF746FD0127002640F2D830F1
S3251004E080C0F60100BAF1000F0BD1BBF54D7F08D82F726E7204466E81617B007B01293ED074
S3251004E0A037E064B940F296518B4508D3AF72EE7204462E81617B007B012930D029E0BAF19F
S3251004E0C0010F0ED1697A08290BD3044690F8440084F8446084F84500617B207B01291ED0BF
S3251004E0E017E0012C02D1E97A0A2905D20446617B007B012913D00CE0044690F8440084F876
S3251004E100450084F84470FAF79FFF617B207B012905D0012803D16073FEF778FA207B94F80D
S3251004E120681084F8691094F82C1084F82D1094F8701084F8687001290DD194F82E2084F819
S3251004E1402C6084F82F2084F82E1001280DD0A07FE077A677A7E094F82E2084F82C7084F806
S3251004E1602F2084F82E600128F1D10DF101000CF0C1F89DF801000028E9D0A8780028E6D117
S3251004E18094F820004CF20E3584F82100C0F60105FEF755FA84F8200094F8220084F82300B2
S3251004E1A0FEF756FA84F8220094F8240084F82500FEF757FA84F82400FEF77CFA2880FEF723
S3251004E1C070FA40F6ED71C0F6010168800878012809D140F60060C0F60100867240F6ED702C
S3251004E1E0C0F60100067094F820100B291DD194F822300320132B15D0A27FA07794F82400EE
S3251004E200E277552815D0002918BF01291CD1A17F0220E177A077FFF7C9FE94F82800402888
S3251004E22029D120E0E0770420A07794F824005528E9D1A17F0520E177A077FFF7B7FE94F866
S3251004E2402800402817D10EE0422904BF94F82200002802D1A17FE177A077FFF7A7FE94F8B1
S3251004E2602800402807D194F8260084F82700FEF701FA84F8260094F82A00012810D12078DD
S3251004E28040F6A871C0F601016070C878207001281CBFA078012803D1A07EE076A77602E031
S3251004E2A0A07EE076A67601B0BDE8F08C10B440F6A872C0F6010202EBC000027900249142F6
S3251004E2C008BFA0F8054024D082790132D2B269B990F802C062450DD38471012242710278A2
S3251004E2E004718AB90122C270C17112E090F801C0624503D282714471C1710AE08471012232
S3251004E30042710278017112B9C470C17101E0C170C17110BC70474DF24721C1F20401C9B272
S3251004E3200020FFF7C3BF70B581B040F65C65C0F6010540F2D834C0F6010494F82A0000264D
S3251004E340012819D10DF103000BF0CDFF9DF80310687881420AD16888013080B264280FD3E1
S3251004E360A078E0700120A070304609E0A078E0706970A670304603E0A078E0703046A670E7
S3251004E380688001B070BD00B581B00DF103000BF0B8FF9DF8030001B000BD45F6A832C1F236
S3251004E3A0080240F6A870C0F601001368036093685168D26883604160C2604CF20231C0F69B
S3251004E3C0010100200874C860C88008724FF4BA728A804A814A8040F2D831C0F60101A1F801
S3251004E3E05800C1F80A00C1F80E00C1F812008861C861C1F82200C1F82600C88501220A729E
S3251004E4004A72C1F82A00252281F8302081F83120C1F86600A1F84000A1F84400A1F8780083
S3251004E420704745F6A832C1F2080240F6A870C0F601001368036093685168D26883604160E4
S3251004E440C2604CF20231C0F6010100200874C860C88008724FF4BA728A804A814A8040F291
S3251004E460D831C0F60101A1F85800C1F80A00C1F80E00C1F812008861A1F86800C861C1F8AF
S3251004E4802200C1F826004885A1F84400A1F87800704740F2D830C0F6010090F8661040F2CE
S3251004E4A06042C0F6010280F867101179012918BF002180F86610704710B540F2D834C0F6EE
S3251004E4C0010494F82C0094F82D20012840F0928094F86610012948D1012A24D042F2341045
S3251004E4E003F036FD0146012003F043FD42F2341003F02EFD0146022003F03BFD42F234109F
S3251004E50003F026FD0146032003F033FD94F82C0084F82D0040F2EC40C0F601008178C1709E
S3251004E5200121817010BD94F86700012859D042F2341003F00DFD012103F04EFD42F234104F
S3251004E54003F006FD022103F047FD42F2341003F0FFFC032103F040FD40F2EC40C0F6010082
S3251004E5608178C1700121817010BDE08E012A20D003F0EEFC0146012003F0FBFCE08E03F05E
S3251004E580E7FC0146022003F0F4FCE08E03F0E0FC0146032003F0EDFC94F82C0084F82D004E
S3251004E5A040F2EC40C0F601008178C1700121817010BD228F824203D194F867208AB181B951
S3251004E5C003F0C6FC012103F007FDE08E03F0C0FC022103F001FDE08E03F0BAFC032103F0F4
S3251004E5E0FBFC40F2EC40C0F601008178C1700121817010BD002A08BF10BD002818BF10BD61
S3251004E600012003F0DAFC022003F0D7FC032003F0D4FC40F2EC40C0F601008178C1700021C8
S3251004E620817094F82C0084F82D0010BD10B540F2D834C0F6010494F82E0001286CD103F0D0
S3251004E640BCFC022003F0B9FC032003F0B6FC94F8661094F82F0001292ED1012818D094F8D3
S3251004E6602E00012814D142F2F03003F071FC0146002003F07EFC94F82E0084F82F0040F225
S3251004E680EC40C0F60100017841700121017010BD94F86700012836D042F2F03003F058FC36
S3251004E6A0002103F099FC40F2EC40C0F60100017841700121017010BD012817D094F82E002E
S3251004E6C0012813D1608F03F043FC0146002003F050FC94F82E0084F82F0040F2EC40C0F6D3
S3251004E6E00100017841700121017010BD608FA28F824203D194F867202AB121B903F028FCDE
S3251004E700002103F069FC40F2EC40C0F60100017841700121017010BD50B940F6BE72C0F6A2
S3251004E72001021178022908BFBDE8104003F0458494F82F10002908BF10BD002818BF10BD3C
S3251004E74003F03BFC40F2EC40C0F60100017841700021017094F82E0084F82F0010BD10B5AD
S3251004E76040F2D834C0F6010494F82C0094F82D10012840F08C8094F86600002842D1012949
S3251004E78021D01E2003F0E3FB0146012003F0F1FB1E2003F0DCFB0146022003F0EAFB1E2091
S3251004E7A003F0D5FB0146032003F0E3FB94F82C0084F82D0040F2EC40C0F601008178C170A1
S3251004E7C00121817010BD94F86700002856D01E2003F0BDFB012103F0FFFB1E2003F0B7FB23
S3251004E7E0022103F0F9FB1E2003F0B1FB032103F0F3FB40F2EC40C0F601008178C1700121B2
S3251004E800817010BD012921D0C82003F0A0FB0146012003F0AEFBC82003F099FB01460220B3
