:020000041002E8
:2080000000270108818002100981021017AA02101BAA02101FAA021023AA0210000000001D
:2080200000000000000000000000000027AA02102BAA0210000000002FAA021033AA02109C
:2080400037AA021037AA021037AA021037AA021037AA021037AA021037AA021037AA021088
:2080600037AA021037AA021037AA021037AA021037AA021037AA021037AA021037AA021068
:2080800072B6144814490860BFF34F8F00200021134AE2E802016A45FBD1104FB847124D64
:2080A000A5F101057A46A2EB05054FF0000083460E4800EB05004FF000014FF000024FF0BF
:2080C00000034FF000044FF000054FF0000603F064FBFEE70080021008ED00E00788021092
:2080E00000080108FF260108A9800210F080021001000000000000000000000000800210F1
:0481000000800410E7
:0481080004F0B1BE10
:1C82000002000001000000FF17042020FFFFFFFFFFFFFFFFFFFFFFFFFFFFFFFF15
:14824000006F0310D86803100100000068690310686A03108B
:20860000884228BF704770B40A1A013AD2080132D60816D000242546C0E90045C0E9024531
:20862000C0E90445C0E90645C0E90845C0E90A45C0E90C45C0E90E454030013EECD188423A
:2086400006D234463546C0E9004508308842FAD370BC704730B44BF27002C0F6000247F229
:208660007823C1F2030340F20A00C0F200000021A8B193E8300082E83000013861F100016D
:2086800050EA01040BD053F808CF5D6842F808CF5560013861F1000150EA0104F3D14BF247
:2086A0006002C0F6000247F26823C1F2030340F20200C0F200000021A8B193E8300082E8AE
:2086C0003000013861F1000150EA01040BD053F808CF5D6842F808CF5560013861F100018B
:2086E00050EA0104F3D14BF28002C0F6000247F28823C1F2030340F20800C0F20000002156
:20870000A8B193E8300082E83000013861F1000150EA01040BD053F808CF5D6842F808CF1D
:208720005560013861F1000150EA0104F3D14AF65042C0F6000247F2C053C1F2030340F234
:208740001800C0F200000021A8B193E8300082E83000013861F1000150EA01040BD053F89F
:2087600008CF5D6842F808CF5560013861F1000150EA0104F3D14AF25002C0F6000247F289
:20878000D023C1F2030340F25E00C0F200000021A8B193E8300082E83000013861F10001A0
:2087A00050EA01040BD053F808CF5D6842F808CF5560013861F1000150EA0104F3D130BC77
:2087C000704740F25431C4F22101086840F000600860086840F0005041F8540908460022F5
:2087E000C260C16811F0004FFAD10146006840F00400086008686FF34100086008686FF37B
:2088000000000860704770B540F60005C0F601054AF25004C0F60004AC4223D2281B013874
:20882000C0080130C60816D000200146C4E90001C4E90201C4E90401C4E90601C4E90801AA
:20884000C4E90A01C4E90C01C4E90E014034013EECD1AC4206D230463146C4E900010834DD
:20886000AC42FAD340F25434C4F22104FFF7F2FE206840F000602060206840F0005044F8E6
:20888000540920460022C260C16811F0004FFAD10146006840F00400086008686FF341002F
:2088A000086008686FF30000086070BDEFF3108072B6704780F31088704701B4031C0B43B4
:2088C00013439B070AD1121F0ADB08C908C0121FFBDA05E00B78491C0370401C521EF9DA31
:2088E00001BC70472DE9F04F89B00490069105928DF80B3000274FF0000CADF80CC04FF0D2
:20890000000CADF80EC04FF0010C8DF807C04FF0000B002425E0DDF810C01CF804507D4003
:20892000EFB2DDF810C01CF80450BDF80CC06544ADF80C50DDF814C0DDF810801CF80460D8
:2089400018F804C007AD86EA0C062E5507AD2D5DBDF80EC06544ADF80E5004F1010C1FFA02
:208960008CF4082CD7D3BDF80CC0BCF1000F04D145F63C1BC1F2030B01E00DF11C0BBDF879
:208980000EC0BCF1000F0FD100240BE0DDF814800DF11C0C18F804600CF8046004F1010CF1
:2089A0001FFA8CF4082CF1D39DF80BC0BC44BCF1200F03DA07F1200C5FFA8CF70024DDE02C
:2089C0009DF81DC09DF81CE0F4445FFA8CF52846012100F021F9844666469DF81EC08CEA89
:2089E000060C8DF803C09DF81DC09DF80380C4445FFA8CF52846022100F00EF984466646B3
:208A00009DF81FC08CEA060C8DF802C09DF802809DF8039008EB090C5FFA8CF5284605215E
:208A200000F0FAF8844666469DF820C08CEA060C8DF804C09DF804809DF8029008EB090C50
:208A40005FFA8CF52846072100F0E6F8844666469DF821C08CEA060C8DF805C09DF8058000
:208A60009DF8049008EB090C5FFA8CF52846032100F0D2F8844666469DF822C08CEA060C2A
:208A80008DF806C09DF806809DF8059008EB090C5FFA8CF52846062100F0BEF884466646B3
:208AA0009DF823C08CEA060C8DF809C09DF809809DF8069008EB090C5FFA8CF528460421AA
:208AC00000F0AAF8844666469DF81CC08CEA060C8DF808C09DF802809DF8089008EB090CFC
:208AE0005FFA8CF52846032100F096F8844666469DF81DC08CEA060C8DF80AC09DF809C06F
:208B00008DF81CC09DF808C08DF81DC09DF80AC08DF81EC09DF803C08DF81FC09DF802C060
:208B20008DF820C09DF804C08DF821C09DF805C08DF822C09DF806C08DF823C09DF80B806D
:208B400007EB080CACF1010C644513D14FF0000A09E0DDF818801BF80AC008F80AC00AF197
:208B6000010C1FFA8CFABAF1080FF2D34FF0000C8DF807C004F1010C1FFA8CF4B4F5BF7FA9
:208B8000FFF41EAF9DF807C0604609B0BDE8F08F2DE9F04582B007468A46002545F6501CD0
:208BA000C1F2030CDCF80020DCF80430009201930024002600240AE045F63C13C1F2030336
:208BC00023440C336A461B781355621CD4B2082CF2D39DF800206A40D5B2012409E06A46A3
:208BE000125D6A40D5B26A46125D324496B2621CD4B2082CF3D316B900228DF8002015F05F
:208C00007F052B466A4651463846FFF76BFE0246104602B0BDE8F08570B404460D460022EE
:208C200004FA05F3C5F1080644FA06F6334303EBE37626F0FF069B1BDAB200BF104670BCE5
:208C4000704770B504460D46164632462946204600F069F90346184670BD10B50446204657
:208C600000F06DF90146084610BD70B504460D46164632462946204600F069F903461846D8
:208C800070BD10B50446204601F0ECF80146084610BD70B504460D46164632462946204690
:208CA00001F005F90346184670BD30B504460D462946204601F033F90246104630BD70B5CD
:208CC00004460D46164632462946204601F064F90346184670BD10B50446204601F0EAFBE1
:208CE0000146084610BD70B504460D46164632462946204601F012FC0346184670BD30B5EF
:208D000004460D462946204601F041FC0246104630BD70B504460D461646324629462046BD
:208D200001F072FC0346184670BDF0B404460D461646002304E015F803C004F803C05B1C56
:208D4000B342F8D3F0BC704770B404460D461646002301E0E5545B1CB342FBD370BC704779
:208D60002DE9F00405460E4617460024002308E015F803C016F803A0D44501D0012402E04C
:208D80005B1CBB42F4D300BF2046BDE8F004704710B54BF6B844C0F60004206808B120689E
:208DA000804710BD00002DE9100104462146052911D80FF20808D8E801F000BF0E0406088F
:208DC0000A0C142109E01C2107E0202105E0302103E0402101E0002100BF00BF0846BDE80D
:208DE000100170472DE9300105460C462A46052A23D80FF20808D8E802F000BF2004100671
:208E00001808DC221BE0CC2219E05122A2700322E2734022E274AC2211E02D22A270042255
:208E2000E2731C22E274D02209E04122A2700222E2733022E274BC2201E0032200BF00BF76
:208E40001046BDE8300170472DE9F04D8BB006460191934645F69C13C1F20303D3F800C0BC
:208E6000CDF81CC0D3F804C0CDF820C0D3F808C0CDF824C0DB680A9345F6AC13C1F203034E
:208E8000D3F800C0CDF808C0D3F804C0CDF80CC0D3F808C0CDF810C0D3F80CC0CDF814C042
:208EA0001B6906930024BBF1010F03D110270DF11C0A02E014270DF1080A02A95846FFF71A
:208EC00091FF03460093009B032B01D1032424E0337813B97378012B00D00324022505E0CF
:208EE000735DFF2B01D0631CDCB26D1C009B9D42F6D33A465146A819FFF732FF2318DCB206
:208F00005846FFF750FF02460199AB19F818FFF727FF2318DCB204B10124234618460BB077
:208F2000BDE8F08D000070B504460D46164632462946204600F01EF80346184670BD10B505
:208F40000446204600F092F90146084610BD70B5C0B004460D4616466946204600F05DF99B
:208F6000324629466846FFF76FFF0346184640B070BD0000F0B582B004460F46154600263D
:208F80002B6893F801C01B784CEA0303D5F800C09CF802C04CEA0303D5F800C09CF803C020
:208FA0005CEA030301D1032626E02B6838468DE8090004F5027304F5437204F58271204667
:208FC00000F01EF80346C4F814356B681B0E84F81C356B681B0C84F81D356B681B0A84F838
:208FE0001E356B6884F81F3540F21C532344C4F820350023C4F818353346184602B0F0BD00
:209000002DE9F04F83B08246029116461F464FF0000B01254FF03F0CCDF800C0002404E025
:209020004FEA840C46F80CB0641C402CF8D30C9906F5807000F0A9F90D99384600F0A5F9E2
:209040003946304600F056F800240AE0DDF8088056F824C048F824C04FEA840C46F80CB059
:20906000641C412CF2D304E04FEA840C46F80CB0641C802CF8D3002404E04FEA840C4AF88D
:209080000CB0641C402CF8D34FF0010CCAF800C100BF3A465146504600F0E1F9DDF8008003
:2090A00057F828C05AF828E0E645F2D802240DE0D7F800C04FEA440905FB0CFEBEFBF9FC4A
:2090C00009FB1CEC644500D265406400B4F1004FEED3D7F800C005FB0CFCBCF1004F01D9DE
:2090E00085F00045FFF754FEC5F1000C604603B0BDE8F08F2DE9F04F8BB0069005913F2212
:2091000002923E220392029A57007FE0069B03EB87020492049E3068059B7168029A0790E0
:20912000089153F82220002301F087FC024609920B460A930122019200BF029A059BDDF81B
:2091400024A053F822C0AAFB0C23DDF82880144608FB0C331D46039A059BDDF824A053F8AD
:2091600022C0AAFB0C23DDF8288008FB0C32A41845F10005D6E90023A24273EB05020CD27B
:20918000DDF82480B8F10108CDF82480DDF8288068F10008CDF8288001E000220192019ABF
:2091A000002ACAD1069B03EB870200924FF03F0B28E0009EDDF80080A8F10408CDF80080D2
:2091C000059BDDF824A053F82BC0AAFB0C23DDF82880144608FB0C331D46D6E90023A2420A
:2091E00073EB050206D2D6E90223521E63F10003C6E90223D6E90023121BAB41C6E90023E6
:20920000ABF1010BBBF1000FD3DA7F1E039A97423FF67CAF0BB0BDE8F08FF0B505460E46A8
:20922000002406E0A30005F5437CEA584CF80320641C402CF6D307E0A20005F543734FF0F2
:20924000000C43F802C0641C822CF5D3D5F8143505F5027205F54371284600F023F92946F4
:20926000304600F0C0F800221046F0BDF0B50446052694F81C15002942D194F81D150129B0
:209280003ED194F81E15D9BB94F81F15012937D1D4F81815C90709D5D4F8143504F5027251
:2092A00004F54371204600F0FDF81BE0D4F8181539B904F58272214604F5437000F086F961
:2092C00010E0D4F81815222907D104F58272214604F5437000F07AF904E0214604F5437028
:2092E00000F0DAF9D4F81815491CC4F81815D4F81815242946D10021C4F81815002641E0B6
:20930000002738E080252EE0D4F8201569B9214604F5437000F0C0F9D4F8143504F50272FA
:2093200004F54371204600F0BDF840F21C51D4F818252144895C0D4212D004F582722146FE
:2093400004F5437000F042F9D4F8143504F5027204F54371204600F0A5F80021C4F8201502
:209360006910C9B20D46002DCED1D4F81815491CC4F818157F1C002FC4D0D4F8181504290F
:2093800000D1002631460846F0BDF0B404460D462A4640234FEA830C002744F80C7000BFEA
:2093A0005B1E04EB8306F61C92F800C086F800C0521C04EB8306B61C92F800C086F800C0E2
:2093C000521C04EB8306761C92F800C086F800C0521C4FEA830C177804F80C70521C002BB7
:2093E000DED1F0BC704770B405460C462A46402300BF5B1E54F82360360E1670521C54F83C
:209400002360360C1670521C54F82360360A1670521C54F823C082F800C0521C002BE8D1D5
:2094200070BC7047F0B404460D460123412200BF521E54F822C055F82260B44509D055F836
:20944000226054F822C00027B44500D902273B4601E0002AECD100BF1846F0BC70472DE95B
:20946000F04C82460E4617460024002316E056F823E057F823B0AEEB0B05A5EB040C45B148
:2094800056F823E057F823B0DE4501D2012400E000244FEA830B4AF80BC05B1C412BE6D3CA
:2094A000BDE8F08C2DE9F04B89B00390049302928B46002469E0DDF810805BF824C008FB66
:2094C0000CFCCDF800C000265CE006EB040C0BEB8C0CCDF804C0DDF80880DDF800E058F823
:2094E00026C0ACFB0E89CDF81C80CDF82090019FD7F804C0D7F80080CDF818C0DDF81C90D2
:2095000018EB090CDDF81880DDF8209048EB0909E046C7F80080C846C7F80480D7F800C0B7
:20952000D7F80490079A089B944579EB030C28D23D460835D5F800C0D5F804801CF1010989
:2095400048F1000CC846C5F80080E046C5F804800EE00835D5F800C0D5F804801CF10109F4
:2095600048F1000CC846C5F80080E046C5F80480D5F80080D5F8049058EA090C00D000E03F
:20958000E7E7761C402EA0D3641C402C93D302990BF58070FFF746FF30B1029A03980BF55A
:2095A0008071FFF75CFF0CE0002408E004F1400CDDF80C805BF82CC048F824C0641C402C80
:2095C000F4D3FFF7E5FB09B0BDE8F08B2DE9F04BADF5846D01920091054604A84FF48262EF
:2095E000002101F01CFD00232BE0002426E09DE8400156F823E058F824C0AEFB0CBC67467F
:209600005E4604EB030C0DF1100B0BEBCC0EDEE900BC1BEB060B4CF1000CCEE900BC04EB7A
:20962000030C0DF1180B0BEBCC0EDEE900BC1BEB070B4CF1000CCEE900BC641C402CD6D33E
:209640005B1C402BD1D3002316E00DF1100B0BEBC30CDCE900670DF1180C0CEBC30EDEE9B0
:2096600000BC1BEB070B4CF1000CCEE900BC4FEA830C45F80C605B1C812BE6D30DF1100EF1
:209680000EEBC30C4FEA830BDCF800C045F80BC00DF5846DBDE8F08B2DE9F04BADF5836DA9
:2096A00007460E4602A84FF48262002101F0B7FC002329E0002224E056F822C056F823E0A0
:2096C000AEFB0CBC65465C4602EB030C0DF1080B0BEBCC0EDEE900BC1BEB040B4CF1000C0E
:2096E000CEE900BC02EB030C0DF1100B0BEBCC0EDEE900BC1BEB050B4CF1000CCEE900BCBD
:20970000521C9A42D8D35B1C402BD3D300224EE053000DF1080C0CEBC30EDEE900BC1BEBC6
:209720000B0B4CEB0C0CCEE900BC0DF1100C0CEBC30EDEE900BC1BEB0B0B4CEB0C0CCEE9CA
:2097400000BC56F822E0F446AEFB0CBC65465C460DF1080C0CEBC30EDEE900BC1BEB040B93
:209760004CF1000CCEE900BC0DF1100C0CEBC30EDEE900BC1BEB050B4CF1000CCEE900BCF6
:209780000DF1080B0BEBC20CDCE900450DF1100C0CEBC20EDEE900BC1BEB050B4CF1000C27
:2097A000CEE900BC4FEA820C47F80C40521C402AAED316E00DF1080B0BEBC20CDCE90045B6
:2097C0000DF1100C0CEBC20EDEE900BC1BEB050B4CF1000CCEE900BC4FEA820C47F80C4001
:2097E000521C812AE6D30DF1080E0EEBC20C4FEA820BDCF800C047F80BC00DF5836DBDE8C1
:20980000F08B2DE9F00404460D461646002318E04FEA830C55F80C7007F0FF274FEA172A87
:2098200055F80C7007F0FF174AEA072744F80C704FEA830C54F80C704FEA374744F80C7039
:209840005B1CB342E4D3BDE8F0047047F0B404460D461646002321E04FEA830C55F80C7043
:209860003F0E04F80C7004F1010C55F823700CEB830C3F0C8CF8007004F1020C55F8237099
:209880000CEB830C3F0A8CF8007004F1030C0CEB830C55F823708CF800705B1CB342DBD38D
:2098A000F0BC7047F0B5D5B0044604F1140105A81022FFF7A6FF10212CE08D000DEB050383
:2098C000ADF10C0C05EB0C02083312681B685A400DEB0503243B1B6853400DEB05022C3A28
:2098E00012685A400DEB0503570005EB0C02083312681B685A400DEB0503243B1B685340B8
:209900000DEB05022C3A12685A4005AE47EAD2727251491C5029D0D3002105E08B00EC469F
:20992000E2584CF80320491C0529F7D30021002247F69913C5F6822300BF02AD95E8405022
:209940008CEA0605019E2E4086EA0C060DF1140C5CF82250DDF800C035444FEA4C1646EA3A
:20996000DC6635445E190EEB06050495DDF804C04FEA8C7545EA9C0501950DF1040C9CE84D
:20998000E040B446009E8CEA05052E4086EA0C060DF1180C0CEB82052D6835444FEA4E1654
:2099A00046EADE6635445E19BD190395DDF800C04FEA8C7545EA9C0500959DE8E040B44602
:2099C000049E8CEA05052E4086EA0C060DF11C0C0CEB82052D6835444FEA4E1646EADE66B2
:2099E00035445E19BD190295DDF810C04FEA8C7545EA9C0504959DE8A040049EAC468CEA53
:209A00000605039E2E4086EA0C060DF1200C0CEB82052D6835444FEA4E1646EADE6635446A
:209A20005E19BD190195DDF80CC04FEA8C7545EA9C050395DDF810C0039E8CEA0605029E99
:209A40002E4086EA0C060DF1240C0CEB82052D6835449DE880104FEA4C1646EADC663544C1
:209A60005E19BD190095DDF808C04FEA8C7545EA9C050295491C521D0429FFF45EAF4EF681
:209A8000A133C6F6D96300BF9DE88050039E8EEA0C0C96EA0C060DF1140C5CF822503544C6
:209AA0007E0146EAD76635445E19049D35440495DDF804C04FEA8C7545EA9C0501950DF1E0
:209AC000040C9CE8E040DDF800C085EA0C0C96EA0C060DF1180C0CEB82052D6835444FEA3D
:209AE0004E1646EADE6635445E19BD190395DDF800C04FEA8C7545EA9C0500959DE8E04057
:209B0000DDF810C085EA0C0C96EA0C060DF11C0C0CEB82052D6835444FEA4E1646EADE66C4
:209B200035445E19BD190295DDF810C04FEA8C7545EA9C05049502AD95E880508EEA0C05FB
:209B40009DE840406E400DF1200C0CEB82052D6835447E0146EAD76635445E190EEB0605BC
:209B60000195DDF80CC04FEA8C7545EA9C05039501AD95E88050049E8EEA0C056E400DF13A
:209B8000240C0CEB82052D6835447E0146EAD76635445E19009D35440095DDF808C04FEAAC
:209BA0008C7545EA9C050295491C521D0829FFF46BAF4BF6DC43C8F61B7300BF0DF1080CAE
:209BC0009CE86040DDF804C02F4647EA0C052E4007EA0C0505AF2E4357F82250009F3544A3
:209BE0007E0146EAD76635445E190EEB06050495DDF804C04FEA8C7545EA9C0501959DE82E
:209C0000A040AC4647EA0C050EEA050607EA0C052E430DF1180C0CEB82052D68DDF810C0E0
:209C200035445FEA4C1646EADC6635445E19039D35440395DDF800C04FEA8C7545EA9C054E
:209C400000959DE86040DDF810C02F4647EA0C052E4007EA0C052E4307AF07EB82052D6849
:209C6000039F35447E0146EAD76635445E190EEB06050295DDF810C04FEA8C7545EA9C05A3
:209C80000495049FDDF80CC047EA0C059DE840402E4007EA0C052E4308AF07EB82052D68FA
:209CA000029F35447E0146EAD76635445E190EEB06050195DDF80CC04FEA8C7545EA9C0569
:209CC00003950DF1080C9CE8A040AC4647EA0C050EEA050607EA0C052E430DF1240C0CEBA7
:209CE00082052D6835449DE800504FEA4E1646EADE6635445E190CEB06050095DDF808C0C5
:209D00004FEA8C7545EA9C050295491C521D0C29FFF454AF4CF2D613CCF6622300BF9DE8F1
:209D20008050039E8EEA0C0C96EA0C060DF1140C5CF8225035447E0146EAD76635445E1957
:209D4000049D35440495DDF804C04FEA8C7545EA9C0501950DF1040C9CE8E040DDF800C0D0
:209D600085EA0C0C96EA0C060DF1180C0CEB82052D6835444FEA4E1646EADE6635445E191B
:209D8000BD190395DDF800C04FEA8C7545EA9C0500959DE8E040DDF810C085EA0C0C96EAD0
:209DA0000C060DF11C0C0CEB82052D6835444FEA4E1646EADE6635445E19BD190295DDF89C
:209DC00010C04FEA8C7545EA9C05049502AD95E880508EEA0C059DE840406E400DF1200CAE
:209DE0000CEB82052D6835447E0146EAD76635445E190EEB06050195DDF80CC04FEA8C7586
:209E000045EA9C05039501AD95E88050049E8EEA0C056E400DF1240C0CEB82052D6835444C
:209E20007E0146EAD76635445E19009D35440095DDF808C04FEA8C7545EA9C050295491CF8
:209E4000521D1029FFF46BAF002107E08E00EC46A5595CF806C06544A551491C0529F5D373
:209E600055B0F0BD10B4044642F20131C6F2457121604AF68931CEF6CD7161604DF6FE418E
:209E8000C9F6BA01A16045F27641C1F23201E1604EF2F011CCF2D2312161002161650021A6
:209EA000A1650021E1650021084610BC70472DE9F04D81B004460091924604F1140B55465D
:209EC0000027A36D5344534502D2E36D5B1CE365A36D5344A3651BE0636DC3F140039D42E9
:209EE00094BF2E461E4632460098636D39180BEB0300FEF71AFF636D334463653744AD1BAD
:209F0000636D402B04D12046FFF7CCFC00236365002DE1D10023184601B0BDE8F08D70B5CA
:209F200004460E4604F11405626D8023AB54626D521C6265626D382A0BD9606DC0F140022B
:209F400028440021FEF700FF2046FFF7ABFC00226265606DC0F1380228440021FEF7F4FE68
:209F6000A26D520FE264A26DD2002265E36DE26C02EBC302E26404F14C0108460222FFF783
:209F800040FC2046FFF78EFC214630460522FFF75DFC0022104670BDF0B598B005460E461B
:209FA000174601246846FFF75DFF56B13A4631466846FFF77CFF25B129466846FFF7AFFF6B
:209FC00000242346184618B0F0BD2DE9F00404460D461646002318E04FEA830C55F80C7072
:209FE00007F0FF274FEA172A55F80C7007F0FF174AEA072744F80C704FEA830C54F80C704A
:20A000004FEA374744F80C705B1CB342E4D3BDE8F0047047F0B404460D461646002321E09D
:20A020004FEA830C55F80C703F0E04F80C7004F1010C55F823700CEB830C3F0C8CF8007023
:20A0400004F1020C55F823700CEB830C3F0A8CF8007004F1030C0CEB830C55F823708CF86C
:20A0600000705B1CB342DBD3F0BC70472DE9F044ADF5087D04464FF4807245F6D011C1F234
:20A08000030148A8FEF719FC04F1200108A81022FFF79BFF102243E095000DF1180C05EB3E
:20A0A0000C0109684B0C05EB0C01096843EAC13305EB0C010968CF0C05EB0C01096847EA54
:20A0C00041314B4005EB0C010968ADF11C0A83EA912305EB0A010968CF0905EB0A01096880
:20A0E00047EA416705EB0A0109684FEA914C05EB0A0109684CEA81314F4005EB0A010968B6
:20A1000008AE87EAD1010B440DEB0501091D096819440DEB0503203B1B680B447351521CA6
:20A12000402AB9D3002205E09300EC46E1584CF80310521C082AF7D300231A46A7E10DF15A
:20A14000100C9CE842044FEAF12C8CEAB11585EA716C8AEA060501EA05018AEA010548A960
:20A16000AC4451F8235008A9654451F8236007992E443144039D0D4403959DE86040AA46E8
:20A180004FEA7A3C8CEABA0C8CEABA57B4464CEA0A050EEA05060CEA0A0535433D440D447C
:20A1A00007950DF10C0C9CE842044FEAF12C8CEAB11585EA716C8AEA060501EA05018AEA61
:20A1C0000105AC4449A901EB83052D6809A901EB83066544366806992E443144029D0D44AA
:20A1E0000295DDF81CA04FEA7A3C8CEABA0C8CEABA579DE86000AC464CEA0A052E400CEA05
:20A200000A0535433D440D4406950DF1080C9CE842044FEAF12C8CEAB11585EA716C8AEA1C
:20A22000060501EA05018AEA0105AC444AA901EB83052D680AA901EB8306654436680599AF
:20A240002E443144019D0D440195DDF818A04FEA7A3C8CEABA0C8CEABA57DDF81CC0009E04
:20A260004CEA0A052E400CEA0A0535433D440D4405950DF1040C9CE842044FEAF12C8CEA9E
:20A28000B11585EA716C8AEA060501EA05018AEA0105AC444BA901EB83052D680BA901EB35
:20A2A00083066544366804992E443144009D0D4400950DF1140C9CE86040AA464FEA7A3CA6
:20A2C0008CEABA0C8CEABA57B4464CEA0A050EEA05060CEA0A0535433D440D4404959DE80C
:20A2E00042044FEAF12C8CEAB11585EA716C8AEA060501EA05018AEA0105AC444CA901EB7F
:20A3000083052D680CA901EB83066544366803992E443144079D0D4407950DF1100C9CE8FD
:20A320006040AA464FEA7A3C8CEABA0C8CEABA57B4464CEA0A050EEA05060CEA0A0535431C
:20A340003D440D44039507994FEAF12C8CEAB11585EA716C9DE840048AEA060501EA0501DC
:20A360008AEA0105AC444DA901EB83052D680DA901EB83066544366802992E443144069DDD
:20A380000D4406950DF10C0C9CE86040AA464FEA7A3C8CEABA0C8CEABA57B4464CEA0A05B6
:20A3A0000EEA05060CEA0A0535433D440D44029506994FEAF12C8CEAB115079EDDF800A069
:20A3C00085EA716C8AEA060501EA05068AEA060505EB0C064EA901EB83052D6835440EA90B
:20A3E00001EB8306366801992E443144059D0D4405950DF1080C9CE86040AA464FEA7A3C27
:20A400008CEABA0C8CEABA57B4464CEA0A050EEA05060CEA0A0535433D440D4401950DF154
:20A42000140C9CE842044FEAF12C8CEAB11585EA716C8AEA060501EA05018AEA0105AC447A
:20A440004FA901EB83052D680FA901EB83066544366800992E443144049D0D4404950DF17E
:20A46000040C9CE86040AA464FEA7A3C8CEABA0C8CEABA57B4464CEA0A050EEA05060CEACE
:20A480000A0535433D440D4400950833521C082AFFF455AE002207E09600EC46A5595CF8DA
:20A4A00006C06544A551521C082AF5D30DF5087DBDE8F08410B404464EF26761C6F6092133
:20A4C00021604AF68561CBF6673161604FF27231C3F66E41A1604FF23A51CAF24F51E16005
:20A4E00045F27F21C5F20E11216146F68C01C9F6053161614DF6AB11C1F68371A1614CF6BF
:20A500001951C5F6E031E16100212166002161660021A1660021084610BC70472DE9F04DC6
:20A5200081B004460091924604F1200B554600260027636E5344534502D2A36E5B1CA366CA
:20A54000636E534463661BE0236EC3F140039D4294BF2E461E4632460098236E39180BEB55
:20A560000300FEF7E2FB236E334423663744AD1B236E402B04D12046FFF778FD00232366E4
:20A58000002DE1D10023184601B0BDE8F08D70B504460E4604F12005226E8023AB54226EE9
:20A5A000521C2266226E382A0BD9206EC0F1400228440021FEF7C8FB2046FFF757FD002237
:20A5C0002266206EC0F1380228440021FEF7BCFB626E520FA265626ED200E265A36EA26D00
:20A5E00002EBC302A26504F1580108460222FFF7ECFC2046FFF73AFD214630460822FFF774
:20A6000009FD0022104670BDF0B59BB005460E46174601246846FFF74DFF56B13A46314690
:20A620006846FFF77BFF25B129466846FFF7AFFF0024234618461BB0F0BD2DE9F04C8246E8
:20A640000E461D4685B01746DDF830C09DF8344045F6585BC1F2030B01AABBE80B000BC20E
:20A66000DBF800001060009733462246614601A800F0D8FF08B1012042E001A82B460221CF
:20A680001A7890F800C0624501BF13F8012F10F801CF624513F8012F01BF10F801CF624545
:20A6A00013F8012F10F801CF01BF624513F8012F10F801CF624501BF13F8012F10F801CF93
:20A6C000624513F8012F01BF10F801CF624513F8012F10F801CF08BF624501D002200FE0F6
:20A6E000013001330139CBD13B46324651464BF6AC50C0F6000000F0DAFE003818BF0120A4
:20A7000005B0BDE8F08C00B513460A4601464BF6AC50C0F6000000F0F0FE003818BF0120BD
:20A7200000BD00B501464BF6AC50C0F6000000F04BFF003818BF012000BD70B506460D4682
:20A740004FF040742A88A4F18074013A19D32A80120416D13046327E210E022A0AD946F65D
:20A76000F862C1F20302515C03F0A9FF0235200EE8D170BD46F6FC62C1F20302515C04F041
:20A7800070FA0235200EDDD170BD2DE9F04405468A4603EB83004BF22471C0F6000101EBC4
:20A7A000C0079AF80010002401F0F000202856D11E4611F00F01F87E87F823400F2809D2DD
:20A7C0000130F876C0B2814207D03846052103F076FF4DE0FC76A142F7D1117946F69442DC
:20A7E000C1F2030202EBC50004F088F90028384621D1FA8B013AFA83202287F824200AF1A5
:20A80000010103F080FFB889D8B1C5EB850046F6A441C1F2030101EB8001F88B4BF214723A
:20A82000C0F60002A0B94989F981C6EB860302EB430188801CE0012103F041FFB88900288E
:20A84000E3D1072078773846214603F038FF0FE00889C6EB860302EB4301888008E000281C
:20A8600018BF102804D138460124072103F027FF2046BDE8F0842DE9F04F83B082469B4660
:20A88000156846F69441C1F2030101EBC00915F80B7099F8003007F0F0078DF8037003EBA1
:20A8A00083004BF22471C0F6000101EBC0045D4494F818C0002692F80480CAEB8A0046F628
:20A8C000A441C1F2030101EB80000290BCF1000C33D0BCF1050C35D0BCF1010F40F098805A
:20A8E000002F18BF102F40F093802046072103F0E6FE4BF22070C0F60000A4F806A000F8AE
:20A900000A807FB3102F3DD12978687801F00F02024334D168886A79C2EA0061000A41EA4C
:20A9200000402979424640EA012633462946484604F04FF900286BD12BE0002F18BF102FF6
:20A9400066D105E029465046FFF71FFF01285FD14BF22070C0F60000A4F806A000F80A8022
:20A96000002FCFD1294648464246082A94BF2E786E78334604F02DF9002849D109E00A07A3
:20A9800040EA1256334642462946484604F021F9F0BB84F81AB09DF80310A68184F82410A9
:20A9A00026810321E07660762176012084F823004FB9681C206084F82260204603B0BDE881
:20A9C000F04F03F0CDBF02994889E0810020E083687880B9287810F00F0F0CD1A8EB0B0017
:20A9E000FA3084F82200A81D2060204603B0BDE8F04F03F0B5BFA8EB0B00FE3084F822007C
:20AA0000A81C2060204603B0BDE8F04F03F0A8BF03B0BDE8F08F02F02ABA02F028BA02F028
:20AA200026BA02F024BA02F022BA02F020BA02F01EBA02F01CBA02F01ABA00B511B100F00D
:20AA40000AF800BD0BB1084600BD0146104600F06DFA002100BD2DE9E04F8AB015461E4660
:20AA60001A4300F06082AC461A1E0CBF01230023002B18BF2A46B2FA82F202EB43176A1E0A
:20AA800066F1000302EA050B03EA06025BEA020206D10AB0C7F13F02BDE8E04F00F0A9BA71
:20AAA000A84271EB060202D2002001463BE217B90120394637E26FF0004E202FC0F2B48085
:20AAC000C9BB0246C7F14007C7F1200015FA00F001D1012026E0AEEB0001A0FB01356B42C3
:20AAE000A3FB01135900A0FB01356B42A3FB01135900A0FB01356B42A3FB01135900A0FB9E
:20AB000001356B42A3FB011399000339A0FB01354319C91AA0FB01354319C91AA0FB0135DA
:20AB20004019081AA2FB00017B1E501A01EB5000D8400021F7E1302F76DB0A0CC1F30F0320
:20AB40000146000CC1F30F01CCF30F06C7F14007C7F1200C16FA0CF501D1012534E0AEEB71
:20AB6000050CA5FB0CBECEF1000BABFB0CCB4FEA4B0CA5FB0CBECEF1000BABFB0CCB4FEA99
:20AB80004B0CA5FB0CBECEF1000BABFB0CCB4FEA4B0CA5FB0CBECEF1000BABFB0CCB4FEA33
:20ABA0008B0CACF1030CA5FB0CBE05EB0E0BACEB0B0CA5FB0CBE05EB0E0BACEB0B0CA5FB70
:20ABC0000CBE7544ACEB0505A2FB05EB013FA2EB0B0C0BEB5C0C2CFA07FC06FB1C2243EAED
:20ABE0000243A3FB05B2A3EB020B02EB5B02FA4006FB123340EA0340A0FB05B3A0EB030BFD
:20AC000003EB5B03FB4006FB130041EA0041A1FB055092B2091A00EB5100F84080B240EA05
:20AC2000034042EA0C417EE14FEA271BCBF1040203929FB197B11F2F06D9A7F1200205FAA9
:20AC400002F64FF0000C09E006FA07F2C7F120052CFA05F545EA02060CFA07FC17F00F0775
:20AC60000A0C1CD10FB90A460EE01F2F05D9A7F1200100FA01F2002006E0B940C7F1200220
:20AC800020FA02F20A43B840ABF1010B4FEA1248C2F30F02030CC0F30F00002120E04FF02F
:20ACA0000008BFB1C7F1100322FA03F80FB90A460EE01F2F05D9A7F1200100FA01F2002042
:20ACC00006E0B940C7F1200220FA02F20A43B84011460A0CC1F30F030146000C0904090CC0
:20ACE0004FEA1C49ADF816904FF00009DA46CDF81890CDF81C90ADF81460350CCCF30F06F7
:20AD0000A5F1010C1CEA050F14BF4FF010094FF00F09CDF81090C9F1200C15FA0CF704D1C2
:20AD20004FF0010CCDF808C036E0AEEB070CA7FB0CBECEF1000BABFB0CCB4FEA4B0CA7FB93
:20AD40000CBECEF1000BABFB0CCB4FEA4B0CA7FB0CBECEF1000BABFB0CCB4FEA4B0CA7FB6D
:20AD60000CBECEF1000BABFB0CCB4FEA8B0CACF1030CA7FB0CBE07EB0E0BACEB0B0CA7FB7F
:20AD80000CBE07EB0E0BACEB0B0CA7FB0CBE7744ACEB070CCDF808C01FFA88FCAC4503D170
:20ADA0004FF48037944619E0DDF808E0DDF8109042EA0C4CACFB0EE7A9F1010BACEB070E22
:20ADC00007EB5E0727FA0BF705FB17CCBDF8149043EA0C4E07FB09FBF34508D9013FAC44E7
:20ADE000BCF5803FF2D3BDF814C007FB0CFBDDF80C904FF0000C19F0040F09D007FB161CA7
:20AE0000CCF30F014FEA1C4CCCF1000C1FFA8CFCDDF80C9019F0050F0DD0BDF8169007FB90
:20AE20001900A0EB0C0CCCF30F004FEA1C4CCCF1000C1FFA8CFCA3EB0B03A3EB0C0CCCF37C
:20AE40000F034FEA1C4C07FB1522CCF1000C1FFA8CFCA2EB0C024FEA124CCCF1000C1FFA88
:20AE60008CFC1FFA88F9A9EB0C0C5FEA1C4B24D0013FBAF1000F20D0DDF80C9019F0040FE9
:20AE800005D071188C44CCF30F014FEA1C4CDDF80C9019F0050F07D0BDF816904844844400
:20AEA000CCF30F004FEA1C4CBDF81490AA184B449C44CCF30F0302EB1C424FF00009089796
:20AEC000CDF824905FEA0A1B01D1CB4615E0DC46BBF11F0F05D9ABF1200C07FA0CFB4F4674
:20AEE0000BE0DDF824B0CCF1200E27FA0EFE0BFA0CFB4EEA0B0B07FA0CF7DDF818C09046C5
:20AF0000DDF81C901A464CEA070703460697084649EA0B090021CDF81C90BAF1010ABFF496
:20AF20003BAF384649460AB0BDE8E08F4FF00003020057D0B2EB112F98BF4FEA0222F9D384
:20AF4000B2EB510F42D8B2EB910F3AD8B2EBD10F30D8B2EB111F26D8B2EB511F1CD8B2EB9D
:20AF6000911F12D8B2EBD11F08D8B1EBC21F43EB030328BFA1EBC211B1EB821F43EB030362
:20AF800028BFA1EB8211B1EB421F43EB030328BFA1EB4211B1EB021F43EB030328BFA1EB50
:20AFA0000211B1EBC20F43EB030328BFA1EBC201B1EB820F43EB030328BFA1EB8201B1EBB4
:20AFC000420F43EB030328BFA1EB4201914243EB030328BF891A824288BF4FEA1222C4D198
:20AFE0001846704740F20002C0F20002002AF8D01047402A88BF4022D2F1200306DAA2F19F
:20B00000200321FA03F04FF00001704720FA02F001FA03FC40EA0C0021FA02F1704761B4F2
:20B0200010F0030F06D0521E3BD300F8011B10F0030FF8D101F0FF0C4CEA0C2C402A4CEAB1
:20B040000C4C1FD3A2F14002634665466646A0E86810A0E86810403AA0E86810A0E8681057
:20B06000F5D240321DD012F0200F1CBFA0E86810A0E8681012F0100F18BFA0E8681012F0A4
:20B080000F020ED0121F06D340F804CB121F02D340F804CBF6E7121D03D000F8011B521E40
:20B0A000FBD161BC704710B4044645F69452C1F203025FFA94F3D15C5FFAA4F3D35C1B02C0
:20B0C0001943230ED35C1B041943E3B2D35C1B06194300BF084610BC70472DE9F04F85B0DE
:20B0E0008346049117464FF0010A00238DF80330102F07D0182F05D0202F03D004238DF870
:20B10000033068E007F118038BF8003000238BF801300BF10405BB10DEB23A4604990BF19E
:20B120000400FDF702FE002451E094FBF6F306FB134353B3082E1BD114F0030F18D1331980
:20B140005B1E55F82300FFF7AEFF03460193DDF804C04FEA3C63019333194FEA830C55F820
:20B160002430DDF8048088EA030345F80C302CE033194FEA830C5B1E55F8233055F824E0A7
:20B1800083EA0E0345F80C301FE006EB0408A8F1010355F82300FFF786FF55F824C080EA99
:20B1A0000C0345F8283033194FEA830C55F80C3083EA0A0345F80C3000231AF0800F18BFC8
:20B1C0001B2383EA4A03DBB29A46631CDCB29BF800309C42A9D39DF80330184605B0BDE860
:20B1E000F08F2DE9F04D8AB007468B46019245F69464C1F2030407F1040A04253A1D019985
:20B2000006A800F0EBF800BF9DF818C054F82C309DF81DC01E0246EA136654F82C309DF861
:20B2200022C086EA334654F82C3086EA33269DF8273054F8233073405AF825605E40029687
:20B240009DF81CC054F82C309DF821C01E0246EA136654F82C309DF826C086EA334654F83E
:20B260002C3086EA33269DF81B3054F8233073406E1C5AF826605E4003969DF820C054F81D
:20B280002C309DF825C01E0246EA136654F82C309DF81AC086EA334654F82C3086EA33269E
:20B2A0009DF81F3054F823307340AE1C5AF826605E4004969DF824C054F82C309DF819C0EF
:20B2C0001E0246EA136654F82C309DF81EC086EA334654F82C3086EA33269DF8233054F8FC
:20B2E00023307340EE1C5AF826605E40059602A906A81022FDF719FD2B1DDDB23B789D422F
:20B3000082D3002649E0B300DDB20DF1080C45F694581CF805C0C1F2030806AB18F80CC0EA
:20B3200003F805C00DEB050305F1040C0CF00F0C0DEB0C0E45F694589EF809C0C1F20308DA
:20B34000193318F80CC083F800C00DEB050305F1080C0CF00F0C0DEB0C0E45F694589EF89A
:20B360000AC0C1F203081A3318F80CC083F800C00DEB050305F10C0C0CF00F0C0DEB0C0EAA
:20B3800045F694589EF80BC0C1F203081B3318F80CC083F800C0731CDEB2042EB3D33B7878
:20B3A00007F1040C0CEB830206A9584600F016F8002318460AB0BDE8F08D30B404460D46E0
:20B3C0000F2207E0A35C5B1CA354A35C03B103E0531E5AB2AA42F5DA30BC7047F0B4044689
:20B3E0000D461646002306E0F75C15F803C087EA0C07E7545B1C102BF6DBF0BC70472DE9B7
:20B40000F04D83B08246019302920C46DDF82C8028F00F08CDF80080DDF82CC00CF00F0BAE
:20B4200001279AF801C0BCF1000F04D1BBF1000F01D0042736E00027002616E001982146F0
:20B4400032182046FFF7CAFF224621465046FFF7C8FE9AF801C0BCF1000F05D1029A214674
:20B46000B0181022FDF761FC1036DDF800C06645E4D3BBF1000F15D000250CE0DDF804803A
:20B4800005EB060E14F805C018F80EE08CEA0E0C04F805C06D1C5D45F0D322462146504635
:20B4A000FFF79FFE00BF384603B0BDE8F08D2DE9F04404460E4617469A4600255246394686
:20B4C0002046FFF70AFE84466546314604F582701022FDF72AFC04F58A7010220021FDF7AB
:20B4E00033FC4FF0000CC4F824C14FF0000CC4F828C100BF2846BDE8F0842DE9F04F85B071
:20B5000002930391049204464FF0000C8DF802C094F801C00825BCF1040F08BF0C258DF8D9
:20B520000350D4F82851DDF808C06544C4F828510027029D40E04FF0000AD4F824C1BCF16B
:20B54000000F0CD104F5827204F58A712046FFF748FE9DF8031004F58270FFF72EFFD4F8FA
:20B5600024C1CCF1100BAB4594BFDC46AC46CDF804C0D4F824C1DDF8048008EB0C0AD4F84F
:20B5800024610FE0DDF8108004F58A7C18F807E01CF806C0DDF80C808EEA0C0C08F807C04A
:20B5A0007F1C761C5645EDD3DDF804C0A5EB0C050AF00F0CC4F824C1002DBCD19DF802C002
:20B5C000604605B0BDE8F08F30B404460D46D4F828212A600022104630BC7047F0B40446C3
:20B5E0000D462A78D31100220DE0AE5C7600A654561996F801C0A65C46EAEC16A65402F10A
:20B60000010C5FFA8CF20F2AEFD3AE5C7600A6544FF0870C13FB0CFCA65C86EA0C06A6546B
:20B62000F0BC70472DE9F04FD6B0039004918DF807205F9E1F4646F2F474C1F20304D4F870
:20B6400000C0CDF818C1D4F804C0CDF81CC1D4F808C0CDF820C1E46849949DF8072004999E
:20B6600005A8FFF73AFD8446E246BAF1000F73D10EB9002504E006F10F042409641E250151
:20B6800046AA114605A8FFF7ACFD46A952A8FFF7A5FF002E16D916F00F0F13D100240EE05D
:20B6A0000DF5A47B05EB040E1BF804B017F80EE00DF5947C8EEA0B0B0CF804B0641C102C8F
:20B6C000EED32FE006F00F0B52A94EA8FFF786FF00240EE00DF59C7E05EB04081EF804E0FA
:20B6E00018F807800DF5947C88EA0E0E0CF804E0641C5C45EED30DF59C7E1EF804E00DF531
:20B70000947C8EF0800E0CF804E0641C08E00DF59C7E0DF5947C1EF804E00CF804E0641C2D
:20B72000102CF4D34FF0010C8DF815C046A810220021FDF709FB00953B4646AA114605A81D
:20B74000FFF75DFE4AAA46A90846FFF747FE46AA039905A8FFF745FDD446604656B0BDE850
:20B76000F08F46F69833C1F203031A68B0FBF2F303FB1200002804D1B1FBF2F000FB1210C0
:20B78000002818BF0120704700B500F0B4FD02F090FC02F02BFD00BD704700B501F092FA3E
:20B7A00002F09EF902F09EF901F0D2FC01F0F9FA02F0A5F902F01EF902F031F9002000BD42
:20B7C00001F049BC01F05BBC30B5012808D10546084608F02CFA0446284602F0E8F902E060
:20B7E000002402F0E4F9204630BD08F041BA30B5039C9DF810C0BCF10A0F25D1B0F11205B3
:20B800000BD2B5F1FF3512D00F3516D0B5F1FF3F0DD001201221217030BD003D0DD02F3D4C
:20B8200005D0012D09D001201221217030BD08F048F8003808BF0C2030BD1A4608F066F854
:20B84000003808BF0C2030BD21461846BDE8304008F070B82DE9D04482B084468A4608993F
:20B86000079C1E4646F6B430C1F20300036820462BB98DE80014336808F01BFA77E046F672
:20B880004F44C1F2030423781746E3BB8DE80014336808F00EFA002869D14BF63833C0F6DD
:20B8A00000031A684BF63C31C0F6000141F8327001EBC20132684A604BF26801C0F6000173
:20B8C0000F604BF26C01C0F600010860316846F6414CC1F2030CCA199CF80030013A012BFE
:20B8E00045D14BF6247CC0F6000CDCF8003093423DD101F5847131604CF6A022C0F6000270
:20B900000121117033E04BF62874C0F6000423689A4218D14BF26803C0F6000346F6504C51
:20B92000C1F2030C1A609CF800304FF00A0C012B4FF000038DE808100CBF33684FF480731B
:20B9400008F0B7F913E08DE80014336808F0B1F94BF63833C0F600031A684BF63C31C0F63B
:20B96000000141F8327001EBC20132684A6002B0BDE8D08430B515461C4646F6B431C1F2D7
:20B9800003010868002858D046F64F41C1F20301087878BB4BF26C01C0F600010868801844
:20B9A0004BF26802C0F60002086011684BF62472C0F6000240181168013881423DD218467E
:20B9C000042106F059FEF8BB4CF6A022C0F60002012010704CF6A422C0F60002A5F1080186
:20B9E000107089B204F1080002F06CF9002808BF30BD29E04BF26802C0F6000210684BF63B
:20BA00002872C0F600021168884216D11846042106F032FEC0B946F65041C1F20301087884
:20BA200001280AD0A5F1080189B204F1080002F049F9002808BF30BD06E02946204602F06F
:20BA400041F9002808BF30BD022030BD10B581B04CF29404C0F600040A2910D12178012964
:20BA600023D10221217001464CF6C010C0F600000A2207F0CEF8003808BF0C2017E046F6C8
:20BA8000B432C1F20302116802290ED1217803290BD001460DF1020007F003F938B907F0C3
:20BAA000D3F820B90321217001E008F043F901B010BD2DE9F04D81B00C469DF82C50099F0B
:20BAC000DDF828B09646012646F63842C1F2030246F6F44A1188C1F2030A88427CD10A2D27
:20BAE00071D146F64A41C1F203010878012858D146F64840C1F2030090F80080B8F1010F79
:20BB000008BF4444207814F8011F41EA002008F02FF8051E00F0868046F64541C1F2030116
:20BB2000087885427ED2B8F1000F41D1C5EB850046F69001C1F2030101EBC000027B0BF1C6
:20BB400003009AF8041072B90239884240F092804BF64070C0F6000002703878164600287D
:20BB600040F08A8027E0884240F084806078A17841EA00204BF63C71C0F6000108804BF6DC
:20BB80003E70C0F60000058008F008F8002849D04BF64071C0F600010E70387800286BD148
:20BBA00009E09AF804100BF10300884262D125783878002860D1394628460A2208F0D5F876
:20BBC000061E59D13CE03A4619462B46704601B0BDE8F04D08F093B946F63A42C1F20302AE
:20BBE0001188884235D10A2D2CD19AF80C100BF1030088423ED146F64A41C1F20301087824
:20BC0000012813D122181078517841EA002007F0AFFF051E06D046F64541C1F203010878AA
:20BC2000854204D331203870304626E02578387810BB394628460A2206F0E0FF061EF1D105
:20BC40000C201AE03946184601B0BDE8F04D07F028B846F63C42C1F20302118888420BD1C6
:20BC60000A2D09D19AF814100BF10300884208BF002002D013203870304601B0BDE8F08D57
:20BC800001207047002070474BF26401C0F60001087870474BF26401C0F6000108707047DD
:20BCA00008F05EB970474BF62473C0F600031A68013282429CBFA1F58070092806D24BF28D
:20BCC000C871C0F600010020086070470120704700B592B208464BF2CC71C0F6000106F0EF
:20BCE00060FB002000BD30B515464BF2C874C0F6000492B220684BF2CC73C0F60003C018C0
:20BD000006F04FFB206840192060002030BD46F61842C1F203024CF6BC201168C0F60000DA
:20BD200046F6DC32C1F2030240F8041B11684A1E00210B4680E80C0046F6D033C1F20303EB
:20BD400046F6CC3CC1F2030C1A68DCF80030D218013A46F6D433C1F2030382601A68013A97
:20BD600046F6D833C1F20303C2601A6846F6F833C1F2030302611A68013A4261816146F61E
:20BD8000E833C1F2030346F6E43CC1F2030C1A68DCF80030D218013A46F6EC33C1F20303F2
:20BDA000C2611A68013A46F6F033C1F2030302621A6846F6F433C1F2030342621A6882627F
:20BDC00040F22472C26240F2DF72026340F22C72426346F64443C1F2030381631A7846F6EC
:20BDE0004743C1F2030380F83C201A78C18780F8401080F83D20012180F8411070474CF6D1
:20BE0000BC22C0F60002106850F8181F11F0020F07D001686FF341010160016811F0020FC3
:20BE2000FBD1016811F0010F08BF704701686FF300010160016811F0010FFBD1704710B54F
:20BE40004CF6BC22C0F60002146854F8181F11F0010F18BFFFF7D3FF206810F0010F07D1EB
:20BE6000206840F001002060206810F0010FFBD0206810F0020F18BF10BD206840F002002F
:20BE80002060206810F0020FFBD010BD4CF6BC20C0F600004269036943EA426290E80A00B3
:20BEA00042EA0342C36842EA0322CA6190F84020022A18BF704790F84120012A0ED18269EA
:20BEC000836A43EA0242436A42EA0312036A42EA0322CA608A6942F400728A618A6942F083
:20BEE00040028A61CA6842F40002CA60C26A886C62F30E20886470474CF6BC20C0F6000067
:20BF000090F840100068022908D1816941F48071816181696FF3CF31816105E0012903D1DA
:20BF200081696FF30821816101696FF304110161704740F20000C4F2530040F2FF320021F1
:20BF4000016041608160C160016141618161C1612030013AF4D1072140F8042B0139FBD1F0
:20BF600040F20000C4F2550040F2FF32016041608160C160016141618161C1612030013A8A
:20BF8000F4D1072140F8042B0139FBD170472DE9F00D4CF6BC22C0F6000213680020D3F83F
:20BFA000C010012262F31541C3F8C010190C090441F480370146C4F253018F4206D14BF204
:20BFC000B002C0F600021178024605E04BF2B40CC0F6000C9CF800104CF6AC2401EBC1051A
:20BFE000ED00D3F8C0C04FEA950A6AF38F0CC3F8C0C0D3F8C8C04CF604364CF0070CC3F825
:20C00000C8C0C0F6000601EBC10C4FEA8C1C0CF5B87CD3F8A0A04FEA9C0B6BF38F0AC3F870
:20C02000A0A0D3F8A0A04FF0080868F3164AC3F8A0A0D3F8A0A0C0F600046FF3DF7AC3F875
:20C04000A0A0D3F8BCA032734AF0070AC3F8BCA03D4347EA0C0A86E8280404F108059ABBBA
:20C060006618013E002943D00F0616F801C96044C0B2A7F180775FEA176CF6D14CF6BC2C78
:20C08000C0F6000C9CF84260012E39D0002E6FD100F54B604FEA900CD3F884006CF38F0050
:20C0A000C3F884002020002A54D16054D3F88400022161F31740C3F88400D3F8800061F303
:20C0C0000510C3F8800053E06E1E89B1705C0F068E19013EA7F180775FEA176C08D016F80F
:20C0E00001C96044C0B2A7F180775FEA176CF6D14CF6BC2CC0F6000C9CF84260012EC5D157
:20C1000000F54B604FEA900CD3F888006CF38F00C3F88800402072B96054D3F88800022171
:20C1200061F31640C3F88800D3F8800061F38300C3F880001CE06854D3F88800022161F333
:20C140001640C3F88800D3F8800061F38300C3F880000DE06854D3F88400022161F3174023
:20C16000C3F88400D3F8800061F30510C3F88000BDE8F00D7047F0B400224CF6BC23C0F69B
:20C1800000031046196814466FF30F0141F4803113464CF6043CC0F6000CC4F253039CF8D6
:20C1A0000C6099424DD14BF2B003C0F600031978C4F253044CF6AC23C0F60003002E4DD0BE
:20C1C0005B18073371B113F801090906A1F180710D0E07D013F801C96044C0B2A1F1807189
:20C1E0000D0EF7D14CF6BC23C0F6000393F84250012D48D14FEA126C011901EBCC01D3F8C9
:20C2000030C0D1F8B07C47EA0C07C1F8B07CD1F8B47CD3F834C047EA0C07C1F8B47CD1F862
:20C22000B07C65F35F77C1F8B07CD1F8B47C65F39F77C1F8B47C02F18072110E0829D7D390
:20C240004AE04BF2B403C0F600031978C4F255044CF6AC23C0F60003002EB1D15B18013B3E
:20C260000029BFD0090613F801C96044C0B2A1F180710D0EF7D14CF6BC23C0F6000393F841
:20C280004250012DB6D015BB4FEA126C011901EB8C01D3F830C0D1F8B07C47EA0C07C1F891
:20C2A000B07CD3F834C0D1F8B07C47EA0C47C1F8B07CD1F8B07C4FF0010C6CF3DD67C1F898
:20C2C000B07CD1F8B07C6CF39F77C1F8B07C02F18072110E08298BD326B94BF2B000C0F6CE
:20C2E000000003E04BF2B400C0F60000017801310170F0BC704710B5FFF709FD4CF6BC2452
:20C30000C0F6000494F84500012818BF10BD0020FFF795FD54F80C0B0122016A62F30101D5
:20C32000016294E8085054F8082C4CEA4E6141EA024141EA0321C16194F834100C3C02293F
:20C3400020D194F8411001290FD1A16904F1200292E808504EEA014141EA0C1141EA032101
:20C36000C160816941F400718161816941F040018161C16841F40001C160E26A816C62F3DE
:20C380000E2181644BF6E064C0F600040020FFF7B3FD207818B9FFF7CCFD0120207000208B
:20C3A000FFF7F5FD0020FFF7E6FE0020FFF727FD4CF6A821C0F600014FF0FF30088010BDDC
:20C3C0002DE9F00482B0024645F68C5CC1F2030C9CE809008DE809000020012A11D88B68C2
:20C3E0007BB18D786DB14CF6BC24C0F600042268D2F8CC20D20748BF022000F1AE80082D7C
:20C4000001D90120A9E009884CF6A822C0F6000211804CF60431C0F600014A684FF0080C7F
:20C4200051686CF31341516094F840C05168BCF1020F04D141F400114FF0FF3602E021F456
:20C44000001106465160516866F31451516011686FF35D71116094F843C01168BCF1010FC7
:20C460000ED141F080411160D4F838C011686CF31C0111600146AC465FEADC0734D00EE0F9
:20C480006FF39E711160A16B4FEA814C11686CF31C0111600146AC465FEADC0724D06D4636
:20C4A0001E46F90016F808AB05F808AB16F807AC05F807AC16F806AC05F806AC16F805AC0F
:20C4C00005F805AC16F804AC05F804AC16F803AC05F803AC16F802AC05F802AC16F801ACB8
:20C4E00005F801AC013FDDD11CF0070509D0CB180DEB0106491913F801CB06F801CB013D90
:20C50000F9D1C9B208290BD20DEB0103090603F8010B01F180714FEA116CBCF1080FF6D390
:20C520009DF80230BDF80010C1EA03419DF8033041EA036191609DF80630BDF80410C1EAF9
:20C5400003419DF8073041EA0361D1602268D2F8D01041F00101C2F8D01002B0BDE8F004BF
:20C560007047052839BF800008300001D030C0B270470021012888BF70472DE9B04894B063
:20C580004CF6BC25C0F600052A68D2F8BC0010F00700052802D28000083002E00001D03002
:20C5A000C0B2D2F8A440C4F305244CF60433C0F6000308309A68042704FB002C0CF10803B1
:20C5C000DCF80400C0F3034B6A4653F8100B50540131C9B24FEA102E02F801E00131C9B21C
:20C5E0004FEA104E02F801E00131C9B24FEA106E02F801E0013153F80C0CC9B250540131A4
:20C60000C9B24FEA102E02F801E00131C9B24FEA104E02F801E00131C9B24FEA106E02F8D0
:20C6200001E0013153F8080CC9B250540131C9B24FEA102E02F801E00131C9B24FEA104E26
:20C6400002F801E00131C9B24FEA106E02F801E00131C9B253F8040C50540131C9B24FEA2E
:20C66000102E02F801E00131C9B24FEA104E02F801E00131C9B24FEA106E02F801E0013111
:20C68000C9B2013FA1D1DCF8000095F84210C0F38A40012907D1DCF800006FF0030161F3B0
:20C6A0005F70DCF8001095F84010022908BF40F080404CF60431C0F600011290087B8DF830
:20C6C0004E0047F20010C1F20300ADF84C7010F80B00CDF840D0ADF8440010A912A801F077
:20C6E0003DFD2A68106D40F001001065C2F8A84014B0BDE8B048704710B54CF6BC24C0F6F4
:20C70000000494F84500012818BF10BD2068D0F8A41011F07F0F03D00020FFF72AFF20684A
:20C72000006D10F0010F08BF10BD0020BDE81040FFF71FBF4CF6BC21C0F6000191F845005B
:20C74000012818BF704710B54CF6A824C0F6000420884FF6FF7188420DD04CF6BC22C0F6BB
:20C7600000021168D1F8CC10C90704D401F030FD4FF0FF302080BDE8104070474CF6BC22F9
:20C78000C0F600021068016D41F000710165416C11F0800F08BF704781696FF3000140F8B3
:20C7A000181F0146086810F0010FFBD170472DE9F004059C069D40F20007C4F2310707EB91
:20C7C000C016A7F5803707EB001702F01F0C04290CD2C8B2C2001F2000FA02FA386820EAE4
:20C7E0000A000CFA02F2104338600DE001F1FC00C0B2C2001F2000FA02FA786820EA0A0012
:20C800000CFA02F2104378608A000F2000FA02FC706C20EA0C0013F00F0303FA02F21043F7
:20C82000706415B904FA01F0B060BDE8F0047047F0B582B00124002528468DE811000E23C1
:20C84000152202210620FFF7B2FF28468DE811000823152203210620FFF7A9FF46F64640B1
:20C86000C1F2030046F678040778C1F20304FE0851D00195A068009094E803000E232A469C
:20C88000FFF795FF019554F8141F009114E903000E232A46FFF78BFF019554F80C1F0091A9
:20C8A00014E903000E232A46FFF781FF019554F80C1F009114E903000E232A46FFF777FFB6
:20C8C000019554F80C1F009114E903000E232A46FFF76DFF019554F80C1F009114E9030019
:20C8E0000E232A46FFF763FF019554F80C1F009114E903000E232A46FFF759FF019554F8D0
:20C900000C1F009114E903000E232A46FFF74FFF0434013EADD117F007050BD00196A068F4
:20C920000090616854F80C0B0E233246FFF73FFF013DF3D102B0F0BD41F2C432C4F22002FC
:20C940001068012161F30100106010686FF30920106052F8C40D61F30100106010686FF34B
:20C9600009201060106840F48030106041F28032C4F22002106861F30100106010686FF37E
:20C9800009201060106840F48030106040F20002C4F22402106861F30300106041F200525E
:20C9A000C4F22602106861F30200106046F68032C1F20302116841F24452C4F2260210681D
:20C9C00061F30200106046F68432C1F20302116841F24452C4F22602106861F30710106074
:20C9E00046F68832C1F20302116841F24452C4F22602106861F30920106046F68C32C1F257
:20CA00000302116841F24452C4F22602106861F38B20106046F69032C1F20302116841F2A8
:20CA20004452C4F22602106861F30E30106046F69432C1F20302116841F21C52C4F2260256
:20CA4000106861F341001060106840F0004042F8080B1146086810F0010FFBD0086810F012
:20CA6000020FFBD040F20803C4F2200318686FF30F20186003F580531868012161F31F60FB
:20CA8000186018686FF30F20186041F20420C4F226000168022262F3020146F67833C1F2E3
:20CAA000030301601968C1F38402D0F8FC1321F4F85141EA0221C0F8FC13D0F8FC135022C1
:20CAC00062F30601C0F8FC13D0F8FC13022262F31441C0F8FC13D0F8FC1341F00041C0F8C6
:20CAE000FC1340F23C414218116811F0010FFBD0C16B012262F30301C163C16B41F48071AB
:20CB0000C163C16B21F03001C163C16B41F0004141F23052C4F22602C16310686FF3DF70E1
:20CB2000106052F80C0F6FF3DF70106041F20852C4F22602106840F000401060106840F094
:20CB400001001060704744F26002C4F2000210686FF30F20106040F61840C4F20000D0F8D8
:20CB6000E8134F2262F30F2140F20042C4F20002C0F8E81311686FF30701116011686FF3B6
:20CB800009211160116841F000411160D0F8B8116FF30701C0F8B811D0F8B8116FF3092105
:20CBA00044F2A002C4F20002C0F8B81111686FF30F211160D0F8EC13012262F30F2140F247
:20CBC0000042C4F20002C0F8EC131168012363F30701116011686FF309211160116841F018
:20CBE00000411160016863F30701016001686FF309210160416863F30701416041686FF352
:20CC000009214160816863F30701816081686FF309218160C16863F30701C160C1686FF398
:20CC20000921C160016963F30701016101696FF309210161416963F30701416141696FF371
:20CC400009214161816963F30701816181696FF309218161C16963F30701C161C1696FF350
:20CC6000092102F57352C16110686FF30F201060704700B5FFF760FEFFF765FF00BD4FF21B
:20CC80000041C4F22401086840F001000860A1F5704108686FF3DF700860A1F57E710868AA
:20CCA00040F00100086051F8080D6FF392400860704741F60001C4F226010868103818BF86
:20CCC0000120704770B441F60001C4F22601002408682546102827D0214641F20000C0F2C9
:20CCE0000000C00880B2844209D242F60006C0F60106C6E90045083601318142F9D340F279
:20CD00005000C0F20000C00880B284420CD24AF20001C0F600012646C1E9004506F5803673
:20CD20000831B0EB164FF7D840F20001C4F22401086840F48020086070BC704740F200001C
:20CD4000C4F2390001686FF3DF71016001686FF31A610160016811F0E06FFBD101686FF371
:20CD600011410160016811F4403FFBD101686FF392410160016811F4802FFBD1016841F0C5
:20CD800000410160016811F0004FFBD0026C00F1400142F010020264086810F0100FFBD0C9
:20CDA000704700B5FFF7C8FDFFF7CDFEFFF7C6FFFFF73EFD00BD704700B54FF20041C4F23E
:20CDC0002401086840F001000860A1F5704108686FF3DF700860A1F57E71086840F001002F
:20CDE000086051F8080D6FF39240086040F25431C4F221010020086062B6BFF36F8F00BD35
:20CE00007047704738B140F20802C4F2390211680160002070470120704740F20801C4F214
:20CE200039010868704740F20802C4F239021168081A704740F20802C4F23902106844F633
:20CE4000D351C1F26201A0FB01108009704740F20803C4F23903196844F6D352C1F2620286
:20CE6000A1FB0221C0EB911070470020704700B5BFF34F8F4EF60C51CEF20001086800F40E
:20CE8000E06040F20001C0F2FA5108434EF60C51CEF2000140F004000860BFF34F8FFEE764
:20CEA000002070477047002070474CF24002C4F226021168012363F30101116011680223AB
:20CEC00063F301011160002142F83C1C400142F8380C42F8341C52F8300D40F00040106026
:20CEE00010686FF300001060106840F01000106010686FF3082010604CF24002C4F22602F0
:20CF0000106840F0030010601068012161F301001060106863F30100106052F8400D40F091
:20CF200000401060106810F0010FFBD04CF24001C4F22601086840F0030008607047FFF7DA
:20CF4000B4BF4CF24002C4F226021068012161F3010010601068022161F301001060002021
:20CF600042F83C0C40F6CC4142F8381C42F8340C52F8300D6FF3DF701060106840F0100084
:20CF8000106010686FF3082010604CF20002C4F2260210686FF3DF70106052F8400F40F02F
:20CFA0000300106070474CF24001C4F226010868012262F3010008600868022262F30100B0
:20CFC000086051F8400D6FF3DF7008604CF24001C4F22601086840F003000860704700B567
:20CFE0004BF2B801C0F600010120087000F08BF8B0F1FF3F1EBF0028002000BD4BF2B801C1
:20D00000C0F6000100200870012000BD10B54BF2B801C0F600010120087000F074F8041E5A
:20D0200003D0FFF7C9FEA04710BD4BF2B800C0F60000047010BD46F6A032C1F20302116881
:20D0400040F611130A68CAF243539A4206BF002008600120704701884AF21003C0F6000320
:20D06000198000219970C278DA7002791A71597181799971C179D971007A187270474AF21A
:20D080001002C0F6000211880180D178C1701179017191798171D179C171117A017200219F
:20D0A00041721180A2F80310D1801172084670474BF60072C0F6000210684CF6FE21CBF6A1
:20D0C000BE21401A18BF012070474BF2B801C0F60001087801280AD14CF6FE204BF6007125
:20D0E000C0F60001CBF6BE20086001207047002070474BF6BE204BF60071C0F60001CCF679
:20D10000FE200860704700B500F00FF8013801288EBF002048F20100C1F2040000BD002088
:20D120007047002070470020704748F60012C1F20402106842F24241C9F2480188420CBFB9
:20D1400001200020704700207047704701207047704700B582B0002210468DE805000E23B0
:20D1600001210520FFF723FB02B000BD70477047002070477047704700F025B900F05AB862
:20D1800000F05AB800F069B800F079B800F089B800F099B800F0A5B800F0A9B820B582B044
:20D1A000DDF810C09DF814E08DE8005000F0B3F802B020BD00F0C0B800F0C7B800F0CEB805
:20D1C00000F0DDB800F0F1B8E0B584B0089D099EDDF828C0DDF82CE08DE8605000F004F96C
:20D1E00004B0E0BD10B581B0040045F2F843C1F203031A6800924FF0010015D0042913D16F
:20D200004FF0FF3005F052F9694605F0C2F84FF0FF3005F04BF901A905F0BBF869462046F4
:20D22000042205F0BEF8002001B010BD7047704701207047FBF7ACBC10B5040004D11846E3
:20D24000BDE81040FBF73BBD012C04D11846BDE81040FBF75EBD012010BD010005D14BF28B
:20D26000E850C0F60000FBF70CBD012905D14BF24860C0F60000FBF72EBD012070470300B2
:20D2800005D14BF2E850C0F60000FBF702BD012B05D14BF24860C0F60000FBF724BD01204B
:20D2A0007047020005D14BF2E850C0F60000FBF7FCBC012A05D14BF24860C0F60000FBF77C
:20D2C0001EBD0120704700B582B08DE806006A4601464BF2C000C0F60000FBF7B2FC02B03D
:20D2E00000BD4BF2C000C0F60000FBF7B6BC020006D14BF2C000C0F600000122FBF7B5BC48
:20D30000012A06D14BF2C000C0F600000322FBF7ACBC0120704750B582B0DDF814C09DF88C
:20D3200018E001248DE80050FDF787F9002808BF0446204602B050BD10B50124FDF7E3F97F
:20D34000002808BF0446204610BD10B50124FDF7E8F9002808BF0446204610BD00B506F08B
:20D360009DFE06F071FE002818BF00BD4BF28002C0F600020121117000BD012070474BF205
:20D380008002C0F60002117801290CD100B507F009F8012803D100205DF804EB70475DF8A9
:20D3A00004EB07F00AB8012070474BF28002C0F600021178012907F07D80012070470120D6
:20D3C00070470120704700B54BF2800CC0F6000C9CF800300122012B02D107F0AFFF0246AB
:20D3E000104600BD012070472DE9F04C86B005460E461746DDF840B09A464BF28001C0F6A5
:20D40000000108780124012873D1294604A806F0A9FD00286DD10F9B0E9A0D9950468DE8D9
:20D420000F003B463246294604A806F0B3FD00285FD148F66817C0F2090704AD288806F0F5
:20D4400039FE0446032849D1012000F02CFE288806F030FE0446032840D1012000F023FE3F
:20D46000288806F027FE0446032837D1012000F01AFE288806F01EFE044603282ED10120E4
:20D4800000F011FE288806F015FE0446032825D1012000F008FE288806F00CFE044603282D
:20D4A0001CD1012000F0FFFD288806F003FE0446032813D1012000F0F6FD288806F0FAFDD1
:20D4C000044603280AD1012000F0EDFD013FB5D1BDF8100006F034FE20460BE02CB95A4678
:20D4E0003146284606F09EFD04E0BDF8100006F027FE204606B0BDE8F08C012070474BF2A0
:20D50000B462C0F6000201231370507051607047002070474BF2BC61C0F6000100200880DE
:20D5200001200871704770B44BF2BC64C0F6000494F804C0BCF1010F16D12688102E13D29A
:20D54000C6EB86056D004BF6BC3CC0F6000C25F80C006544A970EA70701C20802B7180B2E8
:20D56000102824BF00202080002070BC70474BF61C41C0F6000100200431024603460DC1C4
:20D5800001F8040B844681E80D1001F8140C704730B50C4615460168216041686160D0F8B5
:20D5A0000011A160B0F80421A281B0F80601E08120460C2104F0A8FF21688D4203BFE189A7
:20D5C00088420020012030BD70B5ADF5047D06460D464FF4007245F20C51C1F2030104A8C0
:20D5E000FBF76BF945F2FC44C1F203046A460BCC0BC220681060AA89284600240C2104F072
:20D6000083FF2968049169680591A9684491A989ADF8160146F69C30C1F20300ADF814119F
:20D620000168B6FBF1F000FB1160301A04F04DFB00280DD104A930464FF4007204F0C5FA6C
:20D64000002805D12A6869463046FFF7A1FF002818BF012420460DF5047D70BD2DE9F044FB
:20D6600088B084468A4616461F4645F20C74C1F2030404AA0BCC0BC22068106045F21C7495
:20D68000C1F203046A460BCC0BC220681060002446F26922C6F66F5204A96046FFF778FF60
:20D6A00046F26E52C6F66742694605465046FFF76FFF55BBC0B901980599814205D1306030
:20D6C000029838600425204645E00699814206D10198306002983860032520463BE00625FC
:20D6E00034603C60204636E00699052531603C6046F26E50C6F667408DE81300ADF80C40B6
:20D7000069465046FFF760FF25E0002814BF01250225681E06D9043808D30DD0012818BFC9
:20D72000204618D134603C60204614E0019830600298386020460EE0069931603C6046F25D
:20D740006E50C6F667408DE81300ADF80C4069465046FFF739FF4BF61C41C0F600010D70EA
:20D7600008B0BDE8F08470B5ADF5047D05460E464FF4007245F23C71C1F2030104A8FBF703
:20D780009CF845F22C74C1F203046A460BCC0BC22068106002962868002400906868224604
:20D7A0000190ADF80C4068460C2104F0ADFE02994491BDF80C10ADF80E00ADF81411ADF80A
:20D7C000160144A905F580704FF4807204F0FDF9002805D1009A69462846FFF7D9FE002892
:20D7E00018BF012420460DF5047D70BD00B5FEF7A1FFFEF781FF00BD00B502F070F800F09C
:20D8000084FD00BD00B500F0ABF9FFF74BFB00F044FC00BDFEF7B2BF00B500F0D0F900F094
:20D82000CFF900F0F5F904F017FD06F0A5F805F061FA00BD2DE9F0484BF2C464C0F600042D
:20D84000FFF7EBFA2168421A48F21F50C5F2EB10A2FB000B4FF000054FF001065FEA9B1B7C
:20D8600008BFBDE8F0885FEA9B0700F0858001F1C800206006EB870600F00FFC02F02FF818
:20D8800000F043FDFEF756FFFEF736FF01252068C830206000F001FC02F021F800F035FDA4
:20D8A000FEF748FFFEF728FF0135052D0AD1606800F57A70606000F053F9FFF7F3FA00F057
:20D8C000ECFB00252068C830206000F0E6FB02F006F800F01AFDFEF72DFFFEF70DFF01351C
:20D8E000052D0AD1606800F57A70606000F038F9FFF7D8FA00F0D1FB00252068C8302060EA
:20D9000000F0CBFB01F0EBFF00F0FFFCFEF712FFFEF7F2FE0135052D0AD1606800F57A70B6
:20D92000606000F01DF9FFF7BDFA00F0B6FB0025013F1CD0216801F1C800206000F0ADFB27
:20D9400001F0CDFF00F0E1FCFEF7F4FEFEF7D4FE0135052D9BD1606800F57A70606000F064
:20D96000FFF8FFF79FFA00F098FB00258FE75E4588BFBDE8F088216801F1C800206000F049
:20D980008CFB01F0ACFF00F0C0FCFEF7D3FEFEF7B3FE0135052D0AD1606800F57A706060A2
:20D9A00000F0DEF8FFF77EFA00F077FB3D4601365E4588BFBDE8F088216801F1C80020604D
:20D9C00000F06BFB01F08BFF00F09FFCFEF7B2FEFEF792FE0135052DE9D1DDE700B500F036
:20D9E0005CFB01F07CFF00F090FCFEF7A3FEFEF783FE00BD10B581B04BF2C464C0F600040A
:20DA0000002000906846FFF7FDF90098024603460146844684E80F10606101B010BD10B5F3
:20DA200081B04BF2C464C0F60004002000906846FFF7E8F90099A2688A1A642A07D9A068A4
:20DA40006430A060FEF776FEFEF756FE009920680A1AC82A06D9C830206001F040FF00F0D2
:20DA600054FC0099E0680A1AB2F5FA7F02D900F5FA70E06060680A1AB2F57A7F09D900F554
:20DA80007A70606000F06CF8FFF70CFA00F005FB009920690A1A41F288339A4284BFC01871
:20DAA00020616069091A42F21072914203D980186061FEF763FE00F082F800F081F800F022
:20DAC000A7F804F0C9FB05F057FF05F013F96846FFF798F90099A2688A1A642AB7D9AEE774
:20DAE000FFF78EB900B5FFF7E3FA012818BF00BDFFF7A1FA012808BFFFF788FA00BD10B529
:20DB00004BF2DC64C0F60004FFF723FBFDF73CFEFFF72CFB012003F0E2FF04F017F904F082
:20DB2000ACFA00F041FA002001F02AFEFEF7BAF8FFF744FB05F0B8FE05F036F8FFF717FD27
:20DB400000202070207110BD00B5FFF710FBFDF723FEFFF756F900F04AFA03F0FFFF00BDC5
:20DB600010B54BF2DC64C0F600042078013812D314D0022818D318BF10BDFFF7F8FAFDF77A
:20DB80000BFEFFF73EF900F032FA03F0E7FFBDE81040FFF76CB90120207010BD207901280A
:20DBA00004BF0220207010BD0320207010BD70474BF2E061C0F600010120087070477047B0
:20DBC00070474BF2E861C0F6000188600120C871002048710860704710B44BF2EC64C0F610
:20DBE000000461784BF6D862C0F6000211B90121617009E011784BF6D862C0F600028142F0
:20DC000006BF0021A16001212170107010BC70477047F0B403464BF2E464C0F60004A17A69
:20DC2000002000294CD11946D3185E1E4BF28403C0F600031F6846F67033C1F203031D6897
:20DC4000EB19013BAA4211D38F4206D28B422BD2B74225D8B34223D90CE0B342F8D826681B
:20DC6000012076192660AE4225D127E0B9420AD2BE4211D3F01B421C26680120B61826605A
:20DC8000AE4218D11AE09E4206D826680120B6182660AE420FD111E0994201D89E4203D8C0
:20DCA0002268AA4207D109E0581A421C26680120B6182660AE4218BF994201D30121A172AF
:20DCC000F0BC70472DE9F04F40F60402ADEB020D04468B464BF2E86AC0F6000A00264BF2DC
:20DCE0006001C0F600010A20087046F64941C1F2030191F80080B146B8F1010F40F0C780BD
:20DD00004BF64171C0F600010878012840F0BF80DAF8085046F63E41C1F203014BF62C47F1
:20DD20000878C0F60007012800F0C28046F6B431C1F203013E700868022875D12CE00120B8
:20DD400038704BF62440C0F600004BF62C72C0F6000201681068FFF706FD60B94BF6344081
:20DD6000C0F600004BF63042C0F600020168106803F0ABFF28B138780126022800F0C180F9
:20DD800003E03878022800F0BC8046F6B431C1F203010868022847D146F64F41C1F203018D
:20DDA0000878012826D14BF62871C0F600010A6895420DD346F65043C1F20303197802F5F9
:20DDC0008072012902D1954202D81AE0954218D35A4601A9204604F05FFFE0B3387801267B
:20DDE000022800F09A804BF26001C0F6000101200870A6E04BF62472C0F6000211688D42A4
:20DE0000E6D94FF00109012808D146F65041C1F203010878012808BF4FF4007B5A4621463F
:20DE2000284604F069F90646002E72D1B9F1000F73D1B8F1010F12D14BF64171C0F600011E
:20DE4000087801281BD12A4659462046FFF760FB06005ED161E001AC002EE7D059E05A4686
:20DE600021462846FFF7D5FE012808D14BF26001C0F600010E70B8F1000F57D15CE05A4673
:20DE80002146284604F038F9060042D145E04BF62C47DAF80050DAF8080046F63E41C1F22C
:20DEA00003012D180878C0F6000701287FF43EAF387800287FF466AF4BF62C72C0F600025C
:20DEC000106800F500718D427FF65FAF41684BF62840C0F600004BF62442C0F6000201604A
:20DEE0001068FFF733F901287FF429AF02204CF28B01C0F6000138700878012808D1FFF751
:20DF000099FC4CF28B01C0F6000108780128F6D01EB1387802287FF466AF4BF26001C0F6F7
:20DF2000000100200870B8F1000F05D04BF64171C0F60001087820B9DAF800005844CAF888
:20DF40000000304640F604018D44BDE8F08F10B502464BF2600CC0F6000C9CF800300020BF
:20DF60000A2B19D04BF2E863C0F6000393F807C0BCF1010F10D193F804C0BCF1010F06D070
:20DF8000DC686418DC601B689C4298BF10BD1046BDE81040FFF796BE012010BD4BF26001DF
:20DFA000C0F60001087870474BF28C01C0F600010878012809D100B546F6A831C1F20301EE
:20DFC0000868FEF772FF5DF804EB4BF2F860C0F600000121017101704AF67741C0F6000128
:20DFE000C1604AF6A741C0F60001016170474BF28C01C0F600010878012804D100B5FEF75F
:20E00000A0FF5DF804EB4BF2F861C0F6000100200870704710B54BF2F864C0F600042078D1
:20E0200068B94BF28C01C0F600010878012811D146F6A831C1F203010868FEF736FF4BF210
:20E040008C01C0F600010878012804BF4FF6FC70FEF775FF0020207110BD46F6A832C1F2AF
:20E0600003021168884228BF70474BF28C02C0F60002117801293EF462AF70474BF28C01C0
:20E08000C0F600010878012818BF704746F6A831C1F203010868FEF752BF4BF20471C0F6E8
:20E0A0000001086800474BF20872C0F6000211680847704700B583B0C0EB800246F67C43AA
:20E0C000C1F2030303EB8202136801930B68898802938DF80210ADF8000090886946FEF7F5
:20E0E0006FF903B000BD028846F65C43C1F2030303EB0213428862B1D3F800C0614503D343
:20E10000D3F804C0614519D9013A92B21033002AF2D1828882B1186888420FD01033013A45
:20E1200092B24AB11868884201D1184670471033013A92B2002AF5D110467047184670479B
:20E1400000B582B0037B8B4206D80092ADF804104089694600F038F902B000BD30B584B043
:20E1600002680C790D68808846F65441C1F2030101EBC0008179022917D8012905D122F0D9
:20E18000C041FFF7B0FF08B304E0C2F30A01FFF7AAFFD8B1017BA14218D80295ADF80C407B
:20E1A000408902A900F010F910E0008846F65C41C1F2030101EB0010017BA14206D800951C
:20E1C000ADF804404089694600F0FEF804B030BDC0EB800046F67C41C1F2030101EB800010
:20E1E000C088002100F015B9FFF7E2BC4BF22470C0F60000002101760177418180F8401043
:20E2000080F8441041864BF20C72C0F600020120107070474BF22471C0F600010020087679
:20E22000087781F840004BF20C72C0F6000281F844001070704770B5024646F68843C1F218
:20E24000030303EBC00003784BF2247C03EB8303C0F6000C0CEBC306337E01247BBB347606
:20E26000F2808D88294600F0EAFE012805D13046214600F0F6FC204670BDB5810021B17601
:20E28000072D0BDC35740220707786F824104FF0FF3086F823007476084670BD7574280A70
:20E2A00040F01000F1763074102102207076707786F824104FF0FF3086F8230000242046A8
:20E2C00070BD10B5014646F69442C1F2030212F830004BF2247200EB8000C0F6000202EB1E
:20E2E000C000C288002491420DD1017E59B190F82410002901D081890729DCBF012010BD3D
:20E300000B2100F0DCF9204610BD2DE9F04C4BF22474C0F600044BF21076C0F60006002554
:20E3200046F6884BC1F2030B4BF6DC67C0F60007C5EB8500217E4BF21472C0F6000202EB90
:20E34000400AB9B3617F022903D1204600F0C2FD617F042905D1207F03281CBF204600F035
:20E36000FFFA51462046FCF7E8F9217E022921D83178B9B138780130C0B246F26762C6F2F1
:20E38000666252FB00F2521002EB8202821A04D038702834022D11D20FE0013931703A70A9
:20E3A000090407D1607F012804D1E0880BEBC00000F043FD2834022D00D201360135EDB2E4
:20E3C000022DB5D3BDE8F08C10B503460A46C0EB800046F6BC4C0968C1F2030C40000C78A1
:20E3E00030F80C0004F0F004302C0CD146F69843C1F2030313F83020012A08BF10BDBDE839
:20E40000104000F056BC19460023BDE81040FCF732BAF0B5034646F69040C1F20300C25C86
:20E420004BF2247102EB8200C0F6000101EBC00090F81CC000264BF21474C0F60004BCF182
:20E44000030F1CD1067790F82030214623B1C2EB820252008E52F0BD05230376C088C2EB87
:20E4600082025200C0EB800046F6A44CC1F2030C0CEB80001319008998808E52F0BD46F6A0
:20E480008842C1F2030212F8335005EB850001EBC000077F817E002F08BFF0BD012F07D11C
:20E4A000314600F0DEFBC5EB85056D002E53F0BD022F14D1C27E091842F020020A742021BD
:20E4C00080F824104BF21071C0F6000190F821204A55C5EB85056D0047772E53F0BD042FED
:20E4E00018BFF0BDC27E091842F020020A742021C5EB85025300C28880F8241002EB820233
:20E5000046F6C841C1F2030101EB420203EB040CD288ACF8022002220276E652F0BD01220D
:20E5200080F820200422427790F82220427600F11003AAB111F8012B03F8012B90F822203D
:20E54000013AD2B25AB180F8222011F8012B03F8012B90F82220013AD2B2002AF3D1427EA4
:20E560000621017680F8222070472DE9F04585B00446C0880022C0EB800146F69443C1F266
:20E58000030303EBC00A46F6A443C1F2030394F8205003EB810645F030018DF804109AF8DF
:20E5A00000804BF29001C0F6000101EB400C002D4ED19CF8001071B94FF0FF32E2839CF89B
:20E5C00001008DF805108DF806009AF805100320012952D147E06089A389984220D3FF29CD
:20E5E00026D042F2934EC9F2492E5EFB03F0C01887107A1CC7EBC70EA3EB0E031B0617D15E
:20E60000FAB28A4217D3E1839CF801008DF805108DF806009AF80510032001292DD122E086
:20E6200042F29342C9F2492252FB00F212189208D2B28A42E7D2E2839CF801008DF805100B
:20E640008DF806009AF805100320012915D10AE09CF801008DF805208DF806009AF80510FA
:20E660000320012909D146F6D861C1F203010DF107000522FAF721F90820ADF8100001A88A
:20E680000390022D14D294F82300B18801281ABF94F8240020280131C8EB880040004BF206
:20E6A0001472C0F6000281520420207603202077708803A9FFF7FEFC05B0BDE8F08530B58D
:20E6C00046F6944546F6A442002404760477B0F806C0C480C1F20302CCEB8C008000C1F20A
:20E6E0000305805A05EBCC0501F0C1FA28784BF21471C0F60001C0EB800040000C52401891
:20E70000C0F8024030BDF0B583B0074690F822600024ADF80240ADF808600DF1020280F851
:20E720002040C08846F6A445C1F20305C0EB800080000191405B01A901F049FAF0B9B889B1
:20E74000BDF80210801BB8817981FA8B80B2002A5FD100285DD097F82220914238BF814260
:20E7600009D397F82300012810D087F820403846FFF7FBFE4DE0042078774AE00721797734
:20E78000022829D197F82300012807D187F82000387FF0BB3846FFF7E8FE3AE03C763C77C8
:20E7A000F88846F69442C1F2030202EBC006C0EB80008000FC80405B012101F058FA30788D
:20E7C0004BF21471C0F60001C0EB800040000C524018C0F802401CE03C763C77F88846F688
:20E7E0009442C1F2030202EBC006C0EB80008000FC80405B012101F03AFA30784BF2147165
:20E80000C0F60001C0EB800040000C524018C0F8024003B0F0BD70B504460025428990F8DF
:20E820002230407E9A421BD310B1657604F110010720607794F8240084F82350202804D0A3
:20E840002046BDE87040FFF75EBF207F84F82050002818BF70BD2046BDE87040FFF785BE3F
:20E8600020B194F82300012818BF70BD2046FFF756FE94F82400002808BF70BDE08918BB33
:20E880002583257707206077E18846F69442C1F2030202EBC106C1EB8101880046F6A44178
:20E8A000C1F20301E580405A082101F0E0F930784BF21471C0F60001C0EB800040000D52C4
:20E8C0004018C0F8025070BD012184F82010217F19B92046FFF749FEE0890138E08170BD96
:20E8E00070B504460168407E10B92046FFF717FE94F82400002808BF70BDE08920BB072011
:20E900000025258360772577E18846F69442C1F2030202EBC106C1EB8101880046F6A441F9
:20E92000C1F20301E580405A082101F0A0F930784BF21471C0F60001C0EB800040000D5283
:20E940004018C0F8025070BD012184F82010217F19B92046FFF709FEE0890138E08170BD55
:20E960002DE9F04F85B0044646F6A44B4BF21476D0F8008000250420E1886077ADF8025009
:20E98000C1EB810046F69443C1F2030313F83110C0F60006B71CC1EB81014FEA410916EBF1
:20E9A0000901C1F2030BB1F802A00BEB8000BAF1000F08BFB0F806A027F809A094F8231075
:20E9C0000DF10202012915D194F82210CDF80C80ADF8101013462289008803A901F094F89C
:20E9E00088B102281FD12046FFF77AFFA08900287FD15FE00395ADF81050008803A901F04D
:20EA0000E6F80028EDD1BDF8020094F822106081884228BFAA4641462046FFF7FCFEA08935
:20EA2000002866D146E0032825D1022084F82000072060772046FFF798FD25762577E088E4
:20EA400046F69443C1F2030303EBC008C0EB80008000E58030F80B000A2101F008F998F844
:20EA60000000C0EB8000400035523D5280198580A089F0BB1EE02576257707206077E08808
:20EA800046F69443C1F2030303EBC008C0EB80008000E58030F80B00012101F0E8F898F82E
:20EAA0000000C0EB8000400035523D5280198580A089F0B9207EE0B1257625770720607701
:20EAC000E08846F69443C1F2030303EBC008C0EB80008000E58030F80B00294601F0C7F8EA
:20EAE00098F80000C0EB8000400035523D528019858027F809A005B0BDE8F08FF0B40378A7
:20EB00004BF2247C03EB8303C0F6000C0CEBC305EC8800224BF22073C0F6000307271C5D5D
:20EB20004379AE89012B02D1082938BF0122072E3FD9A14248D03AE0012B42D1082940D0B6
:20EB400035E046F6E864C1F2030494F801C0604502D88C4535D02AE094F803C0604502D8E4
:20EB60008C452ED023E094F805C00023604502D88C4526D01BE094F807C0604502D88C456B
:20EB80001FD014E094F809C0604502D88C4518D00DE094F80BC0604502D88C4511D006E0AA
:20EBA00094F80DC0604598BF63468B4209D001200BE0701CC0B20828C3D8002BBCD188425A
:20EBC000F5D1002A08BF3746104685F82270F0BC7047F0B40578002405EB85054BF2247C9D
:20EBE000C0F6000C0CEBC5070D7890F805C005F0F006BCF1010F02D1082A38BF0124B3F54D
:20EC0000803F2AD254BB4BF2207CC0F6000C36B9591C8A4221D303B3072B1BD91DE0FF880B
:20EC20001CF80770082F18D34978002908BF15F00F0F03D1B3F5805F0CD20EE0082F06D31C
:20EC400002D8082B03D208E0791E8B4205D30179012902D04088834200D201242046F0BCA2
:20EC6000704730B546F6884346F6C842B0F806C0002404760477C1F203020CEB8C004000A9
:20EC8000C1F20303805A03EBCC0501F061F82A784BF21471C0F60001C2EB820040000C52F0
:20ECA0004018C0F802404BF21070C0F60000845430BD70B546F68846C1F2030616F8302081
:20ECC0004BF2247302EB8200C0F6000303EBC000037E022B18BF70BD0C7804F00F0304F05A
:20ECE000F004302C18BF70BD4BF21474C0F600040025013B20D34FD0C18805760577012B62
:20ED00005AD006EBC10601EB8101480046F6C841C1F20301405A062101F01AF83178C1EB46
:20ED20008100400025520019C0F802504BF21070C0F60000455470BD4B78C38389787F298D
:20ED400019D861B1013180F8211001210176C2EB820104EB41014D800221417770BD80F88E
:20ED6000211001210176C2EB820104EB41014D800221417770BDF139092934BF0121802181
:20ED800080F8211001210176C2EB820104EB41014D800221417770BDC088C2EB820200EB97
:20EDA000800004EB420146F6C842C1F2030202EB4000C088488070BD06EBC10601EB810113
:20EDC000480046F6C841C1F20301405A0A2100F0BFFF3178C1EB8100400025520019C0F81E
