S00F0000655F6B61345F70655F77000022
S3251004800002480349016000F0B7BF000008ED00E000840410FFFFFFFFFFFFFFFFFFFFFFFF88
S32510048020FFFFFFFFFFFFFFFFFFFFFFFFFFFFFFFFFFFFFFFFFFFFFFFFFFFFFFFFFFFFFFFF46
S32510048040FFFFFFFFFFFFFFFFFFFFFFFFFFFFFFFFFFFFFFFFFFFFFFFFFFFFFFFFFFFFFFFF26
S32510048060FFFFFFFFFFFFFFFFFFFFFFFFFFFFFFFFFFFFFFFFFFFFFFFFFFFFFFFFFFFFFFFF06
S32510048080FFFFFFFFFFFFFFFFFFFFFFFFFFFFFFFFFFFFFFFFFFFFFFFFFFFFFFFFFFFFFFFFE6
S325100480A0FFFFFFFFFFFFFFFFFFFFFFFFFFFFFFFFFFFFFFFFFFFFFFFFFFFFFFFFFFFFFFFFC6
S325100480C0FFFFFFFFFFFFFFFFFFFFFFFFFFFFFFFFFFFFFFFFFFFFFFFFFFFFFFFFFFFFFFFFA6
S325100480E0FFFFFFFFFFFFFFFFFFFFFFFFFFFFFFFFFFFFFFFFFFFFFFFFFFFFFFFFFFFFFFFF86
S32510048100FFFFFFFFFFFFFFFFFFFFFFFFFFFFFFFFFFFFFFFFFFFFFFFFFFFFFFFFFFFFFFFF65
S32510048120FFFFFFFFFFFFFFFFFFFFFFFFFFFFFFFFFFFFFFFFFFFFFFFFFFFFFFFFFFFFFFFF45
S32510048140FFFFFFFFFFFFFFFFFFFFFFFFFFFFFFFFFFFFFFFFFFFFFFFFFFFFFFFFFFFFFFFF25
S32510048160FFFFFFFFFFFFFFFFFFFFFFFFFFFFFFFFFFFFFFFFFFFFFFFFFFFFFFFFFFFFFFFF05
S32510048180FFFFFFFFFFFFFFFFFFFFFFFFFFFFFFFFFFFFFFFFFFFFFFFFFFFFFFFFFFFFFFFFE5
S325100481A0FFFFFFFFFFFFFFFFFFFFFFFFFFFFFFFFFFFFFFFFFFFFFFFFFFFFFFFFFFFFFFFFC5
S325100481C0FFFFFFFFFFFFFFFFFFFFFFFFFFFFFFFFFFFFFFFFFFFFFFFFFFFFFFFFFFFFFFFFA5
S325100481E0FFFFFFFFFFFFFFFFFFFFFFFFFFFFFFFFFFFFFFFFFFFFFFFFFFFFFFFFFFFFFFFF85
S32510048200FFFFFFFFFFFFFFFFFFFFFFFFFFFFFFFFFFFFFFFFFFFFFFFFFFFFFFFFFFFFFFFF64
S32510048220FFFFFFFFFFFFFFFFFFFFFFFFFFFFFFFFFFFFFFFFFFFFFFFFFFFFFFFFFFFFFFFF44
S32510048240FFFFFFFFFFFFFFFFFFFFFFFFFFFFFFFFFFFFFFFFFFFFFFFFFFFFFFFFFFFFFFFF24
S32510048260FFFFFFFFFFFFFFFFFFFFFFFFFFFFFFFFFFFFFFFFFFFFFFFFFFFFFFFFFFFFFFFF04
S32510048280FFFFFFFFFFFFFFFFFFFFFFFFFFFFFFFFFFFFFFFFFFFFFFFFFFFFFFFFFFFFFFFFE4
S325100482A0FFFFFFFFFFFFFFFFFFFFFFFFFFFFFFFFFFFFFFFFFFFFFFFFFFFFFFFFFFFFFFFFC4
S325100482C0FFFFFFFFFFFFFFFFFFFFFFFFFFFFFFFFFFFFFFFFFFFFFFFFFFFFFFFFFFFFFFFFA4
S325100482E0FFFFFFFFFFFFFFFFFFFFFFFFFFFFFFFFFFFFFFFFFFFFFFFFFFFFFFFFFFFFFFFF84
S32510048300FFFFFFFFFFFFFFFFFFFFFFFFFFFFFFFFFFFFFFFFFFFFFFFFFFFFFFFFFFFFFFFF63
S32510048320FFFFFFFFFFFFFFFFFFFFFFFFFFFFFFFFFFFFFFFFFFFFFFFFFFFFFFFFFFFFFFFF43
S32510048340FFFFFFFFFFFFFFFFFFFFFFFFFFFFFFFFFFFFFFFFFFFFFFFFFFFFFFFFFFFFFFFF23
S32510048360FFFFFFFFFFFFFFFFFFFFFFFFFFFFFFFFFFFFFFFFFFFFFFFFFFFFFFFFFFFFFFFF03
S32510048380FFFFFFFFFFFFFFFFFFFFFFFFFFFFFFFFFFFFFFFFFFFFFFFFFFFFFFFFFFFFFFFFE3
S325100483A0FFFFFFFFFFFFFFFFFFFFFFFFFFFFFFFFFFFFFFFFFFFFFFFFFFFFFFFFFFFFFFFFC3
S325100483C0FFFFFFFFFFFFFFFFFFFFFFFFFFFFFFFFFFFFFFFFFFFFFFFFFFFFFFFFFFFFFFFFA3
S325100483E0FFFFFFFFFFFFFFFFFFFFFFFFFFFFFFFFFFFFFFFFFFFFFFFFFFFFFFFFFFFFFFFF83
S3251004840000A400080080041059FF0710A1FE0710A1FE0710A1FE0710A1FE071005FF0710A0
S3251004842005FF071005FF071005FF071069FD071005FF071005FF071005FF071065FB07108C
S3251004844065FB071065FB071065FB071065FB071065FB071065FB071065FB071065FB07104A
S3251004846065FB071065FB071065FB071065FB071065FB071065FB071065FB071065FB07102A
S3251004848005FF071005FF071005FF071005FF071005FF071005FF071005FF071005FF0710EA
S325100484A005FF071005FF071005FF071005FF071005FF071005FF071005FF071005FF0710CA
S325100484C005FF071005FF071005FF071005FF071005FF071005FF071005FF071005FF0710AA
S325100484E005FF071005FF071005FF071005FF071005FF071005FF071005FF071005FF07108A
S3251004850005FF071005FF071005FF071005FF071005FF071005FF071005FF071005FF071069
S3251004852005FF071005FF071005FF071005FF071005FF071005FF071005FF071005FF071049
S3251004854005FF071005FF071005FF071005FF071005FF071005FF071005FF071005FF071029
S3251004856005FF071005FF071005FF071005FF071005FF071005FF071005FF071005FF071009
S3251004858005FF071005FF071005FF071005FF071005FF071005FF071005FF071005FF0710E9
S325100485A005FF071005FF071005FF071005FF071005FF071005FF071005FF071005FF0710C9
S325100485C005FF071005FF071005FF071005FF071005FF071005FF071005FF071005FF0710A9
S325100485E005FF071005FF071005FF071005FF071005FF071005FF071005FF071005FF071089
S3251004860005FF071005FF071005FF071005FF071005FF071005FF071005FF071005FF071068
S3251004862005FF071005FF071005FF071005FF071005FF071005FF071005FF071005FF071048
S3251004864005FF071005FF071005FF071005FF071005FF071005FF071005FF071005FF071028
S3251004866005FF071005FF071005FF071005FF071005FF071005FF071005FF071005FF071008
S3251004868005FF071005FF071005FF071005FF071005FF071005FF071005FF071005FF0710E8
S325100486A005FF071005FF071005FF071005FF071005FF071005FF071005FF071005FF0710C8
S325100486C005FF071005FF071005FF071005FF071005FF071005FF071005FF071005FF0710A8
S325100486E005FF071005FF071005FF071005FF071005FF071005FF071005FF071005FF071088
S3251004870005FF071005FF071005FF071005FF071005FF071005FF071005FF071005FF071067
S3251004872005FF071005FF071005FF071005FF071005FF071005FF071005FF071005FF071047
S3251004874005FF071005FF071005FF071005FF071005FF071005FF071005FF071005FF071027
S3251004876005FF071005FF071005FF071005FF071005FF071005FF071005FF071005FF071007
S3251004878005FF071005FF071005FF071005FF071005FF071005FF071005FF071005FF0710E7
S325100487A005FF071005FF071005FF071005FF071005FF071005FF071005FF071005FF0710C7
S325100487C005FF071005FF071005FF071005FF071005FF071005FF071005FF071005FF0710A7
S325100487E005FF071005FF071005FF071005FF071005FF071005FF071005FF0710FFFFFFFFA6
S3251004880002000001000000FF17042020FFFFFFFF576A0200008004100F880410008D041042
S32510048820FFFF2010FFFFFFFFFFFFFFFFFFFFFFFFFFFFFFFFFFFFFFFFFFFFFFFFFFFFFFFF0C
S32510048840FFFFFFFFFFFFFFFFFFFFFFFFFFFFFFFFFFFFFFFFFFFFFFFFFFFFFFFFFFFFFFFF1E
S32510048860FFFFFFFFFFFFFFFFFFFFFFFFFFFFFFFFFFFFFFFFFFFFFFFFFFFFFFFFFFFFFFFFFE
S32510048880FFFFFFFFFFFFFFFFFFFFFFFFFFFFFFFFFFFFFFFFFFFFFFFFFFFFFFFFFFFFFFFFDE
S325100488A0FFFFFFFFFFFFFFFFFFFFFFFFFFFFFFFFFFFFFFFFFFFFFFFFFFFFFFFFFFFFFFFFBE
S325100488C0FFFFFFFFFFFFFFFFFFFFFFFFFFFFFFFFFFFFFFFFFFFFFFFFFFFFFFFFFFFFFFFF9E
S325100488E0FFFFFFFFFFFFFFFFFFFFFFFFFFFFFFFFFFFFFFFFFFFFFFFFFFFFFFFFFFFFFFFF7E
S32510048C000000020000800410FF880410008C0410FFFF2010FFFFFFFFFFFFFFFFFFFFFFFF47
S32510048C20FFFFFFFFFFFFFFFFFFFFFFFFFFFFFFFFFFFFFFFFFFFFFFFFFFFFFFFFFFFFFFFF3A
S32510048C40FFFFFFFFFFFFFFFFFFFFFFFFFFFFFFFFFFFFFFFFFFFFFFFFFFFFFFFFFFFFFFFF1A
S32510048C60FFFFFFFFFFFFFFFFFFFFFFFFFFFFFFFFFFFFFFFFFFFFFFFFFFFFFFFFFFFFFFFFFA
S32510048C80FFFFFFFFFFFFFFFFFFFFFFFFFFFFFFFFFFFFFFFFFFFFFFFFFFFFFFFFFFFFFFFFDA
S32510048CA0FFFFFFFFFFFFFFFFFFFFFFFFFFFFFFFFFFFFFFFFFFFFFFFFFFFFFFFFFFFFFFFFBA
S32510048CC0FFFFFFFFFFFFFFFFFFFFFFFFFFFFFFFFFFFFFFFFFFFFFFFFFFFFFFFFFFFFFFFF9A
S32510048CE0FFFFFFFFFFFFFFFFFFFFFFFFFFFFFFFFFFFFFFFFFFFFFFFFFFFFFFFFFFFFFFFF7A
S32510048D00FFFFFFFFFFFFFFFFFFFFFFFFFFFFFFFFFFFFFFFFFFFFFFFFFFFFFFFFFFFFFFFF59
S32510048D2030B40346104600248C420FD243F69C45C1F20C0513F8012B42401206D20D525B88
S32510048D4082EA102080B201348C42F3D330BC70472DE9F00C01004FF0010000F0A1800C68E7
S32510048D60002C00F09D8065884FF6FF718D4218BF002D00F0958034F8091C0023AB4280F055
S32510048D808B8004EBC3067268B668B2F1FF3F1CBF002A964203D822888A427FD080E0B61A70
S32510048DA006F1010C5FEADC075DD043F69C46C1F20C0632F808AB8AEA010B4FEA0B6B4FEA17
S32510048DC0DB5B3BF806B08BEA212181EA1A2A4FEA0A6A4FEADA5A3AF806B032F806AC8BEAA1
S32510048DE021218AEA010B4FEA0B6B4FEADB5B3BF806B08BEA212181EA1A2A4FEA0A6A4FEA44
S32510048E00DA5A3AF806B032F804AC8BEA21218AEA010B4FEA0B6B4FEADB5B3BF806B08BEA8F
S32510048E20212181EA1A2A4FEA0A6A4FEADA5A3AF806B032F802AC8BEA21218AEA010B4FEADD
S32510048E400B6B4FEADB5B3BF806B08BEA212181EA1A2A4FEA0A6A4FEADA5A3AF806A08AEA5E
S32510048E602121013FA5D11CF0070611D043F69C47C1F20C0712F801CB8CEA010C4FEA0C6CFA
S32510048E804FEADC5C3CF807C08CEA2121013EF1D10133AB42FFF475AF22888A4208BF0020FE
S32510048EA0BDE8F00C70472DE9F0444EF2AC06C0F6000600214FF488703FF02EFF43F2547097
S32510048EC0C1F20C000024057B3470AC420FD22746D0F808A0380E0AEBC000FFF739FF08B1E3
S32510048EE00124347007F18077B5EB176FF2D80CB90220307000F0E6F801214FF48870BDE859
S32510048F00F0443FF009BFFFF7CEBFF0B54EF2AC06C0F60006022043F25471C1F20C013070BA
S32510048F200C790025A54228BFF0BD0F68280E07EBC000FFF70DFF08B10120307005F180752C
S32510048F40B4EB156FF2D8F0BD00B545F021FA002814BF0420032000BD4EF2AC01C0F60001B5
S32510048F600878022808BF7047003818BF0120704701808FE218FF2FE106460F4690460EF03A
S32510048F8065F84FF014004FF001013CF0FDFE48F69F75C1F20405A5F101057A46A2EB05059E
S32510048FA09146002803D131463A4643460AE04AF20040C0F6000085464FF000014FF00002DC
S32510048FC04FF0000340F20200012817D308D04EF68850CEF20000046844F4700404600DE0D1
S32510048FE011EE500F40F4A00001EE500FBFF36F8FF8EE100A40F08040E8EE100A4FF0000404
S3251004900048F20040C1F20400814506DB40F20000C1F22100814500DC2C4640F25C00C1F203
S325100490200800A0EB040000EB05004FF000044FF000054FF0000636F027FA00BFFDE70000D9
S3251004904074F0A2BF74F0CABF002800D0022804F0DBA57047022808BF00200BF0FA85012843
S3251004906018BF704700200BF0F8BD00B5002044F0CBFD002044F0ACFD40F23061C0F601012F
S325100490800020087000BD00B500200BF0E2FD022044F0BAFD022044F09BFD40F23061C0F63E
S325100490A001010020087000BD40F23E61C0F6010101200870704740F23E61C0F601010220BB
S325100490C0087070477047012070470020704700207047002070470BF0C3BE2DE9F04C002540
S325100490E0012640F2406B40F2446AC0F6010AC0F6010BDAF8000040F2B864C0F6010410F014
S32510049100010F0ED020F0010194F84000CAF8001084F8410084F84050084611F0020F10D08E
S3251004912027E0DBF8000010F0010F1BD094F8400084F84100DAF8000084F8406010F0020FB8
S3251004914017D1DBF8000010F0020F3DD094F8420084F84300DAF8000084F8426010F0040F8C
S3251004916015D038E020786070DAF8000010F0020FE7D020F0020194F84200CAF8001084F8A7
S32510049180430084F84250084611F0040F23D1DBF8000040F25867C0F6010710F0040F46D063
S325100491A094F8440084F8450097F82E0084F8446087F82F0004F0D5F887F82E00DAF8000039
S325100491C010F0080F22D043E0A078E070DAF8000010F0040FDBD020F00400CAF8000094F8EF
S325100491E0440040F25867C0F6010784F8450097F82E0084F8445087F82F0004F0B2F887F809
S325100492002E00DAF8000010F0080F21D1DBF8000010F0080F3BD094F8460084F84700DAF8CF
S32510049220000084F8466010F0100F1FD038E020796071A079E07197F82E0087F82F0004F099
S3251004924090F887F82E00DAF8000010F0080FDDD020F0080194F84600CAF8001084F84700A9
S3251004926084F84650084611F0100F19D1DBF8000010F0100F33D094F8480084F84900DAF80A
S32510049280000084F8486010F0200F17D02EE020896081207B6073DAF8000010F0100FE5D0CE
S325100492A020F0100194F84800CAF8001084F8490084F84850084611F0200F17D1DBF80000BB
S325100492C010F0200F31D094F84A0084F84B00DAF8000084F84A6010F0400F15D02CE0A07B54
S325100492E0E073DAF8000010F0200FE7D020F0200194F84A00CAF8001084F84B0084F84A5093
S32510049300084611F0400F17D1DBF8000010F0400F31D094F84C0084F84D00DAF8000084F89B
S325100493204C6010F0800F15D02CE0207C6074DAF8000010F0400FE7D020F0400194F84C0076
S32510049340CAF8001084F84D0084F84C50084611F0800F17D1DBF8000010F0800F31D094F88B
S325100493604E0084F84F00DAF8000084F84E6010F4807F15D02CE0A07CE074DAF8000010F088
S32510049380800FE7D020F0800194F84E00CAF8001084F84F0084F84E50084611F4807F17D111
S325100493A0DBF8000010F4807F31D094F8500084F85100DAF8000084F8506010F4007F15D0AD
S325100493C02CE0207D6075DAF8000010F4807FE7D020F4807194F85000CAF8001084F85100E9
S325100493E084F85050084611F4007F17D1DBF8000010F4007F31D094F8520084F85300DAF8A7
S32510049400000084F8526010F4806F15D02CE0A07DE075DAF8000010F4007FE7D020F400711D
S3251004942094F85200CAF8001084F8530084F85250084611F4806F17D1DBF8000010F4806F85
S3251004944031D094F8540084F85500DAF8000084F8546010F4006F15D02CE0207E6076DAF894
S32510049460000010F4806FE7D020F4806194F85400CAF8001084F8550084F85450084611F43D
S32510049480006F17D1DBF8000010F4006F31D094F8560084F85700DAF8000084F8566010F457
S325100494A0805F15D02CE0A07EE076DAF8000010F4006FE7D020F4006194F85600CAF8001029
S325100494C084F8570084F85650084611F4805F17D1DBF8000010F4805F31D094F8580084F84C
S325100494E05900DAF8000084F8586010F4005F15D02CE0207F6077DAF8000010F4805FE7D0BD
S3251004950020F4805194F85800CAF8001084F8590084F85850084611F4005F17D1DBF8000030
S3251004952010F4005F34D094F85A0084F85B00DAF8000084F85A6010F4804F15D035E0A07FF9
S32510049540E077DAF8000010F4005FE7D020F4005194F85A00CAF8001084F85B0084F85A5094
S32510049560084611F4804F20D1DBF8000010F4804F40D094F85C0084F85D0040F24C60C0F6B3
S325100495800100016884F85C6011F0010F1FD049E094F8200084F8210094F8220084F8230050
S325100495A0DAF8000010F4804FDED020F48040CAF8000094F85C0084F85D0040F24C60C0F653
S325100495C00100016884F85C5011F0010F2AD140F24862C0F60102116811F0010F42D094F816
S325100495E05E1084F85F10016884F85E6011F0020F25D03FE094F8240084F8250094F826002C
S3251004960084F8270094F8280084F8290094F82A0084F82B0040F24C60C0F60100016811F0D8
S32510049620010FD4D021F0010294F85E10026084F85F1084F85E50114612F0020F1AD140F250
S325100496404862C0F60102116811F0020F32D094F8601084F86110016884F8606011F0040F5E
S3251004966015D02FE094F82C1084F82D10016811F0020FE4D021F0020294F86010026084F83D
S32510049680611084F86050114612F0040F1AD140F24862C0F60102116811F0040F32D094F80C
S325100496A0621084F86310016884F8626011F0080F15D02FE094F82E1084F82F10016811F08D
S325100496C0040FE4D021F0040294F86210026084F8631084F86250114612F0080F1AD140F288
S325100496E04862C0F60102116811F0080F32D094F8641084F86510016884F8646011F0100FA0
S3251004970015D02FE094F8301084F83110016811F0080FE4D021F0080294F86410026084F884
S32510049720651084F86450114612F0100F1AD140F24862C0F60102116811F0100F2FD094F84E
S32510049740661084F86710016884F8666011F0200F15D02CE094F8321084F83310016811F0C3
S32510049760100FE4D021F0100294F86610026084F8671084F86650114612F0200F17D140F2AE
S325100497804861C0F60101086810F0200F1AD094F8680084F8690084F86860BDE8F08C94F8FB
S325100497A0341084F83510016811F0200FE7D021F02001016094F8680084F8690084F868509A
S325100497C0BDE8F08C94F8360084F83700BDE8F08C30B540F24871C0F601010B78012B04D1AC
S325100497E04878FF283CBF0130487040F2B86040F25062C0F60102C0F601001468002514F041
S32510049800010F15D024F00103136090F83A004D7038B101200870184613F0040F08BF30BD85
S3251004982027E00870184613F0040F08BF30BD20E0012B02D14B78322B0DD290F8383090F8F1
S325100498403A1080F8393080F83B10106810F0040F08BF30BD0DE080F8385080F83A5080F85A
S32510049860395080F83B5010680D8010F0040F08BF30BD20F00400106040F24C70C0F601004D
S32510049880811C0630BDE8304044F02CBD30B400240D46EB0815D001464FF0FF32DC0001F8EA
S325100498A0082B01F8072C01F8062C01F8052C01F8042C01F8032C01F8022C01F8012C013B00
S325100498C0EDD115F0070106D020184FF0FF3200F8012B0139FBD130BC704770B400251646B3
S325100498E0F40824D002460B46E50012F808CB03F808CB12F807CC03F807CC12F806CC03F8B3
S3251004990006CC12F805CC03F805CC12F804CC03F804CC12F803CC03F803CC12F802CC03F899
S3251004992002CC12F801CC03F801CC013CDDD116F0070207D02818691810F8013B01F8013B95
S32510049940013AF9D170BC7047F0B500EBC00042F66C41C0F6010101EB80046169201D8847D2
S32510049960A1786071012904D300F095800020A070F0BD002818BFF0BD2079012808BFF0BD1E
S32510049980052840D1A668E7684FF0FF30E070257C0020EB0824D031463A46D80011F808CB01
S325100499A002F808CB11F807CC02F807CC11F806CC02F806CC11F805CC02F805CC11F804CCF2
S325100499C002F804CC11F803CC02F803CC11F802CC02F802CC11F801CC02F801CC013BDDD1DC
S325100499E015F007014DD08219C01912F8013B00F8013B0139F9D1E169E0688847E071002857
S32510049A0018BFF0BD44E02078002808BFF0BD002121704FF0FF30E070E668257CA768EB08EF
S32510049A2024D030463A46D90010F808CB02F808CB10F807CC02F807CC10F806CC02F806CC53
S32510049A4010F805CC02F805CC10F804CC02F804CC10F803CC02F803CC10F802CC02F802CC68
S32510049A6010F801CC02F801CC013BDDD115F0070007D08A19C91912F8013B01F8013B01382A
S32510049A80F9D1E169E0688847E071002818BFF0BD0120A070F0BD207902281CBF0020A070D8
S32510049AA0F0BD10B542F60844C0F601042078FFF74BFF227842F66C4102EBC200C0F601011D
S32510049AC001EB8000C078C0B9501CC0B207280ED02070C87880B340F6BC70C0F601000178CF
S32510049AE0417000210170BDE8104044F0D5B800202070C8780028EED11EE001281CBF03284F
S32510049B0005280FD16078013804D36070C8780028E1D111E003206070501C2070C878002804
S32510049B20D9D109E004381CBF023802289CBF07202070C8780028CED191F827000028CAD171
S32510049B4091F84B000028C6D191F86F000028C2D191F893000028BED191F8B7000028BAD1DF
S32510049B6091F8DB000028B6D140F6BC70C0F60100017841700121017044F08EF8BDE8104033
S32510049B8000F03ABFF0B500EBC00042F66C43C0F6010303EB8003DA70062918BF0C2940F0AB
S32510049BA0A480012A18BF032A61D1DF681D7C0024EA0815D038464FF0FF31D40000F8081B4F
S32510049BC000F8071C00F8061C00F8051C00F8041C00F8031C00F8021C00F8011C013AEDD1CA
S32510049BE015F0070006D0E1194FF0FF3201F8012B0138FBD19E681D7CDF68EC0824D0314690
S32510049C003A46E00011F808CB02F808CB11F807CC02F807CC11F806CC02F806CC11F805CCF7
S32510049C2002F805CC11F804CC02F804CC11F803CC02F803CC11F802CC02F802CC11F801CC86
S32510049C4002F801CC013CDDD115F0070100F0AB808219C01912F801CB00F801CB0139F9D1FE
S32510049C60012018705878012818BFF0BDA1E0052A40F09B809E68DF681D7C0020EC0824D0BB
S32510049C8031463A46E00011F808CB02F808CB11F807CC02F807CC11F806CC02F806CC11F8D1
S32510049CA005CC02F805CC11F804CC02F804CC11F803CC02F803CC11F802CC02F802CC11F802
S32510049CC001CC02F801CC013CDDD115F007016CD08219C01912F801CB00F801CB0139F9D190
S32510049CE05878012818BFF0BD63E007295DD1012A5BD1DF681D7C0024EA0815D038464FF03D
S32510049D00FF31D40000F8081B00F8071C00F8061C00F8051C00F8041C00F8031C00F8021C77
S32510049D2000F8011C013AEDD115F0070006D0E1194FF0FF3201F8012B0138FBD19E681D7CE6
S32510049D40DF68EC0824D031463A46E00011F808CB02F808CB11F807CC02F807CC11F806CCB6
S32510049D6002F806CC11F805CC02F805CC11F804CC02F804CC11F803CC02F803CC11F802CC3D
S32510049D8002F802CC11F801CC02F801CC013CDDD115F0070107D08219C01912F801CB00F833
S32510049DA001CB0139F9D1012018705878012818BFF0BD00205870196AD878BDE8F0400847B4
S32510049DC042F66C43C0F6010300EBC00003F8201003EB8000C26070477047704770477047CF
S32510049DE070477047704710B440F65874C0F601042078552842D1AA2040F67471C0F60101DE
S32510049E0020700878FF2845D0AA2804BF4FF0FF300870207AFF2842D0AA2804BF4FF0FF308B
S32510049E20207240F68471C0F601010878FF283FD0AA2804BF4FF0FF300870207CFF283CD093
S32510049E40AA2804BF4FF0FF30207440F69C71C0F601010878FF2839D0AA2804BF4FF0FF30A3
S32510049E60087040F6AC71C0F601010878FF2836D0CC2804BF4FF0FF30087032E0AA2804BF54
S32510049E804FF0FF30207040F67471C0F601010878FF28B9D1AA200870207AFF28BCD1AA204C
S32510049EA040F68471C0F6010120720878FF28BFD1AA200870207CFF28C2D1AA2040F69C7137
S32510049EC0C0F6010120740878FF28C5D1AA20087040F6AC71C0F601010878FF28C8D1CC2066
S32510049EE00870207E42F66C4200EBC000C0F60102012302F8203002EB8000C160207E01301D
S32510049F002076207E072804BF0020207610BC7047704740F65872C0F60102115401210020B1
S32510049F20FFF74EBF40F67472C0F60102115401210846FFF745BF40F66072C0F6010211543A
S32510049F4001210220FFF73CBF40F68472C0F60102115401210320FFF733BF40F66872C0F675
S32510049F600102115401210420FFF72ABF40F65871C0F60101085C704740F67471C0F6010195
S32510049F80085C704740F66071C0F60101085C704740F68471C0F60101085C704740F66871A5
S32510049FA0C0F60101085C704740F65872C0F601024FF0FF301060506001210020FFF700BF76
S32510049FC040F67472C0F601024FF0FF30106050609060D06001210846FFF7F2BE40F66072C6
S32510049FE0C0F601024FF0FF301060506001210220FFF7E6BE40F68472C0F6010210460323C1
S3251004A000FF2100F8081B00F8071C00F8061C00F8051C00F8041C00F8031C00F8021C00F860
S3251004A020011C013BEDD101210320FFF7C9BE40F66872C0F601024FF0FF30106050600121B4
S3251004A0400420FFF7BDBE10B540F25860C0F6010090F8301080F83110002480F8304003F06B
S3251004A0602BFA204603F035FA40F22C70C0F6010001794171047110BD0020704770477047E1
S3251004A08040F25862C0F6010292F82810012915D130B540F2940540F6D474C0F60104C1F293
S3251004A0A00805206829460AF063FC206029460AF04FFC20600120BDE83040704700207047B1
S3251004A0C010B5012003F005FA40F25860C0F6010090F8301080F83110142480F830402046E6
S3251004A0E003F0DFF9204603F0E9F940F22C70C0F60100017941710121017110BD40F2AC0050
S3251004A10040F6D471C0F60101C1F20800086070477047704740F25862C0F6010292F8281043
S3251004A120A9B930B540F27C0540F6D474C0F60104C1F20805206829460AF01AFC206029461C
S3251004A1400AF006FC20600120BDE8304070470020704700B540F25861C0F6010191F8300094
S3251004A16081F83100142081F8300003F054F903F0A5F900BD002070477047704740F2B8621F
S3251004A180C0F601020020118940F2FF13994208BF70470A2924BF117D032918BF704730B552
S3251004A1A040F2C40540F6D474C0F60104C1F20805206829460AF0DCFB206029460AF0C8FB1D
S3251004A1C020600120BDE83040704700B540F25861C0F6010191F8300081F83100322081F872
S3251004A1E0300003F018F903F069F900BD002070477047704730B540F2B862C0F601020020B0
S3251004A200118940F6D474C0F60104052901D3127D72B940F2AC05C1F20805206829460AF001
S3251004A220A7FB206029460AF093FB2060012030BD372938BF30BD40F2DC05C1F208052068BE
S3251004A24029460AF095FB206029460AF081FB2060012030BD00B540F25861C0F6010191F817
S3251004A260300081F83100462081F8300003F0D3F803F024F900BD002070477047704730B526
S3251004A28040F2B862C0F601020020118940F6D474C0F60104052901D3127D72B940F2AC050D
S3251004A2A0C1F20805206829460AF062FB206029460AF04EFB2060012030BD2D290ED240F24E
S3251004A2C0C405C1F20805206829460AF051FB206029460AF03DFB2060012030BD642938BF6B
S3251004A2E030BD40F2F405C1F20805206829460AF03FFB206029460AF02BFB2060012030BDA4
S3251004A30000B540F25861C0F6010191F8300081F831005A2081F8300003F07DF803F0CEF824
S3251004A32000BD002070477047704730B540F2B862C0F601020020118940F6D474C0F6010424
S3251004A340052901D3127D72B940F2AC05C1F20805206829460AF00CFB206029460AF0F8FAB1
S3251004A3602060012030BD5A2928BF30BD40F2DC05C1F20805206829460AF0FAFA2060294637
S3251004A3800AF0E6FA2060012030BD10B540F6D474C0F60104207901280DD028BF10BD40F2B8
S3251004A3A07C01C1F20801216008460AF0D1FA20600120207110BD2068BDE810400AF0EEBA98
S3251004A3C030B542F67055C0F6010541F20404C0F6010480B9284642F210730122062104F033
S3251004A3E08EF840F25861C0F6010120600A7FE8B14A7701201CE0012808D040F25861C0F6F8
S3251004A400010120680A7F0028F2D10FE005F1080042F210730122062104F071F840F25861EE
S3251004A420C0F6010120600A7F0028E1D120604877087730BDF0B50E461F4641F20405C0F66C
S3251004A440010542F210731146012204F058F8286040F25864C0F6010460B9207F607742F273
S3251004A46010730020207739463046012204F0DFF8286030B10120217F20776177002030803C
S3251004A480F0BD217F61772077F0BD41F20C00C0F601000021C0F80110A0F8051041F208036E
S3251004A4A0C0F60103C171197001818222828181724FF448724282416101838176704700B5A7
S3251004A4C081B040F20C11C1F208010A788DF801204A780DF101008DF80220897842F21073DE
S3251004A4E08DF803100122032104F009F841F20401C0F60101086000280CBF0120002001B031
S3251004A50000BD70B581B040F6FC74C0F601042178012906D160884FF6FF7290423CBF013077
S3251004A520608040F25865C0F6010595F826000026102816D1207910BB0120FFF741FF0120A2
S3251004A54020716671A6712670668000F054FF002846D1012000F049FF95F8260020280ED131
S3251004A56042E0202816D16079F8BBFFF729FF26710121617195F82600A671202834D060883D
S3251004A580C8283ED395F82000C8BBFFF719FF2670668036E0402804BFA0790028EFD141F271
S3251004A5A00C01C0F60101487240F20C11C1F208010A788DF801204A780DF101008DF8022067
S3251004A5C0897842F210738DF803100122032103F096FFA060267166710121A1712670668024
S3251004A5E095F826002028CAD121780029C7D195F820000028C3D101202070668001E02670DA
S3251004A600668001B070BD30B542F66855C0F60105FFF777FF41F20C04C0F601042078411E65
S3251004A62028D307D0023929D315D0032926D90120207030BD2946281D01230222FFF7FAFE5F
S3251004A6402878052819D820720120A0702078072828BF30BD15E02946A81D01230222FFF75D
S3251004A660E9FE2878A072012020712078072828BF30BD06E00120207030BD2078072828BFA8
S3251004A68030BD0130207030BD41F25301C0F601010878013805D341F25301C0F6010108707E
S3251004A6A0704741F2B911C0F60101087800283FF4AAAF704741F20C01C0F601018878002809
S3251004A6C018BF087A704741F20C01C0F60101C878002818BF487A704741F20801C0F60101AC
S3251004A6E00878002808BF704741F20C01C0F60101887E704741F20C01C0F6010108790028C4
S3251004A70018BF887A704741F20C01C0F601014879002818BF488A704741F20C01C0F6010156
S3251004A7208879002818BF888A704741F20C00C0F60100417949B140F25862C0F6010292F85D
S3251004A7402810012904BFC08A70470020704741F20C00C0F60100817949B140F25862C0F656
S3251004A760010292F82810012904BF008B70470020704741F20C00C0F60100C179002914BFC8
S3251004A7808089822070475D2241210138C0B2032869D220B942F69E50C0F6010002880021EA
S3251004A7A00E2340F21010C1F20800B0F800C0624504D308001CBF0139C8B27047B0F802C0A3
S3251004A7C0624505D301310EBF08460139C8B27047B0F804C0624505D302310EBF08460139B5
S3251004A7E0C8B27047B0F806C0624505D303310EBF08460139C8B27047B0F808C0624505D378
S3251004A80004310EBF08460139C8B27047B0F80AC0624505D305310EBF08460139C8B27047B6
S3251004A820B0F80CC0624505D306310EBF08460139C8B27047B0F80EC0624505D307310EBF54
S3251004A84008460139C8B27047B0F810C0624505D308310EBF08460139C8B2704712300931F3
S3251004A860013BA2D17D210846704741F22801C0F601010878704741F22801C0F601010120EC
S3251004A8800870704730B541F22805C0F601052878002818BF30BD6978002979D1FFF766FB37
S3251004A8A055283BD0FFF780FBFFF78AFBFFF796FBFFF7A0FBFFF7BBFB55210020FFF729FB96
S3251004A8C002210120FFF72EFB02210846FFF72AFB02210320FFF726FB40F25863C0F601036B
S3251004A8E040F22C719879C0F60101D8718A7B0220987183F8440083F8450083F8460083F872
S3251004A900470083F8480083F849008873012068702878CA73002818BF30BD3CE040F2586488
S3251004A920C0F60104A079E0710320FFF725FBA07194F8440084F845000120FFF71DFB84F852
S3251004A940440084F8450094F8460084F847000220FFF712FB84F8460084F8470094F84800C5
S3251004A96084F849000320FFF707FB84F8480040F22C71C0F6010184F84900887BC873A07976
S3251004A9808873012068702878002818BF30BD02E0012918BF30BD41F23A01C0F60101487867
S3251004A9A03C2805D341F24A01C0F601010878012818BF5FF0000030BD00B503F028F940F254
S3251004A9C05860C0F60100017941710221017190F8501080F85110012180F8501090F8541086
S3251004A9E080F85510002190F8562080F8541080F8572080F8561000BD41F22C01C0F60101C3
S3251004AA001F200860704741F22C01C0F6010108787047704700B581B00DF1020001210AF0B6
S3251004AA2075F9BDF8020001B000BD00B581B00DF1020001210AF065F9BDF8020001B000BDE4
S3251004AA4000B581B00DF103000AF078F99DF8030001B000BD00B581B00DF103000AF060F94A
S3251004AA609DF8030001B000BD10B541F23C04C0F60104A079012804D1E079FF283CBF013000
S3251004AA80E071FFF7F2FE0122618818B9A079218148BB54E040F2EF40814203D2A0792271F1
S3251004AAA008BB4CE0B1F5A46F04D802202071A079C8B944E0B1F5D06F04D203202071A079FF
S3251004AAC088B93CE040F2B260814204D204202071A07940B933E040F64D4081420CD20520BF
S3251004AAE02071A07958B32079E37A98422AD0E072A2710020E07110BD40F67F40814205D28B
S3251004AB0006202071A0790028EDD118E040F6C850814205D207202071A0790028E3D10EE0EA
S3251004AB2040F6FA50814205D208202071A0790028D9D104E009202071A0790028D3D1A271A7
S3251004AB40E07110BDE079032828BF218110BD10B442F68654C0F6010441F24402C0F6010220
S3251004AB60108840F2EF41884212D20120A072607340F22150A08040F2B260E0800020A4F8EA
S3251004AB800B0040F67F40208140F6FA506080CBE0B0F5A46F15D8607B01280CBF40F22150D8
S3251004ABA00846A08040F2B260E0800120A0720020A4F80B0040F67F40208140F6FA50608079
S3251004ABC0B2E0B0F5D06F0FD20120A07240F2B260E0800020A081E07240F67F402081A180E3
S3251004ABE040F6FA5060809FE040F2B261884220D2A07A01280DD10020A081E07240F2EF4046
S3251004AC00A08040F67F402081E18040F6FA5060808AE04FF4D060E0800020A081E07240F2A1
S3251004AC20EF40A08040F67F40208140F6FA5060807AE040F64D4188420FD20020C4F80A0006
S3251004AC4040F2EF40A0804FF4D060E08040F67F40208140F6FA50608066E040F67F4188428A
S3251004AC6020D2207B01280FD140F64D40208100206073608140F2EF40A0804FF4D060E08098
S3251004AC8040F6FA5060804FE000206073608140F2EF40A0804FF4D060E080218140F6FA50C1
S3251004ACA0608041E040F6C851884211D20120207340F64D40208100206073608140F2EF4030
S3251004ACC0A0804FF4D060E08040F6FA5060802BE040F6FA51884215D2E07A01280CBF40F646
S3251004ACE0C8500846608040F64D4020810120207300206073A07240F2EF40A0804FF4D060E3
S3251004AD00E08011E040F64D40208101202073E0720020A072607340F6C85140F2EF40A08089
S3251004AD2061804FF4D060E08010BC704730B4014642F68654C0F6010441F24405C0F6010592
S3251004AD400120013909D30DD0022910D314D12888618888420FD300200EE02888A1888842DC
S3251004AD60F9D208E02888E1888842F4D203E0288821898842EFD2012030BC704730B40146A6
S3251004AD8042F68654C0F6010441F24405C0F601050120013909D30DD0022910D314D12888DD
S3251004ADA0618888420FD200200EE02888A1888842F9D308E02888E1888842F4D303E0288843
S3251004ADC021898842EFD3012030BC704730B50220FFF7ACFF054640F25864C0F6010401289A
S3251004ADE01DD1FFF7CBFF012819D194F8383084F8393094F83A30002184F8381084F83B30DD
S3251004AE0094F83C2084F83A1084F83D2084F83C100320FFF78BFF054601281AD14DE075BB6A
S3251004AE20012294F8383084F8382084F8393094F83A3084F83A2094F83C2084F83B3084F811
S3251004AE403D2084F83C500320FFF770FF0546012833D0002D4AD1012294F83E3084F83E2035
S3251004AE6084F83F3094F8403084F8402094F8422084F8413084F8432084F8425030BD01201F
S3251004AE80FFF77CFF020012D1012194F8383084F8381084F8393094F83A3084F83A2094F82B
S3251004AEA03C2084F83B3084F83D2084F83C100320FFF73CFF05460128CBD10020FFF75EFFBD
S3251004AEC00128C6D194F83E3084F83F3094F84030002184F83E1084F8413094F8422084F875
S3251004AEE0401084F8432084F8421030BD0020FFF745FF020018BF30BD012194F83E3084F896
S3251004AF003E1084F83F3094F8403084F8402094F8422084F8413084F8432084F8421030BD91
S3251004AF2070B441F23404C0F60104A079002301280DD1E079FF280ED20130E071C0B23C28B2
S3251004AF4009D2607A6188002840F0B7807AE050B3E0793C28F5D3607A012871D140F2586099
S3251004AF60C0F6010090F8521021B980F85310012180F85210227904F128004FEA420C61883D
S3251004AF802CF800100132D2B2642A28BF1A462271A28A914229D1227A0132D2B21E2A09D2D5
S3251004AFA022720A2223E00120A071E37163722371618882E023720A25024622F8141B22F80B
S3251004AFC0121C22F8101C22F80E1C22F80C1C22F80A1C22F8081C22F8061C22F8041C22F84F
S3251004AFE0021C013DE9D10A2201E023720A2230F814CB634430F8126C30F810CC9B196344A0
S3251004B00030F80E6C30F80CCC9B19634430F80A6C30F808CC9B19634430F8066C30F804CC92
S3251004B0209B1930F8026C63449B19013ADFD148F21F52C5F2EB12A3FB0220400960813CE001
S3251004B0406188D0BB22794FEA420C04F128002CF800100132D2B2642A38BF22712DD30122FD
S3251004B060627223710A2230F814CB634430F8126C30F810CC9B19634430F80E6C30F80CCCCD
S3251004B0809B19634430F80A6C30F808CC9B19634430F8066C30F804CC9B1930F8026C6344C3
S3251004B0A09B19013ADFD148F21F52C5F2EB12A3FB0220400960810120A075A18270BC704752
S3251004B0C02DE9F04842F68254C0F6010441F25805C0F60105A078002101280CD105F1CC0CE6
S3251004B0E0A388A4F80110A5F8CC308E4610F0070200F0B480ABE06078012876D12078A3882E
S3251004B100420005F1CC0C22F80C300130C0B21E2828BF084620700322604630F8143BC918DE
S3251004B12030F8124C30F8103C0919C91830F80E4C30F80C3C0919C91830F80A4C30F8083C19
S3251004B1400919C91830F8064C30F8043C091930F8024CC9180919013ADFD13CF8022B1346B0
S3251004B16060460446072734F808CB9C4538BF634634F806CC9C4538BF634634F804CC9C45BB
S3251004B18038BF634634F802CC9C4538BF6346013FE9D1B4F800C09C4538BF6346072630F83E
S3251004B1A008CB944588BF624630F806CC944588BF624630F804CC944588BF624630F802CC62
S3251004B1C0944588BF6246013EE9D10088904288BF0246C91A891A880844F62511C2F292419E
S3251004B1E0A0FB01102880BDE8F088002818BFBDE8F08805F1CC0C2078A38842008E4622F8E7
S3251004B2000C300130C0B283465FEADB031CD062464FEAC30E32F8107BC91932F80E6C32F842
S3251004B2200C7C8919C91932F80A6C32F8087C8919C91932F8066C32F8047C891932F8026C96
S3251004B240C9198919013BE5D11BF0070206D00CEB4E0333F802CB6144013AFAD1B1FBF0F1FC
S3251004B26069801E283CBF2070BDE8F088012060702270BDE8F08810B441F25804C0F601042F
S3251004B28042F68351C0F601010878002814BF2088608810BC704730B441F23404C0F6010438
S3251004B2A02078012804D16178FF293CBF013161706288002140F2EF43D31A40F60C1C63457D
S3251004B2C00CD340F25862C0F6010292F8320082F83300022082F83200218024E040F221534E
S3251004B2E0D21A40F6A8039A421DD240F25862C0F6010292F832300125022B08BF002802D1F6
S3251004B300257061700FE0012808D1607812280AD982F8333082F83250218004E018B982F81E
S3251004B320333082F8325030BC704710B581B041F23404C0F601040DF10200012109F0E6FCD8
S3251004B340BDF802006080FFF7EBFDA07D012805D1FFF78AFBFFF7FBFBFFF738FD01B010BD32
S3251004B36000B581B00DF10200012109F0CAFCBDF8020042F68651C0F601010880FFF7A0FE52
S3251004B38001B000BD10B441F24404C0F60104A078013805D30DD0012818D00020A07022E0E2
S3251004B3A02088B0F5C86F15D340F6A44188421AD904E0208840F6A441884202D90220A070B1
S3251004B3C011E040F2AE6188420DD30AE02088B0F5C86F02D20120A07005E040F636418842A8
S3251004B3E001D80020A07010BC704741F25201C0F601010870704741F25201C0F6010108787C
S3251004B40070472DE9F04C81B041F24404C0F601040DF10200012109F074FCA77ABDF802B08F
S3251004B420012F04D1E07AFF283CBF0130E07294F808A0BAF1010F04D1607AFF283CBF0130FD
S3251004B4406072FFF728FF00250126BAF1000F0ED1BBF54D7F0BD82672657240F25867658159
S3251004B4602088C0F60107B0F5967F72D341E07FB940F2965083450BD3A672E57240F25867D6
S3251004B48025812088C0F60107B0F5967F61D330E0BAF1010F11D1607A08280ED340F258670F
S3251004B4A0C0F6010797F8360087F83700208887F83650B0F5967F4CD31BE0012F02D1E07A5B
S3251004B4C00A2808D240F258672088C0F60107B0F5967F3ED30DE040F25867C0F6010797F8F9
S3251004B4E0360087F83700208887F83660B0F5967F2FD3A07B013805D30AD0012811D0607BE2
S3251004B50038BB21E03046FDF7E6FD607B08BB1BE02846FDF7E0FD0220A073607B2573C0B9D7
S3251004B52012E0207B01302073207B0A280AD94FF0FF306073A5731420E073797B387B01293F
S3251004B54011D00AE0607B20B94FF0FF3060731420E073797B387B012905D0012803D17873FC
S3251004B560FEF793FF387B97F85A1087F85B1087F85A60012804BFE07B002852D197F820001A
S3251004B58042F6965487F82100C0F60104FFF792F887F82000FFF7C0F86080FFF7B4F8A080A5
S3251004B5A097F82000042808D10320B97FB87797F82600F97740281BD112E0012808D10220A4
S3251004B5C0B97FB87797F82600F977402810D107E010B9B97FF977B87797F82600402807D100
S3251004B5E097F8240087F82500FFF776F887F8240097F82800012810D1387841F26011C0F608
S3251004B60001017870C878387001281CBFB878012803D1B87EF876BE7606E0B87EF876BD7678
S3251004B62002E0B87FF877BD7701B0BDE8F08C10B441F26012C0F6010202EBC00002790024F4
S3251004B640914208BFA0F8054024D082790132D2B269B990F802C062450DD3847101224271F5
S3251004B660027804718AB90122C270C17112E090F801C0624503D282714471C1710AE0847187
S3251004B680012242710278017112B9C470C17101E0C170C17110BC70474AF64121C1F204017C
S3251004B6A0C9B20020FFF7C3BF70B581B041F25405C0F6010540F25864C0F6010494F8280062
S3251004B6C00026012819D10DF1030009F029FB9DF80310A87881420AD12888013080B26428F4
S3251004B6E00FD3A078E0700120A070304609E0A078E070A970A670304603E0A078E070304688
S3251004B700A670288001B070BD00B581B00DF1030009F014FB9DF8030001B000BD40F20C221E
S3251004B720C1F20802506841F26011C0F60101136848600B609368D26842F69250CA608B602C
S3251004B740C0F6010000218172C0F806105D22828181708222828040F25860C0F60100A0F8E4
S3251004B7604A10C0F80A10C0F80E10C0F81210C0F81610C0F81A10C183C0F82210C0F82610F7
S3251004B780012202724272C0F82A10252280F82E2080F82F2081654186C186704740F20C2273
S3251004B7A0C1F20802516841F26010C0F601001368416003609368D26842F69251C2608360CB
S3251004B7C0C0F6010100208872C1F806005D228A81887082228A8040F25861C0F60101A1F852
S3251004B7E04A00C1F80A00C1F80E00C1F81200C1F81600A1F85A00C1F81A00C883C1F82200D5
S3251004B800C1F82600C886704740F25860C0F6010090F8581040F2B862C0F6010280F85910B3
S3251004B8201179012918BF002180F85810704710B540F25864C0F6010494F82A0094F82B20B0
S3251004B840012859D194F85810012928D1012A13D0C82001F0E0FD0146012001F0DDFD94F8E1
S3251004B8602A0084F82B0040F22C70C0F601008178C1700121817010BD94F85900012832D03E
S3251004B880C82001F0C8FD012101F0F0FD40F22C70C0F601008178C1700121817010BD94F8D5
S3251004B8A02E00012A12D001F0B6FD0146012001F0B3FD94F82A0084F82B0040F22C70C0F6A5
S3251004B8C001008178C1700121817010BD94F82F20824203D194F859202AB121B901F09BFD8D
S3251004B8E0012101F0C3FD40F22C70C0F601008178C1700121817010BD002A08BF10BD0028E6
S3251004B90018BF10BD40F22C70C0F601008178C1700021817084F82B1010BD10B540F2586471
S3251004B920C0F6010494F82C0094F82D20012859D194F85810012928D1012A13D0C82001F050
S3251004B9406AFD0146002001F067FD94F82C0084F82D0040F22C70C0F6010001784170012178
S3251004B960017010BD94F85900012832D0C82001F052FD002101F07AFD40F22C70C0F6010029
S3251004B980017841700121017010BD94F82E00012A12D001F040FD0146002001F03DFD94F8F0
S3251004B9A02C0084F82D0040F22C70C0F60100017841700121017010BD94F82F20824203D116
S3251004B9C094F859202AB121B901F025FD002101F04DFD40F22C70C0F6010001784170012153
S3251004B9E0017010BD002A08BF10BD002818BF10BD01F02DFD40F22C70C0F60100017841709B
S3251004BA000021017094F82C0084F82D0010BD10B540F25864C0F6010494F82A0094F82B1061
S3251004BA20012855D194F8580038BB012913D0782001F0F1FC0146012001F0EEFC94F82A004A
S3251004BA4084F82B0040F22C70C0F601008178C1700121817010BD94F8590080B3782001F0F5
S3251004BA60DAFC012101F002FD40F22C70C0F601008178C1700121817010BD012913D0C82040
S3251004BA8001F0C9FC0146012001F0C6FC94F82A0084F82B0040F22C70C0F601008178C170AF
S3251004BAA00121817010BD94F85910012907D0012805D1C82001F0AFFC012101F0D7FC40F2FB
S3251004BAC02C70C0F601008178C1700121817010BD002908BF10BD002818BF10BD012001F054
S3251004BAE0B6FC40F22C70C0F601008178C1700021817094F82A0084F82B0010BD10B540F298
S3251004BB005864C0F6010494F82C0094F82D10012855D194F8580038BB012913D0782001F057
S3251004BB207AFC0146002001F077FC94F82C0084F82D0040F22C70C0F6010001784170012178
S3251004BB40017010BD94F8590080B3782001F063FC002101F08BFC40F22C70C0F601000178F6
S3251004BB6041700121017010BD012913D0C82001F052FC0146002001F04FFC94F82C0084F88F
S3251004BB802D0040F22C70C0F60100017841700121017010BD94F85910012907D0012805D15A
S3251004BBA0C82001F038FC002101F060FC40F22C70C0F60100017841700121017010BD0029B8
S3251004BBC008BF10BD002818BF10BD01F040FC40F22C70C0F60100017841700021017094F8F1
S3251004BBE02C0084F82D0010BD00B540F25860C0F6010090F8581040F2B862C0F6010280F8C6
S3251004BC0059101179012918BF002180F85810FFF70EFEFFF782FE00BD41F27413C0F601036C
S3251004BC2040F22C71C0F60101087C48740020087440F25861C0F601010A7B4A7391F82A20CF
S3251004BC40087381F82B2091F82C2081F82A0081F82D2081F82C00588091F8282081F829203D
S3251004BC6091F85C2081F8280081F85D2091F8262081F85C0081F8272081F82600986018718A
S3251004BC80D8801873A3F80D0018807047002070477047704730B541F2701440F25862C0F62D
S3251004BCA00102C0F60104917A206801290BD040F23425C1F20805294608F05AFE206029461B
S3251004BCC008F046FE0AE040F24C25C1F20805294608F04EFE2060294608F03AFE206001204E
S3251004BCE030BD41F27413C0F6010340F22C70C0F60100017C41740021017440F25860C0F6DC
S3251004BD00010090F85C2080F85D2090F82A2080F85C1080F82B2090F82C2080F82A1080F898
S3251004BD202D2080F82C101960704710B441F27014C0F6010440F25862C0F60102917A0229A7
S3251004BD4005D140F27C20C1F20800206006E0002021B940F26420C1F20800206010BC704796
S3251004BD60704741F27811C0F6010100204860087048800872A1F80900704740F25862C0F601
S3251004BD800102917A012915D130B540F24C2541F27014C0F60104C1F208052068294608F0C2
S3251004BDA0E7FD2060294608F0D3FD20600120BDE8304070470020704740F25860C0F60100E9
S3251004BDC0017B417301210173704740F2942041F27011C0F60101C1F20800086070477047E9
S3251004BDE0704740F25862C0F60102917A012915D030B540F2342541F27014C0F60104C1F21E
S3251004BE0008052068294608F0B3FD2060294608F09FFD20600120BDE8304070470020704795
S3251004BE20704710B441F27014C0F6010440F25860C0F6010090F8371011B190F8361011B139
S3251004BE40007B012804D140F2C420C1F2080003E040F2DC20C1F20800206010BC70477047F8
S3251004BE60704740F25862C0F60102917A022915D130B540F27C2541F27014C0F60104C1F253
S3251004BE8008052068294608F073FD2060294608F05FFD20600120BDE8304070470020704795
S3251004BEA041F27813C0F6010340F25861C0F60101087B487391F82620002081F827200873E5
S3251004BEC0102281F826205860187058801872A3F809007047002070477047704740F2586229
S3251004BEE0C0F60102917AA9B930B540F2DC2541F27014C0F60104C1F208052068294608F0C9
S3251004BF0037FD2060294608F023FD20600120BDE8304070470020704740F25860C0F60100E7
S3251004BF2090F85C1080F85D10002180F85C1090F82A2080F82A1090F8261080F8271080F8A0
S3251004BF402B20102180F82610704710B441F27014C0F6010440F25861C0F60101087C012860
S3251004BF6007BF40F2F420C1F2080040F20C30C1F20800206010BC70477047704730B540F22F
S3251004BF805861C0F6010100208A7F41F27014C0F60104042A21D18A7B002A01BF0A7D002ABB
S3251004BFA00A7C002A06BF897C002930BD41F24602C0F601021178002918BF30BD40F26C355A
S3251004BFC0C1F208052068294608F0D2FC2060294608F0BEFC2060012030BD032A01BF8A7BA9
S3251004BFE0002A0A7D002A01BF0A7C002A897C002918BF30BD41F24602C0F601021178002904
S3251004C00018BF30BD40F25435C1F208052068294608F0AEFC2060294608F09AFC2060012010
S3251004C02030BD40F25860C0F6010090F8261080F82710202180F82610704740F2243041F28C
S3251004C0407011C0F60101C1F2080008607047704740F25860C0F60100817FC177002190F87A
S3251004C0602820817780F8292090F85C2080F8281080F85D2080F85C10704740F25861C0F6C0
S3251004C08001018A7B0020012A1FBF0A7D012A8A7C012A1CBF097C012907D041F24602C0F6E1
S3251004C0A001021178002908BF704730B540F2942541F27014C0F60104C1F20805206829463A
S3251004C0C008F056FC2060294608F042FC20600120BDE83040704710B441F27814C0F601042C
S3251004C0E040F25860C0F601008179012915D041F24602C0F60102117879B92279012A02D1F4
S3251004C10061795A2909D2A179E37901291ED1642B24BF90F82410002918D140F22C71C0F679
S3251004C12001010A7C4A7400220A74017B417390F8261080F827100273102180F8261062604C
S3251004C140227062802272A4F8092090E0A17A012944D190F825C0BCF1000F3FD090F824C08A
S3251004C160BCF1000F3AD1217184F805C0A3F10A025B2A3ED3628841F270739A4228BF0129E8
S3251004C18004BF90F82420012A53D140F2B861C0F6010191F82820012A1FBF91F82420012AD2
S3251004C1A091F82E20012A1CBF91F82C10012931D140F22C71C0F601010A7C4A7400220A742C
S3251004C1C0017B417390F82610027380F82710A272102180F826102270628048E0012A01BFB9
S3251004C1E090F82420012A0022A280A3F10A025B2AC0D290F82420012ABCD140F22C71C0F62A
S3251004C2000101087C0A744874A2720021E180227061802CE040F22C71C0F60101087C487468
S3251004C220042008740020207060800121217260721DE0627A322A28BF012904BF90F8241068
S3251004C240012914D140F22C71C0F601010A7C4A7400220A74017B417390F82610227280F850
S3251004C26027100273102180F82610A4F8092010BC704741F27C12C0F601020020D0709071F6
S3251004C280012140F25860C0F60100917090F8261080F82710402180F82610FFF71CBF002053
S3251004C2A07047FFF718BF40F22C70C0F60100017C417400210174704700207047704700202E
S3251004C2C07047704770470020704710B441F27414C0F60104A278022A43D0617840F25860F2
S3251004C2E0C0F60100322924BFE3780A2B0AD390F82C1080F82D10002180F82C100220A07042
S3251004C30021802EE023786BB990F82C1080F82D10012180F82C10E078A1700130E0702170CB
S3251004C32063701EE07AB932291BD390F82C1080F82D100121A170217080F82C10E07862707B
S3251004C3400130E0700DE0012A0BD1322909D390F82C1080F82D10002180F82C102270A4F89B
S3251004C360011010BC704741F27412C0F6010240F22C70C0F60100017C41740521017400202B
S3251004C3805080FFF7A2BF00207047FFF79EBF41F27411C0F6010100200860704740F2586297
S3251004C3A0C0F60102117CA9B930B540F20C3541F27014C0F60104C1F208052068294608F042
S3251004C3C0D7FA2060294608F0C3FA20600120BDE8304070470020704740F22C70C0F6010005
S3251004C3E0017C41740021017440F25860C0F6010090F82C2080F82D2080F82C107047002096
S3251004C40070477047704730B540F25861C0F6010141F270140A7CC0F60104012A0ED140F221
S3251004C420F425C1F208052068294608F0A1FA2060294608F08DFA2060012030BD8A7B00205E
S3251004C440002A18BF30BD0A7D002A18BF30BD897C002918BF30BD41F24602C0F601021178B0
S3251004C460002918BF30BD40F2AC25C1F208052068294608F07DFA2060294608F069FA2060C2
S3251004C480012030BD40F22C70C0F60100017C41740021017440F25860C0F6010090F82A20B4
S3251004C4A080F82B2090F82C2080F82A1080F82D2090F85C2080F82C1080F85D2090F82820D7
S3251004C4C080F85C1080F8292080F828107047002070477047704730B540F25862C0F6010267
S3251004C4E0917F41F27014C0F6010405290ED140F23C35C1F208052068294608F039FA20608E
S3251004C500294608F025FA2060012030BD03290ED140F25435C1F208052068294608F028FA56
S3251004C5202060294608F014FA2060012030BD0020042918BF30BD40F26C35C1F20805206832
S3251004C540294608F015FA2060294608F001FA2060012030BD41F27413C0F6010340F22C7099
S3251004C560C0F60100017C41740521017440F25860C0F6010090F82A1080F82B10002190F85E
S3251004C5805C2080F82A1080F85D2090F8282080F85C1080F8292080F828105980FFF795BE17
S3251004C5A000207047FFF791BE41F27411C0F6010100200860704730B540F25862C0F601020C
S3251004C5C0917F41F27014C0F60104022918BF00290ED140F22435C1F208052068294608F07B
S3251004C5E0C7F92060294608F0B3F92060012030BD002003290ED140F25435C1F20805206812
S3251004C600294608F0B5F92060294608F0A1F92060012030BD042918BF30BD40F26C35C1F265
S3251004C62008052068294608F0A3F92060294608F08FF92060012030BD40F22C70C0F60100C6
S3251004C640017C41740221017440F25860C0F6010090F82A1080F82B10002180F82A1090F885
S3251004C6602C1080F82D10012190F85C2080F82C1080F85D2090F8282080F85C1080F829206B
S3251004C68080F828107047002070477047704730B540F25862C0F60102917F41F27014C0F6CD
S3251004C6A00104022918BF00290ED140F22435C1F208052068294608F05BF92060294608F0DC
S3251004C6C047F92060012030BD002005290ED140F23C35C1F208052068294608F049F9206031
S3251004C6E0294608F035F92060012030BD042918BF30BD40F26C35C1F208052068294608F08A
S3251004C70037F92060294608F023F92060012030BD40F22C70C0F60100017C417403210174EE
S3251004C72040F25860C0F6010090F82A1090F82C2080F82B1080F82D200121002280F82C2028
S3251004C74090F85C2080F82A1080F85D2090F8282080F85C1080F8292080F828107047002018
S3251004C76070477047704730B540F25862C0F60102917F41F27014C0F60104022918BF002943
S3251004C7800ED140F22435C1F208052068294608F0EFF82060294608F0DBF82060012030BD37
S3251004C7A0002005290ED140F23C35C1F208052068294608F0DDF82060294608F0C9F82060E3
S3251004C7C0012030BD032918BF30BD40F25435C1F208052068294608F0CBF82060294608F02D
S3251004C7E0B7F82060012030BD10B541F27014C0F60104207B012804D1607BFF283CBF0130E4
S3251004C8006073A07B012804D1E07BFF283CBF0130E073207A012806D160894FF6FF7188420F
S3251004C8203CBF01306081207C012804D1607CFF283CBF013060742079012804D16079FF289D
S3251004C8403CBF01306071207D012806D1E08A4FF6FF7188423CBF0130E082207E01280DD009
S3251004C86028BF10BD40F21C21C1F208012160084608F06EF820600120207610BD2068BDE861
S3251004C880104008F08BB810B541F28914C0F60104A078012804D1E078FF283CBF0130E07092
S3251004C8A0A079012804D1E079FF283CBF0130E071207A012804D1607AFF283CBF01306072B3
S3251004C8C02079013808D326D0012800F0BE80E0780C2838BF10BD6CE140F25860C0F6010006
S3251004C8E0C27A817A012A02D0012901D01AB111B9C1723CF0D5F93CF0E3F93CF0CBF903F042
S3251004C90051FD08B9012020713CF0CAF9E0780C2838BF10BD4DE140F25860C0F60100817A33
S3251004C920C27A02296AD1022A1AD0C17240F2B860C0F6010090F8381080F8391090F83A108E
S3251004C94080F83B103CF0A6F9012060713CF0A2F904F077FA05F0EEF8002840F0268163E0F4
S3251004C96040F2B860C0F6010090F8392090F83810012A03D0012903D0032A1DD003291BD1BE
S3251004C98090F83A2080F8391080F83B203CF082F941F29C11C0F60101012008700020488047
S3251004C9A0012060713CF076F904F04BFA05F0C2F8002840F0FA8037E090F83B20012A26D0FB
S3251004C9C090F83A20012A22D180F8391080F83B203CF060F941F29C11C0F6010101200870F3
S3251004C9E000204880012060713CF054F904F029FA05F0A0F8002840F0D88015E0012A02D084
S3251004CA00012901D01AB111B9C1723CF049F96079002800F0CA803CF03DF904F012FA05F039
S3251004CA2089F8002840F0C180607102202071002003F09FFC41F2FC30C0F6010003F01BFC70
S3251004CA40E0780C2838BF10BDB3E003F0C0FE40F25860C0F60100C27A817A012A02D0012929
S3251004CA6001D052B149B9C17201202070002003F080FC002840F0898060E040F2B860C0F6B2
S3251004CA80010090F8392090F83810012A03D0012903D0032A23D0032921D190F83A2041F27C
S3251004CAA09C1CC0F6010C01238CF800300023ACF8023080F8391080F83B200220207018466C
S3251004CAC003F057FC41F2FC30C0F6010003F0D3FB00202070E0780C2838BF10BD69E090F84E
S3251004CAE03B20012A22D090F83A20012A1ED141F29C1CC0F6010C8CF800200023ACF802305D
S3251004CB0080F8391080F83B2002202070184603F030FC41F2FC30C0F6010003F0ACFB002068
S3251004CB202070E0780C2838BF10BD42E0207898B3012812D1002003F01CFC30BB41F2A441BC
S3251004CB40C0F6010181F816030120207100202070E0780C2838BF10BD2BE002280FD100208A
S3251004CB6003F007FC41F2FC30C0F6010003F083FB00202070E0780C2838BF10BD19E00328FA
S3251004CB8003D13CF08DF80120207100202070E0780C2838BF10BD0CE041F2A441C0F6010188
S3251004CBA00878012804BF03202070E0780C2838BF10BD002140F22C70C0F601006180827E65
S3251004CBC0C276817610BD41F29813C0F6010340F25860C0F60100817AC1720021817219713A
S3251004CBE090F84A20D98080F84B2080F84A1019807047002070477047704730B5002041F24E
S3251004CC004602C0F6010241F294141178C0F6010431BB40F2B861C0F6010191F8393091F870
S3251004CC203820012B03D0012A0BD0032B01D0032A07D091F83B20012A12D091F83A1001298C
S3251004CC400ED140F29C35C1F208052068294607F08FFE2060294607F07BFE2060012030BDB0
S3251004CC6040F25861C0F601010A793AB98A79022A04BF91F8341001292DD030BD012A14D19E
S3251004CC808A79022A18BF30BD91F83620012A04BF91F85020012A1ED091F85220012A04BFBF
S3251004CCA091F85010002916D030BD022A01BF8A79022A91F83610012918BF30BD40F2B86152
S3251004CCC0C0F6010191F83820012A1DBF032A91F83A10012930BD40F2B435C1F20805206820
S3251004CCE0294607F045FE2060294607F031FE2060012030BD40F2B860C0F6010090F83910FC
S3251004CD00022903D090F83820022A07D090F83B20022A0CD090F83A30022B08D141F2981159
S3251004CD20C0F601010120087000204870704790F83830012903D0012B0BD0032901D0032BDA
S3251004CD4007D0012A08BF704790F83A00012818BF704741F29811C0F60101002008807047CD
S3251004CD6040F25860C0F60100817AC1720221817241F29C10C0F601000121017000214180A9
S3251004CD80FFF7B8BF00207047FFF7B4BF41F29811C0F6010100200871C8800880704730B533
S3251004CDA041F29414C0F6010461790020322904D2628941F270739A4219D340F25862C0F62D
S3251004CDC001029379022B04BF92F83620012A0ED140F2B435C1F208052068294607F0C8FDC2
S3251004CDE02060294607F0B4FD2060012030BD41F24603C0F601031A783AB9322905D261891D
S3251004CE0041F27072914238BF30BD40F28435C1F208052068294607F0ABFD2060294607F005
S3251004CE2097FD2060012030BD40F25860C0F60100817AC1720121817241F29810C0F6010040
S3251004CE40002101807047002070477047704730B5002041F24602C0F6010241F2941411787D
S3251004CE60C0F6010431BB40F2B861C0F6010191F8392091F83830012A03D0012B0BD0032AE9
S3251004CE8001D0032B07D091F83B20012A12D091F83A1001290ED140F29C35C1F2080520688A
S3251004CEA0294607F065FD2060294607F051FD2060012030BD40F25861C0F601010A79012A7D
S3251004CEC012BF022A91F83620002A06D08A79012A1EBF91F83610002930BD40F28435C1F2CE
S3251004CEE008052068294607F043FD2060294607F02FFD2060012030BD10B541F29414C0F6E7
S3251004CF000104207A012806D160894FF6FF7188423CBF013060812079012804D16079FF284C
S3251004CF203CBF01306071207B01280DD028BF10BD40F28431C1F208012160084607F008FD17
S3251004CF4020600120207310BD2068BDE8104007F025BD41F2A812C0F6010240F25861C0F619
S3251004CF600101087D4875002008755072107050801071D0807047002070477047704740F2A5
S3251004CF805862C0F60102917A012915D130B540F2E43541F2A414C0F60104C1F208052068CB
S3251004CFA0294607F0E5FC2060294607F0D1FC20600120BDE83040704700207047704740F230
S3251004CFC0FC3041F2A411C0F60101C1F20800086070477047704740F25862C0F60102917A73
S3251004CFE0A9B930B540F2CC3541F2A414C0F60104C1F208052068294607F0BAFC20602946A4
S3251004D00007F0A6FC20600120BDE8304070470020704740F25860C0F60100017D4175002123
S3251004D0200175704710B441F2A414C0F6010442F69852C0F60102108841F29411884239BF32
S3251004D04040F22C40C1F2080040F24440C1F20800206010BC7047704770470020704740F272
S3251004D0605860C0F60100017D417501210175704740F25C4041F2A411C0F60101C1F208007B
S3251004D080086070477047704730B541F2A414C0F60104617B00200A2928BF30BD6189B1F5CB
S3251004D0A0FA7F38BF30BD40F2FC35C1F208052068294607F05DFC2060294607F049FC2060E4
S3251004D0C0012030BD41F2B111C0F60101002008707047002070477047704742F69853C0F60E
S3251004D0E00103198841F29412914215D330B540F2444541F2A414C0F60104C1F2080520684F
S3251004D100294607F035FC2060294607F021FC20600120BDE8304070470020704741F2A8112B
S3251004D120C0F601010120087000204880704700207047704741F2A811C0F60101002008701B
S3251004D1404880704730B541F2A414C0F6010442F69853C0F60103198841F2941291420ED2A1
S3251004D16040F22C45C1F208052068294607F000FC2060294607F0ECFB2060012030BDE18884
S3251004D18000200F2938BF30BD40F21445C1F208052068294607F0ECFB2060294607F0D8FB60
S3251004D1A02060012030BD41F2AC11C0F601010120087000204880487901304871704700201C
S3251004D1C07047704741F2AC11C0F60101002008704880704730B541F2A414C0F60104617BA1
S3251004D1E00A290ED340F27445C1F208052068294607F0BEFB2060294607F0AAFB2060012083
S3251004D20030BD002030BD704700207047704770470020704710B541F2A414C0F60104207923
S3251004D220012806D1E0884FF6FF7188423CBF0130E080207A012806D160894FF6FF7188425F
S3251004D2403CBF01306081207B01280DD028BF10BD40F2CC31C1F208012160084607F078FB2E
S3251004D26020600120207310BD2068BDE8104007F095BB00002DE9100141F2B414C0F60104F2
S3251004D2802078012806D160884FF6FF7188423CBF01306080002140F25860C0F6010042F66F
S3251004D2A09E522379C0F60102042B56D80FF20408D8E803F0030B172738002170027C0174EA
S3251004D2C0427461800120207148E0807A012845D11088142842D80120207061800220207157
S3251004D2E03CE0837A012B02D11288142A04D9217061800120207131E06288B2F5FA7F2DD308
S3251004D30022E0837A012B05D0027C427401740120207123E01088182820D323706180042032
S3251004D32020711BE0837A012B03D16388B3F5FA7F07D32170027C0174427461800120207197
S3251004D3400CE01288182A09D221706180017C4174012101740320207100E02171BDE81001F9
S3251004D360704740F2B862C0F601029179012904BF052070473220022904BF062070470329BB
S3251004D38004BF08207047042904BF0A207047052904BF0C207047062904BF0E207047072925
S3251004D3A004BF10207047082904BF18207047092904BF1E2070470A2904BF252070470B29B6
S3251004D3C004BF2D2070470C2904BF332070470D2904BF3D2070470E2904BF462070470F290E
S3251004D3E004BF54207047102904BF6A207047112904BF78207047122904BF82207047132909
S3251004D40004BF88207047142904BF8C207047152908BFC82070477047013809D30DD00228F6
S3251004D42010D318BF70471920484380B207F011BD1920484380B207F0E0BC1920484380B227
S3251004D44007F0F1BC1920484380B207F0F7BC013806D307D0022807D318BF704707F0FDBC43
S3251004D46007F0CFBC07F0E3BC07F0ECBC013909D30DD0022910D318BF70471921484380B255
S3251004D48007F0E7BC1921484380B207F0B6BC1921484380B207F0C7BC1921484380B207F019
S3251004D4A0CDBC40F21251484341F2BA11C0F60101088080B207F0ACBC07F0AEBC40F21251E4
S3251004D4C0484341F2BA11C0F60101088080B207F09FBC10B5C4B2204607F0C9FC2046BDE87D
S3251004D4E0104007F0CBBC10B441F2BC14C0F601042078012806D160884FF6FF7188423CBFC8
S3251004D50001306080002240F258602179C0F60100013915D31CD0012918BF227140F08280AF
S3251004D520817A29B140F2B861C0F601018B78D3BB2270817B8273C17362800120207171E0CC
S3251004D5402270817B8273C17362800120207169E040F2B861C0F601018B78012B04BF837A2B
S3251004D560012B5FD191F82830012B1FBF91F82E30012B91F82430012B1FBF91F82C30012B3F
S3251004D58091F82A30012B1FBF91F83030012B91F82630012B1FBF91F83230012B91F83410A2
S3251004D5A001293FD109E091F835C0BCF1010F0DD091F834C0BCF1010F08D1817BC1730121B1
S3251004D5C0217081736280022020712BE0012B01BF91F82830002B91F82E30002B01BF91F8B9
S3251004D5E02430002B91F82C30002B01BF91F82A30002B91F83030002B01BF91F82630002BD6
S3251004D60091F83230002B0DD16388B3F5AF7F09D391F8341031B92270817B8273C17362800F
S3251004D6200120207110BC704741F2C411C0F6010101220A54704741F2C411C0F601010022C1
S3251004D6400A54704740F25861C0F6010191F8360000281CF06DA0704741F2C411C0F6010181
S3251004D660087801281CF064A0704740F25861C0F6010191F8360000281CF05AA0704741F2A6
S3251004D680C811C0F6010100200870704710B441F2D414C0F601042078012804D16078FF2861
S3251004D6A03CBF01306070002140F25860A278C0F60100013A05D30BD0022A18D332D0A17060
S3251004D6C037E0827C8174C27421800120A07030E0807A01282DD142F69452C0F6010210788E
S3251004D6E0012826D1207061700220A07021E0827A012A05D142F69453C0F601031A7832B909
S3251004D700827C8174C27421800120A07011E06278C82A0ED3827CC274012282742180032045
S3251004D720A07006E0827A22B9827CC27481740120A07010BC704710B540F22C70C0F60100DB
S3251004D74040F2B861C0F6010140F25864CA7BC0F60104012A02D08A7B012A13D0CA7F012A3A
S3251004D76002D08A7F012A0DD04A7C022A02D00B7C022B07D04B7F022B15D091F81CC0BCF16F
S3251004D780020F10D1817BC17302218173A079E07194F84800A17184F8490084F84810022823
S3251004D7A008BF10BD38E0012A02D00A7C012A04D0012B14D0097F012911D194F84810827B9C
S3251004D7C0C27301228273A079E071A27184F8482084F849100129114608BF10BD1CE094F80F
S3251004D7E0481002290BD1827BC2738173A079E07194F84900A171884208BF10BD0CE00129C5
S3251004D800DDD1827BC2738173A079E07194F84900A171884208BF10BD0320FCF783FB94F84B
S3251004D820480084F8490010BDFFF785BF00207047FFF781BF704730B540F25862C0F601026C
S3251004D840117A41F2D814C0F6010402290ED140F2A445C1F208052068294607F089F8206075
S3251004D860294607F075F82060012030BD0020032918BF30BD40F2BC45C1F208052068294633
S3251004D88007F076F82060294607F062F82060012030BD10B540F22C70C0F6010040F2B861A6
S3251004D8A0C0F6010140F25864CA7BC0F60104012A02D08A7B012A13D0CA7F012A02D08A7F49
S3251004D8C0012A0DD04A7C022A02D00B7C022B07D04B7F022B15D091F81CC0BCF1020F10D1F7
S3251004D8E0817BC17302218173A079E07194F84400A17184F8450084F84410022808BF10BD2C
S3251004D90038E0012A02D00A7C012A04D0012B14D0097F012911D194F84410827BC27301227A
S3251004D9208273A079E071A27184F8442084F845100129114608BF10BD1CE094F8441002298E
S3251004D9400BD1827BC2738173A079E07194F84500A171884208BF10BD0CE00129DDD1827B3F
S3251004D960C2738173A079E07194F84500A171884208BF10BD0120FCF7D5FA94F8440084F88A
S3251004D980450010BDFFF785BF00207047FFF781BF704730B540F25862C0F60102117A41F215
S3251004D9A0D814C0F6010401290ED140F28C45C1F208052068294606F0DBFF2060294606F02E
S3251004D9C0C7FF2060012030BD0020032918BF30BD40F2BC45C1F208052068294606F0C8FF22
S3251004D9E02060294606F0B4FF2060012030BD10B540F22C70C0F6010040F2B861C0F601019A
S3251004DA0040F25864CA7BC0F60104012A02D08A7B012A13D0CA7F012A02D08A7F012A0DD097
S3251004DA204A7C022A02D00B7C022B07D04B7F022B15D091F81CC0BCF1020F10D1817BC1736D
S3251004DA4002218173A079E07194F84600A17184F8470084F84610022808BF10BD38E0012AB1
S3251004DA6002D00A7C012A04D0012B14D0097F012911D194F84610827BC27301228273A0794C
S3251004DA80E071A27184F8462084F847100129114608BF10BD1CE094F8461002290BD1827B5C
S3251004DAA0C2738173A079E07194F84700A171884208BF10BD0CE00129DDD1827BC27381738C
S3251004DAC0A079E07194F84700A171884208BF10BD0220FCF727FA94F8460084F8470010BDE7
S3251004DAE0FFF785BF00207047FFF781BF704730B540F25862C0F60102117A41F2D814C0F624
S3251004DB00010401290ED140F28C45C1F208052068294606F02DFF2060294606F019FF206084
S3251004DB20012030BD0020022918BF30BD40F2A445C1F208052068294606F01AFF20602946DE
S3251004DB4006F006FF2060012030BD40F2B862C0F6010292F8221040F25860C0F60100022995
S3251004DB6006D003290AD001290FD0917E022903D1027A427201727047032903D1027A42720E
S3251004DB8001727047012918BF7047027A42720172704710B541F2D814C0F60104FFF7D5FFC6
S3251004DBA0207901282ED028BF10BD40F25861C0F60101087A02280BD140F2A441C1F20801D9
S3251004DBC02160084606F0C4FE20600120207110BD03280BD140F2BC41C1F2080121600846E4
S3251004DBE006F0B6FE20600120207110BD40F28C41C1F208012160084606F0AAFE2060012099
S3251004DC00207110BD2068BDE8104006F0C7BE60B441F2E010C0F6010039213523437083704E
S3251004DC2001703622302101714FF0410C80F815C08175C1753125057650264671417632262C
S3251004DC4086710172417280F80AC00173417380F80EC001744174C174C176C270C271437728
S3251004DC602E22C272C2738274027781775322C27780F8205080F8215080F8221060BC70476E
S3251004DC80801C800803D0401C801EFCD100BF704770B485B040F2D44CC1F2080CDCF800C030
S3251004DCA0CDF800C040F2D84CC1F2080CDCF800C0CDF804C040F2DC4CC1F2080CDCF800C0D6
S3251004DCC0CDF808C040F2E04CC1F2080CDCF800C0CDF80CC040F2E44CC1F2080C42F20103F2
S3251004DCE0DCF80060C0F2AA03049600281CBF0029002A6CD00B7ADC07009B640F64F39033BB
S3251004DD008C7A64F3082323F04073009303604B7A019CDB4363F3CB240B689C4663F3000C29
S3251004DD206CF39F7401940466029C4FF0070C6CF3040444F480740294C0F800430C7900259A
S3251004DD40002C18BF7F25C0F80453CD884FEA450C8DF80CC02D0A6D008DF80E50039DC0F8E4
S3251004DD6010534FF0070C6CF3040646F4807545F480350495C0F800524E790125002E18BFB9
S3251004DD804025C0F804520021C0F8C81EC0F8881EC0F8C81FC0F8881FC0F8081FDB0740F2E8
S3251004DDA0D11358BF0023C0F8483F02F8044B02F8036C4FF0805082E803001161D161916227
S3251004DDC0D162084638320B468C4682E80B10184605B070BC704740F20F01C0F2003101601A
S3251004DDE043F68871016640F2071241F21301C0F22A010167C0F800230021C0F80413C0F816
S3251004DE001013C0F80022C0F80412C0F8C81EC0F8881EC0F8C81FC0F8881FC0F8081FC0F88C
S3251004DE20481F704702686FF3DF7202604FF0805048600020886008627047026E12F0804F0A
S3251004DE4035D0026E12F0004F31D145F2E020C0F27700081A45F64132C0F27302904204D2E1
S3251004DE6041F68020C0F2060070474AF2B060C0F21700081A4AF65112C0F2AB02904204D261
S3251004DE8048F2A060C0F2010070474BF20030C0F2F100081A45F24151C0F25C41884244F27A
S3251004DEA04022C0F20F0234BF104600207047026E006EC2F3031210F00F0080180230B1FBD6
S3251004DEC0F0F070472DE9F0480446036E002013F0804F14D0236E13F0004F10D11146204631
S3251004DEE0FFF7ABFFD4F800136FF34921C4F8001341F21301C0F22A012167BDE8F088002AFB
S3251004DF0014BF0029BDE8F08844F6D350C1F26200A2FB0036A1FB0007B6094CF60020BF09FD
S3251004DF20C3F69A30B0FBF2F348F2A060C0F20100814209D841F2883BBBFBF3F505FB03FC90
S3251004DF405846DC451DD21AE041F68025C0F20605A9428CBF4FF4BE704FF46170A9428CBF75
S3251004DF604FF41B7B4FF4C86BBBFBF3F505FB03FCDC4506D203E09C440135DC4501D2102D78
S3251004DF80F9D3B0FBF3F101FB03FC844506D203E09C440131844501D21029F9D34819B6FBC8
S3251004DFA0F0F00023B8421BD915E013F0010F09D010290DD201314819B6FBF0F00133B8420B
S3251004DFC009D80DE0102D03D201354819B6FBF0F00133B84204D901EB050CBCF1200FE4D384
S3251004DFE041F68026C0F20606D4F80033B04217D940F20300C0F22A0043F40073C4F80033E1
S3251004E0002067206E6B1E63F307102066206E4B1E63F3030020664819B2FBF0F0BDE8F08874
S3251004E02041F21300C0F22A0023F40073C4F800332067206E6B1E63F307102066206E4B1EA3
S3251004E04063F3030020664819B2FBF0F0BDE8F08800EB80004001FFF713BE10B504460168D1
S3251004E060080008BF10BDA020FFF70AFE21680139216014BF00204FF0004010BD70B442F251
S3251004E0800304C0F2AA0423464FF0805511F0004F14D111F0C00F0DD0816E00296AD000212D
S3251004E0A08166556040F21711C0F8001FD0F8000F601D66E011F4807F0FD0231D01686FF3F1
S3251004E0C0DF71016000218166C166016841F00041016000685560184653E040F20006C1F271
S3251004E0E0130611F0010F12D05168E31CB142E5D1016EC1F3807191F00101DFD1556040F26B
S3251004E1001711C0F8001FD0F8000F184639E011F0020F0DD0A31C5268611CB24208BF0B46A7
S3251004E12040F21711C0F8001FD0F8000F184628E0002311F0100F08D0556040F21711C0F875
S3251004E140001FD0F8000F18461BE05168B14211D192F80DC04FF4A011BCF1000F18BF4FF4A7
S3251004E1608811516040F21711C0F8001FD0F8000F184606E040F21711C0F8001FD0F8000FE7
S3251004E180184670BC70472DE9F04481B0079D04460020C4F8480F42F20200D5F804C0C0F20F
S3251004E1A0AA00BCF1805F4BD198001B1A03EB4013DE0040F20000C1F213006860012A0CBF51
S3251004E1C001200020687340F21710C4F8000FD4F8000F0420C4F8C00FD4F8C00FD4F80402EE
S3251004E1E040F48030C4F80402D4F804026FF31040C4F80402D4F80402480642EA1060C4F8A1
S3251004E200400202200090A06640F20717D4F8001FD4F8400F394000F0C00040EA010A002115
S3251004E2203EB1A020FFF72CFD013E14BF00214FF000415AEA0101E9D02A462046FFF71EFF5B
S3251004E24040F2D111C4F8481F01B0BDE8F0842DE9F04481B0079DD5F804C01CF4801F39D03B
S3251004E260044698001B1A03EB4013DE0040F20000C1F213006860012A0CBF0120002068737C
S3251004E280636EC3F34013DB0043F001000090A066480642EA1060C4F8400240F20717D4F8E1
S3251004E2A0001FD4F8400F394000F0C00040EA010A00213EB1A020FFF7E3FC013E14BF0021D4
S3251004E2C04FF000415AEA0101E9D02A462046FFF7D5FE03E042F20200C0F2AA0001B0BDE83B
S3251004E2E0F0842DE9F04481B01646526812F4801F1FD005468800091A01EB4011CC00182034
S3251004E3000090A86640F2111AD5F8007F07EA0A0700213CB1A020FFF7B3FC013C14BF0021F6
S3251004E3204FF000413943EFD032462846FFF7A6FE03E042F20200C0F2AA0001B0BDE8F08449
S3251004E3402DE9F0441646526812F4801F23D005468800091A01EB4011A86ECC0040F0100056
S3251004E360A86640F2111AD5F8007F07EA0A0700213CB1A020FFF784FC013C14BF00214FF016
S3251004E38000413943EFD032462846BDE8F044FFF775BEBDE8F08442F20200C0F2AA00BDE8AF
S3251004E3A0F0842DE9F0441646526812F4801F23D005468800091A01EB4011A86ECC0040F092
S3251004E3C00800A86640F2111AD5F8007F07EA0A0700213CB1A020FFF753FC013C14BF00211E
S3251004E3E04FF000413943EFD032462846BDE8F044FFF744BEBDE8F08442F20200C0F2AA00E6
S3251004E400BDE8F0842DE9F04F83B006468946DDF830B0904642F20200DBF80410C0F2AA0022
S3251004E420B1F5881F39D198001B1A03EB4013DD0040F2011AD6F8004F04EA0A04D6F8C00F7D
S3251004E4400023400754BF012700273DB1A020FFF717FC013D14BF00234FF000431C433FB11A
S3251004E4602100E7D05A463046FFF708FEA8B90EE0D6F8400388F800005A460520C6F8C00F66
S3251004E480D6F8C00F21463046FFF7F8FD28B9B9F1010F02D104230093B36603B0BDE8F08FE5
S3251004E4A02DE9F0441D465B68B3F5A01F21D104469000121A02EB4012D600C4F8401240F21E
S3251004E4C0071AD4F8007F07EA0A0700213EB1A020FFF7D6FB013E14BF00214FF000413943EE
S3251004E4E0EFD02A462046BDE8F044FFF7C7BDBDE8F08442F20200C0F2AA00BDE8F0842DE940
S3251004E500F04F83B081468DF807200D4640F2000BC4F2620B0BF502763168C9054FEAD1510F
S3251004E52003D10B460C1EF7D103E0013B01240029F2D1002BF0D1002C71D141F20426C0F60D
S3251004E54001060096584602230A463C21FFF71BFE041E5AD18046AA465FEADA0744D04D46B1
S3251004E5604FEAC708334615F8081B58460222FFF797FF334615F8071C044358460222FFF7DA
S3251004E5808FFF334615F8061C044358460222FFF787FF334615F8051C044358460222FFF700
S3251004E5A07FFF334615F8041C044358460222FFF777FF334615F8031C044358460222FFF704
S3251004E5C06FFF334615F8021C044358460222FFF767FF334615F8011C044358460222FFF708
S3251004E5E05FFF0443013FBDD11AF007050DD05FFA88F101EB0907334617F8011B5846022267
S3251004E600FFF74EFF0443013DF5D19DF8070050B1324658460221FFF793FE204304E042F27A
S3251004E6200204C0F2AA04204603B0BDE8F08F2DE9F04F84B007460E46914640F2000AC4F22A
S3251004E640620A0AF542742068C0054FEAD05003D10346011EF7D103E0013B01210028F2D1A9
S3251004E660002BF0D1002940F08C8041F20425C0F6010500955046022301223C21FFF783FDD1
S3251004E680041E74D103965FEAD60B5DD080460095504617EB186202231946FFF7B3FE0095DC
S3251004E6A007F1010C0CEB18620443504602231946FFF7A8FE009507F1020C0CEB186204437A
S3251004E6C0504602231946FFF79DFE009507F1030C0CEB18620443504602231946FFF792FE81
S3251004E6E0009507F1040C0CEB18620443504602231946FFF787FE009507F1050C0CEB186207
S3251004E7000443504602231946FFF77CFE009507F1060C0CEB18620443504602231946FFF7A7
S3251004E72071FE009507F1070C0CEB18620443504602231946FFF766FE044308F10068BBF130
S3251004E740010BA4D14FEA1860039911F007060ED04FEA006B009550460223194607EB1B6223
S3251004E760FFF750FE04430BF1807B013EF2D15FEA09600AD02A4650460221FFF712FE2043DD
S3251004E78004E042F20204C0F2AA04204604B0BDE8F08F10B540F20000C4F26200FFF71BFB88
S3251004E7A041F20424C0F60104224640F2E841C1F2080140F20000C4F26200FFF769FA49F2CC
S3251004E7C08062C0F2980241F68021C0F2060140F20000C4F26200FFF775FB00206064044682
S3251004E7E0C4F26204206840F00040206010BD01228A40D0F818171143C0F8181770470122A5
S3251004E8008A40D0F808171143C0F808177047016841F00041016070474069704700EB4112BA
