S00F0000655F6B61345F70655F77000022
S3251004800002480349016000F0B7BF000008ED00E000840410FFFFFFFFFFFFFFFFFFFFFFFF88
S32510048020FFFFFFFFFFFFFFFFFFFFFFFFFFFFFFFFFFFFFFFFFFFFFFFFFFFFFFFFFFFFFFFF46
S32510048040FFFFFFFFFFFFFFFFFFFFFFFFFFFFFFFFFFFFFFFFFFFFFFFFFFFFFFFFFFFFFFFF26
S32510048060FFFFFFFFFFFFFFFFFFFFFFFFFFFFFFFFFFFFFFFFFFFFFFFFFFFFFFFFFFFFFFFF06
S32510048080FFFFFFFFFFFFFFFFFFFFFFFFFFFFFFFFFFFFFFFFFFFFFFFFFFFFFFFFFFFFFFFFE6
S325100480A0FFFFFFFFFFFFFFFFFFFFFFFFFFFFFFFFFFFFFFFFFFFFFFFFFFFFFFFFFFFFFFFFC6
S325100480C0FFFFFFFFFFFFFFFFFFFFFFFFFFFFFFFFFFFFFFFFFFFFFFFFFFFFFFFFFFFFFFFFA6
S325100480E0FFFFFFFFFFFFFFFFFFFFFFFFFFFFFFFFFFFFFFFFFFFFFFFFFFFFFFFFFFFFFFFF86
S32510048100FFFFFFFFFFFFFFFFFFFFFFFFFFFFFFFFFFFFFFFFFFFFFFFFFFFFFFFFFFFFFFFF65
S32510048120FFFFFFFFFFFFFFFFFFFFFFFFFFFFFFFFFFFFFFFFFFFFFFFFFFFFFFFFFFFFFFFF45
S32510048140FFFFFFFFFFFFFFFFFFFFFFFFFFFFFFFFFFFFFFFFFFFFFFFFFFFFFFFFFFFFFFFF25
S32510048160FFFFFFFFFFFFFFFFFFFFFFFFFFFFFFFFFFFFFFFFFFFFFFFFFFFFFFFFFFFFFFFF05
S32510048180FFFFFFFFFFFFFFFFFFFFFFFFFFFFFFFFFFFFFFFFFFFFFFFFFFFFFFFFFFFFFFFFE5
S325100481A0FFFFFFFFFFFFFFFFFFFFFFFFFFFFFFFFFFFFFFFFFFFFFFFFFFFFFFFFFFFFFFFFC5
S325100481C0FFFFFFFFFFFFFFFFFFFFFFFFFFFFFFFFFFFFFFFFFFFFFFFFFFFFFFFFFFFFFFFFA5
S325100481E0FFFFFFFFFFFFFFFFFFFFFFFFFFFFFFFFFFFFFFFFFFFFFFFFFFFFFFFFFFFFFFFF85
S32510048200FFFFFFFFFFFFFFFFFFFFFFFFFFFFFFFFFFFFFFFFFFFFFFFFFFFFFFFFFFFFFFFF64
S32510048220FFFFFFFFFFFFFFFFFFFFFFFFFFFFFFFFFFFFFFFFFFFFFFFFFFFFFFFFFFFFFFFF44
S32510048240FFFFFFFFFFFFFFFFFFFFFFFFFFFFFFFFFFFFFFFFFFFFFFFFFFFFFFFFFFFFFFFF24
S32510048260FFFFFFFFFFFFFFFFFFFFFFFFFFFFFFFFFFFFFFFFFFFFFFFFFFFFFFFFFFFFFFFF04
S32510048280FFFFFFFFFFFFFFFFFFFFFFFFFFFFFFFFFFFFFFFFFFFFFFFFFFFFFFFFFFFFFFFFE4
S325100482A0FFFFFFFFFFFFFFFFFFFFFFFFFFFFFFFFFFFFFFFFFFFFFFFFFFFFFFFFFFFFFFFFC4
S325100482C0FFFFFFFFFFFFFFFFFFFFFFFFFFFFFFFFFFFFFFFFFFFFFFFFFFFFFFFFFFFFFFFFA4
S325100482E0FFFFFFFFFFFFFFFFFFFFFFFFFFFFFFFFFFFFFFFFFFFFFFFFFFFFFFFFFFFFFFFF84
S32510048300FFFFFFFFFFFFFFFFFFFFFFFFFFFFFFFFFFFFFFFFFFFFFFFFFFFFFFFFFFFFFFFF63
S32510048320FFFFFFFFFFFFFFFFFFFFFFFFFFFFFFFFFFFFFFFFFFFFFFFFFFFFFFFFFFFFFFFF43
S32510048340FFFFFFFFFFFFFFFFFFFFFFFFFFFFFFFFFFFFFFFFFFFFFFFFFFFFFFFFFFFFFFFF23
S32510048360FFFFFFFFFFFFFFFFFFFFFFFFFFFFFFFFFFFFFFFFFFFFFFFFFFFFFFFFFFFFFFFF03
S32510048380FFFFFFFFFFFFFFFFFFFFFFFFFFFFFFFFFFFFFFFFFFFFFFFFFFFFFFFFFFFFFFFFE3
S325100483A0FFFFFFFFFFFFFFFFFFFFFFFFFFFFFFFFFFFFFFFFFFFFFFFFFFFFFFFFFFFFFFFFC3
S325100483C0FFFFFFFFFFFFFFFFFFFFFFFFFFFFFFFFFFFFFFFFFFFFFFFFFFFFFFFFFFFFFFFFA3
S325100483E0FFFFFFFFFFFFFFFFFFFFFFFFFFFFFFFFFFFFFFFFFFFFFFFFFFFFFFFFFFFFFFFF83
S3251004840000A400080080041081090810C9080810C9080810C9080810C90808102D0908106E
S325100484202D0908102D0908102D090810910708102D0908102D0908102D0908108D050810F4
S325100484408D0508108D0508108D0508108D0508108D0508108D0508108D0508108D050810B2
S325100484608D0508108D0508108D0508108D0508108D0508108D0508108D0508108D05081092
S325100484802D0908102D0908102D0908102D0908102D0908102D0908102D0908102D09081052
S325100484A02D0908102D0908102D0908102D0908102D0908102D0908102D0908102D09081032
S325100484C02D0908102D0908102D0908102D0908102D0908102D0908102D0908102D09081012
S325100484E02D0908102D0908102D0908102D0908102D0908102D0908102D0908102D090810F2
S325100485002D0908102D0908102D0908102D0908102D0908102D0908102D0908102D090810D1
S325100485202D0908102D0908102D0908102D0908102D0908102D0908102D0908102D090810B1
S325100485402D0908102D0908102D0908102D0908102D0908102D0908102D0908102D09081091
S325100485602D0908102D0908102D0908102D0908102D0908102D0908102D0908102D09081071
S325100485802D0908102D0908102D0908102D0908102D0908102D0908102D0908102D09081051
S325100485A02D0908102D0908102D0908102D0908102D0908102D0908102D0908102D09081031
S325100485C02D0908102D0908102D0908102D0908102D0908102D0908102D0908102D09081011
S325100485E02D0908102D0908102D0908102D0908102D0908102D0908102D0908102D090810F1
S325100486002D0908102D0908102D0908102D0908102D0908102D0908102D0908102D090810D0
S325100486202D0908102D0908102D0908102D0908102D0908102D0908102D0908102D090810B0
S325100486402D0908102D0908102D0908102D0908102D0908102D0908102D0908102D09081090
S325100486602D0908102D0908102D0908102D0908102D0908102D0908102D0908102D09081070
S325100486802D0908102D0908102D0908102D0908102D0908102D0908102D0908102D09081050
S325100486A02D0908102D0908102D0908102D0908102D0908102D0908102D0908102D09081030
S325100486C02D0908102D0908102D0908102D0908102D0908102D0908102D0908102D09081010
S325100486E02D0908102D0908102D0908102D0908102D0908102D0908102D0908102D090810F0
S325100487002D0908102D0908102D0908102D0908102D0908102D0908102D0908102D090810CF
S325100487202D0908102D0908102D0908102D0908102D0908102D0908102D0908102D090810AF
S325100487402D0908102D0908102D0908102D0908102D0908102D0908102D0908102D0908108F
S325100487602D0908102D0908102D0908102D0908102D0908102D0908102D0908102D0908106F
S325100487802D0908102D0908102D0908102D0908102D0908102D0908102D0908102D0908104F
S325100487A02D0908102D0908102D0908102D0908102D0908102D0908102D0908102D0908102F
S325100487C02D0908102D0908102D0908102D0908102D0908102D0908102D0908102D0908100F
S325100487E02D0908102D0908102D0908102D0908102D0908102D0908102D090810FFFFFFFF41
S3251004880002000001000000FF17042020FFFFFFFFC0230200008004100F880410008D041020
S32510048820FFFF2010FFFFFFFFFFFFFFFFFFFFFFFFFFFFFFFFFFFFFFFFFFFFFFFFFFFFFFFF0C
S32510048840FFFFFFFFFFFFFFFFFFFFFFFFFFFFFFFFFFFFFFFFFFFFFFFFFFFFFFFFFFFFFFFF1E
S32510048860FFFFFFFFFFFFFFFFFFFFFFFFFFFFFFFFFFFFFFFFFFFFFFFFFFFFFFFFFFFFFFFFFE
S32510048880FFFFFFFFFFFFFFFFFFFFFFFFFFFFFFFFFFFFFFFFFFFFFFFFFFFFFFFFFFFFFFFFDE
S325100488A0FFFFFFFFFFFFFFFFFFFFFFFFFFFFFFFFFFFFFFFFFFFFFFFFFFFFFFFFFFFFFFFFBE
S325100488C0FFFFFFFFFFFFFFFFFFFFFFFFFFFFFFFFFFFFFFFFFFFFFFFFFFFFFFFFFFFFFFFF9E
S325100488E0FFFFFFFFFFFFFFFFFFFFFFFFFFFFFFFFFFFFFFFFFFFFFFFFFFFFFFFFFFFFFFFF7E
S32510048C000000020000800410FF880410008C0410FFFF2010FFFFFFFFFFFFFFFFFFFFFFFF47
S32510048C20FFFFFFFFFFFFFFFFFFFFFFFFFFFFFFFFFFFFFFFFFFFFFFFFFFFFFFFFFFFFFFFF3A
S32510048C40FFFFFFFFFFFFFFFFFFFFFFFFFFFFFFFFFFFFFFFFFFFFFFFFFFFFFFFFFFFFFFFF1A
S32510048C60FFFFFFFFFFFFFFFFFFFFFFFFFFFFFFFFFFFFFFFFFFFFFFFFFFFFFFFFFFFFFFFFFA
S32510048C80FFFFFFFFFFFFFFFFFFFFFFFFFFFFFFFFFFFFFFFFFFFFFFFFFFFFFFFFFFFFFFFFDA
S32510048CA0FFFFFFFFFFFFFFFFFFFFFFFFFFFFFFFFFFFFFFFFFFFFFFFFFFFFFFFFFFFFFFFFBA
S32510048CC0FFFFFFFFFFFFFFFFFFFFFFFFFFFFFFFFFFFFFFFFFFFFFFFFFFFFFFFFFFFFFFFF9A
S32510048CE0FFFFFFFFFFFFFFFFFFFFFFFFFFFFFFFFFFFFFFFFFFFFFFFFFFFFFFFFFFFFFFFF7A
S32510048D00FFFFFFFFFFFFFFFFFFFFFFFFFFFFFFFFFFFFFFFFFFFFFFFFFFFFFFFFFFFFFFFF59
S32510048D2030B40346104600248C420FD244F6C825C1F20C0513F8012B42401206D20D525B7B
S32510048D4082EA102080B201348C42F3D330BC70472DE9F00C01004FF0010000F0A1800C68E7
S32510048D60002C00F09D8065884FF6FF718D4218BF002D00F0958034F8091C0023AB4280F055
S32510048D808B8004EBC3067268B668B2F1FF3F1CBF002A964203D822888A427FD080E0B61A70
S32510048DA006F1010C5FEADC075DD044F6C826C1F20C0632F808AB8AEA010B4FEA0B6B4FEA0A
S32510048DC0DB5B3BF806B08BEA212181EA1A2A4FEA0A6A4FEADA5A3AF806B032F806AC8BEAA1
S32510048DE021218AEA010B4FEA0B6B4FEADB5B3BF806B08BEA212181EA1A2A4FEA0A6A4FEA44
S32510048E00DA5A3AF806B032F804AC8BEA21218AEA010B4FEA0B6B4FEADB5B3BF806B08BEA8F
S32510048E20212181EA1A2A4FEA0A6A4FEADA5A3AF806B032F802AC8BEA21218AEA010B4FEADD
S32510048E400B6B4FEADB5B3BF806B08BEA212181EA1A2A4FEA0A6A4FEADA5A3AF806A08AEA5E
S32510048E602121013FA5D11CF0070611D044F6C827C1F20C0712F801CB8CEA010C4FEA0C6CED
S32510048E804FEADC5C3CF807C08CEA2121013EF1D10133AB42FFF475AF22888A4208BF0020FE
S32510048EA0BDE8F00C70472DE9F0444EF2AC06C0F6000600214FF4887040F0FAFE44F28050BE
S32510048EC0C1F20C000024057B3470AC420FD22746D0F808A0380E0AEBC000FFF739FF08B1E3
S32510048EE00124347007F18077B5EB176FF2D80CB90220307000F0E6F801214FF48870BDE859
S32510048F00F04440F0D5BEFFF7CEBFF0B54EF2AC06C0F60006022044F28051C1F20C013070E1
S32510048F200C790025A54228BFF0BD0F68280E07EBC000FFF70DFF08B10120307005F180752C
S32510048F40B4EB156FF2D8F0BD00B546F0FBF9002814BF0420032000BD4EF2AC01C0F60001DB
S32510048F600878022808BF7047003818BF0120704701808FE218FF2FE106460F4690460EF03A
S32510048F8079FD4FF014004FF001013DF07DFA48F69F75C1F20405A5F101057A46A2EB050508
S32510048FA09146002803D131463A4643460AE04AF20040C0F6000085464FF000014FF00002DC
S32510048FC04FF0000340F20200012817D308D04EF68850CEF20000046844F4700404600DE0D1
S32510048FE011EE500F40F4A00001EE500FBFF36F8FF8EE100A40F08040E8EE100A4FF0000404
S3251004900048F20040C1F20400814506DB40F20000C1F22100814500DC2C4640F68420C1F2B7
S325100490200800A0EB040000EB05004FF000044FF000054FF0000636F03BFF00BFFDE70000C0
S3251004904075F06ABF75F092BF002800D0022805F0B5A57047022808BF00200CF000830128D1
S3251004906018BF704700200CF0FEBA00B5002045F0A5FD002045F086FD40F29061C0F6010115
S325100490800020087000BD00B500200CF0E8FA022045F094FD022045F075FD40F29061C0F624
S325100490A001010020087000BD40F29E61C0F6010101200870704740F29E61C0F601010220FB
S325100490C0087070477047012070470CF0CFBB2DE9F04C0025012640F2A06B40F2A46AC0F661
S325100490E0010AC0F6010BDAF8000040F21874C0F6010410F0010F0ED020F0010194F8400072
S32510049100CAF8001084F8410084F84050084611F0020F10D027E0DBF8000010F0010F1BD085
S3251004912094F8400084F84100DAF8000084F8406010F0020F17D1DBF8000010F0020F3DD0B4
S3251004914094F8420084F84300DAF8000084F8426010F0040F15D038E020786070DAF800002E
S3251004916010F0020FE7D020F0020194F84200CAF8001084F8430084F84250084611F0040F2B
S3251004918023D1DBF8000040F2B867C0F6010710F0040F46D094F8440084F8450097F82E0068
S325100491A084F8446087F82F0004F0ADFC87F82E00DAF8000010F0080F22D043E0A078E07017
S325100491C0DAF8000010F0040FDBD020F00400CAF8000094F8440040F2B867C0F6010784F8B4
S325100491E0450097F82E0084F8445087F82F0004F08AFC87F82E00DAF8000010F0080F21D193
S32510049200DBF8000010F0080F3BD094F8460084F84700DAF8000084F8466010F0100F1FD0A8
S3251004922038E020796071A079E07197F82E0087F82F0004F068FC87F82E00DAF8000010F0E6
S32510049240080FDDD020F0080194F84600CAF8001084F8470084F84650084611F0100F19D146
S32510049260DBF8000010F0100F33D094F8480084F84900DAF8000084F8486010F0200F17D03A
S325100492802EE020896081207B6073DAF8000010F0100FE5D020F0100194F84800CAF8001041
S325100492A084F8490084F84850084611F0200F17D1DBF8000010F0200F31D094F84A0084F800
S325100492C04B00DAF8000084F84A6010F0400F15D02CE0A07BE073DAF8000010F0200FE7D0CB
S325100492E020F0200194F84A00CAF8001084F84B0084F84A50084611F0400F17D1DBF8000045
S3251004930010F0400F31D094F84C0084F84D00DAF8000084F84C6010F0800F15D02CE0207C2C
S325100493206074DAF8000010F0400FE7D020F0400194F84C00CAF8001084F84D0084F84C508B
S32510049340084611F0800F17D1DBF8000010F0800F31D094F84E0084F84F00DAF8000084F8D7
S325100493604E6010F4807F15D02CE0A07CE074DAF8000010F0800FE7D020F0800194F84E003E
S32510049380CAF8001084F84F0084F84E50084611F4807F17D1DBF8000010F4807F31D094F85F
S325100493A0500084F85100DAF8000084F8506010F4007F15D02CE0207D6075DAF8000010F4BC
S325100493C0807FE7D020F4807194F85000CAF8001084F8510084F85050084611F4007F17D167
S325100493E0DBF8000010F4007F31D094F8520084F85300DAF8000084F8526010F4806F15D077
S325100494002CE0A07DE075DAF8000010F4007FE7D020F4007194F85200CAF8001084F85300A4
S3251004942084F85250084611F4806F17D1DBF8000010F4806F31D094F8540084F85500DAF880
S32510049440000084F8546010F4006F15D02CE0207E6076DAF8000010F4806FE7D020F4806179
S3251004946094F85400CAF8001084F8550084F85450084611F4006F17D1DBF8000010F4006F3F
S3251004948031D094F8560084F85700DAF8000084F8566010F4805F15D02CE0A07EE076DAF8DE
S325100494A0000010F4006FE7D020F4006194F85600CAF8001084F8570084F85650084611F4F7
S325100494C0805F17D1DBF8000010F4805F31D094F8580084F85900DAF8000084F8586010F431
S325100494E0005F15D02CE0207F6077DAF8000010F4805FE7D020F4805194F85800CAF8001085
S3251004950084F8590084F85850084611F4005F17D1DBF8000010F4005F34D094F85A0084F802
S325100495205B00DAF8000084F85A6010F4804F15D035E0A07FE077DAF8000010F4005FE7D07F
S3251004954020F4005194F85A00CAF8001084F85B0084F85A50084611F4804F20D1DBF80000F1
S3251004956010F4804F40D094F85C0084F85D0040F2AC60C0F60100016884F85C6011F0010F86
S325100495801FD049E094F8200084F8210094F8220084F82300DAF8000010F4804FDED020F49C
S325100495A08040CAF8000094F85C0084F85D0040F2AC60C0F60100016884F85C5011F0010FB7
S325100495C02AD140F2A862C0F60102116811F0010F42D094F85E1084F85F10016884F85E605D
S325100495E011F0020F25D03FE094F8240084F8250094F8280084F8290094F82A0084F82B0024
S3251004960094F8260084F8270040F2AC60C0F60100016811F0010FD4D021F0010294F85E10BA
S32510049620026084F85F1084F85E50114612F0020F1AD140F2A862C0F60102116811F0020FC4
S3251004964032D094F8601084F86110016884F8606011F0040F15D02FE094F82C1084F82D10D7
S32510049660016811F0020FE4D021F0020294F86010026084F8611084F86050114612F0040FA9
S325100496801AD140F2A862C0F60102116811F0040F32D094F8621084F86310016884F86260AD
S325100496A011F0080F15D02FE094F82E1084F82F10016811F0040FE4D021F0040294F86210B9
S325100496C0026084F8631084F86250114612F0080F1AD140F2A862C0F60102116811F0080F10
S325100496E032D094F8641084F86510016884F8646011F0100F15D02FE094F8301084F8311017
S32510049700016811F0080FE4D021F0080294F86410026084F8651084F86450114612F0100FE4
S325100497201AD140F2A862C0F60102116811F0100F2FD094F8661084F86710016884F86660F7
S3251004974011F0200F15D02CE094F8321084F83310016811F0100FE4D021F0100294F86610DF
S32510049760026084F8671084F86650114612F0200F17D140F2A861C0F60101086810F0200F46
S325100497801AD094F8680084F8690084F86860BDE8F08C94F8341084F83510016811F0200F5D
S325100497A0E7D021F02001016094F8680084F8690084F86850BDE8F08C94F8360084F83700A2
S325100497C0BDE8F08C30B540F2A871C0F601010B78012B04D14878FF283CBF0130487040F2E5
S325100497E0187040F2B062C0F60102C0F601001468002514F0010F15D024F00103136090F866
S325100498003A004D7038B101200870184613F0040F08BF30BD27E00870184613F0040F08BFD3
S3251004982030BD20E0012B02D14B78322B0DD290F8383090F83A1080F8393080F83B10106845
S3251004984010F0040F08BF30BD0DE080F8385080F83A5080F8395080F83B5010680D8010F02F
S32510049860040F08BF30BD20F00400106040F2AC70C0F60100811C0630BDE8304045F00CBD98
S3251004988030B400240D46EB0815D001464FF0FF32DC0001F8082B01F8072C01F8062C01F86C
S325100498A0052C01F8042C01F8032C01F8022C01F8012C013BEDD115F0070106D020184FF06B
S325100498C0FF3200F8012B0139FBD130BC704770B400251646F40824D002460B46E50012F853
S325100498E008CB03F808CB12F807CC03F807CC12F806CC03F806CC12F805CC03F805CC12F8A8
S3251004990004CC03F804CC12F803CC03F803CC12F802CC03F802CC12F801CC03F801CC013C72
S32510049920DDD116F0070207D02818691810F8013B01F8013B013AF9D170BC7047F0B500EBC7
S32510049940C00042F66C41C0F6010101EB80046169201D8847A1786071012904D300F095805A
S325100499600020A070F0BD002818BFF0BD2079012808BFF0BD052840D1A668E7684FF0FF3005
S32510049980E070257C0020EB0824D031463A46D80011F808CB02F808CB11F807CC02F807CC94
S325100499A011F806CC02F806CC11F805CC02F805CC11F804CC02F804CC11F803CC02F803CCFD
S325100499C011F802CC02F802CC11F801CC02F801CC013BDDD115F007014DD08219C01912F89F
S325100499E0013B00F8013B0139F9D1E169E0688847E071002818BFF0BD44E02078002808BFD0
S32510049A00F0BD002121704FF0FF30E070E668257CA768EB0824D030463A46D90010F808CB80
S32510049A2002F808CB10F807CC02F807CC10F806CC02F806CC10F805CC02F805CC10F804CC75
S32510049A4002F804CC10F803CC02F803CC10F802CC02F802CC10F801CC02F801CC013BDDD15E
S32510049A6015F0070007D08A19C91912F8013B01F8013B0138F9D1E169E0688847E07100280C
S32510049A8018BFF0BD0120A070F0BD207902281CBF0020A070F0BD10B542F60844C0F60104CB
S32510049AA02078FFF74BFF227842F66C4102EBC200C0F6010101EB8000C078C0B9501CC0B2D3
S32510049AC007280ED02070C87880B341F21C00C0F601000178417000210170BDE8104045F070
S32510049AE0B5B800202070C8780028EED11EE001281CBF032805280FD16078013804D3607016
S32510049B00C8780028E1D111E003206070501C2070C8780028D9D109E004381CBF02380228BB
S32510049B209CBF07202070C8780028CED191F827000028CAD191F84B000028C6D191F86F00F4
S32510049B400028C2D191F893000028BED191F8B7000028BAD191F8DB000028B6D141F21C0008
S32510049B60C0F60100017841700121017045F06EF8BDE8104000F0AEBFF0B500EBC00042F6E2
S32510049B806C43C0F6010303EB8003DA70062918BF0C2940F0A480012A18BF032A61D1DF6850
S32510049BA01D7C0024EA0815D038464FF0FF31D40000F8081B00F8071C00F8061C00F8051CCD
S32510049BC000F8041C00F8031C00F8021C00F8011C013AEDD115F0070006D0E1194FF0FF32CC
S32510049BE001F8012B0138FBD19E681D7CDF68EC0824D031463A46E00011F808CB02F808CBD3
S32510049C0011F807CC02F807CC11F806CC02F806CC11F805CC02F805CC11F804CC02F804CC92
S32510049C2011F803CC02F803CC11F802CC02F802CC11F801CC02F801CC013CDDD115F0070135
S32510049C4000F0AB808219C01912F801CB00F801CB0139F9D1012018705878012818BFF0BD97
S32510049C60A1E0052A40F09B809E68DF681D7C0020EC0824D031463A46E00011F808CB02F834
S32510049C8008CB11F807CC02F807CC11F806CC02F806CC11F805CC02F805CC11F804CC02F80F
S32510049CA004CC11F803CC02F803CC11F802CC02F802CC11F801CC02F801CC013CDDD115F0ED
S32510049CC007016CD08219C01912F801CB00F801CB0139F9D15878012818BFF0BD63E0072924
S32510049CE05DD1012A5BD1DF681D7C0024EA0815D038464FF0FF31D40000F8081B00F8071CF3
S32510049D0000F8061C00F8051C00F8041C00F8031C00F8021C00F8011C013AEDD115F0070097
S32510049D2006D0E1194FF0FF3201F8012B0138FBD19E681D7CDF68EC0824D031463A46E000FA
S32510049D4011F808CB02F808CB11F807CC02F807CC11F806CC02F806CC11F805CC02F805CC4B
S32510049D6011F804CC02F804CC11F803CC02F803CC11F802CC02F802CC11F801CC02F801CC49
S32510049D80013CDDD115F0070107D08219C01912F801CB00F801CB0139F9D10120187058784F
S32510049DA0012818BFF0BD00205870196AD878BDE8F040084742F66C43C0F6010300EBC000B1
S32510049DC003F8201003EB8000C2607047704770477047704770477047704710B440F6B874D0
S32510049DE0C0F601042078552842D1AA2040F6D471C0F6010120700878FF2845D0AA2804BF88
S32510049E004FF0FF300870207AFF2842D0AA2804BF4FF0FF30207240F6E471C0F60101087817
S32510049E20FF283FD0AA2804BF4FF0FF300870207CFF283CD0AA2804BF4FF0FF30207440F6BB
S32510049E40FC71C0F601010878FF2839D0AA2804BF4FF0FF30087041F20C01C0F60101087820
S32510049E60FF2836D0CC2804BF4FF0FF30087032E0AA2804BF4FF0FF30207040F6D471C0F628
S32510049E8001010878FF28B9D1AA200870207AFF28BCD1AA2040F6E471C0F6010120720878C6
S32510049EA0FF28BFD1AA200870207CFF28C2D1AA2040F6FC71C0F6010120740878FF28C5D143
S32510049EC0AA20087041F20C01C0F601010878FF28C8D1CC200870207E42F66C4200EBC0005B
S32510049EE0C0F60102012302F8203002EB8000C160207E01302076207E072804BF00202076E8
S32510049F0010BC7047704740F6B872C0F60102115401210020FFF74EBF40F6D472C0F60102F5
S32510049F20115401210846FFF745BF40F6C072C0F60102115401210220FFF73CBF40F6E472F1
S32510049F40C0F60102115401210320FFF733BF40F6C872C0F60102115401210420FFF72ABFE9
S32510049F6040F6B871C0F60101085C704740F6D471C0F60101085C704740F6C071C0F6010128
S32510049F80085C704740F6E471C0F60101085C704740F6C871C0F60101085C704740F6B8728C
S32510049FA0C0F601024FF0FF301060506001210020FFF700BF40F6D472C0F601024FF0FF30A6
S32510049FC0106050609060D06001210846FFF7F2BE40F6C072C0F601024FF0FF301060506062
S32510049FE001210220FFF7E6BE40F6E472C0F6010210460323FF2100F8081B00F8071C00F85A
S3251004A000061C00F8051C00F8041C00F8031C00F8021C00F8011C013BEDD101210320FFF75C
S3251004A020C9BE40F6C872C0F601024FF0FF301060506001210420FFF7BDBE10B540F2B86002
S3251004A040C0F6010090F8301080F83110002480F8304003F003FE204603F00DFE40F28C701C
S3251004A060C0F6010001794171047110BD002070477047704740F2B862C0F6010292F8281095
S3251004A080012915D130B540F6BC2541F23404C0F60104C1F20805206829460BF08BF92060BE
S3251004A0A029460BF077F920600120BDE8304070470020704710B5012003F0DDFD40F2B8606B
S3251004A0C0C0F6010090F8301080F83110142480F83040204603F0B7FD204603F0C1FD40F2B8
S3251004A0E08C70C0F60100017941710121017110BD40F6D42041F23401C0F60101C1F2080001
S3251004A100086070477047704740F2B862C0F6010292F82810A9B930B540F6A42541F2340420
S3251004A120C0F60104C1F20805206829460BF042F9206029460BF02EF920600120BDE8304096
S3251004A14070470020704700B540F2B861C0F6010191F8300081F83100142081F8300003F06C
S3251004A1602CFD03F07DFD00BD002070477047704740F21872C0F601020020118940F2FF13BA
S3251004A180994208BF70470A2924BF117D032918BF704730B540F6EC2541F23404C0F601049C
S3251004A1A0C1F20805206829460BF004F9206029460BF0F0F820600120BDE83040704700B5E2
S3251004A1C040F2B861C0F6010191F8300081F83100322081F8300003F0F0FC03F041FD00BD37
S3251004A1E0002070477047704730B540F21872C0F601020020118941F23404C0F60104052998
S3251004A20001D3127D72B940F6D425C1F20805206829460BF0CFF8206029460BF0BBF82060D1
S3251004A220012030BD372938BF30BD40F60435C1F20805206829460BF0BDF8206029460BF0F2
S3251004A240A9F82060012030BD00B540F2B861C0F6010191F8300081F83100462081F830008B
S3251004A26003F0ABFC03F0FCFC00BD002070477047704730B540F21872C0F601020020118929
S3251004A28041F23404C0F60104052901D3127D72B940F6D425C1F20805206829460BF08AF85F
S3251004A2A0206029460BF076F82060012030BD2D290ED240F6EC25C1F20805206829460BF06F
S3251004A2C079F8206029460BF065F82060012030BD642938BF30BD40F61C35C1F208052068DE
S3251004A2E029460BF067F8206029460BF053F82060012030BD00B540F2B861C0F6010191F877
S3251004A300300081F831005A2081F8300003F055FC03F0A6FC00BD002070477047704730B566
S3251004A32040F21872C0F601020020118941F23404C0F60104052901D3127D72B940F6D425C3
S3251004A340C1F20805206829460BF034F8206029460BF020F82060012030BD5A2928BF30BD1E
S3251004A36040F60435C1F20805206829460BF022F8206029460BF00EF82060012030BD10B545
S3251004A38041F23404C0F60104207901280DD028BF10BD40F6A421C1F20801216008460AF0AA
S3251004A3A0F9FF20600120207110BD2068BDE810400BF016B830B542F68055C0F6010541F265
S3251004A3C04404C0F6010442F2107370B9284601220A2104F0B6FD40F2B861C0F6010120609A
S3251004A3E00A7F60B34A7701202BE001280ED105F10C0001220A2104F0A4FD40F2B861C0F6CC
S3251004A400010120600A7F0028ECD118E0022808D040F2B861C0F6010120680A7F0028E1D14A
S3251004A4200DE005F1180001220A2104F08AFD40F2B861C0F6010120600A7F0028D2D12060E7
S3251004A4404877087730BDF0B50E461F4641F24405C0F6010542F210731146012204F071FD8E
S3251004A460286040F2B864C0F6010460B9207F607742F210730020207739463046012204F028
S3251004A480F8FD286030B10120217F2077617700203080F0BD217F61772077F0BD00B581B0F5
S3251004A4A040F63431C1F208010A788DF801204A780DF101008DF80220897842F210738DF85E
S3251004A4C003100122032104F03CFD41F24401C0F60101086000280CBF0120002001B000BDA1
S3251004A4E070B581B041F23C04C0F601042178012906D160884FF6FF7290423CBF01306080A8
S3251004A50040F2B865C0F6010595F82600002610280FD12079E0B90120FFF74CFF6671A671A3
S3251004A52026700120207195F82600668020280FD148E0202819D16079002844D1FFF73AFF59
S3251004A54026710121617195F82600A671202839D06088C82843D395F8200042283DD13046B2
S3251004A560FFF728FF2670668039E0402804BFA0790028EDD1012241F25000C0F6010040F652
S3251004A5803431C1F2080102720B788DF801304B788DF8023089780DF101008DF8031042F28D
S3251004A5A01073032104F0CDFCA0600220FFF702FF267166710121A171267095F82600668033
S3251004A5C02028C5D121780029C2D195F820004228BED101202070668001E02670668001B0E3
S3251004A5E070BDF0B542F66854C0F60104FFF778FF40F2B866C0F6010696F826000127402802
S3251004A60018D1214604F114003B460222FFF71BFF207810F00300032841F25001C0F6010110
S3251004A6200CBF01200020887641F24800C0F601000770F0BD41F25005C0F601052878014675
S3251004A64006286CD80FF20402D2E801F069046C14223D6C0021463B46601D0222FFF7F3FE94
S3251004A660207842285DD828722878AF70072828BFF0BD5AE021463B46E01D0222FFF7E3FE53
S3251004A6802078A87228782F71072828BFF0BD4CE0214604F10C003B460422FFF7D4FE208840
S3251004A6A0688296F828106F71012905D1E8822878072828BFF0BD38E00020E88228780728B2
S3251004A6C028BFF0BD31E0214604F110003B460422FFF7B9FE208841F29411884210D3217934
S3251004A6E003290DD80131217196F82800AF7101280ED0002028832878072828BFF0BD14E06C
S3251004A70000212171A88296F82800AF710128F0D1A88A28832878072828BFF0BD05E02F70BE
S3251004A720F0BD2878072828BFF0BD01302870F0BD41F29401C0F601010878013805D341F235
S3251004A7409401C0F601010870704741F24901C0F60101087800283FF444AF704741F2500026
S3251004A760C0F601000021C0F80110A0F8051041F24803C0F60103C171197001728222828164
S3251004A78081724FF448724282416101838176704741F25001C0F601018878002818BF087A5A
S3251004A7A0704741F25001C0F60101C878002818BF487A704741F24801C0F6010108780028F8
S3251004A7C008BF704741F25001C0F60101887E704741F25001C0F601010879002818BF887A2A
S3251004A7E0704741F25001C0F601014879002818BF488A704741F25001C0F60101887900289E
S3251004A80018BF888A704741F25000C0F60100417949B140F2B862C0F6010292F8281001299F
S3251004A82004BFC08A70470020704741F25000C0F60100817949B140F2B862C0F6010292F8A6
S3251004A8402810012904BF008B70470020704741F25000C0F60100C179002914BF8089822085
S3251004A86070475D2241210138C0B2032869D220B942F6C250C0F60100028800210E2340F629
S3251004A8803830C1F20800B0F800C0624504D308001CBF0139C8B27047B0F802C0624505D35E
S3251004A8A001310EBF08460139C8B27047B0F804C0624505D302310EBF08460139C8B2704722
S3251004A8C0B0F806C0624505D303310EBF08460139C8B27047B0F808C0624505D304310EBFC6
S3251004A8E008460139C8B27047B0F80AC0624505D305310EBF08460139C8B27047B0F80CC064
S3251004A900624505D306310EBF08460139C8B27047B0F80EC0624505D307310EBF084601395F
S3251004A920C8B27047B0F810C0624505D308310EBF08460139C8B2704712300931013BA2D1EB
S3251004A9407D210846704741F26C01C0F601010878704741F26C01C0F6010101200870704703
S3251004A96030B541F26C05C0F601052878002818BF30BD6978002979D1FFF7F2FA55283BD02E
S3251004A980FFF70CFBFFF716FBFFF722FBFFF72CFBFFF747FB55210020FFF7B5FA02210120B2
S3251004A9A0FFF7BAFA02210846FFF7B6FA02210320FFF7B2FA40F2B863C0F6010340F28C719E
S3251004A9C09879C0F60101D8718A7B0220987183F8440083F8450083F8460083F8470083F89E
S3251004A9E0480083F849008873012068702878CA73002818BF30BD3CE040F2B864C0F601044F
S3251004AA00A079E0710320FFF7B1FAA07194F8440084F845000120FFF7A9FA84F8440084F856
S3251004AA20450094F8460084F847000220FFF79EFA84F8460084F8470094F8480084F8490054
S3251004AA400320FFF793FA84F8480040F28C71C0F6010184F84900887BC873A0798873012053
S3251004AA6068702878002818BF30BD02E0012918BF30BD41F27E01C0F6010148783C2805D322
S3251004AA8041F28E01C0F601010878012818BF5FF0000030BD00B503F094FC40F2B860C0F62E
S3251004AAA00100017941710221017190F8501080F85110012180F8501090F8541080F8551036
S3251004AAC0002190F8562080F8541080F8572080F8561000BD41F27001C0F601011F200860D4
S3251004AAE0704741F27001C0F6010108787047704700B581B00DF1020001210AF00DFEBDF879
S3251004AB00020001B000BD00B581B00DF1020001210AF0FDFDBDF8020001B000BD00B581B0A4
S3251004AB200DF103000AF010FE9DF8030001B000BD00B581B00DF103000AF0FFFD9DF8030077
S3251004AB4001B000BD00B581B00DF103000AF0EEFD9DF8030001B000BD10B541F28004C0F669
S3251004AB600104A079012804D1E079FF283CBF0130E071FFF7E8FE0122618818B9A07921812E
S3251004AB8048BB54E040F2EF40814203D2A079227108BB4CE0B1F5A46F04D802202071A0796F
S3251004ABA0C8B944E0B1F5D06F04D203202071A07988B93CE040F2B260814204D2042020715F
S3251004ABC0A07940B933E040F64D4081420CD205202071A07958B32079E37A98422AD0E072DC
S3251004ABE0A2710020E07110BD40F67F40814205D206202071A0790028EDD118E040F6C8505F
S3251004AC00814205D207202071A0790028E3D10EE040F6FA50814205D208202071A0790028D1
S3251004AC20D9D104E009202071A0790028D3D1A271E07110BDE079032828BF218110BD10B4FE
S3251004AC4042F6AA54C0F6010441F28802C0F60102108840F2EF41884212D20120A0726073C5
S3251004AC6040F22150A08040F2B260E0800020A4F80B0040F67F40208140F6FA506080CBE0EB
S3251004AC80B0F5A46F15D8607B01280CBF40F221500846A08040F2B260E0800120A07200201E
S3251004ACA0A4F80B0040F67F40208140F6FA506080B2E0B0F5D06F0FD20120A07240F2B2600F
S3251004ACC0E0800020A081E07240F67F402081A18040F6FA5060809FE040F2B261884220D2D0
S3251004ACE0A07A01280DD10020A081E07240F2EF40A08040F67F402081E18040F6FA506080AE
S3251004AD008AE04FF4D060E0800020A081E07240F2EF40A08040F67F40208140F6FA506080D2
S3251004AD207AE040F64D4188420FD20020C4F80A0040F2EF40A0804FF4D060E08040F67F4001
S3251004AD40208140F6FA50608066E040F67F41884220D2207B01280FD140F64D4020810020B8
S3251004AD606073608140F2EF40A0804FF4D060E08040F6FA5060804FE000206073608140F21C
S3251004AD80EF40A0804FF4D060E080218140F6FA50608041E040F6C851884211D201202073A4
S3251004ADA040F64D40208100206073608140F2EF40A0804FF4D060E08040F6FA5060802BE082
S3251004ADC040F6FA51884215D2E07A01280CBF40F6C8500846608040F64D4020810120207345
S3251004ADE000206073A07240F2EF40A0804FF4D060E08011E040F64D40208101202073E07285
S3251004AE000020A072607340F6C85140F2EF40A08061804FF4D060E08010BC704730B40146E1
S3251004AE2042F6AA54C0F6010441F28805C0F601050120013909D30DD0022910D314D12888D4
S3251004AE40618888420FD300200EE02888A1888842F9D208E02888E1888842F4D203E02888A3
S3251004AE6021898842EFD2012030BC704730B4014642F6AA54C0F6010441F28805C0F6010527
S3251004AE800120013909D30DD0022910D314D12888618888420FD200200EE02888A18888429C
S3251004AEA0F9D308E02888E1888842F4D303E0288821898842EFD3012030BC704730B5022086
S3251004AEC0FFF7ACFF054640F2B864C0F6010401281DD1FFF7CBFF012819D194F8383084F809
S3251004AEE0393094F83A30002184F8381084F83B3094F83C2084F83A1084F83D2084F83C10BE
S3251004AF000320FFF78BFF054601281AD14DE075BB012294F8383084F8382084F8393094F85C
S3251004AF203A3084F83A2094F83C2084F83B3084F83D2084F83C500320FFF770FF054601280B
S3251004AF4033D0002D4AD1012294F83E3084F83E2084F83F3094F8403084F8402094F84220E4
S3251004AF6084F8413084F8432084F8425030BD0120FFF77CFF020012D1012194F8383084F8E7
S3251004AF80381084F8393094F83A3084F83A2094F83C2084F83B3084F83D2084F83C1003200B
S3251004AFA0FFF73CFF05460128CBD10020FFF75EFF0128C6D194F83E3084F83F3094F8403022
S3251004AFC0002184F83E1084F8413094F8422084F8401084F8432084F8421030BD0020FFF715
S3251004AFE045FF020018BF30BD012194F83E3084F83E1084F83F3094F8403084F8402094F8F8
S3251004B000422084F8413084F8432084F8421030BD70B441F27804C0F60104A079002301283A
S3251004B0200DD1E079FF280ED20130E071C0B23C2809D2607A6188002840F0B7807AE050B3D6
S3251004B040E0793C28F5D3607A012871D140F2B860C0F6010090F8521021B980F8531001214A
S3251004B06080F85210227904F128004FEA420C61882CF800100132D2B2642A28BF1A46227161
S3251004B080A28A914229D1227A0132D2B21E2A09D222720A2223E00120A071E3716372237175
S3251004B0A0618882E023720A25024622F8141B22F8121C22F8101C22F80E1C22F80C1C22F8A8
S3251004B0C00A1C22F8081C22F8061C22F8041C22F8021C013DE9D10A2201E023720A2230F856
S3251004B0E014CB634430F8126C30F810CC9B19634430F80E6C30F80CCC9B19634430F80A6C10
S3251004B10030F808CC9B19634430F8066C30F804CC9B1930F8026C63449B19013ADFD148F262
S3251004B1201F52C5F2EB12A3FB0220400960813CE06188D0BB22794FEA420C04F128002CF8F3
S3251004B14000100132D2B2642A38BF22712DD30122627223710A2230F814CB634430F8126CEB
S3251004B16030F810CC9B19634430F80E6C30F80CCC9B19634430F80A6C30F808CC9B19634464
S3251004B18030F8066C30F804CC9B1930F8026C63449B19013ADFD148F21F52C5F2EB12A3FB76
S3251004B1A00220400960810120A075A18270BC70472DE9F04842F6A654C0F6010441F29805E2
S3251004B1C0C0F60105A078002101280CD105F1D00CA388A4F80110A5F8D0308E4610F0070236
S3251004B1E000F0B480ABE06078012876D12078A388420005F1D00C22F80C300130C0B21E2828
S3251004B20028BF084620700322604630F8143BC91830F8124C30F8103C0919C91830F80E4CAD
S3251004B22030F80C3C0919C91830F80A4C30F8083C0919C91830F8064C30F8043C091930F868
S3251004B240024CC9180919013ADFD13CF8022B134660460446072734F808CB9C4538BF634640
S3251004B26034F806CC9C4538BF634634F804CC9C4538BF634634F802CC9C4538BF6346013FFD
S3251004B280E9D1B4F800C09C4538BF6346072630F808CB944588BF624630F806CC944588BFE3
S3251004B2A0624630F804CC944588BF624630F802CC944588BF6246013EE9D10088904288BFB4
S3251004B2C00246C91A891A880844F62511C2F29241A0FB01106880BDE8F088002818BFBDE8AA
S3251004B2E0F08805F1D00C2078A38842008E4622F80C300130C0B283465FEADB031CD0624694
S3251004B3004FEAC30E32F8107BC91932F80E6C32F80C7C8919C91932F80A6C32F8087C8919A8
S3251004B320C91932F8066C32F8047C891932F8026CC9198919013BE5D11BF0070206D00CEB3A
S3251004B3404E0333F802CB6144013AFAD1B1FBF0F1A9801E283CBF2070BDE8F088012060704A
S3251004B3602270BDE8F08810B441F29804C0F6010442F6A751C0F601010878002814BF60886B
S3251004B380A08810BC704730B441F27804C0F601042078012804D16178FF293CBF0131617005
S3251004B3A06288002140F2EF43D31A40F60C1C63450CD340F2B862C0F6010292F8320082F8F7
S3251004B3C03300022082F83200218024E040F22153D21A40F6A8039A421DD240F2B862C0F66D
S3251004B3E0010292F832300125022B08BF002802D1257061700FE0012808D1607812280AD9E3
S3251004B40082F8333082F83250218004E018B982F8333082F8325030BC704710B581B041F23E
S3251004B4207804C0F601040DF1020001210AF074F9BDF802006080FFF7EBFDA07D012805D1A1
S3251004B440FFF78AFBFFF7FBFBFFF738FD01B010BD00B581B00DF1020001210AF058F9BDF8BA
S3251004B460020042F6AA51C0F601010880FFF7A0FE01B000BD10B441F28804C0F60104A078E5
S3251004B480013805D30DD0012818D00020A07022E02088B0F5C86F15D340F6A44188421AD91D
S3251004B4A004E0208840F6A441884202D90220A07011E040F2AE6188420DD30AE02088B0F5E1
S3251004B4C0C86F02D20120A07005E040F63641884201D80020A07010BC704741F29801C0F6AC
S3251004B4E001010870704741F29801C0F60101087870472DE9F04C81B041F28805C0F6010547
S3251004B5000DF1020001210AF002F9AC7ABDF802B0012C04D1E87AFF283CBF0130E87295F8CF
S3251004B52008A0BAF1010F04D1687AFF283CBF01306872FFF728FF40F2B860C0F60100012764
S3251004B5400026BAF1000F0BD1BBF54D7F08D82F726E81044628886E72B0F5967F42D335E06B
S3251004B56064B940F296518B4508D3AF722E8104462888EE72B0F5967F34D327E0BAF1010F23
S3251004B5800ED1697A08290BD3044690F8360084F83700288884F83660B0F5967F22D315E09F
S3251004B5A0012C02D1E97A0A2905D204462888B0F5967F17D30AE0044690F8360084F83700C1
S3251004B5C0288884F83670B0F5967F0BD30DF101000AF0B3F89DF8010020B93846FDF775FDF0
S3251004B5E014202873617B207B012905D0012803D16073FFF7B3F8207B94F85A1084F85B1003
S3251004B60084F85A70012804BF287B002853D194F8200042F6BA5584F82100C0F60105FFF7AD
S3251004B620B7F884F82000FFF7E5F86880FFF7D9F8A88094F820000B2808D10320A17FA077E9
S3251004B64094F82600E17740281CD113E0012808D10220A17FA07794F82600E177402811D1CF
S3251004B66008E0422802D1A17FE177A67794F82600402807D194F8240084F82500FFF79AF82B
S3251004B68084F8240094F82800012810D1207841F2A411C0F601016070C878207001281CBF56
S3251004B6A0A078012803D1A07EE076A77606E0A07EE076A67602E0A07FE077A67701B0BDE889
S3251004B6C0F08C10B441F2A412C0F6010202EBC00002790024914208BFA0F8054024D08279BC
S3251004B6E00132D2B269B990F802C062450DD3847101224271027804718AB90122C270C17102
S3251004B70012E090F801C0624503D282714471C1710AE08471012242710278017112B9C470DE
S3251004B720C17101E0C170C17110BC70474AF61D31C1F20401C9B20020FFF7C3BF70B581B047
S3251004B74041F29405C0F6010540F2B864C0F6010494F828000026012819D10DF1030009F057
S3251004B760E5FF9DF80310687881420AD16888013080B264280FD3A078E0700120A0703046D5
S3251004B78009E0A078E0706970A670304603E0A078E0703046A670688001B070BD00B581B056
S3251004B7A00DF1030009F0D0FF9DF8030001B000BD40F63442C1F20802506841F2A411C0F6E1
S3251004B7C00101136848600B609368D26842F6B650CA608B60C0F6010000218172C0F806109E
S3251004B7E05D22828181708222828040F2B860C0F60100A0F84A10C0F80A10C0F80E10C0F8C3
S3251004B8001210C0F81610C0F81A10C183C0F82210C0F82610012202724272C0F82A1025228C
S3251004B82080F82E2080F82F2081654186C186704740F63442C1F20802516841F2A410C0F6F7
S3251004B84001001368416003609368D26842F6B651C2608360C0F6010100208872C1F8060044
S3251004B8605D228A81887082228A8040F2B861C0F60101A1F84A00C1F80A00C1F80E00C1F855
S3251004B8801200C1F81600A1F85A00C1F81A00C883C1F82200C1F82600C886704740F2B86093
S3251004B8A0C0F6010090F8581040F21872C0F6010280F859101179012918BF002180F85810E5
S3251004B8C0704710B540F2B864C0F6010494F82A0094F82B20012859D194F85810012928D1D2
S3251004B8E0012A13D0C82002F068F90146012002F065F994F82A0084F82B0040F28C70C0F6EC
S3251004B90001008178C1700121817010BD94F85900012832D0C82002F050F9012102F078F94A
S3251004B92040F28C70C0F601008178C1700121817010BD94F82E00012A12D002F03EF90146C7
S3251004B940012002F03BF994F82A0084F82B0040F28C70C0F601008178C1700121817010BD3A
S3251004B96094F82F20824203D194F859202AB121B902F023F9012102F04BF940F28C70C0F636
S3251004B98001008178C1700121817010BD002A08BF10BD002818BF10BD40F28C70C0F6010013
S3251004B9A08178C1700021817084F82B1010BD10B540F2B864C0F6010494F82C0094F82D204E
S3251004B9C0012859D194F85810012928D1012A13D0C82002F0F2F80146002002F0EFF894F845
S3251004B9E02C0084F82D0040F28C70C0F60100017841700121017010BD94F85900012832D0D9
S3251004BA00C82002F0DAF8002102F002F940F28C70C0F60100017841700121017010BD94F857
S3251004BA202E00012A12D002F0C8F80146002002F0C5F894F82C0084F82D0040F28C70C0F6A4
S3251004BA400100017841700121017010BD94F82F20824203D194F859202AB121B902F0ADF87D
S3251004BA60002102F0D5F840F28C70C0F60100017841700121017010BD002A08BF10BD002877
S3251004BA8018BF10BD02F0B5F840F28C70C0F60100017841700021017094F82C0084F82D0047
S3251004BAA010BD10B540F2B864C0F6010494F82A0094F82B10012855D194F8580038BB012904
S3251004BAC013D0782002F079F80146012002F076F894F82A0084F82B0040F28C70C0F6010064
S3251004BAE08178C1700121817010BD94F8590080B3782002F062F8012102F08AF840F28C7062
S3251004BB00C0F601008178C1700121817010BD012913D0C82002F051F80146012002F04EF87A
S3251004BB2094F82A0084F82B0040F28C70C0F601008178C1700121817010BD94F85910012980
S3251004BB4007D0012805D1C82002F037F8012102F05FF840F28C70C0F601008178C170012150
S3251004BB60817010BD002908BF10BD002818BF10BD012002F03EF840F28C70C0F6010081783D
S3251004BB80C1700021817094F82A0084F82B0010BD10B540F2B864C0F6010494F82C0094F80C
S3251004BBA02D10012855D194F8580038BB012913D0782002F002F80146002001F0FFFF94F895
S3251004BBC02C0084F82D0040F28C70C0F60100017841700121017010BD94F8590080B3782057
S3251004BBE001F0EBFF002102F013F840F28C70C0F60100017841700121017010BD012913D0B6
S3251004BC00C82001F0DAFF0146002001F0D7FF94F82C0084F82D0040F28C70C0F6010001786B
S3251004BC2041700121017010BD94F85910012907D0012805D1C82001F0C0FF002101F0E8FF53
S3251004BC4040F28C70C0F60100017841700121017010BD002908BF10BD002818BF10BD01F0E1
S3251004BC60C8FF40F28C70C0F60100017841700021017094F82C0084F82D0010BD00B540F22D
S3251004BC80B860C0F6010090F8581040F21872C0F6010280F859101179012918BF002180F851
S3251004BCA05810FFF70EFEFFF782FE00BD41F2B813C0F6010340F28C71C0F60101087C4874EE
S3251004BCC00020087440F2B861C0F601010A7B4A7391F82A20087381F82B2091F82C2081F809
S3251004BCE02A0081F82D2081F82C00588091F8282081F8292091F85C2081F8280081F85D208E
S3251004BD0091F8262081F85C0081F8272081F8260098601871D8801873A3F80D0018807047AB
S3251004BD20002070477047704730B541F2B41440F2B862C0F60102C0F60104917A2068012947
S3251004BD400BD040F65C45C1F20805294609F032FB2060294609F01EFB0AE040F67445C1F235
S3251004BD600805294609F026FB2060294609F012FB2060012030BD41F2B813C0F6010340F2A6
S3251004BD808C70C0F60100017C41740021017440F2B860C0F6010090F85C2080F85D2090F88C
S3251004BDA02A2080F85C1080F82B2090F82C2080F82A1080F82D2080F82C101960704710B485
S3251004BDC041F2B414C0F6010440F2B862C0F60102917A022905D140F6A440C1F2080020602D
S3251004BDE006E0002021B940F68C40C1F20800206010BC7047704741F2BC11C0F601010020FA
S3251004BE004860087048800872A1F80900704740F2B862C0F60102917A012915D130B540F612
S3251004BE20744541F2B414C0F60104C1F208052068294609F0BFFA2060294609F0ABFA206003
S3251004BE400120BDE8304070470020704740F2B860C0F60100017B417301210173704740F650
S3251004BE60BC4041F2B411C0F60101C1F20800086070477047704740F2B862C0F60102917AA4
S3251004BE80012915D030B540F65C4541F2B414C0F60104C1F208052068294609F08BFA206052
S3251004BEA0294609F077FA20600120BDE83040704700207047704710B441F2B414C0F601041A
S3251004BEC040F2B860C0F6010090F8371011B190F8361011B1007B012804D140F6EC40C1F298
S3251004BEE0080003E040F60450C1F20800206010BC70477047704740F2B862C0F60102917A77
S3251004BF00022915D130B540F6A44541F2B414C0F60104C1F208052068294609F04BFA2060C7
S3251004BF20294609F037FA20600120BDE8304070470020704741F2BC13C0F6010340F2B86103
S3251004BF40C0F60101087B487391F82620002081F827200873102281F826205860187058809E
S3251004BF601872A3F809007047002070477047704740F2B862C0F60102917AA9B930B540F6F0
S3251004BF80045541F2B414C0F60104C1F208052068294609F00FFA2060294609F0FBF9206063
S3251004BFA00120BDE8304070470020704740F2B860C0F6010090F85C1080F85D10002180F830
S3251004BFC05C1090F82A2080F82A1090F8261080F8271080F82B20102180F82610704710B4CD
S3251004BFE041F2B414C0F6010440F2B861C0F60101087C012807BF40F61C50C1F2080040F668
S3251004C0003450C1F20800206010BC70477047704730B540F2B861C0F6010100208A7F41F212
S3251004C020B414C0F60104042A21D18A7B002A01BF0A7D002A0A7C002A06BF897C002930BD13
S3251004C04041F28A02C0F601021178002918BF30BD40F69455C1F208052068294609F0AAF966
S3251004C0602060294609F096F92060012030BD032A01BF8A7B002A0A7D002A01BF0A7C002A64
S3251004C080897C002918BF30BD41F28A02C0F601021178002918BF30BD40F67C55C1F20805DF
S3251004C0A02068294609F086F92060294609F072F92060012030BD40F2B860C0F6010090F88D
S3251004C0C0261080F82710202180F82610704740F64C5041F2B411C0F60101C1F20800086016
S3251004C0E07047704740F2B860C0F60100817FC177002190F82820817780F8292090F85C20D1
S3251004C10080F8281080F85D2080F85C10704740F2B861C0F601018A7B0020012A1FBF0A7D0D
S3251004C120012A8A7C012A1CBF097C012907D041F28A02C0F601021178002908BF704730B59B
S3251004C14040F6BC4541F2B414C0F60104C1F208052068294609F02EF92060294609F01AF906
S3251004C16020600120BDE83040704710B441F2BC14C0F6010440F2B860C0F601008179012991
S3251004C18015D041F28A02C0F60102117879B92279012A02D161795A2909D2A179E3790129FC
S3251004C1A01ED1642B24BF90F82410002918D140F28C71C0F601010A7C4A7400220A74017BEF
S3251004C1C0417390F8261080F827100273102180F826106260227062802272A4F8092090E0D1
S3251004C1E0A17A012944D190F825C0BCF1000F3FD090F824C0BCF1000F3AD1217184F805C08D
S3251004C200A3F10A025B2A3ED3628841F270739A4228BF012904BF90F82420012A53D140F2D1
S3251004C2201871C0F6010191F82820012A1FBF91F82420012A91F82E20012A1CBF91F82C102F
S3251004C240012931D140F28C71C0F601010A7C4A7400220A74017B417390F82610027380F8F2
S3251004C2602710A272102180F826102270628048E0012A01BF90F82420012A0022A280A3F124
S3251004C2800A025B2AC0D290F82420012ABCD140F28C71C0F60101087C0A744874A272002103
S3251004C2A0E180227061802CE040F28C71C0F60101087C48740420087400202070608001210B
S3251004C2C0217260721DE0627A322A28BF012904BF90F82410012914D140F28C71C0F6010124
S3251004C2E00A7C4A7400220A74017B417390F82610227280F827100273102180F82610A4F81F
S3251004C300092010BC704741F2C012C0F601020020D0709071012140F2B860C0F60100917014
S3251004C32090F8261080F82710402180F82610FFF71CBF00207047FFF718BF40F28C70C0F60E
S3251004C3400100017C417400210174704700207047704700207047704770470020704710B4D5
S3251004C36041F2B814C0F60104A278022A43D0617840F2B860C0F60100322924BFE3780A2BE8
S3251004C3800AD390F82C1080F82D10002180F82C100220A07021802EE023786BB990F82C10F4
S3251004C3A080F82D10012180F82C10E078A1700130E070217063701EE07AB932291BD390F888
S3251004C3C02C1080F82D100121A170217080F82C10E07862700130E0700DE0012A0BD13229E0
S3251004C3E009D390F82C1080F82D10002180F82C102270A4F8011010BC704741F2B812C0F684
S3251004C400010240F28C70C0F60100017C41740521017400205080FFF7A2BF00207047FFF739
S3251004C4209EBF41F2B811C0F6010100200860704740F2B862C0F60102117CA9B930B540F683
S3251004C440345541F2B414C0F60104C1F208052068294608F0AFFF2060294608F09BFF206025
S3251004C4600120BDE8304070470020704740F28C70C0F60100017C41740021017440F2B860E7
S3251004C480C0F6010090F82C2080F82D2080F82C107047002070477047704730B540F2B86152
S3251004C4A0C0F6010141F2B4140A7CC0F60104012A0ED140F61C55C1F208052068294608F00E
S3251004C4C079FF2060294608F065FF2060012030BD8A7B0020002A18BF30BD0A7D002A18BF56
S3251004C4E030BD897C002918BF30BD41F28A02C0F601021178002918BF30BD40F6D445C1F253
S3251004C50008052068294608F055FF2060294608F041FF2060012030BD40F28C70C0F6010017
S3251004C520017C41740021017440F2B860C0F6010090F82A2080F82B2090F82C2080F82A10FD
S3251004C54080F82D2090F85C2080F82C1080F85D2090F8282080F85C1080F8292080F828102A
S3251004C5607047002070477047704730B540F2B862C0F60102917F41F2B414C0F601040529C7
S3251004C5800ED140F66455C1F208052068294608F011FF2060294608F0FDFE2060012030BD84
S3251004C5A003290ED140F67C55C1F208052068294608F000FF2060294608F0ECFE206001202F
S3251004C5C030BD0020042918BF30BD40F69455C1F208052068294608F0EDFE2060294608F0A3
S3251004C5E0D9FE2060012030BD41F2B813C0F6010340F28C70C0F60100017C41740521017452
S3251004C60040F2B860C0F6010090F82A1080F82B10002190F85C2080F82A1080F85D2090F836
S3251004C620282080F85C1080F8292080F828105980FFF795BE00207047FFF791BE41F2B81109
S3251004C640C0F6010100200860704730B540F2B862C0F60102917F41F2B414C0F601040229EE
S3251004C66018BF00290ED140F64C55C1F208052068294608F09FFE2060294608F08BFE2060AE
S3251004C680012030BD002003290ED140F67C55C1F208052068294608F08DFE2060294608F01F
S3251004C6A079FE2060012030BD042918BF30BD40F69455C1F208052068294608F07BFE2060A3
S3251004C6C0294608F067FE2060012030BD40F28C70C0F60100017C41740221017440F2B860ED
S3251004C6E0C0F6010090F82A1080F82B10002180F82A1090F82C1080F82D10012190F85C2082
S3251004C70080F82C1080F85D2090F8282080F85C1080F8292080F828107047002070477047EC
S3251004C720704730B540F2B862C0F60102917F41F2B414C0F60104022918BF00290ED140F638
S3251004C7404C55C1F208052068294608F033FE2060294608F01FFE2060012030BD002005295E
S3251004C7600ED140F66455C1F208052068294608F021FE2060294608F00DFE2060012030BD83
S3251004C780042918BF30BD40F69455C1F208052068294608F00FFE2060294608F0FBFD206054
S3251004C7A0012030BD40F28C70C0F60100017C41740321017440F2B860C0F6010090F82A10DE
S3251004C7C090F82C2080F82B1080F82D200121002280F82C2090F85C2080F82A1080F85D2040
S3251004C7E090F8282080F85C1080F8292080F828107047002070477047704730B540F2B862CD
S3251004C800C0F60102917F41F2B414C0F60104022918BF00290ED140F64C55C1F20805206856
S3251004C820294608F0C7FD2060294608F0B3FD2060012030BD002005290ED140F66455C1F2BF
S3251004C84008052068294608F0B5FD2060294608F0A1FD2060012030BD032918BF30BD40F6D7
S3251004C8607C55C1F208052068294608F0A3FD2060294608F08FFD2060012030BD10B541F285
S3251004C880B414C0F60104207B012804D1607BFF283CBF01306073A07B012804D1E07BFF28C6
S3251004C8A03CBF0130E073207A012806D160894FF6FF7188423CBF01306081207C012804D136
S3251004C8C0607CFF283CBF013060742079012804D16079FF283CBF01306071207D012806D10A
S3251004C8E0E08A4FF6FF7188423CBF0130E082207E01280DD028BF10BD40F64441C1F20801D8
S3251004C9002160084608F046FD20600120207610BD2068BDE8104008F063BD10B541F2CD1481
S3251004C920C0F60104A078012804D1E078FF283CBF0130E070A079012804D1E079FF283CBF7F
S3251004C9400130E071207A012804D1607AFF283CBF013060722079013808D326D0012800F0E8
S3251004C960BE80E0780C2838BF10BD6CE140F2B860C0F60100C27A817A012A02D0012901D092
S3251004C9801AB111B9C1723DF057F93DF065F93DF04DF904F029FA08B9012020713DF04CF93E
S3251004C9A0E0780C2838BF10BD4DE140F2B860C0F60100817AC27A02296AD1022A1AD0C172F8
S3251004C9C040F21870C0F6010090F8381080F8391090F83A1080F83B103DF028F90120607166
S3251004C9E03DF024F904F04FFF05F0C6FD002840F0268163E040F21870C0F6010090F8392045
S3251004CA0090F83810012A03D0012903D0032A1DD003291BD190F83A2080F8391080F83B2089
S3251004CA203DF004F941F2E011C0F601010120087000204880012060713DF0F8F804F023FF30
S3251004CA4005F09AFD002840F0FA8037E090F83B20012A26D090F83A20012A22D180F8391082
S3251004CA6080F83B203DF0E2F841F2E011C0F601010120087000204880012060713DF0D6F878
S3251004CA8004F001FF05F078FD002840F0D88015E0012A02D0012901D01AB111B9C1723DF08C
S3251004CAA0CBF86079002800F0CA803DF0BFF804F0EAFE05F061FD002840F0C18060710220BF
S3251004CAC02071002004F077F941F26840C0F6010004F0F3F8E0780C2838BF10BDB3E004F0DF
S3251004CAE098FB40F2B860C0F60100C27A817A012A02D0012901D052B149B9C1720120207070
S3251004CB00002004F058F9002840F0898060E040F21870C0F6010090F8392090F83810012AA8
S3251004CB2003D0012903D0032A23D0032921D190F83A2041F2E01CC0F6010C01238CF8003021
S3251004CB400023ACF8023080F8391080F83B2002202070184604F02FF941F26840C0F6010070
S3251004CB6004F0ABF800202070E0780C2838BF10BD69E090F83B20012A22D090F83A20012AAE
S3251004CB801ED141F2E01CC0F6010C8CF800200023ACF8023080F8391080F83B2002202070B7
S3251004CBA0184604F008F941F26840C0F6010004F084F800202070E0780C2838BF10BD42E0E4
S3251004CBC0207898B3012812D1002004F0F4F830BB41F21051C0F6010181F8160301202071D1
S3251004CBE000202070E0780C2838BF10BD2BE002280FD1002004F0DFF841F26840C0F6010089
S3251004CC0004F05BF800202070E0780C2838BF10BD19E0032803D13DF00FF8012020710020B5
S3251004CC202070E0780C2838BF10BD0CE041F21051C0F601010878012804BF03202070E0784B
S3251004CC400C2838BF10BD002140F28C70C0F601006180827EC276817610BD41F2DC13C0F607
S3251004CC60010340F2B860C0F60100817AC17200218172197190F84A20D98080F84B2080F823
S3251004CC804A1019807047002070477047704730B5002041F28A02C0F6010241F2D814117866
S3251004CCA0C0F6010431BB40F21871C0F6010191F8393091F83820012B03D0012A0BD0032B3A
S3251004CCC001D0032A07D091F83B20012A12D091F83A1001290ED140F6C455C1F20805206801
S3251004CCE0294608F067FB2060294608F053FB2060012030BD40F2B861C0F601010A793AB915
S3251004CD008A79022A04BF91F8341001292DD030BD012A14D18A79022A18BF30BD91F8362044
S3251004CD20012A04BF91F85020012A1ED091F85220012A04BF91F85010002916D030BD022ADF
S3251004CD4001BF8A79022A91F83610012918BF30BD40F21871C0F6010191F83820012A1DBFB2
S3251004CD60032A91F83A10012930BD40F6DC55C1F208052068294608F01DFB2060294608F06D
S3251004CD8009FB2060012030BD40F21870C0F6010090F83910022903D090F83820022A07D0C4
S3251004CDA090F83B20022A0CD090F83A30022B08D141F2DC11C0F6010101200870002048702D
S3251004CDC0704790F83830012903D0012B0BD0032901D0032B07D0012A08BF704790F83A0021
S3251004CDE0012818BF704741F2DC11C0F6010100200880704740F2B860C0F60100817AC172FC
S3251004CE000221817241F2E010C0F601000121017000214180FFF7B8BF00207047FFF7B4BFE6
S3251004CE2041F2DC11C0F6010100200871C8800880704730B541F2D814C0F601046179002027
S3251004CE40322904D2628941F270739A4219D340F2B862C0F601029379022B04BF92F83620DD
S3251004CE60012A0ED140F6DC55C1F208052068294608F0A0FA2060294608F08CFA20600120D0
S3251004CE8030BD41F28A03C0F601031A783AB9322905D2618941F27072914238BF30BD40F66E
S3251004CEA0AC55C1F208052068294608F083FA2060294608F06FFA2060012030BD40F2B86003
S3251004CEC0C0F60100817AC1720121817241F2DC10C0F6010000210180704700207047704781
S3251004CEE0704730B5002041F28A02C0F6010241F2D8141178C0F6010431BB40F21871C0F624
S3251004CF00010191F8392091F83830012A03D0012B0BD0032A01D0032B07D091F83B20012A0B
S3251004CF2012D091F83A1001290ED140F6C455C1F208052068294608F03DFA2060294608F0FD
S3251004CF4029FA2060012030BD40F2B861C0F601010A79012A12BF022A91F83620002A06D079
S3251004CF608A79012A1EBF91F83610002930BD40F6AC55C1F208052068294608F01BFA20602C
S3251004CF80294608F007FA2060012030BD10B541F2D814C0F60104207A012806D160894FF61A
S3251004CFA0FF7188423CBF013060812079012804D16079FF283CBF01306071207B01280DD0DB
S3251004CFC028BF10BD40F6AC51C1F208012160084608F0E0F920600120207310BD2068BDE8C6
S3251004CFE0104008F0FDB930B541F2EC14C0F601042078012806D160884FF6FF7188423CBF4C
S3251004D0000130608042F6C455C0F60105287930B941F239006978C0F60100405CE8B120797C
S3251004D020012852D028BF30BD60882989884298BF30BDE0880130E97880B2884207D241F20D
S3251004D04039016A78C0F60101895C012928D1002020706080A870E08030BDC82000F0ADFD63
S3251004D0600146002000F0AAFD40F28C71C0F601010878487001200022E280287120706280C9
S3251004D0800870E98820718A4223D840F2B861C0F6010191F82C00012804BF0020207130BDF3
S3251004D0A0E080C82000F089FD0146002000F086FD40F28C71C0F60101087848700120087006
S3251004D0C0207000216180207130BD6088E9888842DBD9002000F08DFD40F28C71C0F60101CE
S3251004D0E00878487000200870012121706080207130BD30B541F2FC14C0F601042079012890
S3251004D10006D1E0884FF6FF7188423CBF0130E08042F6C455C0F60105A87B30B941F2390026
S3251004D120E97AC0F60100405CE8B12078012853D028BF30BDE088698A884298BF30BD2089BC
S3251004D1400130697B80B2884207D241F23901EA7AC0F60101895C012929D1002020712873ED
S3251004D160C4F8060030BDC82000F027FD0146012000F024FD40F28C71C0F601018878C87052
S3251004D1800120887020710021A873C4F806102070E088298A884223D840F2B861C0F601014A
S3251004D1A091F82A00012804BF0020207030BD2081C82000F002FD0146012000F0FFFC40F21C
S3251004D1C08C71C0F601018878C8700120887020710021E180207030BDE088298A8842DBD906
S3251004D1E0012000F006FD40F28C71C0F601018878C8700020887001212171E080207030BD39
S3251004D20030B541F2E814C0F601042078012806D160884FF6FF7188423CBF0130608042F6E2
S3251004D220C455C0F6010595F8360000BB41F2390095F83310C0F60100405CC0B9012000F068
S3251004D2401AFD142000F0FFFC322000F0B6FC00F007FD40F28C70C0F6010001794171012163
S3251004D26085F83610017121700020608030BD6088298F884211D900F0F1FC002000F0FBFCA9
S3251004D28040F28C70C0F6010001794171002101712170618085F8341030BD40F2B861C0F6AF
S3251004D2A0010191F83000002808BF30BD00202070608085F8340030BD30B541F2F414C0F6B9
S3251004D2C001042078012806D160884FF6FF7188423CBF0130608042F6C455C0F60105287E71
S3251004D2E0D0B941F23900697DC0F60100405C98B9E87D00F062FC0146002000F05FFC40F2FE
S3251004D3008C70C0F601000178417001212976017021700020608030BD6088698B88420ED9D9
S3251004D320002000F066FC40F28C70C0F60100017841700021017021706180A97530BD40F211
S3251004D340B861C0F6010191F82C00012818BF30BD002020706080A87530BD30B541F2F81482
S3251004D360C0F601042078012806D160884FF6FF7188423CBF0130608042F6C455C0F60105C0
S3251004D38095F82200E0B941F23900E97FC0F60100405CA8B995F8210000F00FFC0146012092
S3251004D3A000F00CFC40F28C70C0F601008178C170012185F82210817021700020608030BD0C
S3251004D3C06088A98C88420FD9012000F012FC40F28C70C0F601008178C17000218170217093
S3251004D3E0618085F8201030BD40F2B861C0F6010191F82A00012818BF30BD00202070608065
S3251004D40085F8200030BD30B541F2E814C0F601042078012806D160884FF6FF7188423CBF9F
S3251004D4200130608042F6C455C0F6010595F82C00F0B941F2390095F82910C0F60100405CCD
S3251004D440B0B9012000F017FC95F82B0000F0B5FB00F0F9FB40F28C70C0F6010001794171D8
S3251004D460012185F82C10017121700020608030BD6088E98D884211D900F0F0FB002000F0CA
S3251004D480FAFB40F28C70C0F6010001794171002101712170618085F82A1030BD40F2B86178
S3251004D4A0C0F6010191F83000002808BF30BD00202070608085F82A0030BDF0B541F20827DA
S3251004D4C0C0F6010742F6C455C0F60105A87840F2B866C0F60106A8B93978012904BF96F8AD
S3251004D4E02C10002945D100F084FB40F28C71C0F601010878487000200870A8783870287B06
S3251004D50038B93AE0FFF76FFDA87860B33870287B98B3FFF7EEFD287B30B996F82A1019B9B4
S3251004D520012000F066FB287B787095F83400E0BB7979012904BF96F83010002944D100F09D
S3251004D5408DFB002000F097FB40F28C71C0F60101087948710020087195F834007871A87DFE
S3251004D56000287AD134E096F82C1011B900F041FBA8783870287B0028CBD17978012904BF3D
S3251004D58096F82A100029CFD1012000F032FB40F28C71C0F601018878C87000208870287BC8
S3251004D5A0787095F834000028C2D0FFF729FE95F8340048B996F8301031B900F04FFB0020FD
S3251004D5C000F059FB95F834007871A87D002844D1B978012904BF96F82C10002947D100F0C8
S3251004D5E008FB40F28C71C0F601010878487000200870A87DB87095F82000E8B3FFF7ADFE21
S3251004D60095F8200038B996F82A1021B9012000F0F0FA95F82000F87095F82A00002844D1AC
S3251004D6203979012904BF96F8301000294CD100F015FB002000F01FFB40F28C71C0F601010C
S3251004D640087948710020087195F82A00387196F83200012818BFF0BD3CE0FFF72DFEA87DAE
S3251004D66028B996F82C1011B900F0C3FAA87DB87095F820000028C1D1F978012904BF96F8CE
S3251004D6802A100029C7D1012000F0B3FA40F28C71C0F601018878C8700020887095F82000D3
S3251004D6A0F87095F82A000028BAD0FFF7ACFE95F8340038B996F8300020B900F0CFFA0020BD
S3251004D6C000F0D9FA95F82A00387196F83200012818BFF0BD40F28C74C0F60104A07C41F066
S3251004D6E0E1FA207D41F0ECFAA07D41F0F7FA207CBDE8F04041F0C8BA41F21422C0F60102FC
S3251004D70040F2B861C0F60101087D4875002008755072107050801071D0807047002070479C
S3251004D7207047704740F2B862C0F60102917A012915D130B540F60C6541F21024C0F6010493
S3251004D740C1F208052068294607F034FE2060294607F020FE20600120BDE83040704700203E
S3251004D7607047704740F6246041F21021C0F60101C1F20800086070477047704740F2B862B7
S3251004D780C0F60102917AA9B930B540F6F45541F21024C0F60104C1F208052068294607F015
S3251004D7A009FE2060294607F0F5FD20600120BDE8304070470020704740F2B860C0F601002B
S3251004D7C0017D417500210175704710B441F21024C0F6010442F6BC52C0F60102108841F2FD
S3251004D7E09411884239BF40F65460C1F2080040F66C60C1F20800206010BC704770477047D5
S3251004D8000020704740F2B860C0F60100017D417501210175704740F6846041F21021C0F65F
S3251004D8200101C1F20800086070477047704730B541F21024C0F60104617B00200A2928BF67
S3251004D84030BD6189B1F5FA7F38BF30BD40F62465C1F208052068294607F0ACFD20602946CF
S3251004D86007F098FD2060012030BD41F21D21C0F601010020087070470020704770477047B7
S3251004D88042F6BC53C0F60103198841F29412914215D330B540F66C6541F21024C0F601042A
S3251004D8A0C1F208052068294607F084FD2060294607F070FD20600120BDE83040704700203F
S3251004D8C0704741F21421C0F601010120087000204880704700207047704741F21421C0F673
S3251004D8E00101002008704880704730B541F21024C0F6010442F6BC53C0F60103198841F219
S3251004D900941291420ED240F65465C1F208052068294607F04FFD2060294607F03BFD20600D
S3251004D920012030BDE18800200F2938BF30BD40F63C65C1F208052068294607F03BFD2060DD
S3251004D940294607F027FD2060012030BD41F21821C0F60101012008700020488048790130FE
S3251004D9604871704700207047704741F21821C0F60101002008704880704730B541F2102408
S3251004D980C0F60104617B0A290ED340F69C65C1F208052068294607F00DFD2060294607F0ED
S3251004D9A0F9FC2060012030BD002030BD704700207047704770470020704710B541F21024BE
S3251004D9C0C0F601042079012806D1E0884FF6FF7188423CBF0130E080207A012806D16089E3
S3251004D9E04FF6FF7188423CBF01306081207B01280DD028BF10BD40F6F451C1F20801216074
S3251004DA00084607F0C7FC20600120207310BD2068BDE8104007F0E4BC2DE9100141F2202431
S3251004DA20C0F601042078012806D160884FF6FF7188423CBF01306080002140F2B860C0F6E5
S3251004DA40010042F6C2522379C0F60102042B56D80FF20408D8E803F0030B172738002170D8
S3251004DA60027C0174427461800120207148E0807A012845D11088142842D80120207061806F
S3251004DA80022020713CE0837A012B02D11288142A04D9217061800120207131E06288B2F526
S3251004DAA0FA7F2DD322E0837A012B05D0027C427401740120207123E01088182820D3237017
S3251004DAC06180042020711BE0837A012B03D16388B3F5FA7F07D32170027C0174427461809D
S3251004DAE0012020710CE01288182A09D221706180017C4174012101740320207100E0217156
S3251004DB00BDE81001704740F21872C0F601029179012904BF052070473220022904BF0620D0
S3251004DB207047032904BF08207047042904BF0A207047052904BF0C207047062904BF0E2081
S3251004DB407047072904BF10207047082904BF18207047092904BF1E2070470A2904BF252012
S3251004DB6070470B2904BF2D2070470C2904BF332070470D2904BF3D2070470E2904BF46206A
S3251004DB8070470F2904BF54207047102904BF6A207047112904BF78207047122904BF822065
S3251004DBA07047132904BF88207047142904BF8C207047152908BFC82070477047013809D363
S3251004DBC00DD0022810D318BF70471920484380B207F045BE1920484380B207F014BE1920CB
S3251004DBE0484380B207F025BE1920484380B207F02BBE013806D307D0022807D318BF704723
S3251004DC0007F031BE07F003BE07F017BE07F020BE013909D30DD0022910D318BF70471921E2
S3251004DC20484380B207F01BBE1921484380B207F0EABD1921484380B207F0FBBD192148433D
S3251004DC4080B207F001BE40F24711484341F22621C0F60101088080B207F0E0BD07F0E2BD97
S3251004DC6040F24711484341F22621C0F60101088080B207F0D3BD10B5C4B2204607F0FDFD70
S3251004DC802046BDE8104007F0FFBD10B441F22824C0F601042078012806D160884FF6FF7129
S3251004DCA088423CBF01306080002240F2B8602179C0F60100013915D31CD0012918BF227115
S3251004DCC040F08280817A29B140F21871C0F601018B78D3BB2270817B8273C1736280012065
S3251004DCE0207171E02270817B8273C17362800120207169E040F21871C0F601018B78012BF2
S3251004DD0004BF837A012B5FD191F82830012B1FBF91F82E30012B91F82430012B1FBF91F85F
S3251004DD202C30012B91F82A30012B1FBF91F83030012B91F82630012B1FBF91F83230012B3F
S3251004DD4091F8341001293FD109E091F835C0BCF1010F0DD091F834C0BCF1010F08D1817B92
S3251004DD60C1730121217081736280022020712BE0012B01BF91F82830002B91F82E30002B04
S3251004DD8001BF91F82430002B91F82C30002B01BF91F82A30002B91F83030002B01BF91F866
S3251004DDA02630002B91F83230002B0DD16388B3F5AF7F09D391F8341031B92270817B8273FD
S3251004DDC0C17362800120207110BC704741F23021C0F6010101220A54704741F23021C0F630
S3251004DDE0010100220A54704740F2B860C0F60100017B002918BF7047817A002918BF7047EA
S3251004DE0040F28C72C0F60102117C002918BF704790F8360000281CF069A4704741F2302181
S3251004DE20C0F60101087801281CF060A47047FFF7DBBF41F23421C0F6010100200870704781
S3251004DE4010B441F24024C0F601042078012804D16078FF283CBF01306070002140F2B86096
S3251004DE60A278C0F60100013A05D30BD0022A18D332D0A17037E0827C8174C274218001209D
S3251004DE80A07030E0807A01282DD142F6B852C0F601021078012826D1207061700220A070F1
S3251004DEA021E0827A012A05D142F6B853C0F601031A7832B9827C8174C27421800120A070D5
S3251004DEC011E06278C82A0ED3827CC2740122827421800320A07006E0827A22B9827CC27478
S3251004DEE081740120A07010BC704710B540F28C70C0F6010040F21871C0F6010140F2B864F4
S3251004DF00CA7BC0F60104012A02D08A7B012A13D0CA7F012A02D08A7F012A0DD04A7C022A8E
S3251004DF2002D00B7C022B07D04B7F022B15D091F81CC0BCF1020F10D1817BC1730221817343
S3251004DF40A079E07194F84800A17184F8490084F84810022808BF10BD38E0012A02D00A7C65
S3251004DF60012A04D0012B14D0097F012911D194F84810827BC27301228273A079E071A27139
S3251004DF8084F8482084F849100129114608BF10BD1CE094F8481002290BD1827BC27381738C
S3251004DFA0A079E07194F84900A171884208BF10BD0CE00129DDD1827BC2738173A079E07144
S3251004DFC094F84900A171884208BF10BD0320FBF7A3FF94F8480084F8490010BDFFF785BF8B
S3251004DFE000207047FFF781BF704730B540F2B862C0F60102117A41F24424C0F6010402294D
S3251004E0000ED140F6CC65C1F208052068294607F0D1F92060294607F0BDF92060012030BDFE
S3251004E0200020032918BF30BD40F6E465C1F208052068294607F0BEF92060294607F0AAF949
S3251004E0402060012030BD10B540F28C70C0F6010040F21871C0F6010140F2B864CA7BC0F6B2
S3251004E0600104012A02D08A7B012A13D0CA7F012A02D08A7F012A0DD04A7C022A02D00B7CCF
S3251004E080022B07D04B7F022B15D091F81CC0BCF1020F10D1817BC17302218173A079E071D1
S3251004E0A094F84400A17184F8450084F84410022808BF10BD38E0012A02D00A7C012A04D07B
S3251004E0C0012B14D0097F012911D194F84410827BC27301228273A079E071A27184F84420FB
S3251004E0E084F845100129114608BF10BD1CE094F8441002290BD1827BC2738173A079E071AD
S3251004E10094F84500A171884208BF10BD0CE00129DDD1827BC2738173A079E07194F845007F
S3251004E120A171884208BF10BD0120FBF7F5FE94F8440084F8450010BDFFF785BF00207047E0
S3251004E140FFF781BF704730B540F2B862C0F60102117A41F24424C0F6010401290ED140F6AE
S3251004E160B465C1F208052068294607F023F92060294607F00FF92060012030BD00200329DA
S3251004E18018BF30BD40F6E465C1F208052068294607F010F92060294607F0FCF820600120F0
S3251004E1A030BD10B540F28C70C0F6010040F21871C0F6010140F2B864CA7BC0F60104012AC2
S3251004E1C002D08A7B012A13D0CA7F012A02D08A7F012A0DD04A7C022A02D00B7C022B07D09A
S3251004E1E04B7F022B15D091F81CC0BCF1020F10D1817BC17302218173A079E07194F84600A2
S3251004E200A17184F8470084F84610022808BF10BD38E0012A02D00A7C012A04D0012B14D0D5
S3251004E220097F012911D194F84610827BC27301228273A079E071A27184F8462084F84710D2
S3251004E2400129114608BF10BD1CE094F8461002290BD1827BC2738173A079E07194F8470047
S3251004E260A171884208BF10BD0CE00129DDD1827BC2738173A079E07194F84700A171884211
S3251004E28008BF10BD0220FBF747FE94F8460084F8470010BDFFF785BF00207047FFF781BFCE
S3251004E2A0704730B540F2B862C0F60102117A41F24424C0F6010401290ED140F6B465C1F2B7
S3251004E2C008052068294607F075F82060294607F061F82060012030BD0020022918BF30BDE0
S3251004E2E040F6CC65C1F208052068294607F062F82060294607F04EF82060012030BD40F2A9
S3251004E3001872C0F6010292F8221040F2B860C0F60100022906D003290AD001290FD0917EC4
S3251004E320022903D1027A427201727047032903D1027A427201727047012918BF7047027ADC
S3251004E34042720172704710B541F24424C0F60104FFF7D5FF207901282ED028BF10BD40F23A
S3251004E360B861C0F60101087A02280BD140F6CC61C1F208012160084607F00CF820600120A0
S3251004E380207110BD03280BD140F6E461C1F208012160084606F0FEFF20600120207110BD06
S3251004E3A040F6B461C1F208012160084606F0F2FF20600120207110BD2068BDE8104007F013
S3251004E3C00FB860B441F24C20C0F60100392135234370837001703622302101714FF0410C82
S3251004E3E080F815C08175C17531250576502646714176322686710172417280F80AC00173AA
S3251004E400417380F80EC001744174C174C176C270C27143772E22C272C27382740277817713
S3251004E4205322C27780F8205080F8215080F8221060BC704770B40246002042F6C453C0F635
S3251004E440010306461C781D46FF2C18D0944218D015F80A4F0126FF2C11D094420AD1032914
S3251004E46011D061B906EB860103EB41018A7842BB222027E015F80A4F0136FF2CEDD11220DF
S3251004E48020E00329EDD106EB860103EB41018A78012A06D04A7841F23903C0F601039B5CEB
S3251004E4A0012B08BF21200DD0022A0BD840F2B863C0F6010393F83620012AD9D18A700871F2
S3251004E4C000E0887070BC704770B4024642F6C456C0F60106344633780020FF2B16D09342C2
S3251004E4E016D014F80A3F0125FF2B0FD0934208D105EB850206EB4202937869B933BB2220E1
S3251004E50025E014F80A3F0135FF2BEFD112201EE0324693780029F1D0012B06D0537841F2CA
S3251004E5203904C0F60104E45C012C08BF21200ED0022B0CD840F2B86CC0F6010C9CF8363052
S3251004E540012BDCD19370D170107100E0907070BC7047704730B50D46012400380BD00228EF
S3251004E56040F2A7800021284660F05BFF284660F079FF204630BD4868032840F0918088685A
S3251004E5800968097801702968A868497841702968A8688978817029680878F02877D1487827
S3251004E5A00722002818BF102812D1A868EA6089788170A8680024C470A8680471A868E021B4
S3251004E5C04171A8688471284660F04CFF204630BD202812D1A868EA6089788170A8688021E6
S3251004E5E0C170A86800240471A8684471A8688471284660F037FF204630BD402811D1A868BC
S3251004E600EA6089788170A8680024C470A8680471A8684471A8688471284660F023FF2046A7
S3251004E62030BDA0F11102022A0CD88978FFF702FF011E1FD10320E8600024284660F012FFBA
S3251004E640204630BD21280CD1032041F24901C0F60101E8600C700024284660F003FF2046C1
S3251004E66030BDA0F13102022A08D88978FFF72CFF011EDFD0044601281FD11BE011212846D5
S3251004E68060F0CFFE284660F0EDFE204630BD3121284660F0C6FE284660F0E4FE204630BD80
S3251004E6A01321284660F0BDFE284660F0DBFE204630BD2221284660F0B4FE284660F0D2FE68
S3251004E6C0204630BD801C800803D0401C801EFCD100BF704770B485B040F6FC6CC1F2080CDB
S3251004E6E0DCF800C0CDF800C040F6007CC1F2080CDCF800C0CDF804C040F6047CC1F2080CD4
S3251004E700DCF800C0CDF808C040F6087CC1F2080CDCF800C0CDF80CC040F60C7CC1F2080C93
S3251004E72042F20103DCF80060C0F2AA03049600281CBF0029002A6CD00B7ADC07009B640F52
S3251004E74064F390338C7A64F3082323F04073009303604B7A019CDB4363F3CB240B689C4627
S3251004E76063F3000C6CF39F7401940466029C4FF0070C6CF3040444F480740294C0F8004398
S3251004E7800C790025002C18BF7F25C0F80453CD884FEA450C8DF80CC02D0A6D008DF80E5048
S3251004E7A0039DC0F810534FF0070C6CF3040646F4807545F480350495C0F800524E7901251C
S3251004E7C0002E18BF4025C0F804520021C0F8C81EC0F8881EC0F8C81FC0F8881FC0F8081FAD
S3251004E7E0DB0740F2D11358BF0023C0F8483F02F8044B02F8036C4FF0805082E803001161EE
S3251004E800D1619162D162084638320B468C4682E80B10184605B070BC704740F20F01C0F23C
